:020000040800F2
:10000000E806002439030008C71600082716000870
:10001000C51600083F04000805180008000000008D
:10002000000000000000000000000000CB160008E7
:10003000BD04000800000000C9160008CD16000825
:100040005303000853030008530300085303000838
:100050005303000853030008530300085303000828
:100060005303000853030008530300085303000818
:100070005303000853030008530300085303000808
:1000800053030008530300085303000853030008F8
:1000900053030008530300085303000853030008E8
:1000A00053030008530300085303000853030008D8
:1000B00053030008530300085303000853030008C8
:1000C00053030008530300085303000853030008B8
:1000D00053030008530300085303000853030008A8
:1000E00053030008530300080000000053030008F6
:1000F0005303000853030008530300085303000888
:100100005303000853030008530300085303000877
:100110005303000853030008530300085303000867
:100120005303000853030008530300085303000857
:100130005303000853030008530300085303000847
:1001400000000000000000000000000000000000AF
:100150005303000853030008530300085303000827
:100160005303000853030008530300085303000817
:100170005303000853030008530300080000000065
:1001800053030008530300085303000853030008F7
:1001900053030008530300085303000853030008E7
:1001A00053030008530300085303000853030008D7
:1001B00053030008530300085303000853030008C7
:1001C00053030008530300085303000853030008B7
:1001D00053030008530300085303000853030008A7
:1001E0005303000853030008530300085303000897
:1001F0005303000853030008530300085303000887
:100200005303000853030008530300085303000876
:100210005303000853030008530300085303000866
:1002200053030008530300085303000800000000B4
:1002300053030008530300080000000053030008A4
:100240005303000853030008530300085303000836
:100250005303000853030008530300085303000826
:100260005303000853030008530300085303000816
:100270005303000853030008530300080000000064
:100280005303000853030008530300080000000054
:10029000000000005303000800F002F800F03CF8F2
:1002A0000AA090E8000C82448344AAF10107DA45D1
:1002B00001D100F031F8AFF2090EBAE80F0013F0E7
:1002C000010F18BFFB1A43F0010318478016000006
:1002D000A0160000103A24BF78C878C1FAD8520797
:1002E00024BF30C830C144BF04680C6070470000B0
:1002F0000023002400250026103A28BF78C1FBD82F
:10030000520728BF30C148BF0B6070471FB501F0CE
:100310000FFB1FBD10B510BD00F058F81146FFF7D8
:10032000F5FF01F081FA00F076F803B4FFF7F2FF71
:1003300003BC00F07DF800000948804709480047E9
:10034000FEE7FEE7FEE7FEE7FEE7FEE7FEE7FEE785
:10035000FEE7FEE704480549054A064B70470000E2
:100360006917000899020008E8000024E806002444
:10037000E8020024E80200244FF0000200B5134612
:1003800094469646203922BFA0E80C50A0E80C50B5
:10039000B1F12001BFF4F7AF090728BFA0E80C5066
:1003A00048BF0CC05DF804EB890028BF40F8042B5F
:1003B00008BF704748BF20F8022B11F0804F18BFCC
:1003C00000F8012B7047704770477047754600F082
:1003D0002BF8AE4605006946534620F007008546D7
:1003E00018B020B5FFF7B6FFBDE820404FF000067B
:1003F0004FF000074FF000084FF0000B21F007010D
:10040000AC46ACE8C009ACE8C009ACE8C009ACE84F
:10041000C0098D46704710B50446AFF300802046F2
:10042000BDE81040FFF781BF0048704784000024FA
:1004300001491820ABBEFEE7260002007047FEE728
:10044000F0B5BFF34F8FBFF36F8F1A4900200860DC
:10045000BFF34F8FBFF36F8F174A116841F400311C
:100460001160BFF34F8FBFF36F8F13497031086076
:10047000BFF34F8F081F43F6FF7400680D4D103512
:10048000C0F34E31C0F3C90304EA4116184600BF59
:1004900046EA80772F60401EFAD2491EF4D2BFF39D
:1004A0004F8F106840F480301060BFF34F8FBFF360
:1004B0006F8FF0BD50EF00E014ED00E070470000DA
:1004C00030B584240D4BCD0744EA002007D0DC680A
:1004D00024F4E664DC60DC6814430443DC608907D0
:1004E0000BD5D3F80C1121F4E661C3F80C11D3F845
:1004F0000C1111430143C3F80C1130BD0020005210
:10050000CB431D4A9B0720D0CB070AD0D36823F0EA
:100510003003D360D3680343D360D36843F08803C8
:10052000D360890710D5D2F80C1121F03001C2F840
:100530000C11D2F80C110143C2F80C11D2F80C01C5
:1005400040F08800C2F80C017047D16821F03001FA
:10055000D160D2F80C1121F03001C2F80C11D16831
:100560000143D160D2F80C110143C2F80C1190691B
:1005700040F0100090617047002000522DE9F05FBC
:100580002A4C80462A4804258A462669064000F0FF
:1005900023FBBAF1020F814606D12649D4F8100197
:1005A000254D084040F00046DFF890B005EA0B0703
:1005B00037B3D4F8100125EA0000400090B1700074
:1005C00022D01F48816916EA0B0F41EA06018161BA
:1005D00001D1666103E026F00040C4F81401012057
:1005E000BDE8F09FB8F1FF3FE2D000F0F5FAA0EBD4
:1005F0000901414502D8B8F1000FD9D10320EFE736
:10060000206925EA0000D9E7BAF1010F4FF48030E4
:1006100007D0D4F81011C90301D5C4F81401002083
:10062000DEE72169C903FAD56061F8E700200052CE
:100630000000EE170000EE9704000080F0FF10E0CD
:10064000680000240021A0F100634FF400329342BF
:1006500047D3A0F10163934243D32349014491421C
:1006600003D322490144914201D2012139E02049BA
:100670000144914203D31F490144914201D2022116
:100680002FE01D490144914203D31C49014491428A
:1006900001D2032125E01A490144914203D31949AB
:1006A0000144914201D204211BE0174901449142C7
:1006B00003D316490144914201D2052111E01449A6
:1006C0000144914203D313490144914201D20621CE
:1006D00007E011490144914202D3104A10491044E5
:1006E00007210846704700000000FEF70000EEF703
:1006F0000000FCF70000ECF70000FAF70000EAF752
:100700000000F8F70000E8F70000F6F70000E6F751
:100710000000F4F70000E4F70000F2F70000E2F751
:10072000FFFF010070B5044600F056FA0546601C54
:1007300002D004480078044400F04EFA401BA04266
:10074000FAD370BD400000242DE9F05F0446414813
:1007500088460026017D01291AD0012202758146B2
:10076000B246C0F818A02079C00706D001214CF28B
:100770005030FFF703FF00B10126207980070AD52A
:1007800002214CF25030FFF7F9FE20B101265DE066
:100790000220BDE8F09F6EBB20682F4D012807D0D6
:1007A0004FF0FF31C8F80010A76840F2047B48E022
:1007B00061682069FFF7A4FE2079C0070AD00121F3
:1007C0004CF25030FFF7DAFE00B10126E86820F065
:1007D0000800E8602079800738D502214CF25030BB
:1007E000FFF7CCFE00B10126D5F80C0120F008007F
:1007F000C5F80C012AE0226938466168FFF760FEFF
:100800002079C00709D001214CF25030FFF7B6FE25
:10081000E968064621EA0B01E960207980070BD5DB
:1008200002214CF25030FFF7A9FED5F80C11064614
:1008300021EA0B01C5F80C1116B1C8F8007005E0EB
:100840007F1CD4E902010844B842D4D8304689F864
:1008500014A09EE768000024002000520A48C168E6
:1008600041F00101C160C168C9070BD0D0F80C117B
:1008700041F00101C0F80C11D0F80C01C00701D003
:100880000020704701207047002000522DE9F05FE2
:100890002C48144608250E46027D012A08D0012363
:1008A0000375A1F100621F05BA4204D2012707E0D7
:1008B0000220BDE8F09FA6F10161B9420DD20227E6
:1008C0004FF0000A8146C0F818A04CF2503B394660
:1008D0005846FFF753FE10B127E00120E9E7DFF8A3
:1008E0006880012F404623D0D0F80C1141F002015E
:1008F000C0F80C11BFF36F8FBFF34F8F01CC6D1E8B
:1009000015F0FF0501C6F9D1BFF36F8FBFF34F8F0D
:1009100039465846FFF732FE012F41460DD0D1F837
:100920000C2122F00202C1F80C2189F814A0C0E7C2
:10093000C16841F00201C160DCE7CA6822F002022E
:10094000CA60F2E768000024002000520D480E4AF9
:100950000E49C368DB0704D042604160C368DB070F
:100960000BD1D0F80C31DB0709D0C0F80421C0F856
:100970000411D0F80C01C00701D0012070470020FD
:10098000704700000020005223016745AB89EFCD7E
:100990002DE9FC4F01257E4C00234FF0030A4FF058
:1009A000B04E4FF00F0BEBE005FA03F637403A007C
:1009B00077D04F68012F05D0022F03D0112F01D01F
:1009C000122F1AD187684FEA4308D1F80CC00AFAEF
:1009D00008F927EA09070CFA08FC4CEA070CC0F8EA
:1009E00008C0476891F804C0B743CCF3001C0CFA68
:1009F00003FC4CEA070CC0F804C0C6684FEA430C7D
:100A0000D1F80880E1460AFA0CF7BE43019708FACC
:100A100009F848EA0608C0F80C804E68022E01D09A
:100A2000122E12D1DE084FEA437C00EB86060096B8
:100A30000F69366A4FEADC6C0BFA0CF807FA0CF710
:100A400026EA08063743009E37620E790768DDF80C
:100A500004C006F0030606FA09F627EA0C073E432F
:100A600006604E68F6001CD54A4E376847F002070C
:100A7000376036689F0706F00206009623F00306EB
:100A800006F1B046B1463F0FD6F80864DFF808819A
:100A90000BFA07FC404526EA0C0603D14FF0000C88
:100AA00041E06CE0DFF8F4C0604502D14FF0010C8A
:100AB00039E0DFF8ECC0604502D14FF0020C32E0C3
:100AC000DFF8E0C0604502D14FF0030C2BE0DFF807
:100AD000D8C0604502D14FF0040C24E0DFF8CCC050
:100AE000604502D14FF0050C1DE0DFF8C4C0604541
:100AF00002D14FF0060C16E0DFF8B8C0604502D115
:100B00004FF0070C0FE0DFF8B0C0604502D14FF0A6
:100B1000080C08E0DFF8A4C0604502D14FF0090CD2
:100B200001E04FF00A0C0CFA07FC4CEA060CC9F87D
:100B300008C426684F6826EA0206FF0300D516435C
:100B4000266066684F6826EA0206BF0300D5164392
:100B50006660D1F804C07646DEF800705FEACC2CFF
:100B600027EA020700D517433760D1F804C0776839
:100B70005FEA8C2C27EA020700D5174377605B1CDD
:100B80000A681746DA407FF40FAFBDE8FC8F00001B
:100B900080000058F4440258000002580004025833
:100BA00000080258000C02580010025800140258A5
:100BB00000180258001C0258002002580024025855
:100BC0000AB1816170470904FBE700000148006831
:100BD000000C70470010005C0148806870470000FE
:100BE0004000002402488168027811448160704707
:100BF00040000024032010B500F078F800F0E0F980
:100C00000F4A104914681368C4F3032203F00F035A
:100C10008A5CC95C02F01F0201F01F01D0400A4A41
:100C200020FA01F1116009490860002000F010F875
:100C300008B1012010BD00F02BF8002010BD00000D
:100C4000184402583A190008500000244C000024AF
:100C500070B50D4D04462878A0B14FF47A71B1FB00
:100C6000F0F00A490968B1FBF0F000F0C9FC48B99E
:100C7000102C07D200222146501E00F017F8002049
:100C80006C6070BD012070BD400000244C00002449
:100C9000054808B5016841F002010160006800F0F4
:100CA0000200009008BD0000F44402580E4BF0B45E
:100CB0001B680D46C3F30223C3F10706042E00D9B7
:100CC0000426191D072901D2002300E0DB1E0124A0
:100CD00004FA06F19C40491E2940641E99401440C4
:100CE0002143F0BC00F08FBD0CED00E0064900F0A0
:100CF000070210B54FF6FF040868044B204040EA95
:100D000002201843086010BD0CED00E00000FA0559
:100D1000134970B50A68D243520705D5096801F036
:100D20000701814213D118E00A6822F0070202434A
:100D30000A60FFF751FF0A4D4FF47A760446083DEA
:100D400007E000BFFFF748FF001BB04201D90120B8
:100D500070BD2868C0438004F4D4002070BD00003A
:100D60000C4802582DE9F05F04000F467ED0DFF8F2
:100D70003882D8F8000000F00F00B8420CD2D8F842
:100D8000001021F00F013943C8F80010D8F8000016
:100D900000F00F00B84269D12078844D40070AD591
:100DA0002069296801F07001884204D9296821F07E
:100DB00070010143296020787C4E361D00070AD55A
:100DC0006069316801F07001884204D9316821F00E
:100DD0007001014331602078C0060AD5A0693168EE
:100DE00001F4E061884204D9316821F4E0610143F3
:100DF00031602078DFF8B4B180060BF1080B0CD518
:100E0000E1695846DBF8002002F07002914204D9F3
:100E1000026822F070020A430260207880070AD537
:100E2000E068296801F00F01884204D9296821F09F
:100E30000F01014329602078C0073ED05B49A268BA
:100E40002868183920F47060104328606068022810
:100E500018D0032819D00968012819D0490700299A
:100E60004ADADFF848A1AAF1080A00E044E0DAF81B
:100E7000002022F007020243CAF80020FFF7ACFE70
:100E8000814612E009688903E9E709688901E6E714
:100E9000C905E4E7FFF7A0FEA0EB090141F28830A5
:100EA000814202D90320BDE8F09F6168DAF80000B2
:100EB00000F03800B0EBC10FECD1207880070AD5E4
:100EC000E068296801F00F01884204D2296821F006
:100ED0000F0101432960D8F80010404601F00F01CE
:100EE000B9420BD9016821F00F0139430160006854
:100EF00000F00F00B84201D00120D4E7207840076D
:100F00000AD52069296801F07001884204D2296855
:100F100021F0700101432960207800070AD560693B
:100F2000316801F07001884204D2316821F070010B
:100F3000014331602078C0060AD5A069316801F408
:100F4000E061884204D2316821F4E06101433160FC
:100F5000207880060CD5E1695846DBF8002002F0C5
:100F60007002914204D2026822F070020A430260C9
:100F700000F026F80E492A682B68C2F3032203F01A
:100F80000F038A5CC95C02F01F0201F01F01D04010
:100F9000084A20FA01F11160074908600748006813
:100FA000BDE8F05FFFF754BE00200052184402581D
:100FB0003A190008500000244C000024440000248A
:100FC000454970B545480968434B103B11F038025C
:100FD00008D00111082A03D0102A0BD0182A0BD0F0
:100FE000084670BD19688906FBD51968C1F3C101AF
:100FF000C84070BD3A4870BD3749374D18310C1D97
:1010000024350A68096826682D6802F0030406F092
:101010000102C1F30511C5F3CC0515FB02F200EE88
:10102000102AB8EE400AE9B32F4ADFED2E0AB7EED8
:10103000001A6CB1DFED2D1A012C01D0022C43D027
:1010400002EE101A1068F8EE422A81EEA22A1EE083
:101050001C68A40611D51B6801EE901A1168C3F331
:10106000C103F8EE612AD84001EE900AC1F30800EE
:10107000F8EE611A81EEA22A0BE001EE901ADFED84
:101080001C2A00BFF8EE611A106882EEA12AC0F394
:10109000080001EE900AF8EE611A40EE201A31EED7
:1010A000810A00E015E022EE000A1068C0F3462035
:1010B000401C00EE900AF8EE600A80EE201ABCEEAA
:1010C000C10A10EE100A70BD01EE901ADFED092A78
:1010D000D8E7002070BD0000104402580090D003F3
:1010E00040787D0100000039304402580024744AE1
:1010F0000024744C20BCBE4B2DE9F05F04007CD072
:10110000FF4F2078FE4D1837DFF8F493103DC007ED
:1011100048D0D9F80000396800F03800102815D000
:10112000182803D101F0030002280FD06068B0F541
:10113000803F12D010B1B0F5A02F18D0286820F44D
:1011400080302860286820F4802009E02868800327
:1011500028D560680028D2D024E0286840F4803088
:101160002860606888B1FFF737FD064609E0286807
:1011700040F480202860F0E7FFF72EFD801B6428F4
:101180007ED828688003F7D50CE0FFF725FD0646DA
:1011900005E000BFFFF720FD801B6428F0D8286819
:1011A0008003F7D4207841F20308D54E0C3E800727
:1011B00053D5D9F80000396810F038000ED018283F
:1011C00001D188070AD0E068A8B3296821F0190185
:1011D00001432960FFF700FD82461BE028684007B5
:1011E00002D5E06800288AD0FFF7F0FC40451BD804
:1011F0002069402812D0316800E0CCE021F47C3135
:1012000041EA0030306028E0FFF7E6FCA0EB0A007E
:101210000228B5D828684007F6D5E5E7306820F4FD
:101220007C3040F40030EDE7207C316821F0FE4155
:1012300041EA0060E6E7FFE7286820F00100286047
:10124000FFF7CAFC824605E0FFF7C6FCA0EB0A00E8
:10125000022895D828684007F6D42078C0065FD5C4
:10126000D9F80000DFF898B2396800F03800ABF127
:10127000040B082812D0182805D101F0030000E063
:10128000EAE001280AD0E0690028286838D040F058
:1012900080002860FFF7A0FC824623E02868C00594
:1012A00023D5E069802876D11FE0206A202821D04C
:1012B000316821F0F84141EA8060306030E000BFE1
:1012C00094F82010DBF8002022F07C5242EA016101
:1012D000CBF8001024E000BFFFF77EFCA0EB0A0073
:1012E000022896D82868C005F6D5FFF76FFC404560
:1012F000E6D8DAE7306820F0F84040F08040DCE7DC
:1013000020F080002860FFF767FC064605E000BF7C
:10131000FFF762FC801B02289BD82868C005F7D421
:101320002078000729D57648616964300029804615
:10133000016811D041F001010160FFF74DFC064644
:1013400005E000BFFFF748FC801B0228C9D8D8F889
:1013500000008007F6D510E021F001010160FFF7E1
:101360003BFC064605E000BFFFF736FC801B022869
:1013700072D8D8F800008007F6D42078800623D5EC
:10138000A0690028286810D040F480502860FFF73A
:1013900023FC064605E02CE1FFF71EFC801B02281B
:1013A0005AD828688004F7D50EE020F480502860D1
:1013B000FFF712FC064604E0FFF70EFC801B022834
:1013C0004AD828688004F7D4207840074FD5DFF842
:1013D0003481D8F8001041F48071C8F80010FFF78C
:1013E000FBFB064605E000BFFFF7F6FB801B642809
:1013F00032D8D8F80000C005F6D5414EA068603656
:1014000001280AD008B1052813D0306820F0010067
:101410003060306820F0040002E0306840F00100E5
:101420003060A06841F2883A90B1FFF7D5FB804662
:101430000AE0306840F004003060EEE7FFF7CCFBD4
:10144000A0EB0801514507D830688007F6D50EE0BB
:10145000FFF7C2FB804607E084E000BFFFF7BCFB5C
:10146000A0EB080151457DD830688007F6D4606A4A
:10147000F0B3DFF88C80D9F8001008F12008C1F330
:10148000C20103296FD00228286820F080702860EC
:1014900003D0FFF7A1FB044680E0FFF79DFB064663
:1014A00005E000BFFFF798FB801B022873D828686F
:1014B0008001F7D4E26A40F2F331386854F8283FEB
:1014C000884340EA021018433860217B4FF4FE0C39
:1014D00022894FF0FE47208A4902267D521E401E77
:1014E000A1F5007189B20CEA0040C2F3080200E0E5
:1014F00081E01143761E0143014807EA066203E0DA
:1015000010440258004802581C3011433B4AC8F8A6
:101510000010016821F00101016011684FF6F876B2
:10152000236AB14341EAC30111600168A26921F055
:101530000C01114301600168E26921F002011143CD
:101540000160016841F480310160016841F40031BB
:101550000160016841F480210160016841F00101EE
:10156000016001E017E01DE0286840F0807028600D
:10157000FFF732FB044604E0FFF72EFB001B0228B6
:1015800009D828688001F7D535E000BFFFF724FBB4
:10159000001B022802D90320BDE8F09F28688001C3
:1015A000F4D428E039680128D8F8000021D0A26AD4
:1015B00001F0030393421CD1E26AC1F305118A4290
:1015C00017D1216BC0F30802491E8A4211D1616B09
:1015D000C0F34622491E91420BD1A16BC0F30642D3
:1015E000491E914205D1E16BC0F30660491E81425C
:1015F00001D00120D0E70020CEE70000344402589B
:10160000401EB0F1807F10B501D3012010BD4FF016
:10161000E02460610F21601700F0F5F80020A06160
:101620000721216110BDFEE770B50A4E01220C466C
:10163000054608213046FFF7C3FA681EFFF772F827
:10164000002230460821FFF7BBFA601EBDE870405B
:10165000FFF768B80010025810B586B0142168462C
:10166000FEF78AFE1548016841F01001016001682B
:1016700001F010010591016841F0800101600168ED
:1016800001F080010591016841F0010101600068ED
:1016900000220B4C082100F0010005902046FFF7C6
:1016A0008FFA00210820009001222046CDE9012177
:1016B00003916946FFF76CF906B010BDE04402588B
:1016C00000100258FEE7704770477047FFF78ABA6C
:1016D00070B59CB04C216846FEF74EFE202113A841
:1016E000FEF74AFE0220FFF713FB1D490A681D485A
:1016F00022F001020A600968016821F4404141F4C6
:10170000004101600168002401F440411B9101681F
:101710008904FCD50DF1280C0220099005216022D6
:101720008CE80700C3030F9008250D9001260E904A
:10173000CDE91054CDE9006368461294FFF7DCFC54
:1017400013AA3F20032182E833000121179413A834
:10175000189419941A94FFF705FB1CB070BD000093
:101760002C04005818480258214A30B52149146801
:101770000020204B44F47004146010330A681E4D9E
:1017800042F001020A6018600A681A4B2A400A6097
:1017900018331C1D251D174A186028322060131DA0
:1017A00028601C1D251D10602A1D1860131D206057
:1017B0001C1D2860251D10601860206028600A68C4
:1017C0000C4B0E4C22F4802260330A6018602068B3
:1017D0006FF30F00B0F1005F03D209490120C1F897
:1017E00008014FF0006002498039086030BD0000F8
:1017F00088ED00E0004402587FEDF6EA0010005C3E
:1018000000800051FEE7090700284FEA116104DB60
:1018100000F1E02080F80014704700F00F0000F1A4
:10182000E02080F8141D7047FEF70AFEFFF7E2F98A
:10183000FFF74EFFFFF710FFFFF788F8384E3046EE
:10184000FEF700FF374C384F20603846FEF7FAFEAF
:10185000024636482168202300F1080C4FF00008AA
:10186000521A521C626001258CE80E00C0E9008506
:1018700004F10C01FEF768FF4FF4FA7520B1284619
:101880002946FFF7D1FEFAE7A6600120254AA168A4
:101890002032FEF7FBFF20B128462946FFF7C4FEA1
:1018A000FAE7A0682030A060B842EED3FEF7D6FF7A
:1018B000C4F81480A660BC461A4B2033C4F81080CC
:1018C000A168D1E90001A061E161BFF34F8FA16977
:1018D0002069E26903EBC007D7E9006771407A40ED
:1018E000114302D06169491C6161A168401C042850
:1018F00001F10801A1602061E2D36145DED3606996
:1019000020B128462946FFF78FFEFAE7294640F620
:10191000B83000BFFFF788FE32202946FAE7000002
:101920000000040800000024FFFF0D0854000024FC
:101930004FF04070E1EE100A704700000000010215
:101940000304010203040607080900006C190008DB
:101950000000002454000000D4020008C019000850
:101960005400002494060000F0020008000000006B
:101970000000000000000000000000000000000067
:10198000000000000000000000000000080706053D
:1019900004030201181716151413121128272625FF
:1019A0002423222138373635343332310100000008
:1019B00010000000000000000090D0030090D00351
:040000050800029954
:00000001FF
