:0200000490006A
:10000000384B0024AD0200901F3B00905F360090FB
:100010001D3B009093030090D16A00900000000007
:100020000000000000000000000000001D530090D0
:1000300011040090000000009B3C009029530090A8
:10004000C7020090C7020090C7020090C70200904C
:10005000C7020090C7020090C7020090C70200903C
:10006000C7020090C7020090C7020090C70200902C
:10007000C7020090C7020090C7020090C70200901C
:10008000C7020090C7020090C7020090C70200900C
:10009000C7020090C7020090C7020090C7020090FC
:1000A000C7020090C7020090C7020090C7020090EC
:1000B000C7020090C7020090C7020090C7020090DC
:1000C000C7020090C7020090C7020090C7020090CC
:1000D000C7020090C7020090C7020090C7020090BC
:1000E000C7020090C702009000000000C702009005
:1000F000C7020090C7020090C7020090C70200909C
:10010000C70200905D470090C7020090C7020090B0
:10011000C7020090C7020090C7020090C70200907B
:10012000C7020090C7020090C7020090C70200906B
:10013000C7020090C7020090C7020090C70200905B
:1001400000000000000000000000000000000000AF
:10015000C7020090C7020090C7020090C70200903B
:10016000C7020090C7020090C7020090C70200902B
:10017000C7020090C7020090C70200900000000074
:10018000C7020090C7020090C7020090C70200900B
:10019000C7020090C7020090C7020090C7020090FB
:1001A000C7020090C7020090C7020090C7020090EB
:1001B000C7020090C7020090C7020090C7020090DB
:1001C000C7020090C7020090C7020090C7020090CB
:1001D000C7020090213B0090C7020090C702009028
:1001E000C7020090C7020090C7020090C7020090AB
:1001F000C7020090C7020090C7020090C70200909B
:10020000C7020090C7020090C7020090C70200908A
:10021000C7020090C7020090C7020090C70200907A
:10022000C7020090C7020090C702009000000000C3
:10023000C7020090C702009000000000C7020090B3
:10024000C7020090C7020090C7020090C70200904A
:10025000C7020090C7020090C7020090C70200903A
:10026000C7020090C7020090C7020090C70200902A
:10027000C7020090C7020090C70200900000000073
:10028000C7020090C7020090C70200900000000063
:1002900000000000C7020090DFF80CD000F03CF82E
:1002A00000480047656B0090384B002406488047A3
:1002B00006480047FEE7FEE7FEE7FEE7FEE7FEE74B
:1002C000FEE7FEE7FEE7FEE7355400909902009056
:1002D00040EA01039B0703D009E008C9121F08C0C8
:1002E000042AFAD203E011F8013B00F8013B521E48
:1002F000F9D27047D2B201E000F8012B491EFBD2BF
:1003000070470022F6E710B513460A460446194620
:10031000FFF7F0FF204610BD064C074D06E0E068F1
:1003200040F0010394E8070098471034AC42F6D33C
:10033000FFF7B6FF606C0090806C009070B58C1871
:1003400010F8015B15F0070301D110F8013B2A11E9
:1003500006D110F8012B03E010F8016B01F8016BD6
:100360005B1EF9D12B0705D40023521E0DD401F8D2
:10037000013BFAE710F8013BCB1A921C03E013F89B
:10038000015B01F8015B521EF9D5A142D8D30020D0
:1003900070BDFEE7F0B5BFF34F8FBFF36F8F1A4903
:1003A00000200860BFF34F8FBFF36F8F174A1168AB
:1003B00041F400311160BFF34F8FBFF36F8F1349CA
:1003C00070310860BFF34F8F081F43F6FF74006859
:1003D0000D4D1035C0F34E31C0F3C90304EA411688
:1003E000184600BF46EA80772F60401EFAD2491EA9
:1003F000F4D2BFF34F8F106840F480301060BFF329
:100400004F8FBFF36F8FF0BD50EF00E014ED00E0B1
:1004100070474FF4FA74204603F03EF9FBE7000002
:1004200070B5044600F032F90546601C02D004485D
:100430000078044400F02AF9401BA042FAD370BDB2
:10044000000000242DE9FC4F01257E4C00234FF0D5
:10045000030A4FF0B04E4FF00F0BEBE005FA03F636
:1004600037403A0077D04F68012F05D0022F03D0D4
:10047000112F01D0122F1AD187684FEA4308D1F803
:100480000CC00AFA08F927EA09070CFA08FC4CEA3A
:10049000070CC0F808C0476891F804C0B743CCF314
:1004A000001C0CFA03FC4CEA070CC0F804C0C66838
:1004B0004FEA430CD1F80880E1460AFA0CF7BE4334
:1004C000019708FA09F848EA0608C0F80C804E6857
:1004D000022E01D0122E12D1DE084FEA437C00EB2F
:1004E000860600960F69366A4FEADC6C0BFA0CF848
:1004F00007FA0CF726EA08063743009E37620E79A2
:100500000768DDF804C006F0030606FA09F627EAD4
:100510000C073E4306604E68F6001CD54A4E37680D
:1005200047F00207376036689F0706F0020600961C
:1005300023F0030606F1B046B1463F0FD6F8086433
:10054000DFF808810BFA07FC404526EA0C0603D1C8
:100550004FF0000C41E06CE0DFF8F4C0604502D1E0
:100560004FF0010C39E0DFF8ECC0604502D14FF0EC
:10057000020C32E0DFF8E0C0604502D14FF0030C1E
:100580002BE0DFF8D8C0604502D14FF0040C24E026
:10059000DFF8CCC0604502D14FF0050C1DE0DFF85C
:1005A000C4C0604502D14FF0060C16E0DFF8B8C0B9
:1005B000604502D14FF0070C0FE0DFF8B0C0604596
:1005C00002D14FF0080C08E0DFF8A4C0604502D16A
:1005D0004FF0090C01E04FF00A0C0CFA07FC4CEA52
:1005E000060CC9F808C426684F6826EA0206FF030D
:1005F00000D51643266066684F6826EA0206BF03E8
:1006000000D516436660D1F804C07646DEF8007067
:100610005FEACC2C27EA020700D517433760D1F8F0
:1006200004C077685FEA8C2C27EA020700D51743DD
:1006300077605B1C0A681746DA407FF40FAFBDE8AD
:10064000FC8F000080000058F4440258000002585B
:100650000004025800080258000C0258001002580A
:100660000014025800180258001C025800200258BA
:10067000002402580AB1816170470904FBE70000B9
:1006800001480068000C70470010005C0148806859
:10069000704700000000002402488168027811447D
:1006A0008160704700000024032010B500F0D4F8EA
:1006B00001F090FE0F4A104914681368C4F3032236
:1006C00003F00F038A5CC95C02F01F0201F01F01F6
:1006D000D0400A4A20FA01F111600949086000205F
:1006E00000F010F808B1012010BD00F079F80020EA
:1006F00010BD0000184402582C6C0090100000241B
:100700000C00002470B50D4D04462878A0B14FF4BC
:100710007A71B1FBF0F00A490968B1FBF0F002F020
:100720008BFF48B9102C07D200222146501E00F042
:1007300073F800206C6070BD012070BD00000024C3
:100740000C000024F0B5154C4378211D0A1D2360D0
:100750000378F3B143680B60057BC67A817A437BEB
:100760002D07847B45EA0665C77B90F809C0067AA9
:1007700090F800E045EAC14040EA834040EA444046
:1007800040EA074040EA0C2040EA460040EA0E00FA
:1007900001E0002008601060F0BD000098ED00E06E
:1007A000BFF35F8F044800210368034A23F48033BA
:1007B000036070321160704724ED00E0074A40F09A
:1007C0000100064970321060086840F4803008600B
:1007D000BFF34F8FBFF36F8F7047000024ED00E031
:1007E000054808B5016841F002010160006800F0A9
:1007F0000200009008BD0000F4440258002809DB04
:10080000410900F01F028900012001F1E021904020
:10081000C1F80001704700000E4BF0B41B680D4694
:10082000C3F30223C3F10706042E00D90426191DC1
:10083000072901D2002300E0DB1E012404FA06F19F
:100840009C40491E2940641E994014402143F0BC3D
:1008500006F03FB90CED00E0064900F0070210B5C4
:100860004FF6FF040868044B204040EA022018437A
:10087000086010BD0CED00E00000FA0501680123DE
:10088000C0F8FC33002280F8F4238869044A40F061
:1008900000608861486D1043486500207047000083
:1008A0000300001070470068416200207047F0B5F7
:1008B00003685D6A39B19F6A4C1E00204FF482764E
:1008C00005EB17450BE045EA0240986210E0471C33
:1008D00006EB800053F800C0F8B205EB1C45A042BF
:1008E000F5D34FF4807000EB810045EA02421A50C4
:1008F0000020F0BDD0F8040405F000B8C1EBC1023F
:1009000000EB8202D0F80404926C04F06BBFC1EBE0
:10091000C10200EB8202D0F80404D2F8082204F0ED
:10092000B6BFD0F8040404F0EBBF01F00F020B06D1
:1009300070B5C2EBC20104464FF001004FF0000554
:1009400004EB810103D581F83D003C3103E081F8DF
:10095000FD5101F5FE710A7094F8BC23012A08D0FC
:1009600084F8BC03206805F04BFC002084F8BC53DD
:1009700070BD022070BD70B54268044601F00F00E2
:10098000904201D9012070BD01F00F024FF0000527
:100990000B06C2EBC2014FF0010204EB810103D54B
:1009A00081F83D203C3103E081F8FD5101F5FE71F5
:1009B0008D70087094F8BC03012808D084F8BC231B
:1009C000206805F017FE002084F8BC5370BD02209B
:1009D00070BD10B5044690F8BC0301280AD0012070
:1009E00084F8BC0320680A0606D501F00F0105F063
:1009F00063FF03E0022010BD05F04EFF002084F8E5
:100A0000BC0310BD01F00F01C1EBC10100EB81007F
:100A1000D0F8140270472DE9F04101F00F060446AA
:100A20000D064FF00100C6EBC6014FF0000504EBC8
:100A3000810103D581F83D003C3103E081F8FD518F
:100A400001F5FE714F788A60CB700E7007B1CE80D1
:100A5000022B00D10D7194F8BC23012A09D084F82F
:100A6000BC03206805F026FB284684F8BC53BDE88B
:100A7000F0810220FBE770B501F00F050C4600265F
:100A8000C5EBC50100EB8101C1F80822C1E984363C
:100A900081F8FD6181F8FC5101F5FE710369012BBC
:100AA00000D10A612207027C006803D005F0FAFD3C
:100AB000002070BD05F0E4FCFAE770B50D46416812
:100AC000044605F00F00884201D9012070BD2906B7
:100AD0004FF000064FF0010207D5C0EBC00104EB58
:100AE000810181F83D203C3107E0C5EBC50104EBF5
:100AF000810181F8FD6101F5FE718A70087094F83A
:100B0000BC03012807D084F8BC23206805F09EFDB3
:100B1000280702D007E0022070BD217C04F5717225
:100B2000206805F03BFD002084F8BC6370BD2DE912
:100B3000F04101F00F050C460026C5EBC501012769
:100B400000EB81018A64C1E9143681F83D7001F837
:100B50003C5F0369012B00D10A612207027C006817
:100B600004D005F09FFD0020BDE8F08105F088FC71
:100B7000F9E700002DE9FC5F05680446284605F00A
:100B8000BAFE00287ED1206805F0E1FE002879D069
:100B9000206805F0DCFE800704D52068416901F07B
:100BA00002014161206805F0D2FEC10604F57170B2
:100BB000009034D52068816921F0100181612F6A8D
:100BC00007F00F01C7F34340C1EBC101022804EB5A
:100BD000810606F5FE7602D0062811D01AE047F607
:100BE000F070074216D0C7F30A12F168174628467C
:100BF00005F0B1FEF168B0693944F160384408E0AD
:100C000000990822284605F0A6FEB069C7F30A112C
:100C10000844B0612068816941F010018161206859
:100C200005F095FE00034FF001094FF0080B5BD56E
:100C30002068002605F06AFEDFF8A8A3074651E009
:100C4000F8074DD02068F1B205F079FE8046C00764
:100C500007D005EB4611C1F8089B3146204602F04B
:100C600065FF5FEA087022D505EB4611C1F808BBA5
:100C70002068016C00EB461001915145D0F8081B2B
:100C800007D900E0ABE1090403D54FF40041C0F8F7
:100C9000081B204600F098FA0198504507D92069B2
:100CA000012804D120680121009A05F077FC5FEA51
:100CB000C86004D505EB46111020C1F8080B5FEAA7
:100CC000886004D505EB46102021C0F8081B5FEAB8
:100CD000884005D505EB46114FF40050C1F8080BCC
:100CE0007F08761C002FABD1206805F030FE400352
:100CF0004FF0000A5CD5206805F001FE002607468B
:100D000054E0F80750D02068F1B205F006FE8046A6
:100D1000C00723D0D5F8342806F00F0C05EB461396
:100D200009FA0CF08243C5F83428C3F80899206901
:100D300001280FD1C6EBC60004EB8000D0E91112E8
:100D40001144816436B9206D20B920680121009AD0
:100D500005F024FC2046F1B2FFF7D0FD5FEA0870F1
:100D600003D505EB4611C1F808B95FEAC86004D5A0
:100D700005EB46111020C1F808095FEA486004D568
:100D800005EB46114020C1F808095FEA887004D5D8
:100D900005EB46110220C1F808095FEA086003D597
:100DA0003146204602F028FF7F08761C002FA8D18C
:100DB000206805F0CCFD002811DAD5F8040820F0F1
:100DC0000100C5F8040894F8F403012839D020463E
:100DD00000F0DEF92068416901F0004141612068BE
:100DE00005F0B5FD00050BD5D5F80808C00702D001
:100DF000204600F011FA2068416901F40061416168
:100E0000206805F0A4FD00010AD52068416901F0C1
:100E10000061416194F8F403D0B1204600F0FCF980
:100E2000206805F094FDC00476D5D5F8040820F0BC
:100E30000100C5F804082068102105F03DFD0021DF
:100E400035E00021204684F8F4A3FFF72BFDC1E72D
:100E500084F8F4932068406D0121C0F38300C4F846
:100E6000F8032046FFF71EFDDAE700BF05EB41104F
:100E70004FF67F32C0F80829D0F8003923F4001368
:100E8000C0F80039D0F8003943F00063C0F80039E9
:100E9000C0F8082BD0F8002B22F40012C0F8002B69
:100EA000D0F8002B42F00062C0F8002B491C6068AB
:100EB0008842DBD8D5F81C0840F00110C5F81C08A2
:100EC000206B60B1D5F8840840F00B00C5F88408A9
:100ED000D5F8440840F00B00C5F844080CE0D5F8FC
:100EE000140842F22B010843C5F81408D5F810087D
:100EF00040F00B00C5F81008D5F8000820F4FE609B
:100F0000C5F80008217C2068009A05F047FB20689E
:100F1000416901F480514161206805F018FD8004A9
:100F200017D5206805F006F9206805F0D7FCE060C9
:100F300001F02EFA0146207B2368C2B2184605F064
:100F400041FD204600F00EF92068416901F400518E
:100F50004161206805F0FBFC000707D5204600F042
:100F60001BF92068416901F008014161206805F022
:100F7000EEFCC00208D50021204600F035F82068BC
:100F8000416901F480114161206805F0E0FC8002B4
:100F900008D50021204600F02BF82068416901F4B3
:100FA00000114161206805F0D2FC400007D52046C1
:100FB000FFF7A0FC2068416901F080414161206891
:100FC00005F0C5FC40070AD520684568680702D5CA
:100FD0002046FFF7A6FC2168486828434860BDE822
:100FE000FC9F00000A30544FD0F8040404F0E4BC25
:100FF000D0F8040404F0E2BC2DE9F04104008AB00A
:1010000005D094F8BD030025266820B108E0012032
:101010000AB0BDE8F081204684F8BC5300F066F8C1
:10102000032084F8BD03F06BC00500D4256120685F
:1010300005F020FA04F11001684628228846FFF7DF
:1010400047F994E80F0005F083F80227D8BB206821
:10105000002105F08EFC0020012610E0C0EBC0014D
:10106000421C04EB810181F83D6081F83F504D64E2
:101070008D640D6581F83C00A1F84200D0B2616832
:101080008142EBD8002011E0C0EBC001421C04EB10
:10109000810181F8FD5181F8FF51C1F80452C1F876
:1010A0000852C1F8105281F8FC01D0B26168814247
:1010B000EAD8282241466846FFF70AF994E80F006B
:1010C00005F01CF910B184F8BD73A0E7606A84F8DC
:1010D000385084F8BD63012802D12046FFF7CEFBCB
:1010E000206805F0FFF8002092E7000010B586B0F8
:1010F000044614216846FFF704F91749206888421E
:1011000028D11648016841F00101016000680A23F6
:10111000022200F00100059000204FF4C051009120
:101120006946CDE90120CDE903030D48FFF78AF9AF
:101130000A480838016841F0006101600068002237
:10114000114600F0006005906520FFF765FB652003
:10115000FFF754FB06B010BD00000840E044025801
:101160000000025870B50446C068012570B102281D
:1011700001D0FFF74EF9D4F80404294604F074FCBA
:10118000D4F80404BDE8704004F02FBC0025F2E759
:10119000D0F8040404F052BCD0F8040404F058BCA5
:1011A00010B5044690F8BC0301280BD0012084F848
:1011B000381084F8BC03206805F0F2FB002084F8A6
:1011C000BC0310BD022010BDD0F8042400F57171DD
:1011D000104604F055BC10B590F8BC1304460068E6
:1011E000012906D0A26A012184F8BC13012A02D089
:1011F00008E0022010BDA169012903D0816B41F4F0
:1012000080318163206805F061F8206805F03EFBBD
:10121000002084F8BC0310BD10B50446D0F80404C7
:1012200004F06EFC2068D0F8001E41F00101C0F807
:10123000001E206A002804D00248016841F006011F
:10124000016010BD10ED00E0134970B50A68D2438B
:10125000520705D5096801F00701814213D118E052
:101260000A6822F0070202430A60FFF70FFA0A4DEC
:101270004FF47A760446083D07E000BFFFF706FA10
:10128000001BB04201D9012070BD2868C043800412
:10129000F4D4002070BD00000C48025802480168D8
:1012A00041F08071016070470C48025810B501F0A0
:1012B0006FF805490968054AC1F30211515C01F054
:1012C0001F01C84010BD0000204402582C6C009043
:1012D000494930B5484C0B1D0A680C3409681D6833
:1012E000246802F0030305F00102C1F30511C4F301
:1012F000CC04002914FB02F200EE102AF8EE400A9A
:1013000075D03F4A9FED3D1AB7EE000A6BB1DFED95
:101310003D1A012B01D0022B64D002EE101A116885
:10132000F8EE422A81EEA22A21E0334C283C2368C1
:101330009B0612D5344B246801EE901A1168C4F351
:10134000C104F8EE612AE34001EE903AC1F30801CE
:10135000F8EE611A81EEA22A0BE001EE901ADFEDA1
:101360002B2A00BFF8EE611A116882EEA12AC1F3A0
:10137000080101EE901A1168F8EE611A40EE811A28
:1013800071EE800A62EE200AC1F3462101EE101AC6
:10139000B8EE411A31EE001AC0EE811ABCEEE11A25
:1013A00080ED001A1168C1F3064101EE101AB8EE83
:1013B000411A31EE001AC0EE811ABCEEE11A80ED3E
:1013C000011A1168C1F3066101EE101AB8EE411A54
:1013D00031EE000A80EE801ABCEEC10A80ED020AEE
:1013E00030BD04E001EE901ADFED092ABAE70021D2
:1013F000016041608160F3E7284402580000003931
:10140000304402580024744A0090D0030024744CE5
:1014100020BCBE4B494930B5484C0B1D0A681434FA
:1014200009681D68246802F00303C5F30012C1F3C4
:101430000531C4F3CC04002914FB02F200EE102A9B
:10144000F8EE400A75D03F4A9FED3D1AB7EE000A0C
:101450006BB1DFED3D1A012B01D0022B64D002EEFF
:10146000101A1168F8EE422A81EEA22A21E0334CCC
:10147000283C23689B0612D5344B246801EE901A51
:101480001168C4F3C104F8EE612AE34001EE903A1A
:10149000C1F30801F8EE611A81EEA22A0BE001EE19
:1014A000901ADFED2B2A00BFF8EE611A116882EE68
:1014B000A12AC1F3080101EE901A1168F8EE611A31
:1014C00040EE811A71EE800A62EE200AC1F34621D5
:1014D00001EE101AB8EE411A31EE001AC0EE811A70
:1014E000BCEEE11A80ED001A1168C1F3064101EE6D
:1014F000101AB8EE411A31EE001AC0EE811ABCEE95
:10150000E11A80ED011A1168C1F3066101EE101AAB
:10151000B8EE411A31EE000A80EE801ABCEEC10A24
:1015200080ED020A30BD04E001EE901ADFED092AD9
:10153000BAE70021016041608160F3E72844025866
:1015400000000039384402580024744A0090D00347
:101550000024744C20BCBE4B494930B5484C0B1D8F
:101560000A681C3409681D68246802F00303C5F387
:101570000022C1F30551C4F3CC04002914FB02F28C
:1015800000EE102AF8EE400A75D03F4A9FED3D1A52
:10159000B7EE000A6BB1DFED3D1A012B01D0022B33
:1015A00064D002EE101A1168F8EE422A81EEA22AE7
:1015B00021E0334C283C23689B0612D5344B246829
:1015C00001EE901A1168C4F3C104F8EE612AE340F9
:1015D00001EE903AC1F30801F8EE611A81EEA22AF9
:1015E0000BE001EE901ADFED2B2A00BFF8EE611A36
:1015F000116882EEA12AC1F3080101EE901A116868
:10160000F8EE611A40EE811A71EE800A62EE200A4D
:10161000C1F3462101EE101AB8EE411A31EE001A5C
:10162000C0EE811ABCEEE11A80ED001A1168C1F318
:10163000064101EE101AB8EE411A31EE001AC0EE62
:10164000811ABCEEE11A80ED011A1168C1F306613E
:1016500001EE101AB8EE411A31EE000A80EE801A3F
:10166000BCEEC10A80ED020A30BD04E001EE901A22
:10167000DFED092ABAE70021016041608160F3E7EC
:101680002844025800000039404402580024744A9B
:101690000090D0030024744C20BCBE4B2DE9F047D1
:1016A0004FF480760146B0426F48DFF8B8818AB0C7
:1016B0006E4B4FF080576E4DA8F104044FEA201294
:1016C0004FF0005C29D1D8F8001001F0070105297E
:1016D0001FD2DFE801F0030A0F20140006A8FFF76D
:1016E000F7FD07980AB0BDE8F0876846FFF792FE5D
:1016F0000098F7E703A8FFF72FFF0398F2E72168A8
:1017000011F04051EED0B94275D11046EAE71846C3
:10171000E8E70020E6E72846E4E7B1F5007F19D0C6
:10172000544EB1F5806F26D0B1F5006F37D04FF42D
:10173000805949454FF4804A4BD1D8F8001001F444
:10174000E041B1F5005FD5D03DDC0029C6D0494568
:10175000DFD1CAE7D8F8001001F4E0718029C9D0C0
:1017600004DC0029BAD04029D3D1BEE7C029D2D0A9
:10177000B142CED1C3E7316801F46001B1F5800F09
:10178000B8D005DC0029A9D0B1F5001FC1D1ACE764
:10179000B1F5C00FBFD0B1F5000FBAD1AFE73168D6
:1017A00001F0E061B1F1007FA4D005DC002995D003
:1017B000B1F1807FADD198E7B1F1407FABD0B1F10D
:1017C000806FA6D19BE7B1F5405FA4D05145A0D171
:1017D00095E7B1F5002F4FF480350DD0A9421DD10A
:1017E000206810F48030B1D0A84292D16846FFF74B
:1017F00011FE029876E70EE0316811F44031A8D06E
:10180000A94203D0B1F5003F83D178E703A8FFF7E1
:10181000A3FE059866E761459AD178E7514597D1CF
:10182000316801F0E041B1F1405FE3D009DC81B102
:10183000B94211D061458BD103A8FFF78DFE049802
:1018400050E7B1F1804F3FF460AFB1F1A04F8BD1C1
:101850005DE7FFF72BFD45E76846FFF7DBFD0198E5
:1018600040E70000504402580090D00340787D01CA
:101870000080BB00584402582DE9FC5F044650F834
:10188000241B002500902E460801FE4FDFF8F88348
:101890001DD5606E50B1B0F5801F0CD0B0F5001FA3
:1018A0000ED0B0F5401F1DD001250FE0386840F480
:1018B0000030386016E00221201D02F0EFF903E04D
:1018C0000098022102F07AFA05000BD02E462088FB
:1018D000C00523D5606D05281ED2DFE800F00C118D
:1018E000161B1B00626ED8F8001021F44011114342
:1018F000C8F80010EBE7386840F40030386009E0C1
:101900000021201D02F0CAF903E00098002102F036
:1019100055FA05466DB100E001252E462088800568
:1019200028D5A06D80281ED00CDC90B140280ED1A7
:1019300014E0626DD8F8001021F007011143C8F8D7
:101940000010EBE7C02813D0B0F5807F10D0012540
:101950000FE0386840F40030386009E00021201DB5
:1019600002F09CF903E00098002102F027FA0546F6
:1019700095B12E462088DFF81093400509F108093B
:101980002CD5D4F8A400B0F5800F20D00DDCA0B188
:10199000B0F5001F0FD115E0A26DD8F8001021F4AA
:1019A000E0711143C8F80010E4E7B0F5C00F13D0A0
:1019B000B0F5000F10D001250FE0386840F400307A
:1019C000386009E00021201D02F068F903E000986A
:1019D000002102F0F3F9054675B12E462088000576
:1019E0002DD5D4F8A800B0F1007F21D00EDCA8B12D
:1019F000B0F1807F10D116E0D4F8A420D9F80010FF
:101A000021F460011143C9F80010E7E7B0F1407F0D
:101A100013D0B0F1806F10D001250FE0386840F48A
:101A20000030386009E00021201D02F037F903E0A2
:101A30000098002102F0C2F905466DB12E462068DB
:101A400080011FD5A06CD8B110280FD0202812D04B
:101A5000302815D0012514E0D4F8A820D9F80010BA
:101A600021F0E0611143C9F80010E8E7386840F45C
:101A70000030386004E00221201D02F00FF9054615
:101A80006DB12E462088C0042BD5E06DB0F5005F07
:101A900020D00DDCA0B1B0F5805F0FD115E07A4801
:101AA000A26C001F016821F0300111430160E9E7D9
:101AB000B0F5405F13D0B0F5804F10D001250FE096
:101AC000386840F40030386009E00021201D02F041
:101AD000E5F803E00098002102F070F9054685B1B1
:101AE0002E462088800429D5206EB0F5403F23D0B3
:101AF00010DC08B3B0F5803F14D0B0F5003F0FD133
:101B000015E0E26DD8F8001021F4E0411143C8F867
:101B10000010E6E7B0F5802F0ED0B0F5A02F0BD067
:101B200001250AE00121201D02F0B8F803E0009829
:101B3000012102F043F905468DB12E46208840046C
:101B40002AD5D4F8AC00B0F1405F23D010DC08B344
:101B5000B0F1805F14D0B0F1005F0FD115E0226EBC
:101B6000D8F8001021F4E0211143C8F80010E5E78F
:101B7000B0F1804F0ED0B0F1A04F0BD001250AE09C
:101B80000121201D02F08AF803E00098012102F0F3
:101B900015F905466DB12E46208800041FD5E06E6C
:101BA000D8B1B0F1805F0ED0B0F1005F10D0012548
:101BB00014E0D4F8AC20D9F8001021F0E041114332
:101BC000C9F80010E8E7386840F40030386004E0F5
:101BD0000121201D02F062F805466DB12E462068F5
:101BE000C0011ED5606CD0B101280ED0022811D0E2
:101BF000032814D0012513E0E26ED8F8001021F07C
:101C000040511143C8F80010E9E7386840F400304B
:101C1000386004E00221201D02F040F8054685B13D
:101C20002E462068DFF85CB04002ABF11C0B57D5A4
:101C30001648016841F480710160FEF727FD824675
:101C40000EE01148626C001F016821F0030111438E
:101C50000160E6E7FEF71AFDA0EB0A0064283DD814
:101C60000A480068C005F5D57DBBDFF81CA0B4F8B4
:101C7000B0100AF1200ADAF8000001F4407100F413
:101C8000407005E02C440258504402580048025865
:101C9000884211D0DAF80010DAF8002021F44071FF
:101CA00042F48032CAF80020DAF8002022F48032B0
:101CB000CAF80020CAF80010D4F8B000B0F5807F50
:101CC00021D1FEF7E3FC019019E008E0FEF7DEFC0D
:101CD0000199411A41F28830814210D903252E46DC
:101CE0002078DFF830A4C0073DD0A06F182838D086
:101CF00026DC80B3082829D0102825D12CE0DAF87A
:101D000000008007E2D5D4F8B010C1F30120032809
:101D100058460DD0016821F47C510160B4F8B02020
:101D2000DAF80010C2F30B021143CAF80010D7E72B
:101D3000F94A036802EA111223F47C511143ECE7DB
:101D400020280ED028280CD001250BE00121201DD1
:101D500001F0A4FF04E004E00098012102F02EF855
:101D600005465DB12E46207880071ED5606F062897
:101D700019D2DFE800F0160C11161616A26FDAF869
:101D8000001021F038011143CAF80010EBE70121DF
:101D9000201D01F083FF03E00098012102F00EF8FE
:101DA000054675B100E001252E46207840071FD575
:101DB000D4F89000062819D2DFE800F0160C1116AE
:101DC0001616626FDAF8001021F007011143CAF805
:101DD0000010EAE70121201D01F060FF03E00098F8
:101DE000012101F0EBFF05469DB100E001252E46E3
:101DF000207880062BD5D4F88C00B0F1405F24D039
:101E000011DC10B3B0F1805F15D0B0F1005F10D1DC
:101E100016E0D4F89020D9F8001021F00701114302
:101E2000C9F80010E4E7B0F1804F0ED0B0F1A04F38
:101E30000BD001250AE00021201D01F02FFF03E057
:101E40000098022101F0BAFF05468DB12E46207898
:101E500040062BD5D4F89800B0F5406F24D011DCA3
:101E600010B3B0F5806F15D0B0F5006F10D116E04B
:101E7000D4F88C20DAF8001021F0E0411143CAF8C0
:101E80000010E4E7B0F5805F0ED0B0F5A05F0BD096
:101E900001250AE00021201D01F000FF03E0009869
:101EA000022101F08BFF05468DB12E4620780006F9
:101EB0002BD5D4F89C00B0F5C04F24D011DC10B362
:101EC000B0F5005F15D0B0F5804F10D116E0D4F812
:101ED0009820D9F8001021F4E0511143C9F80010FE
:101EE000E4E7B0F5004F0ED0B0F5204F0BD0012540
:101EF0000AE00021201D01F0D1FE03E0009802213C
:101F000001F05CFF05464DB12E46207800071ED536
:101F1000D4F88000B0F5805F0AD00FE0D4F89C20A0
:101F2000D9F8001021F460411143C9F80010ECE722
:101F30000098022101F042FF00B10126D4F8802070
:101F4000DAF8001021F440511143CAF8001020784B
:101F5000C00613D5D4F89400B0F5807F05D1009861
:101F6000022101F02BFF00B10126D4F89420D9F80A
:101F7000001021F440711143C9F8001020680003DB
:101F800016D5D4F8A00038B1B0F5803F09D0B0F52F
:101F9000003F0BD001250AE00021201D01F07EFE4C
:101FA00003E00098022101F009FF054685B12E46A5
:101FB0002068400322D5D4F88400B0F5801F11D0EA
:101FC000B0F5001F13D0B0F5401F15D0012514E067
:101FD000D4F8A020D9F8001021F440311143C9F8F9
:101FE0000010E5E7386840F40030386004E00098FD
:101FF000012101F0E3FE054655B12E462068C003DD
:102000001CD5E06C70B1B0F5803F10D0012514E014
:10201000D4F88420DAF8001021F440111143CAF8F2
:102020000010EBE7386840F40030386004E002212B
:10203000201D01F033FE0546CDB12E4620688000FC
:1020400005D50098022101F0B9FE00B101262068F3
:1020500080031BD5E06FB8B1B0F5807F10D0B0F52C
:10206000007F11D0B0F5407F0ED001250DE029484A
:10207000E26C0838016821F4803111430160DDE72A
:10208000386840F400303860F5B32E462068C0024E
:1020900007D5226FD8F8001021F000411143C8F88D
:1020A00000102068C00008D5D4F8B420DBF8001078
:1020B00021F480411143CBF800102068800207D53D
:1020C000A26ED8F8001021F080711143C8F80010FA
:1020D000206840000CD5DBF8001021F40041CBF85B
:1020E0000010DBF80010D4F8B8201143CBF8001032
:1020F0002068002807DA0748226D0838016821F0B7
:1021000040511143016000E008E086B10120BDE8C4
:10211000FC9F000054440258CFFFFF00E26FDAF842
:10212000001021F440711143CAF80010AEE70020FE
:10213000EDE700002DE9F05F04000F467ED0DFF8E8
:102140003882D8F8000000F00F00B8420CD2D8F85E
:10215000001021F00F013943C8F80010D8F8000032
:1021600000F00F00B84269D12078844D40070AD5AD
:102170002069296801F07001884204D9296821F09A
:1021800070010143296020787C4E361D00070AD576
:102190006069316801F07001884204D9316821F02A
:1021A0007001014331602078C0060AD5A06931680A
:1021B00001F4E061884204D9316821F4E06101430F
:1021C00031602078DFF8B4B180060BF1080B0CD534
:1021D000E1695846DBF8002002F07002914204D910
:1021E000026822F070020A430260207880070AD554
:1021F000E068296801F00F01884204D9296821F0BC
:102200000F01014329602078C0073ED05B49A268D6
:102210002868183920F4706010432860606802282C
:1022200018D0032819D00968012819D049070029B6
:102230004ADADFF848A1AAF1080A00E044E0DAF837
:10224000002022F007020243CAF80020FEF71EFA1F
:10225000814612E009688903E9E709688901E6E730
:10226000C905E4E7FEF712FAA0EB090141F2883054
:10227000814202D90320BDE8F09F6168DAF80000CE
:1022800000F03800B0EBC10FECD1207880070AD500
:10229000E068296801F00F01884204D2296821F022
:1022A0000F0101432960D8F80010404601F00F01EA
:1022B000B9420BD9016821F00F0139430160006870
:1022C00000F00F00B84201D00120D4E72078400789
:1022D0000AD52069296801F07001884204D2296872
:1022E00021F0700101432960207800070AD5606958
:1022F000316801F07001884204D2316821F0700128
:10230000014331602078C0060AD5A069316801F424
:10231000E061884204D2316821F4E0610143316018
:10232000207880060CD5E1695846DBF8002002F0E1
:102330007002914204D2026822F070020A430260E5
:1023400000F048F80E492A682B68C2F3032203F014
:102350000F038A5CC95C02F01F0201F01F01D0402C
:10236000084A20FA01F1116007490860074800682F
:10237000BDE8F05FFEF7C6B90020005218440258CD
:102380002C6C0090100000240C0000240400002499
:1023900030B500F01FF80B4A0B490C4B1568146858
:1023A000C5F3032204F00F048A5C095D02F01F02EA
:1023B00001F01F01D040064A20FA01F119601060B7
:1023C000084630BD184402582C6C009010000024C0
:1023D0000C000024454970B545480968434B103B43
:1023E00011F0380208D00111082A03D0102A0BD0AE
:1023F000182A0BD0084670BD19688906FBD51968E4
:10240000C1F3C101C84070BD3A4870BD3749374D6E
:1024100018310C1D24350A68096826682D6802F0F9
:10242000030406F00102C1F30511C5F3CC0515FB49
:1024300002F200EE102AB8EE400AE9B32F4ADFEDAF
:102440002E0AB7EE001A6CB1DFED2D1A012C01D067
:10245000022C43D002EE101A1068F8EE422A81EEE8
:10246000A22A1EE01C68A40611D51B6801EE901A72
:102470001168C3F3C103F8EE612AD84001EE900A57
:10248000C1F30800F8EE611A81EEA22A0BE001EE1A
:10249000901ADFED1C2A00BFF8EE611A106882EE78
:1024A000A12AC0F3080001EE900AF8EE611A40EE8E
:1024B000201A31EE810A00E015E022EE000A1068D1
:1024C000C0F34620401C00EE900AF8EE600A80EE51
:1024D000201ABCEEC10A10EE100A70BD01EE901A6F
:1024E000DFED092AD8E7002070BD00001044025833
:1024F0000090D00340787D0100000039304402583C
:102500000024744A0024744C20BCBE4B2DE9F05FBB
:1025100004007CD0FF4F2078FE4D1837DFF8F4938D
:10252000103DC00748D0D9F80000396800F03800E5
:10253000102815D0182803D101F0030002280FD06D
:102540006068B0F5803F12D010B1B0F5A02F18D060
:10255000286820F480302860286820F4802009E072
:102560002868800328D560680028D2D024E0286835
:1025700040F480302860606888B1FEF787F806462E
:1025800009E0286840F480202860F0E7FEF77EF834
:10259000801B64287ED828688003F7D50CE0FEF7FE
:1025A00075F8064605E000BFFEF770F8801B64284A
:1025B000F0D828688003F7D4207841F20308D54E7C
:1025C0000C3E800753D5D9F80000396810F0380068
:1025D0000ED0182801D188070AD0E068A8B329686E
:1025E00021F0190101432960FEF750F882461BE0F3
:1025F0002868400702D5E06800288AD0FEF740F836
:1026000040451BD82069402812D0316800E0CCE05A
:1026100021F47C3141EA0030306028E0FEF736F8E2
:10262000A0EB0A000228B5D828684007F6D5E5E7F0
:10263000306820F47C3040F40030EDE7207C3168D5
:1026400021F0FE4141EA0060E6E7FFE7286820F05C
:1026500001002860FEF71AF8824605E0FEF716F83A
:10266000A0EB0A00022895D828684007F6D4207805
:10267000C0065FD5D9F80000DFF898B2396800F0DD
:102680003800ABF1040B082812D0182805D101F04E
:10269000030000E0EAE001280AD0E0690028286889
:1026A00038D040F080002860FDF7F0FF824623E03C
:1026B0002868C00523D5E069802876D11FE0206A0C
:1026C000202821D0316821F0F84141EA8060306053
:1026D00030E000BF94F82010DBF8002022F07C529C
:1026E00042EA0161CBF8001024E000BFFDF7CEFF05
:1026F000A0EB0A00022896D82868C005F6D5FDF799
:10270000BFFF4045E6D8DAE7306820F0F84040F0F7
:102710008040DCE720F080002860FDF7B7FF064628
:1027200005E000BFFDF7B2FF801B02289BD8286898
:10273000C005F7D42078000729D576486169643050
:1027400000298046016811D041F001010160FDF7C8
:102750009DFF064605E000BFFDF798FF801B02289D
:10276000C9D8D8F800008007F6D510E021F00101A3
:102770000160FDF78BFF064605E000BFFDF786FF11
:10278000801B022872D8D8F800008007F6D4207881
:10279000800623D5A0690028286810D040F4805016
:1027A0002860FDF773FF064605E02CE1FDF76EFF9C
:1027B000801B02285AD828688004F7D50EE020F440
:1027C00080502860FDF762FF064604E0FDF75EFFDB
:1027D000801B02284AD828688004F7D42078400754
:1027E0004FD5DFF83481D8F8001041F48071C8F873
:1027F0000010FDF74BFF064605E000BFFDF746FF62
:10280000801B642832D8D8F80000C005F6D5414EA8
:10281000A068603601280AD008B1052813D03068B6
:1028200020F001003060306820F0040002E03068E1
:1028300040F001003060A06841F2883A90B1FDF7A5
:1028400025FF80460AE0306840F004003060EEE783
:10285000FDF71CFFA0EB0801514507D83068800741
:10286000F6D50EE0FDF712FF804607E084E000BFDA
:10287000FDF70CFFA0EB080151457DD830688007BB
:10288000F6D4606AF0B3DFF88C80D9F8001008F154
:102890002008C1F3C20103296FD00228286820F064
:1028A0008070286003D0FDF7F1FE044680E0FDF75C
:1028B000EDFE064605E000BFFDF7E8FE801B02289E
:1028C00073D828688001F7D4E26A40F2F33138689F
:1028D00054F8283F884340EA021018433860217BAF
:1028E0004FF4FE0C22894FF0FE47208A4902267DD4
:1028F000521E401EA1F5007189B20CEA0040C2F3DD
:10290000080200E081E01143761E0143014807EA16
:10291000066203E010440258004802581C3011437C
:102920003B4AC8F80010016821F0010101601168FC
:102930004FF6F876236AB14341EAC301116001689A
:10294000A26921F00C01114301600168E26921F0E4
:10295000020111430160016841F4803101600168A6
:1029600041F400310160016841F480210160016897
:1029700041F00101016001E017E01DE0286840F02E
:1029800080702860FDF782FE044604E0FDF77EFEBD
:10299000001B022809D828688001F7D535E000BF60
:1029A000FDF774FE001B022802D90320BDE8F09F4A
:1029B00028688001F4D428E039680128D8F800009C
:1029C00021D0A26A01F0030393421CD1E26AC1F351
:1029D00005118A4217D1216BC0F30802491E8A42B1
:1029E00011D1616BC0F34622491E91420BD1A16BFC
:1029F000C0F30642491E914205D1E16BC0F3066067
:102A0000491E814201D00120D0E70020CEE700001E
:102A10003444025870477047704770472DE9FE43B1
:102A20000446C06B0E46032184F8341000270328A7
:102A30005ED0B6F5004F5BD0B6F5804F4FF000008A
:102A40004FF400654FF0806804D01EB3A06B40F0D7
:102A5000006043E00090002101908146206802F070
:102A6000DFF9800113D46946204602F011FA05000F
:102A70000DD1019840032FD5B4F8481020680904FF
:102A800001F072FE050002D1206802211EE0A06B59
:102A9000284323E00090002101908146206802F045
:102AA000BFF98001F3D46946204602F0F1F9050030
:102AB000EDD10198C0030FD5B4F84810206809047F
:102AC00001F052FE0500E2D12068002101F096FEDF
:102AD0000500DCD14D46DAE74546D8E7A063A06B98
:102AE0004FF40078184D38B120680127856318E04D
:102AF000A06B40F08050F1E7D4E904C0D4E90112A2
:102B00003346042806D2E66D464503D0B6F5807FED
:102B100018D00420CDF800C0CDE9010A206802F0E9
:102B200083F92068414601F050FE28B12168012751
:102B30008D63A16B0143A163012084F83400384602
:102B4000BDE8FE830220E5E7FF0FE01F70477047F6
:102B500010B550F8702F0123120E0A700268120A85
:102B60004A8002784468120642EA14224A600279D6
:102B70000A728268120E4A72D0E90224120242EAF4
:102B80001462CA60C268C2F303520A74C268C2F314
:102B90000B224A82007BC0F3460008754B7500206B
:102BA00010BD0000F0B5026E920F0A70026EC2F303
:102BB00083624A70026EC2F301628A70026E120C66
:102BC000CA70B0F86020120A0A7190F860204A7149
:102BD000426E120DCA80426EC2F303420A72B0F80E
:102BE0006420C2F3C0324A72B0F86420C2F380326B
:102BF0008A72B0F86420C2F34032CA72B0F864201E
:102C00000026C2F300320A734E730122C36B4FF4E5
:102C1000007463B1012B3AD0036850499963816B0A
:102C200041F08051816380F834200120F0BDB0F87C
:102C30006430856E9B051B0D43EA95730B61836EB3
:102C4000C3F3C2630B75836EC3F302634B75836E6C
:102C5000C3F342538B75836EC3F38243CB75836E8C
:102C6000C3F3C2330B760D696D1CC5640B7E03F094
:102C700007039B1C9D40C5640B7A846503F00F031A
:102C800002FA03F35F0A7D43C0E914350EE090F8C1
:102C90006450836EAD06AD0A45EA13430B610B69C0
:102CA0005B1C9B02C364C0E914438465B0F86830C0
:102CB000C3F380334B76B0F86830C3F3C6138B761A
:102CC00090F8683003F07F03CB76C36EDB0F0B7791
:102CD000C36EC3F341734B77C36EC3F382638B77C9
:102CE000C36EC3F38353CB77C36EC3F3405381F8F2
:102CF000203081F82160C36EC3F3004381F8223095
:102D0000B0F86C30C3F3C03381F82330B0F86C30C6
:102D1000C3F3803381F82430B0F86C30C3F3403310
:102D200081F82530B0F86C30C3F3003381F82630D9
:102D3000B0F86C30C3F3812381F82730B0F86C30E1
:102D4000C3F3012381F8283090F86C00C0F34600EB
:102D500081F8290081F82A200020F0BDFF0FE01F34
:102D6000C26B0A60026C4A60426C8A60826CCA6004
:102D7000C26C0A61026D4A61426D8A61806DC861F0
:102D80000020704770B5B0F8481000250446006870
:102D9000090401F045FE18B1A16B0143A16304E0F1
:102DA0002068002102F03CF80546C5F3432070BDC1
:102DB0002DE9F04190B00C4600260546694602F028
:102DC000E5F92A4F4FF0010840B12A6801269763C0
:102DD000AA6B0243AA6385F8348036E000994FF469
:102DE0007F40C1F3811121700099C1F340116170DE
:102DF000009A114600EA122242EA116161800199AB
:102E000009BA6160029921720299090A61720299F4
:102E1000C1F30351A172DDE9022100EA1240C9B2F7
:102E20000843A0810398C0F38520A0730398C0F3E2
:102E30000120E0730398C0F303102074039800F09E
:102E40000F0060740498000EA07428684FF400719D
:102E500001F0BBFC28B12A6801269763A86385F8B6
:102E6000348010B03046BDE8F0810000FF0FE01F55
:102E70002DE9F84304460068256B416B09041BD516
:102E8000290719D5D4E90A50202813D30026206831
:102E900001F0E0FF020A2870010C6A70030EA970AD
:102EA000761CEB70082E05F10405F0D3E06A20389B
:102EB000C4E90A50BDE8F883416B0127DFF8EC81D3
:102EC0000026C90551D539024CF23A12816329070F
:102ED0002068C16B21EA0201C1632068C16B21F047
:102EE0008051C1632068C16821F04001C16018D5DC
:102EF00015F0220F09D0206801F0DEFD28B1A16B8A
:102F00000143A1632046FFF722FE2168AA07C1F80A
:102F1000388084F83470266323D1204600F09DFA6F
:102F2000C8E72806C6D5206815F0220F86622068FB
:102F3000C6622068066509D0206801F0BDFD28B191
:102F4000A16B0143A1632046FFF701FE15F0300F8E
:102F500084F83470266302D0204600F07EFAA80779
:102F6000A8D0204600F078FAA4E7416B490421D5A7
:102F700029071FD5D4E9085020289BD3002628789C
:102F80000090697840EA01200090A97840EA014069
:102F90000090E9782D1D40EA0160009020686946A4
:102FA00001F070FF761C082EE9D3606A2038C4E96E
:102FB00008507FE7416B11F03A0F416B58D08907F9
:102FC00003D5A16B41F00201A163416B090703D551
:102FD000A16B41F00801A163416B890603D5A16B88
:102FE00041F02001A163416BC90603D5A16B41F0FB
:102FF0001001A163C0F838802068C16B21F49D7175
:10300000C1632068C16821F04001C1602068C16AC5
:1030100041F40051C1622068C16841F08001C16083
:10302000206801F049FDA26B2B074FF4006140EAD4
:103030000200A0632068C26822F08002C26020689B
:10304000816303D584F8347026630DE028068BD5A0
:10305000A06B002888D02068C16B21F08051C1632B
:103060002068066584F834702046FFF770FD21E77C
:10307000C9009ED54FF0805181632068006D4007E4
:103080004FEA856008D40028204602DAFFF7C5FC25
:1030900010E7FFF7C0FC0DE70028204602DAFFF733
:1030A000BBFC07E7FFF7B6FC04E700003A0F001887
:1030B000F0B5040085B024D094F83400002538B968
:1030C000A069257708B90220A061204600F096F893
:1030D000032084F83400204600F03CF888B96946A3
:1030E0002046FFF765FE60B99DF81010E26B9DF871
:1030F0001100012A08D0E5652046E168FFF78EFC43
:1031000058B1012005B0F0BD014302D04FF400706A
:1031100001E04FF48070E065EEE7FDF7B7FA0127B4
:10312000064604E0FDF7B2FA801B401C0AD0204698
:10313000FFF728FE0428F5D1A563256384F83470D1
:103140000020DFE74FF00040A06384F834700320D4
:10315000D8E70000FEB5002504464FF48030FEF7A6
:103160009DFA234A0646A169B0FBF2F7022904D171
:103170002068016841F01001016000952B46CDE9FF
:10318000017420682A46294601F04EFE206801F0AD
:103190005BFE7800B6FBF0F020B11649B1FBF0F011
:1031A000401C00E00220FDF73BF9204601F04CFFF7
:1031B0004FF0010530B100BF84F83450A16B0143DA
:1031C000A16313E0204601F0D5FE0028F4D1206869
:1031D0004FF4007101F0F9FA002808D0226806497E
:1031E0009163A16B0143A16384F834500120FEBDBB
:1031F00000350C0010210100FF0FE01FF0B587B073
:10320000044614216846FDF77CF81E492068884270
:1032100035D11D48016841F480310160006800F437
:103220008030059018480C30016841F004010160BD
:10323000016801F004010591016841F00801016095
:10324000006802240025694600F008000590032666
:103250000C274FF4F8508DE8F1000C48FDF7F2F818
:10326000042069468DE8F1000948FDF7EBF80022DB
:1032700031201146FDF7D0FA3120FDF7BFFA07B033
:10328000F0BD000000700052D444025800080258FB
:10329000000C02582DE9F04F87B0994617460D46AD
:1032A0000446FDF7F3F906903DB194F83400012887
:1032B00007D0A06B40F000500DE0A06B40F0006024
:1032C00009E0626D002007EB0901A063914204D977
:1032D000A06B40F00070A063A8E0032184F83410D4
:1032E0002168C862E16B012900D07F024FF0020A19
:1032F000CDE903A090264FF0FF324FEA4923059015
:103300008DE84C0080462068694601F04CFC20683E
:10331000B9F1010F4FF00106C16841F04001C160F1
:1033200006D9C4F830A03946206801F0E5FA04E077
:1033300026633946206801F0F9FADFF814A150B18C
:103340002368C3F838A0A16B0143A16384F83460FB
:10335000C4F830806AE0DDF804B01FE0406B000480
:1033600014D5BBF1200F11D30027206801F072FDA6
:10337000020A2870010C6A70030EA9707F1CEB70A2
:10338000082F05F10405F0D3ABF1200BFDF77EF912
:103390000699411A1098814221D200B32068416BEE
:1033A00011F4957FDAD0C16821F04001C160206836
:1033B000416BC90522D5B9F1010F1FD9E16B032972
:1033C0001CD001F079FBC8B12368C3F838A0A26B08
:1033D0000243A26384F83460C4F8308026E0226897
:1033E000C2F838A0A06B40F00040A06384F83460BD
:1033F000C4F83080032007B0BDE8F08F2068416B2F
:10340000090706D5C0F838A0A16B404641F0080175
:1034100008E0416B89070BD5C0F838A0A16B404686
:1034200041F00201A16384F8346020630120E2E7E7
:10343000416B890606D5C0F838A0A16B404641F023
:103440002001EFE70349816384F834600020D2E76C
:10345000FF0FE01F3A0F0018704770472DE9F04F3B
:1034600089B09A4616460D460446FDF70FF90690B8
:103470003DB194F83400012807D0A06B40F0005013
:103480000DE0A06B40F0006009E0626D002006EBEB
:103490000A01A063914204D9A06B40F00070A063C0
:1034A000B2E0032184F834102168C862E16B01297D
:1034B00000D076024FF0FF314FEA4A220590902368
:1034C0000490CDE90230CDE90012804620686946BB
:1034D00001F069FB2068C168BAF1010F41F04002B8
:1034E000C26006D9202020632068314601F027FB06
:1034F00005E0102020632068314601F03AFBDFF838
:1035000030B106004FF001090AD02368C3F838B083
:10351000A06B3043A06384F83490C4F8308073E02B
:103520000198089027E0406B40041CD5089820289B
:1035300019D3002728780790697840EA012007907E
:10354000A97840EA01400790E9782D1D40EA016022
:103550000790206807A901F095FC7F1C082FE9D38C
:10356000089820380890FDF791F80699411A1298AA
:10357000814221D200B32068416B11F48D7FD2D0FB
:10358000C16821F04001C1602068416BC90521D5A7
:10359000BAF1010F1ED9E16B03291BD001F08CFA9F
:1035A000C0B12568C5F838B0A16B0143A16384F8A8
:1035B0003490C4F8308027E02368C3F838B0A26B99
:1035C0003243A26384F83490C4F83080032009B0F9
:1035D000BDE8F08F2068416B090707D54946C0F860
:1035E00038B0A26B404642F0080209E0416B8907FF
:1035F0000CD54946C0F838B0A26B404642F00202F2
:10360000A26384F8341020630120E0E7416BC9060F
:1036100007D54946C0F838B0A26B404642F01002C8
:10362000EEE7044A826384F834900020CFE700007C
:10363000FF0FE01F3A0F0018401EB0F1807F10B559
:1036400001D3012010BD4FF0E02460610F2160170D
:1036500003F03FFA0020A0610721216110BDFEE7C1
:10366000F0B500230A251C463026372711E000BF9D
:10367000B5EB107F02D906EB107C01E007EB107C64
:1036800001F813C001EB430C00015B1C8CF80140F6
:10369000DBB29342ECD3F0BD70B50A4D0122082194
:1036A00004462846FCF7E6FF601EFCF7B9FE002240
:1036B00028460821FCF7DEFFBDE8704040F2F31019
:1036C000FCF7AEBE001002587FB5002500950195AD
:1036D00002950395FDF764F801248DF800401B2046
:1036E0008DF808008DF80B504FF010468DF80A4009
:1036F00068468DF80150019603948DF80950FDF746
:1037000021F816208DF808008DF80F4005218DF85E
:103710000B1068468DF80E408DF800408DF80D5066
:103720008DF80A408DF8014001968DF80C508DF807
:103730000950FDF707F812218DF808108DF80F4099
:1037400003228DF80B20B0088DF80E4002238DF86F
:1037500000408DF80D408DF80A40019068468DF8C4
:1037600001308DF809508DF80C50FCF7EBFF042068
:10377000FDF724F87FBD70B5D0F8BC42054604F5CE
:103780008051087F38B9886928B1607A18B9012159
:10379000284602F0A3F98121284602F09FF9607AB9
:1037A000022809D18121284602F098F92846BDE86F
:1037B0007040012102F092B970BD00002DE9F04186
:1037C000D0F8BC420646012104F58055686968635B
:1037D000A869A863304602F0A9F81F280AD1284931
:1037E0002869884206D1697F012903D8A87F08B1DA
:1037F000102808D9697F20230522304600F0B7FE43
:10380000022060720AE041F21F002218304600F0E8
:10381000AFFB0028207A08DA052804D03046BDE83E
:10382000F041FFF7A8BF012122E0022825D001289E
:1038300023D0032821D0E568CDB104F11002D6F8D9
:10384000BC42304604F580518B69AB4200D32B4615
:103850008E6B00274FF0040C751B8D6381F83C7054
:10386000812184F808C0BDE8F04102F052B900217E
:103870003046BDE8F04100F0A3B8BDE8F08100009B
:103880005553424310B50446D0F8BC02407A022892
:1038900009D0090611D501280FD02046BDE81040F7
:1038A000012100F08DB88121204602F017F9204651
:1038B000BDE81040012102F011B910BD10B5D0F8DB
:1038C000BC220446107A022805D0032801D004281F
:1038D00011D100210AE041F21D00831C815C1A44D1
:1038E000204600F045FB002805DA01212046BDE80E
:1038F000104000F065B810BD10B5D0F8BC220446E9
:10390000107A88B1012814D141F21D00831C815C1A
:103910001A44204600F02CFB00280ADA2046BDE8B5
:103920001040012100F04CB82046BDE81040FFF7E0
:1039300045BF10BDD0F8BC0200210172704770B5C0
:1039400005460020D5F8BC4204F580512072607213
:1039500081F8610081F8600081F86200D5F8C0024A
:103960000168002088470121284601F0D6FF812107
:10397000284601F0D2FF41F2100022182846BDE887
:1039800070401F23012102F027B870B505460021C1
:103990000120D5F8BC42217281216072284601F0D5
:1039A0000FFF0121284601F00BFF41F21000221801
:1039B0002846BDE870401F23012102F00DB8000029
:1039C00070B5D0F8BC4205460C4B002004F580527F
:1039D00013630D2382F83C108121207241F23000E4
:1039E0002218284602F095F841F2100022182846C5
:1039F000BDE870401F23012101F0EEBF5553425333
:103A000010B586B014216846FCF77BFC1D480168A0
:103A100041F010010160016801F010010591016899
:103A200041F080010160016801F0800105910168A9
:103A300041F004010160016801F004010591016891
:103A400041F001010160016801F001010591016887
:103A500041F008010160006800220B4C082100F0D1
:103A6000080005902046FCF705FE00210820009084
:103A700001222046CDE9012103916946FCF7E2FCD1
:103A800006B010BDE0440258001002580D48002155
:103A900070B54FF480420A4DC0E900510523C0E9DA
:103AA00002121030012480E81A001038FFF700FBE2
:103AB000002803D0BDE87040FCF7ABBC70BD00002F
:103AC00000700052DC01002410490022104810B59B
:103AD00001F05CFE08B1FCF79CFC0E490C4802F0BA
:103AE00012F908B1FCF795FC0B49094802F087F878
:103AF00008B1FCF78EFC064802F07EF908B1FCF72D
:103B000088FCBDE81040FDF7C9BB0000140000248C
:103B10005C0200248800002464000024FEE7704753
:103B20000148FDF727B800002C0700242DE9F041DB
:103B3000044600690D462027236801284FF40046FB
:103B400004F5717203EB4511D3F840C0D1F8080BAE
:103B500009D0DFF89CE0F4453AD1020433D500BF28
:103B6000C1F8086B40E0234B5FEA007E04D59C451A
:103B70003AD90004F4D437E05FEA806E02D5C1F888
:103B8000087B31E010F0280F2ED19C4501D90004AC
:103B9000E6D4D1F8103BC5EBC50004EB8000C3F3BD
:103BA0001203D0F80412A1EB0303C0F81432D0F8CA
:103BB00008321944C0F8081295B9D4F8100278B93F
:103BC000206801210AE080060AD5C1F8087B07E0D9
:103BD00035B9D4F8100218B90021184602F0DEFCFD
:103BE0002046E9B2FCF793FE0020BDE8F08100001A
:103BF0000A31544F0A30544F2DE9F84F0E460568EC
:103C00008146C1EBC60100EB8104D4E914203C34A9
:103C1000904202D90120BDE8F88FA168101A8142B4
:103C200000D20846C01C05EB461887081BE000BF01
:103C3000A268A0EB010A524500D2924699F81010F2
:103C40000AF1030000911FFA8AF3E1688708284609
:103C5000F2B202F02BFFE16801EB0A00E060A1691B
:103C600001EB0A00A061D8F8180980B2B84205D368
:103C7000D4E90501814201D20028D9D1D4E9050156
:103C8000884208D8D5F83418012006F00F02904079
:103C90008143C5F834180020BDE770472DE9F0478F
:103CA000454D044689464FF0000A2868C043800706
:103CB0000AD0414E283E306820F080603060FCF72A
:103CC000E5FC0746B04608E00120BDE8F08700BFEC
:103CD000FCF7DCFCC01B022867D8D8F80000000104
:103CE000F6D4206829684FF4FE0721F47C313E02A7
:103CF00041EA00302860207AA389B4F804C0400269
:103D00002D4D2D495B1E227CACF1010C1035091D97
:103D1000A0F5007080B2521ECCF3080C07EA0343F2
:103D200040EA0C00184306EA026210432860086863
:103D3000626920F0C000104308600A68A06922F0A0
:103D4000200202430A60281D0A6822F010020A605D
:103D500002684FF6F873E4699A4342EAC4020260CB
:103D60000868B9F1000F40F010020A6011D008682D
:103D7000B9F1010F11D040F400100860D8F800002C
:103D8000444640F08060C8F80000FCF77FFC054620
:103D90000DE0086840F40020EFE740F48010ECE705
:103DA000FCF774FC401B022801D903208DE7206832
:103DB0000001F5D5504688E7284402582DE9F04720
:103DC000454D044689464FF0000A2868C0438007E5
:103DD0000AD0414E283E306820F080503060FCF719
:103DE00055FC0746B04608E00120BDE8F08700BF5B
:103DF000FCF74CFCC01B022867D8D8F800008000F4
:103E0000F6D4208829684FF4FE0721F07C713E0229
:103E100041EA00502860207AA389B4F804C0400227
:103E20002D4D2D495B1E227CACF1010C1835091D6E
:103E3000A0F5007080B2521ECCF3080C07EA0343D1
:103E400040EA0C00184306EA026210432860086842
:103E5000626920F44060104308600A68A06922F497
:103E6000007202430A60281D0A6822F480720A6008
:103E700002684FF6F873E4699A4342EAC4020260AA
:103E80000868B9F1000F40F480720A6011D0086828
:103E9000B9F1010F11D040F080700860D8F800002F
:103EA000444640F08050C8F80000FCF7EFFB0546A0
:103EB0000DE0086840F48000EFE740F40000ECE714
:103EC000FCF7E4FB401B022801D903208DE72068A2
:103ED0008000F5D5504688E72844025800B51344C1
:103EE000D0F8BC2202F58052926E934206D921236B
:103EF000052200F03CFB4FF0FF3000BD002000BD6C
:103F000070B5D0F8BC3205464FF0FF3403F5805051
:103F1000866976B15678F60714D0917861B1802918
:103F20000DD0417F24230522284600F020FB2046A7
:103F300070BD417F2023F6E70B4906220FE00B49B5
:103F400008220CE0D5F8C04201EBC1011079E2690A
:103F500002EB81010A79521D904200D802461846B0
:103F600000F02EFB002070BD2A0100243001002447
:103F70002DE9F04713780025D0F8BC424FF0FF360A
:103F8000252B4FF002086ED00FDC1A2B7ED005DCFB
:103F900023B3032B43D0122B17D144E01B2B46D065
:103FA0001E2B65D0232B10D189E05A2B7CD006DC48
:103FB000282B74D02A2B73D02F2B06D19BE09E2B5D
:103FC0006FD0A82B6ED0AA2B6DD02023052200F035
:103FD000CEFA304684F80980BDE8F0870746884667
:103FE00004F58050816921B12023417F05223846A4
:103FF00033E090F862004FF00509022805D0D7F8A9
:10400000C00281684046884730B33A2341460222C5
:10401000384600F0ACFA304684F80890DCE7BDE89A
:10402000F04700F068BABDE8F047FFF769BF04F554
:10403000805393F86270012F04D1177907F00307BA
:10404000022F5BD0107900F0030101290DD0022965
:1040500006D0C043800708D012E000F088FA58E08C
:1040600083F862800CE02EE010E083F8625007E0F5
:104070001079002804F5805005D0012180F86210E5
:104080002846E560A8E780F86250F9E71179172221
:104090002046172900D80A461F490CE004E01AE020
:1040A00021E014E01BE022E0117A1B2220461B29AC
:1040B00000D80A46194900F083FA28468CE7BDE883
:1040C000F04700F0E0B9BDE8F04700F05CB9BDE8AA
:1040D000F04700F08CB9BDE8F04700F0B0B8BDE89B
:1040E000F04700F0FCB8BDE8F04700F075BABDE855
:1040F000F04700F0CDBA5278920702D5242305226A
:10410000ABE704F58052D2E91B23FFF7E7FE002856
:10411000B6DA304660E70000380100244F01002481
:104120002DE9F047074688464FF48050D7F8BC6227
:1041300006F58054B4F86410256F4D43854200D3D2
:104140000546E26EB5FBF1F006F11001894683B237
:10415000D7F8C002D0F810C04046E047002809DA7E
:10416000112341460422384600F001FA4FF0FF3097
:10417000BDE8F08781212B464A46384601F0C9FC4C
:10418000B4F86400A36BB5FBF0F7B5FBF0F0D4E92D
:104190001B125B1BA3633944101AC4E91B1001D125
:1041A000032030720020E3E72DE9F0478846D0F87D
:1041B000BC12074601F580544FF48055B4F86400F2
:1041C000266F4643AE4200D32E46E26EB6FBF0F0B9
:1041D0001031894683B2D7F8C002D0F814C04046E7
:1041E000E047002809DA032341460422384600F05C
:1041F000BEF94FF0FF30BDE8F087B4F86400D4E9B1
:104200001B23B6FBF0F8B6FBF0FCA16BA1EB06019B
:10421000A163B3EB08036244C4E91B230AD0434300
:10422000AB4200D32B464A460121384601F0D4FB6D
:104230000020E0E700213846FFF7C2FBF8E72DE950
:10424000F047D0F8BC52074616468946287A78BB14
:1042500005F580544FF0FF38207F000630D594F8E4
:104260006200022809D0D7F8C00281684846884712
:1042700048B13A234946022201E03A230222384655
:1042800000F075F911E0D6F80210707909BA21F042
:10429000FF0249460243E266B6F8070043BA3846D1
:1042A0002367FFF71BFE002803DA4046BDE8F087CE
:1042B0000CE0B4F86410206FA2694843904203D028
:1042C0002023617F0522DAE7022028724FF4805014
:1042D0004946E8603846BDE8F047FFF721BF2DE9C1
:1042E000F047D0F8BC52074616468946287A98BB54
:1042F00005F580544FF0FF38207F000634D594F840
:104300006200022809D0D7F8C00281684846884771
:1043100048B13A234946022201E03A2302223846B4
:1043200000F025F915E0D6F80210707909BA21F0ED
:10433000FF020243E266D6F80600717A00BA20F066
:10434000FF0338460B4349462367FFF7C7FD0028A4
:1043500003DA4046BDE8F0870CE0B4F86410206F43
:10436000A2694843904203D02023617F0522D6E70B
:10437000022028724FF480504946E8603846BDE874
:10438000F047FFF7CDBE2DE9F04105460E4641F25C
:104390006401D5E9AF4062184368081D2118304612
:1043A0009847D8B904F5805292F86200022815D0D7
:1043B000906E00210823401E050E2574060C6674BD
:1043C000070AA774E07421756175B2F86400010AE8
:1043D000A175E0750020E360BDE8F0813A23314625
:1043E0000222284600F0C3F84FF0FF30F4E72DE931
:1043F000F04106460F4641F264011546D6E9AF404A
:1044000062184368081D21183846984780B904F59A
:10441000805191F8620002280AD0D5F80A300022B3
:104420006E7B10461BBA23F0FF033343E3600EE0BC
:104430003A2339460222304600F099F84FF0FF3017
:10444000BDE8F081431C20440274D8B2E368834283
:10445000F8D8886E401E030E2375060C6675070A91
:10446000A775E07522766276B1F86400010AA1763C
:10447000E076D5F80A00697B00BA20F0FF00084317
:10448000E0600020DCE77CB505460E4601A96A46DF
:10449000D5E9AF4043683046984718BB41F2620007
:1044A000005D02281ED0002001462318421C90B255
:1044B0000C281974F9D30820E0740198022222769E
:1044C000401E6176020E2275030C6375010AA17508
:1044D000E0750C22BDF80000E260010AA176E076EA
:1044E00000207CBD3A2331460222284600F03FF8E6
:1044F0004FF0FF307CBD70B5D0F8BC1201F5805391
:104500009C6914B3002005460E18441CE0B2122822
:104510003574F9D370240C740C20C87593F86000BE
:1045200093F86140A0421AD001EBC00404F5825414
:10453000401CC0B2267804288E7426790E776479E0
:104540004C7783F8600008D009E0597F20230522CA
:1045500000F00DF84FF0FF3070BD83F8605012206E
:10456000C8601079122800D8C860002070BD30B52E
:10457000D0F8BC12002401F5805090F8615001EB96
:10458000C50505F5805585F8402090F8612001EBC0
:10459000C20202F5805282F8443090F8612001EBAB
:1045A000C20101F5805181F8454090F86110491C25
:1045B000C9B280F86110042901D180F8614030BD92
:1045C00010B5C26004E0521E92B284188B5C237452
:1045D000002AF8D1002010BD2DE9F047D0F8BC52D8
:1045E000064617468946287A20B13046BDE8F0478E
:1045F000FFF7DABD05F580544FF0FF38A069A0B38E
:10460000207F000631D4D6F8C0028168484688472A
:1046100028B13A230AE03046FFF7A9FF1BE0D6F89D
:10462000C002C1684846884718B12723494602227C
:10463000F1E7D7F80200797900BA20F0FF020A43C7
:10464000E266B7F80700494643BA30462367FFF7EA
:1046500045FC002802DA4046BDE8F087B4F8641053
:10466000236FA0694B43984203D02023617F05222A
:10467000D1E74FF48050834200D3034601202872D3
:1046800005F110020146304601F0A6F90020E3E7EB
:104690002DE9F047D0F8BC52074616468A46287ADC
:1046A00020B13846BDE8F047FFF77EBD05F58054E0
:1046B0004FF0FF39A06910B1207F000606D5617F59
:1046C000202305223846FFF752FF2EE0D7F8C0021C
:1046D0008168504688474FF0050808B13A2306E044
:1046E000D7F8C002C1685046884740B127235146D9
:1046F00002223846FFF73BFF85F8088015E0D6F820
:104700000210707909BA21F0FF020243E266D6F87E
:104710000600717A00BA20F0FF0338460B43514679
:104720002367FFF7DBFB002802DA4846BDE8F08785
:10473000B4F86410236FA0694B439842BFD14FF483
:104740008050834200D303460120287205F11002F5
:104750000146384601F040F90020E7E70148FEF73E
:1047600087BB0000DC01002430B585B0044637204B
:104770004FF480720DF1080CCDE90010002369465A
:10478000150120468CE82C0000F068FB372141F22F
:104790008832204600F01AFA05B030BD30B585B039
:1047A000044629204FF480720DF1080CCDE9001069
:1047B00000236946150120468CE82C0000F04EFBD2
:1047C000204600F0BFFA05B030BD30B504461020D9
:1047D00085B00DF1080C02010502CDE9001000239F
:1047E00069468CE82C00204600F038FB102141F28D
:1047F0008832204600F0EAF905B030BD30B585B00A
:10480000044606204FF480720DF1080CCDE900102B
:1048100000236946150120468CE82C0000F01EFBA1
:10482000062141F28832204600F0D0F905B030BDB3
:1048300030B585B00546002469464FF48050009499
:1048400001940294CDE90340284600F007FB0B4A8F
:104850004FF4FA5041F288311268B2FBF0F048434D
:10486000401E03D24FF0004005B030BD696B090611
:10487000F6D503492046A963F6E700000C000024A2
:10488000C500200030B50821044685B04FF4D5702E
:1048900000254A014B0204938DE827006946204613
:1048A00000F0DCFA134A4FF4FA5041F288311268F2
:1048B000B2FBF0F04843401E03D24FF0004005B079
:1048C00030BD616B11F0450FF5D08904F3D4606BF6
:1048D000400701D5042003E0606BC00702D001202F
:1048E000A063ECE7606B400601D54020A06328463A
:1048F000E5E700000C00002430B585B00446122026
:104900004FF480720DF1080CCDE9001000236946C8
:10491000150120468CE82C0000F0A0FA122141F28B
:104920008832204600F052F905B030BD30B585B070
:10493000044611204FF480720DF1080CCDE90010EF
:1049400000236946150120468CE82C0000F086FA09
:10495000112141F28832204600F038F905B030BD0F
:1049600030B585B004464FF480710DF1040C07207A
:10497000009200230D018CE82B006946204600F0D0
:104980006DFA072141F28832204600F01FF905B088
:1049900030BD10B586B00446002102204FF44072AD
:1049A000C3020493CDE90010CDE9022169462046F7
:1049B00000F054FA204600F09BF906B010BD30B567
:1049C00085B0044609200DF1080C0023CDE9001044
:1049D0004FF4407269464FF4805520468CE82C0015
:1049E00000F03CFA204600F083F905B030BD10B568
:1049F00086B00446002133204FF48072CDE90221B5
:104A0000CDE90010130169462046049300F026FA10
:104A1000332141F28832204600F0D8F806B010BDAC
:104A200030B585B004460D204FF480720DF1080CAE
:104A3000CDE9001000236946150120468CE82C00C2
:104A400000F00CFA0D2141F28832204600F0BEF849
:104A500005B030BD30B585B00C46002105460320B9
:104A60004FF48072CDE90221CDE9001013016946AF
:104A70002846049300F0F2F903212246284600F06C
:104A800085F905B030BD10B586B0044600210D2073
:104A90004FF48072CDE90221CDE90010130169467F
:104AA0002046049300F0DAF90D2141F288322046C5
:104AB00000F08CF806B010BD10B586B004464FF477
:104AC000807200200C2113018DE80700CDE903035B
:104AD000E06840F08000E060E06820F04000E060C6
:104AE0006946204600F0BAF9074A0C21204600F03A
:104AF0006DF8E168B0F1007F21F08001E16000D144
:104B0000002006B010BD000000E1F50510B586B02C
:104B1000044600210B204FF48072CDE90221CDE93B
:104B20000010130169462046049300F097F90B2109
:104B300041F28832204600F049F806B010BD30B589
:104B400085B0044619204FF480720DF1080CCDE9B0
:104B5000001000236946150120468CE82C0000F067
:104B60007DF9192141F28832204600F02FF805B076
:104B700030BD30B585B0044618204FF480720DF179
:104B8000080CCDE9001000236946150120468CE889
:104B90002C0000F063F9182141F28832204600F021
:104BA00015F805B030BD70B50A6842624A68826285
:104BB000C46AD1E90225D1E9043624F0FF012A4371
:104BC00033431A431143C162002070BD30B5464DD6
:104BD0004FF4FA53434C2D68B5FBF3F353435B1E7C
:104BE00002D24FF0004030BD426B2242F7D0920417
:104BF000F5D4426B520703D504218163084630BDCA
:104C0000426BD20702D00121816306E0354A80322F
:104C100082630269D2B28A4201D0012030BD0021F4
:104C200000F0FEF83149084201D1002030BD0028D3
:104C300002DA4FF0007030BD410001D5402030BD98
:104C4000810001D5802030BDC10002D54FF48070B5
:104C500030BD010102D54FF4007030BD410102D5D5
:104C60004FF4806030BDC10102D54FF4006030BD0B
:104C7000010202D54FF4805030BD410202D54FF4FD
:104C8000005030BD810202D54FF4804030BDC102DA
:104C900002D54FF4004030BD410302D54FF400303F
:104CA00030BD810302D54FF4802030BDC10302D551
:104CB0004FF4002030BD010402D54FF4801030BD08
:104CC000410402D54FF4001030BD810402D54FF4E9
:104CD000800030BD000702D54FF4000030BD4FF416
:104CE000803030BD450020000C00002408E0FFFDAE
:104CF000124B4FF4FA5141F288321B68B3FBF1F1C9
:104D00005143491E02D24FF000407047426B12F0EF
:104D1000450FF6D09204F4D4416B490703D5042122
:104D2000816308467047416BC90703D00121816345
:104D30000846704702498163002070470C00002438
:104D4000C50020000F4B4FF4FA5141F288321B6826
:104D5000B3FBF1F15143491E02D24FF000407047BE
:104D6000426B12F0450FF6D09204F4D4416B490720
:104D700003D50421816308467047034981630020FD
:104D8000704700000C000024C500200030B5204D05
:104D90004FF4FA5341F288342D68B5FBF3F36343C3
:104DA0005B1E02D24FF0004030BD446B14F0450F43
:104DB000F6D0A404F4D4436B5B0703D504218163CC
:104DC000084630BD436BDB0702D00121816303E05D
:104DD0000369DBB28B4201D0012030BD0D498163F4
:104DE000002100F01DF810F4604F04D0410406D5F6
:104DF0004FF4005030BD000C1080002030BD000486
:104E000002D54FF4805030BD4FF4803030BD0000EB
:104E10000C000024C5002000006800F0030070476B
:104E2000084440697047000030B511434268DDE92D
:104E300003542B43034D194321432A400A43426044
:104E4000002030BD002CC0FF016841F0030101606B
:104E500000207047D0F880007047000070B5084D02
:104E60000A688260C368D1E90126D1E903412B4079
:104E700032430C4322431343C360002070BD000043
:104E8000C0E0FEFF0968C0F88010002070470000F5
:104E90002DE9F04F87B00D460446FBF7F7FB0026DF
:104EA000069020680821B3463746FFF78EFC00289D
:104EB00033D1B4F8481020680904FFF755FC0028E6
:104EC0002BD1431E4FF008094FF0020A4FF0300C6F
:104ED0004FF00108CDF80CA08DE80812CDE9046868
:104EE00020686946FFF75FFE2068FFF780FD002815
:104EF00013D140F22A582068416B11EA080F06D1FD
:104F0000416B090315D4BBF1000F09D011E0416BCF
:104F1000090717D5C0F83890082007B0BDE8F08F12
:104F2000FFF798FF06462068FFF794FF07464FF00B
:104F3000010BFBF7ABFB0699401A401CDBD14FF08D
:104F40000040EAE7416B890703D5C0F838A002208A
:104F5000E3E7416B890603D5202181630846DCE73E
:104F6000034A39BA33BA82630020C5E90013D4E793
:104F70003A0F001810B58CB004460120ADF82C0093
:104F80002068FFF749FF002853D0E06B032841D089
:104F90002068FFF7FEFC002849D120680021FFF7B8
:104FA0003FFF206704212068FFF73AFF6067082170
:104FB0002068FFF735FFA0670C212068FFF730FF5E
:104FC000E16BE067032925D020680BA9FFF742FDBC
:104FD00000282CD1E06B03281CD0BDF82C10A16454
:104FE00020680904FFF7EBFC002820D1206800218D
:104FF000FFF716FF206604212068FFF711FF6066A7
:1050000008212068FFF70CFFA0660C212068FFF73D
:1050100007FFE06604212068FFF702FF000D6946E4
:1050200060642046FDF7BEFD30B14FF080500CB0FB
:1050300010BD4FF08060FAE7B4F848000023020486
:105040002068FFF78DFCF2E72DE9F84F00260446B3
:10505000354637460096FBF719FB80462068FFF778
:10506000E7FB002867D12068FFF70CFC4FF001092F
:105070004FF6FF7A48B126642068FFF7D9FB002875
:1050800059D1206C012802D01CE0C4F840900021C6
:105090002068FFF769FBE0BB14E020680021FFF700
:1050A00063FB002847D120685946FFF777FB80BB98
:1050B00020680021FFF7B4FEC70F05460098401C8A
:1050C000009003E0DFF8C0B056460098B04201D22D
:1050D000002FE2D0B0424FF0807749D2680051D51E
:1050E000A169C4F83C9002294CD1E8014AD50802D4
:1050F000E0652068016841F0080101602068FFF761
:1051000005FD002817D1FD012068406B400108D43F
:1051100000E00EE0FBF7BAFAA0EB0800401CF3D168
:1051200028E021684FF0806088632068406BC002EF
:1051300003D44FF08050BDE8F88F0120FDF706FD45
:105140002068016841F00401016005E0FBF79EFA68
:10515000A0EB0800401C0DD02068406B8001F5D505
:1051600021684FF0007088632068416BC90203D545
:105170003846E0E72846DEE713224FF0FF310260B1
:10518000206881630020D6E7000010C12DE9F041BE
:1051900086B00D460446FBF779FA002107462068E1
:1051A000FFF73EFE800104D54FF4006006B0BDE875
:1051B000F08120684021FFF708FBC0B9B4F848101F
:1051C00020680904FFF7D0FA88B940214FF0FF307A
:1051D00060224FF0010C022300268DE84F1020685A
:1051E0006946FFF7E0FC2068FFF74DFC98B1A16B22
:1051F000A163DBE7406B000407D500262068FFF7BA
:1052000029FE761C082E01C5F8D3FBF73FFAC01B18
:10521000401C02D127E04FF000482068416B11F498
:10522000957FE7D0416B090701D50820BEE7416BA8
:10523000890701D50220B9E7406B80060AD52020F6
:10524000B4E700BFFFF706FE01C5FBF71FFAC01B5E
:10525000401C08D02068416BC904F3D401460348C0
:1052600088630020A2E74046A0E700003A0F00183C
:1052700030B589B0084814460D466946FDF770FD03
:1052800018B14FF0FF3009B030BD0698401E2860BD
:10529000079820800020F6E7DC01002400207047FA
:1052A00000207047054810B5FDF76CFD042802D0BA
:1052B0004FF0FF3010BD002010BD0000DC010024C5
:1052C0000020704738B5642403FB04F000900748C1
:1052D000FDF7E0FF10B14FF0FF3038BD0348FDF798
:1052E00051FD0428FAD1002038BD0000DC01002463
:1052F00038B5642403FB04F000900748FEF7AEF8CD
:1053000010B14FF0FF3038BD0348FDF73BFD0428D6
:10531000FAD1002038BD0000DC010024704701787C
:10532000407841EA00207047FBF7B6B92DE9F04319
:10533000CBB04C212FA8FAF7E4FF202142A8FAF7BE
:10534000E0FFBC216846FAF7DCFF0220FBF77CFF98
:10535000354936480A6822F001020A600968016886
:10536000002421F4404141F400410160016801F44E
:1053700040414A9101688904FCD52D480225016805
:10538000012705264FF0080821F00301891C016060
:105390004FF4803938956020CDE93956CDE93B0589
:1053A000CDE93F840A214194CDE93D15CDE92F791E
:1053B0002FA8FDF7ABF84FF4FA7618B13046FEF798
:1053C0006BF9FBE742A83F21032280E81601012187
:1053D0004694479448944994FCF7ACFE18B1304683
:1053E000FEF75AF9FBE70C224FF0200C4FF4A021F6
:1053F0000091C0236846CDE9015203954FF4801116
:10540000CDF84C9004952191CDE90573CDE907C401
:10541000FCF732FA18B13046FEF73EF9FBE7FBF72E
:105420003DFF4BB0BDE8F0832C04005818480258EB
:1054300028440258214A30B5214914680020204BE5
:1054400044F47004146010330A681E4D42F00102E7
:105450000A6018600A681A4B2A400A6018331C1D3B
:10546000251D174A186028322060131D28601C1D56
:10547000251D10602A1D1860131D20601C1D28604A
:10548000251D10601860206028600A680C4B0E4CC7
:1054900022F4802260330A60186020686FF30F00E6
:1054A000B0F1005F03D209490120C1F808014FF0B3
:1054B000006002498039086030BD000088ED00E0DE
:1054C000004402587FEDF6EA0010005C00800051B5
:1054D00010B5D0F8B8220AB152689047002010BD2C
:1054E00013460A46002110B500F076FA002010BDE0
:1054F00013460A46002110B500F00BFB002010BD3A
:1055000010B58021044600F0E9FA2046BDE81040BD
:10551000002100F0E3BA0521002310B51A46C0F8B7
:105520009412194600F058FA002010BD10B582619F
:105530000223C0F894321346C2610A46002100F0EB
:10554000E8FA002010BD0421002310B51A46C0F867
:105550009412194600F0DDFA002010BD04A00A469E
:10556000024910B500F0E1F8004810BD2C050024F8
:105570004D534320436F6E66696700001220088018
:10558000004870473400002404A00A46024910B5C0
:1055900000F0CBF8004810BD2C0500244D534320EB
:1055A000496E7465726661636500000004200880BE
:1055B000004870473000002404A00A46024910B594
:1055C00000F0B3F8004810BD2C05002453544D6979
:1055D00063726F656C656374726F6E6963730000EC
:1055E00004A00A46024910B500F09FF8004810BD1B
:1055F0002C05002453544D3332204D6173732053D6
:10560000746F72616765000010B51A2008800B483E
:105610000A490830021F096800681468081809D090
:1056200007490822FEF71CF80549042220461031DC
:10563000FEF716F80248801E10BD000000E8F11FBA
:105640004A000024F8B504460D460020ADF80000DD
:105650004888010A08295FD2DFE801F05E040917D3
:105660005E5E3C45D4F8B412207C0A6819E0207CC8
:1056700002260028D4F8B80205D0C16A68468847D7
:105680000146467039E0816AF8E7C0B2062843D285
:10569000DFE800F0030A1014181CD4F8B4024268C2
:1056A00005E0694690471CE0D4F8B402826892B3E2
:1056B000207CF6E7D4F8B402C268F8E7D4F8B40264
:1056C0000269F4E7D4F8B4024269F0E7D4F8B4020E
:1056D0008269ECE7207CF0B9D4F8B802416B6846E7
:1056E0008847014609E0207CA8B9D4F8B802016BCC
:1056F00068468847014607204870EA888AB1BDF8A5
:10570000000040B1824200D902462046ADF8002098
:10571000FFF70CFFF8BDFFE729462046FFF7F0FE34
:10572000F8E72046FFF70FFFF4E770B500284FF0C9
:1057300000051ED004462E4602E0761C641CF6B21C
:105740002378002BF9D1022404EB4604148012784C
:105750006B1C03264A550024AA1CCE5406E0551C97
:105760008B54EAB2531C401C8C54DAB20378002BE1
:10577000F5D170BD01004FF0000004D0012901D027
:10578000022901D0032070470120704730B4A0B136
:10579000D0F8B84200230CB1C0F8B832D0F8CC42EF
:1057A0000CB1C0F8CC3209B1C0F8B41201210270BA
:1057B00080F89C1230BC00F0BDB830BC03207047AC
:1057C00010B5D0F8C402FBF7D6F8BDE81040FFF7DB
:1057D000D1BF10B5D0F8C402FBF7A7F8BDE8104060
:1057E000FFF7C8BF70B51646044649B1D4F8B802F1
:1057F00042691AB194F89C02032842D0032070BD7C
:10580000D4F89412002504F11400022932D1D0E911
:105810000232934206D99A1A314682602046FFF737
:1058200067FE0FE09A4214D14068904211D3D4F839
:10583000981288420DD2002220461146FFF758FEEA
:10584000C4F8985200231A461946204600F0C4F8BE
:1058500010E0D4F8B802C16829B194F89C0203287A
:1058600001D1204688478021204600F037F92046A4
:10587000FFF751FE94F8A002012806D184F8A05247
:1058800003E0204690470028B9D1002070BD10B534
:105890001346044649B1D4F8B80282691AB194F8A3
:1058A0009C02032824D0032010BDD4F8941204F5E0
:1058B000AA70032920D1D0E9021291420AD98A1A8A
:1058C0008260C068824200D3024619462046FFF734
:1058D00007FE11E0D4F8B802016929B194F89C02DE
:1058E000032801D1204688472046FFF72CFE03E01D
:1058F000204690470028D7D1002010BD00207047D7
:1059000010B5D0F8B812012280F89C2219B10379A1
:105910004A68D9B29047002010BD10B5D0F8C40233
:10592000FBF757F8BDE81040FFF724BFD0F8C402DA
:10593000FBF768B870B5017841BB15490126002214
:10594000144C02230925C1F80404C0F8C412084607
:10595000C1E90336C1E906320A624A628A62CA6252
:105960000A63C1E90045FBF747FB08B1FAF751FDAF
:1059700007488021FAF797FF054840220021FAF7EF
:1059800096FF034880220121FAF791FF002070BDA5
:105990002C07002400000840D0F8C42201F07F004A
:1059A0000B06C0EBC00002EB800002D590F83E0071
:1059B000704790F8FE017047002070470020704744
:1059C00010B51C46D0F8C40213462246FBF723F854
:1059D000BDE81040FFF7CEBE10B5D0F8C402FBF70B
:1059E0004AF8BDE81040FFF7C5BE70B50446012572
:1059F0000020D4F8BC1284F89C52C4F89402606071
:105A0000C4F8A40229B1D4F8B802002142682046A3
:105A100090470022204640231146FFF7D1FF402641
:105A2000A4F864510022334680212046C4F8606106
:105A3000FFF7C6FFA5840020266270BD90F89C1277
:105A4000042903D190F89D1280F89C120020704721
:105A500010B590F89C12032904D1D0F8B812C96986
:105A600001B18847002010BD01740020704710B5B7
:105A7000D0F8C402FBF794FBBDE81040FFF77ABEF4
:105A800070B5044600F2AA20054600F027F9B4F8E4
:105A9000B032012194F8AA0210F01F02C4E9A51344
:105AA0000AD0012A0ED0022A12D000F0800120462E
:105AB000BDE8704000F012B829462046BDE87040AD
:105AC00000F09CB929462046BDE8704000F0C7BAF6
:105AD00029462046BDE8704000F01BBA10B5D0F84A
:105AE000C402FAF7EAFFBDE81040FFF743BE10B565
:105AF000D0F8C402FBF76FFBBDE81040FFF73ABED9
:105B000090F89C22042180F89D2280F89C120020AD
:105B1000704710B5D0F8C402FBF709F8BDE8104093
:105B2000FFF728BE10B5FDF7C9FE002010BD10B567
:105B3000FDF7E2FE002010BD70B501210446FFF71D
:105B400048FE002520468121A4F87851FFF741FE48
:105B500020462587FDF7EEFED4F8BC0218B100F010
:105B6000D9FFC4F8BC52002070BD00000A2101809A
:105B70000048704720010024202101800048704720
:105B8000E00000242021018000487047C00000246C
:105B900020210180004870470001002470B50446B0
:105BA00041F2740001F00CF8C0B1217C0125C4F869
:105BB000BC02C1B14023204602220121FFF700FFB1
:105BC0004023A4F87851022220468121FFF7F8FEF5
:105BD00020462587FDF7B3FE002070BD0020C4F8E5
:105BE000BC02022070BD4FF40076204602223346EC
:105BF0000121FFF7E5FE3346A4F87851E3E719B138
:105C0000C0F8C0120020704703207047F8B5064660
:105C10000C4600204FF00005D6F8BC72ADF800002D
:105C2000087810F0600120D020293DD16178FE294C
:105C300002D0FF2938D10EE0618881BBE1880129BB
:105C400032D1000630D5D6F8C002806980470122E3
:105C5000394638601FE0618809BBE188F9B9000660
:105C600022D43046FDF791FE23E0607830B1012860
:105C700024D00A2809D00B2816D111E096F89C02EE
:105C8000032811D10222694605E096F89C020328F8
:105C90000AD10122391D3046FFF748FC09E003E034
:105CA00096F89C02032806D021463046FFF728FCD0
:105CB00003252846F8BDA0787860FAE796F89C029C
:105CC0000328F6D160880028F3D121793046FFF708
:105CD00024FE21793046FDF7D5FDEAE770B505468B
:105CE00008788C1C2870487868702046FFF717FBEE
:105CF000A41C68802046FFF712FBA880A01CFFF7B9
:105D00000EFBE88070BD38B504460020ADF80000F9
:105D100041B1C4F8B8126846896A8847C4F8CC0211
:105D2000002038BD032038BDD0F8B8320246032029
:105D3000002B02D01B681046184770472DE9F04130
:105D40002C4E0446887800250F46C1B201293170D7
:105D500006D939462046FFF7D3FB0320BDE8F08182
:105D600094F89C0202280CD003281DD03946204606
:105D7000FFF7C6FB31782046FFF7AAFB032528462C
:105D8000ECE799B320466160FFF7CEFF050004D031
:105D900039462046FFF7B4FBF1E72046FFF7D3FB77
:105DA000032084F89C02EAE74FF00208C1B1606862
:105DB00088421BD0C1B22046FFF78AFB31782046CB
:105DC0006160FFF7B1FF050010D039462046FFF7AC
:105DD00097FB21792046FFF77BFB84F89C82CEE776
:105DE0006160204684F89C82FFF772FB2046FFF733
:105DF000AAFBC4E784000024FFF779BE2DE9F04137
:105E00000A784FF0000512F0600208D0202A01D075
:105E1000402A71D1D0F8B8229268904731E04B788F
:105E2000002201260A2B67D2DFE803F0415E6658A4
:105E3000660805662D29FFF705FC5FE004468888A3
:105E4000D8B9C888C8B94888802816D294F89C2246
:105E500000F07F07032A10D03946204684F89E724E
:105E6000FFF705FE2046FFF76EFB1FB1022084F806
:105E70009C0243E084F89C6240E020463CE0FFF74F
:105E80005DFF05463AE0CB88012B35D190F89C3276
:105E9000012B04D0022B02D0032B2DD104E000F102
:105EA00008018260012216E00122011D13E090F832
:105EB0009C22012A03D0022A01D0032A1CD1CA88BD
:105EC000022A19D1D0F8A412C66009B10321C16019
:105ED000022200F10C01FFF729FB0FE0498801299C
:105EE0000CD1C0F8A46211E090F89C32012B08D0CC
:105EF000022B06D0032B04D0FFF702FB2846BDE897
:105F0000F08149880129F9D1C0F8A422FFF71BFBD1
:105F1000F4E72DE9F0410446087800270D46097999
:105F200010F060000BD0202801D0402873D1D4F8A5
:105F3000B802294682682046904707468CE0687878
:105F4000D8B3012822D0032865D194F89C020228F6
:105F500002D003287CD10BE0002979D0802977D0AA
:105F60002046FFF7BBFD80212046FFF7B7FD73E019
:105F7000688838B931B1802904D0E88810B9204642
:105F8000FFF7ACFD2046FFF7DEFA65E094F89C02CF
:105F90000228E1D003285BD16888D8BB480602D02C
:105FA0002046FFF70DFC2046FFF7CDFAD4F8B802E3
:105FB00029468268204690474EE0FFE794F89C020D
:105FC0000026022802D0032842D111E009B180291D
:105FD0003ED1080601F07F0000EB800004EB800159
:105FE00001D5143101E001F5AA7102220E602BE007
:105FF000080601F00F0000EB800004EB80000BD5D9
:10600000808C40B101F07F0000EB800004EB800544
:1060100014350CE020E01BE0B0F86401C0B101F0E1
:106020007F0000EB800004EB800505F5AA7541B107
:10603000802906D02046FFF7AFFC10B10120286070
:1060400000E02E60022229462046FFF76FFA03E0A7
:1060500029462046FFF754FA3846BDE8F08170B56E
:10606000064608780D464FF0000410F0600003D09B
:10607000202801D0402817D196F89C02012803D08F
:10608000022801D003280FD1287901280CD8D6F88E
:10609000B8028268304690470446E888204306D11B
:1060A0003046FFF750FA02E03046FFF729FA204663
:1060B00070BD000070B54D7801230A78012D1C4C8D
:1060C00002F00F0503FA05F3D0F81C5817D000EBC7
:1060D000421245EA0343C0F81C38D2F8000B000412
:1060E0000BD40B89C978D2F8000BC3F30A03184309
:1060F00044EA81410843C2F8000B002070BD9EB203
:106100003543C0F81C5800EB4213D3F800090004D3
:10611000F3D40D89C978D3F80009C5F30A058904B9
:10612000284341EA825108432043C3F80009E4E7C9
:1061300000800010D0F800196FF30A01C0F80019B0
:10614000D0F8041841F48071C0F80418002070479A
:1061500070B5044606990A9E049D01290D9816D033
:10616000E06840F04000E060204600F02DF8A16BB0
:1061700026B321F48031A163012D07D1A16841F03C
:106180000601A160A16841F02001A16070BDA26B71
:1061900001280C4922F48030A063E06800EA010085
:1061A000E060E06820F44010E06003D1E06840F473
:1061B0008010E060204600F007F8DDE741F4803110
:1061C000D9E70000BFFFBDFF0C49012202E0521CCD
:1061D0008A420BD80369002BF9DA0369012243F0E4
:1061E0000103036104E0521C8A4201D90320704775
:1061F0000369DB07F7D1002070470000400D030062
:1062000070B50A7801234C78012C00EB42122CD097
:10621000D2F8004B002C0BDAD2F8004B44F00064AB
:10622000C2F8004BD2F8004B44F08044C2F8004B57
:106230000C78D0F83C5804F00F0403FA04F425EA73
:106240000444C0F83C480978D0F81C4801F00F011C
:106250008B401C4924EA0343C0F81C38D2F8000BD9
:106260000840C2F8000B002070BDD2F80049002C95
:106270000BDAD2F8004944F00064C2F80049D2F8C1
:10628000004944F08044C2F800490D78D0F83C48F9
:1062900005F00F050C4E03FA05F5ADB2AC43C0F89E
:1062A0003C48D0F81C48097801F00F018B4099B2A6
:1062B0008C43C0F81C48D2F800093040C2F80009ED
:1062C000D1E700000078F3EF007833EC10B5D0F898
:1062D000041821F00201C0F804180320FAF7A0F80E
:1062E000002010BD10B5D0F8041841F00201C0F82C
:1062F00004180320FAF794F8002010BD2DE9F04FA0
:106300000E4604460021DDF824B00D46109F0846D5
:10631000DDF82C2004EB800CCCF80411401C0F2875
:10632000F8D32046AFB1806B40F4001CC4F838C0ED
:1063300088460846C4F8000ED4F80008012A214611
:10634000C4F800081BD00846D1F8001841F003013A
:106350001BE0D0F8040840F0020CC4F804C8A06B9D
:1063600020F4001CC4F838C0206840F0400CC4F889
:1063700000C0206840F0800CC4F800C0D8E7084690
:10638000D1F800180BB141F00101C0F8001810213C
:1063900000F092FA00B10125204600F07DFA00B12C
:1063A000012540464FF000694FF67F334FF0904A89
:1063B000C4F81088C4F81488C4F81C88002114E0BC
:1063C00004EB4112D2F800C9BCF1000F06DA11B19A
:1063D000C2F800A904E0C4F8009901E0C2F800097D
:1063E000C2F81009C2F80839491C8E42E8D80021C9
:1063F00015E000BF04EB4112D2F800CBBCF1000F56
:1064000006DA11B1C2F800AB04E0C4F8009B01E069
:10641000C2F8000BC2F8100BC2F8083B491C8E42B0
:10642000E8D8D4F81038BBF1000F6FF0804223F4A5
:106430008073C4F81038A061626103D1A06940F094
:106440001000A061A069094A0C9940EA0200A0610D
:1064500019B1A06940F00800A061012F03D1A06923
:1064600003490843A0612846BDE8F08F00383C800E
:1064700004000040816821F0010181600020704724
:1064800070B50B784E78444C0D78012E00EB431319
:1064900020D0D3F8100B6FF31200C3F8100BD3F811
:1064A000100B2040C3F8100B486908B18868486198
:1064B000D3F8100B012A40F40020C3F8100BD3F8D6
:1064C000100B8A68C2F3120240EA0200C3F8100BF4
:1064D00056D059E04E69002ED3F8106933D06FF3CF
:1064E0001206C3F81069D3F810692640C3F8106982
:1064F0004E698C68A64200D94C61D3F8104944F427
:106500000024C3F81049D3F810494E69C6F31206A7
:1065100054EA0604C3F81049012A22D000EB4512C0
:10652000D2F8003943F00443C2F800394A6932B363
:106530000B78D0F83418012203F00F039A4011436E
:10654000C0F8341826E02640C3F81069D3F8104983
:1065500044F40024C3F81049D3F810496FF312042F
:10656000D8E7096919B100EB4512C2F8141900EB1C
:106570004510D0F8001941F00441C0F8001909E0B5
:10658000C86808B1C3F8140BD3F8000B40F00440FE
:10659000C3F8000B002070BDFFFF07E010B5144CDE
:1065A000036CA34203D9D0F8003B002B1EDB002371
:1065B000C0F8103B0129D0F8101B41F40021C0F8AD
:1065C000101BD0F8101B41F01801C0F8101BD0F8B8
:1065D000101B41F0C041C0F8101B07D1C0F8142BAC
:1065E000D0F8001B41F08021C0F8001B002010BD36
:1065F0000A30544F0B784A78012A00EB43100BD035
:10660000D0F8002B22F40012C0F8002BC97803291F
:1066100014D0022912D017E0D0F8002922F4001279
:10662000C0F80029C978032901D002290CD1D0F87B
:10663000001941F08051C0F8001905E0D0F8001BA6
:1066400041F08051C0F8001B002070470A784B7859
:10665000D1B2012B00EB421012D0D0F8002B002A4F
:1066600006DB29B1D0F8001B21F08041C0F8001BE7
:10667000D0F8001B41F40011C0F8001B0020704747
:10668000D0F80029002A06DB29B1D0F8001921F042
:106690008041C0F80019D0F8001941F40011C0F889
:1066A0000019EBE7F8B50B786FF060464F78764D40
:1066B000DCB2012F00EB431326D0D3F8104B6FF35D
:1066C0001204C3F8104BD3F8104B2C40C3F8104BF6
:1066D0004C698D68002C74D0D3F8107B2C44641E58
:1066E000B4FBF5F4A4B206EAC4452F43C3F8107B0B
:1066F000D3F8105B8E686643C6F312042543C3F8D3
:10670000105B012A72D0A6E04F6927B3D3F8107945
:106710006FF31207C3F81079D3F810792F40C3F83C
:1067200010794F698D68D3F810C92F447F1EB7FBCD
:10673000F5F506EAC54545EA0C05C3F81059D3F846
:1067400010594E69C6F312063543C3F81059CD7877
:10675000012D10D01BE0D3F810692E40C3F810694A
:10676000D3F8105945F40025C3F81059D3F810593F
:106770006FF3120509E0D3F8105925F0C045C3F8AE
:106780001059D3F8105945F00055C3F81059012A93
:1067900018D000EB4413D3F8004944F00444C3F884
:1067A0000049CC78012C2FD04A6962B30B78D0F81D
:1067B0003418012203F00F039A401143C0F8341833
:1067C0005FE036E00A691AB100EB4413C3F81429FC
:1067D000C97801290FD1D0F80818C90500EB441178
:1067E000D1F8002903D442F0005202E02FE042F039
:1067F0008052C1F8002900EB4410D0F8001941F094
:106800000441C0F800193CE0D0F80848E405D3F88A
:10681000004902D444F0005401E044F08054C3F82D
:10682000004900928B8A0A78C9689BB200F03EF951
:1068300027E0D3F8104BC5F312052C43C3F8104BD7
:10684000D3F8104B44F40024C3F8104B59E7CA683E
:106850000AB1C3F8142BC97801290CD1D0F8080863
:10686000C005D3F8000B02D440F0005001E040F026
:106870008050C3F8000BD3F8000B40F00440C3F87D
:10688000000B0020F8BD0000FFFF07E0816841F029
:106890000101816000207047064A1021016100213A
:1068A000491C914201D9032070470369DB06F7D4E4
:1068B00000207047400D03002023074A43EA81135C
:1068C00003610021491C914201D9032070470369EB
:1068D0009B06F7D400207047400D0300D0F808084D
:1068E00010F0060004D0022803D0062801D00F20A3
:1068F000704702207047406900F001007047D0F8EF
:106900001818D0F81C08084080B27047D0F8181842
:10691000D0F81C080840000C704710B5D0F81028BB
:1069200001F00F0300EB4114D0F83418D4F8080933
:10693000D94001F0010142EAC111084010BD00EB4D
:106940004111D1F8081BD0F814080840704741697C
:10695000806908407047D21C00F5805093080022DF
:1069600010B502E00468521C10C19A42FAD30846DE
:1069700010BD10B5C268012922F0C042C26002D029
:1069800029B1012010BDC16841F0005102E0C16889
:1069900041F08041C1603220F9F742FD002010BD76
:1069A000D0F800284FF4FE6303EA011322F4FE62DC
:1069B000C0F80028D0F800181943C0F800180020CB
:1069C00070470000022A3ED1264A274B0A449A42C9
:1069D00001D20F2138E0254A254B0A449A4201D2C0
:1069E0000E2131E0234A244B0A449A4201D20D2160
:1069F0002AE0224A224B0A449A4201D20C2123E087
:106A0000204B214A0B44934201D20B211CE01F4B27
:106A10001F4A0B44934201D20A2115E01D4B1E4A26
:106A20000B4493420FD31D4B1D4A0B44934201D29A
:106A3000082109E01B4B1C4A1944914201D207214D
:106A400002E0062100E00921C2684FF4705322F4ED
:106A50007052C26003EA8123C1681943C1600020FB
:106A600070470000405327FF00350C00401E1BFFFD
:106A700040420F0000DC0BFF804F1200808CF9FEBB
:106A800020D6130060B6E5FE60E3160000D3CEFE0C
:106A900040771B00C05BB3FEC091210000CA91FE8D
:106AA00020753800E05459FEE09C410010B5029C6E
:106AB00064B900EB0230DB1C00229B0800F580501B
:106AC00002E010C90460521C9A42FAD3002010BDA3
:106AD000FEE7090700284FEA116104DB00F1E0201E
:106AE00080F80014704700F00F0000F1E02080F8FB
:106AF000141D704702E008C8121F08C1002AFAD10D
:106B000070477047002001E001C1121F002AFBD12D
:106B10007047000010B5002821D0114B0022001F43
:106B2000196803E0814203D80A4649680029F9D16F
:106B300052B11368841A9C4204D100681844106052
:106B4000104602E0506000E0186039B102680B1A8C
:106B5000934203D10B681A4402604968416010BD3A
:106B60006C01002413494FF010400860FCF7ACFDA5
:106B7000F9F710FCF9F798FDFEF7D8FBFCF740FF9A
:106B8000FCF784FF0C490D48FBF7E2FF0A490B486C
:106B90001831FCF707F8084908484431FCF7E0F8D9
:106BA0003220F9F73DFCFCF78FFF0520FCF774FD60
:106BB000FBE7000008ED00E074010024DC01002484
:106BC000F0B50B30154D20F007010024144A0FE0FA
:106BD00003688B420BD38B4205D95E1A4318476872
:106BE000C3E9006700E04368136002C004E0021DCF
:106BF00010680028ECD12046002802D1286808B18E
:106C00000020F0BD064A07481060074A121A22F019
:106C10000702C0E9002401202860D7E770010024A2
:106C20006C0100243C0B0024382B002400000000E1
:106C3000010203040102030406070809008002029E
:106C40001F00000053544D202020202050726F64FC
:106C5000756374202020202020202020302E303109
:106C6000806C009000000024740100003C03009040
:106C70003C6D009074010024C4490000046B009036
:106C8000320182102C90D00304137D551B90AD046B
:106C90001AB9041AE1041309561B905D081A8904F5
:106CA000170403090412013202164083042A571DF7
:106CB0000201020345031A1A0313A1521B90710427
:106CC0001AA5041AC1041AC5041AF1041A9D041362
:106CD0003C6C4290139D5B1B9039044B0D5C104142
:106CE0001A25101A2F04C11A85101A79041A910452
:106CF0001A6D04140902202008010104C03209049D
:106D0000180A020806500507058102A02C07050194
:106D1000070914202240292019070B1C0907204BC2
:106D20000A06EC19E31920111A80021B082001320F
:0C6D30002203120812622609121B9100B7
:0400000590000299CC
:00000001FF
