:020000040800F2
:1000000028040024B10200086B1C00085B1B0008D8
:10001000691C00081D030008F51F0008000000000F
:10002000000000000000000000000000B11E0008F9
:10003000A9030008000000006D1C0008B31E0008A2
:10004000CB020008CB020008CB020008CB0200085C
:10005000CB020008CB020008CB020008CB0200084C
:10006000CB020008CB020008CB020008CB0200083C
:10007000CB020008CB020008CB020008CB0200082C
:10008000CB020008CB020008CB020008CB0200081C
:10009000CB020008CB020008CB020008CB0200080C
:1000A000CB020008CB020008CB020008CB020008FC
:1000B000CB020008CB020008CB020008CB020008EC
:1000C000CB020008CB020008CB020008CB020008DC
:1000D000CB020008CB020008CB020008CB020008CC
:1000E000CB020008CB02000800000000CB02000891
:1000F000CB020008CB020008CB020008CB020008AC
:10010000CB020008CB020008CB020008CB0200089B
:10011000CB020008CB020008CB020008CB0200088B
:10012000CB020008CB020008CB020008CB0200087B
:10013000CB020008CB020008CB020008CB0200086B
:1001400000000000000000000000000000000000AF
:10015000CB020008CB020008CB020008CB0200084B
:10016000CB020008CB020008CB020008CB0200083B
:10017000CB020008CB020008CB020008CB0200082B
:10018000CB020008CB020008CB020008CB0200081B
:10019000CB020008CB020008CB020008CB0200080B
:1001A000CB020008CB020008CB020008CB020008FB
:1001B000CB020008CB020008CB020008CB020008EB
:1001C000CB020008CB020008CB020008CB020008DB
:1001D000CB020008CB020008CB020008CB020008CB
:1001E000CB020008CB020008CB020008CB020008BB
:1001F000CB020008CB020008CB020008CB020008AB
:10020000CB020008CB020008CB020008CB0200089A
:10021000CB020008CB020008CB020008CB0200088A
:10022000CB020008CB020008CB020008000000004F
:10023000CB020008CB02000800000000CB0200083F
:10024000CB020008CB020008CB020008CB0200085A
:10025000CB020008CB020008CB020008CB0200084A
:10026000CB020008CB020008CB020008CB0200083A
:10027000CB020008CB020008CB02000800000000FF
:10028000CB020008CB020008CB02000800000000EF
:1002900000000000CB020008DFF810D000F02CF8BE
:1002A0000048004739200008AFF3008028040024EC
:1002B0000648804706480047FEE7FEE7FEE7FEE700
:1002C000FEE7FEE7FEE7FEE7FEE7FEE7591F000850
:1002D00099020008D2B201E000F8012B491EFBD2BE
:1002E00070470022F6E710B513460A460446194641
:1002F000FFF7F0FF204610BD064C074D06E0E06812
:1003000040F0010394E8070098471034AC42F6D35C
:10031000FFF7C6FF90200008B0200008FEE70000AD
:100320001F4B0020F0B51968890311D4BFF34F8F1C
:10033000BFF36F8F1B490860BFF34F8FBFF36F8F01
:10034000196841F400311960BFF34F8FBFF36F8F0D
:100350001968C90323D4124970310860BFF34F8F65
:10036000081F43F6FF7400680E4D1035C0F34E3180
:10037000C0F3C90204EA4116104600BF46EA80777E
:100380002F60401EFAD2491EF4D2BFF34F8F186877
:1003900040F480301860BFF34F8FBFF36F8FF0BD14
:1003A00014ED00E050EF00E07047704770B5044670
:1003B00000F038F90546601C02D004480078044477
:1003C00000F030F9401BA042FAD370BD00000024B9
:1003D0002DE9F84F03247D4D00234FF001094FF024
:1003E000B04B4FF00F0AE9E009FA03F73A4076D034
:1003F0000E7906F00306012E01D0022E18D1D0F896
:1004000008C04FEA430ECE6804FA0EF82CEA080C36
:1004100006FA0EF646EA0C068660D0F804C00E799D
:100420002CEA070CC6F300169E4046EA0C0646600E
:100430000E79F643B6070BD0C6684FEA43088F68BB
:1004400004FA08FC26EA0C0607FA08F73743C760E7
:100450000E7906F00306022E12D1DE080F694FEA6C
:10046000437C00EB8606B646366A4FEADC6C0AFA35
:100470000CF807FA0CF726EA08063743CEF8207086
:100480000F7906684FEA430807F0030704FA08FCEF
:1004900007FA08F726EA0C06374307604E6816F499
:1004A000403F1CD04A4E376847F002073760366835
:1004B0009F0706F00206009623F0030606F1B046F9
:1004C000B6463F0FD6F80864DFF808810AFA07FC41
:1004D000404526EA0C0603D14FF0000C41E06CE0E9
:1004E000DFF8F4C0604502D14FF0010C39E0DFF8CD
:1004F000ECC0604502D14FF0020C32E0DFF8E0C002
:10050000604502D14FF0030C2BE0DFF8D8C0604506
:1005100002D14FF0040C24E0DFF8CCC0604502D1DA
:100520004FF0050C1DE0DFF8C4C0604502D14FF06C
:10053000060C16E0DFF8B8C0604502D14FF0070C9A
:100540000FE0DFF8B0C0604502D14FF0080C08E0C2
:10055000DFF8A4C0604502D14FF0090C01E04FF074
:100560000A0C0CFA07FC4CEA060CCEF808C44F68DB
:10057000DBF80060FF0226EA020600D516435F465C
:10058000CBF80060D1F804C0DBF804605FEA8C2C83
:1005900026EA020600D516437E606E684F6826EA9A
:1005A0000206BF0300D516436E602E684F6826EA28
:1005B0000206FF0300D516432E605B1C0A6832FA60
:1005C00003F67FF411AFBDE8F88F000080000058FB
:1005D000F44402580000025800040258000802586F
:1005E000000C02580010025800140258001802585B
:1005F000001C02580020025800240258426921EAD7
:1006000002030A4043EA0241816170470AB18161F5
:1006100070470904FBE7000001480068000C7047C0
:100620000010005C01488068704700000000002452
:1006300002488168027811448160704700000024FC
:10064000032010B500F0C6F800F098FE0F4A1049DC
:1006500014681368C4F3032203F00F038A5CC95CB7
:1006600002F01F0201F01F01D0400A4A20FA01F1F6
:10067000116009490860002000F010F808B101205D
:1006800010BD00F079F8002010BD00001844025899
:1006900080200008100000240C00002470B50D4DCF
:1006A00004462878A0B14FF47A71B1FBF0F00A4902
:1006B0000968B1FBF0F001F03DFA48B9102C07D2FF
:1006C00000222146501E00F065F800206C6070BDCD
:1006D000012070BD000000240C000024F0B5154C72
:1006E0004378211D0A1D23600378F3B143680B6032
:1006F000057BC67A817A437B2D07847B45EA0665B4
:10070000C77B90F809C0067A90F800E045EAC1403E
:1007100040EA834040EA444040EA074040EA0C2077
:1007200040EA460040EA0E0001E000200860106048
:10073000F0BD000098ED00E0BFF35F8F044800219A
:100740000368034A23F480330360703211607047FA
:1007500024ED00E0074A40F00100064970321060C5
:10076000086840F480300860BFF34F8FBFF36F8F8D
:100770007047000024ED00E0054808B5016841F02D
:1007800002010160006800F00200009008BD000056
:10079000F44402580E4BF0B41B680D46C3F3022319
:1007A000C3F10706042E00D90426191D072901D21A
:1007B000002300E0DB1E012404FA06F19C40491EE0
:1007C0002940641E994014402143F0BC01F013BC41
:1007D0000CED00E0064900F0070210B54FF6FF04EB
:1007E0000868044B204040EA02201843086010BD0E
:1007F0000CED00E00000FA05134970B50A68D24319
:10080000520705D5096801F00701814213D118E0AC
:100810000A6822F0070202430A60FFF703FF0A4D4D
:100820004FF47A760446083D07E000BFFFF7FAFE72
:10083000001BB04201D9012070BD2868C04380046C
:10084000F4D4002070BD00000C4802582DE9FC5F74
:10085000044650F8241B002500902E460801FE4F48
:10086000DFF8F8831DD5606E50B1B0F5801F0CD055
:10087000B0F5001F0ED0B0F5401F1DD001250FE0D0
:10088000386840F40030386016E00221201D01F085
:10089000EFF903E00098022101F07AFA05000BD08D
:1008A0002E462088C00523D5606D05281ED2DFE8BE
:1008B00000F00C11161B1B00626ED8F8001021F41A
:1008C00040111143C8F80010EBE7386840F40030DD
:1008D000386009E00021201D01F0CAF903E000980A
:1008E000002101F055FA05466DB100E001252E46C4
:1008F0002088800528D5A06D80281ED00CDC90B102
:1009000040280ED114E0626DD8F8001021F00701E4
:100910001143C8F80010EBE7C02813D0B0F5807F72
:1009200010D001250FE0386840F40030386009E04D
:100930000021201D01F09CF903E00098002101F046
:1009400027FA054695B12E462088DFF8109340051A
:1009500009F108092CD5D4F8A400B0F5800F20D0F7
:100960000DDCA0B1B0F5001F0FD115E0A26DD8F8D5
:10097000001021F4E0711143C8F80010E4E7B0F56D
:10098000C00F13D0B0F5000F10D001250FE038686C
:1009900040F40030386009E00021201D01F068F9C2
:1009A00003E00098002101F0F3F9054675B12E46E9
:1009B000208800052DD5D4F8A800B0F1007F21D003
:1009C0000EDCA8B1B0F1807F10D116E0D4F8A420DD
:1009D000D9F8001021F460011143C9F80010E7E7CD
:1009E000B0F1407F13D0B0F1806F10D001250FE03F
:1009F000386840F40030386009E00021201D01F023
:100A000037F903E00098002101F0C2F905466DB105
:100A10002E46206880011FD5A06CD8B110280FD0B9
:100A2000202812D0302815D0012514E0D4F8A820B1
:100A3000D9F8001021F0E0611143C9F80010E8E78F
:100A4000386840F40030386004E00221201D01F0D5
:100A50000FF905466DB12E462088C0042BD5E06DF8
:100A6000B0F5005F20D00DDCA0B1B0F5805F0FD1F4
:100A700015E07A48A26C001F016821F03001114393
:100A80000160E9E7B0F5405F13D0B0F5804F10D0BA
:100A900001250FE0386840F40030386009E000219B
:100AA000201D01F0E5F803E00098002101F070F945
:100AB000054685B12E462088800429D5206EB0F5E4
:100AC000403F23D010DC08B3B0F5803F14D0B0F520
:100AD000003F0FD115E0E26DD8F8001021F4E0419D
:100AE0001143C8F80010E6E7B0F5802F0ED0B0F53E
:100AF000A02F0BD001250AE00121201D01F0B8F83C
:100B000003E00098012101F043F905468DB12E461E
:100B1000208840042AD5D4F8AC00B0F1405F23D03F
:100B200010DC08B3B0F1805F14D0B0F1005F0FD1DA
:100B300015E0226ED8F8001021F4E0211143C8F826
:100B40000010E5E7B0F1804F0ED0B0F1A04F0BD010
:100B500001250AE00121201D01F08AF803E0009838
:100B6000012101F015F905466DB12E4620880004DB
:100B70001FD5E06ED8B1B0F1805F0ED0B0F1005F4C
:100B800010D0012514E0D4F8AC20D9F8001021F0E1
:100B9000E0411143C9F80010E8E7386840F400303C
:100BA000386004E00121201D01F062F805466DB1B6
:100BB0002E462068C0011ED5606CD0B101280ED031
:100BC000022811D0032814D0012513E0E26ED8F8D2
:100BD000001021F040511143C8F80010E9E73868CF
:100BE00040F40030386004E00221201D01F040F89C
:100BF000054685B12E462068DFF85CB04002ABF1B7
:100C00001C0B57D51648016841F480710160FFF74D
:100C100009FD82460EE01148626C001F016821F058
:100C2000030111430160E6E7FFF7FCFCA0EB0A00BB
:100C300064283DD80A480068C005F5D57DBBDFF8BB
:100C40001CA0B4F8B0200AF1200ADAF8001002F46F
:100C5000407001F4407105E02C44025850440258A1
:100C600000480258814211D0DAF80010DAF800206A
:100C700021F4407142F48032CAF80020DAF80020F2
:100C800022F48032CAF80020CAF80010D4F8B0006C
:100C9000B0F5807F21D1FFF7C5FC019019E008E095
:100CA000FFF7C0FC0199411A41F28830814210D906
:100CB00003252E462078DFF844A4C0073DD0A06F5E
:100CC000182838D026DC80B3082829D0102825D150
:100CD0002CE0DAF800008007E2D5D4F8B010C1F3B8
:100CE0000120032858460DD0016821F47C51016091
:100CF000B4F8B020DAF80010C2F30B021143CAF8BE
:100D00000010D7E7FE4A036802EA111223F47C516F
:100D10001143ECE720280ED028280CD001250BE049
:100D20000121201D00F0A4FF04E004E0009801214F
:100D300001F02EF805465DB12E46207880071ED5BD
:100D4000606F062819D2DFE800F0160C111616168F
:100D5000A26FDAF8001021F038011143CAF8001030
:100D6000EBE70121201D00F083FF03E00098012143
:100D700001F00EF8054675B100E001252E462078F9
:100D800040071FD5D4F89000062819D2DFE800F0FC
:100D9000160C11161616626FDAF8001021F0070112
:100DA0001143CAF80010EAE70121201D00F060FF9E
:100DB00003E00098012100F0EBFF05469DB100E043
:100DC00001252E46207880062BD5D4F88C00B0F172
:100DD000405F24D011DC10B3B0F1805F15D0B0F1CA
:100DE000005F10D116E0D4F89020D9F8001021F05F
:100DF00007011143C9F80010E4E7B0F1804F0ED0AD
:100E0000B0F1A04F0BD001250AE00021201D00F019
:100E10002FFF03E00098022100F0BAFF05468DB1D4
:100E20002E46207840062BD5D4F89800B0F5406FB8
:100E300024D011DC10B3B0F5806F15D0B0F5006F81
:100E400010D116E0D4F88C20DAF8001021F0E0413F
:100E50001143CAF80010E4E7B0F5805F0ED0B0F59A
:100E6000A05F0BD001250AE00021201D00F000FF4B
:100E700003E00098022100F08BFF05468DB12E465D
:100E8000207800062BD5D4F89C00B0F5C04F24D0B4
:100E900011DC10B3B0F5005F15D0B0F5804F10D164
:100EA00016E0D4F89820D9F8001021F4E05111434D
:100EB000C9F80010E4E7B0F5004F0ED0B0F5204FB0
:100EC0000BD001250AE00021201D00F0D1FE03E037
:100ED0000098022100F05CFF05464DB12E462078B7
:100EE00000071ED5D4F88000B0F5805F0AD00FE06F
:100EF000D4F89C20D9F8001021F460411143C9F8BE
:100F00000010ECE70098022100F042FF00B101263A
:100F1000D4F88020DAF8001021F440511143CAF8C7
:100F200000102078C00613D5D4F89400B0F5807F67
:100F300005D10098022100F02BFF00B10126D4F862
:100F40009420D9F8001021F440711143C9F8001021
:100F50002068000316D5D4F8A00038B1B0F5803F62
:100F600009D0B0F5003F0BD001250AE00021201D7B
:100F700000F07EFE03E00098022100F009FF054624
:100F800085B12E462068400322D5D4F88400B0F500
:100F9000801F11D0B0F5001F13D0B0F5401F15D041
:100FA000012514E0D4F8A020D9F8001021F4403134
:100FB0001143C9F80010E5E7386840F400303860A4
:100FC00004E00098012100F0E3FE054655B12E46ED
:100FD0002068C0031CD5E06C70B1B0F5803F10D024
:100FE000012514E0D4F88420DAF8001021F440112F
:100FF0001143CAF80010EBE7386840F4003038605D
:1010000004E00221201D00F033FE0546CDB12E463E
:101010002068800005D50098022100F0B9FE00B1DB
:101020000126206880031BD5E06FB8B1B0F5807F42
:1010300010D0B0F5007F11D0B0F5407F0ED0012563
:101040000DE02E48E26C0838016821F4803111432C
:101050000160DDE7386840F400303860F5B32E46B3
:101060002068C00207D5226FD8F8001021F0004197
:101070001143C8F800102068C00008D5D4F8B42087
:10108000DBF8001021F480411143CBF800102068F8
:10109000800207D5A26ED8F8001021F080711143AC
:1010A000C8F80010206840000CD5DBF8001021F4CF
:1010B0000041CBF80010DBF80010D4F8B820114341
:1010C000CBF800102068002807DA0C48226D083899
:1010D000016821F040511143016000E014E02068F4
:1010E000000208D5D4F88820DAF8001021F4400175
:1010F0001143CAF8001086B1012003E0544402589D
:10110000CFFFFF00BDE8FC9FE26FDAF8001021F48A
:1011100040711143CAF80010A2E70020EDE700007B
:101120002DE9F05F04000F467ED0DFF83882D8F852
:10113000000000F00F00B8420CD2D8F8001021F0E7
:101140000F013943C8F80010D8F8000000F00F0074
:10115000B84269D12078844D40070AD520692968B2
:1011600001F07001884204D9296821F0700101431F
:10117000296020787C4E361D00070AD560693168E9
:1011800001F07001884204D9316821F070010143F7
:1011900031602078C0060AD5A069316801F4E061A9
:1011A000884204D9316821F4E0610143316020783C
:1011B000DFF8B4B180060BF1080B0CD5E169584695
:1011C000DBF8002002F07002914204D9026822F09C
:1011D00070020A430260207880070AD5E068296817
:1011E00001F00F01884204D9296821F00F01014361
:1011F00029602078C0073ED05B49A268286818396A
:1012000020F47060104328606068022818D003281A
:1012100019D00968012819D0490700294ADADFF8EE
:1012200048A1AAF1080A00E044E0DAF8002022F020
:1012300007020243CAF80020FFF7F4F9814612E0E2
:1012400009688903E9E709688901E6E7C905E4E770
:10125000FFF7E8F9A0EB090141F28830814202D999
:101260000320BDE8F09F6168DAF8000000F0380064
:10127000B0EBC10FECD1207880070AD5E06829686F
:1012800001F00F01884204D2296821F00F010143C7
:101290002960D8F80010404601F00F01B9420BD97F
:1012A000016821F00F0139430160006800F00F0070
:1012B000B84201D00120D4E7207840070AD5206940
:1012C000296801F07001884204D2296821F0700178
:1012D00001432960207800070AD56069316801F070
:1012E0007001884204D2316821F0700101433160FD
:1012F0002078C0060AD5A069316801F4E06188420F
:1013000004D2316821F4E061014331602078800625
:101310000CD5E1695846DBF8002002F070029142DA
:1013200004D2026822F070020A43026000F026F83C
:101330000E492A682B68C2F3032203F00F038A5C6C
:10134000C95C02F01F0201F01F01D040084A20FAD8
:1013500001F111600749086007480068BDE8F05FC7
:10136000FFF79CB900200052184402588020000862
:10137000100000240C00002404000024454970B52E
:1013800045480968434B103B11F0380208D0011161
:10139000082A03D0102A0BD0182A0BD0084670BD9B
:1013A00019688906FBD51968C1F3C101C84070BD31
:1013B0003A4870BD3749374D18310C1D24350A683D
:1013C000096826682D6802F0030406F00102C1F3E3
:1013D0000511C5F3CC0515FB02F200EE102AB8EE9C
:1013E000400AE9B32F4ADFED2E0AB7EE001A6CB1BE
:1013F000DFED2D1A012C01D0022C43D002EE101A81
:101400001068F8EE422A81EEA22A1EE01C68A406AB
:1014100011D51B6801EE901A1168C3F3C103F8EEF1
:10142000612AD84001EE900AC1F30800F8EE611A73
:1014300081EEA22A0BE001EE901ADFED1C2A00BF1C
:10144000F8EE611A106882EEA12AC0F3080001EEDE
:10145000900AF8EE611A40EE201A31EE810A00E09F
:1014600015E022EE000A1068C0F34620401C00EE92
:10147000900AF8EE600A80EE201ABCEEC10A10EE67
:10148000100A70BD01EE901ADFED092AD8E700209E
:1014900070BD0000104402580090D00340787D01D8
:1014A00000000039304402580024744A0024744C6F
:1014B00020BCBE4B2DE9F05F04007DD0FF4F2078AB
:1014C000FE4D1837DFF8F493103DC00748D0D9F827
:1014D0000000396800F03800102815D0182803D112
:1014E00001F0030002280FD06068B0F5803F12D0F1
:1014F00010B1B0F5A02F18D0286820F480302860F3
:10150000286820F4802009E02868800328D56068D6
:101510000028D2D024E0286840F480302860606839
:1015200088B1FFF77FF8064609E0286840F480207C
:101530002860F0E7FFF776F8801B64286FD82868EA
:101540008003F7D50CE0FFF76DF8064605E000BF15
:10155000FFF768F8801B6428F0D828688003F7D468
:10156000207841F20308D54E0C3E800769D5D9F8A2
:101570000000396810F038000ED0182801D1880713
:101580000AD0E06890B3296821F01901014329606D
:10159000FFF748F8824631E02868400702D5E06846
:1015A00000288AD0E168286820F0190008432860E4
:1015B000FFF738F8824607E0DFE000BFFFF732F8B8
:1015C000A0EB0A000228B9D828684007F6D500BF6A
:1015D000FFF722F840451BD82069402812D0316817
:1015E00021F47C3141EA003030602AE018E000BF8D
:1015F000FFF718F8A0EB0A0002289FD828684007D8
:10160000F6D5E5E7306820F47C3040F40030EBE7B5
:10161000207C316821F0FE4141EA0060E4E70DE101
:10162000286820F001002860FEF7FCFF824605E0F4
:10163000FEF7F8FFA0EB0A0002288DD828684007C3
:10164000F6D42078C0065DD5D9F80000DFF86CB27A
:10165000396800F03800ABF1040B082810D01828C6
:1016600003D101F0030001280AD0E06900282868AE
:1016700038D040F080002860FEF7D4FF824623E097
:101680002868C00523D5E069802876D11FE0206A4C
:10169000202821D0316821F0F84141EA8060306093
:1016A00030E000BF94F82010DBF8002022F07C52DC
:1016B00042EA0161CBF8001024E000BFFEF7B2FF60
:1016C000A0EB0A00022898D82868C005F6D5FEF7D6
:1016D000A3FF4045E6D8DAE7306820F0F84040F054
:1016E0008040DCE720F080002860FEF79BFF064684
:1016F00005E000BFFEF796FF801B02289DD82868F2
:10170000C005F7D42078000729D56C48616964309A
:1017100000298046016811D041F001010160FEF707
:1017200081FF064605E000BFFEF77CFF801B022814
:10173000C9D8D8F800008007F6D510E021F00101E3
:101740000160FEF76FFF064605E000BFFEF76AFF87
:10175000801B022872D8D8F800008007F6D42078C1
:10176000800623D5A0690028286810D040F4805056
:101770002860FEF757FF064605E02CE1FEF752FF12
:10178000801B02285AD828688004F7D50EE020F480
:1017900080502860FEF746FF064604E0FEF742FF51
:1017A000801B02284AD828688004F7D42078400794
:1017B0004FD5DFF80C81D8F8001041F48071C8F8DB
:1017C0000010FEF72FFF064605E000BFFEF72AFFD8
:1017D000801B642832D8D8F80000C005F6D5374EF3
:1017E000A068603601280AD008B1052813D03068F7
:1017F00020F001003060306820F0040002E0306822
:1018000040F001003060A06841F2883A90B1FEF7E4
:1018100009FF80460AE0306840F004003060EEE7DF
:10182000FEF700FFA0EB0801514507D8306880079C
:10183000F6D50EE0FEF7F6FE804607E084E000BF36
:10184000FEF7F0FEA0EB080151457DD83068800717
:10185000F6D4606AB0B3DFF86480D9F8001008F1FC
:101860002008C1F3C20103296FD00228286820F0A4
:101870008070286003D0FEF7D5FE044680E0FEF7B6
:10188000D1FE064605E000BFFEF7CCFE801B022815
:1018900073D828688001F7D4E26A40F2F3313868DF
:1018A00054F8283F884340EA021018433860217BEF
:1018B0004FF4FE0C22894FF0FE4704E0104402581A
:1018C0000048025889E0208A4902521E267DA1F56F
:1018D000007189B2401EC2F308021143761E0CEA61
:1018E000004001433E4807EA066211433C4AC8F8FB
:1018F00000100832016821F00101016011684FF603
:10190000F876236AB14341EAC30111600168A26914
:1019100021F00C01114301600168E26921F002012C
:1019200011430160016841F480310160016841F4B4
:1019300000310160016841F480210160016841F0DB
:1019400001010160286801E017E01DE040F08070AF
:101950002860FEF767FE044605E000BFFEF762FE62
:10196000001B022809D828688001F7D535E000BFA0
:10197000FEF758FE001B022802D90320BDE8F09FA5
:1019800028688001F4D428E039680128D8F80000DC
:1019900021D0A26A01F0030393421CD1E26AC1F391
:1019A00005118A4217D1216BC0F30802491E8A42F1
:1019B00011D1616BC0F34622491E91420BD1A16B3C
:1019C000C0F30642491E914205D1E16BC0F30660A7
:1019D000491E814201D00120D0E70020CEE700005F
:1019E0002C4402582DE9F0470446007A00278A4625
:1019F00001280ED0607A01254FF0000925720128D8
:101A000009D00420E060012784F808903846BDE83A
:101A1000F0870220FBE74FF0020884F80980FEF708
:101A200001FE064611E000BFFEF7FCFD801B022808
:101A30000BD920684068C043C00706D06572C4F85F
:101A40000C80012084F80890E1E720684068C043DA
:101A5000C007E9D1206880682061CAF8000065727B
:101A6000D2E700002DE9F04104002FD0607A4FF05A
:101A7000000820B9204684F8088000F035F80226D6
:101A800066720427D4E90002016821F020011143A5
:101A900001602068016841F004010160206840682D
:101AA000C043400601D4677210E0FEF7BBFD054657
:101AB0000FE000BFFEF7B6FD401B022809D92068E1
:101AC0004068C043400704D46772E6600120BDE867
:101AD000F08120684068C0434007EBD50121617266
:101AE000C4F80C800020F2E710B5B0B00446BC2169
:101AF0006846FEF7F6FB0D492068884213D14FF483
:101B000000300090002168461F91FEF79FFE08B14B
:101B1000FEF74BFC0648016841F040010160006897
:101B200000F040002F9030B010BD000000180248B7
:101B3000DC440258401EB0F1807F10B501D3012073
:101B400010BD4FF0E02460610F21601700F053FAE0
:101B50000020A0610721216110BDFEE77FB50025AF
:101B60000095019502950395FEF7E6FD01248DF899
:101B700000401B208DF808008DF80B504FF01046E8
:101B80008DF80A4068468DF80150019603948DF84F
:101B90000950FEF7A3FD16208DF808008DF80F40C0
:101BA00005218DF80B1068468DF80E408DF8004029
:101BB0008DF80D508DF80A408DF8014001968DF892
:101BC0000C508DF80950FEF789FD0420FEF7C2FD88
:101BD0007FBD000010B586B014216846FEF781FB7A
:101BE0001548016841F010010160016801F0100121
:101BF0000591016841F004010160016801F00401F0
:101C00000591016841F080010160006800220B4CE1
:101C1000082100F0800005902046FEF7F7FC002127
:101C20000820009001222046CDE901210391694658
:101C3000FEF7CEFB06B010BDE0440258001002587B
:101C400008480022064910B5C0E90012FFF70AFF54
:101C5000002803D0BDE81040FEF7A7BB10BD000070
:101C60000018024814000024FEE770477047000087
:101C70002DE9F047454D044689464FF0000A286893
:101C8000C04380070AD0414E283E306820F0806073
:101C90003060FEF7C7FC0746B04608E00120BDE80B
:101CA000F08700BFFEF7BEFCC01B022867D8D8F83B
:101CB00000000001F6D4206829684FF4FE0721F4E3
:101CC0007C313E0241EA00302860207AA389B4F8D2
:101CD00004C040022D4D2D495B1E227CACF1010C4D
:101CE0001035091DA0F5007080B2521ECCF3080C0F
:101CF00007EA034340EA0C00184306EA0262104375
:101D000028600868626920F0C000104308600A6813
:101D1000A06922F0200202430A60281D0A6822F00E
:101D200010020A6002684FF6F873E4699A4342EAC7
:101D3000C40202600868B9F1000F40F010020A60A6
:101D400011D00868B9F1010F11D040F400100860FB
:101D5000D8F80000444640F08060C8F80000FEF764
:101D600061FC05460DE0086840F40020EFE740F410
:101D70008010ECE7FEF756FC401B022801D9032037
:101D80008DE720680001F5D5504688E728440258C1
:101D90002DE9F047454D044689464FF0000A286872
:101DA000C04380070AD0414E283E306820F0805062
:101DB0003060FEF737FC0746B04608E00120BDE87A
:101DC000F08700BFFEF72EFCC01B022867D8D8F8AA
:101DD00000008000F6D4208829684FF4FE0721F027
:101DE0007C713E0241EA00502860207AA389B4F851
:101DF00004C040022D4D2D495B1E227CACF1010C2C
:101E00001835091DA0F5007080B2521ECCF3080CE5
:101E100007EA034340EA0C00184306EA0262104353
:101E200028600868626920F44060104308600A680E
:101E3000A06922F4007202430A60281D0A6822F495
:101E400080720A6002684FF6F873E4699A4342EAC6
:101E5000C40202600868B9F1000F40F480720A60A1
:101E600011D00868B9F1010F11D040F080700860FE
:101E7000D8F80000444640F08050C8F80000FEF753
:101E8000D1FB05460DE0086840F48000EFE740F420
:101E90000000ECE7FEF7C6FB401B022801D9032037
:101EA0008DE720688000F5D5504688E72844025821
:101EB0007047FEF7BDBB0000F0B59DB04C216846F1
:101EC000FEF70FFA202113A8FEF70BFA0220FEF707
:101ED00093FC1F490A681F4822F001020A60096842
:101EE000016821F4404141F400410160016800248F
:101EF00001F440411B9101688904FCD5022009903E
:101F00000DF1280C21230093C703019701260696A3
:101F10000521C02204238CE80F0008250E90CDE98E
:101F200010540F9068461294FFF7C4FA40201A909C
:101F30003F210301CDE916500322CDE9180313AB6D
:101F400013A883E816000221FFF7EAF81DB0F0BDE0
:101F50002C04005818480258214A30B52149146809
:101F60000020204B44F47004146010330A681E4DA6
:101F700042F001020A6018600A681A4B2A400A609F
:101F800018331C1D251D174A186028322060131DA8
:101F900028601C1D251D10602A1D1860131D20605F
:101FA0001C1D2860251D10601860206028600A68CC
:101FB0000C4B0E4C22F4802260330A6018602068BB
:101FC0006FF30F00B0F1005F03D209490120C1F89F
:101FD00008014FF0006002498039086030BD000000
:101FE00088ED00E0004402587FEDF6EA0010005C46
:101FF00000800051FEE7090700284FEA116104DB69
:1020000000F1E02080F80014704700F00F0000F1AC
:10201000E02080F8141D704702E008C8121F08C1B4
:10202000002AFAD170477047002001E001C1121F59
:10203000002AFBD17047000008B5FFF78FFDFEF7BF
:102040006FF9FEF7FDFAFFF737FFFFF7C3FDFFF764
:10205000F7FD094C4FF4167508486946FFF7C2FCB6
:1020600008212046FEF7CAFA0098B0FBF5F105FBFF
:102070001100FEF79BF9EFE700100258140000244E
:10208000000000000102030401020304060708091E
:10209000B0200008000000241400000018200008F0
:1020A000C4200008140000241404000028200008A4
:1020B0000100000010000000000000000090D003AC
:0420C0000090D003B9
:040000050800029954
:00000001FF
