:020000040800F2
:10000000904B002415001008891D0008051C0008ED
:100010002121100815021008FB361008000000000E
:10002000000000000000000000000000112C00088B
:100030009502100800000000C7211008A72A100828
:100040002F0010082F0010082F0010082F00100894
:100050002F0010082F0010082F0010082F00100884
:100060002F0010082F0010082F0010082F00100874
:100070002F0010082F0010082F0010082F00100864
:100080002F0010082F0010082F0010082F00100854
:100090002F0010082F0010082F0010082F00100844
:1000A0002F0010082F0010082F0010082F00100834
:1000B0002F0010082F0010082F0010082F00100824
:1000C0002F0010082F0010082F0010082F00100814
:1000D0002F0010082F0010082F0010082F00100804
:1000E0002F0010082F001008000000002F0010083B
:1000F0002F0010082F0010082F0010082F001008E4
:100100002F001008812510082F0010082F0010085C
:100110002F0010082F0010082F0010082F001008C3
:100120002F0010082F0010082F0010082F001008B3
:100130002F0010082F0010082F0010082F001008A3
:1001400000000000000000000000000000000000AF
:100150002F0010082F0010082F0010082F00100883
:100160002F0010082F0010082F0010082F00100873
:100170002F0010082F0010082F00100800000000AA
:100180002F0010082F0010082F0010082F00100853
:100190002F0010082F0010082F0010082F00100843
:1001A0002F0010082F0010082F0010082F00100833
:1001B0002F0010082F0010082F0010082F00100823
:1001C0002F0010082F0010082F0010082F00100813
:1001D0002F0010088D1D00082F0010082F00100898
:1001E0002F0010082F0010082F0010082F001008F3
:1001F0002F0010082F0010082F0010082F001008E3
:100200002F0010082F0010082F0010082F001008D2
:100210002F0010082F0010082F0010082F001008C2
:100220002F0010082F0010082F00100800000000F9
:100230002F0010082F001008000000002F001008E9
:100240002F0010082F0010082F0010082F00100892
:100250002F0010082F0010082F0010082F00100882
:100260002F0010082F0010082F0010082F00100872
:100270002F0010082F0010082F00100800000000A9
:100280002F0010082F0010082F0010080000000099
:10029000000000002F00100800F002F8FFF0B0FE90
:1002A0000AA090E8000C82448344AAF10107DA45D1
:1002B00001D1FFF0A5FEAFF2090EBAE80F0013F06E
:1002C000010F18BFFB1A43F001031847183500004F
:1002D000383500000A444FF0000C10F8013B13F0D1
:1002E000070408BF10F8014B1D1108BF10F8015B8F
:1002F000641E05D010F8016B641E01F8016BF9D182
:1003000013F0080F1EBF10F8014BAD1C0C1B09D1D8
:100310006D1E58BF01F801CBFAD505E014F8016B4A
:1003200001F8016B6D1EF9D59142D6D370470000DC
:100330000023002400250026103A28BF78C1FBD8EE
:10034000520728BF30C148BF0B6070471FB503F18B
:10035000D5F99DE8030000F07AF81FBD10B510BD77
:1003600003B4FFF7FBFF03BCFFF04EFF70B504467C
:10037000051FFFF0C9FE0068002C14BF446870BD63
:10038000002C18BFAC423CBF20466468F8D301681B
:100390000A18AA4218BF456003D12A6805461144CD
:1003A000016028684119A1421CBF6C6070BD616882
:1003B000696021680844286070BD10B5203AC0F01B
:1003C0000B80B1E81850203AA0E81850B1E8185056
:1003D000A0E81850BFF4F5AF5FEA027C24BFB1E893
:1003E0001850A0E8185044BF18C918C0BDE8104004
:1003F0005FEA827C24BF51F8043B40F8043B08BF0D
:100400007047D20728BF31F8023B48BF11F8012BD3
:1004100028BF20F8023B48BF00F8012B7047704707
:1004200070477047704738B504460A460020694651
:10043000AFF30080002808BF38BD0246009920466F
:10044000FFF06AFE012038BD0120FFF07FBEF8B545
:10045000AFF30080054600200C46102000BF064682
:10046000A819A0420DD9324669460020AFF300809A
:10047000070008BFFFF06AFE0098A04218BF0546BB
:10048000C419FFF041FE05600746F01D20F007008B
:100490004619284600F00AF8B44208BFF8BDA21B6E
:1004A00031463868BDE8F840FFF036BE00210160F3
:1004B000C0E90110704710207047002801D0FFF0FC
:1004C000A3BE704770B505460C460A2000E06D1CBF
:1004D00000F011F835B128780028F8D102E0641C4A
:1004E00000F009F814B120780028F8D1BDE8704078
:1004F0000A20AFF3008008B569468DF8000003209C
:10050000ABBE08BD70B50446FFF0CCFE0546601CCE
:1005100002D0044800780444FFF0C4FE401BA0420F
:10052000FAD370BD000000242DE9FC4F01257E4C5C
:1005300000234FF0030A4FF0B04E4FF00F0BEBE0EB
:1005400005FA03F637403A0077D04F68012F05D0FF
:10055000022F03D0112F01D0122F1AD187684FEA32
:100560004308D1F80CC00AFA08F927EA09070CFA7F
:1005700008FC4CEA070CC0F808C0476891F804C0B2
:10058000B743CCF3001C0CFA03FC4CEA070CC0F890
:1005900004C0C6684FEA430CD1F80880E1460AFA65
:1005A0000CF7BE43019708FA09F848EA0608C0F8B4
:1005B0000C804E68022E01D0122E12D1DE084FEAB6
:1005C000437C00EB860600960F69366A4FEADC6CC6
:1005D0000BFA0CF807FA0CF726EA08063743009ED8
:1005E00037620E790768DDF804C006F0030606FAE4
:1005F00009F627EA0C073E4306604E68F6001CD554
:100600004A4E376847F00207376036689F0706F0A2
:100610000206009623F0030606F1B046B1463F0FEE
:10062000D6F80864DFF808810BFA07FC404526EA93
:100630000C0603D14FF0000C41E06CE0DFF8F4C091
:10064000604502D14FF0010C39E0DFF8ECC06045A5
:1006500002D14FF0020C32E0DFF8E0C0604502D179
:100660004FF0030C2BE0DFF8D8C0604502D14FF00B
:10067000040C24E0DFF8CCC0604502D14FF0050C3B
:100680001DE0DFF8C4C0604502D14FF0060C16E053
:10069000DFF8B8C0604502D14FF0070C0FE0DFF87B
:1006A000B0C0604502D14FF0080C08E0DFF8A4C0EC
:1006B000604502D14FF0090C01E04FF00A0C0CFA32
:1006C00007FC4CEA060CC9F808C426684F6826EAFD
:1006D0000206FF0300D51643266066684F6826EAC7
:1006E0000206BF0300D516436660D1F804C0764603
:1006F000DEF800705FEACC2C27EA020700D517432A
:100700003760D1F804C077685FEA8C2C27EA0207CB
:1007100000D5174377605B1C0A681746DA407FF400
:100720000FAFBDE8FC8F000080000058F444025871
:10073000000002580004025800080258000C025839
:10074000001002580014025800180258001C0258E9
:1007500000200258002402580AB181617047090440
:10076000FBE7000001480068000C70470010005CC7
:1007700002488168027811448160704700000024BB
:10078000032010B5FFF0F0FD00F1AEFE0F4A104956
:1007900014681368C4F3032203F00F038A5CC95C76
:1007A00002F01F0201F01F01D0400A4A20FA01F1B5
:1007B0001160094908600020FFF07AFD08B10120AE
:1007C00010BD00F02BF8002010BD000018440258A6
:1007D00006371008100000240C000024BFF35F8FC0
:1007E000044800210368034A23F480330360703215
:1007F0001160704724ED00E0074A40F0010006490F
:1008000070321060086840F480300860BFF34F8F8A
:10081000BFF36F8F7047000024ED00E0054808B576
:10082000016841F002010160006800F002000090E0
:1008300008BD0000F44402580E4BF0B41B680D468E
:10084000C3F30223C3F10706042E00D90426191DA1
:10085000072901D2002300E0DB1E012404FA06F17F
:100860009C40491E2940641E994014402143F0BC1D
:1008700002F07EBF0CED00E001680123C0F8FC33FC
:10088000002280F8F4238869044A40F000608861FF
:10089000486D1043486500207047000003000010B9
:1008A0007047D0F8040402F096BB01F00F020B066B
:1008B00070B5C2EBC20104464FF001004FF00005D5
:1008C00004EB810103D581F83D003C3103E081F860
:1008D000FD5101F5FE710A7094F8BC23012A08D07D
:1008E00084F8BC03206802F171FC002084F8BC533A
:1008F00070BD022070BD70B54268044601F00F0063
:10090000904201D9012070BD01F00F024FF00005A7
:100910000B06C2EBC2014FF0010204EB810103D5CB
:1009200081F83D203C3103E081F8FD5101F5FE7175
:100930008D70087094F8BC03012808D084F8BC239B
:10094000206802F171FD002084F8BC5370BD0220C4
:1009500070BD10B5044690F8BC0301280AD00120F0
:1009600084F8BC0320680A0606D501F00F0102F0E6
:1009700037FE03E0022010BD02F022FE002084F8C2
:10098000BC0310BD01F00F01C1EBC10100EB810000
:10099000D0F8140270472DE9F04101F00F0604462B
:1009A0000D064FF00100C6EBC6014FF0000504EB49
:1009B000810103D581F83D003C3103E081F8FD5110
:1009C00001F5FE714F788A60CB700E7007B1CE8052
:1009D000022B00D10D7194F8BC23012A09D084F8B0
:1009E000BC03206802F06AFC284684F8BC53BDE8CA
:1009F000F0810220FBE770B501F00F050C460026E0
:100A0000C5EBC50100EB8101C1F80822C1E98436BC
:100A100081F8FD6181F8FC5101F5FE710369012B3C
:100A200000D10A612207027C006803D002F128FD90
:100A3000002070BD02F0DEFCFAE700002DE9FC5F4B
:100A400005680446284602F115FE00287ED120687C
:100A500002F0EDFD002879D0206802F0E8FD800763
:100A600004D52068416901F002014161206802F06B
:100A7000DEFDC10604F57170009034D520688169EF
:100A800021F0100181612F6A07F00F01C7F3434085
:100A9000C1EBC101022804EB810606F5FE7602D007
:100AA000062811D01AE047F6F070074216D0C7F3B7
:100AB0000A12F1681746284602F100FEF168B06993
:100AC0003944F160384408E000990822284602F1D0
:100AD000F5FDB069C7F30A110844B0612068816967
:100AE00041F010018161206802F0A1FD00034FF088
:100AF00001094FF0080B5BD52068002602F1C5FD07
:100B0000DFF8A8A3074651E0F8074DD02068F1B2FE
:100B100002F085FD8046C00707D005EB4611C1F8FD
:100B2000089B3146204601F037F95FEA087022D56C
:100B300005EB4611C1F808BB2068016C00EB4610BC
:100B400001915145D0F8081B07D900E0ABE1090439
:100B500003D54FF40041C0F8081B204600F0B0F95F
:100B60000198504507D92069012804D12068012146
:100B7000009A02F0CDFC5FEAC86004D505EB46118F
:100B80001020C1F8080B5FEA886004D505EB461019
:100B90002021C0F8081B5FEA884005D505EB461107
:100BA0004FF40050C1F8080B7F08761C002FABD122
:100BB000206802F03CFD40034FF0000A5CD520683D
:100BC00002F15CFD0026074654E0F80750D020688B
:100BD000F1B202F161FD8046C00723D0D5F8342878
:100BE00006F00F0C05EB461309FA0CF08243C5F82A
:100BF0003428C3F80899206901280FD1C6EBC60034
:100C000004EB8000D0E911121144816436B9206DE3
:100C100020B920680121009A02F07AFC2046F1B246
:100C2000FFF0DBFB5FEA087003D505EB4611C1F866
:100C300008B95FEAC86004D505EB46111020C1F879
:100C400008095FEA486004D505EB46114020C1F869
:100C500008095FEA887004D505EB46110220C1F847
:100C600008095FEA086003D53146204601F15AFAC7
:100C70007F08761C002FA8D1206802F0D8FC00283D
:100C800011DAD5F8040820F00100C5F8040894F83A
:100C9000F403012839D0204600F00EF9206841699C
:100CA00001F000414161206802F0C1FC00050BD554
:100CB000D5F80808C00702D02046FFF0E9FC2068FC
:100CC000416901F400614161206802F0B0FC00015B
:100CD0000AD52068416901F00061416194F8F4038C
:100CE000D0B12046FFF0D4FC206802F0A0FCC00484
:100CF00076D5D5F8040820F00100C5F8040820686E
:100D0000102102F06DFC002135E00021204684F81E
:100D1000F4A3FFF7C5FDC1E784F8F4932068406DA4
:100D20000121C0F38300C4F8F8032046FFF7B8FDA3
:100D3000DAE700BF05EB41104FF67F32C0F8082913
:100D4000D0F8003923F40013C0F80039D0F8003986
:100D500043F00063C0F80039C0F8082BD0F8002B2E
:100D600022F40012C0F8002BD0F8002B42F00062F1
:100D7000C0F8002B491C60688842DBD8D5F81C08F5
:100D800040F00110C5F81C08206B60B1D5F884084C
:100D900040F00B00C5F88408D5F8440840F00B007B
:100DA000C5F844080CE0D5F8140842F22B010843BA
:100DB000C5F81408D5F8100840F00B00C5F8100865
:100DC000D5F8000820F4FE60C5F80008217C2068F2
:100DD000009A02F09DFB2068416901F48051416155
:100DE000206802F024FC800417D5206802F0A6FADF
:100DF000206802F007FCE06000F01AFA0146207B50
:100E00002368C2B2184602F02DFC2046FFF012FC07
:100E10002068416901F400514161206802F007FC3B
:100E2000000707D52046FFF01BFC2068416901F050
:100E300008014161206802F0FAFBC00208D50021D8
:100E4000204600F035F82068416901F480114161C5
:100E5000206802F0ECFB800208D500212046FFF05C
:100E60002FFB2068416901F400114161206802F004
:100E7000DEFB400007D52046FFF713FD20684169DF
:100E800001F080414161206802F0D1FB40070AD5A2
:100E900020684568680702D52046FFF0B1FA21684E
:100EA000486828434860BDE8FC9F00000A30544F62
:100EB000D0F8040401F144BFD0F8040402F0D2B821
:100EC000D0F8042400F57171104601F150BF10B53F
:100ED00090F8BC1304460068012906D0A26A0121DB
:100EE00084F8BC13012A02D008E0022010BDA169D9
:100EF000012903D0816B41F480318163206802F0C5
:100F000067FA206802F1B0FB002084F8BC0310BD32
:100F1000494930B5484C0B1D0A68143409681D68EE
:100F2000246802F00303C5F30012C1F30531C4F3D2
:100F3000CC04002914FB02F200EE102AF8EE400A5D
:100F400075D03F4A9FED3D1AB7EE000A6BB1DFED59
:100F50003D1A012B01D0022B64D002EE101A116849
:100F6000F8EE422A81EEA22A21E0334C283C236885
:100F70009B0612D5344B246801EE901A1168C4F315
:100F8000C104F8EE612AE34001EE903AC1F3080192
:100F9000F8EE611A81EEA22A0BE001EE901ADFED65
:100FA0002B2A00BFF8EE611A116882EEA12AC1F364
:100FB000080101EE901A1168F8EE611A40EE811AEC
:100FC00071EE800A62EE200AC1F3462101EE101A8A
:100FD000B8EE411A31EE001AC0EE811ABCEEE11AE9
:100FE00080ED001A1168C1F3064101EE101AB8EE47
:100FF000411A31EE001AC0EE811ABCEEE11A80ED02
:10100000011A1168C1F3066101EE101AB8EE411A17
:1010100031EE000A80EE801ABCEEC10A80ED020AB1
:1010200030BD04E001EE901ADFED092ABAE7002195
:10103000016041608160F3E72844025800000039F4
:10104000384402580024744A0090D0030024744CA1
:1010500020BCBE4B2DE9F0474FF480760146B042EC
:101060006F48DFF8B8818AB06E4B4FF080576E4DF5
:10107000A8F104044FEA20124FF0005C29D1D8F8FF
:10108000001001F0070105291FD2DFE801F0030A73
:101090000F20140006A8FFF057FB07980AB0BDE820
:1010A000F0876846FFF734FF0098F7E703A8FFF0E2
:1010B000EDFB0398F2E7216811F04051EED0B94200
:1010C00075D11046EAE71846E8E70020E6E728462B
:1010D000E4E7B1F5007F19D0544EB1F5806F26D00A
:1010E000B1F5006F37D04FF4805949454FF4804A2D
:1010F0004BD1D8F8001001F4E041B1F5005FD5D034
:101100003DDC0029C6D04945DFD1CAE7D8F8001038
:1011100001F4E0718029C9D004DC0029BAD040294B
:10112000D3D1BEE7C029D2D0B142CED1C3E7316816
:1011300001F46001B1F5800FB8D005DC0029A9D019
:10114000B1F5001FC1D1ACE7B1F5C00FBFD0B1F50B
:10115000000FBAD1AFE7316801F0E061B1F1007F73
:10116000A4D005DC002995D0B1F1807FADD198E7FE
:10117000B1F1407FABD0B1F1806FA6D19BE7B1F563
:10118000405FA4D05145A0D195E7B1F5002F4FF4B1
:1011900080350DD0A9421DD1206810F48030B1D027
:1011A000A84292D16846FFF7B3FE029876E70EE0B8
:1011B000316811F44031A8D0A94203D0B1F5003F05
:1011C00083D178E703A8FFF061FB059866E76145E6
:1011D0009AD178E7514597D1316801F0E041B1F1FA
:1011E000405FE3D009DC81B1B94211D061458BD1B8
:1011F00003A8FFF04BFB049850E7B1F1804F3FF498
:1012000060AFB1F1A04F8BD15DE7FFF08BFA45E7FE
:101210006846FFF77DFE019840E700005044025801
:101220000090D00340787D010080BB0058440258F4
:1012300030B500F159F90B4A0B490C4B156814688D
:10124000C5F3032204F00F048A5C095D02F01F025B
:1012500001F01F01D040064A20FA01F11960106028
:10126000084630BD18440258063710081000002404
:101270000C0000242DE9F05F04007CD0FF4F2078A3
:10128000FE4D1837DFF8F493103DC00748D0D9F869
:101290000000396800F03800102815D0182803D154
:1012A00001F0030002280FD06068B0F5803F12D033
:1012B00010B1B0F5A02F18D0286820F48030286035
:1012C000286820F4802009E02868800328D5606819
:1012D0000028D2D024E0286840F48030286060687C
:1012E00088B1FEF0DFFF064609E0286840F4802060
:1012F0002860F0E7FEF0D6FF801B64287ED82868BF
:101300008003F7D50CE0FEF0CDFF064605E000BFF8
:10131000FEF0C8FF801B6428F0D828688003F7D44B
:10132000207841F20308D54E0C3E800753D5D9F8FA
:101330000000396810F038000ED0182801D1880755
:101340000AD0E068A8B3296821F019010143296097
:10135000FEF0A8FF82461BE02868400702D5E0683F
:1013600000288AD0FFF7FEF940451BD820694028A5
:1013700012D0316800E0CCE021F47C3141EA003049
:10138000306028E0FEF08EFFA0EB0A000228B5D8FE
:1013900028684007F6D5E5E7306820F47C3040F453
:1013A0000030EDE7207C316821F0FE4141EA006029
:1013B000E6E7FFE7286820F001002860FEF072FFF2
:1013C000824605E0FEF06EFFA0EB0A00022895D8E9
:1013D00028684007F6D42078C0065FD5D9F8000009
:1013E000DFF898B2396800F03800ABF1040B082838
:1013F00012D0182805D101F0030000E0EAE001282E
:101400000AD0E0690028286838D040F080002860C1
:10141000FEF048FF824623E02868C00523D5E06936
:10142000802876D11FE0206A202821D0316821F061
:10143000F84141EA8060306030E000BF94F820104D
:10144000DBF8002022F07C5242EA0161CBF8001068
:1014500024E000BFFEF026FFA0EB0A00022896D889
:101460002868C005F6D5FFF77DF94045E6D8DAE7EC
:10147000306820F0F84040F08040DCE720F0800049
:101480002860FEF00FFF064605E000BFFEF00AFFF1
:10149000801B02289BD82868C005F7D42078000755
:1014A00029D576486169643000298046016811D0E9
:1014B00041F001010160FEF0F5FE064605E000BFC7
:1014C000FEF0F0FE801B0228C9D8D8F80000800783
:1014D000F6D510E021F001010160FEF0E3FE0646C2
:1014E00005E000BFFEF0DEFE801B022872D8D8F8AF
:1014F00000008007F6D42078800623D5A069002854
:10150000286810D040F480502860FEF0CBFE0646DC
:1015100005E02CE1FEF0C6FE801B02285AD82868A0
:101520008004F7D50EE020F480502860FEF0BAFE6B
:10153000064604E0FEF0B6FE801B02284AD8286862
:101540008004F7D4207840074FD5DFF83481D8F8ED
:10155000001041F48071C8F80010FEF0A3FE0646AA
:1015600005E000BFFEF09EFE801B642832D8D8F84C
:101570000000C005F6D5414EA068603601280AD0AB
:1015800008B1052813D0306820F0010030603068C1
:1015900020F0040002E0306840F001003060A068F4
:1015A00041F2883A90B1FEF07DFE80460AE0306854
:1015B00040F004003060EEE7FEF074FEA0EB08019E
:1015C000514507D830688007F6D50EE0FEF06AFE78
:1015D000804607E084E000BFFEF064FEA0EB080157
:1015E00051457DD830688007F6D4606AF0B3DFF8E3
:1015F0008C80D9F8001008F12008C1F3C20103293A
:101600006FD00228286820F08070286003D0FEF098
:1016100049FE044680E0FEF045FE064605E000BFB8
:10162000FEF040FE801B022873D828688001F7D4A2
:10163000E26A40F2F331386854F8283F884340EAC0
:10164000021018433860217B4FF4FE0C22894FF0C2
:10165000FE47208A4902267D521E401EA1F50071D8
:1016600089B20CEA0040C2F3080200E081E01143B5
:10167000761E0143014807EA066203E0104402585F
:10168000004802581C3011433B4AC8F8001001685A
:1016900021F00101016011684FF6F876236AB14329
:1016A00041EAC30111600168A26921F00C011143F4
:1016B00001600168E26921F00201114301600168E3
:1016C00041F480310160016841F40031016001683A
:1016D00041F480210160016841F00101016001E0F5
:1016E00017E01DE0286840F080702860FEF0DAFD09
:1016F000044604E0FEF0D6FD001B022809D8286845
:101700008001F7D535E000BFFEF0CCFD001B0228BC
:1017100002D90320BDE8F09F28688001F4D428E0B6
:1017200039680128D8F8000021D0A26A01F003032B
:1017300093421CD1E26AC1F305118A4217D1216B91
:10174000C0F30802491E8A4211D1616BC0F34622E0
:10175000491E91420BD1A16BC0F30642491E914232
:1017600005D1E16BC0F30660491E814201D0012022
:10177000D0E70020CEE7000034440258704770479D
:101780002DE9FE430446C06B0E46032184F8341055
:10179000002703285ED0B6F5004F5BD0B6F5804F2A
:1017A0004FF000004FF400654FF0806804D01EB386
:1017B000A06B40F0006043E0009000210190814662
:1017C000206801F067F8800113D46946204601F0D3
:1017D00073F805000DD1019840032FD5B4F84810D7
:1017E0002068090400F0C2FE050002D12068022131
:1017F0001EE0A06B284323E0009000210190814669
:10180000206801F047F88001F3D46946204601F0D2
:1018100053F80500EDD10198C0030FD5B4F8481076
:101820002068090400F0A2FE0500E2D12068002132
:1018300000F1DCFE0500DCD14D46DAE74546D8E78D
:10184000A063A06B4FF40078184D38B120680127D1
:10185000856318E0A06B40F08050F1E7D4E904C044
:10186000D4E901123346042806D2E66D464503D07A
:10187000B6F5807F18D00420CDF800C0CDE9010A6C
:10188000206801F14DF82068414600F196FE28B12C
:10189000216801278D63A16B0143A163012084F8B6
:1018A00034003846BDE8FE830220E5E7FF0FE01F65
:1018B000704700002DE9F04190B00C460026054627
:1018C000694601F151F82A4F4FF0010840B12A68EA
:1018D00001269763AA6B0243AA6385F8348036E039
:1018E00000994FF47F40C1F3811121700099C1F339
:1018F00040116170009A114600EA122242EA116119
:101900006180019909BA6160029921720299090AFC
:1019100061720299C1F30351A172DDE9022100EA6B
:101920001240C9B20843A0810398C0F38520A07378
:101930000398C0F30120E0730398C0F303102074F0
:10194000039800F00F0060740498000EA0742868DB
:101950004FF4007100F131FE28B12A680126976327
:10196000A86385F8348010B03046BDE8F0810000EF
:10197000FF0FE01FF0B5040085B024D094F83400C8
:10198000002538B9A069257708B90220A061204652
:1019900000F1ECF8032084F83400204600F192F8BE
:1019A00088B969462046FFF785FF60B99DF8101099
:1019B000E26B9DF81100012A08D0E5652046E16838
:1019C000FFF7DEFE58B1012005B0F0BD014302D0A3
:1019D0004FF4007001E04FF48070E065EEE7FEF038
:1019E00061FC0127064604E0FEF05CFC801B401C05
:1019F0000AD02046FFF030FF0428F5D1A563256307
:101A000084F834700020DFE74FF00040A06384F8D2
:101A100034700320D8E700002DE9F04F87B09946D5
:101A200017460D460446FEF03DFC06903DB194F885
:101A30003400012807D0A06B40F000500DE0A06BEF
:101A400040F0006009E0626D002007EB0901A0632F
:101A5000914204D9A06B40F00070A063A8E003217C
:101A600084F834102168C862E16B012900D07F023C
:101A70004FF0020ACDE903A090264FF0FF324FEA63
:101A8000492305908DE84C0080462068694600F1A6
:101A900057FE2068B9F1010F4FF00106C16841F00F
:101AA0004001C16006D9C4F830A03946206800F072
:101AB000DBFD04E026633946206800F1B1FDDFF864
:101AC00014A150B12368C3F838A0A16B0143A163EE
:101AD00084F83460C4F830806AE0DDF804B01FE0B8
:101AE000406B000414D5BBF1200F11D300272068F0
:101AF00000F0D9FE020A2870010C6A70030EA9706A
:101B00007F1CEB70082F05F10405F0D3ABF1200B1F
:101B1000FEF0C8FB0699411A1098814221D200B309
:101B20002068416B11F4957FDAD0C16821F0400143
:101B3000C1602068416BC90522D5B9F1010F1FD9D9
:101B4000E16B03291CD000F1B7FDC8B12368C3F8CD
:101B500038A0A26B0243A26384F83460C4F83080DA
:101B600026E02268C2F838A0A06B40F00040A063D5
:101B700084F83460C4F83080032007B0BDE8F08FEB
:101B80002068416B090706D5C0F838A0A16B404614
:101B900041F0080108E0416B89070BD5C0F838A077
:101BA000A16B404641F00201A16384F834602063D8
:101BB0000120E2E7416B890606D5C0F838A0A16B89
:101BC000404641F02001EFE70349816384F8346027
:101BD0000020D2E7FF0FE01F3A0F00187047401EA9
:101BE000B0F1807F10B501D3012010BD4FF0E0248B
:101BF00060610F21601701F0BBFD0020A06107218B
:101C0000216110BDFEE70000F0B500230A251C4647
:101C10003026372711E000BFB5EB107F02D906EB65
:101C2000107C01E007EB107C01F813C001EB430CC2
:101C300000015B1C8CF80140DBB29342ECD3F0BD99
:101C400010B5D0F8BC220446107A88B1012814D10E
:101C500041F21D00831C815C1A44204600F0A4F967
:101C600000280ADA2046BDE81040012100F026B81D
:101C70002046BDE8104000F147B910BDD0F8BC02C5
:101C800000210172704770B5054600210120D5F88A
:101C9000BC42217281216072284601F03EF9012187
:101CA000284601F03AF941F2100022182846BDE812
:101CB00070401F23012101F151B8000070B5D0F828
:101CC000BC4205460C4B002004F5805213630D23E3
:101CD00082F83C108121207241F2300022182846FF
:101CE00001F17CF841F2100022182846BDE870404E
:101CF0001F23012101F132B85553425310B586B06C
:101D000014216846FEF0D5F91D48016841F0100124
:101D10000160016801F010010591016841F0800146
:101D20000160016801F080010591016841F0040142
:101D30000160016801F004010591016841F00101B1
:101D40000160016801F001010591016841F008019D
:101D50000160006800220B4C082100F0080005908B
:101D60002046FEF7F9FC00210820009001222046C1
:101D7000CDE9012103916946FEF7D6FB06B010BDFF
:101D8000E044025800100258704700000148FEF776
:101D900055BE0000240700242DE9F04104460069E7
:101DA0000D462027236801284FF4004604F5717280
:101DB00003EB4511D3F840C0D1F8080B09D0DFF888
:101DC0009CE0F4453AD1020433D500BFC1F8086B5A
:101DD00040E0234B5FEA007E04D59C453AD90004DD
:101DE000F4D437E05FEA806E02D5C1F8087B31E0B9
:101DF00010F0280F2ED19C4501D90004E6D4D1F86B
:101E0000103BC5EBC50004EB8000C3F31203D0F810
:101E10000412A1EB0303C0F81432D0F808321944BD
:101E2000C0F8081295B9D4F8100278B920680121D9
:101E30000AE080060AD5C1F8087B07E035B9D4F876
:101E4000100218B90021184601F062FB2046E9B2E1
:101E5000FEF0CCFA0020BDE8F08100000A31544FBA
:101E60000A30544F2DE9F047454D044689464FF05E
:101E7000000A2868C04380070AD0414E283E3068D7
:101E800020F080603060FEF00DFA0746B04608E0B2
:101E90000120BDE8F08700BFFEF004FAC01B022855
:101EA00067D8D8F800000001F6D4206829684FF4FC
:101EB000FE0721F47C313E0241EA00302860207A9E
:101EC000A389B4F804C040022D4D2D495B1E227C2D
:101ED000ACF1010C1035091DA0F5007080B2521E46
:101EE000CCF3080C07EA034340EA0C00184306EA67
:101EF0000262104328600868626920F0C000104345
:101F000008600A68A06922F0200202430A60281DC6
:101F10000A6822F010020A6002684FF6F873E4695A
:101F20009A4342EAC40202600868B9F1000F40F027
:101F300010020A6011D00868B9F1010F11D040F405
:101F400000100860D8F80000444640F08060C8F8EF
:101F50000000FEF0A7F905460DE0086840F40020F7
:101F6000EFE740F48010ECE7FEF09CF9401B0228FC
:101F700001D903208DE720680001F5D5504688E798
:101F80002844025800B51344D0F8BC2202F5805210
:101F9000926E934206D92123052200F1BCFA4FF03C
:101FA000FF3000BD002000BD2DE9F047137800256B
:101FB000D0F8BC424FF0FF36252B4FF002086ED010
:101FC0000FDC1A2B7ED005DC23B3032B43D0122B5E
:101FD00017D144E01B2B46D01E2B65D0232B10D1EC
:101FE00089E05A2B7CD006DC282B74D02A2B73D0A6
:101FF0002F2B06D19BE09E2B6FD0A82B6ED0AA2B47
:102000006DD02023052200F186FA304684F809803D
:10201000BDE8F0870746884604F58050816921B104
:102020002023417F0522384633E090F862004FF0CC
:102030000509022805D0D7F8C002816840468847C4
:1020400030B33A2341460222384600F164FA304662
:1020500084F80890DCE7BDE8F04700F089B9BDE8F6
:10206000F04700F141B904F5805393F86270012FF5
:1020700004D1177907F00307022F5BD0107900F025
:10208000030101290DD0022906D0C043800708D0E2
:1020900012E000F140FA58E083F862800CE02EE094
:1020A00010E083F8625007E01079002804F58050B2
:1020B00005D0012180F862102846E560A8E780F885
:1020C0006250F9E7117917222046172900D80A46ED
:1020D0001F490CE004E01AE021E014E01BE022E0DC
:1020E000117A1B2220461B2900D80A46194900F103
:1020F0003BFA28468CE7BDE8F04700F001B9BDE89F
:10210000F04700F07DB8BDE8F04700F0ADB8BDE89D
:10211000F04700F1B0B9BDE8F04700F01DB8BDE8E8
:10212000F04700F061B9BDE8F04700F0B9B9527866
:10213000920702D524230522ABE704F58052D2E9A9
:102140001B23FFF71FFF0028B6DA304660E70000C8
:10215000380100244F0100242DE9F047D0F8BC528B
:10216000074616468946287A98BB05F580544FF0F5
:10217000FF38207F000634D594F86200022809D089
:10218000D7F8C00281684846884748B13A23494693
:10219000022201E03A230222384600F1BCF915E0A0
:1021A000D6F80210707909BA21F0FF020243E26604
:1021B000D6F80600717A00BA20F0FF0338460B43C8
:1021C00049462367FFF7DEFE002803DA4046BDE8F4
:1021D000F0870CE0B4F86410206FA2694843904285
:1021E00003D02023617F0522D6E7022028724FF416
:1021F00080504946E8603846BDE8F04700F1ACB889
:102200002DE9F04105460E4641F26401D5E9AF40A3
:1022100062184368081D211830469847D8B904F55C
:10222000805292F86200022815D0906E0021082397
:10223000401E050E2574060C6674070AA774E07428
:1022400021756175B2F86400010AA175E07500207E
:10225000E360BDE8F0813A2331460222284600F1CE
:102260005AF94FF0FF30F4E72DE9F04106460F46EA
:1022700041F264011546D6E9AF4062184368081D73
:1022800021183846984780B904F5805191F86200CA
:1022900002280AD0D5F80A3000226E7B10461BBAFD
:1022A00023F0FF033343E3600EE03A233946022272
:1022B000304600F130F94FF0FF30BDE8F081431CAB
:1022C00020440274D8B2E3688342F8D8886E401E76
:1022D000030E2375060C6675070AA775E07522764E
:1022E0006276B1F86400010AA176E076D5F80A00BA
:1022F000697B00BA20F0FF000843E0600020DCE7C3
:102300007CB505460E4601A96A46D5E9AF4043684B
:102310003046984718BB41F26200005D02281ED08B
:10232000002001462318421C90B20C281974F9D3DE
:102330000820E074019802222276401E6176020E87
:102340002275030C6375010AA175E0750C22BDF8B6
:102350000000E260010AA176E07600207CBD3A230D
:1023600031460222284600F1D6F84FF0FF307CBDFE
:1023700070B5D0F8BC1201F580539C6914B30020ED
:1023800005460E18441CE0B212283574F9D37024A7
:102390000C740C20C87593F8600093F86140A0425B
:1023A0001AD001EBC00404F58254401CC0B2267858
:1023B00004288E7426790E7764794C7783F8600050
:1023C00008D009E0597F2023052200F1A4F84FF03E
:1023D000FF3070BD83F860501220C8601079122859
:1023E00000D8C860002070BD2DE9F047D0F8BC527D
:1023F000064617468946287A20B13046BDE8F047A0
:10240000FFF0EEBF05F580544FF0FF38A069A0B390
:10241000207F000631D4D6F8C0028168484688473C
:1024200028B13A230AE0304600F175F81BE0D6F8EF
:10243000C002C1684846884718B12723494602228E
:10244000F1E7D7F80200797900BA20F0FF020A43D9
:10245000E266B7F80700494643BA30462367FFF7FC
:1024600091FD002802DA4046BDE8F087B4F8641018
:10247000236FA0694B43984203D02023617F05223C
:10248000D1E74FF48050834200D3034601202872E5
:1024900005F110020146304600F160FC0020E3E740
:1024A0002DE9F047D0F8BC52074616468A46287AEE
:1024B00020B13846BDE8F047FFF092BF05F58054E3
:1024C0004FF0FF39A06910B1207F000606D5617F6B
:1024D00020230522384600F11EF82EE0D7F8C0026E
:1024E0008168504688474FF0050808B13A2306E056
:1024F000D7F8C002C1685046884740B127235146EB
:102500000222384600F107F885F8088015E0D6F871
:102510000210707909BA21F0FF020243E266D6F890
:102520000600717A00BA20F0FF0338460B4351468B
:102530002367FFF727FD002802DA4846BDE8F08749
:10254000B4F86410236FA0694B439842BFD14FF495
:102550008050834200D303460120287205F1100207
:102560000146384600F1FAFB0020E7E730B585B0B8
:10257000044637204FF480720DF1080CCDE90010AD
:1025800000236946150120468CE82C0000F1D8F99B
:10259000372141F28832204600F1E6F805B030BD1F
:1025A00030B585B00546002469464FF4805000944C
:1025B00001940294CDE90340284600F1C1F90B4A89
:1025C0004FF4FA5041F288311268B2FBF0F0484300
:1025D000401E03D24FF0004005B030BD696B0906C4
:1025E000F6D503492046A963F6E700000C00002455
:1025F000C500200030B50821044685B04FF4D570E1
:1026000000254A014B0204938DE8270069462046C5
:1026100000F196F9134A4FF4FA5041F288311268EA
:10262000B2FBF0F04843401E03D24FF0004005B02B
:1026300030BD616B11F0450FF5D08904F3D4606BA8
:10264000400701D5042003E0606BC00702D00120E1
:10265000A063ECE7606B400601D54020A0632846EC
:10266000E5E700000C00002430B585B004461220D8
:102670004FF480720DF1080CCDE90010002369467B
:10268000150120468CE82C0000F15AF9122141F284
:102690008832204600F168F805B030BD30B585B00D
:1026A00004464FF480710DF1040C072000920023C2
:1026B0000D018CE82B006946204600F141F9072105
:1026C00041F28832204600F14FF805B030BD10B518
:1026D00086B00446002102204FF44072C3020493E6
:1026E000CDE90010CDE902216946204600F128F924
:1026F000204600F081F806B010BD30B585B0044624
:1027000009200DF1080C0023CDE900104FF44072B0
:1027100069464FF4805520468CE82C0000F110F9F2
:10272000204600F069F805B030BD30B585B00446EC
:102730000D204FF480720DF1080CCDE9001000233C
:102740006946150120468CE82C0000F1F9F80D21AE
:1027500041F28832204600F107F805B030BD30B5AF
:1027600085B00C460021054603204FF48072CDE968
:102770000221CDE90010130169462846049300F1B7
:10278000DFF803212246284600F180F805B030BD6D
:1027900010B586B0044600210B204FF48072CDE9BD
:1027A0000221CDE90010130169462046049300F18F
:1027B000C7F80B2141F288322046FFF0D5FF06B062
:1027C00010BD30B585B0044618204FF480720DF16D
:1027D000080CCDE9001000236946150120468CE85D
:1027E0002C0000F1ADF8182141F288322046FFF0AC
:1027F000BBFF05B030BD0000124B4FF4FA5141F25F
:1028000088321B68B3FBF1F15143491E02D24FF0ED
:1028100000407047426B12F0450FF6D09204F4D49A
:10282000416B490703D50421816308467047416B1A
:10283000C90703D0012181630846704702498163BB
:10284000002070470C000024C50020000F4B4FF4FF
:10285000FA5141F288321B68B3FBF1F15143491E32
:1028600002D24FF000407047426B12F0450FF6D095
:102870009204F4D4416B490703D5042181630846CF
:102880007047034981630020704700000C0000245A
:10289000C5002000084440697047016841F0030109
:1028A000016000207047D0F8800070470968C0F8C8
:1028B00080100020704700002DE9F04F87B00D46D2
:1028C0000446FDF0EFFC0026069020680821B34680
:1028D0003746FFF072FE002833D1B4F84810206864
:1028E0000904FFF743FE00282BD1431E4FF00809CF
:1028F0004FF0020A4FF0300C4FF00108CDF80CA059
:102900008DE80812CDE9046820686946FFF018FFD9
:102910002068FFF09FFE002813D140F22A5820685B
:10292000416B11EA080F06D1416B090315D4BBF1C5
:10293000000F09D011E0416B090717D5C0F8389096
:10294000082007B0BDE8F08FFFF7ADFF064620680E
:10295000FFF7A9FF07464FF0010BFDF0A3FC069916
:10296000401A401CDBD14FF00040EAE7416B890779
:1029700003D5C0F838A00220E3E7416B890603D5F0
:10298000202181630846DCE7034A39BA33BA8263FF
:102990000020C5E90013D4E73A0F001810B58CB039
:1029A00004460120ADF82C002068FFF0B5FF002898
:1029B00053D0E06B032841D02068FFF788FE002841
:1029C00049D120680021FFF765FF206704212068B6
:1029D000FFF760FF606708212068FFF75BFFA067D3
:1029E0000C212068FFF756FFE16BE067032925D033
:1029F00020680BA9FFF7B3FE00282CD1E06B032859
:102A00001CD0BDF82C10A16420680904FFF775FEE6
:102A1000002820D120680021FFF73CFF2066042118
:102A20002068FFF737FF606608212068FFF732FF54
:102A3000A0660C212068FFF72DFFE06604212068C6
:102A4000FFF728FF000D694660642046FEF014FE83
:102A500030B14FF080500CB010BD4FF08060FAE7FD
:102A6000B4F84800002302042068FFF717FEF2E7DD
:102A70002DE9F84F00260446354637460096FDF00E
:102A800011FC80462068FFF78BFD002867D1206885
:102A9000FFF7B0FD4FF001094FF6FF7A48B1266409
:102AA0002068FFF77DFD002859D1206C012802D055
:102AB0001CE0C4F8409000212068FFF757FDE0BB00
:102AC00014E020680021FFF751FD002847D120685D
:102AD0005946FFF05BFD80BB20680021FFF7DAFE5E
:102AE000C70F05460098401C009003E0DFF8C0B017
:102AF00056460098B04201D2002FE2D0B0424FF0CB
:102B0000807749D2680051D5A169C4F83C90022968
:102B10004CD1E8014AD50802E0652068016841F01F
:102B2000080101602068FFF733FE002817D1FD017E
:102B30002068406B400108D400E00EE0FDF0B2FBDD
:102B4000A0EB0800401CF3D128E021684FF0806022
:102B500088632068406BC00203D44FF08050BDE80A
:102B6000F88F0120FEF05EFD2068016841F004014D
:102B7000016005E0FDF096FBA0EB0800401C0DD0C5
:102B80002068406B8001F5D521684FF000708863A4
:102B90002068416BC90203D53846E0E72846DEE7E6
:102BA00013224FF0FF310260206881630020D6E7D6
:102BB000000010C130B589B0084814460D4669467A
:102BC000FEF038FE18B14FF0FF3009B030BD069866
:102BD000401E2860079820800020F6E7D4010024DA
:102BE0000020704738B5642403FB04F000900748C8
:102BF000FFF00AF810B14FF0FF3038BD0348FEF087
:102C00002BFE0428FAD1002038BD0000D401002496
:102C1000704700002DE9F043CBB04C212FA8FDF008
:102C200048FA202142A8FDF044FABC216846FDF094
:102C300040FA0220FDF044FD354936480A6822F08A
:102C400001020A6009680168002421F4404141F44E
:102C500000410160016801F440414A910168890422
:102C6000FCD52D4802250168012705264FF00808EC
:102C700021F00301891C01604FF4803938956020F0
:102C8000CDE93956CDE93B05CDE93F840A21419490
:102C9000CDE93D15CDE92F792FA8FEF7EBFA4FF4DA
:102CA000FA7618B13046FFF09DF8FBE742A83F21C5
:102CB000032280E8160101214694479448944994E0
:102CC000FEF0E4FA18B13046FFF08CF8FBE70C2276
:102CD0004FF0200C4FF4A0210091C0236846CDE9AD
:102CE000015203954FF48011CDF84C900495219139
:102CF000CDE90573CDE907C4FDF06AFE18B1304691
:102D0000FFF070F8FBE7FDF005FD4BB0BDE8F08388
:102D10002C0400581848025828440258214A30B55B
:102D2000214914680020204B44F4700414601033CF
:102D30000A681E4D42F001020A6018600A681A4BC8
:102D40002A400A6018331C1D251D174A18602832B6
:102D50002060131D28601C1D251D10602A1D186091
:102D6000131D20601C1D2860251D10601860206048
:102D700028600A680C4B0E4C22F4802260330A60F3
:102D8000186020686FF30F00B0F1005F03D20949AB
:102D90000120C1F808014FF0006002498039086045
:102DA00030BD000088ED00E0004402587FEDF6EAF7
:102DB0000010005C0080005110B5D0F8B8220AB1B4
:102DC00052689047002010BD13460A46002110B5F6
:102DD00000F104F8002010BD10B580210446FFF07A
:102DE000F4FF2046BDE810400021FFF0EEBF0421B3
:102DF000002310B51A46C0F894121946FFF0EEFFF2
:102E0000002010BD04A00A46024910B500F054F895
:102E1000004810BD240500244D534320436F6E66C7
:102E20006967000004A00A46024910B500F044F8A2
:102E3000004810BD240500244D534320496E74659D
:102E400072666163650000000420088000487047D6
:102E50003000002404A00A46024910B500F02CF806
:102E6000004810BD2405002453544D6963726F65FA
:102E70006C656374726F6E696373000010B51A201D
:102E800008800B480A490830021F09680068146866
:102E9000081809D007490822FEF7B6FE05490422A2
:102EA00020461031FEF7B0FE0248801E10BD000023
:102EB00000E8F11F4A00002470B500284FF000051B
:102EC0001ED004462E4602E0761C641CF6B223781F
:102ED000002BF9D1022404EB4604148012786B1CF9
:102EE00003264A550024AA1CCE5406E0551C8B54D8
:102EF000EAB2531C401C8C54DAB20378002BF5D193
:102F000070BD01004FF0000004D0012901D002295A
:102F100001D0032070470120704710B5D0F8C402DB
:102F2000FDF7E9FCBDE81040FFF7EBBF70B51646B2
:102F3000044649B1D4F8B80242691AB194F89C0227
:102F4000032842D0032070BDD4F89412002504F168
:102F50001400022932D1D0E90232934206D99A1ADA
:102F6000314682602046FFF72FFF0FE09A4214D1CE
:102F70004068904211D3D4F8981288420DD20022B2
:102F800020461146FFF720FFC4F8985200231A4646
:102F900019462046FFF0E2FE10E0D4F8B802C168FE
:102FA00029B194F89C02032801D12046884780214A
:102FB0002046FFF00AFF2046FFF07FFD94F8A002B4
:102FC000012806D184F8A05203E02046904700284B
:102FD000B9D1002070BD0020704710B5D0F8B812EC
:102FE000012280F89C2219B103794A68D9B290472E
:102FF000002010BD10B5D0F8C402FDF7AAFCBDE852
:103000001040FFF77EBFD0F8C402FDF7BBBC002024
:10301000704770B5044601250020D4F8BC1284F82E
:103020009C52C4F894026060C4F8A40229B1D4F898
:10303000B8020021426820469047002220464023E3
:103040001146FFF07FFE4026A4F86451002233466B
:1030500080212046C4F86061FFF074FEA584002042
:10306000266270BD90F89C12042903D190F89D123D
:1030700080F89C120020704710B590F89C1203292C
:1030800004D1D0F8B812C96901B18847002010BD39
:1030900001740020704710B5D0F8C402FDF0E4FAC6
:1030A000BDE81040FFF72DBF10B5D0F8C402FDF702
:1030B0000EFFBDE81040FFF724BF90F89C220421CA
:1030C00080F89D2280F89C120020704710B5FEF019
:1030D0009BFF002010BD00002021018000487047A8
:1030E000E0000024202101800048704700010024F6
:1030F00070B5054608788C1C2870487868702046A2
:10310000FFF0CCFCA41C68802046FFF0C7FCA88020
:10311000A01CFFF0C3FCE88070BD2DE9F04104461F
:10312000087800270D46097910F060000BD02028A0
:1031300001D0402873D1D4F8B802294682682046CD
:10314000904707468CE06878D8B3012822D003283E
:1031500065D194F89C02022802D003287CD10BE0B0
:10316000002979D0802977D02046FFF02EFE8021DB
:103170002046FFF02AFE73E0688838B931B1802913
:1031800004D0E88810B92046FFF01FFE2046FFF764
:103190002EFE65E094F89C020228E1D003285BD162
:1031A0006888D8BB480602D02046FFF7B6FE204606
:1031B000FFF71DFED4F8B8022946826820469047E2
:1031C0004EE0FFE794F89C020026022802D0032874
:1031D00042D111E009B180293ED1080601F07F00FB
:1031E00000EB800004EB800101D5143101E001F512
:1031F000AA7102220E602BE0080601F00F0000EB1E
:10320000800004EB80000BD5808C40B101F07F0082
:1032100000EB800004EB800514350CE020E01BE09F
:10322000B0F86401C0B101F07F0000EB800004EB56
:10323000800505F5AA7541B1802906D02046FFF02A
:103240006FFD10B10120286000E02E6002222946A7
:103250002046FFF03DFC03E029462046FFF7BCFD79
:103260003846BDE8F08170B5064608780D464FF047
:10327000000410F0600003D0202801D0402817D1AE
:1032800096F89C02012803D0022801D003280FD110
:10329000287901280CD8D6F8B802826830469047C1
:1032A0000446E888204306D13046FFF7A0FD02E03F
:1032B0003046FFF791FD204670BD000070B54D7897
:1032C00001230A78012D1C4C02F00F0503FA05F3C7
:1032D000D0F81C5817D000EB421245EA0343C0F85F
:1032E0001C38D2F8000B00040BD40B89C978D2F833
:1032F000000BC3F30A03184344EA81410843C2F8B0
:10330000000B002070BD9EB23543C0F81C5800EB86
:103310004213D3F800090004F3D40D89C978D3F817
:103320000009C5F30A058904284341EA825108438C
:103330002043C3F80009E4E700800010D0F800192A
:103340006FF30A01C0F80019D0F8041841F4807135
:10335000C0F804180020704770B5044606990A9E0C
:10336000049D01290D9816D0E06840F04000E0600F
:103370002046FFF00FFFA16B26B321F48031A1633B
:10338000012D07D1A16841F00601A160A16841F0BB
:103390002001A16070BDA26B01280C4922F480308D
:1033A000A063E06800EA0100E060E06820F44010FB
:1033B000E06003D1E06840F48010E0602046FFF058
:1033C000E9FEDDE741F48031D9E70000BFFFBDFF32
:1033D00010B5D0F8041821F00201C0F80418032039
:1033E000FDF790F8002010BD816821F00101816097
:1033F0000020704770B50B784E78444C0D78012E44
:1034000000EB431320D0D3F8100B6FF31200C3F876
:10341000100BD3F8100B2040C3F8100B486908B10B
:1034200088684861D3F8100B012A40F40020C3F8E3
:10343000100BD3F8100B8A68C2F3120240EA0200A4
:10344000C3F8100B56D059E04E69002ED3F810691E
:1034500033D06FF31206C3F81069D3F81069264011
:10346000C3F810694E698C68A64200D94C61D3F844
:10347000104944F40024C3F81049D3F810494E69A8
:10348000C6F3120654EA0604C3F81049012A22D0F2
:1034900000EB4512D2F8003943F00443C2F800397A
:1034A0004A6932B30B78D0F83418012203F00F03C5
:1034B0009A401143C0F8341826E02640C3F810693A
:1034C000D3F8104944F40024C3F81049D3F8104944
:1034D0006FF31204D8E7096919B100EB4512C2F87D
:1034E000141900EB4510D0F8001941F00441C0F860
:1034F000001909E0C86808B1C3F8140BD3F8000B31
:1035000040F00440C3F8000B002070BDFFFF07E04F
:1035100010B5144C036CA34203D9D0F8003B002B28
:103520001EDB0023C0F8103B0129D0F8101B41F42A
:103530000021C0F8101BD0F8101B41F01801C0F892
:10354000101BD0F8101B41F0C041C0F8101B07D170
:10355000C0F8142BD0F8001B41F08021C0F8001BEC
:10356000002010BD0A30544F0A784B78D1B2012B9D
:1035700000EB421012D0D0F8002B002A06DB29B154
:10358000D0F8001B21F08041C0F8001BD0F8001BD0
:1035900041F40011C0F8001B00207047D0F800294A
:1035A000002A06DB29B1D0F8001921F08041C0F8CB
:1035B0000019D0F8001941F40011C0F80019EBE728
:1035C000064A102101610021491C914201D90320C2
:1035D00070470369DB06F7D400207047400D0300F5
:1035E0002023074A43EA811303610021491C9142C9
:1035F00001D90320704703699B06F7D40020704768
:10360000400D0300D0F8080810F0060004D002288E
:1036100003D0062801D00F2070470220704700EB2E
:103620004111D1F8081BD0F81408084070474169CF
:1036300080690840704710B5C268012922F0C04275
:10364000C26002D029B1012010BDC16841F0005113
:1036500002E0C16841F08041C1603220FCF752FFB6
:10366000002010BD022A3ED1264A274B0A449A4226
:1036700001D20F2138E0254A254B0A449A4201D253
:103680000E2131E0234A244B0A449A4201D20D21F3
:103690002AE0224A224B0A449A4201D20C2123E01A
:1036A000204B214A0B44934201D20B211CE01F4BBB
:1036B0001F4A0B44934201D20A2115E01D4B1E4ABA
:1036C0000B4493420FD31D4B1D4A0B44934201D22E
:1036D000082109E01B4B1C4A1944914201D20721E1
:1036E00002E0062100E00921C2684FF4705322F481
:1036F0007052C26003EA8123C1681943C16000208F
:1037000070470000405327FF00350C00401E1BFF90
:1037100040420F0000DC0BFF804F1200808CF9FE4E
:1037200020D6130060B6E5FE60E3160000D3CEFE9F
:1037300040771B00C05BB3FEC091210000CA91FE20
:1037400020753800E05459FEE09C410010B5029C01
:1037500064B900EB0230DB1C00229B0800F58050AE
:1037600002E010C90460521C9A42FAD3002010BD36
:10377000090700284FEA116104DB00F1E02080F81E
:103780000014704700F00F0000F1E02080F8141DD5
:1037900070470000FEF03EFBFCF03EFDFCF7F0FF42
:1037A000FFF738FAFEF7AAFAFEF072FC0B490C4854
:1037B000FDF039FF09490A481831FDF05DFF07495E
:1037C00007484431FEF036F83220FCF79BFEFEF04D
:1037D0007DFC0520FEF006FBFBE700006C010024E9
:1037E000D401002404380008000000246C0100000B
:1037F000D4020008C43800086C010024244A0000E8
:1038000030030008320182102C90D0030417ED2AF7
:103810001008492E1B0855041AF90C1A7D081A05C0
:10382000041A250417040309041201320216408306
:10383000042A571D0201020345031A1A0313E12B40
:103840001B08B5041A514C1A6D041A71041AE510BC
:103850001A4D084516371008180A452E1008F92D7C
:103860001008B5088113CD301B08EF14C11A392098
:103870001AD9181AE5041A2D0C140902202008017F
:103880000104C0320904180A020806500507058120
:1038900002A02C070501070914202240292019073E
:1038A0000B1C0907204B0A06EC19E31920111A809A
:1038B000021B082001322203120812622609121B81
:0438C00011000000F3
:020000040810E2
:1000000000F0ACF8114600F7A1F903F7C3FB00F0CC
:10001000CAF800000948804709480047FEE7FEE7A4
:10002000FEE7FEE7FEE7FEE7FEE7FEE7FEE7FEE7A8
:1000300004480549054A064B704700001D2D00087D
:1000400099020008900B0024904B0024902B002470
:10005000902B002470B5064600F056F8056806F1AE
:100060000B0020F00704B4429CBF002070BD2B465B
:100070006A68BAB11068A04210D304F1080188423E
:100080003CBF5068586007D351681019416011682F
:10009000091B016058601460101D70BD1346526842
:1000A000002AE7D12146284600F7BDF90028DED115
:1000B00070BD4FF0000200B51346944696462039B5
:1000C00022BFA0E80C50A0E80C50B1F12001BFF411
:1000D000F7AF090728BFA0E80C5048BF0CC05DF877
:1000E00004EB890028BF40F8042B08BF704748BFC5
:1000F00020F8022B11F0804F18BF00F8012B704739
:10010000704770477047000000487047340B002468
:10011000004870472C0B0024034640688C4600289A
:1001200018BF88423CBF03464068F8D3186818449B
:10013000884207D00CF1030020F00700001D411A8F
:10014000521A0146081D0A6000F710B910B500F0F8
:1001500033F8BDE8104000F7B0B970477546FFF7B7
:10016000D7FFAE4605006946534620F00700854696
:1001700018B020B5FFF75CFFBDE820404FF0000647
:100180004FF000074FF000084FF0000B21F007017F
:10019000AC46ACE8C009ACE8C009ACE8C009ACE8C2
:1001A000C0098D46704710B50446AFF30080204665
:1001B000BDE8104000F7D4B810B5012805D00021E3
:1001C00003A000F77FF9012010BD09A1F8E70000A6
:1001D00053494752544D454D3A204F7574206F6630
:1001E0002068656170206D656D6F72790000000098
:1001F0003A2048656170206D656D6F727920636F7C
:10020000727275707465640001491820ABBEFEE718
:1002100026000200FEE70000F0B5BFF34F8FBFF3EA
:100220006F8F1A4900200860BFF34F8FBFF36F8FA5
:10023000174A116841F400311160BFF34F8FBFF3CB
:100240006F8F134970310860BFF34F8F081F43F65B
:10025000FF7400680D4D1035C0F34E31C0F3C90373
:1002600004EA4116184600BF46EA80772F60401E18
:10027000FAD2491EF4D2BFF34F8F106840F4803099
:100280001060BFF34F8FBFF36F8FF0BD50EF00E0F2
:1002900014ED00E070474FF4FA74204601F0A2FD1F
:1002A000FBE7000001488068704700000000002460
:1002B00070B50D4D04462878A0B14FF47A71B1FBAA
:1002C000F0F00A490968B1FBF0F001F788FC48B981
:1002D000102C07D200222146501E00F7ADFA002054
:1002E0006C6070BD012070BD000000240C00002473
:1002F000F0B5154C4378211D0A1D23600378F3B136
:1003000043680B60057BC67A817A437B2D07847B2B
:1003100045EA0665C77B90F809C0067A90F800E0C8
:1003200045EAC14040EA834040EA444040EA074091
:1003300040EA0C2040EA460040EA0E0001E00020BE
:1003400008601060F0BD000098ED00E0002809DBB7
:10035000410900F01F028900012001F1E0219040D5
:10036000C1F8000170470000064900F0070210B50F
:100370004FF6FF040868044B204040EA022018436F
:10038000086010BD0CED00E00000FA050068416255
:1003900000207047F0B503685D6A39B19F6A4C1E52
:1003A00000204FF4827605EB17450BE045EA02404A
:1003B000986210E0471C06EB800053F800C0F8B2CA
:1003C00005EB1C45A042F5D34FF4807000EB810093
:1003D00045EA02421A500020F0BDC1EBC10200EB19
:1003E0008202D0F80404926C02F7A0BDC1EBC102F6
:1003F00000EB8202D0F80404D2F8082202F026BCF6
:10040000D0F8040402F7E9BD70B50D464168044612
:1004100005F00F00884201D9012070BD29064FF078
:1004200000064FF0010207D5C0EBC00104EB8101CB
:1004300081F83D203C3107E0C5EBC50104EB8101AB
:1004400081F8FD6101F5FE718A70087094F8BC03B3
:10045000012807D084F8BC23206803F785F8280713
:1004600002D007E0022070BD217C04F57172206883
:1004700003F74EF8002084F8BC6370BD2DE9F0410D
:1004800001F00F050C460026C5EBC501012700EB66
:1004900081018A64C1E9143681F83D7001F83C5F3E
:1004A0000369012B00D10A612207027C006804D095
:1004B00002F0E6FF0020BDE8F08102F79BFFF9E7BC
:1004C000D0F8040402F7A3BD2DE9F04104008AB07E
:1004D00005D094F8BD030025266820B108E001206E
:1004E0000AB0BDE8F081204684F8BC5300F066F8FD
:1004F000032084F8BD03F06BC00500D4256120689B
:1005000002F772FF04F11001684628228846FFF6C0
:1005100054FF94E80F0002F71FFF0227D8BB2068A2
:10052000002103F788F80020012610E0C0EBC0018D
:10053000421C04EB810181F83D6081F83F504D641D
:100540008D640D6581F83C00A1F84200D0B261686D
:100550008142EBD8002011E0C0EBC001421C04EB4B
:10056000810181F8FD5181F8FF51C1F80452C1F8B1
:100570000852C1F8105281F8FC01D0B26168814282
:10058000EAD8282241466846FFF617FF94E80F0094
:1005900002F08EFE10B184F8BD73A0E7606A84F8A3
:1005A000385084F8BD63012802D1204600F764F971
:1005B000206802F071FE002092E7000010B586B0BE
:1005C000044614216846FFF774FD174920688842E5
:1005D00028D11648016841F00101016000680A2332
:1005E000022200F00100059000204FF4C05100915C
:1005F0006946CDE90120CDE903030D48FFF694FFDC
:100600000A480838016841F0006101600068002272
:10061000114600F000600590652000F70DF9652097
:10062000FFF794FE06B010BD00000840E0440258F9
:100630000000025870B50446C068012570B1022858
:1006400001D0FFF728FED4F80404294602F720FD64
:10065000D4F80404BDE8704002F7DBBC0025F2E7E3
:10066000D0F8040402F708BD10B5044690F8BC03A6
:1006700001280BD0012084F8381084F8BC032068CE
:1006800003F02AF8002084F8BC0310BD022010BD3E
:1006900010B50446D0F8040402F70FFD2068D0F826
:1006A000001E41F00101C0F8001E206A002804D09D
:1006B0000248016841F00601016010BD10ED00E044
:1006C000134970B50A68D243520705D5096801F08D
:1006D0000701814213D118E00A6822F007020243A1
:1006E0000A60FFF7DFFD0A4D4FF47A760446083DB5
:1006F00007E000BFFFF7D6FD001BB04201D9012083
:1007000070BD2868C0438004F4D4002070BD000090
:100710000C4802580248016841F08071016070473E
:100720000C48025810B500F783FD05490968054AD1
:10073000C1F30211515C01F01F01C84010BD00005F
:100740002044025806371008494930B5484C0B1D63
:100750000A680C3409681D68246802F0030305F078
:100760000102C1F30511C4F3CC04002914FB02F209
:1007700000EE102AF8EE400A75D03F4A9FED3D1A70
:10078000B7EE000A6BB1DFED3D1A012B01D0022B51
:1007900064D002EE101A1168F8EE422A81EEA22A05
:1007A00021E0334C283C23689B0612D5344B246847
:1007B00001EE901A1168C4F3C104F8EE612AE34017
:1007C00001EE903AC1F30801F8EE611A81EEA22A17
:1007D0000BE001EE901ADFED2B2A00BFF8EE611A54
:1007E000116882EEA12AC1F3080101EE901A116886
:1007F000F8EE611A40EE811A71EE800A62EE200A6C
:10080000C1F3462101EE101AB8EE411A31EE001A7A
:10081000C0EE811ABCEEE11A80ED001A1168C1F336
:10082000064101EE101AB8EE411A31EE001AC0EE80
:10083000811ABCEEE11A80ED011A1168C1F306615C
:1008400001EE101AB8EE411A31EE000A80EE801A5D
:10085000BCEEC10A80ED020A30BD04E001EE901A40
:10086000DFED092ABAE70021016041608160F3E70A
:100870002844025800000039304402580024744AC9
:100880000090D0030024744C20BCBE4B494930B5C5
:10089000484C0B1D0A681C3409681D68246802F066
:1008A0000303C5F30022C1F30551C4F3CC040029AE
:1008B00014FB02F200EE102AF8EE400A75D03F4A0F
:1008C0009FED3D1AB7EE000A6BB1DFED3D1A012B2B
:1008D00001D0022B64D002EE101A1168F8EE422A01
:1008E00081EEA22A21E0334C283C23689B0612D5D6
:1008F000344B246801EE901A1168C4F3C104F8EE79
:10090000612AE34001EE903AC1F30801F8EE611A62
:1009100081EEA22A0BE001EE901ADFED2B2A00BF38
:10092000F8EE611A116882EEA12AC1F3080101EE06
:10093000901A1168F8EE611A40EE811A71EE800A81
:1009400062EE200AC1F3462101EE101AB8EE411AF8
:1009500031EE001AC0EE811ABCEEE11A80ED001AE9
:100960001168C1F3064101EE101AB8EE411A31EEDA
:10097000001AC0EE811ABCEEE11A80ED011A11686E
:10098000C1F3066101EE101AB8EE411A31EE000A09
:1009900080EE801ABCEEC10A80ED020A30BD04E090
:1009A00001EE901ADFED092ABAE7002101604160EB
:1009B0008160F3E72844025800000039404402589F
:1009C0000024744A0090D0030024744C20BCBE4B19
:1009D0002DE9FC5F044650F8241B002500902E46AC
:1009E0000801FE4FDFF8F8831DD5606E50B1B0F5F9
:1009F000801F0CD0B0F5001F0ED0B0F5401F1DD0E9
:100A000001250FE0386840F40030386016E002211C
:100A1000201D01F727FA03E00098022101F0D4FB22
:100A200005000BD02E462088C00523D5606D052813
:100A30001ED2DFE800F00C11161B1B00626ED8F806
:100A4000001021F440111143C8F80010EBE738689A
:100A500040F40030386009E00021201D01F702FA5F
:100A600003E00098002101F0AFFB05466DB100E006
:100A700001252E462088800528D5A06D80281ED00F
:100A80000CDC90B140280ED114E0626DD8F8001053
:100A900021F007011143C8F80010EBE7C02813D07C
:100AA000B0F5807F10D001250FE0386840F40030A9
:100AB000386009E00021201D01F7D4F903E0009817
:100AC000002101F081FB054695B12E462088DFF814
:100AD0001093400509F108092CD5D4F8A400B0F50D
:100AE000800F20D00DDCA0B1B0F5001F0FD115E0B4
:100AF000A26DD8F8001021F4E0711143C8F800107D
:100B0000E4E7B0F5C00F13D0B0F5000F10D0012509
:100B10000FE0386840F40030386009E00021201D03
:100B200001F7A0F903E00098002101F04DFB054614
:100B300075B12E46208800052DD5D4F8A800B0F157
:100B4000007F21D00EDCA8B1B0F1807F10D116E07B
:100B5000D4F8A420D9F8001021F460011143C9F899
:100B60000010E7E7B0F1407F13D0B0F1806F10D0F4
:100B700001250FE0386840F40030386009E00021BA
:100B8000201D01F76FF903E00098002101F01CFB24
:100B900005466DB12E46206880011FD5A06CD8B1E6
:100BA00010280FD0202812D0302815D0012514E0AD
:100BB000D4F8A820D9F8001021F0E0611143C9F859
:100BC0000010E8E7386840F40030386004E00221A3
:100BD000201D01F747F905466DB12E462088C00457
:100BE0002BD5E06DB0F5005F20D00DDCA0B1B0F5E5
:100BF000805F0FD115E07A48A26C001F016821F0D8
:100C0000300111430160E9E7B0F5405F13D0B0F562
:100C1000804F10D001250FE0386840F40030386074
:100C200009E00021201D01F71DF903E000980021D3
:100C300001F0CAFA054685B12E462088800429D5E0
:100C4000206EB0F5403F23D010DC08B3B0F5803FF4
:100C500014D0B0F5003F0FD115E0E26DD8F80010C8
:100C600021F4E0411143C8F80010E6E7B0F5802F09
:100C70000ED0B0F5A02F0BD001250AE00121201DD8
:100C800001F7F0F803E00098012101F09DFA054614
:100C90008DB12E46208840042AD5D4F8AC00B0F19E
:100CA000405F23D010DC08B3B0F1805F14D0B0F106
:100CB000005F0FD115E0226ED8F8001021F4E0217A
:100CC0001143C8F80010E5E7B0F1804F0ED0B0F145
:100CD000A04F0BD001250AE00121201D01F7C2F829
:100CE00003E00098012101F06FFA05466DB12E4630
:100CF000208800041FD5E06ED8B1B0F1805F0ED01F
:100D0000B0F1005F10D0012514E0D4F8AC20D9F880
:100D1000001021F0E0411143C9F80010E8E73868FD
:100D200040F40030386004E00121201D01F79AF8FA
:100D300005466DB12E462068C0011ED5606CD0B14D
:100D400001280ED0022811D0032814D0012513E069
:100D5000E26ED8F8001021F040511143C8F800109D
:100D6000E9E7386840F40030386004E00221201DD3
:100D700001F778F8054685B12E462068DFF85CB0AB
:100D80004002ABF11C0B57D51648016841F4807145
:100D90000160FFF787FA82460EE01148626C001F7F
:100DA000016821F0030111430160E6E7FFF77AFAD9
:100DB000A0EB0A0064283DD80A480068C005F5D5B4
:100DC0007DBBDFF81CA0B4F8B0100AF1200ADAF8F5
:100DD000000001F4407100F4407005E02C4402581A
:100DE0005044025800480258884211D0DAF80010E6
:100DF000DAF8002021F4407142F48032CAF8002071
:100E0000DAF8002022F48032CAF80020CAF8001074
:100E1000D4F8B000B0F5807F21D1FFF743FA0190FC
:100E200019E008E0FFF73EFA0199411A41F28830D3
:100E3000814210D903252E462078DFF830A4C00760
:100E40003DD0A06F182838D026DC80B3082829D0E0
:100E5000102825D12CE0DAF800008007E2D5D4F87C
:100E6000B010C1F30120032858460DD0016821F4C9
:100E70007C510160B4F8B020DAF80010C2F30B0224
:100E80001143CAF80010D7E7F94A036802EA1112C1
:100E900023F47C511143ECE720280ED028280CD0F5
:100EA00001250BE00121201D00F7DCFF04E004E038
:100EB0000098012101F088F905465DB12E462078A1
:100EC00080071ED5606F062819D2DFE800F0160CE7
:100ED00011161616A26FDAF8001021F0380111432E
:100EE000CAF80010EBE70121201D00F7BBFF03E06B
:100EF0000098012101F068F9054675B100E001256F
:100F00002E46207840071FD5D4F89000062819D225
:100F1000DFE800F0160C11161616626FDAF80010F2
:100F200021F007011143CAF80010EAE70121201D52
:100F300000F798FF03E00098012101F045F905460C
:100F40009DB100E001252E46207880062BD5D4F8EF
:100F50008C00B0F1405F24D011DC10B3B0F1805FA1
:100F600015D0B0F1005F10D116E0D4F89020D9F878
:100F7000001021F007011143C9F80010E4E7B0F1B7
:100F8000804F0ED0B0F1A04F0BD001250AE0002118
:100F9000201D00F767FF03E00098022101F014F91B
:100FA00005468DB12E46207840062BD5D4F8980002
:100FB000B0F5406F24D011DC10B3B0F5806F15D0C0
:100FC000B0F5006F10D116E0D4F88C20DAF80010DC
:100FD00021F0E0411143CAF80010E4E7B0F5805F6A
:100FE0000ED0B0F5A05F0BD001250AE00021201D36
:100FF00000F738FF03E00098022101F0E5F805460C
:101000008DB12E46207800062BD5D4F89C00B0F583
:10101000C04F24D011DC10B3B0F5005F15D0B0F58F
:10102000804F10D116E0D4F89820D9F8001021F4A0
:10103000E0511143C9F80010E4E7B0F5004F0ED0BD
:10104000B0F5204F0BD001250AE00021201D00F74C
:1010500009FF03E00098022101F0B6F805464DB102
:101060002E46207800071ED5D4F88000B0F5805FAA
:101070000AD00FE0D4F89C20D9F8001021F4604188
:101080001143C9F80010ECE70098022101F09CF828
:1010900000B10126D4F88020DAF8001021F4405184
:1010A0001143CAF800102078C00613D5D4F8940074
:1010B000B0F5807F05D10098022101F085F800B1DC
:1010C0000126D4F89420D9F8001021F4407111437E
:1010D000C9F800102068000316D5D4F8A00038B174
:1010E000B0F5803F09D0B0F5003F0BD001250AE0F4
:1010F0000021201D00F7B6FE03E00098022101F058
:1011000063F8054685B12E462068400322D5D4F801
:101110008400B0F5801F11D0B0F5001F13D0B0F5DA
:10112000401F15D0012514E0D4F8A020D9F80010F4
:1011300021F440311143C9F80010E5E7386840F464
:101140000030386004E00098012101F03DF80546C8
:1011500055B12E462068C0031CD5E06C70B1B0F5C7
:10116000803F10D0012514E0D4F88420DAF8001074
:1011700021F440111143CAF80010EBE7386840F43D
:101180000030386004E00221201D00F76BFE0546A8
:10119000CDB12E462068800005D50098022101F0CF
:1011A00013F800B10126206880031BD5E06FB8B1A9
:1011B000B0F5807F10D0B0F5007F11D0B0F5407F42
:1011C0000ED001250DE02948E26C0838016821F4B1
:1011D000803111430160DDE7386840F40030386049
:1011E000F5B32E462068C00207D5226FD8F800104C
:1011F00021F000411143C8F800102068C00008D554
:10120000D4F8B420DBF8001021F480411143CBF86E
:1012100000102068800207D5A26ED8F8001021F0D7
:1012200080711143C8F80010206840000CD5DBF82D
:10123000001021F40041CBF80010DBF80010D4F8C6
:10124000B8201143CBF800102068002807DA0748BF
:10125000226D0838016821F040511143016000E01F
:1012600008E086B10120BDE8FC9F0000544402580C
:10127000CFFFFF00E26FDAF8001021F44071114354
:10128000CAF80010AEE70020EDE700002DE9F05F9E
:1012900004000F467ED0DFF83882D8F8000000F056
:1012A0000F00B8420CD2D8F8001021F00F013943DA
:1012B000C8F80010D8F8000000F00F00B84269D15B
:1012C0002078844D40070AD52069296801F0700113
:1012D000884204D9296821F07001014329602078EF
:1012E0007C4E361D00070AD56069316801F0700137
:1012F000884204D9316821F07001014331602078BF
:10130000C0060AD5A069316801F4E061884204D9B9
:10131000316821F4E061014331602078DFF8B4B135
:1013200080060BF1080B0CD5E1695846DBF800206C
:1013300002F07002914204D9026822F070020A435E
:101340000260207880070AD5E068296801F00F0163
:10135000884204D9296821F00F01014329602078CF
:10136000C0073ED05B49A2682868183920F4706035
:10137000104328606068022818D0032819D0096833
:10138000012819D0490700294ADADFF848A1AAF153
:10139000080A00E044E0DAF8002022F007020243E5
:1013A000CAF80020FEF77EFF814612E00968890333
:1013B000E9E709688901E6E7C905E4E7FEF772FF96
:1013C000A0EB090141F28830814202D90320BDE837
:1013D000F09F6168DAF8000000F03800B0EBC10F50
:1013E000ECD1207880070AD5E068296801F00F0168
:1013F000884204D2296821F00F0101432960D8F8FE
:101400000010404601F00F01B9420BD9016821F0EC
:101410000F0139430160006800F00F00B84201D0AD
:101420000120D4E7207840070AD52069296801F017
:101430007001884204D2296821F0700101432960BB
:10144000207800070AD56069316801F07001884290
:1014500004D2316821F07001014331602078C00668
:101460000AD5A069316801F4E061884204D231688C
:1014700021F4E06101433160207880060CD5E169F8
:101480005846DBF8002002F07002914204D2026854
:1014900022F070020A43026000F026F80E492A6822
:1014A0002B68C2F3032203F00F038A5CC95C02F0CD
:1014B0001F0201F01F01D040084A20FA01F111601B
:1014C0000749086007480068BDE8F05FFEF7F0BE16
:1014D000002000521844025806371008100000245B
:1014E0000C00002404000024454970B545480968F3
:1014F000434B103B11F0380208D00111082A03D0E9
:10150000102A0BD0182A0BD0084670BD196889061E
:10151000FBD51968C1F3C101C84070BD3A4870BD20
:101520003749374D18310C1D24350A68096826687B
:101530002D6802F0030406F00102C1F30511C5F3A2
:10154000CC0515FB02F200EE102AB8EE400AE9B312
:101550002F4ADFED2E0AB7EE001A6CB1DFED2D1A1F
:10156000012C01D0022C43D002EE101A1068F8EEC4
:10157000422A81EEA22A1EE01C68A40611D51B682F
:1015800001EE901A1168C3F3C103F8EE612AD84046
:1015900001EE900AC1F30800F8EE611A81EEA22A6A
:1015A0000BE001EE901ADFED1C2A00BFF8EE611A85
:1015B000106882EEA12AC0F3080001EE900AF8EE4E
:1015C000611A40EE201A31EE810A00E015E022EEA9
:1015D000000A1068C0F34620401C00EE900AF8EEA6
:1015E000600A80EE201ABCEEC10A10EE100A70BD2F
:1015F00001EE901ADFED092AD8E7002070BD000047
:10160000104402580090D00340787D01000000395A
:10161000304402580024744A0024744C20BCBE4B51
:1016200070477047704710B550F8702F0123120EA5
:101630000A700268120A4A8002784468120642EA76
:1016400014224A6002790A728268120E4A72D0E944
:101650000224120242EA1462CA60C268C2F3035250
:101660000A74C268C2F30B224A82007BC0F34600B0
:1016700008754B75002010BDF0B5026E920F0A7010
:10168000026EC2F383624A70026EC2F301628A7014
:10169000026E120CCA70B0F86020120A0A7190F83B
:1016A00060204A71426E120DCA80426EC2F303423C
:1016B0000A72B0F86420C2F3C0324A72B0F86420F3
:1016C000C2F380328A72B0F86420C2F34032CA7228
:1016D000B0F864200026C2F300320A734E73012270
:1016E000C36B4FF4007463B1012B3AD003685049C7
:1016F0009963816B41F08051816380F8342001202F
:10170000F0BDB0F86430856E9B051B0D43EA957300
:101710000B61836EC3F3C2630B75836EC3F3026305
:101720004B75836EC3F342538B75836EC3F3824351
:10173000CB75836EC3F3C2330B760D696D1CC56424
:101740000B7E03F007039B1C9D40C5640B7A8465E8
:1017500003F00F0302FA03F35F0A7D43C0E9143577
:101760000EE090F86450836EAD06AD0A45EA13436F
:101770000B610B695B1C9B02C364C0E91443846565
:10178000B0F86830C3F380334B76B0F86830C3F3F9
:10179000C6138B7690F8683003F07F03CB76C36E68
:1017A000DB0F0B77C36EC3F341734B77C36EC3F389
:1017B00082638B77C36EC3F38353CB77C36EC3F35C
:1017C000405381F8203081F82160C36EC3F3004399
:1017D00081F82230B0F86C30C3F3C03381F8233085
:1017E000B0F86C30C3F3803381F82430B0F86C303B
:1017F000C3F3403381F82530B0F86C30C3F30033C5
:1018000081F82630B0F86C30C3F3812381F827309B
:10181000B0F86C30C3F3012381F8283090F86C00E5
:10182000C0F3460081F8290081F82A200020F0BD8D
:10183000FF0FE01FC26B0A60026C4A60426C8A6054
:10184000826CCA60C26C0A61026D4A61426D8A6133
:10185000806DC8610020704770B5B0F84810002551
:1018600004460068090400F760FF18B1A16B01434A
:10187000A16304E02068002101F70CF80546C5F3D8
:10188000432070BD2DE9F84304460068256B416B89
:1018900009041BD5290719D5D4E90A50202813D3E8
:1018A0000026206800F7FFFF020A2870010C6A700A
:1018B000030EA970761CEB70082E05F10405F0D319
:1018C000E06A2038C4E90A50BDE8F883416B01277B
:1018D000DFF8EC810026C90551D539024CF23A12E5
:1018E000816329072068C16B21EA0201C163206876
:1018F000C16B21F08051C1632068C16821F04001B3
:10190000C16018D515F0220F09D0206800F0D4FE70
:1019100028B1A16B0143A1632046FFF6C9FF2168EE
:10192000AA07C1F8388084F83470266323D1204692
:1019300000F754F9C8E72806C6D5206815F0220F2D
:1019400086622068C6622068066509D0206800F0BB
:10195000B3FE28B1A16B0143A1632046FFF6A8FFA7
:1019600015F0300F84F83470266302D0204600F75B
:1019700035F9A807A8D0204600F044F9A4E7416B48
:10198000490421D529071FD5D4E9085020289BD325
:10199000002628780090697840EA01200090A97814
:1019A00040EA01400090E9782D1D40EA0160009076
:1019B0002068694600F77AFF761C082EE9D3606A32
:1019C0002038C4E908507FE7416B11F03A0F416BB2
:1019D00058D0890703D5A16B41F00201A163416B87
:1019E000090703D5A16B41F00801A163416B89068A
:1019F00003D5A16B41F02001A163416BC90603D55A
:101A0000A16B41F01001A163C0F838802068C16B60
:101A100021F49D71C1632068C16821F04001C1605B
:101A20002068C16A41F40051C1622068C16841F078
:101A30008001C160206800F03FFEA26B2B074FF4CD
:101A4000006140EA0200A0632068C26822F08002C0
:101A5000C2602068816303D584F8347026630DE08A
:101A600028068BD5A06B002888D02068C16B21F098
:101A70008051C1632068066584F834702046FFF603
:101A800017FF21E7C9009ED54FF080518163206880
:101A9000006D40074FEA856008D40028204602DA2E
:101AA000FFF66DFE10E7FFF669FE0DE70028204601
:101AB00002DAFFF7B6FD07E7FFF7B2FD04E7000023
:101AC0003A0F0018FEB5002504464FF48030FFF6AB
:101AD000C1FA234A0646A169B0FBF2F7022904D1F4
:101AE0002068016841F01001016000952B46CDE9A6
:101AF000017420682A46294600F012FF206800F78A
:101B0000CCFE7800B6FBF0F020B11649B1FBF0F046
:101B1000401C00E00220FEF6F5FC204600F7A8FF7E
:101B20004FF0010530B100BF84F83450A16B014380
:101B3000A16313E0204600F731FF0028F4D12068AC
:101B40004FF4007100F039FD002808D022680649E2
:101B50009163A16B0143A16384F834500120FEBD61
:101B600000350C0010210100FF0FE01FF0B587B019
:101B7000044614216846FEF79CFA1E4920688842F4
:101B800035D11D48016841F480310160006800F4DE
:101B90008030059018480C30016841F00401016064
:101BA000016801F004010591016841F0080101603C
:101BB000006802240025694600F00800059003260D
:101BC0000C274FF4F8508DE8F1000C48FEF6ACFC01
:101BD000042069468DE8F1000948FEF6A5FC0022C4
:101BE00031201146FEF628FE3120FEF7AFFB07B08C
:101BF000F0BD000000700052D444025800080258A2
:101C0000000C0258704700002DE9F04F89B09A4649
:101C100016460D460446FEF745FB06903DB194F886
:101C20003400012807D0A06B40F000500DE0A06BFD
:101C300040F0006009E0626D002006EB0A01A0633D
:101C4000914204D9A06B40F00070A063B2E0032180
:101C500084F834102168C862E16B012900D0760253
:101C60004FF0FF314FEA4A22059090230490CDE9CE
:101C70000230CDE9001280462068694600F060FD20
:101C80002068C168BAF1010F41F04002C26006D974
:101C9000202020632068314600F038FD05E0102048
:101CA00020632068314600F78CFDDFF830B1060074
:101CB0004FF001090AD02368C3F838B0A06B304355
:101CC000A06384F83490C4F8308073E001980890E1
:101CD00027E0406B40041CD50898202819D3002722
:101CE00028780790697840EA01200790A97840EAAF
:101CF00001400790E9782D1D40EA016007902068B7
:101D000007A900F7D3FD7F1C082FE9D308982038D6
:101D10000890FEF7C7FA0699411A1298814221D21B
:101D200000B32068416B11F48D7FD2D0C16821F0DF
:101D30004001C1602068416BC90521D5BAF1010F8E
:101D40001ED9E16B03291BD000F0B6FCC0B1256899
:101D5000C5F838B0A16B0143A16384F83490C4F88E
:101D6000308027E02368C3F838B0A26B3243A26307
:101D700084F83490C4F83080032009B0BDE8F08FB7
:101D80002068416B090707D54946C0F838B0A26BF7
:101D9000404642F0080209E0416B89070CD54946EC
:101DA000C0F838B0A26B404642F00202A26384F849
:101DB000341020630120E0E7416BC90607D549468E
:101DC000C0F838B0A26B404642F01002EEE7044A79
:101DD000826384F834900020CFE70000FF0FE01FFB
:101DE0003A0F001870B50A4D012208210446284612
:101DF000FEF6B2FC601EFEF685FB00222846082196
:101E0000FEF6AAFCBDE8704040F2F310FEF67ABB85
:101E1000001002587FB500250095019502950395A5
:101E2000FEF6DCFC01248DF800401B208DF8080034
:101E30008DF80B504FF010468DF80A4068468DF82B
:101E40000150019603948DF80950FEF751FA1620BF
:101E50008DF808008DF80F4005218DF80B106846AD
:101E60008DF80E408DF800408DF80D508DF80A4029
:101E70008DF8014001968DF80C508DF80950FEF751
:101E800037FA12218DF808108DF80F4003228DF8D3
:101E90000B20B0088DF80E4002238DF800408DF81D
:101EA0000D408DF80A40019068468DF801308DF89C
:101EB00009508DF80C50FEF71BFA0420FEF69CFC2E
:101EC0007FBD70B5D0F8BC42054604F58051087F4F
:101ED00038B9886928B1607A18B90121284600F01C
:101EE00074FF8121284600F070FF607A022809D132
:101EF0008121284600F069FF2846BDE87040012195
:101F000000F063BF70BD00002DE9F041D0F8BC4285
:101F10000646012104F5805568696863A869A863CD
:101F2000304601F770F81F280AD1284928698842ED
:101F300006D1697F012903D8A87F08B1102808D9E4
:101F4000697F20230522304600F0E5FA0220607206
:101F50000AE041F21F002218304600F725F8002859
:101F6000207A08DA052804D03046BDE8F041FFF7B2
:101F7000A8BF012122E0022825D0012823D0032870
:101F800021D0E568CDB104F11002D6F8BC4230464C
:101F900004F580518B69AB4200D32B468E6B002732
:101FA0004FF0040C751B8D6381F83C70812184F81F
:101FB00008C0BDE8F04100F011BF00213046BDE887
:101FC000F041FFF67BBEBDE8F0810000555342436F
:101FD00010B50446D0F8BC02407A022809D00906A0
:101FE00011D501280FD02046BDE810400121FFF691
:101FF00065BE8121204600F0E8FE2046BDE8104085
:10200000012100F0E2BE10BD10B5D0F8BC2204469C
:10201000107A022805D0032801D0042811D100210C
:102020000AE041F21D00831C815C1A442046FFF641
:10203000BBFF002805DA01212046BDE81040FFF66D
:102040003DBE10BD70B505460020D5F8BC4204F574
:1020500080512072607281F8610081F8600081F81F
:102060006200D5F8C0020168002088470121284697
:1020700000F7C0FF8121284600F7BCFF41F21000A5
:1020800022182846BDE870401F23012100F066BEDB
:102090000D48002170B54FF480420A4DC0E900514F
:1020A0000523C0E902121030012480E81A0010381C
:1020B000FFF660FC002803D0BDE87040FEF7EBB8E7
:1020C00070BD000000700052D401002410490022AD
:1020D000104810B500F097FD08B1FEF7DCF80E4986
:1020E0000C4800F04FFF08B1FEF7D5F80B4909483E
:1020F00000F0D9FE08B1FEF7CEF8064800F0BCFFAC
:1021000008B1FEF7C8F8BDE81040FEF703BB0000B9
:1021100014000024540200248800002464000024D9
:10212000FEE700002DE9F84F0E4605688146C1EB39
:10213000C60100EB8104D4E914203C34904202D95A
:102140000120BDE8F88FA168101A814200D208462C
:10215000C01C05EB461887081BE000BFA268A0EB77
:10216000010A524500D2924699F810100AF1030074
:1021700000911FFA8AF3E16887082846F2B201F756
:10218000E5FAE16801EB0A00E060A16901EB0A00F1
:10219000A061D8F8180980B2B84205D3D4E9050186
:1021A000814201D20028D9D1D4E90501884208D85A
:1021B000D5F83418012006F00F0290408143C5F88D
:1021C00034180020BDE770472DE9F047454D04461F
:1021D00089464FF0000A2868C04380070AD0414E64
:1021E000283E306820F080503060FEF75BF80746EC
:1021F000B04608E00120BDE8F08700BFFEF752F8C6
:10220000C01B022867D8D8F800008000F6D42088C8
:1022100029684FF4FE0721F07C713E0241EA00502C
:102220002860207AA389B4F804C040022D4D2D49BE
:102230005B1E227CACF1010C1835091DA0F5007065
:1022400080B2521ECCF3080C07EA034340EA0C00AC
:10225000184306EA0262104328600868626920F4A5
:102260004060104308600A68A06922F400720243CB
:102270000A60281D0A6822F480720A6002684FF61C
:10228000F873E4699A4342EAC40202600868B9F14B
:10229000000F40F480720A6011D00868B9F1010F94
:1022A00011D040F080700860D8F80000444640F03B
:1022B0008050C8F80000FDF7F5FF05460DE00868FE
:1022C00040F48000EFE740F40000ECE7FDF7EAFFA0
:1022D000401B022801D903208DE720688000F5D536
:1022E000504688E72844025870B5D0F8BC320546FD
:1022F0004FF0FF3403F58050866976B15678F607C3
:1023000014D0917861B180290DD0417F242305221A
:10231000284600F000F9204670BD417F2023F6E7F3
:102320000B4906220FE00B4908220CE0D5F8C04209
:1023300001EBC1011079E26902EB81010A79521DBA
:10234000904200D80246184600F00EF9002070BDF9
:102350002A010024300100242DE9F0470746884671
:102360004FF48050D7F8BC6206F58054B4F864107E
:10237000256F4D43854200D30546E26EB5FBF1F073
:1023800006F11001894683B2D7F8C002D0F810C018
:102390004046E047002809DA112341460422384626
:1023A00000F0B9F84FF0FF30BDE8F08781212B46EF
:1023B0004A46384600F012FDB4F86400A36BB5FB42
:1023C000F0F7B5FBF0F0D4E91B125B1BA3633944B3
:1023D000101AC4E91B1001D1032030720020E3E77A
:1023E0002DE9F0478846D0F8BC12074601F5805425
:1023F0004FF48055B4F86400266F4643AE4200D3D4
:102400002E46E26EB6FBF0F01031894683B2D7F863
:10241000C002D0F814C04046E047002809DA032380
:1024200041460422384600F076F84FF0FF30BDE810
:10243000F087B4F86400D4E91B23B6FBF0F8B6FBD0
:10244000F0FCA16BA1EB0601A163B3EB08036244AE
:10245000C4E91B230AD04343AB4200D32B464A4670
:102460000121384600F07AFC0020E0E700213846E0
:10247000FFF624FCF8E72DE9F047D0F8BC520746F8
:1024800016468946287A78BB05F580544FF0FF3808
:10249000207F000630D594F86200022809D0D7F8D2
:1024A000C00281684846884748B13A23494602221B
:1024B00001E03A230222384600F02DF811E0D6F868
:1024C0000210707909BA21F0FF0249460243E26620
:1024D000B6F8070043BA38462367FFF653FD0028D5
:1024E00003DA4046BDE8F0870CE0B4F86410206FD2
:1024F000A2694843904203D02023617F0522DAE796
:10250000022028724FF480504946E8603846BDE802
:10251000F047FFF721BF30B5D0F8BC12002401F519
:10252000805090F8615001EBC50505F5805585F8A0
:10253000402090F8612001EBC20202F5805282F83F
:10254000443090F8612001EBC20101F5805181F81F
:10255000454090F86110491CC9B280F86110042907
:1025600001D180F8614030BD10B5C26004E0521E58
:1025700092B284188B5C2374002AF8D1002010BD1D
:102580000148FFF77FB90000D401002430B585B0C1
:10259000044629204FF480720DF1080CCDE900109B
:1025A00000236946150120468CE82C0000F0C8F98C
:1025B000204600F74BF905B030BD30B50446102079
:1025C00085B00DF1080C02010502CDE900100023D1
:1025D00069468CE82C00204600F0B2F9102141F247
:1025E0008832204600F0C0F805B030BD30B585B067
:1025F000044606204FF480720DF1080CCDE900105E
:1026000000236946150120468CE82C0000F098F95B
:10261000062141F28832204600F0A6F805B030BD10
:1026200030B585B0044611204FF480720DF1080CCE
:10263000CDE9001000236946150120468CE82C00E6
:1026400000F07EF9112141F28832204600F08CF82A
:1026500005B030BD10B586B00446002133204FF4DC
:102660008072CDE90221CDE90010130169462046B0
:10267000049300F065F9332141F28832204600F0DE
:1026800073F806B010BD10B586B0044600210D20C9
:102690004FF48072CDE90221CDE9001013016946A3
:1026A0002046049300F04CF90D2141F28832204677
:1026B00000F05AF806B010BD10B586B004464FF4CD
:1026C000807200200C2113018DE80700CDE903037F
:1026D000E06840F08000E060E06820F04000E060EA
:1026E0006946204600F02CF9074A0C21204600F0EC
:1026F0003BF8E168B0F1007F21F08001E16000D19A
:10270000002006B010BD000000E1F50530B585B031
:10271000044619204FF480720DF1080CCDE9001029
:1027200000236946150120468CE82C0000F008F9CA
:10273000192141F28832204600F016F805B030BD6C
:1027400070B50A6842624A688262C46AD1E90225A9
:10275000D1E9043624F0FF012A4333431A431143DD
:10276000C162002070BD000030B5464D4FF4FA53F1
:10277000434C2D68B5FBF3F353435B1E02D24FF07D
:10278000004030BD426B2242F7D09204F5D4426B38
:10279000520703D504218163084630BD426BD2073E
:1027A00002D00121816306E0354A803282630269EA
:1027B000D2B28A4201D0012030BD002100F76AF870
:1027C0003149084201D1002030BD002802DA4FF023
:1027D000007030BD410001D5402030BD810001D5E1
:1027E000802030BDC10002D54FF4807030BD0101A2
:1027F00002D54FF4007030BD410102D54FF4806026
:1028000030BDC10102D54FF4006030BD010202D5D8
:102810004FF4805030BD410202D54FF4005030BD1E
:10282000810202D54FF4804030BDC10202D54FF481
:10283000004030BD410302D54FF4003030BD81036C
:1028400002D54FF4802030BDC10302D54FF40020E3
:1028500030BD010402D54FF4801030BD410402D5D3
:102860004FF4001030BD810402D54FF4800030BD1C
:10287000000702D54FF4000030BD4FF4803030BD6A
:10288000450020000C00002408E0FFFD30B5204D7D
:102890004FF4FA5341F288342D68B5FBF3F36343E8
:1028A0005B1E02D24FF0004030BD446B14F0450F68
:1028B000F6D0A404F4D4436B5B0703D504218163F1
:1028C000084630BD436BDB0702D00121816303E082
:1028D0000369DBB28B4201D0012030BD0D49816319
:1028E0000021FFF6D7FF10F4604F04D0410406D555
:1028F0004FF4005030BD000C1080002030BD0004AB
:1029000002D54FF4805030BD4FF4803030BD000010
:102910000C000024C5002000006800F00300704790
:1029200030B511434268DDE903542B43034D19438D
:1029300021432A400A434260002030BD002CC0FFE2
:1029400070B5084D0A688260C368D1E90126D1E9F3
:1029500003412B4032430C4322431343C360002006
:1029600070BD0000C0E0FEFF2DE9F04186B00D46CD
:102970000446FDF797FC002107462068FFF68AFF12
:10298000800104D54FF4006006B0BDE8F0812068F6
:102990004021FFF712FEC0B9B4F8481020680904BE
:1029A000FFF6E4FD88B940214FF0FF3060224FF080
:1029B000010C022300268DE84F1020686946FFF7BE
:1029C000BFFE2068FFF75FFE98B1A16BA163DBE754
:1029D000406B000407D500262068FFF664FF761CD4
:1029E000082E01C5F8D3FDF75DFCC01B401C02D1C9
:1029F00027E04FF000482068416B11F4957FE7D045
:102A0000416B090701D50820BEE7416B890701D555
:102A10000220B9E7406B80060AD52020B4E700BF4A
:102A2000FFF641FF01C5FDF73DFCC01B401C08D06F
:102A30002068416BC904F3D4014603488863002031
:102A4000A2E74046A0E700003A0F001800207047B8
:102A5000054810B5FEF700FF042802D04FF0FF3004
:102A600010BD002010BD0000D401002400207047DC
:102A700038B5642403FB04F000900748FEF6CCFF51
:102A800010B14FF0FF3038BD0348FEF7E5FE0428D3
:102A9000FAD1002038BD0000D4010024017840782C
:102AA00041EA00207047FDF663BE13460A46002146
:102AB00010B500F053F9002010BD0521002310B51A
:102AC0001A46C0F89412194600F048F9002010BDCB
:102AD00010B582610223C0F894321346C2610A46DF
:102AE000002100F07BF9002010BD000012200880BA
:102AF000004870473400002404A00A46024910B57B
:102B000000F7DAF9004810BD2405002453544D3372
:102B100032204D6173732053746F726167650000DA
:102B2000F8B504460D460020ADF800004888010ABB
:102B300008295FD2DFE801F05E0409175E5E3C45BC
:102B4000D4F8B412207C0A6819E0207C0226002800
:102B5000D4F8B80205D0C16A684688470146467075
:102B600039E0816AF8E7C0B2062843D2DFE800F016
:102B7000030A1014181CD4F8B402426805E0694630
:102B800090471CE0D4F8B402826892B3207CF6E748
:102B9000D4F8B402C268F8E7D4F8B4020269F4E7E2
:102BA000D4F8B4024269F0E7D4F8B4028269ECE7E1
:102BB000207CF0B9D4F8B802416B684688470146DA
:102BC00009E0207CA8B9D4F8B802016B68468847B0
:102BD000014607204870EA888AB1BDF8000040B17C
:102BE000824200D902462046ADF80020FFF770FF70
:102BF000F8BDFFE72946204600F7EEF8F8E7204643
:102C000000F7F5F8F4E730B4A0B1D0F8B8420023EB
:102C10000CB1C0F8B832D0F8CC420CB1C0F8CC320C
:102C200009B1C0F8B4120121027080F89C1230BCC6
:102C300000F044B830BC0320704710B5D0F8C4028F
:102C4000FDF633FEBDE8104000F75BB910B5134642
:102C5000044649B1D4F8B80282691AB194F89C02CA
:102C6000032824D0032010BDD4F8941204F5AA70D0
:102C7000032920D1D0E9021291420AD98A1A82602E
:102C8000C068824200D3024619462046FFF70DFF76
:102C900011E0D4F8B802016929B194F89C02032824
:102CA00001D120468847204600F7A1F803E02046DE
:102CB00090470028D7D1002010BD000070B50178E2
:102CC00041BB154901260022144C02230925C1F8F5
:102CD0000404C0F8C4120846C1E90336C1E906324B
:102CE0000A624A628A62CA620A63C1E90045FDF764
:102CF000EBFB08B1FDF7CFFA07488021FDF746FB53
:102D0000054840220021FDF745FB034880220121B0
:102D1000FDF740FB002070BD2407002400000840A0
:102D2000D0F8C42201F07F000B06C0EBC00002EB1C
:102D3000800002D590F83E00704790F8FE01704781
:102D40000020704710B51C46D0F8C4021346224636
:102D5000FDF621FEBDE8104000F7D3B810B5D0F85D
:102D6000C402FDF648FEBDE8104000F7CAB870B5D1
:102D7000044600F2AA20054600F7BAF9B4F8B032CA
:102D8000012194F8AA0210F01F02C4E9A5130AD089
:102D9000012A0ED0022A12D000F080012046BDE8A0
:102DA000704000F012B829462046BDE8704000F09F
:102DB00065B929462046BDE8704000F754BA294657
:102DC0002046BDE8704000F7A8B910B5D0F8C4029D
:102DD000FDF71AFBBDE8104000F793B810B5D0F826
:102DE000C402FDF74BFBBDE8104000F78AB810B5F0
:102DF000FEF626FF002010BD70B501210446FFF746
:102E00001CFF002520468121A4F87851FFF715FF0B
:102E100020462587FEF632FFD4F8BC0218B1FDF635
:102E2000A5FAC4F8BC52002070BD00000A21018040
:102E3000004870472001002420210180004870478D
:102E4000C000002470B5044641F27400FDF702F999
:102E5000C0B1217C0125C4F8BC02C1B14023204689
:102E600002220121FFF76EFF4023A4F878510222CD
:102E700020468121FFF766FF20462587FFF7E2F80D
:102E8000002070BD0020C4F8BC02022070BD4FF4C9
:102E900000762046022233460121FFF753FF3346D6
:102EA000A4F87851E3E719B1C0F8C01200207047C8
:102EB00003207047F8B506460C4600204FF0000589
:102EC000D6F8BC72ADF80000087810F0600120D090
:102ED00020293DD16178FE2902D0FF2938D10EE0AA
:102EE000618881BBE188012932D1000630D5D6F84E
:102EF000C002806980470122394638601FE061883E
:102F000009BBE188F9B9000622D43046FEF6BBFEC3
:102F100023E0607830B1012824D00A2809D00B289A
:102F200016D111E096F89C02032811D102226946BD
:102F300005E096F89C0203280AD10122391D30468B
:102F4000FFF7C6FD09E003E096F89C02032806D0CF
:102F500021463046FFF640FF03252846F8BDA078FD
:102F60007860FAE796F89C020328F6D1608800287A
:102F7000F3D12179304600F73DF821793046FFF74B
:102F800027F8EAE738B504460020ADF8000041B163
:102F9000C4F8B8126846896A8847C4F8CC02002091
:102FA00038BD032038BDD0F8B83202460320002BCC
:102FB00002D01B6810461847704700002DE9F04109
:102FC0002C4E0446887800250F46C1B20129317085
:102FD00006D939462046FFF6FFFE0320BDE8F08102
:102FE00094F89C0202280CD003281DD039462046B4
:102FF000FFF6F2FE31782046FFF6DEFE0325284676
:10300000ECE799B320466160FFF7CDFF050004D0DF
:1030100039462046FFF6E0FEF1E72046FFF6E7FEE0
:10302000032084F89C02EAE74FF00208C1B160680F
:1030300088421BD0C1B22046FFF6BEFE3178204642
:103040006160FFF7B0FF050010D039462046FFF65B
:10305000C3FE21792046FFF6AFFE84F89C82CEE7BE
:103060006160204684F89C82FFF6A6FE2046FFF6AB
:10307000BEFEC4E78400002400F716B82DE9F04135
:103080000A784FF0000512F0600208D0202A01D023
:10309000402A71D1D0F8B8229268904731E04B783D
:1030A000002201260A2B67D2DFE803F0415E665852
:1030B000660805662D29FFF733FD5FE00446888822
:1030C000D8B9C888C8B94888802816D294F89C22F4
:1030D00000F07F07032A10D03946204684F89E72FC
:1030E000FFF6D9FF2046FFF682FE1FB1022084F8CA
:1030F0009C0243E084F89C6240E020463CE0FFF7FD
:103100005DFF05463AE0CB88012B35D190F89C3223
:10311000012B04D0022B02D0032B2DD104E000F1AF
:1031200008018260012216E00122011D13E090F8DF
:103130009C22012A03D0022A01D0032A1CD1CA886A
:10314000022A19D1D0F8A412C66009B10321C160C6
:10315000022200F10C01FFF7BBFC0FE049880129B6
:103160000CD1C0F8A46211E090F89C32012B08D079
:10317000022B06D0032B04D0FFF62EFE2846BDE816
:10318000F08149880129F9D1C0F8A422FFF62FFE69
:10319000F4E700000C49012202E0521C8A420BD8DD
:1031A0000369002BF9DA0369012243F0010303618B
:1031B00004E0521C8A4201D9032070470369DB07EF
:1031C000F7D1002070470000400D030070B50A7869
:1031D00001234C78012C00EB42122CD0D2F8004B8A
:1031E000002C0BDAD2F8004B44F00064C2F8004B1C
:1031F000D2F8004B44F08044C2F8004B0C78D0F871
:103200003C5804F00F0403FA04F425EA0444C0F81F
:103210003C480978D0F81C4801F00F018B401C494C
:1032200024EA0343C0F81C38D2F8000B0840C2F867
:10323000000B002070BDD2F80049002C0BDAD2F848
:10324000004944F00064C2F80049D2F8004944F053
:103250008044C2F800490D78D0F83C4805F00F05CD
:103260000C4E03FA05F5ADB2AC43C0F83C48D0F8BB
:103270001C48097801F00F018B4099B28C43C0F8CB
:103280001C48D2F800093040C2F80009D1E700001C
:103290000078F3EF007833EC10B5D0F8041841F063
:1032A0000201C0F804180320FDF62CF9002010BD1F
:1032B0002DE9F04F0E4604460021DDF824B00D46FE
:1032C000109F0846DDF82C2004EB800CCCF804118C
:1032D000401C0F28F8D32046AFB1806B40F4001C8F
:1032E000C4F838C088460846C4F8000ED4F8000870
:1032F000012A2146C4F800081BD00846D1F800185E
:1033000041F003011BE0D0F8040840F0020CC4F8BF
:1033100004C8A06B20F4001CC4F838C0206840F03A
:10332000400CC4F800C0206840F0800CC4F800C015
:10333000D8E70846D1F800180BB141F00101C0F8F8
:103340000018102100F74CF900B10125204600F7C4
:1033500037F900B1012540464FF000694FF67F3341
:103360004FF0904AC4F81088C4F81488C4F81C8838
:10337000002114E004EB4112D2F800C9BCF1000FA7
:1033800006DA11B1C2F800A904E0C4F8009901E01E
:10339000C2F80009C2F81009C2F80839491C8E4267
:1033A000E8D8002115E000BF04EB4112D2F800CBB1
:1033B000BCF1000F06DA11B1C2F800AB04E0C4F8AA
:1033C000009B01E0C2F8000BC2F8100BC2F8083BEA
:1033D000491C8E42E8D8D4F81038BBF1000F6FF0CA
:1033E000804223F48073C4F81038A061626103D175
:1033F000A06940F01000A061A069094A0C9940EA58
:103400000200A06119B1A06940F00800A061012F7D
:1034100003D1A06903490843A0612846BDE8F08FA5
:1034200000383C80040000400B784A78012A00EB09
:1034300043100BD0D0F8002B22F40012C0F8002B60
:10344000C978032914D0022912D017E0D0F8002936
:1034500022F40012C0F80029C978032901D00229FA
:103460000CD1D0F8001941F08051C0F8001905E0E6
:10347000D0F8001B41F08051C0F8001B00207047BD
:10348000F8B50B786FF060464F78764DDCB2012FBF
:1034900000EB431326D0D3F8104B6FF31204C3F89C
:1034A000104BD3F8104B2C40C3F8104B4C698D686F
:1034B000002C74D0D3F8107B2C44641EB4FBF5F4BC
:1034C000A4B206EAC4452F43C3F8107BD3F8105BBF
:1034D0008E686643C6F312042543C3F8105B012AC5
:1034E00072D0A6E04F6927B3D3F810796FF31207B3
:1034F000C3F81079D3F810792F40C3F810794F69C9
:103500008D68D3F810C92F447F1EB7FBF5F506EA86
:10351000C54545EA0C05C3F81059D3F810594E6952
:10352000C6F312063543C3F81059CD78012D10D0DB
:103530001BE0D3F810692E40C3F81069D3F8105976
:1035400045F40025C3F81059D3F810596FF312054C
:1035500009E0D3F8105925F0C045C3F81059D3F845
:10356000105945F00055C3F81059012A18D000EB46
:103570004413D3F8004944F00444C3F80049CC781C
:10358000012C2FD04A6962B30B78D0F8341801228D
:1035900003F00F039A401143C0F834185FE036E09F
:1035A0000A691AB100EB4413C3F81429C978012938
:1035B0000FD1D0F80818C90500EB4411D1F8002943
:1035C00003D442F0005202E02FE042F08052C1F8F2
:1035D000002900EB4410D0F8001941F00441C0F874
:1035E00000193CE0D0F80848E405D3F8004902D4BB
:1035F00044F0005401E044F08054C3F800490092C4
:103600008B8A0A78C9689BB200F7A0F827E0D3F844
:10361000104BC5F312052C43C3F8104BD3F8104BD5
:1036200044F40024C3F8104B59E7CA680AB1C3F840
:10363000142BC97801290CD1D0F80808C005D3F89B
:10364000000B02D440F0005001E040F08050C3F87D
:10365000000BD3F8000B40F00440C3F8000B00202F
:10366000F8BD0000FFFF07E0816841F001018160C3
:1036700000207047406900F001007047D0F818182A
:10368000D0F81C08084080B27047D0F81818D0F85D
:103690001C080840000C704710B5D0F8102801F045
:1036A0000F0300EB4114D0F83418D4F80809D940BE
:1036B00001F0010142EAC111084010BDD21C00F521
:1036C00080509308002210B502E00468521C10C11B
:1036D0009A42FAD3084610BDD0F800284FF4FE6392
:1036E00003EA011322F4FE62C0F80028D0F80018A3
:1036F0001943C0F8001800207047FEE74FF04070F3
:10370000E1EE100A7047000000000102030401020C
:10371000030406070809008002021F00000053543A
:103720004D202020202050726F647563742020206B
:0C373000202020202020302E303100000E
:040000050800029954
:00000001FF
