:020000040800F2
:100000008806002439030008071D0008F71B0008B4
:10001000051D00083F040008A5200008000000009E
:100020000000000000000000000000004D1F00085C
:10003000BD04000800000000091D00084F1F000853
:100040005303000853030008530300085303000838
:100050005303000853030008530300085303000828
:100060005303000853030008530300085303000818
:100070005303000853030008530300085303000808
:1000800053030008530300085303000853030008F8
:1000900053030008530300085303000853030008E8
:1000A00053030008530300085303000853030008D8
:1000B00053030008530300085303000853030008C8
:1000C00053030008530300085303000853030008B8
:1000D00053030008530300085303000853030008A8
:1000E00053030008530300080000000053030008F6
:1000F0005303000853030008530300085303000888
:100100005303000853030008530300085303000877
:100110005303000853030008530300085303000867
:100120005303000853030008530300085303000857
:100130005303000853030008530300085303000847
:1001400000000000000000000000000000000000AF
:100150005303000853030008530300085303000827
:100160005303000853030008530300085303000817
:100170005303000853030008530300080000000065
:1001800053030008530300085303000853030008F7
:1001900053030008530300085303000853030008E7
:1001A00053030008530300085303000853030008D7
:1001B00053030008530300085303000853030008C7
:1001C00053030008530300085303000853030008B7
:1001D00053030008530300085303000853030008A7
:1001E0005303000853030008530300085303000897
:1001F0005303000853030008530300085303000887
:100200005303000853030008530300085303000876
:100210005303000853030008530300085303000866
:1002200053030008530300085303000800000000B4
:1002300053030008530300080000000053030008A4
:100240005303000853030008530300085303000836
:100250005303000853030008530300085303000826
:100260005303000853030008530300085303000816
:100270005303000853030008530300080000000064
:100280005303000853030008530300080000000054
:10029000000000005303000800F002F800F03CF8F2
:1002A0000AA090E8000C82448344AAF10107DA45D1
:1002B00001D100F031F8AFF2090EBAE80F0013F0E7
:1002C000010F18BFFB1A43F001031847601E00001E
:1002D000801E0000103A24BF78C878C1FAD85207AF
:1002E00024BF30C830C144BF04680C6070470000B0
:1002F0000023002400250026103A28BF78C1FBD82F
:10030000520728BF30C148BF0B6070471FB501F0CE
:10031000FFFE1FBD10B510BD00F058F81146FFF7E5
:10032000F5FF01F0D1FE00F076F803B4FFF7F2FF1D
:1003300003BC00F07DF800000948804709480047E9
:10034000FEE7FEE7FEE7FEE7FEE7FEE7FEE7FEE785
:10035000FEE7FEE704480549054A064B70470000E2
:10036000092000089902000888000024880600245B
:1003700088020024880200244FF0000200B51346D2
:1003800094469646203922BFA0E80C50A0E80C50B5
:10039000B1F12001BFF4F7AF090728BFA0E80C5066
:1003A00048BF0CC05DF804EB890028BF40F8042B5F
:1003B00008BF704748BF20F8022B11F0804F18BFCC
:1003C00000F8012B7047704770477047754600F082
:1003D0002BF8AE4605006946534620F007008546D7
:1003E00018B020B5FFF7B6FFBDE820404FF000067B
:1003F0004FF000074FF000084FF0000B21F007010D
:10040000AC46ACE8C009ACE8C009ACE8C009ACE84F
:10041000C0098D46704710B50446AFF300802046F2
:10042000BDE81040FFF781BF004870472800002456
:1004300001491820ABBEFEE7260002007047FEE728
:10044000F0B5BFF34F8FBFF36F8F1A4900200860DC
:10045000BFF34F8FBFF36F8F174A116841F400311C
:100460001160BFF34F8FBFF36F8F13497031086076
:10047000BFF34F8F081F43F6FF7400680D4D103512
:10048000C0F34E31C0F3C90304EA4116184600BF59
:1004900046EA80772F60401EFAD2491EF4D2BFF39D
:1004A0004F8F106840F480301060BFF34F8FBFF360
:1004B0006F8FF0BD50EF00E014ED00E07047704723
:1004C00070B5044600F038F90546601C02D00448B7
:1004D0000078044400F030F9401BA042FAD370BD0C
:1004E000000000242DE9FC4F01257E4C00234FF035
:1004F000030A4FF0B04E4FF00F0BEBE005FA03F696
:1005000037403A0077D04F68012F05D0022F03D033
:10051000112F01D0122F1AD187684FEA4308D1F862
:100520000CC00AFA08F927EA09070CFA08FC4CEA99
:10053000070CC0F808C0476891F804C0B743CCF373
:10054000001C0CFA03FC4CEA070CC0F804C0C66897
:100550004FEA430CD1F80880E1460AFA0CF7BE4393
:10056000019708FA09F848EA0608C0F80C804E68B6
:10057000022E01D0122E12D1DE084FEA437C00EB8E
:10058000860600960F69366A4FEADC6C0BFA0CF8A7
:1005900007FA0CF726EA08063743009E37620E7901
:1005A0000768DDF804C006F0030606FA09F627EA34
:1005B0000C073E4306604E68F6001CD54A4E37686D
:1005C00047F00207376036689F0706F0020600967C
:1005D00023F0030606F1B046B1463F0FD6F8086493
:1005E000DFF808810BFA07FC404526EA0C0603D128
:1005F0004FF0000C41E06CE0DFF8F4C0604502D140
:100600004FF0010C39E0DFF8ECC0604502D14FF04B
:10061000020C32E0DFF8E0C0604502D14FF0030C7D
:100620002BE0DFF8D8C0604502D14FF0040C24E085
:10063000DFF8CCC0604502D14FF0050C1DE0DFF8BB
:10064000C4C0604502D14FF0060C16E0DFF8B8C018
:10065000604502D14FF0070C0FE0DFF8B0C06045F5
:1006600002D14FF0080C08E0DFF8A4C0604502D1C9
:100670004FF0090C01E04FF00A0C0CFA07FC4CEAB1
:10068000060CC9F808C426684F6826EA0206FF036C
:1006900000D51643266066684F6826EA0206BF0347
:1006A00000D516436660D1F804C07646DEF80070C7
:1006B0005FEACC2C27EA020700D517433760D1F850
:1006C00004C077685FEA8C2C27EA020700D517433D
:1006D00077605B1C0A681746DA407FF40FAFBDE80D
:1006E000FC8F000080000058F444025800000258BB
:1006F0000004025800080258000C0258001002586A
:100700000014025800180258001C02580020025819
:1007100000240258426931EA020200D109048161D1
:1007200070470AB1816170470904FBE7014800681E
:10073000000C70470010005C0148806870470000A2
:1007400000000024024881680278114481607047EB
:1007500000000024032010B500F0C6F800F08CFE65
:100760000F4A104914681368C4F3032203F00F03FF
:100770008A5CC95C02F01F0201F01F01D0400A4AE6
:1007800020FA01F1116009490860002000F010F81A
:1007900008B1012010BD00F079F8002010BD000064
:1007A000184402581A210008100000240C000024EC
:1007B00070B50D4D04462878A0B14FF47A71B1FBA5
:1007C000F0F00A490968B1FBF0F001F001FA48B90C
:1007D000102C07D200222146501E00F065F80020A0
:1007E0006C6070BD012070BD000000240C0000246E
:1007F000F0B5154C4378211D0A1D23600378F3B131
:1008000043680B60057BC67A817A437B2D07847B26
:1008100045EA0665C77B90F809C0067A90F800E0C3
:1008200045EAC14040EA834040EA444040EA07408C
:1008300040EA0C2040EA460040EA0E0001E00020B9
:1008400008601060F0BD000098ED00E0BFF35F8F1E
:10085000044800210368034A23F4803303607032A4
:100860001160704724ED00E0074A40F0010006499E
:1008700070321060086840F480300860BFF34F8F1A
:10088000BFF36F8F7047000024ED00E0054808B506
:10089000016841F002010160006800F00200009070
:1008A00008BD0000F44402580E4BF0B41B680D461E
:1008B000C3F30223C3F10706042E00D90426191D31
:1008C000072901D2002300E0DB1E012404FA06F10F
:1008D0009C40491E2940641E994014402143F0BCAD
:1008E00001F0E1BB0CED00E0064900F0070210B595
:1008F0004FF6FF040868044B204040EA02201843EA
:10090000086010BD0CED00E00000FA05134970B559
:100910000A68D243520705D5096801F007018142F0
:1009200013D118E00A6822F0070202430A60FFF7B9
:1009300003FF0A4D4FF47A760446083D07E000BFF6
:10094000FFF7FAFE001BB04201D9012070BD2868F4
:10095000C0438004F4D4002070BD00000C4802584D
:100960002DE9FC5F044650F8241B002500902E461C
:100970000801FE4FDFF8F8831DD5606E50B1B0F569
:10098000801F0CD0B0F5001F0ED0B0F5401F1DD059
:1009900001250FE0386840F40030386016E002218D
:1009A000201D01F0B3F903E00098022101F03EFAA6
:1009B00005000BD02E462088C00523D5606D052884
:1009C0001ED2DFE800F00C11161B1B00626ED8F877
:1009D000001021F440111143C8F80010EBE738680B
:1009E00040F40030386009E00021201D01F08EF94C
:1009F00003E00098002101F019FA05466DB100E00E
:100A000001252E462088800528D5A06D80281ED07F
:100A10000CDC90B140280ED114E0626DD8F80010C3
:100A200021F007011143C8F80010EBE7C02813D0EC
:100A3000B0F5807F10D001250FE0386840F4003019
:100A4000386009E00021201D01F060F903E0009802
:100A5000002101F0EBF9054695B12E462088DFF81C
:100A60001093400509F108092CD5D4F8A400B0F57D
:100A7000800F20D00DDCA0B1B0F5001F0FD115E024
:100A8000A26DD8F8001021F4E0711143C8F80010ED
:100A9000E4E7B0F5C00F13D0B0F5000F10D001257A
:100AA0000FE0386840F40030386009E00021201D74
:100AB00001F02CF903E00098002101F0B7F9054698
:100AC00075B12E46208800052DD5D4F8A800B0F1C8
:100AD000007F21D00EDCA8B1B0F1807F10D116E0EC
:100AE000D4F8A420D9F8001021F460011143C9F80A
:100AF0000010E7E7B0F1407F13D0B0F1806F10D065
:100B000001250FE0386840F40030386009E000212A
:100B1000201D01F0FBF803E00098002101F086F9A8
:100B200005466DB12E46206880011FD5A06CD8B156
:100B300010280FD0202812D0302815D0012514E01D
:100B4000D4F8A820D9F8001021F0E0611143C9F8C9
:100B50000010E8E7386840F40030386004E0022113
:100B6000201D01F0D3F805466DB12E462088C00443
:100B70002BD5E06DB0F5005F20D00DDCA0B1B0F555
:100B8000805F0FD115E07A48A26C001F016821F048
:100B9000300111430160E9E7B0F5405F13D0B0F5D3
:100BA000804F10D001250FE0386840F400303860E5
:100BB00009E00021201D01F0A9F803E000980021C0
:100BC00001F034F9054685B12E462088800429D5E8
:100BD000206EB0F5403F23D010DC08B3B0F5803F65
:100BE00014D0B0F5003F0FD115E0E26DD8F8001039
:100BF00021F4E0411143C8F80010E6E7B0F5802F7A
:100C00000ED0B0F5A02F0BD001250AE00121201D48
:100C100001F07CF803E00098012101F007F9054696
:100C20008DB12E46208840042AD5D4F8AC00B0F10E
:100C3000405F23D010DC08B3B0F1805F14D0B0F176
:100C4000005F0FD115E0226ED8F8001021F4E021EA
:100C50001143C8F80010E5E7B0F1804F0ED0B0F1B5
:100C6000A04F0BD001250AE00121201D01F04EF814
:100C700003E00098012101F0D9F805466DB12E4638
:100C8000208800041FD5E06ED8B1B0F1805F0ED08F
:100C9000B0F1005F10D0012514E0D4F8AC20D9F8F1
:100CA000001021F0E0411143C9F80010E8E738686E
:100CB00040F40030386004E00121201D01F026F8E6
:100CC00005466DB12E462068C0011ED5606CD0B1BE
:100CD00001280ED0022811D0032814D0012513E0DA
:100CE000E26ED8F8001021F040511143C8F800100E
:100CF000E9E7386840F40030386004E00221201D44
:100D000001F004F8054685B12E462068DFF85CB096
:100D10004002ABF11C0B57D51648016841F48071B5
:100D20000160FFF709FD82460EE01148626C001F6A
:100D3000016821F0030111430160E6E7FFF7FCFCC5
:100D4000A0EB0A0064283DD80A480068C005F5D524
:100D50007DBBDFF81CA0B4F8B0100AF1200ADAF865
:100D6000000001F4407100F4407005E02C4402588A
:100D70005044025800480258884211D0DAF8001056
:100D8000DAF8002021F4407142F48032CAF80020E1
:100D9000DAF8002022F48032CAF80020CAF80010E5
:100DA000D4F8B000B0F5807F21D1FFF7C5FC0190E9
:100DB00019E008E0FFF7C0FC0199411A41F28830C0
:100DC000814210D903252E462078DFF830A4C007D1
:100DD0003DD0A06F182838D026DC80B3082829D051
:100DE000102825D12CE0DAF800008007E2D5D4F8ED
:100DF000B010C1F30120032858460DD0016821F43A
:100E00007C510160B4F8B020DAF80010C2F30B0294
:100E10001143CAF80010D7E7F94A036802EA111231
:100E200023F47C511143ECE720280ED028280CD065
:100E300001250BE00121201D00F068FF04E004E023
:100E40000098012100F0F2FF05465DB12E462078A2
:100E500080071ED5606F062819D2DFE800F0160C57
:100E600011161616A26FDAF8001021F0380111439E
:100E7000CAF80010EBE70121201D00F047FF03E056
:100E80000098012100F0D2FF054675B100E0012570
:100E90002E46207840071FD5D4F89000062819D296
:100EA000DFE800F0160C11161616626FDAF8001063
:100EB00021F007011143CAF80010EAE70121201DC3
:100EC00000F024FF03E00098012100F0AFFF054689
:100ED0009DB100E001252E46207880062BD5D4F860
:100EE0008C00B0F1405F24D011DC10B3B0F1805F12
:100EF00015D0B0F1005F10D116E0D4F89020D9F8E9
:100F0000001021F007011143C9F80010E4E7B0F127
:100F1000804F0ED0B0F1A04F0BD001250AE0002188
:100F2000201D00F0F3FE03E00098022100F07EFF98
:100F300005468DB12E46207840062BD5D4F8980072
:100F4000B0F5406F24D011DC10B3B0F5806F15D030
:100F5000B0F5006F10D116E0D4F88C20DAF800104C
:100F600021F0E0411143CAF80010E4E7B0F5805FDA
:100F70000ED0B0F5A05F0BD001250AE00021201DA6
:100F800000F0C4FE03E00098022100F04FFF054688
:100F90008DB12E46207800062BD5D4F89C00B0F5F4
:100FA000C04F24D011DC10B3B0F5005F15D0B0F500
:100FB000804F10D116E0D4F89820D9F8001021F411
:100FC000E0511143C9F80010E4E7B0F5004F0ED02E
:100FD000B0F5204F0BD001250AE00021201D00F0C4
:100FE00095FE03E00098022100F020FF05464DB178
:100FF0002E46207800071ED5D4F88000B0F5805F1B
:101000000AD00FE0D4F89C20D9F8001021F46041F8
:101010001143C9F80010ECE70098022100F006FF28
:1010200000B10126D4F88020DAF8001021F44051F4
:101030001143CAF800102078C00613D5D4F89400E4
:10104000B0F5807F05D10098022100F0EFFE00B1DD
:101050000126D4F89420D9F8001021F440711143EE
:10106000C9F800102068000316D5D4F8A00038B1E4
:10107000B0F5803F09D0B0F5003F0BD001250AE064
:101080000021201D00F042FE03E00098022100F044
:10109000CDFE054685B12E462068400322D5D4F802
:1010A0008400B0F5801F11D0B0F5001F13D0B0F54B
:1010B000401F15D0012514E0D4F8A020D9F8001065
:1010C00021F440311143C9F80010E5E7386840F4D5
:1010D0000030386004E00098012100F0A7FE0546CA
:1010E00055B12E462068C0031CD5E06C70B1B0F538
:1010F000803F10D0012514E0D4F88420DAF80010E5
:1011000021F440111143CAF80010EBE7386840F4AD
:101110000030386004E00221201D00F0F7FD054694
:10112000CDB12E462068800005D50098022100F040
:101130007DFE00B10126206880031BD5E06FB8B1A9
:10114000B0F5807F10D0B0F5007F11D0B0F5407FB2
:101150000ED001250DE02948E26C0838016821F421
:10116000803111430160DDE7386840F400303860B9
:10117000F5B32E462068C00207D5226FD8F80010BC
:1011800021F000411143C8F800102068C00008D5C4
:10119000D4F8B420DBF8001021F480411143CBF8DF
:1011A00000102068800207D5A26ED8F8001021F048
:1011B00080711143C8F80010206840000CD5DBF89E
:1011C000001021F40041CBF80010DBF80010D4F837
:1011D000B8201143CBF800102068002807DA074830
:1011E000226D0838016821F040511143016000E090
:1011F00008E086B10120BDE8FC9F0000544402587D
:10120000CFFFFF00E26FDAF8001021F440711143C4
:10121000CAF80010AEE70020EDE700002DE9F05F0E
:1012200004000F467ED0DFF83882D8F8000000F0C6
:101230000F00B8420CD2D8F8001021F00F0139434A
:10124000C8F80010D8F8000000F00F00B84269D1CB
:101250002078844D40070AD52069296801F0700183
:10126000884204D9296821F070010143296020785F
:101270007C4E361D00070AD56069316801F07001A7
:10128000884204D9316821F070010143316020782F
:10129000C0060AD5A069316801F4E061884204D92A
:1012A000316821F4E061014331602078DFF8B4B1A6
:1012B00080060BF1080B0CD5E1695846DBF80020DD
:1012C00002F07002914204D9026822F070020A43CF
:1012D0000260207880070AD5E068296801F00F01D4
:1012E000884204D9296821F00F0101432960207840
:1012F000C0073ED05B49A2682868183920F47060A6
:10130000104328606068022818D0032819D00968A3
:10131000012819D0490700294ADADFF848A1AAF1C3
:10132000080A00E044E0DAF8002022F00702024355
:10133000CAF80020FFF700FA814612E00968890325
:10134000E9E709688901E6E7C905E4E7FFF7F4F989
:10135000A0EB090141F28830814202D90320BDE8A7
:10136000F09F6168DAF8000000F03800B0EBC10FC0
:10137000ECD1207880070AD5E068296801F00F01D8
:10138000884204D2296821F00F0101432960D8F86E
:101390000010404601F00F01B9420BD9016821F05D
:1013A0000F0139430160006800F00F00B84201D01E
:1013B0000120D4E7207840070AD52069296801F088
:1013C0007001884204D2296821F07001014329602C
:1013D000207800070AD56069316801F07001884201
:1013E00004D2316821F07001014331602078C006D9
:1013F0000AD5A069316801F4E061884204D23168FD
:1014000021F4E06101433160207880060CD5E16968
:101410005846DBF8002002F07002914204D20268C4
:1014200022F070020A43026000F026F80E492A6892
:101430002B68C2F3032203F00F038A5CC95C02F03D
:101440001F0201F01F01D040084A20FA01F111608B
:101450000749086007480068BDE8F05FFFF7A8B9D2
:1014600000200052184402581A21000810000024DD
:101470000C00002404000024454970B54548096863
:10148000434B103B11F0380208D00111082A03D059
:10149000102A0BD0182A0BD0084670BD196889068F
:1014A000FBD51968C1F3C101C84070BD3A4870BD91
:1014B0003749374D18310C1D24350A6809682668EC
:1014C0002D6802F0030406F00102C1F30511C5F313
:1014D000CC0515FB02F200EE102AB8EE400AE9B383
:1014E0002F4ADFED2E0AB7EE001A6CB1DFED2D1A90
:1014F000012C01D0022C43D002EE101A1068F8EE35
:10150000422A81EEA22A1EE01C68A40611D51B689F
:1015100001EE901A1168C3F3C103F8EE612AD840B6
:1015200001EE900AC1F30800F8EE611A81EEA22ADA
:101530000BE001EE901ADFED1C2A00BFF8EE611AF5
:10154000106882EEA12AC0F3080001EE900AF8EEBE
:10155000611A40EE201A31EE810A00E015E022EE19
:10156000000A1068C0F34620401C00EE900AF8EE16
:10157000600A80EE201ABCEEC10A10EE100A70BD9F
:1015800001EE901ADFED092AD8E7002070BD0000B7
:10159000104402580090D00300366E01000000395C
:1015A000304402580024744A0024744C001BB74B8A
:1015B0002DE9F05F04007CD0FF4F2078FE4D1837F6
:1015C000DFF8F493103DC00748D0D9F8000039681F
:1015D00000F03800102815D0182803D101F00300BE
:1015E00002280FD06068B0F5803F12D010B1B0F57E
:1015F000A02F18D0286820F480302860286820F4B4
:10160000802009E02868800328D560680028D2D0AF
:1016100024E0286840F480302860606888B1FFF7D3
:101620008BF8064609E0286840F480202860F0E73F
:10163000FFF782F8801B64287ED828688003F7D5DE
:101640000CE0FFF779F8064605E000BFFFF774F8F5
:10165000801B6428F0D828688003F7D4207841F2F2
:101660000308D54E0C3E800753D5D9F800003968E1
:1016700010F038000ED0182801D188070AD0E06891
:10168000A8B3296821F0190101432960FFF754F834
:1016900082461BE02868400702D5E06800288AD00F
:1016A000FFF744F840451BD82069402812D0316824
:1016B00000E0CCE021F47C3141EA0030306028E0E9
:1016C000FFF73AF8A0EB0A000228B5D828684007CF
:1016D000F6D5E5E7306820F47C3040F40030EDE7E3
:1016E000207C316821F0FE4141EA0060E6E7FFE737
:1016F000286820F001002860FFF71EF8824605E008
:10170000FFF71AF8A0EB0A00022895D828684007CE
:10171000F6D42078C0065FD5D9F80000DFF898B27B
:10172000396800F03800ABF1040B082812D01828F3
:1017300005D101F0030000E0EAE001280AD0E069E9
:101740000028286838D040F080002860FEF7F4FFB9
:10175000824623E02868C00523D5E069802876D139
:101760001FE0206A202821D0316821F0F84141EAA9
:101770008060306030E000BF94F82010DBF800207B
:1017800022F07C5242EA0161CBF8001024E000BF55
:10179000FEF7D2FFA0EB0A00022896D82868C00501
:1017A000F6D5FEF7C3FF4045E6D8DAE7306820F00B
:1017B000F84040F08040DCE720F080002860FEF731
:1017C000BBFF064605E000BFFEF7B6FF801B022800
:1017D0009BD82868C005F7D42078000729D576481B
:1017E0006169643000298046016811D041F001012F
:1017F0000160FEF7A1FF064605E000BFFEF79CFF73
:10180000801B0228C9D8D8F800008007F6D510E060
:1018100021F001010160FEF78FFF064605E000BFE1
:10182000FEF78AFF801B022872D8D8F800008007D4
:10183000F6D42078800623D5A0690028286810D027
:1018400040F480502860FEF777FF064605E02CE163
:10185000FEF772FF801B02285AD828688004F7D54B
:101860000EE020F480502860FEF766FF064604E094
:10187000FEF762FF801B02284AD828688004F7D44C
:10188000207840074FD5DFF83481D8F8001041F4B4
:101890008071C8F80010FEF74FFF064605E000BF54
:1018A000FEF74AFF801B642832D8D8F80000C00534
:1018B000F6D5414EA068603601280AD008B1052847
:1018C00013D0306820F001003060306820F0040050
:1018D00002E0306840F001003060A06841F2883AD0
:1018E00090B1FEF729FF80460AE0306840F004001E
:1018F0003060EEE7FEF720FFA0EB0801514507D866
:1019000030688007F6D50EE0FEF716FF804607E048
:1019100084E000BFFEF710FFA0EB080151457DD821
:1019200030688007F6D4606AF0B3DFF88C80D9F8AD
:10193000001008F12008C1F3C20103296FD002286A
:10194000286820F08070286003D0FEF7F5FE04467A
:1019500080E0FEF7F1FE064605E000BFFEF7ECFE74
:10196000801B022873D828688001F7D4E26A40F20D
:10197000F331386854F8283F884340EA021018438E
:101980003860217B4FF4FE0C22894FF0FE47208AFD
:101990004902267D521E401EA1F5007189B20CEA53
:1019A0000040C2F3080200E081E01143761E0143CB
:1019B000014807EA066203E0104402580048025852
:1019C0001C3011433B4AC8F80010016821F00101A6
:1019D000016011684FF6F876236AB14341EAC3010A
:1019E00011600168A26921F00C01114301600168D6
:1019F000E26921F0020111430160016841F4803184
:101A00000160016841F400310160016841F4802106
:101A10000160016841F00101016001E017E01DE093
:101A2000286840F080702860FEF786FE044604E0D7
:101A3000FEF782FE001B022809D828688001F7D52E
:101A400035E000BFFEF778FE001B022802D9032014
:101A5000BDE8F09F28688001F4D428E039680128A7
:101A6000D8F8000021D0A26A01F0030393421CD1F0
:101A7000E26AC1F305118A4217D1216BC0F3080253
:101A8000491E8A4211D1616BC0F34622491E914220
:101A90000BD1A16BC0F30642491E914205D1E16B07
:101AA000C0F30660491E814201D00120D0E700202A
:101AB000CEE70000344402582DE9F0470446007A8E
:101AC00000278A4601280ED0607A01254FF00009D0
:101AD0002572012809D00420E060012784F80890CD
:101AE0003846BDE8F0870220FBE74FF0020884F893
:101AF0000980FEF721FE06460CE000BFFEF71CFE43
:101B0000801B022806D96572C4F80C80012084F875
:101B10000890E6E720684068C043C007EED120681F
:101B200080682061CAF800006572D7E72DE9F041AE
:101B300004002AD0607A4FF0000820B9204684F8CB
:101B4000088000F031F8022666720427D4E900020A
:101B5000016821F02001114301602068016841F013
:101B60000401016020684068C043400601D46772E8
:101B70000BE0FEF7E1FD05460AE000BFFEF7DCFDE5
:101B8000401B022804D96772E6600120BDE8F0819D
:101B900020684068C0434007F0D501216172C4F855
:101BA0000C800020F2E7000008B500680649884272
:101BB00008D10648016841F040010160006800F06A
:101BC0004000009008BD000000180248DC440258A4
:101BD000401EB0F1807F10B501D3012010BD4FF041
:101BE000E02460610F21601700F05DFA0020A06121
:101BF0000721216110BDFEE77FB500250095019505
:101C000002950395FEF722FE01248DF800401B206B
:101C10008DF808008DF80B504FF010468DF80A40F3
:101C200068468DF80150019603948DF80950FEF72F
:101C3000DFFD16208DF808008DF80F4005218DF886
:101C40000B1068468DF80E408DF800408DF80D5051
:101C50008DF80A408DF8014001968DF80C508DF8F2
:101C60000950FEF7C5FD0420FEF7FEFD7FBD000014
:101C700010B586B014216846FEF77EFB1548016852
:101C800041F010010160016801F010010591016847
:101C900041F004010160016801F00401059101684F
:101CA00041F080010160006800220B4C082100F027
:101CB000800005902046FEF734FD002108200090AA
:101CC00001222046CDE9012103916946FEF70AFC75
:101CD00006B010BDE0440258001002580848002227
:101CE000064910B5C0E90012FFF720FF002803D015
:101CF000BDE81040FEF7E3BB10BD0000001802482D
:101D000014000024FEE77047704700002DE9F047FB
:101D1000454D044689464FF0000A2868C0438007B5
:101D20000AD0414E283E306820F080603060FEF7D7
:101D300003FD0746B04608E00120BDE8F08700BF7C
:101D4000FEF7FAFCC01B022867D8D8F80000000193
:101D5000F6D4206829684FF4FE0721F47C313E0256
:101D600041EA00302860207AA389B4F804C0400218
:101D70002D4D2D495B1E227CACF1010C1035091D47
:101D8000A0F5007080B2521ECCF3080C07EA0343A2
:101D900040EA0C00184306EA026210432860086813
:101DA000626920F0C000104308600A68A06922F050
:101DB000200202430A60281D0A6822F010020A600D
:101DC00002684FF6F873E4699A4342EAC40202607B
:101DD0000868B9F1000F40F010020A6011D00868DD
:101DE000B9F1010F11D040F400100860D8F80000DC
:101DF000444640F08060C8F80000FEF79DFC0546B0
:101E00000DE0086840F40020EFE740F48010ECE7B4
:101E1000FEF792FC401B022801D903208DE72068C1
:101E20000001F5D5504688E7284402582DE9F047CF
:101E3000454D044689464FF0000A2868C043800794
:101E40000AD0414E283E306820F080503060FEF7C6
:101E500073FC0746B04608E00120BDE8F08700BFEC
:101E6000FEF76AFCC01B022867D8D8F80000800083
:101E7000F6D4208829684FF4FE0721F07C713E02D9
:101E800041EA00502860207AA389B4F804C04002D7
:101E90002D4D2D495B1E227CACF1010C1835091D1E
:101EA000A0F5007080B2521ECCF3080C07EA034381
:101EB00040EA0C00184306EA0262104328600868F2
:101EC000626920F44060104308600A68A06922F447
:101ED000007202430A60281D0A6822F480720A60B8
:101EE00002684FF6F873E4699A4342EAC40202605A
:101EF0000868B9F1000F40F480720A6011D00868D8
:101F0000B9F1010F11D040F080700860D8F80000DE
:101F1000444640F08050C8F80000FEF70DFC05462E
:101F20000DE0086840F48000EFE740F40000ECE7C3
:101F3000FEF702FC401B022801D903208DE7206830
:101F40008000F5D5504688E7284402587047FEF7D0
:101F5000F9BB000030B5CBB04C212FA8FEF70CFA2E
:101F6000202142A8FEF708FABC216846FEF704FAD1
:101F70000220FEF7CBFC224922480A6822F0010227
:101F80000A6009680168002421F4404141F480415D
:101F90000160016801F440414A9101688904FCD55F
:101FA000402501233593022022222F92CDE932359C
:101FB0000C2104223A92CDE938040DF1F80CCDE958
:101FC0003B103D908CE813002FA84194FFF7F0FAE6
:101FD0000DF5847C3F2003214FF410628CE837001C
:101FE0002B01002142A8CDE947534995FFF716F987
:101FF000E8021F9400906846FEF7B2FC4BB030BD7B
:102000002C04005818480258214A30B52149146858
:102010000020204B44F47004146010330A681E4DF5
:1020200042F001020A6018600A681A4B2A400A60EE
:1020300018331C1D251D174A186028322060131DF7
:1020400028601C1D251D10602A1D1860131D2060AE
:102050001C1D2860251D10601860206028600A681B
:102060000C4B0E4C22F4802260330A60186020680A
:102070006FF30F00B0F1005F03D209490120C1F8EE
:1020800008014FF0006002498039086030BD00004F
:1020900088ED00E0004402587FEDF6EA0010005C95
:1020A00000800051FEE7090700284FEA116104DBB8
:1020B00000F1E02080F80014704700F00F0000F1FC
:1020C000E02080F8141D704708B5FFF795FDFEF776
:1020D000B7F9FEF73FFBFFF73DFFFFF7C9FDFFF73D
:1020E000FDFD094C4FF4167508486946FFF7E4FCFE
:1020F00008212046FEF70EFB0098B0FBF5F105FB2A
:102100001100FEF7DDF9EFE700100258140000247B
:102110004FF04070E1EE100A70470000000001022D
:102120000304010203040607080900004C2100080B
:102130000000002414000000D40200086021000800
:102140001400002474060000F002000801000000E2
:1021500010000000000000000090D0030090D003A9
:040000050800029954
:00000001FF
