:020000040800F2
:10000000480D002451030008B73900088131000869
:10001000B5390008F5090008BD4F000800000000D0
:10002000000000000000000000000000754A000809
:10003000810A000800000000B9390008774A00086A
:100040006B0300086B0300086B0300086B030008D8
:100050006B0300086B0300086B0300086B030008C8
:100060006B0300086B0300086B0300086B030008B8
:100070006B0300086B0300086B0300086B030008A8
:100080006B0300086B0300086B0300086B03000898
:100090006B0300086B0300086B0300086B03000888
:1000A0006B0300086B0300086B0300086B03000878
:1000B0006B0300086B0300086B0300086B03000868
:1000C0006B0300086B0300086B0300086B03000858
:1000D0006B0300086B0300086B0300086B03000848
:1000E0006B0300086B030008000000006B030008AE
:1000F0006B0300086B0300086B0300086B03000828
:100100006B0300086B0300086B0300086B03000817
:100110006B0300086B0300086B0300086B03000807
:100120006B0300086B0300086B0300086B030008F7
:100130006B0300086B0300086B0300086B030008E7
:1001400000000000000000000000000000000000AF
:100150006B0300086B0300086B0300086B030008C7
:100160006B0300086B0300086B0300086B030008B7
:100170006B0300086B0300086B0300086B030008A7
:100180006B0300086B0300086B0300086B03000897
:100190006B0300086B0300086B0300086B03000887
:1001A0006B0300086B0300086B0300086B03000877
:1001B0006B0300086B0300086B0300086B03000867
:1001C0006B0300086B0300086B0300086B03000857
:1001D0006B0300086B0300086B0300086B03000847
:1001E0006B0300086B0300086B0300086B03000837
:1001F0006B0300086B0300086B0300086B03000827
:100200006B0300086B0300086B0300086B03000816
:100210006B0300086B0300086B0300086B03000806
:100220006B0300086B0300086B030008000000006C
:100230006B0300086B030008000000006B0300085C
:100240006B0300086B0300086B0300086B030008D6
:100250006B0300086B0300086B0300086B030008C6
:100260006B0300086B0300086B0300086B030008B6
:100270006B0300086B0300086B030008000000001C
:100280006B0300086B0300086B030008000000000C
:10029000000000006B03000800F002F800F048F8CE
:1002A0000AA090E8000C82448344AAF10107DA45D1
:1002B00001D100F03DF8AFF2090EBAE80F0013F0DB
:1002C000010F18BFFB1A43F001031847B0BE00002E
:1002D000D0BE0000103A24BF78C878C1FAD85207BF
:1002E00024BF30C830C144BF04680C6070470000B0
:1002F0000023002400250026103A28BF78C1FBD82F
:10030000520728BF30C148BF0B607047642900F016
:10031000D180782900F00A81002070471FB504F0D1
:10032000ADFF9DE8030000F00FFA1FBD10B510BD32
:1003300000F0DEFA1146FFF7F1FF04F01FFF00F0B6
:10034000FCFA03B4FFF7F2FF03BC00F02DFB000042
:100350000948804709480047FEE7FEE7FEE7FEE759
:10036000FEE7FEE7FEE7FEE7FEE7FEE70448054995
:10037000054A064B70470000314B000899020008FF
:1003800048070024480D0024480900244809002497
:1003900070B5064600F0BCF9056806F10B0020F0C8
:1003A0000704B4429CBF002070BD2B466A68BAB1F6
:1003B0001068A04210D304F1080188423CBF506885
:1003C000586007D35168101941601168091B01601A
:1003D00058601460101D70BD13465268002AE7D1A2
:1003E0002146284600F09CF90028DED170BD70B58A
:1003F0000446051F00F08CF90068002C14BF446807
:1004000070BD002C18BFAC423CBF20466468F8D3D6
:1004100001680A18AA4218BF456003D12A68054638
:100420001144016028684119A1421CBF6C6070BD75
:100430006168696021680844286070BD0FB41CB50C
:10044000074B06AA7B4469460090059800F011FA14
:100450000020694600F020FA1CBC5DF814FB000087
:100460005104000070B5044685690068C10601D5D5
:10047000302600E02026C00707D070BDD4E9012156
:1004800030469047206A401C20626D1EF6D570BD34
:1004900070B5044685690078C00707D170BDD4E9FE
:1004A000012120209047206A401C20626D1EF6D555
:1004B00070BD00002DE9F041064600241068752942
:1004C000314616A510D0AFF30080002802DA404272
:1004D00013A507E031688A0701D512A502E0490794
:1004E00004D511A5012401E0AFF3008000210A2208
:1004F00006F1240709E0B0FBF2FCB0FBF2F302FBCB
:100500001C00303078541846491C0028F3D123468B
:100510002A463046BDE8F04100F04CB9000000002A
:100520002D0000002B0000002000000070B50446E4
:100530000D4621461068AFF300802188090502D5D9
:100540000F4A7A4402E00E4A7A440E32002104F146
:10055000240305E000F00F060009965D5E54491C77
:100560000028F7D120780023000704D5702D02D091
:1005700009B1022311322046BDE8704000F01AB9DB
:10058000FDBB00002DE9F05F894604464FF0000AEC
:10059000DFF824B1FB44C0F820A02046E16888477A
:1005A00000287DD0252806D0D4E901219047206A73
:1005B000401C2062F1E700255F462046E16888473D
:1005C0002028064607DB312E05D2B81910F8200C7A
:1005D00008B10543F1E7A80701D525F00405C4F8E3
:1005E0001CA00027C4F818A02A2E09D0304604F019
:1005F000F7FC38B304EB8708303EC8F8186019E000
:1006000059F8041B204604EB87029161E168884792
:10061000012F064618D1E069002820DA25F02005D0
:100620001DE0D8F8180000EB800006EB40003038E1
:10063000C8F818002046E1688847064604F0D0FC58
:100640000028EED1012F0AD02E2E08D12046E168D5
:1006500088477F1C0646022F45F02005C4DBA069B1
:10066000002803DA404245F00105A061E80701D007
:1006700025F01005A6B1A6F14100192802D82036B0
:1006800045F400654A463146204625604D46FFF751
:100690003DFE60B1012807D0ED1D25F0070000E008
:1006A00007E000F1080978E705F1040975E730462D
:1006B0007AE7206ABDE8F09FD3BB00004FF000024C
:1006C00000B5134694469646203922BFA0E80C5048
:1006D000A0E80C50B1F12001BFF4F7AF090728BF23
:1006E000A0E80C5048BF0CC05DF804EB890028BF9F
:1006F00040F8042B08BF704748BF20F8022B11F0C8
:10070000804F18BF00F8012B704770477047704743
:1007100000487047F00600247047704770477047E4
:1007200038B504460A4600206946AFF30080002829
:1007300008BF38BD02460099204600F0B7F80120F6
:1007400038BD012000F0CCB8F8B5AFF30080054605
:1007500000200C46102000BF0646A819A0420DD963
:10076000324669460020AFF30080070008BF00F062
:10077000B7F80098A04218BF0546C419FFF7C8FF94
:1007800005600746F01D20F007004619284600F0D6
:100790000AF8B44208BFF8BDA21B31463868BDE86C
:1007A000F84000F083B800210160C0E901107047F3
:1007B000102070472DE9F0470D46994692460446B1
:1007C00000F124080168880604D5E06921F01001D1
:1007D000216000E00120A84201DD471B00E0002766
:1007E000A1697A1902EB0900081AA0612078C006F5
:1007F00002D42046FFF736FE002608E0D4E90121A6
:100800001AF806009047206A401C761C20624E456C
:10081000F4DB2078C0060AD52046FFF723FE06E069
:10082000D4E9012130209047206A401C2062381E04
:10083000A7F10107F4DC07E0D4E9012118F805006D
:100840009047206A401C2062281EA5F10105F3DCB8
:100850002046FFF71DFE2078000602D50220BDE8E5
:10086000F0870120FBE7000001694A1C026108785B
:10087000704700B58FB0CDE90131002105910549E0
:100880007944CDE9031011466846FFF77BFE0FB0AF
:1008900000BD0000E5FFFFFF0A6802F8010B0A60D7
:1008A0007047000000487047E8060024034640688F
:1008B0008C46002818BF88423CBF03464068F8D3E6
:1008C00018681844884207D00CF1030020F0070094
:1008D000001D411A521A0146081D0A60FFF787BD24
:1008E00010B500F039F8BDE8104000F02FB870479F
:1008F0007546FFF7D7FFAE4605006946534620F020
:100900000700854618B020B5FFF730FDBDE8204050
:100910004FF000064FF000074FF000084FF0000BBB
:1009200021F00701AC46ACE8C009ACE8C009ACE86E
:10093000C009ACE8C0098D46704710B50446AFF356
:1009400000802046BDE81040FFF7FBBC002801D026
:1009500000F02AB87047000010B5012805D000212A
:1009600003A000F027F8012010BD09A1F8E700005E
:1009700053494752544D454D3A204F7574206F6688
:100980002068656170206D656D6F727900000000F0
:100990003A2048656170206D656D6F727920636FD4
:1009A000727275707465640001491820ABBEFEE771
:1009B0002600020070B505460C460A2000E06D1CBA
:1009C00000F011F835B128780028F8D102E0641C55
:1009D00000F009F814B120780028F8D1BDE8704083
:1009E0000A20AFF3008008B569468DF800000320A7
:1009F000ABBE08BDFEE700001F4B0020F0B5196834
:100A0000890311D4BFF34F8FBFF36F8F1B49086069
:100A1000BFF34F8FBFF36F8F196841F40031196036
:100A2000BFF34F8FBFF36F8F1968C90323D41249E7
:100A300070310860BFF34F8F081F43F6FF740068E2
:100A40000E4D1035C0F34E31C0F3C90204EA411611
:100A5000104600BF46EA80772F60401EFAD2491E3A
:100A6000F4D2BFF34F8F186840F480301860BFF3A2
:100A70004F8FBFF36F8FF0BD14ED00E050EF00E03B
:100A800070474FF4FA70014602F0D2BD70B50446CB
:100A900000F03EF90546601C02D00448007804448A
:100AA00000F036F9401BA042FAD370BD9400002438
:100AB0002DE9FC4F01257E4C00234FF0030A4FF037
:100AC000B04E4FF00F0BEBE005FA03F637403A005B
:100AD00077D04F68012F05D0022F03D0112F01D0FE
:100AE000122F1AD187684FEA4308D1F80CC00AFACE
:100AF00008F927EA09070CFA08FC4CEA070CC0F8C9
:100B000008C0476891F804C0B743CCF3001C0CFA46
:100B100003FC4CEA070CC0F804C0C6684FEA430C5B
:100B2000D1F80880E1460AFA0CF7BE43019708FAAB
:100B300009F848EA0608C0F80C804E68022E01D079
:100B4000122E12D1DE084FEA437C00EB8606009697
:100B50000F69366A4FEADC6C0BFA0CF807FA0CF7EF
:100B600026EA08063743009E37620E790768DDF8EB
:100B700004C006F0030606FA09F627EA0C073E430E
:100B800006604E68F6001CD54A4E376847F00207EB
:100B9000376036689F0706F00206009623F00306CA
:100BA00006F1B046B1463F0FD6F80864DFF8088179
:100BB0000BFA07FC404526EA0C0603D14FF0000C67
:100BC00041E06CE0DFF8F4C0604502D14FF0010C69
:100BD00039E0DFF8ECC0604502D14FF0020C32E0A2
:100BE000DFF8E0C0604502D14FF0030C2BE0DFF8E6
:100BF000D8C0604502D14FF0040C24E0DFF8CCC02F
:100C0000604502D14FF0050C1DE0DFF8C4C060451F
:100C100002D14FF0060C16E0DFF8B8C0604502D1F3
:100C20004FF0070C0FE0DFF8B0C0604502D14FF085
:100C3000080C08E0DFF8A4C0604502D14FF0090CB1
:100C400001E04FF00A0C0CFA07FC4CEA060CC9F85C
:100C500008C426684F6826EA0206FF0300D516433B
:100C6000266066684F6826EA0206BF0300D5164371
:100C70006660D1F804C07646DEF800705FEACC2CDE
:100C800027EA020700D517433760D1F804C0776818
:100C90005FEA8C2C27EA020700D5174377605B1CBC
:100CA0000A681746DA407FF40FAFBDE8FC8F0000FA
:100CB00080000058F4440258000002580004025812
:100CC00000080258000C0258001002580014025884
:100CD00000180258001C0258002002580024025834
:100CE0000069084000D0012070470AB18161704757
:100CF0000904FBE702480068C0F30B0070470000DE
:100D00000010005C01480068000C70470010005C97
:100D10000148806870470000940000240248816800
:100D2000027811448160704794000024032010B5BC
:100D300000F0C6F800F0A0FE0F4A104914681368CE
:100D4000C4F3032203F00F038A5CC95C02F01F02A4
:100D500001F01F01D0400A4A20FA01F1116009494F
:100D60000860002000F010F808B1012010BD00F06C
:100D700079F8002010BD00001844025833C1000863
:100D8000A4000024A000002470B50D4D044628786E
:100D9000A0B14FF47A71B1FBF0F00A490968B1FBD8
:100DA000F0F001F0DDFF48B9102C07D200222146F7
:100DB000501E00F065F800206C6070BD012070BD11
:100DC00094000024A0000024F0B5154C4378211DA8
:100DD0000A1D23600378F3B143680B60057BC67A74
:100DE000817A437B2D07847B45EA0665C77B90F8B3
:100DF00009C0067A90F800E045EAC14040EA834025
:100E000040EA444040EA074040EA0C2040EA4600FD
:100E100040EA0E0001E0002008601060F0BD000014
:100E200098ED00E0BFF35F8F044800210368034A98
:100E300023F48033036070321160704724ED00E0CA
:100E4000074A40F00100064970321060086840F41B
:100E500080300860BFF34F8FBFF36F8F7047000083
:100E600024ED00E0054808B5016841F00201016089
:100E7000006800F00200009008BD0000F444025831
:100E80000E4BF0B41B680D46C3F30223C3F10706F3
:100E9000042E00D90426191D072901D2002300E0E1
:100EA000DB1E012404FA06F19C40491E2940641E01
:100EB000994014402143F0BC04F081B80CED00E0EF
:100EC000064900F0070210B54FF6FF040868044B0E
:100ED000204040EA02201843086010BD0CED00E0FD
:100EE0000000FA05134970B50A68D243520705D5C8
:100EF000096801F00701814213D118E00A6822F065
:100F0000070202430A60FFF703FF0A4D4FF47A76A7
:100F10000446083D07E000BFFFF7FAFE001BB042A1
:100F200001D9012070BD2868C0438004F4D400209A
:100F300070BD00000C4802580248016841F48071FD
:100F400001607047004802582DE9FC5F044650F8E4
:100F5000241B002500902E460801FE4FDFF8F88381
:100F60001DD5606E50B1B0F5801F0CD0B0F5001FDC
:100F70000ED0B0F5401F1DD001250FE0386840F4B9
:100F80000030386016E00221201D02F017FD03E05A
:100F90000098022102F0A2FD05000BD02E46208809
:100FA000C00523D5606D05281ED2DFE800F00C11C6
:100FB000161B1B00626ED8F8001021F4401111437B
:100FC000C8F80010EBE7386840F40030386009E0FA
:100FD0000021201D02F0F2FC03E00098002102F045
:100FE0007DFD05466DB100E001252E462088800577
:100FF00028D5A06D80281ED00CDC90B140280ED1E1
:1010000014E0626DD8F8001021F007011143C8F810
:101010000010EBE7C02813D0B0F5807F10D0012579
:101020000FE0386840F40030386009E00021201DEE
:1010300002F0C4FC03E00098002102F04FFD0546D9
:1010400095B12E462088DFF81093400509F1080974
:101050002CD5D4F8A400B0F5800F20D00DDCA0B1C1
:10106000B0F5001F0FD115E0A26DD8F8001021F4E3
:10107000E0711143C8F80010E4E7B0F5C00F13D0D9
:10108000B0F5000F10D001250FE0386840F40030B3
:10109000386009E00021201D02F090FC03E0009878
:1010A000002102F01BFD054675B12E462088000583
:1010B0002DD5D4F8A800B0F1007F21D00EDCA8B166
:1010C000B0F1807F10D116E0D4F8A420D9F8001038
:1010D00021F460011143C9F80010E7E7B0F1407F47
:1010E00013D0B0F1806F10D001250FE0386840F4C4
:1010F0000030386009E00021201D02F05FFC03E0B1
:101100000098002102F0EAFC05466DB12E462068E9
:1011100080011FD5A06CD8B110280FD0202812D084
:10112000302815D0012514E0D4F8A820D9F80010F3
:1011300021F0E0611143C9F80010E8E7386840F495
:101140000030386004E00221201D02F037FC054623
:101150006DB12E462088C0042BD5E06DB0F5005F40
:1011600020D00DDCA0B1B0F5805F0FD115E07A483A
:10117000A26C001F016821F0300111430160E9E712
:10118000B0F5405F13D0B0F5804F10D001250FE0CF
:10119000386840F40030386009E00021201D02F07A
:1011A0000DFC03E00098002102F098FC054685B193
:1011B0002E462088800429D5206EB0F5403F23D0EC
:1011C00010DC08B3B0F5803F14D0B0F5003F0FD16C
:1011D00015E0E26DD8F8001021F4E0411143C8F8A1
:1011E0000010E6E7B0F5802F0ED0B0F5A02F0BD0A1
:1011F00001250AE00121201D02F0E0FB03E0009838
:10120000012102F06BFC05468DB12E46208840047A
:101210002AD5D4F8AC00B0F1405F23D010DC08B37D
:10122000B0F1805F14D0B0F1005F0FD115E0226EF5
:10123000D8F8001021F4E0211143C8F80010E5E7C8
:10124000B0F1804F0ED0B0F1A04F0BD001250AE0D5
:101250000121201D02F0B2FB03E00098012102F001
:101260003DFC05466DB12E46208800041FD5E06E7A
:10127000D8B1B0F1805F0ED0B0F1005F10D0012581
:1012800014E0D4F8AC20D9F8001021F0E04111436B
:10129000C9F80010E8E7386840F40030386004E02E
:1012A0000121201D02F08AFB05466DB12E46206803
:1012B000C0011ED5606CD0B101280ED0022811D01B
:1012C000032814D0012513E0E26ED8F8001021F0B5
:1012D00040511143C8F80010E9E7386840F4003085
:1012E000386004E00221201D02F068FB054685B14C
:1012F0002E462068DFF85CB04002ABF11C0B57D5DE
:101300001648016841F480710160FFF701FD8246D3
:101310000EE01148626C001F016821F003011143C7
:101320000160E6E7FFF7F4FCA0EB0A0064283DD873
:101330000A480068C005F5D57DBBDFF81CA0B4F8ED
:10134000B0200AF1200ADAF8001002F4407001F42B
:10135000407105E02C44025850440258004802589D
:10136000814211D0DAF80010DAF8002021F440713F
:1013700042F48032CAF80020DAF8002022F48032E9
:10138000CAF80020CAF80010D4F8B000B0F5807F89
:1013900021D1FFF7BDFC019019E008E0FFF7B8FC90
:1013A0000199411A41F28830814210D903252E4615
:1013B0002078DFF844A4C0073DD0A06F182838D0AB
:1013C00026DC80B3082829D0102825D12CE0DAF8B3
:1013D00000008007E2D5D4F8B010C1F30120032843
:1013E00058460DD0016821F47C510160B4F8B0205A
:1013F000DAF80010C2F30B021143CAF80010D7E765
:10140000FE4A036802EA111223F47C511143ECE70F
:1014100020280ED028280CD001250BE00121201D0A
:1014200002F0CCFA04E004E00098012102F056FB3F
:1014300005465DB12E46207880071ED5606F0628D0
:1014400019D2DFE800F0160C11161616A26FDAF8A2
:10145000001021F038011143CAF80010EBE7012118
:10146000201D02F0ABFA03E00098012102F036FBE8
:10147000054675B100E001252E46207840071FD5AE
:10148000D4F89000062819D2DFE800F0160C1116E7
:101490001616626FDAF8001021F007011143CAF83E
:1014A0000010EAE70121201D02F088FA03E000980D
:1014B000012102F013FB05469DB100E001252E46F7
:1014C000207880062BD5D4F88C00B0F1405F24D072
:1014D00011DC10B3B0F1805F15D0B0F1005F10D116
:1014E00016E0D4F89020D9F8001021F0070111433C
:1014F000C9F80010E4E7B0F1804F0ED0B0F1A04F72
:101500000BD001250AE00021201D02F057FA03E06C
:101510000098022102F0E2FA05468DB12E462078AD
:1015200040062BD5D4F89800B0F5406F24D011DCDC
:1015300010B3B0F5806F15D0B0F5006F10D116E084
:10154000D4F88C20DAF8001021F0E0411143CAF8F9
:101550000010E4E7B0F5805F0ED0B0F5A05F0BD0CF
:1015600001250AE00021201D02F028FA03E000987E
:10157000022102F0B3FA05468DB12E46207800060E
:101580002BD5D4F89C00B0F5C04F24D011DC10B39B
:10159000B0F5005F15D0B0F5804F10D116E0D4F84B
:1015A0009820D9F8001021F4E0511143C9F8001037
:1015B000E4E7B0F5004F0ED0B0F5204F0BD0012579
:1015C0000AE00021201D02F0F9F903E00098022151
:1015D00002F084FA05464DB12E46207800071ED54C
:1015E000D4F88000B0F5805F0AD00FE0D4F89C20DA
:1015F000D9F8001021F460411143C9F80010ECE75C
:101600000098022102F06AFA00B10126D4F8802085
:10161000DAF8001021F440511143CAF80010207884
:10162000C00613D5D4F89400B0F5807F05D100989A
:10163000022102F053FA00B10126D4F89420D9F81F
:10164000001021F440711143C9F800102068000314
:1016500016D5D4F8A00038B1B0F5803F09D0B0F568
:10166000003F0BD001250AE00021201D02F0A6F961
:1016700003E00098022102F031FA054685B12E46BA
:101680002068400322D5D4F88400B0F5801F11D023
:10169000B0F5001F13D0B0F5401F15D0012514E0A0
:1016A000D4F8A020D9F8001021F440311143C9F832
:1016B0000010E5E7386840F40030386004E0009836
:1016C000012102F00BFA054655B12E462068C003F1
:1016D0001CD5E06C70B1B0F5803F10D0012514E04E
:1016E000D4F88420DAF8001021F440111143CAF82C
:1016F0000010EBE7386840F40030386004E0022165
:10170000201D02F05BF90546CDB12E462068800011
:1017100005D50098022102F0E1F900B10126206808
:1017200080031BD5E06FB8B1B0F5807F10D0B0F565
:10173000007F11D0B0F5407F0ED001250DE02E487E
:10174000E26C0838016821F4803111430160DDE763
:10175000386840F400303860F5B32E462068C00287
:1017600007D5226FD8F8001021F000411143C8F8C6
:1017700000102068C00008D5D4F8B420DBF80010B1
:1017800021F480411143CBF800102068800207D576
:10179000A26ED8F8001021F080711143C8F8001033
:1017A000206840000CD5DBF8001021F40041CBF894
:1017B0000010DBF80010D4F8B8201143CBF800106B
:1017C0002068002807DA0C48226D0838016821F0EB
:1017D00040511143016000E014E02068000208D588
:1017E000D4F88820DAF8001021F440011143CAF837
:1017F000001086B1012003E054440258CFFFFF00DF
:10180000BDE8FC9FE26FDAF8001021F4407111434B
:10181000CAF80010A2E70020EDE700002DE9F05F14
:1018200004000F467ED0DFF83882D8F8000000F0C0
:101830000F00B8420CD2D8F8001021F00F01394344
:10184000C8F80010D8F8000000F00F00B84269D1C5
:101850002078844D40070AD52069296801F070017D
:10186000884204D9296821F0700101432960207859
:101870007C4E361D00070AD56069316801F07001A1
:10188000884204D9316821F0700101433160207829
:10189000C0060AD5A069316801F4E061884204D924
:1018A000316821F4E061014331602078DFF8B4B1A0
:1018B00080060BF1080B0CD5E1695846DBF80020D7
:1018C00002F07002914204D9026822F070020A43C9
:1018D0000260207880070AD5E068296801F00F01CE
:1018E000884204D9296821F00F010143296020783A
:1018F000C0073ED05B49A2682868183920F47060A0
:10190000104328606068022818D0032819D009689D
:10191000012819D0490700294ADADFF848A1AAF1BD
:10192000080A00E044E0DAF8002022F0070202434F
:10193000CAF80020FFF7ECF9814612E00968890334
:10194000E9E709688901E6E7C905E4E7FFF7E0F997
:10195000A0EB090141F28830814202D90320BDE8A1
:10196000F09F6168DAF8000000F03800B0EBC10FBA
:10197000ECD1207880070AD5E068296801F00F01D2
:10198000884204D2296821F00F0101432960D8F868
:101990000010404601F00F01B9420BD9016821F057
:1019A0000F0139430160006800F00F00B84201D018
:1019B0000120D4E7207840070AD52069296801F082
:1019C0007001884204D2296821F070010143296026
:1019D000207800070AD56069316801F070018842FB
:1019E00004D2316821F07001014331602078C006D3
:1019F0000AD5A069316801F4E061884204D23168F7
:101A000021F4E06101433160207880060CD5E16962
:101A10005846DBF8002002F07002914204D20268BE
:101A200022F070020A43026000F026F80E492A688C
:101A30002B68C2F3032203F00F038A5CC95C02F037
:101A40001F0201F01F01D040084A20FA01F1116085
:101A50000749086007480068BDE8F05FFFF794B9E0
:101A6000002000521844025833C10008A40000248A
:101A7000A000002498000024454970B54548096835
:101A8000434B103B11F0380208D00111082A03D053
:101A9000102A0BD0182A0BD0084670BD1968890689
:101AA000FBD51968C1F3C101C84070BD3A4870BD8B
:101AB0003749374D18310C1D24350A6809682668E6
:101AC0002D6802F0030406F00102C1F30511C5F30D
:101AD000CC0515FB02F200EE102AB8EE400AE9B37D
:101AE0002F4ADFED2E0AB7EE001A6CB1DFED2D1A8A
:101AF000012C01D0022C43D002EE101A1068F8EE2F
:101B0000422A81EEA22A1EE01C68A40611D51B6899
:101B100001EE901A1168C3F3C103F8EE612AD840B0
:101B200001EE900AC1F30800F8EE611A81EEA22AD4
:101B30000BE001EE901ADFED1C2A00BFF8EE611AEF
:101B4000106882EEA12AC0F3080001EE900AF8EEB8
:101B5000611A40EE201A31EE810A00E015E022EE13
:101B6000000A1068C0F34620401C00EE900AF8EE10
:101B7000600A80EE201ABCEEC10A10EE100A70BD99
:101B800001EE901ADFED092AD8E7002070BD0000B1
:101B9000104402580090D00340787D0100000039C5
:101BA000304402580024744A0024744C20BCBE4BBC
:101BB0002DE9F05F04007CD0FF4F2078FE4D1837F0
:101BC000DFF8F493103DC00748D0D9F80000396819
:101BD00000F03800102815D0182803D101F00300B8
:101BE00002280FD06068B0F5803F12D010B1B0F578
:101BF000A02F18D0286820F480302860286820F4AE
:101C0000802009E02868800328D560680028D2D0A9
:101C100024E0286840F480302860606888B1FFF7CD
:101C200077F8064609E0286840F480202860F0E74D
:101C3000FFF76EF8801B64287ED828688003F7D5EC
:101C40000CE0FFF765F8064605E000BFFFF760F817
:101C5000801B6428F0D828688003F7D4207841F2EC
:101C60000308D54E0C3E800753D5D9F800003968DB
:101C700010F038000ED0182801D188070AD0E0688B
:101C8000A8B3296821F0190101432960FFF740F842
:101C900082461BE02868400702D5E06800288AD009
:101CA000FFF730F840451BD82069402812D0316832
:101CB00000E0CCE021F47C3141EA0030306028E0E3
:101CC000FFF726F8A0EB0A000228B5D828684007DD
:101CD000F6D5E5E7306820F47C3040F40030EDE7DD
:101CE000207C316821F0FE4141EA0060E6E7FFE731
:101CF000286820F001002860FFF70AF8824605E016
:101D0000FFF706F8A0EB0A00022895D828684007DC
:101D1000F6D42078C0065FD5D9F80000DFF898B275
:101D2000396800F03800ABF1040B082812D01828ED
:101D300005D101F0030000E0EAE001280AD0E069E3
:101D40000028286838D040F080002860FEF7E0FFC7
:101D5000824623E02868C00523D5E069802876D133
:101D60001FE0206A202821D0316821F0F84141EAA3
:101D70008060306030E000BF94F82010DBF8002075
:101D800022F07C5242EA0161CBF8001024E000BF4F
:101D9000FEF7BEFFA0EB0A00022896D82868C0050F
:101DA000F6D5FEF7AFFF4045E6D8DAE7306820F019
:101DB000F84040F08040DCE720F080002860FEF72B
:101DC000A7FF064605E000BFFEF7A2FF801B022822
:101DD0009BD82868C005F7D42078000729D5764815
:101DE0006169643000298046016811D041F0010129
:101DF0000160FEF78DFF064605E000BFFEF788FF95
:101E0000801B0228C9D8D8F800008007F6D510E05A
:101E100021F001010160FEF77BFF064605E000BFEF
:101E2000FEF776FF801B022872D8D8F800008007E2
:101E3000F6D42078800623D5A0690028286810D021
:101E400040F480502860FEF763FF064605E02CE171
:101E5000FEF75EFF801B02285AD828688004F7D559
:101E60000EE020F480502860FEF752FF064604E0A2
:101E7000FEF74EFF801B02284AD828688004F7D45A
:101E8000207840074FD5DFF83481D8F8001041F4AE
:101E90008071C8F80010FEF73BFF064605E000BF62
:101EA000FEF736FF801B642832D8D8F80000C00542
:101EB000F6D5414EA068603601280AD008B1052841
:101EC00013D0306820F001003060306820F004004A
:101ED00002E0306840F001003060A06841F2883ACA
:101EE00090B1FEF715FF80460AE0306840F004002C
:101EF0003060EEE7FEF70CFFA0EB0801514507D874
:101F000030688007F6D50EE0FEF702FF804607E056
:101F100084E000BFFEF7FCFEA0EB080151457DD830
:101F200030688007F6D4606AF0B3DFF88C80D9F8A7
:101F3000001008F12008C1F3C20103296FD0022864
:101F4000286820F08070286003D0FEF7E1FE044688
:101F500080E0FEF7DDFE064605E000BFFEF7D8FE96
:101F6000801B022873D828688001F7D4E26A40F207
:101F7000F331386854F8283F884340EA0210184388
:101F80003860217B4FF4FE0C22894FF0FE47208AF7
:101F90004902267D521E401EA1F5007189B20CEA4D
:101FA0000040C2F3080200E081E01143761E0143C5
:101FB000014807EA066203E010440258004802584C
:101FC0001C3011433B4AC8F80010016821F00101A0
:101FD000016011684FF6F876236AB14341EAC30104
:101FE00011600168A26921F00C01114301600168D0
:101FF000E26921F0020111430160016841F480317E
:102000000160016841F400310160016841F4802100
:102010000160016841F00101016001E017E01DE08D
:10202000286840F080702860FEF772FE044604E0E5
:10203000FEF76EFE001B022809D828688001F7D53C
:1020400035E000BFFEF764FE001B022802D9032022
:10205000BDE8F09F28688001F4D428E039680128A1
:10206000D8F8000021D0A26A01F0030393421CD1EA
:10207000E26AC1F305118A4217D1216BC0F308024D
:10208000491E8A4211D1616BC0F34622491E91421A
:102090000BD1A16BC0F30642491E914205D1E16B01
:1020A000C0F30660491E814201D00120D0E7002024
:1020B000CEE70000344402580068503050F8210048
:1020C00070470068503040F82120704710B50B462B
:1020D00001680F48002A496801EA000101F03F0445
:1020E0004FEA1140D870C1F304225A709C70C1F3BA
:1020F000423119700AD101F081FDD870587801F091
:102100007DFD5870987801F079FD9870002010BD21
:102110003FFFFF0010B50B460168134C002A896A87
:10212000596001680969C1F30E019960006801688E
:1021300001EA040101F07F04C1F305401870C1F306
:1021400006225A709C704FEA9151D9700AD101F061
:1021500055FD1870587801F051FD5870987801F0CD
:102160004DFD9870002010BD7F7F7F0070B504008A
:102170004FF0010041D094F8210028B9002084F8E4
:102180002000204600F03CF8022184F82110CA20EB
:1021900022685321506220684162204601F044FDCC
:1021A00018BB2068154A816811408160D4E900138A
:1021B000A569226988682A43184310438860226809
:1021C0002189E06840EA01401061204601F04EFD9F
:1021D00058B92168CA6C22F00302CA642268636994
:1021E000E169D56C19432943D1642268FF2151620A
:1021F000002802D1012184F8211070BDBFFF8FFF9C
:1022000010B5B0B00446BC216846FEF757FA0A493B
:10221000206888420ED100020090811368462C91FC
:10222000FEF792FE08B1FEF72CFC0448016841F469
:102230000041016030B010BD0040005870440258A9
:1022400070B5044690F820000B4601281BD00126EB
:1022500084F82060022084F821005878AAB1DA7846
:10226000000299781B7841EA024540EA4330054371
:102270002268CA215320516221684862204601F039
:10228000D3FCC8B11FE0022070BDC10603D500F029
:10229000EF000A305870D87801F0B9FC0204587881
:1022A00001F0B5FC42EA0022987801F0B0FC197800
:1022B000024342EA4135DBE72168084805404D60AA
:1022C000204601F0D3FC2268FF21516208B984F84E
:1022D0002160002184F8201070BD00003FFFFF0046
:1022E0002DE9F041044690F8200090460D46012863
:1022F00012D0012784F82070022184F82110CA200E
:1023000022685321506220684162204601F08CFC13
:102310004FF0000618B12AE00220BDE8F0812068E5
:10232000B8F1000F80684FEA406025D0002800DB3C
:10233000EE7068782A78A978EB784FEA002C41EAA9
:1023400002404CEA83510843226818490840106053
:102350002068816821F4802181602168D5E9030229
:102360008B68104318438860204601F07FFC226888
:10237000FF215162A0B115E0002800DBEE70287843
:1023800001F045FC0204687801F041FC42EA0022B9
:10239000A87801F03CFCE978024342EA8150D3E797
:1023A00084F8217084F82060B7E700007F7F7F0009
:1023B00070B504460068C16821F0A001C160FEF755
:1023C000A7FC4FF47A76054607E000BFFEF7A0FCB5
:1023D000401BB04201D9032070BD2068C068800650
:1023E000F4D5002070BD00002DE9F047040029D08D
:1023F0004E4D4FF0000920684D4B4E4AA842C4F89C
:10240000289006D0984204D0904202D0E1680F296B
:1024100018D8E1684FF0010AE76B0831C9080AEBE8
:1024200057167143A84205D0984203D0904201D07C
:10243000082907D8A84203D0984201D0904204D17D
:10244000102902D90120BDE8F08794F8810020B955
:10245000204684F8809000F06FF8022084F8810014
:102460002068016821F001010160A069B0F1806F6E
:1024700011D16068B0F5800F01D018B10BE0A06BEE
:1024800020B108E0A06BB0F1805F04D12068016842
:1024900041F480510160A56AE0692368E16B28433B
:1024A000E268084310439860D4E90D02D4E905714D
:1024B000636A25691843D4F820C00A43266810438C
:1024C0002843A56D3843D4E90182D4E9123140EAAA
:1024D0000C0040EA08000843104318432843F0600A
:1024E000606868B92068816821F4C05141F40061D6
:1024F00081602068816821F4C06141F4806181605D
:102500002068016D21F0010101656068400206D577
:102510002068626DC16821F000411143C160C4F8B8
:10252000849084F881A000208DE7000000300140F5
:1025300000380040003C004010B5B6B004461421FD
:102540002FA8FEF7BBF8BC216846FEF7B7F818497C
:102550002068884229D140140090002468461894CD
:10256000FEF7F2FC08B1FEF78CFA1248016841F45C
:1025700000510160006800F4005034900D4810389C
:10258000016841F010010160006805224FF4A0418C
:10259000319400F0100034900220CDE92F10CDE9E5
:1025A000320205482FA9FEF783FA36B010BD0000AD
:1025B00000340140F0440258001002582DE9FF5F3A
:1025C000044616460F461D4600214FF0040BD4E981
:1025D0000002009130300290B2F5800F01D1A06866
:1025E00088B194F88000012819D04FF0010984F8CF
:1025F0008090FEF78DFB94F881108246002001291F
:102600000FD0022126E084F881B03A4611462046D8
:102610000093334600F014FA04B0BDE8F09F0220A6
:10262000FAE7B7B1AEB1A26880466766A4F8686001
:1026300084F881B0C4F88400A4F86A60E065A4F866
:102640006000A4F86200B2F5C02F2067606705D073
:1026500009E0012184F880000846DDE72068016870
:1026600021F400610160206841686FF30F0131437C
:1026700041602068016841F0010101606068B0F5C7
:10268000800F04D12068016841F400710160E068A6
:102690000F282ED948F20806B4F86A00002859D04D
:1026A0002068416931420BD0006B616E0860606E3A
:1026B000001D6066B4F86A00401EA4F86A00EBE7EB
:1026C000FEF726FBA0EB0A00A84202D3681CE3D069
:1026D00001E0002DE0D1204601F0F2FAD4F8842088
:1026E00084F8808042F48071C4F8841084F881906A
:1026F00079E007282AD868E02068416911F4604F22
:1027000019D04169090409D5006B616E0860606EDB
:10271000001D6066B4F86A00801E09E00298008817
:10272000616E0880606E801C6066B4F86A00401EAE
:10273000A4F86A000AE0FEF7EBFAA0EB0A00A84250
:1027400002D3681C02D0C6E7002DC4D0B4F86A00DA
:102750000028D1D13DE02068416911F4604F2AD0B2
:102760004169090409D5006B616E0860606E001D47
:102770006066B4F86A00001F1AE0416901F4C041C4
:10278000B1F5005F0AD902980088616E0880606E1A
:10279000801C6066B4F86A00801E09E090F8300082
:1027A000616E0870606E401C6066B4F86A00401E7E
:1027B000A4F86A0009E0FEF7ABFAA0EB0A00A84211
:1027C00002D3681C01D010E07DB1B4F86A00002883
:1027D000C1D1204601F074FA84F88190D4F88410B5
:1027E00084F8808079B1012016E7204601F068FA6C
:1027F000D4F8842084F8808042F48070C4F8840087
:1028000084F88190EFE7009806E72DE9FC5F044625
:10281000006817468A4600211D4694F8802000F182
:10282000200B0191012A0DD04FF0010884F880801F
:10283000FEF76EFA814694F881000026012804D044
:1028400002201EE00220BDE8FC9FBAF1000F17D065
:10285000B7B1A1680320C4F85CA0A4F8607084F844
:102860008100C4F88460A4F862706666A4F86860A9
:10287000A4F86A60B1F5C02F6667266704D008E047
:10288000012084F88060DEE72068016841F400617F
:102890000160206841686FF30F013943416020688F
:1028A000016841F0010101606068B0F5800F04D15A
:1028B0002068016841F400710160E0680F281AD8AF
:1028C0002CE02068416989070BD5E16D0968016238
:1028D000E06D001DE065B4F86200401EA4F86200DF
:1028E00009E0FEF715FAA0EB0900A84202D3681C24
:1028F00001D005E025B1B4F862000028E1D183E001
:10290000204601F0DDF9D4F8841084F8806041F4A9
:102910008071C4F8841084F881808DE007282CD859
:102920006EE02068416989071CD5B4F8621001295E
:102930000BD9E16B49B1E16D09680162E06D001DE1
:10294000E065B4F86200801E09E0E06D0188ABF834
:102950000010E06D801CE065B4F86200401EA4F831
:1029600062000AE0FEF7D4F9A0EB0900A84202D306
:10297000681C02D0C4E7002DC2D0B4F86200002861
:10298000CFD141E02068416989072ED5B4F86210A3
:1029900003290CD9E16B402909D9E16D096801626D
:1029A000E06D001DE065B4F86200001F1AE0B4F8A5
:1029B000621001290CD9E16B51B1E06D0188ABF8CF
:1029C0000010E06D801CE065B4F86200801E09E034
:1029D000E16D097880F82010E06D401CE065B4F8E6
:1029E0006200401EA4F862000AE0FEF791F9A0EB35
:1029F0000900A84202D3681C02D081E7002DB9D09B
:102A0000B4F862000028BDD100224B4608212046C0
:102A1000009501F0B3F928B1D4F8840040F020000B
:102A2000C4F88400204601F04BF984F88180D4F882
:102A3000840084F8806008B1012004E7019802E76F
:102A40002DE9FF4F83B090F88010044600680129FB
:102A50004FF00001109F1D46019100F1200100F18F
:102A6000300093460291009014D04FF0010A84F890
:102A700080A0FEF74DF9804694F88100636800213C
:102A800001282E464FF480020CD0934208D1A3684F
:102A900033B903E0022007B0BDE8F08F042801D06D
:102AA000022037E0049898B3BBF1000F31D07DB31A
:102AB00094F88100042802D0052084F8810089461A
:102AC0000846C4F88410C4F864B0A4F86A50A4F8A6
:102AD00068500499E165A4F86250A4F8605020673A
:102AE0006067206841686FF30F01294341602068E7
:102AF000016841F0010101606068904204D12068E2
:102B0000016841F400710160E0680F2835D846E0A3
:102B1000FFE7012084F88010BDE72068416989073C
:102B20000DD565B1E16D09680162E06D001DE065DC
:102B3000B4F86200401EA4F86200B4F8625048F293
:102B400008022068416911420DD066B1006B616EC8
:102B50000860606E001D6066B4F86A00401EA4F84C
:102B60006A00B4F86A60FEF7D3F8A0EB0800B84238
:102B700002D3781C01D004E01FB155EA0600CCD185
:102B8000D2E0204601F09CF8D4F8842084F88090AC
:102B900042F48071C4F8841084F881A0DCE0072836
:102BA0004DD8BEE02068416989071CD5DDB1012DF3
:102BB0000BD9E16B49B1E16D09680162E06D001D5F
:102BC000E065B4F86200801E09E0E06D01880298BB
:102BD0000180E06D801CE065B4F86200401EA4F83E
:102BE0006200B4F862502068416911F4604F1BD054
:102BF000D6B14169090409D5006B616E0860606E49
:102C0000001D6066B4F86A00801E09E00098008824
:102C1000616E0880606E801C6066B4F86A00401EB9
:102C2000A4F86A00B4F86A60FEF772F8A0EB080036
:102C3000B84202D3781C02D0A3E7002FA1D055EAF6
:102C40000600AFD170E02068416989072CD55DB3DB
:102C5000032D0CD9E16B40290BD9E16D09680162A4
:102C6000E06D001DE065B4F86200001F18E0012D62
:102C70000CD9E16B51B1E06D018802980180E06DE3
:102C8000801CE065B4F86200801E09E0E16D0978FF
:102C900080F82010E06D401CE065B4F86200401E32
:102CA000A4F86200B4F862502068416911F4604FE2
:102CB0002CD05EB34169090409D5006B616E0860D0
:102CC000606E001D6066B4F86A00001F1AE041697A
:102CD00001F4C041B1F5005F0AD900980088616E27
:102CE0000880606E801C6066B4F86A00801E09E08F
:102CF00090F83000616E0870606E401C6066B4F839
:102D00006A00401EA4F86A00B4F86A60FEF700F892
:102D1000A0EB0800B84202D3781C02D031E7002FA4
:102D20008AD055EA06008ED100224346082120466B
:102D3000009701F023F828B1D4F8840040F0200077
:102D4000C4F88400204600F0BBFF84F881A0D4F8CA
:102D5000841084F8809009B101209CE601989AE6DD
:102D6000401EB0F1807F10B501D3012010BD4FF09F
:102D7000E02460610F21601702F021F90020A061BA
:102D80000721216110BD00002DE9F04390F83C209F
:102D9000012A42D0012280F83C2051F80C4BDFF888
:102DA00080804FF0000991E8680051E9022723F480
:102DB0004073B1F80CC03B43CF6923F480631343E5
:102DC000026823F40063234323F4805343EA05039A
:102DD00023F4005343EA060323F4804343EA070342
:102DE0000C3923F47023424543EA0C4302D00D4CC6
:102DF000A2420CD18D8C23F47006D1E9073446EA47
:102E0000055121F08071194321F00073234353646D
:102E100080F83C900020BDE8F0830220FBE7000032
:102E20000000014000040140F0B590F83C20012A68
:102E300038D01D4E012480F83C40022280F83D200D
:102E400002681A4D5368B242D2F808C001D0AA42B3
:102E500003D14F6823F470033B430F6823F07003E2
:102E60001F4357600268B24210D0B2F1804F0DD0BC
:102E70000F4B9A420AD00F4B9A4207D00E4B9A4200
:102E800004D0AA4202D00D4B9A4204D189682CF09A
:102E9000800319439160002180F83D4080F83C1088
:102EA0000846F0BD0220F0BD0000014000040140D2
:102EB0000004004000080040000C004000180040E2
:102EC00010B504464FF0020249B104290ED008297A
:102ED00013D094F84700012816D0012010BD94F8B3
:102EE00044000128F9D184F844200FE094F845000B
:102EF0000128F2D184F8452008E094F84600012822
:102F0000EBD184F8462001E084F8472004222068B1
:102F100001F0BEFE20681449426C42F40042426453
:102F20002068884211D0B0F1804F0ED00F498842FE
:102F30000BD00F49884208D00E49884205D00E496F
:102F4000884202D00D49884207D181680C4A11405D
:102F5000062906D0B1F5803F03D0016841F0010198
:102F60000160002010BD000000000140000400408E
:102F700000080040000C0040000401400018004020
:102F80000700010010B586B0044614216846FDF71D
:102F900095FB0E492068884216D10D48016841F022
:102FA0001001016000680123022200F0100005906A
:102FB00000204FF4806100916946CDE90120CDE900
:102FC00003030448FDF774FD06B010BD0000014086
:102FD000E04402580010025870B5044690F83C00D6
:102FE0000D4601280BD0012084F83C000C2A45D066
:102FF00007DC5AB1042A1BD0082A78D12CE0022021
:1030000070BD102A4ED0142A71D15DE0206801F005
:103010004DFE2068816941F0080181612068816965
:1030200021F00401816120682A698169114311E05E
:10303000206801F08FFE2068816941F400618161A0
:103040002068816921F48061816120682969826931
:1030500042EA012181614AE0206801F0C7FE206850
:10306000C16941F00801C1612068C16921F0040112
:10307000C16120682A69C169114311E0206801F02B
:10308000FBFE2068C16941F40061C1612068C1692B
:1030900021F48061C16120682969C26942EA012185
:1030A000C16124E0206801F01DFF2068416D41F0FE
:1030B000080141652068416D21F0040141652068E7
:1030C0002A69416D114311E0206801F041FF206839
:1030D000416D41F4006141652068416D21F48061DA
:1030E000416520682969426D42EA0121416500205D
:1030F00084F83C0070BD10B5040003D094F83D0086
:1031000010B107E0012010BD002084F83C002046EB
:1031100000F022F8022084F83D002068211D01F013
:1031200055FD012084F8480084F83E0084F83F00F3
:1031300084F8400084F8410084F8420084F8430099
:1031400084F8440084F8450084F8460084F8470079
:1031500084F83D00002010BD08B50068064988428B
:1031600008D10648016841F001010160006800F0E3
:103170000100009008BD000000000140F04402582A
:10318000FEE7000001480068806B70479C06002441
:103190002DE9F0410D4601462DED028BFFF7F2FFC0
:1031A0008842044631D0002D2FD001EE904A01EE26
:1031B000101A00EE905AF8EE611AB8EE411AB8EE05
:1031C000602A9FED140A71EEC10A30EE420A80EEC9
:1031D000808AFDF79DFD104F06460120FDF756FC45
:1031E000FDF796FD801B3A6800EE904A00EE100A4B
:1031F000F8EE600AB8EE400A40EE080ABCEEE00ABB
:1032000010EE101A9163A842E7D3BDEC028BBDE823
:10321000F0810000000000009C0600242DE9FF4F13
:1032200085B01D460C2B90460C46894605980490A7
:103230006348DDF848B0068819D0082715FB07F069
:103240004000FDF7A5F803A982465E4800F0C2FFE2
:103250005C4802A900F0C6FFA8F120014FF0000071
:10326000C9B20791BBF1000F014602D097E00627D3
:10327000E4E7DFF84CE149E00C2D0ED0079B524A01
:1032800002EB0312002321F0010B525C00931306A2
:103290000AD573BAAEF800300CE0079A02EB42038D
:1032A0004A4A02EB8302EDE7BEF802C09CFA9CFC9E
:1032B000AEF800C007FB00F3401CBEF800C080B2AF
:1032C0000AEB4303A84223F80BC000D30020029B63
:1032D0005206641CA4B2120E9C4202D3AEF80060E7
:1032E00047E0A4EB0903AB4208D1059A4C46039B87
:1032F000521C92B205929A42F0D205E0009B5B1CF0
:10330000DBB20093082BC2D3491CC9B2A942B3D384
:1033100047E00C2D33D0079B2B4A02EB03124FF0F2
:10332000000B21F0010E525C130608D5244B07FB5D
:1033300000FC1B880AEB4C0C5BBA2CF80E30401CCE
:1033400080B2A84200D30020029B5206641CA4B2A3
:10335000120E9C420BD2A4EB0903AB4216D1059A84
:103360004C46039B521C92B205929A4215D31448C4
:1033700006805046FDF73BF809B0BDE8F08F079A8C
:1033800002EB4203114A02EB8302C8E70BF101038F
:1033900003F0FF0BBBF1080FC6D3491CC9B2A94209
:1033A000B7D30C2D09D008200499CDE900050548B4
:1033B00053464A4600F076FED9E70620F4E70000BF
:1033C00000000024A8000024FA56000886520008D5
:1033D0002DE9F84F0D46044658194FF0000A11190F
:1033E00087B21FFA81F8DDE90AB604F0FF0912E09E
:1033F000444503D305EB0B004C4685B2BD420FD2CA
:103400005B4629462046CDF800A0FFF707FF04EBF6
:103410005B0084B2761C3278A2F120005E28E7D9E6
:10342000BDE8F88F2DE9F04F6D4C032087B04FF0C9
:10343000000A01215646A06084F80CA06173694916
:10344000694801F071F9DFF8A48105216648224638
:103450004546D8F8003098476249AA68091F624873
:103460009047DFF88CB1DBF8000086630022AD6A7C
:103470001146604B5C48A847FDF74AFCDFF878919D
:103480004FF40056054654E00A20FDF7FFFAFDF719
:103490003FFC401BB0F57A7F0CD8FDF739FC421B8E
:1034A000DBF8003064204FF47A714243B2FBF1F054
:1034B00098633EE0FDF72CFC411B40F6B83081429A
:1034C00030D8FDF725FC401B0A21A0F57A70B0FB2F
:1034D000F1F24AA102A8FCF7B1FF02A910201023C3
:1034E000CDE90001208882B2A0F11E0188B201213D
:1034F000FFF76EFFFDF70CFC2368401BA0F57A7008
:103500004FF6FF774FF4FA6258430321B0FBF2F312
:10351000CDE9001762680021D8F83870D21E324811
:10352000B84706E0FDF7F4FB411B40F6B830814296
:103530000AD831464F464846FDF7D2FB0128A3D1B1
:1035400002E00A20FDF7A2FA31463846FDF7C8FB33
:103550000128F6D000204FF49671FFF719FE61683C
:103560000022CDE9001AD8F83850114623681E48C9
:10357000A84724A102A8FCF761FF02AD1026042190
:103580003346CDE90065208882B20846FFF720FF68
:10359000FDF7B0FB1FA1024602A8FCF74FFFCDE9E3
:1035A000006520881023162182B20420FFF710FF47
:1035B0000C481CA10838426802A8FCF73FFFCDE97F
:1035C000006520881023282182B20420FFF700FF25
:1035D000C8216420FFF7DCFD07B0BDE8F08F0000D4
:1035E000E005002408000024A8000024280000248E
:1035F0009C060024EA5C0008000802582530336469
:103600000000000057654163742053747564696F4E
:103610000000000053544D3332483778782030781A
:10362000255800004C43442049443A30782558003E
:1036300070B50A4E01220C46054608213046FDF7BA
:1036400054FB681EFDF722FA002230460821FDF7E0
:103650004CFB601EBDE87040FDF718BA0010025820
:103660007FB500250095019502950395FDF7DAFBDE
:1036700001248DF800401B208DF808008DF80B50B8
:103680004FF010468DF80A4068468DF801500196BB
:1036900003948DF80950FDF797FB16208DF808006C
:1036A0008DF80F4005218DF80B1068468DF80E40FF
:1036B0008DF800408DF80D508DF80A408DF80140CE
:1036C00001968DF80C508DF80950FDF77DFB042014
:1036D000FDF7B6FB7FBD0000F0B587B0142168464A
:1036E000FCF7ECFF2648016841F010010160016819
:1036F00001F010010591016841F0040101600168C9
:1037000001F004010591016841F080010160016848
:1037100001F080010591016841F00101016000683C
:103720000022184F082100F0010005903846FDF7EF
:10373000DCFA4FF42056384601223146FDF7D5FA1F
:1037400000246946012508200090CDE9015438463F
:103750000394FDF7ADF90221680300900A48CDE912
:1037600001416946FDF7A4F903206946CDE90065EA
:10377000CDE902403846FDF79BF907B0F0BD0000E7
:10378000E0440258001002580008025830B587B0D3
:1037900014216846FCF792FF3F4800243D497F22F0
:1037A0000594FF23E0E8021480E81C0004614461F2
:1037B000C4603948FEF7DAFC08B1FDF762F9364813
:1037C0000121FEF779FC43F2F22290422AD03248DE
:1037D0000121FEF776FC12208DF800008DF80140E3
:1037E00001222D4869468DF8024003940494FEF7A7
:1037F00077FD08B1FDF745F901208DF81400062189
:103800008DF815108DF8160020228DF8172005A9C7
:1038100002462148FEF714FD002801D0FDF731F9DA
:1038200007B030BD1D4C1E4D206800020CD5012292
:1038300028460821FDF759FA0920FDF727F900224B
:1038400028460821FDF751FA206840021CD50122C4
:1038500028460821FDF749FA0920FDF717F900224B
:1038600028460821FDF741FA6320FDF70FF90122F0
:1038700028460821FDF739FA0920FDF707F900224B
:1038800028460821FDF731FA206840F48030206096
:10389000C6E7000000400058F0050024D04402585C
:1038A000001002582DE9F04115484FF48006002120
:1038B000124D34010722C0E90321E300C0E90514D9
:1038C000C0E9073141625A0081624FF4C027C162EA
:1038D000C0E90D21C163016441648164C164016573
:1038E0004165816580E8E000FEF77EFD002803D099
:1038F000BDE8F041FDF7C5B8BDE8F08100340140F6
:103900001406002410B596B000241C210BA81294B4
:1039100013941494FCF7D2FE2C216846FCF7CEFEDB
:1039200023480B22214940F2E73380E81600C0E922
:10393000033444618461FFF7DEFB08B1FDF7A1F8B1
:103940001B4812A9129413941494FFF76DFA08B14E
:10395000FDF797F860200821CDE90B0414480422F4
:10396000CDE90D410BA90F9410941194FFF734FB8E
:1039700008B1FDF786F84FF400500094019401035C
:103980000294CDE9044003940694CDE90741084828
:10399000694609940A94FFF7F7F908B1FDF771F841
:1039A0000348FFF7EFFA16B010BD00000000014019
:1039B0009C060024FEE77047704700002DE9F047A1
:1039C000454D044689464FF0000A2868C0438007E9
:1039D0000AD0414E283E306820F080603060FDF70C
:1039E00097F90746B04608E00120BDE8F08700BF20
:1039F000FDF78EF9C01B022867D8D8F80000000137
:103A0000F6D4206829684FF4FE0721F47C313E0289
:103A100041EA00302860207AA389B4F804C040024B
:103A20002D4D2D495B1E227CACF1010C1035091D7A
:103A3000A0F5007080B2521ECCF3080C07EA0343D5
:103A400040EA0C00184306EA026210432860086846
:103A5000626920F0C000104308600A68A06922F083
:103A6000200202430A60281D0A6822F010020A6040
:103A700002684FF6F873E4699A4342EAC4020260AE
:103A80000868B9F1000F40F010020A6011D0086810
:103A9000B9F1010F11D040F400100860D8F800000F
:103AA000444640F08060C8F80000FDF731F9054653
:103AB0000DE0086840F40020EFE740F48010ECE7E8
:103AC000FDF726F9401B022801D903208DE7206865
:103AD0000001F5D5504688E7284402582DE9F04703
:103AE000454D044689464FF0000A2868C0438007C8
:103AF0000AD0414E283E306820F080503060FDF7FB
:103B000007F90746B04608E00120BDE8F08700BF8E
:103B1000FDF7FEF8C01B022867D8D8F80000800027
:103B2000F6D4208829684FF4FE0721F07C713E020C
:103B300041EA00502860207AA389B4F804C040020A
:103B40002D4D2D495B1E227CACF1010C1835091D51
:103B5000A0F5007080B2521ECCF3080C07EA0343B4
:103B600040EA0C00184306EA026210432860086825
:103B7000626920F44060104308600A68A06922F47A
:103B8000007202430A60281D0A6822F480720A60EB
:103B900002684FF6F873E4699A4342EAC40202608D
:103BA0000868B9F1000F40F480720A6011D008680B
:103BB000B9F1010F11D040F080700860D8F8000012
:103BC000444640F08050C8F80000FDF7A1F80546D3
:103BD0000DE0086840F48000EFE740F40000ECE7F7
:103BE000FDF796F8401B022801D903208DE72068D5
:103BF0008000F5D5504688E728440258020900F0B5
:103C00000F0102EB820001EB4000C0B27047014699
:103C1000002002E00A39401CC9B20A29FAD2000782
:103C200041EA1060704700002DE9F0410446006849
:103C30000025C168490615D4691EC160FDF768F802
:103C4000032706464FF47A7808E000BFFDF760F8D6
:103C5000801B404502D9032584F821702068C06884
:103C60004006F3D52846BDE8F08100002DE9F0417B
:103C7000124C032706460025E06820F04000E06073
:103C8000A068800607D43046FEF792FB90B103256A
:103C900086F821700EE0A06820F02000A060304679
:103CA000FEF786FB10B1032586F82170A06840F06E
:103CB0002000A0602846BDE8F081000000400058C8
:103CC00010B5026840F26F335169946944F00804FA
:103CD00094610268946944F0100494610268146865
:103CE00024F001041460026814699C4314610268A2
:103CF000936823F44043936090F88120042A0CD009
:103D00008A060AD5D0F8842042F08002C0F88420C8
:103D10000268936943F02003936190F88120032A9D
:103D20000CD04A060AD5D0F8842042F00402C0F82C
:103D300084200268936943F0400393618A050AD5A1
:103D4000D0F8842042F00102C0F884200268936910
:103D500043F400739361C9050AD5D0F8841041F08B
:103D60000801C0F8841001688A6942F480728A618F
:103D70000021A0F86210A0F86A1010BD2DE9F041F2
:103D8000984616460D460746069C09E0FCF7C0FF1C
:103D9000A0EB0800A04202D3601C01D00BE054B19C
:103DA0003868406935EA000007D00020B042EDD005
:103DB0000020BDE8F0810320FBE70120F6E70020AA
:103DC00070470000F8B504466A46002003468DF8A7
:103DD000000004F120001321054601F048FA0A21F1
:103DE0000646204600F006FA00236A4628212846A7
:103DF00001F03DFA064420460A2100F0FBF90023B9
:103E00006A463621284601F032FA01460B488C19E1
:103E10000B49027B806801EBC00000790AB940F0D1
:103E20000800694601228DF80000284601F018FAC2
:103E3000001901D04FF0FF30F8BD0000E00500246C
:103E400074000024F8B504466A46002003468DF845
:103E5000000004F120001321054601F008FA0A21B0
:103E60000646204600F0C6F900236A462921284666
:103E700001F0FDF9064420460A2100F0BBF90023B9
:103E80006A463621284601F0F2F901460B488C19A2
:103E90000B49027B806801EBC00000790AB940F051
:103EA0000800694601228DF80000284601F0D8F983
:103EB000001901D04FF0FF30F8BD0000E0050024EC
:103EC000740000242DE9FF4F93F8038093469C78FB
:103ED00083B0DF7A4FF0000993F80CC004EB08249C
:103EE000997ACA4693F80D80DE7C01EB07211F7D8D
:103EF0004FEA0C4C9A7C0CEB086893F815C0884488
:103F0000DD7D3F0402EB06221E7E987D07EB0C6CE4
:103F10005F7E6244360400EB05201D7906EB0766E0
:103F20005F7930442D0405EB0767324D3C4403EBC9
:103F3000080613466D680090A5EB0B05291AA4EB43
:103F4000080B88460A46DDE9030100F089FC4FF0C2
:103F5000FF35E8BB274C284F207B0028A06817F8C6
:103F6000300001D140F008008DF8040003980123CF
:103F700036212030009001AA01F079F940BBDDE93B
:103F80000301424600F006FC10BB707802228DF857
:103F9000080002A930788DF80900009801F060F956
:103FA00008B1A94604E0B61C0AF1020ADA45ECD3CE
:103FB000207B0028A06807EBC000007901D140F009
:103FC00008008DF8040001230098362101AA00E0C2
:103FD0000BE001F04CF940B96068002200901146F6
:103FE0002368039800F03CFC00B1A94607B048469E
:103FF000BDE8F08FE0050024740000242DE9F041B5
:104000001D46144B00248046069F48194FF0FF368A
:104010001B68984219D8404600F0BCFBA8B90E496D
:104020000020C7F30722FBB206E000BF01EB400708
:1040300001F81020401C7B70A842F7D306496A00A3
:1040400008F1200001F00CF900B134462046BDE82B
:10405000F0810000E0050024600300242DE9F05FFA
:104060008A460F491E468346DDF8289090190025A0
:10407000174649684FF0FF38884208D8002409E005
:104080003A194B465146584600F0C6FC08B1454621
:1040900002E0641CB442F3D32846BDE8F09F000060
:1040A000E00500242DE9FF5F1D481C4691468B4624
:1040B000DDE90E674FF0FF3A4FF0000803688A19F8
:1040C0009A4204D8416809EB0700884201D9D046DA
:1040D00022E000251EE000BF009809EB05025946CA
:1040E00000F058FBA0B90F49002008E0227801F841
:1040F000102001EB40026378401CA41C5370B042B6
:10410000F4D3009872000749203001F0A9F800B1FB
:10411000D0466D1CBD42DFD304B04046BDE8F09FE1
:10412000E0050024E00000242DE9F84F0026994620
:104130008A468346DDE90A78144635460DE04B464B
:10414000224651465846CDF80080FFF757FF10B180
:104150004FF0FF3603E0641C6D1CBD42EFD33046C8
:10416000BDE8F88F4FF0FF307047000002488068CC
:104170000860002070470000E0050024FEB51C46E2
:10418000054600F007FB064605F120002E210546F6
:1041900002AA01F057F806442846012202A901F0BC
:1041A00058F8064469460122284601F052F80644B0
:1041B0002846012201A901F04CF89DF8042080193D
:1041C0009DF8001001EB0221216001D04FF0FF307B
:1041D000FEBD000002480068086000207047000033
:1041E000E005002402484068086000207047000095
:1041F000E005002470B50546C0690E4680470446B8
:10420000E8698047001BB042FAD3002070BD2DE959
:10421000F74F5FEA000982B07DD04FF0000B6A468D
:1042200001215C4609F120005B468DF800B0019049
:1042300001F01DF878214846FFF7DCFF01980023C4
:1042400001216A468DF8004001F011F878210546F9
:104250004846FFF7CFFF0198012311216A468DF8E8
:10426000004001F004F800236A46B121054401989A
:1042700000F0FDFF46190198012569462A468DF890
:10428000005000F0EDFF871901982C2669460122A5
:104290008DF8006000F0E4FF00EB07084FF02D0AF6
:1042A00001980122574669468DF800A000F0D8FF1A
:1042B00001236A46B2218DF800508044019800F035
:1042C000D6FF01226946804401988DF8006000F015
:1042D000C7FF01226946804401988DF8007000F004
:1042E000BFFF01236A46B3218DF800508044019836
:1042F00000F0BDFF01226946804401988DF80060FE
:1043000000F0AEFF01226946804401988DF80070EC
:1043100000F0A6FF00E0CCE101226946804401984C
:104320008DF8005000F09CFF0122694600EB080563
:1043300001988DF8006000F093FF46190198012262
:1043400069468DF8007000F08BFF07256A4601234F
:104350008DF80050B4210644019800F088FFA22196
:104360006A468719019801238DF80010C02100F0DA
:104370007EFF0226694601228DF8006007440198FD
:1043800000F06EFF84218DF8001001226946074479
:10439000019800F065FFC5216A4601238DF80010E1
:1043A000C1210744019800F062FF0A216A460123F7
:1043B0008DF80010C2210744019800F058FF012237
:1043C0006946074401988DF8004000F049FF8A24AF
:1043D0006A4601238DF80040C3210744019800F08C
:1043E00046FF2A218DF800100122694607440198F2
:1043F00000F036FF01236A46C4218DF800400744CF
:10440000019800F034FFEE218DF80010C4190198D6
:104410000122694600F024FF0E216A4601238DF82F
:104420000010C5210444019800F021FF04990444C0
:104430004FF000036A46097B00297ED020210198B5
:1044400000F015FF01233A210444019803AA00F06B
:104450000EFF0123B046E0216A46044401988DF81E
:10446000006000F004FF1C218DF800100122694655
:104470000444019800F0F4FE0122694604440198C6
:104480008DF8005000F0ECFE12218DF80010012292
:1044900069460444019800F0E3FE37218DF80010CE
:1044A000012269460444019800F0DAFE32218DF8B9
:1044B0000010012269460444019800F0D1FE29262B
:1044C000694601228DF800600444019800F0C8FE9E
:1044D00001226946044401988DF800A000F0C0FE56
:1044E00001226946044401988DF8006000F0B8FE8E
:1044F00025218DF80010012269460444019800F03E
:10450000AFFE2B218DF8001001226946044401986A
:1045100000F0A6FE39218DF800100719019801223C
:10452000694600F09DFE01225C46074401986946F9
:104530008DF800B000F094FE00E0BFE001218DF89E
:104540000010074401980A46694600F089FE0122DE
:104550004FF0030B0744019869468DF800B000F056
:104560007FFE0744694610208DF800000198012263
:1045700000F076FE01236A46E1218DF800B0074481
:10458000019800F074FE074469461D208DF8000074
:104590000198012200F064FE012269460744019857
:1045A0008DF8005000F05CFE06218DF8001001220D
:1045B00069460744019800F053FE2E256946012202
:1045C0008DF800500744019800F04AFE0744694600
:1045D0002C208DF800000198012200F041FE0122FC
:1045E0006946074401988DF8006000F039FEC6194D
:1045F0000198012269468DF800A000F031FE0122E9
:104600006946064401988DF8005000F029FE012209
:104610006946064401988DF8005000F021FE3721CC
:104620008DF80010851901980122694600F018FEE6
:104630003F218DF80010012269460544019800F0E1
:104640000FFE01226946054401988DF8004000F0F4
:1046500007FE01226946054401988DF8004000F0EC
:10466000FFFD01226946054401988DF8008000F0A5
:10467000F7FD10218DF800100122694605440198CC
:1046800000F0EEFD01236A4613218DF80040054439
:10469000019800F0ECFD4419019801236A46292194
:1046A00000F0E5FD04440499484600F065F900195E
:1046B00001D04FF0FF3005B0BDE8F08F2121BEE6FC
:1046C000F8B520300E46DA216A46074600F0BAFDFA
:1046D0004FF0FF3408B12046F8BD6D463846DB2167
:1046E0006A1C00F0AFFD0028F5D1AA1C3846DC2179
:1046F00000F0A8FD0028EED1BDF801109DF80020C3
:1047000049BA62F31F413160F8BD30B40C46036909
:104710002046114630BC184730B40C468369204609
:10472000114630BC184700004FF0FF3210B5E0B121
:104730000B6803604C68002B44600C890481CC68D2
:10474000C4600C6904614C6944618C698461C96905
:10475000C16107494162074901620749816207490E
:10476000C0E90B1001D098470246104610BD00006A
:104770000B470008614A00088147000819470008F4
:1047800030B40C4643692046114630BC18474FF000
:10479000FF307047F8B51446304A0D46114693680D
:1047A0000A7B497B012B0FD8012902D0022906D0B0
:1047B00018E00AB1183515E0641C1A3512E0012A18
:1047C00010D1641CAD1C0DE0012902D0022905D0D6
:1047D00008E00AB1183405E01A3402E0012A01D1D8
:1047E000A41C6D1C6A462030002306462A2100F0D6
:1047F0003EFD07466946280A8DF800000122304632
:1048000000F02EFD07446946012230468DF8005025
:1048100000F026FDC5196A46002330462B2100F022
:1048200026FD210A8DF80010054469460122304614
:1048300000F016FD05446946012230468DF800401F
:1048400000F00EFD44196A46002330462C2100F08A
:104850000EFD001901D04FF0FF30F8BDE005002437
:104860002DE9F8431546434A0C461E461146DDF82D
:10487000209093680A7B497B012B0ED8012902D036
:10488000022905D019E00AB1183416E01A3402E002
:10489000012A12D1A41C6D1C0FE0012902D00229AB
:1048A00007D00AE004F101040AB1183505E01A3511
:1048B00003E0012A01D1641CAD1C6A4620300023AC
:1048C00080462A2100F0D3FC07466946200A8DF86D
:1048D00000000122404600F0C3FC07446946012263
:1048E00040468DF8004000F0BBFC34446946641E2D
:1048F000C619200A8DF800000122404600F0B0FCE5
:1049000006446946012240468DF8004000F0A8FCAC
:1049100084196A46002340462B2100F0A8FC290A8E
:104920008DF80010044469460122404600F098FCCE
:1049300006196946012240468DF8005000F090FCAF
:1049400005EB09046946641E8519200A8DF80000EC
:104950000122404600F084FC05446946012240469D
:104960008DF8004000F07CFC401901D04FF0FF3082
:10497000BDE8F883E00500242DE9FC41244C5023D8
:104980004A7B05468F68A02080263FB1012F05D0C5
:10499000012A0FD08AB1022A0FD010E0012A03D0D9
:1049A0002AB1022A03D00AE0C4E9003007E0C4E9D2
:1049B000006004E0C4E9000301E0C4E9000688687F
:1049C0000022A060087B2073487B114660736068FA
:1049D000009028462368FFF743FF217B06460D48D9
:1049E0000029A16800EBC100007901D140F0080066
:1049F0008DF804000123362101AA05F1200000F002
:104A000036FC801901D04FF0FF30BDE8FC8100007A
:104A1000E005002474000024F8B506460F481F0A7C
:104A20004FF6FF7404EA03234FF0FF353B43ADF824
:104A30000030036800248B420DD9406890420AD9A7
:104A40003046FFF7A7FE30B90222694606F1200082
:104A500000F006FC00B12C462046F8BDE00500241D
:104A6000F0B4C66814460D4621462846B446F0BC4C
:104A70001A4660477047FCF751B90000F0B59DB089
:104A80004C216846FBF71AFE202113A8FBF716FEFF
:104A90000220FCF727FA234800242349026842F445
:104AA0004042026002680A6842F001020A60096836
:104AB00001F001011B9101688904FCD5FCF73CFA67
:104AC000FCF720F9194905220B6802200825C603C6
:104AD000012723F018030B60099060218DE8C400C2
:104AE000CDE90A02CDE90C10CDE910540E900F90DB
:104AF00068461294FDF75CF808B1FBF7C2FF13AAF1
:104B00003F20032182E833000121179413A8189451
:104B100019941A94FCF782FE002801D0FBF7B1FF2C
:104B20001DB0F0BD184802582C04005870440258BB
:104B3000214A30B5214914680020204B44F4700408
:104B4000146010330A681E4D42F001020A601860BA
:104B50000A681A4B2A400A6018331C1D251D174A83
:104B6000186028322060131D28601C1D251D106050
:104B70002A1D1860131D20601C1D2860251D106053
:104B80001860206028600A680C4B0E4C22F48022CA
:104B900060330A60186020686FF30F00B0F1005FA7
:104BA00003D209490120C1F808014FF00060024911
:104BB0008039086030BD000088ED00E000440258F4
:104BC0007FEDF6EA0010005C008000512DE9F0470F
:104BD000274B4FF0804A274D02689842264E274FB8
:104BE000274C09D0504507D0A84205D0B04203D089
:104BF000B84201D0A04205D1D1F804C022F0700221
:104C00004CEA0202DFF87CC0DFF87C809842DFF8D3
:104C10007C900FD050450DD0A8420BD0B04209D0A7
:104C2000B84207D0A04205D0604503D0404501D02E
:104C3000484503D1CD6822F440722A434D6922F0E1
:104C400080022A43026098428A68C2620A688262CD
:104C500007D0A04205D0604503D0404501D048456B
:104C600001D10969016301214161BDE8F0870000BC
:104C7000000001400004004000080040000C00401B
:104C80000004014000400140004401400048014050
:104C900010B5046A042301F01F018B409C43046299
:104CA0008A40016A1143016210BD00002DE9F04FF6
:104CB000026ADFF88880DFF8889022F00102DFF8CE
:104CC00084A0DFF884B0214F0262DFF884C0066A56
:104CD0004268836926F002060D68B8428C6803EAD0
:104CE0000C0323F0030344EA060445EA030507D056
:104CF000404505D0484503D0504501D0584505D121
:104D0000CB6824F00804234323F00404B84207D0FE
:104D1000404505D0484503D0504501D0584505D100
:104D200022F44076D1E9053233431A43426085616B
:104D3000496841630462BDE8F08F0000000401404F
:104D40000040014000440140004801400000014093
:104D50008FFFFEFFF0B5026A1E4E1F4C22F01002BC
:104D6000DFF878E00262056A4368826925F0200571
:104D7000D1F808C0A0420F6802EA060222F440728D
:104D800045EA0C1542EA072201D0704506D1CE68EB
:104D900025F0800545EA061525F04005A0420AD019
:104DA000704508D00E4CA04205D00E4CA04202D057
:104DB0000D4CA04207D1D1E9054623F4406343EAF4
:104DC000840343EA86034360826149688163056224
:104DD000F0BD0000FF8FFFFE000001400004014015
:104DE000004001400044014000480140F0B5026A23
:104DF0001C4D1D4E22F48072A8420262026A436872
:104E0000C76922F40072D1F808C00C6827F0730754
:104E100042EA0C2244EA070401D0B04206D1CF682E
:104E200022F4006242EA072222F48062A8420AD0F9
:104E3000B04208D00D4DA84205D00D4DA84202D079
:104E40000C4DA84207D1D1E9055623F4405343EA5B
:104E5000051343EA06134360C4614968C1630262F3
:104E6000F0BD00000000014000040140004001408E
:104E7000004401400048014070B5026A144B22F41E
:104E8000805202629842036A4268C46923F4005364
:104E90008E680D6824F4E64443EA063344EA0524A8
:104EA0000BD00C4DA84208D00B4DA84205D00B4D9D
:104EB000A84202D00A4DA84204D14D6922F4804292
:104EC00042EA85124260C46149680164036270BDB0
:104ED0000000014000040140004001400044014046
:104EE00000480140F0B5026A22F480320262134F9A
:104EF000056A4268446D25F400350E89B8420B6896
:104F000024F0700445EA064543EA04030BD00C4C38
:104F1000A04208D00B4CA04205D00B4CA04202D0BE
:104F20000A4CA04204D14C6922F4803242EA0422A5
:104F300042604365496881650562F0BD000001403B
:104F4000000401400040014000440140004801408D
:104F5000F0B5026A22F480120262134F046A4268BA
:104F6000436D24F400140E89B8420D6823F4E04325
:104F700044EA065443EA05230BD00C4DA84208D05E
:104F80000B4DA84205D00B4DA84202D00A4DA842B5
:104F900004D14D6922F4003242EA85224260436521
:104FA0004968C1650462F0BD000001400004014091
:104FB000004001400044014000480140FEE709076D
:104FC00000284FEA116104DB00F1E02080F80014B2
:104FD000704700F00F0000F1E02080F8141D7047CA
:104FE00030380A2801D20120704700207047FBF7B3
:104FF0008FBE000010B5034800240421FDF760FFB8
:10500000204610BD9C0600242DE9F341174D4FF4B6
:1050100000640022884621462846FBF766FEA6006B
:10502000284600223146FBF760FE11486423012226
:105030006946FDF7EAFB0122074631462846FBF7A1
:1050400054FE0B4801224FF4FA734146FDF7B6FABD
:10505000C619214601222846FBF747FE002E03DD34
:105060004FF0FF30BDE8FC810020FBE70010025844
:10507000140600242DE9F0410F4E4FF40065002284
:105080000C46074629463046FBF72FFEA2B20B48D6
:105090004FF4FA733946FDF791FA01220446294686
:1050A0003046FBF722FE002C03DD4FF0FF30BDE859
:1050B000F0810020FBE700000010025814060024D5
:1050C0002DE9F0410E4E4FF4006500220C460746D4
:1050D00029463046FBF709FEA2B20A486423394646
:1050E000FDF793FB0122044629463046FBF7FDFD00
:1050F000002C03DD4FF0FF30BDE8F0810020FBE71E
:1051000000100258140600242DE9F743194E4FF4FD
:10511000006815468946002241463046FBF7E5FD0A
:105120004FF40057304600223946FBF7DEFD1248A7
:10513000642301226946FDF768FB012204463946D3
:105140003046FBF7D2FD3DB1AAB20B484FF4FA73DB
:105150004946FDF75AFB0444414601223046FBF71D
:10516000C4FD002C03DD4FF0FF30BDE8FE830020BE
:10517000FBE7000000100258140600248EB0FEF772
:105180006FFAFBF739FCFBF7D1FDFFF777FCFEF771
:10519000A3FAFEF7FBFAFEF785FBFEF7B3FBFEF77B
:1051A00041F9102502AC4FF4FA761A4800220CAFF0
:1051B00007A9FCF7AFFF174800223946FCF786FF26
:1051C0009DF81E009DF81D309DF81C20C00701D0E1
:1051D00011A100E014A102A8FBF730F91023A022CE
:1051E0003A210420CDE90054FEF7F2F8FBF790FDD8
:1051F00011A1024602A8FBF721F91023A0224A219F
:105200000420CDE90054FEF7E3F803203146FEF711
:105210000FFACAE7F005002454696D653A2025307D
:1052200032643A253032640054696D653A20253085
:1052300032642025303264005469636B3A2025645F
:10524000206D730030B444680369A44630BC18462E
:10525000604730B4D0E90343A44630BC18466047E9
:1052600030B484680369A44630BC1846604730B443
:10527000046905682046AC4630BC60474FF040707A
:10528000E1EE100A7047000000000000000000007E
:105290000000000000003F4000000000000000008F
:1052A0003000400030004000000009000BC03D000D
:1052B0000BC03D00090018C024407FE0224031802F
:1052C0000000180024C01B000D80324001800380C4
:1052D0001C4027401C800740004010006000000078
:1052E0000000000000000000000000001F802040BF
:1052F00040200000402020401F80000000000900E6
:1053000006001F80060009000000040004003F8022
:105310000400040000000010006000000000000015
:105320000000040004000400040004000000000069
:1053300000400000000000000000002001C0060046
:105340003800400000001F802040204020401F8087
:105350000000000010403FC000400000000018C0E6
:10536000214022402440184000001080204024406A
:1053700024401B80000002000D0011003FC00140CE
:1053800000003C80244024402440238000001F80F3
:10539000244024403440038000003000200027C017
:1053A0003800200000001B802440244024401B8043
:1053B00000001C0022C0224022401F80000000008C
:1053C0000000084000000000000000000000046031
:1053D000000000000000000004000A00110020800E
:1053E0004040090009000900090009000000000010
:1053F0004040208011000A000400180020002340D3
:105400002400180000001F802040274029401F4032
:105410000000004007C039000F0001C000402040DC
:105420003FC0244024401B8000001F8020402040BB
:1054300020403080000020403FC0204020401F809E
:10544000000020403FC024402E4030C000002040DB
:105450003FC024402E00300000000F00108020408C
:1054600022403380020020403FC0040004003FC0BF
:105470002040204020403FC02040204000000060ED
:10548000202020203FC02000200020403FC024409A
:105490000B0030C0204020403FC020400040004072
:1054A00000C03FC03C0003C03C003FC000002040A3
:1054B0003FC00C4023003FC020001F802040204000
:1054C00020401F80000020403FC0244024001800DE
:1054D00000001F802140214020E01FA0000020404C
:1054E0003FC02440260019C0004018C0244024407A
:1054F000224031800000300020403FC0204030007A
:10550000000020003F80004000403F80200020003D
:105510003E0001C0070038002000380007C03C00F2
:1055200007C038000000204039C0060039C02040C4
:1055300000002000384007C0384020000000304004
:1055400021C02640384020C00000000000007FE05D
:10555000402040200000000070000C00038000404C
:1055600000000000402040207FE00000000000001C
:10557000200040002000000000000010001000107B
:1055800000100010001000000000400000000000AB
:105590000000000002800540054003C000402000DC
:1055A0003FC004400440038000000000038004402A
:1055B00004400640000000000380044024403FC037
:1055C000004000000380054005400340000000004B
:1055D00004401FC0244024402000000002E0055089
:1055E00005500650042020403FC00440040003C082
:1055F00000400000044027C00040000000000010F0
:105600000010041027E00000000020403FC00140CF
:10561000070004C00440204020403FC0004000403C
:10562000000007C0040007C0040003C000000440DD
:1056300007C00440040003C0004000000380044091
:10564000044003800000041007F00450044003806D
:105650000000000003800440045007F000100440E4
:1056600007C002400400040000000000064005409E
:10567000054004C00000000004001F8004400040FA
:105680000000040007800040044007C00040040000
:10569000070004C0018006000400060001C00700E6
:1056A00001C006000000044006C0010006C004401E
:1056B00000000410071004E0018006000400000050
:1056C000044005C006400440000000000000040043
:1056D0007BE040200000000000000000FFF0000020
:1056E0000000000040207BE00400000000004000BB
:1056F000800040002000200040000000000000006A
:105700000000000000000000000000000000000099
:105710001FCC000C0000000000000000080030005A
:1057200060000800300060000000022003FC1E2022
:10573000022003FC1E200220000000000E181104AD
:105740003FFF10840C78000000000F0010840F3819
:1057500000C0077818840078000000780F8410C417
:1057600011240E9800E4008400080800680070000E
:105770000000000000000000000000000000000029
:1057800007E0181820044002000000004002200436
:10579000181807E0000000000000024002400180ED
:1057A0000FF0018002400240000000800080008075
:1057B0000FF800800080008000000001000D000E46
:1057C00000000000000000000000000000800080D9
:1057D000008000800080008000800000000C000C31
:1057E000000000000000000000000000000600189B
:1057F00000600180060018002000000007F0080883
:1058000010041004080807F0000000000804080451
:105810001FFC000400040000000000000E0C101427
:105820001024104411840E0C000000000C18100409
:105830001104110412880C700000000000E0032025
:10584000042408241FFC0024000000001F9810847A
:1058500011041104108810700000000007F008887F
:105860001104110418880070000000001C001000D2
:1058700010FC13001C001000000000000E38114442
:105880001084108411440E38000000000700088CBA
:1058900010441044088807F00000000000000000D9
:1058A000030C030C000000000000000000000001D9
:1058B0000106000000000000000000000080014020
:1058C0000220041008081004000002200220022018
:1058D000022002200220022000000000100408081C
:1058E0000410022001400080000000000E001200A1
:1058F000100C106C10800F00000003E00C1813E473
:10590000142417C4082807D000000004003C03C476
:105910001C40074000E4001C000410041FFC11049C
:10592000110411040E880070000003E00C1810042C
:105930001004100410081C10000010041FFC1004B8
:1059400010041004080807F0000010041FFC1104E4
:10595000110417C410040818000010041FFC1104DF
:10596000110017C010000800000003E00C1810041C
:10597000100410441C780040000010041FFC108428
:105980000080008010841FFC10040000100410042C
:105990001FFC1004100400000000000300011001AF
:1059A00010011FFE10001000000010041FFC110465
:1059B00003801464181C1004000010041FFC100461
:1059C000000400040004000C000010041FFC1F0071
:1059D00000FC1F001FFC1004000010041FFC0C043E
:1059E000030000E010181FFC100007F00808100466
:1059F00010041004080807F0000010041FFC1084B5
:105A00001080108010800F00000007F0081810248C
:105A10001024101C080A07F2000010041FFC1104D7
:105A2000110011C011300E0C000400000E1C1104F6
:105A30001084108410441C3800001800100010045A
:105A40001FFC100410001800000010001FF81004C4
:105A50000004000410041FF8100010001E0011E0E4
:105A6000001C007013801C0010001FC0103C00E0E0
:105A70001F0000E0103C1FC000001004180C16347A
:105A800001C001C01634180C100410001C001304CF
:105A900000FC13041C00100000000804101C10641B
:105AA000108413041C041018000000000000000003
:105AB0007FFE4002400240020000000030000C0067
:105AC00003800060001C0003000000004002400250
:105AD00040027FFE000000000000000000002000E7
:105AE00040004000400020000000000100010001D3
:105AF0000001000100010001000100004000400021
:105B000020000000000000000000000000980124B8
:105B100001440144014400FC000410001FFC008803
:105B2000010401040088007000000000007000887B
:105B300001040104010400880000000000700088D6
:105B40000104010411081FFC0004000000F80144D6
:105B500001440144014400C80000000001040104A4
:105B60000FFC1104110411001800000000D60129D7
:105B70000129012901C90106000010041FFC00844D
:105B800001000100010400FC0004000001041904EC
:105B900019FC0004000400000000000000030001E4
:105BA0000101190119FE0000000010041FFC00246F
:105BB000004001B4010C01040000000010041004B6
:105BC0001FFC0004000400000000010401FC0104AB
:105BD000010001FC0104010000FC010401FC00843F
:105BE00001000100010400FC0004000000F80104B1
:105BF00001040104010400F80000010101FF008517
:105C0000010401040088007000000000007000889A
:105C100001040104010501FF00010104010401FC6C
:105C200000840104010001800000000000CC012478
:105C3000012401240124019800000000010001005A
:105C400007F80104010400000000010001F800044D
:105C500000040004010801FC00040100018001703F
:105C6000000C001001600180010001F0010C003007
:105C700001C00030010C01F0010000000104018CA2
:105C800000740170018C01040000010101810171A7
:105C9000000E001801600180010000000184010C69
:105CA000013401440184010C0000000000000000E8
:105CB000000001003EFC4002400200000000000025
:105CC0000000FFFF00000000000000004002400252
:105CD0003EFC0100000000000000000060008000A9
:105CE00080004000400020002000424D4864000039
:105CF000000000004600000038000000A000000086
:105D000050000000010010000300000002640000C9
:105D1000120B0000120B0000000000000000000049
:105D200000F80000E00700001F0000000000000075
:105D30000000000000000000000000000000000063
:105D40000000000000000000000000000000000053
:105D50000000000000000000000000000000000043
:105D60000000000000000000000000000000000033
:106C900000000000000000000000000008422D6B12
:106CA0002D6B2D6B2421000000000000000000006F
:106CB00000000000000000000000000000000000D4
:106CC00000000000000000000000000000000000C4
:106CD00000000000000000000000000000000000B4
:106CE00000000000000000000000000000000000A4
:106CF0000000000000000000000000000000000094
:106D00000000000000000000000000000000000083
:106D10000000000000000000000000000000000073
:106D20000000000000000000000000000000000063
:106D30000000000000000000000000000000000053
:106D40000000000000000000000000000000000043
:106D50000000000000000000000000000000000033
:106D60000000000000000000000000000000000023
:106D70000000000000000000000000000000000013
:106D80000000000000000000000000000000000003
:106D900000000000000000000000000000000000F3
:106DA00000000000000000000000000000000000E3
:106DB00000000000000000000000000000000000D3
:106DC00000000000000000000000000000000000C3
:106DD0000000000000000842D7BDBEF7BEF79AD6FB
:106DE0009AD6BEF7FFFF5CE7D7BDAA5200000000AD
:106DF0000000000000000000000000003084FBDE06
:106E0000FFFFFFFFBEF7D7BD2D6B000000000000A5
:106E1000000000000842D7BD5CE7FFFFFFFFBEF7A0
:106E200038C6308424210000AA529AD69AD69AD61F
:106E30009AD69AD69AD69AD6000000000000000092
:106E400000000000242114A5FBDEFFFFFFFF5CE72C
:106E500014A52421000075AD9AD69AD69AD69AD652
:106E60009AD69AD630840000000030849AD69AD6FA
:106E70009AD69AD69AD69AD675AD00000000000030
:106E80000000000000000000CF7B38C65CE7FFFF79
:106E9000FFFFFBDED7BDAA5200000000000000008B
:106EA00000000000000000000000000000000000E2
:106EB00000000000000000000000000000000000D2
:106EC00000000000000000000000000000000000C2
:106ED00000000000000000000000000000000000B2
:106EE00000000000000000000000000000000000A2
:106EF0000000000000000000000000000000000092
:106F00000000000000000000000000000000000081
:106F10000000242175ADFFFFD7BDAA52000000007C
:106F200000002421FFFFFFFFFFFFFFFF38C62421E1
:106F300000000000000000000000D7BDFFFFFFFFC1
:106F4000FFFFFFFFFFFFFFFFFFFF75AD0000000029
:106F50000000CF7BFFFFFFFFFFFFFFFFFFFFFFFFF3
:106F6000FFFFFFFFBEF714A52D6BFFFFFFFFFFFF25
:106F7000FFFFFFFFFFFFFFFF000000000000000019
:106F800000003084BEF7FFFFFFFFFFFFFBDE14A50C
:106F9000FBDE5CE7AA529AD6FFFFFFFFFFFFFFFF71
:106FA000FFFFFFFF14A50000000014A5FFFFFFFF77
:106FB000FFFFFFFFFFFFFFFF9AD600000000000069
:106FC0000000000008429AD6FFFFFFFFFFFF14A554
:106FD00000000842B2945CE738C62421000000009B
:106FE00000000000000000000000000000000000A1
:106FF0000000000000000000000000000000000091
:107000000000000000000000000000000000000080
:107010000000000000000000000000000000000070
:107020000000000000000000000000000000000060
:107030000000000000000000000000000000000050
:107040000000000000000000000000000000000040
:107050002421FBDEFBDEAA5200000000000000003D
:1070600000002D6BFFFFFFFFFFFFFFFFFFFFFBDEB9
:1070700000000000000000003084FFFFFFFFFFFF62
:10708000FFFFFFFFFFFFB2940842FBDEB294000057
:107090002421BEF7FFFFFFFFFFFFFFFFFFFFBEF74B
:1070A0002421000030845CE7BEF7FFFFFFFFFFFFF5
:1070B000FFFFFFFFFFFFFFFF0000000000000000D8
:1070C0003084FFFFFFFFFFFFFFFFFFFF2D6B00007E
:1070D0000000B294BEF75CE7FFFFFFFFFFFFFFFF7A
:1070E000FFFFFFFF14A50000000014A5FFFFFFFF36
:1070F000FFFFFFFFFFFFFFFF9AD600000000000028
:107100000000AA52BEF7FFFFFFFFFFFFFFFF14A51D
:10711000000000000000000014A5FBDE2421000098
:10712000000000000000000000000000000000005F
:10713000000000000000000000000000000000004F
:10714000000000000000000000000000000000003F
:10715000000000000000000000000000000000002F
:10716000000000000000000000000000000000001F
:10717000000000000000000000000000000000000F
:1071800000000000000000000000000000000000FF
:10719000084238C624210000000000000000000062
:1071A0000842BEF7FFFFFFFFFFFFFFFFFFFFFFFFEC
:1071B00014A50000000000009AD6FFFFFFFFFFFFAC
:1071C000FFFFFFFFFFFF2D6B000008425CE724215B
:1071D000CF7BFFFFFFFFFFFFFFFFFFFFFFFF9AD601
:1071E000000000000000000075ADFFFFFFFFFFFF83
:1071F000FFFFFFFFFFFFFFFF0000000000002D6BFF
:10720000FFFFFFFFFFFFFFFFFFFFFFFF2D6B0000F2
:10721000000000003084FFFFFFFFFFFFFFFFFFFFC4
:10722000FFFFFFFF14A50000000014A5FFFFFFFFF4
:10723000FFFFFFFFFFFFFFFF9AD6000000000000E6
:107240002421BEF7FFFFFFFFFFFFFFFFFFFF14A595
:1072500000000000000000000000B2949AD6000078
:10726000000000000000000000000000000000001E
:10727000000000000000000000000000000000000E
:1072800000000000000000000000000000000000FE
:1072900000000000000000000000000000000000EE
:1072A00000000000000000000000000000000000DE
:1072B00000000000000000000000000000000000CE
:1072C00000000000000000000000000000000000BE
:1072D0000000000000000000000000000000242169
:1072E000FBDEFFFFFFFFFFFFFFFFFFFFFFFFFFFFD3
:1072F0005CE7000000000000FFFFFFFFFFFFFFFF53
:10730000FFFFFFFFFFFF2D6B00000000D7BD2D6BBF
:1073100014A5FFFFFFFFFFFFFFFFFFFFFFFF9AD650
:1073200000000000000000002D6BFFFFFFFFFFFFCB
:10733000FFFFFFFFFFFFFFFF0000000000005CE712
:10734000FFFFFFFFFFFFFFFFFFFFFFFF2D6B0000B1
:107350000000000000009AD6FFFFFFFFFFFFFFFFC5
:10736000FFFFFFFF14A50000000014A5FFFFFFFFB3
:10737000FFFFFFFFFFFFFFFF9AD6000000000000A5
:10738000D7BDFFFFFFFFFFFFFFFFFFFFFFFF14A5BC
:107390000000000000000000000000009AD63084C9
:1073A00000000000000000000000000000000000DD
:1073B00000000000000000000000000000000000CD
:1073C00000000000000000000000000000000000BD
:1073D00000000000000000000000000000000000AD
:1073E000000000000000000000000000000000009D
:1073F000000000000000000000000000000000008D
:10740000000000000000000000000000000000007C
:107410000000000000000000000000002421FBDE4E
:10742000FFFFFFFFFFFFFFFFFFFFFFFFFFFFFFFF6C
:10743000FFFF000000000000FFFFFFFFFFFFFFFF56
:10744000FFFFFFFFFFFF2D6B0000000000000000AA
:1074500014A5FFFFFFFFFFFFFFFFFFFFFFFF9AD60F
:1074600000000000000000002D6BFFFFFFFFFFFF8A
:10747000FFFFFFFFFFFFFFFF00000000CF7BFFFFCC
:10748000FFFFFFFFFFFFFFFFFFFFFFFF2D6B000070
:107490000000000000009AD6FFFFFFFFFFFFFFFF84
:1074A000FFFFFFFF14A50000000014A5FFFFFFFF72
:1074B000FFFFFFFFFFFFFFFF9AD60000000024211F
:1074C000FFFFFFFFFFFFFFFFFFFFFFFFFFFF14A511
:1074D0000000000000000000000000002D6B9AD6A4
:1074E000000000000000000000000000000000009C
:1074F000000000000000000000000000000000008C
:10750000000000000000000000000000000000007B
:10751000000000000000000000000000000000006B
:10752000000000000000000000000000000000005B
:10753000000000000000000000000000000000004B
:10754000000000000000000000000000000000003B
:10755000000000000000000000002421FBDEFFFF0F
:10756000FFFFFFFFFFFFFFFFFFFFFFFFFFFFFFFF2B
:10757000BEF7000000000000FFFFFFFFFFFFFFFF5E
:10758000FFFFFFFFFFFF2D6B000000000000000069
:1075900014A5FFFFFFFFFFFFFFFFFFFFFFFF9AD6CE
:1075A00000000000000000002D6BFFFFFFFFFFFF49
:1075B000FFFFFFFFFFFFFFFF0000000075ADFFFFB3
:1075C000FFFFFFFFFFFFFFFFFFFFFFFF2D6B00002F
:1075D0000000000000009AD6FFFFFFFFFFFFFFFF43
:1075E000FFFFFFFF14A50000000014A5FFFFFFFF31
:1075F000FFFFFFFFFFFFFFFF9AD600000000CF7BD9
:10760000FFFFFFFFFFFFFFFFFFFFFFFFFFFF14A5CF
:107610000000000000000000000000000000BEF7B5
:107620002421000000000000000000000000000015
:10763000000000000000000000000000000000004A
:10764000000000000000000000000000000000003A
:10765000000000000000000000000000000000002A
:10766000000000000000000000000000000000001A
:10767000000000000000000000000000000000000A
:1076800000000000000000000000000000000000FA
:1076900000000000000000002421FBDEFFFFFFFFD0
:1076A000FFFFFFFFFFFFFFFFFFFFFFFFFFFFFFFFEA
:1076B000D7BD000000000000FFFFFFFFFFFFFFFF3E
:1076C000FFFFFFFFFFFF2D6B000000000000000028
:1076D00014A5FFFFFFFFFFFFFFFFFFFFFFFF9AD68D
:1076E00000000000000000002D6BFFFFFFFFFFFF08
:1076F000FFFFFFFFFFFFFFFF000000009AD6FFFF24
:10770000FFFFFFFFFFFFFFFFFFFFFFFF2D6B0000ED
:107710000000000000009AD6FFFFFFFFFFFFFFFF01
:10772000FFFFFFFF14A50000000014A5FFFFFFFFEF
:10773000FFFFFFFFFFFFFFFF9AD60000000014A528
:10774000FFFFFFFFFFFFFFFFFFFFFFFFFFFF14A58E
:1077500000000000000000000000000000009AD6B9
:107760002D6B000000000000000000000000000081
:107770000000000000000000000000000000000009
:1077800000000000000000000000000000000000F9
:1077900000000000000000000000000000000000E9
:1077A00000000000000000000000000000000000D9
:1077B00000000000000000000000000000000000C9
:1077C00000000000000000000000000000000000B9
:1077D0000000000000000000D7BDFFFFFFFFFFFF1B
:1077E000FFFFFFFFFFFFFFFFFFFFFFFFFFFFFFFFA9
:1077F0000842000000000000FFFFFFFFFFFFFFFF47
:10780000FFFFFFFFFFFF2D6B0000000000000000E6
:1078100014A5FFFFFFFFFFFFFFFFFFFFFFFF9AD64B
:1078200000000000000000002D6BFFFFFFFFFFFFC6
:10783000FFFFFFFFFFFFFFFF000000009AD6FFFFE2
:10784000FFFFFFFFFFFFFFFFFFFFFFFF2D6B0000AC
:107850000000000000009AD6FFFFFFFFFFFFFFFFC0
:10786000FFFFFFFF14A50000000014A5FFFFFFFFAE
:10787000FFFFFFFFFFFFFFFF9AD60000000014A5E7
:10788000FFFFFFFFFFFFFFFFFFFFFFFFFFFF14A54D
:1078900000000000000000000000000000009AD678
:1078A0002D6B000000000000000000000000000040
:1078B00000000000000000000000000000000000C8
:1078C00000000000000000000000000000000000B8
:1078D00000000000000000000000000000000000A8
:1078E0000000000000000000000000000000000098
:1078F0000000000000000000000000000000000088
:107900000000000000000000000000000000000077
:1079100000000000000075ADFFFFFFFFFFFFFFFF4D
:10792000FFFFFFFFFFFFFFFFFFFFFFFFFFFF14A5AC
:107930000000000000000000FFFFFFFFFFFFFFFF4F
:10794000FFFFFFFFFFFF2D6B0000000000000000A5
:1079500014A5FFFFFFFFFFFFFFFFFFFFFFFF9AD60A
:1079600000000000000000002D6BFFFFFFFFFFFF85
:10797000FFFFFFFFFFFFFFFF000000009AD6FFFFA1
:10798000FFFFFFFFFFFFFFFFFFFFFFFF2D6B00006B
:107990000000000000009AD6FFFFFFFFFFFFFFFF7F
:1079A000FFFFFFFF14A50000000014A5FFFFFFFF6D
:1079B000FFFFFFFFFFFFFFFF9AD600000000B29419
:1079C000FFFFFFFFFFFFFFFFFFFFFFFFFFFF14A50C
:1079D00000000000000000000000000000005CE764
:1079E000084200000000000000000000000000004D
:1079F0000000000000000000000000000000000087
:107A00000000000000000000000000000000000076
:107A10000000000000000000000000000000000066
:107A20000000000000000000000000000000000056
:107A30000000000000000000000000000000000046
:107A40000000000000000000000000000000000036
:107A500000000000CF7BFFFFFFFFFFFFFFFFFFFFE6
:107A6000FFFFFFFFFFFFFFFFFFFFFFFF38C6000024
:107A70000000000000000000FFFFFFFFFFFFFFFF0E
:107A8000FFFFFFFFFFFF2D6B000000000000000064
:107A900014A5FFFFFFFFFFFFFFFFFFFFFFFF9AD6C9
:107AA00000000000000000002D6BFFFFFFFFFFFF44
:107AB000FFFFFFFFFFFFFFFF0000000014A5FFFF17
:107AC000FFFFFFFFFFFFFFFFFFFFFFFF2D6B00002A
:107AD0000000000000009AD6FFFFFFFFFFFFFFFF3E
:107AE000FFFFFFFF14A50000000014A5FFFFFFFF2C
:107AF000FFFFFFFFFFFFFFFF9AD600000000AA5222
:107B0000FFFFFFFFFFFFFFFFFFFFFFFFFFFF14A5CA
:107B10000000000000000000000000000842BEF766
:107B20000000000000000000000000000000000055
:107B30000000000000000000000000000000000045
:107B40000000000000000000000000000000000035
:107B50000000000000000000000000000000000025
:107B60000000000000000000000000000000000015
:107B70000000000000000000000000000000000005
:107B800000000000000000000000000000000000F5
:107B900000002421BEF7FFFFFFFFFFFFFFFFFFFFF5
:107BA000FFFFFFFFFFFFFFFFFFFFFBDE24210000C1
:107BB0000000000000000000FFFFFFFFFFFFFFFFCD
:107BC000FFFFFFFFFFFF2D6B000000000000000023
:107BD00014A5FFFFFFFFFFFFFFFFFFFFFFFF9AD688
:107BE00000000000000000002D6BFFFFFFFFFFFF03
:107BF000FFFFFFFFFFFFFFFF00000000AA52FFFF93
:107C0000FFFFFFFFFFFFFFFFFFFFFFFF2D6B0000E8
:107C10000000000000009AD6FFFFFFFFFFFFFFFFFC
:107C2000FFFFFFFF14A50000000014A5FFFFFFFFEA
:107C3000FFFFFFFFFFFFFFFF9AD6000000000000DC
:107C40005CE7FFFFFFFFFFFFFFFFFFFFFFFF14A544
:107C500000000000000000000000000014A575AD49
:107C60000000000000000000000000000000000014
:107C70000000000000000000000000000000000004
:107C800000000000000000000000000000000000F4
:107C900000000000000000000000000000000000E4
:107CA00000000000000000000000000000000000D4
:107CB00000000000000000000000000000000000C4
:107CC00000000000000000000000000000000000B4
:107CD000000014A5FFFFFFFFFFFFFFFFFFFFFFFFF7
:107CE000FFFFFFFFFFFFFFFF5CE724210000000014
:107CF0000000000000000000FFFFFFFFFFFFFFFF8C
:107D0000FFFFFFFFFFFF2D6B0000000000000000E1
:107D100014A5FFFFFFFFFFFFFFFFFFFFFFFF9AD646
:107D200000000000000000002D6BFFFFFFFFFFFFC1
:107D3000FFFFFFFFFFFFFFFF00000000000038C64D
:107D4000FFFFFFFFFFFFFFFFFFFFFFFF2D6B0000A7
:107D50000000000000009AD6FFFFFFFFFFFFFFFFBB
:107D6000FFFFFFFF14A50000000014A5FFFFFFFFA9
:107D7000FFFFFFFFFFFFFFFF9AD60000000000009B
:107D8000CF7BFFFFFFFFFFFFFFFFFFFFFFFF14A5FC
:107D900000000000000000000000AA525CE724215F
:107DA00000000000000000000000000000000000D3
:107DB00000000000000000000000000000000000C3
:107DC00000000000000000000000000000000000B3
:107DD00000000000000000000000000000000000A3
:107DE0000000000000000000000000000000000093
:107DF0000000000000000000000000000000000083
:107E00000000000000000000000000000000000072
:107E100000005CE7FFFFFFFFFFFFFFFFFFFFFFFF2B
:107E2000FFFFFFFFFFFFBEF7AA52000000000000A7
:107E30000000000000000000FFFFFFFFFFFFFFFF4A
:107E4000FFFFFFFFFFFF2D6B0000000000000000A0
:107E500014A5FFFFFFFFFFFFFFFFFFFFFFFF9AD605
:107E600000000000000000002D6BFFFFFFFFFFFF80
:107E7000FFFFFFFFFFFFFFFF0000000000002421C5
:107E80005CE7FFFFFFFFFFFFFFFFFFFF2D6B000021
:107E90000000000024215CE7FFFFFFFFFFFFFFFF62
:107EA000FFFFFFFF14A50000000014A5FFFFFFFF68
:107EB000FFFFFFFFFFFFFFFF9AD60000000000005A
:107EC0000000D7BDFFFFFFFFFFFFFFFFFFFF14A56F
:107ED0000000000000000000AA52BEF7308400003D
:107EE0000000000000000000000000000000000092
:107EF0000000000000000000000000000000000082
:107F00000000000000000000000000000000000071
:107F10000000000000000000000000000000000061
:107F20000000000000000000000000000000000051
:107F30000000000000000000000000000000000041
:107F40000000000000000000000000000000000031
:107F50000000FFFFFFFFFFFFFFFFFFFFFFFFFFFF2F
:107F6000FFFFFFFFBEF7AA52000000000000000064
:107F70000000000000000000FFFFFFFFFFFFFFFF09
:107F8000FFFFFFFFFFFF2D6B00000000000000005F
:107F900014A5FFFFFFFFFFFFFFFFFFFFFFFF9AD6C4
:107FA00000000000000000002D6BFFFFFFFFFFFF3F
:107FB000FFFFFFFFFFFFFFFF0000000000000000C9
:107FC000AA52FBDEFFFFFFFFFFFFFFFF2D6B00004C
:107FD00000002D6BFBDE5CE7FFFFFFFFFFFFFFFFF5
:107FE000FFFFFFFF14A50000000014A5FFFFFFFF27
:107FF000FFFFFFFFFFFFFFFF9AD600000000000019
:108000000000000075ADFFFFFFFFFFFFFFFF14A59D
:10801000000000000000B2945CE730840000000023
:108020000000000000000000000000000000000050
:108030000000000000000000000000000000000040
:108040000000000000000000000000000000000030
:108050000000000000000000000000000000000020
:108060000000000000000000000000000000000010
:108070000000000000000000000000000000000000
:1080800000000000000000000000000000000000F0
:108090000000FFFFFFFFFFFFFFFFFFFFFFFFFFFFEE
:1080A000FFFFFFFFAA5200000000000000000000D8
:1080B000000008429AD69AD6FFFFFFFFFFFFFFFF9E
:1080C000FFFFFFFFFFFFFBDE9AD69AD63084000049
:1080D00014A5FFFFFFFFFFFFFFFFFFFFFFFF9AD683
:1080E00000000000000000002D6BFFFFFFFFFFFFFE
:1080F000FFFFFFFFFFFFFFFF000000000000000088
:108100000000242114A5BEF7FFFFFFFFFBDE14A52E
:10811000FBDE9AD608429AD6FFFFFFFFFFFFFFFF64
:10812000FFFFFFFF14A50000000014A5FFFFFFFFE5
:10813000FFFFFFFFFFFFFFFF9AD6000000000000D7
:108140000000000000002D6B9AD6FFFFFFFF9AD6BB
:1081500014A5D7BDBEF7D7BD08420000000000003F
:10816000000000000000000000000000000000000F
:1081700000000000000000000000000000000000FF
:1081800000000000000000000000000000000000EF
:1081900000000000000000000000000000000000DF
:1081A00000000000000000000000000000000000CF
:1081B00000000000000000000000000000000000BF
:1081C00000000000000000000000000000000000AF
:1081D000000038C6FFFFFFFFFFFFFFFFFFFFFFFFAD
:1081E000FFFF3084000000000000000000000000DD
:1081F000000024212D6B2D6BFFFFFFFFFFFFFFFF12
:10820000FFFFFFFFFFFF2D6B2D6B2D6B0842000062
:1082100008422D6B2D6B2D6B2D6B2D6B2D6BAA5288
:10822000000000000000000024212D6B2D6B2D6B41
:108230002D6B2D6B2D6B2D6B0000000000000000DE
:1082400000000000000000002D6B14A514A5308470
:108250000842000000009AD6FFFFFFFFFFFFFFFF6C
:10826000FFFFFFFF14A50000000008422D6B2D6BDF
:108270002D6B2D6B2D6B2D6BAA52000000000000A2
:10828000000000000000000000000842308414A537
:1082900014A5CF7B24210000000000000000000096
:1082A00000000000000000000000000000000000CE
:1082B00000000000000000000000000000000000BE
:1082C00000000000000000000000000000000000AE
:1082D000000000000000000000000000000000009E
:1082E000000000000000000000000000000000008E
:1082F000000000000000000000000000000000007E
:10830000000000000000000000000000000000006D
:108310000000AA52FFFFFFFFFFFFFFFFFFFFFFFF6D
:1083200014A500000000000000000000AA52AA529C
:108330000000000000000000FFFFFFFFFFFFFFFF45
:10834000FFFFFFFFFFFF24210000000000000000EE
:10835000000000000000000000000000000000001D
:10836000000000000000000000000000000000000D
:1083700000000000000000000000000000000000FD
:1083800000000000000000000000000000000000ED
:108390000000000000009AD6FFFFFFFFFFFFFFFF75
:1083A000FFFFFFFF14A5000000000000242130841F
:1083B00014A514A53084084200000000000000004D
:1083C00000000000000000000000000000000000AD
:1083D000000000000000000000000000000000009D
:1083E000000000000000000000000000000000008D
:1083F000000000000000000000000000000000007D
:10840000000000000000000000000000000000006C
:10841000000000000000000000000000000000005C
:10842000000000000000000000000000000000004C
:10843000000000000000000000000000000000003C
:10844000000000000000000000000000000000002C
:10845000000000003084FFFFFFFFFFFFFFFFFFFF72
:1084600024210000000000000000B294FFFF2D6BEB
:108470000000000000000000084214A55CE7FFFFB8
:10848000FFFFFFFFFFFF2D6B00000000000000005A
:1084900000000000000000000000000000000000DC
:1084A00000000000000000000000000000000000CC
:1084B00000000000000000000000000000000000BC
:1084C00000000000000000000000000000000000AC
:1084D0000000000000009AD6FFFFFFFFFFFFFFFF34
:1084E000FFFFFFFF14A5000000000842BEF7FFFFDA
:1084F000FFFFFFFFFFFFBEF7CF7B00000000000083
:10850000000000000000000000000000000000006B
:10851000000000000000000000000000000000005B
:10852000000000000000000000000000000000004B
:10853000000000000000000000000000000000003B
:10854000000000000000000000000000000000002B
:10855000000000000000000000000000000000001B
:10856000000000000000000000000000000000000B
:1085700000000000000000000000000000000000FB
:1085800000000000000000000000000000000000EB
:10859000000000000000AA529AD6FFFFFFFFFFFF75
:1085A00014A52D6B2D6B75AD5CE79AD6AA52000011
:1085B0000000000000000000000000000000308407
:1085C0005CE7FFFFFFFF2D6B0000000000000000D4
:1085D000000000000000000000000000000000009B
:1085E000000000000000000000000000000000008B
:1085F000000000000000000000000000000000007B
:10860000000000000000000000000000000000006A
:108610000000000000009AD6FFFFFFFFFFFFFFFFF2
:10862000FFFFFFFF14A50000000014A5FFFFFFFFE0
:10863000FFFFFFFFFFFFFFFF9AD6000000000000D2
:10864000000000000000000000000000000000002A
:10865000000000000000000000000000000000001A
:10866000000000000000000000000000000000000A
:1086700000000000000000000000000000000000FA
:1086800000000000000000000000000000000000EA
:1086900000000000000000000000000000000000DA
:1086A00000000000000000000000000000000000CA
:1086B00000000000000000000000000000000000BA
:1086C00000000000000000000000000000000000AA
:1086D000000000000000000000000842B294D7BD76
:1086E0009AD69AD638C614A5AA52000000000000F7
:1086F000000000000000000000000000000000007A
:10870000000030845CE72D6B0000000000000000DA
:108710000000000000000000000000000000000059
:108720000000000000000000000000000000000049
:108730000000000000000000000000000000000039
:108740000000000000000000000000000000000029
:10875000000000000000AA522D6B2D6B2D6B2D6BBD
:108760002D6B2D6B0842000000002D6BFFFFFFFFFB
:10877000FFFFFFFFFFFFFFFF14A500000000000048
:1087800000000000000000000000000000000000E9
:1087900000000000000000000000000000000000D9
:1087A00000000000000000000000000000000000C9
:1087B00000000000000000000000000000000000B9
:1087C00000000000000000000000000000000000A9
:1087D0000000000000000000000000000000000099
:1087E0000000000000000000000000000000000089
:1087F0000000000000000000000000000000000079
:108800000000000000000000000000000000000068
:108810000000000000000000000000000000000058
:108820000000000000000000000000000000000048
:108830000000000000000000000000000000000038
:10884000000000002421242100000000000000009E
:108850000000000000000000000000000000000018
:108860000000000000000000000000000000000008
:1088700000000000000000000000000000000000F8
:1088800000000000000000000000000000000000E8
:1088900000000000000000000000000000000000D8
:1088A0000000000000000000000000002D6BD7BD9C
:1088B0009AD69AD638C63084000000000000000026
:1088C00000000000000000000000000000000000A8
:1088D0000000000000000000000000000000000098
:1088E0000000000000000000000000000000000088
:1088F0000000000000000000000000000000000078
:108E0000000000000000000000002421000000001D
:108E10000000000000000000000000000000000052
:108E200000000000242100000000000000000000FD
:108E30000000000000000000000000000000000032
:108E40000000000000000000000000000000000022
:108E50000000000000000000000000000000000012
:108E60000000000000000000000000000000000002
:108E700000000000000000000000000000000000F2
:108E800000000000000000000000000000000000E2
:108E900000000000000000000000000000000000D2
:108EA00000000000000000000000000000000000C2
:108EB00000000000000000000000000000000000B2
:108EC00000000000000000000000000000000000A2
:108ED0000000000000000000000000000000000092
:108EE0000000000000000000000000000000000082
:108EF0000000000000000000000000000000000072
:108F00000000000000000000000000000000000061
:108F10000000000000000000000000000000000051
:108F20000000000000000000000000000000000041
:108F30000000000000000000000000000000000031
:108F400000000000000000000000D7BD000000008D
:108F50000000000000000000000000000000000011
:108F60000000242138C600000000000000000000BE
:108F700000000000000000000000000000000000F1
:108F800000000000000000000000000000000000E1
:108F900000000000000000000000AA5200000000D5
:108FA00000000000000000000000000000000000C1
:108FB00000000000000000000000000000000000B1
:108FC00000000000000000000000000000000000A1
:108FD0000000000000000000000000000000000091
:108FE0000000000000000000000000000000000081
:108FF0000000000000000000000000000000000071
:109000000000000000000000000000000000000060
:109010000000000000000000000000000000000050
:109020000000000000000000000000000000000040
:109030000000000000000000000000000000000030
:109040000000000000000000000000000000000020
:109050000000000000000000000000000000000010
:109060000000000000000000000000000000000000
:1090700000000000000000000000000000000000F0
:109080000000000000000000CF7BFFFF2D6B000000
:1090900000000000000000000000000000000000D0
:1090A000000014A5FFFF08420000000000000000BF
:1090B00000000000000000000000000000000000B0
:1090C000084275ADFBDEFFFFFFFFBEF738C63084F8
:1090D000242100000000000000005CE7CF7B0000BE
:1090E0000000000000000000000000000000000080
:1090F0000000000008429AD69AD69AD69AD69AD6F6
:109100009AD69AD69AD69AD69AD6242100000000EA
:1091100000000000308438C65CE7FFFFFFFF5CE71B
:10912000D7BD2D6B00000000000000000000000013
:109130000000242114A55CE7FFFFFFFF5CE775AD8D
:1091400008420000000000000000000000000000D5
:10915000000000000000000000000000000000000F
:1091600000000000000000000000000000000000FF
:1091700000000000000000000000000000000000EF
:1091800000000000000000000000000000000000DF
:1091900000000000000000000000000000000000CF
:1091A00000000000000000000000000000000000BF
:1091B00000000000000000000000000000000000AF
:1091C000000000000000000038C6FFFF5CE7000060
:1091D000000000000000000000000000000000008F
:1091E0000842FFFFFFFFD7BD0000000000000000A5
:1091F000000000000000000000000000000014A5B6
:10920000FFFFFFFFBEF7AA5200002421CF7B9AD6B2
:10921000BEF7B29400000000000030845CE7242117
:10922000000000000000000000000000000000003E
:1092300000000000D7BDFFFFFFFFFFFFFFFFFFFFA4
:10924000FFFFFFFFFFFFFFFF14A50000000000006D
:10925000AA52FBDEFFFFFFFFFFFF38C600002421FC
:10926000CF7B9AD69AD6084200000000000000008A
:109270002421FBDEFFFFFFFFFFFFFFFFFFFFFFFFDC
:10928000BEF7308400000000000000000000000075
:1092900000000000000000000000000000000000CE
:1092A00000000000000000000000000000000000BE
:1092B00000000000000000000000000000000000AE
:1092C000000000000000000000000000000000009E
:1092D000000000000000000000000000000000008E
:1092E000000000000000000000000000000000007E
:1092F000000000000000000000000000000000006E
:109300000000000000000842FFFFFFFFFFFF308465
:10931000000000000000000000000000000000004D
:10932000D7BDFFFFFFFFFFFF24210000000000006A
:10933000000000000000000000000000D7BDFFFF9B
:10934000FFFFFFFF9AD600000000000000000000B1
:109350002D6BBEF738C62421000000009AD6D7BD79
:109360002D6B2D6B2D6B2D6B2D6B2D6B2D6B2D6B3D
:109370002D6B3084FFFFFFFFFFFFFFFFFFFFFFFFAD
:10938000FFFFFFFFFFFFBEF7242100000000AA52ED
:10939000BEF7FFFFFFFFFFFFFFFF14A50000000067
:1093A00000000000CF7B5CE7AA5200000000000034
:1093B000D7BDFFFFFFFFFFFFFFFFFFFFFFFFAA5229
:1093C0002D6BBEF7AA520000000000000000000054
:1093D000000000000000000000000000000000008D
:1093E000000000000000000000000000000000007D
:1093F000000000000000000000000000000000006D
:10940000000000000000000000000000000000005C
:10941000000000000000000000000000000000004C
:10942000000000000000000000000000000000003C
:10943000000000000000000000000000000000002C
:1094400000000000000014A5FFFFFFFFFFFFBEF7B4
:10945000242100000000000000000000000008427D
:10946000FFFFFFFFFFFFFFFF14A50000000000004B
:109470000000000000000000000014A5FFFFFFFF37
:10948000FFFFFFFF9AD60000000000000000000070
:1094900000002421FBDE9AD6000000002D6BFFFFA8
:1094A000FBDE9AD69AD69AD69AD69AD69AD69AD6D3
:1094B0009AD6BEF7FFFFFFFFFFFFFFFFFFFFFFFF93
:1094C000FFFFFFFFFFFFB294000000002421BEF762
:1094D000FFFFFFFFFFFFFFFFFFFF14A500000000DD
:1094E000000000000000AA525CE7AA520000000041
:1094F000FFFFFFFFFFFFFFFFFFFFFFFFFFFF00007A
:109500000000CF7B9AD600000000000000000000A1
:10951000000000000000000000000000000000004B
:10952000000000000000000000000000000000003B
:10953000000000000000000000000000000000002B
:10954000000000000000000000000000000000001B
:10955000000000000000000000000000000000000B
:1095600000000000000000000000000000000000FB
:1095700000000000000000000000000000000000EB
:109580000000000000005CE7FFFFFFFFFFFFFFFFA0
:1095900014A5000000000000000000000000D7BD7E
:1095A000FFFFFFFFFFFFFFFFBEF70000000000000E
:1095B00000000000000000000842FFFFFFFFFFFF67
:1095C000FFFFFFFF9AD6000000000000000000002F
:1095D00000000000AA52BEF7AA5200000000D7BD4A
:1095E000D7BD0000000000000000000000000000E7
:1095F000AA52FFFFFFFFFFFFFFFFFFFFFFFFFFFF7D
:10960000FFFFFFFF5CE7000000000000D7BDFFFF89
:10961000FFFFFFFFFFFFFFFFFFFF14A5000000009B
:109620000000000000000000B29438C600002D6B5E
:10963000FFFFFFFFFFFFFFFFFFFFFFFFFFFF000038
:10964000000000005CE700000000000000000000D7
:10965000000000000000000000000000000000000A
:1096600000000000000000000000000000000000FA
:1096700000000000000000000000000000000000EA
:1096800000000000000000000000000000000000DA
:1096900000000000000000000000000000000000CA
:1096A00000000000000000000000000000000000BA
:1096B00000000000000000000000000000000000AA
:1096C00000000000CF7BFFFFFFFFFFFFFFFFFFFF5A
:1096D000BEF7242100000000000000002D6BFFFFFA
:1096E000FFFFFFFFFFFFFFFFFFFF308400000000D0
:1096F000000000000000000014A5FFFFFFFFFFFFB7
:10970000FFFFFFFF9AD600000000000000000000ED
:1097100000000000000008420000000000002421BA
:10972000BEF7AA5200000000000000000000000088
:109730009AD6FFFFFFFFFFFFFFFFFFFFFFFFFFFFC7
:10974000FFFFFFFFCF7B000000002421FFFFFFFF92
:10975000FFFFFFFFFFFFFFFFFFFF14A5000000005A
:1097600000000000000000000000084200002D6B17
:10977000FFFFFFFFFFFFFFFFFFFFFFFFFFFF0000F7
:1097800000000000000000000000000000000000D9
:1097900000000000000000000000000000000000C9
:1097A00000000000000000000000000000000000B9
:1097B00000000000000000000000000000000000A9
:1097C0000000000000000000000000000000000099
:1097D0000000000000000000000000000000000089
:1097E0000000000000000000000000000000000079
:1097F0000000000000000000000000000000000069
:10980000000000009AD6FFFFFFFFFFFFFFFFFFFFF2
:10981000FFFFD7BD00000000000000009AD6FFFF48
:10982000FFFFFFFFFFFFFFFFFFFF5CE700000000FF
:109830000000000000000000FBDEFFFFFFFFFFFF55
:10984000FFFFFFFF9AD600000000000000000000AC
:109850000000000000000000000000000000000008
:10986000B2949AD6000000000000000000002D6BAA
:10987000FFFFFFFFFFFFFFFFFFFFFFFFFFFFFFFFF8
:10988000FFFF9AD6000000000000CF7BFFFFFFFF24
:10989000FFFFFFFFFFFFFFFFFFFF14A50000000019
:1098A00000000000000000000000000000002D6B20
:1098B000FFFFFFFFFFFFFFFFFFFFFFFFFFFF0000B6
:1098C0000000000000000000000000000000000098
:1098D0000000000000000000000000000000000088
:1098E0000000000000000000000000000000000078
:1098F0000000000000000000000000000000000068
:109900000000000000000000000000000000000057
:109910000000000000000000000000000000000047
:109920000000000000000000000000000000000037
:109930000000000000000000000000000000000027
:1099400000000842FFFFFFFFFFFFFFFFFFFFFFFFD9
:10995000FFFFFFFF0842000000002D6BFFFFFFFF2D
:10996000FFFFFFFFFFFFFFFFFFFFFFFF2D6B00006B
:109970000000000000000000FFFFFFFFFFFFFFFFEF
:10998000FFFFFFFFFBDE2D6B2D6B2D6B2D6B2D6B0A
:109990002D6B2D6B2D6B2D6BAA520000000000006B
:1099A00000005CE7CF7B00000000000000009AD6BA
:1099B000FFFFFFFFFFFFFFFFFFFFFFFFFFFFFFFFB7
:1099C000FFFF2D6B00000000000014A5FFFFFFFF4C
:1099D000FFFFFFFFFFFFFFFFFFFF14A500000000D8
:1099E00000000000000000000000000000002D6BDF
:1099F000FFFFFFFFFFFFFFFFFFFFFFFFFFFF000075
:109A00000000000000000000000000000000000056
:109A10000000000000000000000000000000000046
:109A20000000000000000000000000000000000036
:109A30000000000000000000000000000000000026
:109A40000000000000000000000000000000000016
:109A50000000000000000000000000000000000006
:109A600000000000000000000000000000000000F6
:109A700000000000000000000000000000000000E6
:109A8000000075ADFFFFFFFFFFFFFFFFFFFFFFFFC0
:109A9000FFFFFFFF9AD6000000005CE7FFFFFFFF1B
:109AA000FFFFFFFFFFFFFFFFFFFFFFFF9AD6000052
:109AB0000000000000000000FFFFFFFFFFFFFFFFAE
:109AC000FFFFFFFFBEF79AD69AD69AD6FBDEFFFFBE
:109AD000FFFFFFFFFFFFFFFF9AD60000000000001E
:109AE00000002D6B5CE72421000000003084FFFFA4
:109AF000FFFFFFFFFFFFFFFFFFFFFFFFFFFFFFFF76
:109B0000D7BD000000000000000014A5FFFFFFFF0C
:109B1000FFFFFFFFFFFFFFFFFFFF14A50000000096
:109B200000000000000000000000000000002D6B9D
:109B3000FFFFFFFFFFFFFFFFFFFFFFFFFFFF000033
:109B40000000000000000000000000000000000015
:109B50000000000000000000000000000000000005
:109B600000000000000000000000000000000000F5
:109B700000000000000000000000000000000000E5
:109B800000000000000000000000000000000000D5
:109B900000000000000000000000000000000000C5
:109BA00000000000000000000000000000000000B5
:109BB00000000000000000000000000000000000A5
:109BC0000000BEF7FFFFFFFFFFFFFFFFFFFFFFFFEC
:109BD000FFFFFFFFFFFF2D6BB294FFFFFFFFFFFFB3
:109BE000FFFFFFFFFFFFFFFFFFFFFFFFBEF7AA52D0
:109BF00000000000000000005CE7FFFFFFFFFFFF28
:109C0000FFFFFFFF9AD60000000000002D6BFFFF52
:109C1000FFFFFFFFFFFFFFFFD7BD000000000000B8
:109C20000000000038C614A5000000005CE7FFFF3C
:109C3000FFFFFFFFFFFFFFFFFFFFFFFFFFFFBEF77D
:109C400008420000000000000000B294FFFFFFFF88
:109C5000FFFFFFFFFFFFFFFFFFFF14A50000000055
:109C600000000000000000000000000000002D6B5C
:109C7000FFFFFFFFFFFFFFFFFFFFFFFFFFFF0000F2
:109C800000000000000000000000000000000000D4
:109C900000000000000000000000000000000000C4
:109CA00000000000000000000000000000000000B4
:109CB00000000000000000000000000000000000A4
:109CC0000000000000000000000000000000000094
:109CD0000000000000000000000000000000000084
:109CE0000000000000000000000000000000000074
:109CF0000000000000000000000000000000000064
:109D00003084FFFFFFFFFFFFFFFFFFFFFFFFFFFFAD
:109D1000FFFFD7BD14A55CE7BEF7FFFFFFFFFFFF06
:109D2000FFFFFFFFFFFFFFFFFFFFD7BDD7BDD7BD81
:109D30000000000000000000D7BDFFFFFFFFFFFF95
:109D4000FFFFFFFF9AD60000000000002D6BFFFF11
:109D5000FFFFFFFFFFFFFFFFB294000000000000C5
:109D60000000000008425CE708423084FFFFFFFF6C
:109D7000FFFFFFFFFFFFFFFFFFFFFFFFFFFF14A538
:109D800000000000000000000000AA52FFFFFFFFDB
:109D9000FFFFFFFFFFFFFFFFFFFF14A50000000014
:109DA00000000000000000000000000000002D6B1B
:109DB000FFFFFFFFFFFFFFFFFFFFFFFFFFFF0000B1
:109DC0000000000000000000000000000000000093
:109DD0000000000000000000000000000000000083
:109DE0000000000000000000000000000000000073
:109DF0000000000000000000000000000000000063
:109E00000000000000000000000000000000000052
:109E10000000000000000000000000000000000042
:109E20000000000000000000000000000000000032
:109E30000000000000000000000000000000000022
:109E40009AD6FFFFFFFFFFFFFFFFFFFFFFFFFFFFB0
:109E5000FFFFAA522421BEF7FFFFFFFFFFFFFFFF16
:109E6000FFFFFFFFFFFFFFFFBEF724210842FFFFB8
:109E700008420000000000002D6BFFFFFFFFFFFF06
:109E8000FFFFFFFF9AD60000000000002D6BFFFFD0
:109E9000FFFFFFFFFFFFFFFF084200000000000080
:109EA00000000000000014A538C65CE7FFFFFFFFBC
:109EB000FFFFFFFFFFFFFFFFFFFFFFFFBEF72421B4
:109EC0000000000000000000000000005CE7FFFF51
:109ED000FFFFFFFFFFFFFFFFFFFF14A500000000D3
:109EE00000000000000000000000000000002D6BDA
:109EF000FFFFFFFFFFFFFFFFFFFFFFFFFFFF000070
:109F00000000000000000000000000000000000051
:109F10000000000000000000000000000000000041
:109F20000000000000000000000000000000000031
:109F30000000000000000000000000000000000021
:109F40000000000000000000000000000000000011
:109F50000000000000000000000000000000000001
:109F600000000000000000000000000000000000F1
:109F70000000000000000000000000000000084297
:109F8000FFFFFFFFFFFFFFFFFFFFFFFFFFFFFFFFE1
:109F90009AD6000000003084FFFFFFFFFFFFFFFFA5
:109FA000FFFFFFFFFFFFFFFF14A50000000038C602
:109FB00014A500000000000000009AD6FFFFFFFF7C
:109FC000FFFFFFFF9AD60000000000002D6BFFFF8F
:109FD000FFFFFFFFFFFF75AD000000000000000065
:109FE00000000000000024215CE7FFFFFFFFFFFFEF
:109FF000FFFFFFFFFFFFFFFFFFFFFFFF30840000B9
:10A00000000000000000000000000000CF7BFFFF08
:10A01000FFFFFFFFFFFFFFFFFFFF14A50000000091
:10A020000000000000002421D7BD000000002D6BBF
:10A03000FFFFFFFFFFFFFFFFFFFFFFFFFFFF00002E
:10A040000000000000000000000000000000000010
:10A050000000000000000000000000000000000000
:10A0600000000000000000000000000000000000F0
:10A0700000000000000000000000000000000000E0
:10A0800000000000000000000000000000000000D0
:10A0900000000000000000000000000000000000C0
:10A0A00000000000000000000000000000000000B0
:10A0B000000000000000000000000000000075AD7E
:10A0C000FFFFFFFFFFFFFFFFFFFFFFFFFFFFFFFFA0
:10A0D00030840000000000005CE7FFFFFFFFFFFF8F
:10A0E000FFFFFFFFFFFF5CE72421000000002D6B56
:10A0F000BEF724210000000000000842BEF7FFFF69
:10A10000FFFFFFFF9AD60000000000002D6BFFFF4D
:10A11000FFFFFFFFFBDE2421000000000000000025
:10A120000000000000000000CF7BFFFFFFFFFFFFEB
:10A13000FFFFFFFFFFFFFFFFFFFF5CE700000000E6
:10A140000000000000000000000000000000D7BD7B
:10A15000FFFFFFFFFFFFFFFFFFFF14A50000000050
:10A16000000000000000D7BD9AD6000000002D6B53
:10A17000FFFFFFFFFFFFFFFFFFFFFFFFFFFF0000ED
:10A1800000000000000000000000000000000000CF
:10A1900000000000000000000000000000000000BF
:10A1A00000000000000000000000000000000000AF
:10A1B000000000000000000000000000000000009F
:10A1C000000000000000000000000000000000008F
:10A1D000000000000000000000000000000000007F
:10A1E000000000000000000000000000000000006F
:10A1F0000000000000000000000000002421BEF765
:10A20000FFFFFFFFFFFFFFFFFFFFFFFFFFFFBEF7A7
:10A2100000000000000000002D6BFFFFFFFFFFFFAC
:10A22000FFFFFFFFFFFF3084000000000000000080
:10A230005CE730840000000000000000AA525CE7E8
:10A24000FFFFFFFF5CE7000000000000CF7BFFFF87
:10A25000FFFFFBDE242100000000000000000000E2
:10A26000000000000000000000009AD6FFFFFFFF82
:10A27000FFFFFFFFFFFFFFFFFFFF2D6B0000000050
:10A2800000000000000000000000000000000000CE
:10A2900075ADFFFFFFFFFFFFFFFF75AD0000000082
:10A2A00000002D6B9AD6FBDE2421000000002D6BF0
:10A2B000FFFFFFFFFFFFFFFFFFFFFFFFFFFF0000AC
:10A2C000000000000000000000000000000000008E
:10A2D000000000000000000000000000000000007E
:10A2E000000000000000000000000000000000006E
:10A2F000000000000000000000000000000000005E
:10A30000000000000000000000000000000000004D
:10A31000000000000000000000000000000000003D
:10A32000000000000000000000000000000000002D
:10A330000000000000000000000000003084FFFF6B
:10A34000FFFFFFFFFFFFFFFFFFFFFFFFFFFF14A562
:10A35000000000000000000000009AD6FFFFFFFF91
:10A36000FFFFFFFF5CE700000000000000000000AE
:10A37000B2945CE70000000000000000000024210F
:10A3800014A5BEF7FFFF9AD614A575ADBEF75CE71E
:10A3900014A5000000000000000000000000000004
:10A3A000000000000000000000000842FFFFFFFF67
:10A3B000FFFFFFFFFFFFFFFF9AD600000000000035
:10A3C000000000000000000000000000000000008D
:10A3D00000002D6B9AD6FFFFFFFFBEF775AD14A5E9
:10A3E000FBDE5CE714A500000000CF7B9AD6FBDE05
:10A3F000FFFFFFFFFFFFFFFFFFFFFFFFFFFF9AD6FB
:10A400009AD69AD6AA520000000000000000000070
:10A41000000000000000000000000000000000003C
:10A42000000000000000000000000000000000002C
:10A43000000000000000000000000000000000001C
:10A44000000000000000000000000000000000000C
:10A4500000000000000000000000000000000000FC
:10A4600000000000000000000000000000000000EC
:10A470000000000000000000000000005CE7FFFF9B
:10A48000FFFFFFFFFFFFFFFFFFFFFFFFFFFF084290
:10A49000000000000000000000002D6BFFFFFFFF28
:10A4A000FFFFFFFF2D6B0000000000000000000018
:10A4B0002421BEF7308400000000000000000000EE
:10A4C000000000002D6B14A514A514A52D6B000031
:10A4D000000000000000000000000000000000007C
:10A4E00000000000000000000000000014A5FFFFB5
:10A4F000FFFFFFFFFFFFFFFFAA5200000000000068
:10A50000000000000000000000000000000000004B
:10A510000000000000000842308414A514A5B29485
:10A520002D6B000000000000000008422D6BB2946B
:10A53000FFFFFFFFFFFFFFFFFFFFFFFFFBDE2D6BB6
:10A540002D6B2D6B24210000000000000000000096
:10A5500000000000000000000000000000000000FB
:10A5600000000000000000000000000000000000EB
:10A5700000000000000000000000000000000000DB
:10A5800000000000000000000000000000000000CB
:10A5900000000000000000000000000000000000BB
:10A5A00000000000000000000000000000000000AB
:10A5B000000000000000000000002D6BFFFFFFFF07
:10A5C000FFFFFFFFFFFFFFFFFFFFFFFF38C6000099
:10A5D000000000000000000000000000D7BDFFFFE9
:10A5E000FFFF9AD6000000000000000000000000FD
:10A5F0000000D7BD9AD60000000000000000000057
:10A60000000000000000000000000000000000004A
:10A61000000000000000000000000000000000003A
:10A620000000000000000000000000002421BEF730
:10A63000FFFFFFFFFFFFD7BD00000000000000008C
:10A64000000000000000000000000000000000000A
:10A6500000000000000000000000000000000000FA
:10A6600000000000000000000000000000002D6B52
:10A67000FFFFFFFFFFFFFFFFFFFFFFFFFBDE00000D
:10A6800000000000000000000000000000000000CA
:10A6900000000000000000000000000000000000BA
:10A6A00000000000000000000000000000000000AA
:10A6B000000000000000000000000000000000009A
:10A6C000000000000000000000000000000000008A
:10A6D000000000000000000000000000000000007A
:10A6E000000000000000000000000000000000006A
:10A6F0000000000000000000000038C6FFFFFFFF60
:10A70000FFFFFFFFFFFFFFFFFFFFFFFF30840000A1
:10A710000000000000000000000000000842FFFFF1
:10A72000FFFF2D6B00000000000000000000000093
:10A730000000AA52FFFF2D6B000000000000000087
:10A740000000000000000000000000000000000009
:10A7500000000000000000000000000000000000F9
:10A760000000000000000000000000000000308435
:10A77000FFFFFFFFBEF724210000000000000000E3
:10A7800000000000000000000000000000000000C9
:10A7900000000000000000000000000000000000B9
:10A7A00000000000000000000000000000000000A9
:10A7B000AA52D7BDBEF7FFFFFFFFFFFFFFFF00005C
:10A7C0000000000000000000000000000000000089
:10A7D0000000000000000000000000000000000079
:10A7E0000000000000000000000000000000000069
:10A7F0000000000000000000000000000000000059
:10A800000000000000000000000000000000000048
:10A810000000000000000000000000000000000038
:10A820000000000000000000000000000000000028
:10A8300000000000000000000842FFFFFFFFFFFFD4
:10A84000FFFFFFFFFFFFFFFFFFFFBEF7000000005D
:10A85000000000000000000000000000000075ADD6
:10A860009AD6000000000000000000000000000078
:10A8700000000000FBDED7BD00000000000000006B
:10A8800000000000000000000000000000000000C8
:10A8900000000000000000000000000000000000B8
:10A8A00000000000000000000000000000000000A8
:10A8B0009AD6FFFF14A50000000000000000000071
:10A8C0000000000000000000000000000000000088
:10A8D0000000000000000000000000000000000078
:10A8E0000000000000000000000000000000000068
:10A8F00000000000242114A5BEF7FFFFFFFF0000A9
:10A900000000000000000000000000000000000047
:10A910000000000000000000000000000000000037
:10A920000000000000000000000000000000000027
:10A930000000000000000000000000000000000017
:10A940000000000000000000000000000000000007
:10A9500000000000000000000000000000000000F7
:10A9600000000000000000000000000000000000E7
:10A97000000000000000000008422D6B2D6B2D6BC5
:10A980002D6B2D6B2D6B2D6B2D6BAA5200000000D3
:10A990000000000000000000000000000000242172
:10A9A0002D6B00000000000000000000000000000F
:10A9B0000000000008420842000000000000000003
:10A9C0000000000000000000000000000000000087
:10A9D0000000000000000000000000000000000077
:10A9E0000000000000000000000000000000000067
:10A9F0002D6B5CE724210000000000000000000037
:10AA00000000000000000000000000000000000046
:10AA10000000000000000000000000000000000036
:10AA20000000000000000000000000000000000026
:10AA30000000000000000000242114A5BEF7000063
:10AA40000000000000000000000000000000000006
:10AA500000000000000000000000000000000000F6
:10AA600000000000000000000000000000000000E6
:10AA700000000000000000000000000000000000D6
:10AA800000000000000000000000000000000000C6
:10AA900000000000000000000000000000000000B6
:10AAA00000000000000000000000000000000000A6
:10AAB0000000000000000000000000000000000096
:10AAC0000000000000000000000000000000000086
:10AAD0000000000000000000000000000000000076
:10AAE0000000000000000000000000000000000066
:10AAF0000000000000000000000000000000000056
:10AB00000000000000000000000000000000000045
:10AB10000000000000000000000000000000000035
:10AB20000000000000000000000000000000000025
:10AB300000000842000000000000000000000000CB
:10AB40000000000000000000000000000000000005
:10AB500000000000000000000000000000000000F5
:10AB600000000000000000000000000000000000E5
:10AB7000000000000000000000000000084200008B
:10AB800000000000000000000000000000000000C5
:10AB900000000000000000000000000000000000B5
:10ABA00000000000000000000000000000000000A5
:10ABB0000000000000000000000000000000000095
:10B8900000F800F80000000000000000E007E007EA
:10B8A000E007E007E007E007E007E007E007E00760
:10B8B000E007E007E007E007E007E007E007E00750
:10B8C00000000000000000001F001F001F001F00FC
:10B8D0001F001F001F001F001F001F001F001F0070
:10B8E0001F001F001F001F001F001F00000000009E
:10B8F0000000000000000000000000000000000048
:10B900000000000000000000000000000000000037
:10B910000000000000000000000000000000000027
:10B920000000000000000000000000000000000017
:10B930000000000000000000000000000000000007
:10B9400000000000000000000000000000000000F7
:10B9500000000000000000000000000000000000E7
:10B9600000000000000000000000000000000000D7
:10B9700000000000000000000000000000000000C7
:10B9800000000000000000000000000000000000B7
:10B9900000000000000000000000000000000000A7
:10B9A0000000000000000000000000000000000097
:10B9B00000F800F800F800F800F800F800F800F8C7
:10B9C00000F800F800F800F800F800F800F800F8B7
:10B9D00000F800F80000000000000000E007E007A9
:10B9E000E007E007E007E007E007E007E007E0071F
:10B9F000E007E007E007E007E007E007E007E0070F
:10BA000000000000000000001F001F001F001F00BA
:10BA10001F001F001F001F001F001F001F001F002E
:10BA20001F001F001F001F001F001F00000000005C
:10BA30000000000000000000000000000000000006
:10BA400000000000000000000000000000000000F6
:10BA500000000000000000000000000000000000E6
:10BA600000000000000000000000000000000000D6
:10BA700000000000000000000000000000000000C6
:10BA800000000000000000000000000000000000B6
:10BA900000000000000000000000000000000000A6
:10BAA0000000000000000000000000000000000096
:10BAB0000000000000000000000000000000000086
:10BAC0000000000000000000000000000000000076
:10BAD0000000000000000000000000000000000066
:10BAE0000000000000000000000000000000000056
:10BAF00000F800F800F800F800F800F800F800F886
:10BB000000F800F800F800F800F800F800F800F875
:10BB100000F800F80000000000000000E007E00767
:10BB2000E007E007E007E007E007E007E007E007DD
:10BB3000E007E007E007E007E007E007E007E007CD
:10BB400000000000000000001F001F001F001F0079
:10BB50001F001F001F001F001F001F001F001F00ED
:10BB60001F001F001F001F001F001F00000000001B
:10BB700000000000000000000000000000000000C5
:10BB800000000000000000000000000000000000B5
:10BB900000000000000000000000000000000000A5
:10BBA0000000000000000000000000000000000095
:10BBB0000000000000000000000000000000000085
:10BBC0000000000000000000000000000000000075
:10BBD0000000000000000000000000000000000065
:10BBE0000000000000000000000000000000000055
:10BBF0000000000000000000000000000000000045
:10BC00000000000000000000000000000000000034
:10BC10000000000000000000000000000000000024
:10BC20000000000000000000000000000000000014
:10BC300000F800F800F800F800F800F800F800F844
:10BC400000F800F800F800F800F800F800F800F834
:10BC500000F800F80000000000000000E007E00726
:10BC6000E007E007E007E007E007E007E007E0079C
:10BC7000E007E007E007E007E007E007E007E0078C
:10BC800000000000000000001F001F001F001F0038
:10BC90001F001F001F001F001F001F001F001F00AC
:10BCA0001F001F001F001F001F001F0000000000DA
:10BCB0000000000000000000000000000000000084
:10BCC0000000000000000000000000000000000074
:10BCD0000000000000000000000000000000000064
:10BCE0000000000000000000000000000000000054
:10BCF0000000000000000000000000000000000044
:10BD00000000000000000000000000000000000033
:10BD10000000000000000000000000000000000023
:10BD20000000000000000000000000000000000013
:10BD30000000000000000000000000000000000003
:10BD400000000000000000000000000000000000F3
:10BD500000000000000000000000000000000000E3
:10BD600000000000000000000000000000000000D3
:10BD700000F800F800F800F800F800F800F800F803
:10BD800000F800F800F800F800F800F800F800F8F3
:10BD900000F800F80000000000000000E007E007E5
:10BDA000E007E007E007E007E007E007E007E0075B
:10BDB000E007E007E007E007E007E007E007E0074B
:10BDC00000000000000000001F001F001F001F00F7
:10BDD0001F001F001F001F001F001F001F001F006B
:10BDE0001F001F001F001F001F001F000000000099
:10BDF0000000000000000000000000000000000043
:10BE00000000000000000000000000000000000032
:10BE10000000000000000000000000000000000022
:10BE20000000000000000000000000000000000012
:10BE30000000000000000000000000000000000002
:10BE400000000000000000000000000000000000F2
:10BE500000000000000000000000000000000000E2
:10BE600000000000000000000000000000000000D2
:10BE700000000000000000000000000000000000C2
:10BE800000000000000000000000000000000000B2
:10BE900000000000000000000000000000000000A2
:10BEA0000000000000000000000000000000000092
:10BEB00000F800F800F800F800F800F800F800F8C2
:10BEC00000F800F800F800F800F800F800F800F8B2
:10BED00000F800F80000000000000000E007E007A4
:10BEE000E007E007E007E007E007E007E007E0071A
:10BEF000E007E007E007E007E007E007E007E0070A
:10BF000000000000000000001F001F001F001F00B5
:10BF10001F001F001F001F001F001F001F001F0029
:10BF20001F001F001F001F001F001F000000000057
:10BF30000000000000000000000000000000000001
:10BF400000000000000000000000000000000000F1
:10BF500000000000000000000000000000000000E1
:10BF600000000000000000000000000000000000D1
:10BF700000000000000000000000000000000000C1
:10BF800000000000000000000000000000000000B1
:10BF900000000000000000000000000000000000A1
:10BFA0000000000000000000000000000000000091
:10BFB0000000000000000000000000000000000081
:10BFC0000000000000000000000000000000000071
:10BFD0000000000000000000000000000000000061
:10BFE0000000000000000000000000000000000051
:10BFF00000F800F800F800F800F800F800F800F881
:10C0000000F800F800F800F800F800F800F800F870
:10C0100000F800F80000000000000000E007E00762
:10C02000E007E007E007E007E007E007E007E007D8
:10C03000E007E007E007E007E007E007E007E007C8
:10C0400000000000000000001F001F001F001F0074
:10C050001F001F001F001F001F001F001F001F00E8
:10C060001F001F001F001F001F001F000000000016
:10C0700000000000000000000000000000000000C0
:10C0800000000000000000000000000000000000B0
:10C0900000000000000000000000000000000000A0
:10C0A0000000000000000000000000000000000090
:10C0B0000000000000000000000000000000000080
:10C0C0000000000000000000000000000000000070
:10C0D0000000000000000000000000000000000060
:10C0E0000000000000000000000000000000000050
:10C0F0000000000000000000000000000000000040
:10C10000000000000000000000000000000000002F
:10C11000000000000000000000000000000000001F
:10C12000000000000000000000000000000000000F
:10C1300000000000000000010203040102030406E5
:10C140000708093031323334353637383941424304
:10C150004445464030580030313233343536373874
:10C16000396162636465664030780004000008004D
:10C170000000000000000200010000109CC1000847
:10C1800000000024A8000000D402000844C20008F7
:10C19000A8000024A00C0000F0020008FFFF00002F
:10C1A00000000000F54F0008000000000000000043
:10C1B0000951000809500008C150000875500008D6
:10C1C000EF4F00080F420008BF3D0008C1460008BD
:10C1D000453E0008C53D00088F470008654100083E
:10C1E000794900086D41000895470008C53E0008E0
:10C1F000A5400008FD3F00085D40000829410008F7
:10C200007D410008194A0008D5410008E5410008B1
:10C2100040000000C000000080000000000000009E
:10C220002000000060000000E0000000A00000000E
:10C230000100000010000000000000000090D0038A
:04C240000090D00397
:040000050800029954
:00000001FF
