:020000040800F2
:10000000F8AD002481030008CF540008DB4F00083E
:10001000CD54000819070008C57200080000000050
:100020000000000000000000000000000D5A000861
:10003000ED0E000800000000CB5700080F5A000822
:100040009B0300089B0300089B0300089B03000818
:100050009B0300089B0300089B0300089B03000808
:100060009B0300089B0300089B030008090A000883
:100070009B0300089B0300089B0300089B030008E8
:100080009B0300089B0300089B0300089B030008D8
:100090009B0300089B0300089B0300089B030008C8
:1000A0009B0300089B0300089B0300089B030008B8
:1000B0009B0300089B0300089B0300089B030008A8
:1000C0009B0300089B0300089B0300089B03000898
:1000D0009B0300089B0300089B0300089B03000888
:1000E0009B0300089B030008000000009B0300081E
:1000F0009B0300089B0300089B0300089B03000868
:100100009B0300089B0300089B0300089B03000857
:100110009B0300089B0300089B0300089B03000847
:100120009B0300089B0300089B0300089B03000837
:100130009B0300089B0300089B0300089B03000827
:1001400000000000000000000000000000000000AF
:100150009B0300089B0300089B0300089B03000807
:100160009B0300089B0300089B0300089B030008F7
:100170009B0300089B030008FD0900080000000025
:100180009B0300089B0300089B0300089B030008D7
:100190009B0300089B0300089B0300089B030008C7
:1001A0009B0300089B0300089B0300089B030008B7
:1001B0009B0300089B0300089B0300089B030008A7
:1001C0009B0300089B0300089B0300089B03000897
:1001D0009B030008D15400089B0300089B03000800
:1001E0009B0300089B0300089B0300089B03000877
:1001F0009B0300089B0300089B0300089B03000867
:100200009B0300089B0300089B0300089B03000856
:100210009B0300089B0300089B0300089B03000846
:100220009B0300089B0300089B03000800000000DC
:100230009B0300089B030008000000009B030008CC
:100240009B0300089B0300089B0300089B03000816
:100250009B0300089B0300089B0300089B03000806
:100260009B0300089B0300089B0300089B030008F6
:100270009B0300089B0300089B030008000000008C
:100280009B0300089B0300089B030008000000007C
:10029000000000009B03000800F002F800F060F886
:1002A0000AA090E8000C82448344AAF10107DA45D1
:1002B00001D100F055F8AFF2090EBAE80F0013F0C3
:1002C000010F18BFFB1A43F001031847FC7500002B
:1002D0001C7600000A444FF0000C10F8013B13F0AC
:1002E000070408BF10F8014B1D1108BF10F8015B8F
:1002F000641E05D010F8016B641E01F8016BF9D182
:1003000013F0080F1EBF10F8014BAD1C0C1B09D1D8
:100310006D1E58BF01F801CBFAD505E014F8016B4A
:1003200001F8016B6D1EF9D59142D6D370470000DC
:100330000023002400250026103A28BF78C1FBD8EE
:10034000520728BF30C148BF0B6070471FB507F088
:10035000B1F89DE8030000F001F91FBD10B510BD14
:1003600000F058F91146FFF7F1FF07F021F800F00F
:1003700076F903B4FFF7F2FF03BC00F0A7F9000021
:100380000948804709480047FEE7FEE7FEE7FEE729
:10039000FEE7FEE7FEE7FEE7FEE7FEE70448054965
:1003A000054A064B70470000FD5A000899020008F4
:1003B000F8A30024F8AD0024F8A50024F8A5002433
:1003C00070B5064600F0AEF8056806F10B0020F0A7
:1003D0000704B4429CBF002070BD2B466A68BAB1C6
:1003E0001068A04210D304F1080188423CBF506855
:1003F000586007D35168101941601168091B0160EA
:1004000058601460101D70BD13465268002AE7D171
:100410002146284600F08EF80028DED170BD70B568
:100420000446051F00F07EF80068002C14BF4468E5
:1004300070BD002C18BFAC423CBF20466468F8D3A6
:1004400001680A18AA4218BF456003D12A68054608
:100450001144016028684119A1421CBF6C6070BD45
:100460006168696021680844286070BD10B5203A51
:10047000C0F00B80B1E81850203AA0E81850B1E85D
:100480001850A0E81850BFF4F5AF5FEA027C24BF13
:10049000B1E81850A0E8185044BF18C918C0BDE80A
:1004A00010405FEA827C24BF51F8043B40F8043BD3
:1004B00008BF7047D20728BF31F8023B48BF11F888
:1004C000012B28BF20F8023B48BF00F8012B7047E2
:1004D0004FF0000200B5134694469646203922BFDD
:1004E000A0E80C50A0E80C50B1F12001BFF4F7AF28
:1004F000090728BFA0E80C5048BF0CC05DF804EB0A
:10050000890028BF40F8042B08BF704748BF20F877
:10051000022B11F0804F18BF00F8012B7047704775
:100520007047704700487047A0A300247047704789
:100530007047704738B504460A4600206946AFF355
:100540000080002808BF38BD02460099204600F010
:100550003FF8012038BD012000F054B8F8B5AFF3E2
:100560000080054600200C46102000BF0646A81952
:10057000A0420DD9324669460020AFF30080070043
:1005800008BF00F03FF80098A04218BF0546C41904
:10059000FFF7C8FF05600746F01D20F00700461969
:1005A000284600F00AF8B44208BFF8BDA21B314645
:1005B0003868BDE8F84000F00BB800210160C0E9E0
:1005C00001107047102070470048704798A300241E
:1005D000034640688C46002818BF88423CBF03464B
:1005E0004068F8D318681844884207D00CF103001B
:1005F00020F00700001D411A521A0146081D0A602A
:10060000FFF70DBF10B500F039F8BDE8104000F05D
:100610002FB870477546FFF7D7FFAE46050069460D
:10062000534620F00700854618B020B5FFF7B6FE08
:10063000BDE820404FF000064FF000074FF00008E3
:100640004FF0000B21F00701AC46ACE8C009ACE864
:10065000C009ACE8C009ACE8C0098D46704710B5C8
:100660000446AFF300802046BDE81040FFF781BE8E
:10067000002801D000F02AB87047000010B501280A
:1006800005D0002103A000F027F8012010BD09A12A
:10069000F8E7000053494752544D454D3A204F75F5
:1006A00074206F662068656170206D656D6F72796A
:1006B000000000003A2048656170206D656D6F7222
:1006C0007920636F72727570746564000149182037
:1006D000ABBEFEE72600020070B505460C460A20B8
:1006E00000E06D1C00F011F835B128780028F8D131
:1006F00002E0641C00F009F814B120780028F8D159
:10070000BDE870400A20AFF3008008B569468DF857
:1007100000000320ABBE08BDFEE70000F0B5BFF34C
:100720004F8FBFF36F8F1A4900200860BFF34F8FC0
:10073000BFF36F8F174A116841F400311160BFF3A6
:100740004F8FBFF36F8F134970310860BFF34F8F26
:10075000081F43F6FF7400680D4D1035C0F34E318D
:10076000C0F3C90304EA4116184600BF46EA807781
:100770002F60401EFAD2491EF4D2BFF34F8F10688B
:1007800040F480301060BFF34F8FBFF36F8FF0BD28
:1007900050EF00E014ED00E07047000070B50C4C25
:1007A00005462069401C206102F0F4FA6169401A94
:1007B000B0F57A7F07D302F0EDFA6061D4E9031057
:1007C000411AC4E902104FF416402860014870BD78
:1007D00058010024840B0024AFF3008070B5174C3F
:1007E00042220D466421206020462271A16000F063
:1007F0008AF8A08947F6A276B04204D1E089A0F534
:10080000EC41733912D0602020710C4800F07BF865
:10081000A089B0420ED1E0896FF419510844022832
:1008200008DC2846BDE8704006F0ECBDBDE870402D
:1008300004F06ABEBDE8704000F059BB84A30024F8
:100840000A480021C278012A08D00279012A0CD175
:100850000171821C4178064800F028B8034AC17033
:100860004178921C024800F03CB8704758010024BF
:1008700084A30024034810B500F002FD02490020C3
:10088000087010BDA401002458010024044901206F
:10089000044A4FF4165308700021034800F07ABC54
:1008A00058010024840B0024A401002437B582B031
:1008B0000446806801231546009003AA2179206828
:1008C000491C02F0B1FBA068012300902A4621795F
:1008D0002068491C02F016FB002800D0012005B05A
:1008E00030BD1CB502238DF80410117801AA8DF8D3
:1008F0000510816800910179006802F095FB0028DD
:1009000000D001201CBD38B504466A460120FF21F5
:100910008DF800002046FFF7E4FF1C216A462046C0
:10092000FFF7C4FF6D4620461D216A1CFFF7BEFF7E
:10093000BDF800000A216A4640BAA0812046FFF7B0
:10094000B5FF6A1C20460B21FFF7B0FFBDF8000081
:1009500040BAE081002038BD10B5806B816C496DD4
:10096000022906D0012180F83510C16C41F0400108
:10097000C16400F0C2FA10BD10B5816B0C468A6BE1
:10098000886C0168CAB10A68A36B02F40022DB0715
:1009900006D12AB1C968E26B01EBC201002207E06F
:1009A0000A68120319D40969E26B01EBC201012242
:1009B00000F0A2FCA06B401E0EE00868000302D508
:1009C000606CC86009E00868000306D4E26B606CE4
:1009D00000EB82000861206CA063A06B216C884250
:1009E0000BD12068C16841F00101C1602068006836
:1009F000800702D5012084F8350010BD014800F0C1
:100A00007FBA0000A4010024014801F0E5B900000C
:100A1000F4010024294A016891423AD0274A183249
:100A2000914236D0254A3032914232D0234A483260
:100A300091422ED0214A603291422AD01F4A783208
:100A4000914226D01D4A9032914222D01B4AA832B0
:100A500091421ED01A4A91421BD0194A1832914233
:100A600017D0174A3032914213D0154A483291427A
:100A70000FD0134A603291420BD0114A7832914222
:100A800007D00F4A9032914203D00D4AA8329142CA
:100A900011D1CAB21823103AB2FBF3F26FF3090175
:100AA000032A02F00703074AD25CC26500D9091D78
:100AB00081650846704721F0FF01F9E71000024008
:100AC00010040240BE74000830B5224A01230168B8
:100AD0009142CAB21BD01F4C1434A14217D01D4CF6
:100AE0002834A14213D01B4C3C34A1420FD0194CE6
:100AF0005034A1420BD0174C6434A14207D0154C9E
:100B00007834A14203D0134C8C34A1420CD114216F
:100B1000114C083AB2FBF1F10F4A803201F01F0587
:100B200004EB8101AB4010E00C4D1824103A0D4449
:100B3000B2FBF4F1A82D00D80831094A01F01F04D6
:100B400002EB8101064AA3408032603080E80E004B
:100B500030BD00000854025800580258F0FBFDBF99
:100B60000008024010B50279531E072B2DD8174CF0
:100B70000168A1421BD0154C1434A14217D0134C6C
:100B80002834A14213D0114C3C34A1420FD00F4C59
:100B90005034A1420BD00D4C6434A14207D00B4C11
:100BA0007834A14203D0094C8C34A14203D10849C6
:100BB000074C443102E00749064C443104EB820201
:100BC000C0E91B2101219940416710BD085402581A
:100BD000FC580258FC08024010B583694FF0C074FD
:100BE000826A0146002053B1B3F5005F15D072B19F
:100BF000012A0CD0022A0AD0032A09D104E01AB132
:100C0000012A06D0022A03D1C96AC90100D50120F0
:100C100010BDC96AA142FAD010BD002AF7D0012A3E
:100C2000F2D0022AF3D0032AF3D010BD30B5254DFF
:100C30000468AC4238D0234D1835AC4234D0214D35
:100C40003035AC4230D01F4D4835AC422CD01D4D14
:100C50006035AC4228D01B4D7835AC4224D0194DBC
:100C60009035AC4220D0174DA835AC421CD0164D63
:100C7000AC4219D0144D1835AC4215D0124D303558
:100C8000AC4211D0104D4835AC420DD00E4D603500
:100C9000AC4209D00C4D7835AC4205D00A4D9035A8
:100CA000AC4201D0084DA83563608368402B0368CF
:100CB00003D099600068C26030BD9A600068C1606E
:100CC00030BD000010000240100402402DE9F04F3A
:100CD000804E804FDFF8FC911836DFF8F8A14837D6
:100CE0000468856D0AF1300ADFF8ECB14C45DFF895
:100CF000ECC1DFF8ECE16DD0B4426BD0544569D063
:100D0000BC4267D0DFF8D081A8F11808444561D013
:100D10005C455FD064455DD074455BD0DFF8C4812D
:100D2000444557D0DFF8BC8108F11808444551D03C
:100D3000DFF8B08108F1300844454BD0DFF8A481DA
:100D400008F14808444545D0DFF8988108F160086B
:100D500044453FD0DFF88C8108F17808444539D00C
:100D6000DFF8808108F19008444533D0DFF87481C2
:100D700008F1A80844452DD0DFF86C81444529D0FE
:100D8000DFF8648108F11408444523D0DFF8588166
:100D900008F1280844451DD0DFF84C8108F13C08D3
:100DA000444517D0DFF8408108F15008444511D080
:100DB000DFF8348108F1640844450BD0DFF828815E
:100DC00008F17808444505D0DFF81C8108F18C084B
:100DD000444509D1D0E91948C4F80480C46E1CB157
:100DE000D0E91C48C4F8048004684C452ED0B442B5
:100DF0002CD054452AD0BC4228D0374E183EB4429D
:100E000024D05C4522D0644520D074451ED0354E98
:100E1000B4421BD0334E1836B44217D0314E303660
:100E2000B44213D02F4E4836B4420FD02D4E603608
:100E3000B4420BD02B4E7836B44207D0294E9036B0
:100E4000B44203D0274EA836B44215D190F85C6066
:100E50003F2406F01F06B440AC600468256825F402
:100E6000802525602EE09A600068C160BDE8F08FA3
:100E700099600068C260F9E71B4EB4421BD01A4E5D
:100E80001436B44217D0184E2836B44213D0164E3A
:100E90003C36B4420FD0144E5036B4420BD0124EF2
:100EA0006436B44207D0104E7836B44203D00E4EAA
:100EB0008C36B442DAD190F85C60012406F01F064B
:100EC000B4406C60046863608368402B0368CFD1D2
:100ED000C9E700001000024088000240A000024064
:100EE000B8000240100402400854025870474FF402
:100EF000FA74204604F0A0F9FBE770477047000041
:100F00002DE9F04104460068234F0426056969076E
:100F10000BD54661E06C40F00200E06484F8356077
:100F2000A06C0765A06C00F015FEA8070DD5216820
:100F300002204861E06C40F00100E06484F8356014
:100F4000A06C0765A06C00F005FEE80605D52168D9
:100F500010204861204600F06FF8280705D5216869
:100F600008204861204600F0C5F9E80712D0206843
:100F70000168890703D5C16821F01E01C16020689E
:100F80000121C26822F00102C2602068416120464E
:100F9000FFF7B4FFBDE8F081590900082DE9F041E1
:100FA000040003D094F8350018B105E00120BDE835
:100FB000F081204600F042F8A16902204FF0000EB7
:100FC00084F8350009B1C4F824E02068194A0168A2
:100FD00011400160D4E90452E168D4E9010C2943CD
:100FE0001043A269084354F8201B40EA0C00104348
:100FF000B4E8E8100A68184328433043384340EA0D
:101000000C001043086054F8300C343C102805D113
:101010002268E17FE06961F31F609061206801212F
:10102000C26842F01E02C260C4F84CE084F8351079
:101030000020BCE707F0E0FF704700002DE9F04119
:1010400086B0804614216846FFF742FA4849D8F82E
:10105000000088427ED14748016841F001010160EB
:10106000006800F0010005904248001D016841F051
:1010700010010160016801F010010591016841F063
:1010800001010160016801F001010591016841F071
:1010900004010160016801F004010591016841F05B
:1010A00008010160016801F008010591016841F043
:1010B00002010160006802240025694600F0020078
:1010C000059073200D268DE831002B48CDE903569D
:1010D00001F03CFD502069468DE831002748CDE9FC
:1010E000035601F033FDC02069468DE831002448E5
:1010F000CDE9035601F02AFD082069468DE831004C
:101100002048CDE9035601F021FD802069468DE895
:1011100031001D48CDE9035601F018FD1C484B2154
:101120001A4C0215831420608715C4E9011590013B
:10113000C4E9035204F11401C4E90805160120466C
:1011400081E8C80001F0C0F908B1FFF7D0FEC8F887
:10115000484000E009E00022C4F838804E201146E3
:1011600002F0E8F84E2002F0D7F806B0BDE8F081B2
:1011700000000248DC4402580010025800000258E7
:1011800000080258000C025800040258F401002420
:10119000100002402DE9F843044690F8340001287D
:1011A00033D0354802274FF0010884F834800025F9
:1011B00084F8357026684FF4803C6345376847F4FF
:1011C0008047376026684FF04009376827F00207EC
:1011D00037602668376847EA01073760A16CC86343
:1011E000A66C2649F164A16C0D65A5632564E563D1
:1011F00065640DD22168A06C283101F047FB80B3F3
:10120000C4F84C9084F8358027E00220BDE8F883CC
:10121000A16C46464864C4F83880E363626405E024
:10122000E06B4008E063A06B4000A063E06B6045AA
:10123000F6D2A06B801EA063A36BE16BE06B23640E
:10124000009002EB81032168A06C283100F09CF82B
:1012500038B1C4F84C9084F83560012084F83450DB
:10126000D4E7FFE72068016841F001010160002038
:1012700084F83450CAE700007909000859090008C9
:1012800070B51B4B04464FF4FA500025C21094F879
:1012900034101B680129B3FBF0F000FB02F01FD0F3
:1012A000012684F83460022184F8351021680A6828
:1012B00022F001020A602168401E13D00A68D2079A
:1012C000FAD1086820F480400860A06C343400F043
:1012D0008FFAA1690020A16166702070284670BD58
:1012E000022070BDE06C032540F02000E064E8E7D8
:1012F00010000024704700000068214B984238D04D
:101300001F4B1833984234D01D4B3033984230D0A5
:101310001B4B483398422CD0194B6033984228D04D
:10132000174B7833984224D0154B9033984220D0F5
:10133000134BA83398421CD0124B984219D0114B32
:101340001833984215D00F4B3033984211D00D4BC3
:10135000483398420DD00B4B6033984209D0094B6B
:101360007833984205D0074B9033984201D0054B13
:10137000A83312B1016100207047C160FBE7000093
:1013800010000240100402402DE9FF4F81B0816837
:101390009646044600200E9A8029009012D094F8B8
:1013A0003400012813D094F83500012184F834105A
:1013B00001280ED0C902012000906165009805B097
:1013C000BDE8F08F4FF4807060650120F7E70220E0
:1013D000F5E7FE4D02272068002684F83570A84204
:1013E000FB4D6665FB4EFC4FDFF8F093DFF8F0A392
:1013F000DFF8F0B33FD0A8423DD0B0423BD0B84276
:1014000039D0484537D0504535D0584533D0DFF82E
:10141000D4C30CF1180C60452DD0DFF8CCC3604567
:1014200029D0DFF8C4C30CF1180C604523D0DFF8D5
:10143000B8C30CF1300C60451DD0DFF8ACC30CF123
:10144000480C604517D0DFF8A0C30CF1600C604574
:1014500011D0DFF894C30CF1780C60450BD0DFF8A5
:1014600088C30CF1900C604505D0DFF87CC30CF10B
:10147000A80C604510D1D0F800C03F214CF4802C5E
:10148000C0F800C02068036194F85C30A06D03F0E0
:101490001F039940816010E0D0F800C048F2200896
:1014A0004CEA080CC0F800C02068036194F85C3076
:1014B000A06D03F01F0399404160134602997246E4
:1014C0002046FFF7B3FBC94AC84BDFF820E31432CC
:1014D000DFF8F882283320680EF13C0EC3494045FE
:1014E0005FD0A8425DD0B0425BD0B84259D04845E9
:1014F00057D0504555D0584553D0DFF8E8C20CF1CD
:10150000180C60454DD0DFF8E0C2604549D0DFF8E7
:10151000D8C20CF1180C604543D0DFF8CCC20CF1F6
:10152000300C60453DD0DFF8C0C20CF1480C60457E
:1015300037D0DFF8B4C20CF1600C604531D0DFF871
:10154000A8C20CF1780C60452BD0DFF89CC20CF1DE
:10155000900C604525D0DFF890C20CF1A80C6045D6
:101560001FD088421DD090421BD0984219D07045A0
:1015700017D0DFF878C20CF1500C604511D0DFF8BD
:101580006CC20CF1640C60450BD0DFF860C20CF14A
:10159000780C604505D0DFF854C20CF18C0C604526
:1015A00009D1D4E9190CC0F804C0E06E18B1D4E92F
:1015B0001C0CC0F804C0C446206860453FD0A84257
:1015C0003DD0B0423BD0B84239D0484537D05045E5
:1015D00035D0584533D0DFF80C8208F11808404563
:1015E0002DD0DFF80482404529D0DFF8FC8108F1D6
:1015F0001808404523D0DFF8F08108F13008404555
:101600001DD0DFF8E48108F14808404517D0DFF825
:10161000D88108F16008404511D0DFF8CC8108F18D
:10162000780840450BD0DFF8C08108F190084045AC
:1016300005D0DFF8B48108F1A808404518D1D0F8EA
:10164000008028F01E0848F01608C0F800802068C6
:10165000D0F8148048F08008C0F81480206C08B9D5
:10166000A06CC0B12068D0F8008048F0080810E0F5
:10167000D0F8008028F00E0848F00A08C0F8008072
:10168000206C08B9A06C30B12068D0F8008048F018
:101690000408C0F800802068E046404557D0A842C2
:1016A00055D0B04253D0B84251D048454FD05045A4
:1016B0004DD058454BD0DFF82CC10CF1180C6045CB
:1016C00045D0DFF824C1604541D0DFF81CC10CF1E2
:1016D000180C60453BD0DFF810C10CF1300C6045B0
:1016E00035D0DFF804C10CF1480C60452FD0DFF88D
:1016F000F8C00CF1600C604529D0DFF8ECC00CF1AB
:10170000780C604523D0DFF8E0C00CF1900C604508
:101710001DD0DFF8D4C00CF1A80C604517D088426A
:1017200015D0904213D0984211D070450FD02F4958
:10173000503188420BD02D496431884207D02B4963
:101740007831884203D029498C3188420DD1206EEE
:101750000168C90303D5016841F480710160E06E3E
:1017600018B1016841F4807101602068404528D0BB
:10177000A84226D0B04224D0B84222D0484520D03A
:1017800050451ED058451CD016491831884218D0F3
:101790001549884215D014491831884211D0124990
:1017A000303188420DD010494831884209D00E4965
:1017B0006031884205D00C497831884201D00A490D
:1017C0009031016841F001010160F7E5100002402D
:1017D00028000240400002405800024070000240D1
:1017E00088000240A0000240100402400854025841
:1017F0002DE9F84F044601F0CDFA002C009008D0F6
:1018000094F83500022805D080216165002084F815
:101810003400E3E0C84DC84EC7491835206830365B
:10182000DFF81883DFF818938842DFF818A3DFF891
:1018300018B32ED0A8422CD0B0422AD0404528D090
:10184000484526D0504524D0584522D0BE4A1832AB
:1018500090421ED0BD4A90421BD0BC4A18329042E2
:1018600017D0BA4A3032904213D0B84A4832904228
:101870000FD0B64A603290420BD0B44A78329042D0
:1018800007D0B24A9032904203D0B04AA832904278
:1018900009D1026822F01E0202602068426922F02B
:1018A0008002426103E0026822F00E0202602768B3
:1018B0008F4238464DD0A8424BD0B04249D0404527
:1018C00047D0484545D0504543D0584541D09E4A21
:1018D000183290423DD09D4A90423AD09B4A1832ED
:1018E000904236D0994A3032904232D0974A4832AC
:1018F00090422ED0954A603290422AD0934A783254
:10190000904226D0914A9032904222D08F4AA832FB
:1019100090421ED08E4A90421BD08D4A1432904283
:1019200017D08B4A2832904213D0894A3C329042D9
:101930000FD0874A503290420BD0854A6432904291
:1019400007D0834A7832904203D0814A8C32974242
:1019500004D1206E026822F4807202607649206809
:10196000884228D0A84226D0B04224D0404522D078
:10197000484520D050451ED058451CD072491831DA
:10198000884218D07149884215D070491831884270
:1019900011D06E49303188420DD06C4948318842AF
:1019A00009D06A496031884205D068497831884257
:1019B00001D066499031016821F00101016010E019
:1019C00001F0E8F90099401A05280AD92022626539
:1019D0000020032184F8340084F835100120BDE88C
:1019E000F88F3868C007EBD1534A01212068904234
:1019F0002ED0A8422CD0B0422AD0404528D048450D
:101A000026D0504524D0584522D04F4B1833984209
:101A10001ED04E4B98421BD04C4B1833984217D0D7
:101A20004A4B3033984213D0484B483398420FD03A
:101A3000464B603398420BD0444B7833984207D0E2
:101A4000424B9033984203D0404BA833984208D180
:101A500094F85C703F23A06D07F01F07BB408360C4
:101A600007E094F85C30A06D03F01F0301FA03F364
:101A70004360206890424DD0A8424BD0B04249D03C
:101A8000404547D0484545D0504543D0584541D0C2
:101A90002D4A183290423DD02C4A90423AD02B4ADF
:101AA0001832904236D0294A3032904232D0274AFA
:101AB000483290422ED0254A603290422AD0234AA2
:101AC0007832904226D0214A9032904222D01F4A4A
:101AD000A83290421ED01E4A90421BD01C4A14329B
:101AE000904217D01A4A2832904213D0184A3C32FA
:101AF00090420FD0164A503290420BD0144A6432B2
:101B0000904207D0124A7832904203D0104A8C3269
:101B100090420BD1D4E919024260E06E30B1026804
:101B200022F480720260D4E91C024260002084F832
:101B3000340084F8351052E710000240580002408B
:101B40007000024088000240A000024010040240E1
:101B5000085402582DE9F05F28B190F83510022999
:101B600004D0802141650120BDE8F09F904C904B4E
:101B70000168183C18338E4ADFF83C92A1428D4C24
:101B8000DFF838E28E4FDFF83CB2DFF83CA28F4D31
:101B90008F4E31D091422FD099422DD0A1422BD0DF
:101BA000494529D0714527D0B94225D0DFF810C268
:101BB0000CF1180C61451FD0DFF808C2ACF1600CC5
:101BC000614519D0DFF8FCC1ACF1480C614513D078
:101BD000DFF8F0C1ACF1300C61450DD0DFF8E4C1A5
:101BE000ACF1180C614507D0594505D0514503D0DB
:101BF000A94201D0B1422CD1DFF8B4C14FF00408A2
:101C000080F83580ACF1180C61451DD091421BD095
:101C1000994219D0A14217D0494515D0714513D02A
:101C2000B94211D06648183081420DD065486038FD
:101C3000814209D063484838814205D06148303834
:101C4000814201D05F481838086820F00100086020
:101C5000ABE0D1F800C02CF00E08DFF854C1C1F899
:101C60000080ACF1180C0168614527D0914225D065
:101C7000994223D0A14221D049451FD071451DD0A2
:101C8000B9421BD0DFF838C10CF1180C614515D0F2
:101C9000DFF830C1ACF1600C61450FD0DFF824C132
:101CA000ACF1480C614509D0DFF818C1ACF1300C3B
:101CB000614503D0DFF80CC1ACF1180CD1F800C0BD
:101CC0002CF0010CC1F800C0DFF8E4804FF0010CEB
:101CD0000168A8F11808414546D0914244D0994284
:101CE00042D0A14240D049453ED071453CD0B94296
:101CF0003AD0334A1832914236D0324A603A914251
:101D000032D0304A483A91422ED02E4A303A91424F
:101D10002AD02C4A183A914226D0594524D0514510
:101D200022D0A94220D0B1421ED02A4A91421BD0D3
:101D3000284A1432914217D0264A2832914213D0B1
:101D4000244A3C3291420FD0224A503291420BD069
:101D5000204A6432914207D01E4A7832914203D021
:101D60001C4A8C32914218D1016E0A6822F48072AA
:101D70000A6090F85C20816D02F01F020CFA02F2FA
:101D80004A60D0E919124A60C16E31B10A6822F482
:101D900080720A60D0E91C124A600022016D80F84E
:101DA000342080F835C001B188470020DCE600000F
:101DB00028000240580002407000024088000240A3
:101DC000A00002407004024088040240A0040240C7
:101DD000B8040240085402582DE9FC5F0446FA4E4C
:101DE0000020DFF8E48300904FF41652F74808F122
:101DF0001808A56DDFF8D0A3DFF8CCB301680AF1AD
:101E0000300A20680BF1480BB1FBF2F1B0420191AE
:101E10002F68D5F800C0DFF8B89336D04146884225
:101E200033D0504531D058452FD0E74960318842F2
:101E30002BD0E5497831884227D0E3499031884258
:101E400023D0E149A83188421FD048451DD0E04940
:101E50001831884219D0DE493031884215D0DC4A29
:101E60004832904211D0DA49603188420DD0DFF813
:101E700060E30EF1780E704507D0D54B9033984251
:101E800003D0D349A83188427ED194F85C20082140
:101E900002F01F0201FA02F23A424BD0B04233D0B4
:101EA000404531D050452FD058452DD0C64A6032DC
:101EB000904229D0C44A7832904225D0C24A90320A
:101EC000904221D0C04AA83290421DD048451BD034
:101ED000BF4A1832904217D0BD4A3032904213D0D8
:101EE000BB4A483290420FD0B94A603290420BD080
:101EF000B74A7832904207D0B54A9032904203D028
:101F0000B34AA832904203D1026802F0040202E010
:101F1000026802F008026AB1026822F0040202605C
:101F200094F85C0000F01F008140A960606D40F0F3
:101F30000100606594F85C00012100F01F00814001
:101F4000394241D02068B04235D0404533D0504569
:101F500031D058452FD09C4A603290422BD09A4ABB
:101F60007832904227D0984A9032904223D0964AB5
:101F7000A83290421FD048451DD0954A1832904251
:101F800019D0934A303200E0B2E1904213D0904A27
:101F9000483290420FD08E4A603290420BD08C4A29
:101FA0007832904207D08A4A9032904203D0884AD1
:101FB000A83290427ED1406910F0800F04D0A96011
:101FC000606D40F00200606594F85C00042100F050
:101FD0001F00814039423FD02068B04233D0404595
:101FE00031D050452FD058452DD0774A603290429D
:101FF00029D0754A7832904225D0734A9032904267
:1020000021D0714AA83290421DD048451BD0704A59
:102010001832904217D06E4A3032904213D06C4A38
:10202000483290420FD06A4A603290420BD0684AE0
:102030007832904207D0664A9032904203D0644A88
:10204000A83290424FD1006810F0020F04D0A9606E
:10205000606D40F00400606594F85C00102100F0B1
:102060001F008140394259D02068B04235D04045E8
:1020700033D0504531D058452FD0534A603290422A
:102080002BD0514A7832904227D04F4A903290421A
:1020900023D04D4AA83290421FD048451DD04C4A0B
:1020A0001832904219D04A4A3032904215D0484AEC
:1020B000483200E015E090420FD0454A603290422D
:1020C0000BD0434A7832904207D0414A9032904236
:1020D00003D03F4AA832904207D1006800F00800C0
:1020E00006E0006870E70068B6E7006800F00400EA
:1020F000A0B1A96020680168490304D50068000305
:1021000008D5A16C07E00168C90503D4016821F076
:1021100008010160216C09B12046884794F85C00F1
:10212000202100F01F008140394278D02068B04261
:1021300033D0404531D050452FD058452DD0224A7C
:102140006032904229D0204A7832904225D01E4AEF
:102150009032904221D01C4AA83290421DD048456E
:102160001BD01B4A1832904217D0194A3032904285
:1021700013D0174A483290420FD0154A603290422D
:102180000BD0134A7832904207D0114A90329042D5
:1021900003D00F4AA832904203D1006800F010002B
:1021A00002E0006800F00200A0B3A96094F83500D6
:1021B0000428206801680DD049037DD5006800031C
:1021C00029D4616C28E000001000024010000024B7
:1021D0001004024021F0160101602068416921F0DD
:1021E00080014161206C08B9A06C20B120680168B1
:1021F00021F00801016094F85C303F21002203F0D7
:102200001F0301209940A96084F8342084F8350028
:10221000216D66E003E0E16B09B120468847606DFF
:1022200000287DD0606DC0075AD02068042184F852
:102230003510B0422BD0404529D0504527D05845C5
:1022400025D09E49884222D09C49183188421ED010
:102250009A49303188421AD098494831884216D07C
:10226000484514D09649884211D095491831884282
:102270000DD093493031884209D091494831884284
:1022800005D08F496031884201D08D49783101688D
:1022900021F00101016020680099019A491C009118
:1022A000914202D80168C907F6D1002184F83410A0
:1022B0000068C00711D000E001E003200EE00168D3
:1022C000C905A8D403680022012123F0100303608C
:1022D00084F8342084F835109DE7012084F8350017
:1022E000E16C00291CD002B02046BDE8F05F084731
:1022F000744988421DD073491431884219D07149FC
:102300002831884215D06F493C31884211D06D493F
:10231000503188420DD06B496431884209D000E0C9
:1023200086E068497831884203D066498C3188421A
:102330007ED194F85C800427016808F01F0807FA32
:1023400008F717EA0C0F009746D04F0744D50098BE
:102350000F04686003D5C8033CD4A16CC1E78806AC
:1023600038D42068B0422DD054494839884229D009
:10237000504527D0584525D05049884222D04F4952
:10238000183188421ED04D49303188421AD04B490D
:102390004831884216D0484514D04949884211D066
:1023A0004749183188420DD090420BD044494831FA
:1023B000884207D0704505D0984203D040499031FB
:1023C000884203D1016821F0080102E0016821F090
:1023D00004010160216C84E7022707FA08F717EA75
:1023E0000C0F00974ED08F074CD500980F046860F3
:1023F00003D5C80344D4616C73E7880640D42068D1
:10240000B0422FD02D49483988422BD0504529D091
:10241000584527D02949884224D028491831884274
:1024200020D02649303188421CD02449483100E070
:1024300041E0884216D0484514D02149884211D045
:102440001F49183188420DD090420BD01C494831A9
:10245000884207D0704505D0984203D01849903182
:10246000884203D1016821F0140102E0016821F0E3
:102470000A010160002184F83410012084F835003D
:10248000E16B2EE7082202FA08F212EA0C0F12D0D2
:10249000090710D5016821F00E01016094F85C1065
:1024A0000120002201F01F0100FA01F1696060655E
:1024B00084F8342012E7BDE8FC9F00007000024061
:1024C00028040240085402582DE9F05F044600F049
:1024D00061FC002C07467DD0E34E022120684FF0BE
:1024E0000308DFF888934FF00005DFF884A3B042BB
:1024F000DFF880B334D0DC4A1832904230D04845FF
:102500002ED050452CD058452AD0DA4A1832904265
:1025100026D0D84A3032904222D0D64A4832904211
:102520001ED0D54A90421BD0D34A1832904217D0C1
:10253000D14A3032904213D0CF4A483290420FD025
:10254000CD4A603290420BD0CB4A7832904207D0CD
:10255000C94A9032904203D0C74AA83290427DD1F6
:1025600084F8345084F83510B0422ED0BE4918316A
:1025700088422AD0484528D0504526D0584524D0F6
:10258000BC491831884220D0BA49303188421CD029
:10259000B8494831884218D0B749884215D0B64961
:1025A0001831884211D0B449303188420DD0B24937
:1025B0004831884209D0B0496031884205D0AE49DF
:1025C0007831884201D0AC499031016821F0010195
:1025D000016008E027E100BF00F0DCFBC01B05281C
:1025E00001D920211CE120680068C007F4D104F162
:1025F00008002168D4E9053C8E4685C80968104367
:10260000D4E907281F43636A38439C4F40EA0C0013
:102610001043394040EA0800042B40EA010003D18E
:10262000D4E90B1211430843954909686FF30F0170
:10263000B1F1005F0FD36168A1F12902052A08D921
:10264000163A032A05D9083A012A02D94F39032933
:1026500001D840F48010CEF8000000E023E02068AC
:10266000676A4069042F20F0070047EA00070DD190
:10267000D4E90A01074349B12046FEF7ADFA28B173
:1026800040206065012184F83510CCE02068476166
:102690002046FEF7BFF994F85C203F2102F01F02AC
:1026A0009140816054E0774A90421BD0754B1433BF
:1026B000984217D0734B2833984213D0714B3C3358
:1026C00098420FD06F4B503398420BD06D4B643310
:1026D000984207D06B4B7833984203D0694B8C33C8
:1026E00098427DD1684B84F8345084F835100168E5
:1026F000A26801EA030E402A73D0802A72D0002219
:10270000D4E90378D4E9053142EAD70242EAD8088D
:102710005C4AD4E9077C48EAD30848EAD10141EA97
:10272000D701524241EA1C11142341EA0E01016013
:1027300020681044B0FBF3F08000E0652046FEF70F
:1027400069F994F85C20012102F01F029140416078
:102750002068B04257D044491831884253D0484588
:1027600051D050454FD058454DD04249183188423C
:1027700049D040493031884245D03E4948318842AD
:1027800041D03D4988423ED03B49183188423AD039
:1027900039493031884236D037494831884232D0C1
:1027A0003549603188422ED03349783188422AD069
:1027B00031499031884226D02F49A831884222D011
:1027C000304988421FD02F49143188421BD02D49EF
:1027D0002831884217D02B493C31884213D002E07F
:1027E0001DE017E018E02749503188420BD02549F9
:1027F0006431884207D023497831884203D0214987
:102800008C31884229D12046FEF75EF9A0688028E5
:102810000CD00CE0102273E74FF4804270E74021A7
:10282000616584F835800120BDE8F09F6560216E08
:1028300020790860D4E9190141606068401E0728CA
:1028400008D82046FEF78EF9E06E0560D4E91C0139
:10285000416002E0E566256765670120656584F8EB
:1028600035000020E0E70000100002404000024078
:102870005800024070000240100402403F8010FEE9
:102880000010005C085402580F00FEFF2DE9F84FBD
:1028900004008C464FF00000009013D094F83400F0
:1028A000012811D094F835500120002184F834001B
:1028B000012D0BD084F83410C2020090626500989C
:1028C000BDE8F88F0120FBE70220F9E78C4D0226D6
:1028D000206884F83560A8428A4D61658A4E8B4F26
:1028E000DFF82C82DFF82C92DFF82CA2DFF82CB274
:1028F00026D0A84224D0B04222D0B84220D04045B1
:102900001ED048451CD050451AD0584518D084498F
:10291000884215D082491831884211D0804930311F
:1029200088420DD07E494831884209D07C496031C7
:10293000884205D07A497831884201D0784990316F
:10294000016821F00101016061462046FEF7BEF9F1
:102950006B49206888422CD0A8422AD0B04228D0A7
:10296000B84226D0404524D0484522D0504520D0FA
:1029700058451ED06A4A90421BD0694A183290428C
:1029800017D0674A3032904213D0654A483290429D
:102990000FD0634A603290420BD0614A7832904245
:1029A00007D05F4A9032904203D05D4AA8329042ED
:1029B0000CD1026822F01E0242F016020260206C66
:1029C00088B12068026842F008020BE0026822F039
:1029D0000E0242F00A020260206C20B120680268F8
:1029E00042F004020260206888424BD0A84249D0DD
:1029F000B04247D0B84245D0404543D0484541D089
:102A000050453FD058453DD0454A90423AD0444A7F
:102A10001832904236D0424A3032904232D0404A48
:102A2000483290422ED03E4A603290422AD03C4AF0
:102A30007832904226D03A4A9032904222D0384A98
:102A4000A83290421ED0374A90421BD0354A1432E9
:102A5000904217D0334A2832904213D0314A3C3248
:102A600090420FD02F4A503290420BD02D4A643200
:102A7000904207D02B4A7832904203D0294A8C32B8
:102A800090420DD1206E0268D20303D5026842F451
:102A900080720260E06E18B1026842F480720260D7
:102AA0002068884226D0A84224D0B04222D0B84222
:102AB00020D040451ED048451CD050451AD058451E
:102AC00018D01749884215D015491831884211D0BD
:102AD0001349303188420DD011494831884209D01C
:102AE0000F496031884205D00D497831884201D0C4
:102AF0000B499031016841F001010160DFE60000FF
:102B000010000240280002404000024058000240ED
:102B10007000024088000240A0000240B80002405D
:102B2000100402400854025870B5044600F032F90F
:102B30000546601C02D004480078044400F02AF9DD
:102B4000401BA042FAD370BD040000242DE9FC4FC5
:102B500001257E4C00234FF0030A4FF0B04E4FF09A
:102B60000F0BEBE005FA03F637403A0077D04F68D9
:102B7000012F05D0022F03D0112F01D0122F1AD10F
:102B800087684FEA4308D1F80CC00AFA08F927EA27
:102B900009070CFA08FC4CEA070CC0F808C04768A3
:102BA00091F804C0B743CCF3001C0CFA03FC4CEAC8
:102BB000070CC0F804C0C6684FEA430CD1F808807F
:102BC000E1460AFA0CF7BE43019708FA09F848EA09
:102BD0000608C0F80C804E68022E01D0122E12D1C9
:102BE000DE084FEA437C00EB860600960F69366AE2
:102BF0004FEADC6C0BFA0CF807FA0CF726EA080629
:102C00003743009E37620E790768DDF804C006F08E
:102C1000030606FA09F627EA0C073E4306604E68EB
:102C2000F6001CD54A4E376847F002073760366811
:102C30009F0706F00206009623F0030606F1B04651
:102C4000B1463F0FD6F80864DFF808810BFA07FC9D
:102C5000404526EA0C0603D14FF0000C41E06CE041
:102C6000DFF8F4C0604502D14FF0010C39E0DFF825
:102C7000ECC0604502D14FF0020C32E0DFF8E0C05A
:102C8000604502D14FF0030C2BE0DFF8D8C060455F
:102C900002D14FF0040C24E0DFF8CCC0604502D133
:102CA0004FF0050C1DE0DFF8C4C0604502D14FF0C5
:102CB000060C16E0DFF8B8C0604502D14FF0070CF3
:102CC0000FE0DFF8B0C0604502D14FF0080C08E01B
:102CD000DFF8A4C0604502D14FF0090C01E04FF0CD
:102CE0000A0C0CFA07FC4CEA060CC9F808C4266862
:102CF0004F6826EA0206FF0300D516432660666881
:102D00004F6826EA0206BF0300D516436660D1F875
:102D100004C07646DEF800705FEACC2C27EA020792
:102D200000D517433760D1F804C077685FEA8C2C70
:102D300027EA020700D5174377605B1C0A6817462D
:102D4000DA407FF40FAFBDE8FC8F00008000005830
:102D5000F4440258000002580004025800080258C7
:102D6000000C0258001002580014025800180258B3
:102D7000001C025800200258002402580AB1816148
:102D800070470904FBE7000001480068000C704729
:102D90000010005C014880687047000004000024B7
:102DA00030B590F84120202A24D190F84020012A03
:102DB00020D0012380F84030242280F841202023B5
:102DC00000240268156825F0010515600268156881
:102DD00025F480551560026815680D43156001687B
:102DE0000A6842F001020A6080F8413080F84040F1
:102DF000002030BD022030BD30B590F84120202A9F
:102E000022D190F84020012A1ED0012380F84030C2
:102E1000242280F84120202400250268136823F032
:102E2000010313600268136823F4706343EA01210D
:102E3000116001680A6842F001020A6080F84140AE
:102E400080F84050002030BD022030BD70B5040035
:102E500004D094F84100002510B106E0012070BDB7
:102E6000204684F8405000F071F9242084F8410095
:102E70002068016821F001010160D4E9001020F010
:102E8000706008612068816821F400418160E06819
:102E900021680128A06806D040F404408860E068FA
:102EA000022803D006E040F40040F7E721684FF421
:102EB0000060486020212068114A43681343436042
:102EC0002068C26822F40042C26054F8106B0DCC36
:102ED000104340EA0320F06054F81C3CD4E900029F
:102EE0001043186054F81C0D026842F001020260A1
:102EF000656484F84110256384F84250002070BD59
:102F0000008000022DE9F84F044690F841001F466A
:102F10009046DDF828A08B4620287ED194F840000A
:102F200001287AD0012084F84000FFF733FF012206
:102F3000064619230090D103204602F0BBF8E0BBFF
:102F40000025222184F84110102084F84200656495
:102F50006785618DFF2732484FF00079C4F82480DF
:102F6000FF294FF08078656303D927853A460090A2
:102F700039E0618D218500903AE05946204602F003
:102F800083F813E002F0C4F8B8B92068616A406AB7
:102F90000870606A401C6062208D401E81B22185ED
:102FA000608D401E6085608D00B169B1608D3246D4
:102FB000514600282046E5D100E002E002F0ECF89E
:102FC000D0B10120BDE8F88F002253468021204671
:102FD000009602F06FF80028F3D1608DFF2804D925
:102FE00027853A4600954346C7E7608D20850095C2
:102FF0004B4694F82820C0E720682021094AC16187
:10300000206843681340436084F8411084F84250BC
:10301000002084F84050D5E7FFE70220D2E7000007
:103020000024008000E800FE2DE9F84F044690F8E7
:1030300041001F469046DDF828A08B4620287ED10F
:1030400094F8400001287AD0012084F84000FFF76E
:10305000A1FE0122064619230090D103204602F06A
:1030600029F8E0BB0025212184F84110102084F8C4
:10307000420065646785618DFF2732484FF0007913
:10308000C4F82480FF294FF08078656303D9278531
:103090003A46009039E0618D218500903AE059462A
:1030A000204601F0F1FF13E002F09DF8B8B9606A24
:1030B000216800788862606A401C6062608D401EF2
:1030C0006085208D401E80B22085618D01B168B180
:1030D000608D3246514600282046E5D100E002E0EE
:1030E00002F05AF8D0B10120BDE8F88F0022534613
:1030F00080212046009601F0DDFF0028F3D1608D8D
:10310000FF2804D927853A4600954346C7E7608DD6
:10311000208500954B4694F82820C0E720682021A0
:10312000094AC161206843681340436084F8411034
:1031300084F84250002084F84050D5E7FFE7022091
:10314000D2E700000020008000E800FE10B586B045
:10315000044614216846FDF7BBF9134920688842EC
:1031600020D11248016841F0020101600068042387
:10317000122200F00200059000204FF440710091EF
:103180006946CDE90120CDE903030948FFF7DEFCDC
:1031900006480830016841F400110160006800F43D
:1031A0000010059006B010BD00540040E0440258E5
:1031B0000004025802488168027811448160704717
:1031C00004000024032010B500F0D4F801F088FBBF
:1031D0000F4A104914681368C4F3032203F00F0365
:1031E0008A5CC95C02F01F0201F01F01D0400A4A4C
:1031F00020FA01F1116009490860002000F010F880
:1032000008B1012010BD00F079F8002010BD0000C9
:1032100018440258C674000814000024100000244A
:1032200070B50D4D04462878A0B14FF47A71B1FB0A
:10323000F0F00A490968B1FBF0F001F0BBFE48B9B3
:10324000102C07D200222146501E00F073F80020F7
:103250006C6070BD012070BD0400002410000024CB
:10326000F0B5154C4378211D0A1D23600378F3B196
:1032700043680B60057BC67A817A437B2D07847B8C
:1032800045EA0665C77B90F809C0067A90F800E029
:1032900045EAC14040EA834040EA444040EA0740F2
:1032A00040EA0C2040EA460040EA0E0001E000201F
:1032B00008601060F0BD000098ED00E0BFF35F8F84
:1032C000044800210368034A23F48033036070320A
:1032D0001160704724ED00E0074A40F00100064904
:1032E00070321060086840F480300860BFF34F8F80
:1032F000BFF36F8F7047000024ED00E0054808B56C
:10330000016841F002010160006800F002000090D5
:1033100008BD0000F4440258002809DB410900F010
:103320001F028900012001F1E0219040C1F8000155
:10333000704700000E4BF0B41B680D46C3F3022328
:10334000C3F10706042E00D90426191D072901D24E
:10335000002300E0DB1E012404FA06F19C40491E14
:103360002940641E994014402143F0BC03F0ABBFD8
:103370000CED00E0064900F0070210B54FF6FF041F
:103380000868044B204040EA02201843086010BD42
:103390000CED00E00000FA0501680123C0F8FC33E1
:1033A000002280F8F4238869044A40F000608861B4
:1033B000486D10434865002070470000030000106E
:1033C00070470068416200207047F0B503685D6A8D
:1033D00039B19F6A4C1E00204FF4827605EB1745E9
:1033E0000BE045EA0240986210E0471C06EB8000C3
:1033F00053F800C0F8B205EB1C45A042F5D34FF4DA
:10340000807000EB810045EA02421A500020F0BDB6
:10341000D0F8040402F0F5BDC1EBC10200EB82025A
:10342000D0F80404926C02F04ABDC1EBC10200EB7B
:103430008202D0F80404D2F8082202F0A1BDD0F82C
:10344000040402F0E0BD01F00F020B0670B5C2EB00
:10345000C20104464FF001004FF0000504EB81016A
:1034600003D581F83D003C3103E081F8FD5101F5C1
:10347000FE710A7094F8BC23012A08D084F8BC03BA
:10348000206803F08FFA002084F8BC5370BD02203E
:1034900070BD70B54268044601F00F00904201D93A
:1034A000012070BD01F00F024FF000050B06C2EBCA
:1034B000C2014FF0010204EB810103D581F83D20E8
:1034C0003C3103E081F8FD5101F5FE718D7008700B
:1034D00094F8BC03012808D084F8BC23206803F0CA
:1034E0005BFC002084F8BC5370BD022070BD2DE948
:1034F000F04101F00F0604460D064FF00100C6EB47
:10350000C6014FF0000504EB810103D581F83D00B1
:103510003C3103E081F8FD5101F5FE714F788A607E
:10352000CB700E7007B1CE80022B00D10D7194F8D4
:10353000BC23012A09D084F8BC03206803F06EF98B
:10354000284684F8BC53BDE8F0810220FBE770B543
:1035500001F00F050C460026C5EBC50100EB81010B
:10356000C1F80822C1E9843681F8FD6181F8FC5177
:1035700001F5FE710369012B00D10A612207027C6B
:10358000006803D003F060FC002070BD03F04AFB2C
:10359000FAE770B50D464168044605F00F00884211
:1035A00001D9012070BD29064FF000064FF001023D
:1035B00007D5C0EBC00104EB810181F83D203C310F
:1035C00007E0C5EBC50104EB810181F8FD6101F560
:1035D000FE718A70087094F8BC03012807D084F843
:1035E000BC23206803F004FC280702D007E0022077
:1035F00070BD217C04F57172206803F0A1FB0020EE
:1036000084F8BC6370BD2DE9F04101F00F050C4654
:103610000026C5EBC501012700EB81018A64C1E9E1
:10362000143681F83D7001F83C5F0369012B00D12D
:103630000A612207027C006804D003F005FC002028
:10364000BDE8F08103F0EEFAF9E700002DE9FC5F38
:1036500005680446284603F020FD00287ED1206836
:1036600003F047FD002879D0206803F042FD800771
:1036700004D52068416901F002014161206803F02E
:1036800038FDC10604F57170009034D52068816959
:1036900021F0100181612F6A07F00F01C7F3434049
:1036A000C1EBC101022804EB810606F5FE7602D0CB
:1036B000062811D01AE047F6F070074216D0C7F37B
:1036C0000A12F1681746284603F017FDF168B06941
:1036D0003944F160384408E000990822284603F094
:1036E0000CFDB069C7F30A110844B0612068816914
:1036F00041F010018161206803F0FBFC00034FF0F2
:1037000001094FF0080B5BD52068002603F0D0FCC0
:10371000DFF8A8A3074651E0F8074DD02068F1B2C2
:1037200003F0DFFC8046C00707D005EB4611C1F867
:10373000089B3146204601F091FF5FEA087022D5D0
:1037400005EB4611C1F808BB2068016C00EB461080
:1037500001915145D0F8081B07D900E0ABE10904FD
:1037600003D54FF40041C0F8081B204600F098FA3A
:103770000198504507D92069012804D1206801210A
:10378000009A03F0DDFA5FEAC86004D505EB461144
:103790001020C1F8080B5FEA886004D505EB4610DD
:1037A0002021C0F8081B5FEA884005D505EB4611CB
:1037B0004FF40050C1F8080B7F08761C002FABD1E6
:1037C000206803F096FC40034FF0000A5CD52068A7
:1037D00003F067FC0026074654E0F80750D0206845
:1037E000F1B203F06CFC8046C00723D0D5F8342832
:1037F00006F00F0C05EB461309FA0CF08243C5F8EE
:103800003428C3F80899206901280FD1C6EBC600F7
:1038100004EB8000D0E911121144816436B9206DA7
:1038200020B920680121009A03F08AFA2046F1B2FB
:10383000FFF7F2FD5FEA087003D505EB4611C1F80A
:1038400008B95FEAC86004D505EB46111020C1F83D
:1038500008095FEA486004D505EB46114020C1F82D
:1038600008095FEA887004D505EB46110220C1F80B
:1038700008095FEA086003D53146204601F054FF8D
:103880007F08761C002FA8D1206803F032FC0028A6
:1038900011DAD5F8040820F00100C5F8040894F8FE
:1038A000F403012839D0204600F0DEF92068416990
:1038B00001F000414161206803F01BFC00050BD5BD
:1038C000D5F80808C00702D0204600F011FA206899
:1038D000416901F400614161206803F00AFC0001C4
:1038E0000AD52068416901F00061416194F8F40350
:1038F000D0B1204600F0FCF9206803F0FAFBC004C8
:1039000076D5D5F8040820F00100C5F80408206831
:10391000102103F0A3FB002135E00021204684F8AC
:10392000F4A3FFF74DFDC1E784F8F4932068406DE0
:103930000121C0F38300C4F8F8032046FFF740FDDF
:10394000DAE700BF05EB41104FF67F32C0F80829D7
:10395000D0F8003923F40013C0F80039D0F800394A
:1039600043F00063C0F80039C0F8082BD0F8002BF2
:1039700022F40012C0F8002BD0F8002B42F00062B5
:10398000C0F8002B491C60688842DBD8D5F81C08B9
:1039900040F00110C5F81C08206B60B1D5F8840810
:1039A00040F00B00C5F88408D5F8440840F00B003F
:1039B000C5F844080CE0D5F8140842F22B0108437E
:1039C000C5F81408D5F8100840F00B00C5F8100829
:1039D000D5F8000820F4FE60C5F80008217C2068B6
:1039E000009A03F0ADF92068416901F4805141610A
:1039F000206803F07EFB800417D5206802F04EFF9C
:103A0000206803F03DFBE06000F048FF0146207BAA
:103A10002368C2B2184603F0A7FB204600F00EF957
:103A20002068416901F400514161206803F061FBA5
:103A3000000707D5204600F01BF92068416901F016
:103A400008014161206803F054FBC00208D5002141
:103A5000204600F035F82068416901F48011416189
:103A6000206803F046FB800208D50021204600F0C4
:103A70002BF82068416901F400114161206803F0CE
:103A800038FB400007D52046FFF7C2FC206841699B
:103A900001F080414161206803F02BFB40070AD50B
:103AA00020684568680702D52046FFF7C8FC2168F2
:103AB000486828434860BDE8FC9F00000A30544F26
:103AC000D0F8040402F0ECBAD0F8040402F0EABA28
:103AD0002DE9F04104008AB005D094F8BD0300251B
:103AE000266820B108E001200AB0BDE8F081204638
:103AF00084F8BC5300F066F8032084F8BD03F06B33
:103B0000C00500D42561206803F086F804F1100197
:103B1000684628228846FCF7A9FC94E80F0002F0CA
:103B2000CBFE0227D8BB2068002103F0F4FA002066
:103B3000012610E0C0EBC001421C04EB810181F8BA
:103B40003D6081F83F504D648D640D6581F83C0007
:103B5000A1F84200D0B261688142EBD8002011E0A8
:103B6000C0EBC001421C04EB810181F8FD5181F8DA
:103B7000FF51C1F80452C1F80852C1F8105281F83F
:103B8000FC01D0B261688142EAD8282241466846E9
:103B9000FCF76CFC94E80F0002F082FF10B184F88F
:103BA000BD73A0E7606A84F8385084F8BD630128CB
:103BB00002D12046FFF7F0FB206802F065FF0020ED
:103BC00092E7000010B586B0044614216846FCF761
:103BD0007FFC17492068884228D11648016841F0C7
:103BE0000101016000680A23022200F00100059033
:103BF00000204FF4C05100916946CDE90120CDE984
:103C000003030D48FEF7A2FF0A480838016841F097
:103C10000061016000680022114600F0006005901C
:103C20006520FFF787FB6520FFF776FB06B010BD28
:103C300000000840E04402580000025870B50446F5
:103C4000C068012570B1022801D0FDF750F9D4F801
:103C50000404294602F07BFAD4F80404BDE870405D
:103C600002F037BA0025F2E7D0F8040402F059BA9E
:103C7000D0F8040402F05FBA10B5044690F8BC0313
:103C800001280BD0012084F8381084F8BC03206888
:103C900003F058FA002084F8BC0310BD022010BDC8
:103CA000D0F8042400F57171104602F05CBA10B52A
:103CB00090F8BC1304460068012906D0A26A0121CD
:103CC00084F8BC13012A02D008E0022010BDA169CB
:103CD000012903D0816B41F480318163206802F0B7
:103CE000C7FE206803F0A4F9002084F8BC0310BDCF
:103CF00010B50446D0F8040402F072FA2068D0F837
:103D0000001E41F00101C0F8001E206A002804D006
:103D10000248016841F00601016010BD10ED00E0AD
:103D2000134970B50A68D243520705D5096801F0F6
:103D30000701814213D118E00A6822F0070202430A
:103D40000A60FFF727F80A4D4FF47A760446083DDB
:103D500007E000BFFFF71EF8001BB04201D90120A9
:103D600070BD2868C0438004F4D4002070BD0000FA
:103D70000C4802580248016841F0807101607047A8
:103D80000C4802582DE9FC5F044650F8241B00251E
:103D900000902E460801FE4FDFF8F8831DD5606EB7
:103DA00050B1B0F5801F0CD0B0F5001F0ED0B0F5AB
:103DB000401F1DD001250FE0386840F40030386006
:103DC00016E00221201D01F001FD03E00098022110
:103DD00001F08CFD05000BD02E462088C00523D5B0
:103DE000606D05281ED2DFE800F00C11161B1B00C9
:103DF000626ED8F8001021F440111143C8F8001089
:103E0000EBE7386840F40030386009E00021201DFD
:103E100001F0DCFC03E00098002101F067FD05469D
:103E20006DB100E001252E462088800528D5A06DC3
:103E300080281ED00CDC90B140280ED114E0626DB9
:103E4000D8F8001021F007011143C8F80010EBE783
:103E5000C02813D0B0F5807F10D001250FE038685E
:103E600040F40030386009E00021201D01F0AEFC74
:103E700003E00098002101F039FD054695B12E467A
:103E80002088DFF81093400509F108092CD5D4F8F3
:103E9000A400B0F5800F20D00DDCA0B1B0F5001F5C
:103EA0000FD115E0A26DD8F8001021F4E071114394
:103EB000C8F80010E4E7B0F5C00F13D0B0F5000F5C
:103EC00010D001250FE0386840F40030386009E078
:103ED0000021201D01F07AFC03E00098002101F090
:103EE00005FD054675B12E46208800052DD5D4F870
:103EF000A800B0F1007F21D00EDCA8B1B0F1807F26
:103F000010D116E0D4F8A420D9F8001021F46001F3
:103F10001143C9F80010E7E7B0F1407F13D0B0F1CA
:103F2000806F10D001250FE0386840F40030386011
:103F300009E00021201D01F049FC03E00098002168
:103F400001F0D4FC05466DB12E46206880011FD5D6
:103F5000A06CD8B110280FD0202812D0302815D04E
:103F6000012514E0D4F8A820D9F8001021F0E06170
:103F70001143C9F80010E8E7386840F400303860B1
:103F800004E00221201D01F021FC05466DB12E4602
:103F90002088C0042BD5E06DB0F5005F20D00DDC8B
:103FA000A0B1B0F5805F0FD115E07A48A26C001F78
:103FB000016821F0300111430160E9E7B0F5405F8D
:103FC00013D0B0F5804F10D001250FE0386840F4D1
:103FD0000030386009E00021201D01F0F7FB03E00C
:103FE0000098002101F082FC054685B12E4620880C
:103FF000800429D5206EB0F5403F23D010DC08B3F3
:10400000B0F5803F14D0B0F5003F0FD115E0E26D60
:10401000D8F8001021F4E0411143C8F80010E6E799
:10402000B0F5802F0ED0B0F5A02F0BD001250AE0FF
:104030000121201D01F0CAFB03E00098012101F0DD
:1040400055FC05468DB12E46208840042AD5D4F86B
:10405000AC00B0F1405F23D010DC08B3B0F1805F5A
:1040600014D0B0F1005F0FD115E0226ED8F8001027
:1040700021F4E0211143C8F80010E5E7B0F1804FCA
:104080000ED0B0F1A04F0BD001250AE00121201D78
:1040900001F09CFB03E00098012101F027FC05469C
:1040A0006DB12E46208800041FD5E06ED8B1B0F166
:1040B000805F0ED0B0F1005F10D0012514E0D4F87D
:1040C000AC20D9F8001021F0E0411143C9F80010EC
:1040D000E8E7386840F40030386004E00121201D32
:1040E00001F074FB05466DB12E462068C0011ED557
:1040F000606CD0B101280ED0022811D0032814D052
:10410000012513E0E26ED8F8001021F04051114370
:10411000C8F80010E9E7386840F40030386004E07F
:104120000221201D01F052FB054685B12E46206874
:10413000DFF85CB04002ABF11C0B57D516480168A4
:1041400041F480710160FEF725FE82460EE01148C1
:10415000626C001F016821F0030111430160E6E772
:10416000FEF718FEA0EB0A0064283DD80A48006854
:10417000C005F5D57DBBDFF81CA0B4F8B0100AF17E
:10418000200ADAF8000001F4407100F4407005E004
:104190002C4402585044025800480258884211D01A
:1041A000DAF80010DAF8002021F4407142F480328D
:1041B000CAF80020DAF8002022F48032CAF8002081
:1041C000CAF80010D4F8B000B0F5807F21D1FEF716
:1041D000E1FD019019E008E0FEF7DCFD0199411ACC
:1041E00041F28830814210D903252E462078DFF82D
:1041F00030A4C0073DD0A06F182838D026DC80B38B
:10420000082829D0102825D12CE0DAF800008007F2
:10421000E2D5D4F8B010C1F30120032858460DD0E0
:10422000016821F47C510160B4F8B020DAF8001084
:10423000C2F30B021143CAF80010D7E7F94A03682A
:1042400002EA111223F47C511143ECE720280ED02E
:1042500028280CD001250BE00121201D01F0B6FA21
:1042600004E004E00098012101F040FB05465DB147
:104270002E46207880071ED5606F062819D2DFE809
:1042800000F0160C11161616A26FDAF8001021F0C5
:1042900038011143CAF80010EBE70121201D01F09D
:1042A00095FA03E00098012101F020FB054675B165
:1042B00000E001252E46207840071FD5D4F8900055
:1042C000062819D2DFE800F0160C11161616626FD8
:1042D000DAF8001021F007011143CAF80010EAE7EC
:1042E0000121201D01F072FA03E00098012101F084
:1042F000FDFA05469DB100E001252E462078800696
:104300002BD5D4F88C00B0F1405F24D011DC10B371
:10431000B0F1805F15D0B0F1005F10D116E0D4F895
:104320009020D9F8001021F007011143C9F80010BE
:10433000E4E7B0F1804F0ED0B0F1A04F0BD00125D3
:104340000AE00021201D01F041FA03E0009802215B
:1043500001F0CCFA05468DB12E46207840062BD5CB
:10436000D4F89800B0F5406F24D011DC10B3B0F54C
:10437000806F15D0B0F5006F10D116E0D4F88C2006
:10438000DAF8001021F0E0411143CAF80010E4E728
:10439000B0F5805F0ED0B0F5A05F0BD001250AE02C
:1043A0000021201D01F012FA03E00098022101F023
:1043B0009DFA05468DB12E46207800062BD5D4F8FF
:1043C0009C00B0F5C04F24D011DC10B3B0F5005FF5
:1043D00015D0B0F5804F10D116E0D4F89820D9F858
:1043E000001021F4E0511143C9F80010E4E7B0F5E2
:1043F000004F0ED0B0F5204F0BD001250AE0002170
:10440000201D01F0E3F903E00098022101F06EFAAB
:1044100005464DB12E46207800071ED5D4F8800001
:10442000B0F5805F0AD00FE0D4F89C20D9F80010D6
:1044300021F460411143C9F80010ECE70098022113
:1044400001F054FA00B10126D4F88020DAF8001007
:1044500021F440511143CAF800102078C00613D54A
:10446000D4F89400B0F5807F05D10098022101F0C6
:104470003DFA00B10126D4F89420D9F8001021F4B7
:1044800040711143C9F800102068000316D5D4F814
:10449000A00038B1B0F5803F09D0B0F5003F0BD097
:1044A00001250AE00021201D01F090F903E00098A9
:1044B000022101F01BFA054685B12E462068400313
:1044C00022D5D4F88400B0F5801F11D0B0F5001FBC
:1044D00013D0B0F5401F15D0012514E0D4F8A0206A
:1044E000D9F8001021F440311143C9F80010E5E774
:1044F000386840F40030386004E00098012101F091
:10450000F5F9054655B12E462068C0031CD5E06C70
:1045100070B1B0F5803F10D0012514E0D4F88420AC
:10452000DAF8001021F440111143CAF80010EBE74B
:10453000386840F40030386004E00221201D01F0AA
:1045400045F90546CDB12E462068800005D5009876
:10455000022101F0CBF900B10126206880031BD5B0
:10456000E06FB8B1B0F5807F10D0B0F5007F11D00A
:10457000B0F5407F0ED001250DE02948E26C0838E7
:10458000016821F4803111430160DDE7386840F4AF
:1045900000303860F5B32E462068C00207D5226F80
:1045A000D8F8001021F000411143C8F8001020682D
:1045B000C00008D5D4F8B420DBF8001021F4804105
:1045C0001143CBF800102068800207D5A26ED8F8FE
:1045D000001021F080711143C8F8001020684000DD
:1045E0000CD5DBF8001021F40041CBF80010DBF80B
:1045F0000010D4F8B8201143CBF800102068002830
:1046000007DA0748226D0838016821F0405111434C
:10461000016000E008E086B10120BDE8FC9F0000D9
:1046200054440258CFFFFF00E26FDAF8001021F483
:1046300040711143CAF80010AEE70020EDE700001A
:104640002DE9F05F04000F467ED0DFF83882D8F8FD
:10465000000000F00F00B8420CD2D8F8001021F092
:104660000F013943C8F80010D8F8000000F00F001F
:10467000B84269D12078844D40070AD5206929685D
:1046800001F07001884204D9296821F070010143CA
:10469000296020787C4E361D00070AD56069316894
:1046A00001F07001884204D9316821F070010143A2
:1046B00031602078C0060AD5A069316801F4E06154
:1046C000884204D9316821F4E061014331602078E7
:1046D000DFF8B4B180060BF1080B0CD5E169584640
:1046E000DBF8002002F07002914204D9026822F047
:1046F00070020A430260207880070AD5E0682968C2
:1047000001F00F01884204D9296821F00F0101430B
:1047100029602078C0073ED05B49A2682868183914
:1047200020F47060104328606068022818D00328C5
:1047300019D00968012819D0490700294ADADFF899
:1047400048A1AAF1080A00E044E0DAF8002022F0CB
:1047500007020243CAF80020FEF71CFB814612E064
:1047600009688903E9E709688901E6E7C905E4E71B
:10477000FEF710FBA0EB090141F28830814202D91B
:104780000320BDE8F09F6168DAF8000000F038000F
:10479000B0EBC10FECD1207880070AD5E06829681A
:1047A00001F00F01884204D2296821F00F01014372
:1047B0002960D8F80010404601F00F01B9420BD92A
:1047C000016821F00F0139430160006800F00F001B
:1047D000B84201D00120D4E7207840070AD52069EB
:1047E000296801F07001884204D2296821F0700123
:1047F00001432960207800070AD56069316801F01B
:104800007001884204D2316821F0700101433160A7
:104810002078C0060AD5A069316801F4E0618842B9
:1048200004D2316821F4E0610143316020788006D0
:104830000CD5E1695846DBF8002002F07002914285
:1048400004D2026822F070020A43026000F048F8C5
:104850000E492A682B68C2F3032203F00F038A5C17
:10486000C95C02F01F0201F01F01D040084A20FA83
:1048700001F111600749086007480068BDE8F05F72
:10488000FEF7CEBC0020005218440258C67400083F
:1048900014000024100000240800002430B500F0AB
:1048A0001FF80B4A0B490C4B15681468C5F303221B
:1048B00004F00F048A5C095D02F01F0201F01F0181
:1048C000D040064A20FA01F119601060084630BD58
:1048D00018440258C6740008140000241000002474
:1048E000454970B545480968434B103B11F0380203
:1048F00008D00111082A03D0102A0BD0182A0BD097
:10490000084670BD19688906FBD51968C1F3C10155
:10491000C84070BD3A4870BD3749374D18310C1D3D
:1049200024350A68096826682D6802F0030406F039
:104930000102C1F30511C5F3CC0515FB02F200EE2F
:10494000102AB8EE400AE9B32F4ADFED2E0AB7EE7F
:10495000001A6CB1DFED2D1A012C01D0022C43D0CE
:1049600002EE101A1068F8EE422A81EEA22A1EE02A
:104970001C68A40611D51B6801EE901A1168C3F3D8
:10498000C103F8EE612AD84001EE900AC1F3080095
:10499000F8EE611A81EEA22A0BE001EE901ADFED2B
:1049A0001C2A00BFF8EE611A106882EEA12AC0F33B
:1049B000080001EE900AF8EE611A40EE201A31EE7E
:1049C000810A00E015E022EE000A1068C0F34620DC
:1049D000401C00EE900AF8EE600A80EE201ABCEE51
:1049E000C10A10EE100A70BD01EE901ADFED092A1F
:1049F000D8E7002070BD0000104402580090D0039A
:104A000040787D0100000039304402580024744A87
:104A10000024744C20BCBE4BF0B50D461F49204C01
:104A2000002887B016464FF000004FF002020F68D2
:104A30004FF0030319D047F004070F60096801F035
:104A40000401059111020091CDE90120CDE9033067
:104A500014486946FEF77AF8206845EAC61120F046
:104A60007E400843206007B0F0BD47F001070F60AB
:104A7000096801F0010105914FF480710091CDE9C1
:104A80000120CDE9033008486946FEF75FF8206849
:104A9000354320F0FE702843E4E70000E04402586C
:104AA0001044025800080258000002582DE9F05F37
:104AB00004007CD0FF4F2078FE4D1837DFF8F493C8
:104AC000103DC00748D0D9F80000396800F0380020
:104AD000102815D0182803D101F0030002280FD0A8
:104AE0006068B0F5803F12D010B1B0F5A02F18D09B
:104AF000286820F480302860286820F4802009E0AD
:104B00002868800328D560680028D2D024E028686F
:104B100040F480302860606888B1FEF73BF90646B3
:104B200009E0286840F480202860F0E7FEF732F9B9
:104B3000801B64287ED828688003F7D50CE0FEF738
:104B400029F9064605E000BFFEF724F9801B64281A
:104B5000F0D828688003F7D4207841F20308D54EB6
:104B60000C3E800753D5D9F80000396810F03800A2
:104B70000ED0182801D188070AD0E068A8B32968A8
:104B800021F0190101432960FEF704F982461BE078
:104B90002868400702D5E06800288AD0FEF7F4F8BC
:104BA00040451BD82069402812D0316800E0CCE095
:104BB00021F47C3141EA0030306028E0FEF7EAF869
:104BC000A0EB0A000228B5D828684007F6D5E5E72B
:104BD000306820F47C3040F40030EDE7207C316810
:104BE00021F0FE4141EA0060E6E7FFE7286820F097
:104BF00001002860FEF7CEF8824605E0FEF7CAF80D
:104C0000A0EB0A00022895D828684007F6D420783F
:104C1000C0065FD5D9F80000DFF898B2396800F017
:104C20003800ABF1040B082812D0182805D101F088
:104C3000030000E0EAE001280AD0E06900282868C3
:104C400038D040F080002860FEF7A4F8824623E0C8
:104C50002868C00523D5E069802876D11FE0206A46
:104C6000202821D0316821F0F84141EA806030608D
:104C700030E000BF94F82010DBF8002022F07C52D6
:104C800042EA0161CBF8001024E000BFFEF782F891
:104C9000A0EB0A00022896D82868C005F6D5FEF7D2
:104CA00073F84045E6D8DAE7306820F0F84040F085
:104CB0008040DCE720F080002860FEF76BF80646B5
:104CC00005E000BFFEF766F8801B02289BD8286825
:104CD000C005F7D42078000729D57648616964308B
:104CE00000298046016811D041F001010160FEF702
:104CF00051F8064605E000BFFEF74CF8801B02287D
:104D0000C9D8D8F800008007F6D510E021F00101DD
:104D10000160FEF73FF8064605E000BFFEF73AF8EF
:104D2000801B022872D8D8F800008007F6D42078BB
:104D3000800623D5A0690028286810D040F4805050
:104D40002860FEF727F8064605E02CE1FEF722F87A
:104D5000801B02285AD828688004F7D50EE020F47A
:104D600080502860FEF716F8064604E0FEF712F8B9
:104D7000801B02284AD828688004F7D4207840078E
:104D80004FD5DFF83481D8F8001041F48071C8F8AD
:104D90000010FDF7FFFF064605E000BFFDF7FAFF34
:104DA000801B642832D8D8F80000C005F6D5414EE3
:104DB000A068603601280AD008B1052813D03068F1
:104DC00020F001003060306820F0040002E030681C
:104DD00040F001003060A06841F2883A90B1FDF7E0
:104DE000D9FF80460AE0306840F004003060EEE70A
:104DF000FDF7D0FFA0EB0801514507D830688007C8
:104E0000F6D50EE0FDF7C6FF804607E084E000BF60
:104E1000FDF7C0FFA0EB080151457DD83068800741
:104E2000F6D4606AF0B3DFF88C80D9F8001008F18E
:104E30002008C1F3C20103296FD00228286820F09E
:104E40008070286003D0FDF7A5FF044680E0FDF7E1
:104E5000A1FF064605E000BFFDF79CFF801B02286E
:104E600073D828688001F7D4E26A40F2F3313868D9
:104E700054F8283F884340EA021018433860217BE9
:104E80004FF4FE0C22894FF0FE47208A4902267D0E
:104E9000521E401EA1F5007189B20CEA0040C2F317
:104EA000080200E081E01143761E0143014807EA51
:104EB000066203E010440258004802581C301143B7
:104EC0003B4AC8F80010016821F001010160116837
:104ED0004FF6F876236AB14341EAC30111600168D5
:104EE000A26921F00C01114301600168E26921F01F
:104EF000020111430160016841F4803101600168E1
:104F000041F400310160016841F4802101600168D1
:104F100041F00101016001E017E01DE0286840F068
:104F200080702860FDF736FF044604E0FDF732FF8D
:104F3000001B022809D828688001F7D535E000BF9A
:104F4000FDF728FF001B022802D90320BDE8F09FCF
:104F500028688001F4D428E039680128D8F80000D6
:104F600021D0A26A01F0030393421CD1E26AC1F38B
:104F700005118A4217D1216BC0F30802491E8A42EB
:104F800011D1616BC0F34622491E91420BD1A16B36
:104F9000C0F30642491E914205D1E16BC0F30660A1
:104FA000491E814201D00120D0E70020CEE7000059
:104FB00034440258401EB0F1807F10B501D3012067
:104FC00010BD4FF0E02460610F21601702F07BF903
:104FD0000020A0610721216110BDFEE701688A69F8
:104FE000D243920701D400228A6200688169C943D2
:104FF000C90703D0816941F0010181617047000058
:105000002DE9F0410446006890460E468069C04391
:10501000C00635D40025202720688069C04380065B
:1050200016D5701CF8D0FDF7B5FEA0EB0800B04215
:1050300001D8002EF0D1606C84F8405040F0200080
:10504000606484F8417084F842500120BDE8F0812A
:1050500021681020C8612068C7612046FFF7BEFFA5
:105060002068084942680A404260606C40F00400D1
:10507000606484F8417084F8425084F84050E4E75A
:105080000020E3E700E800FE70B50068C1F3090105
:10509000074E41EA0241049C4FF48065426819437F
:1050A00005EA54553543AA4321430A43426070BD83
:1050B000FF63FF032DE9F0411D4617460E460446E7
:1050C000DDF8188008E0681C06D0FDF763FEA0EB51
:1050D0000800A8420BD855B12068806936EA000064
:1050E00013D00020B842EED00020BDE8F081626C01
:1050F000002084F84000202142F02002626484F8FD
:10510000411084F842000120EFE70120EAE70000A7
:105110002DE9F0410025904620260F46044626E062
:10512000424639462046FFF76BFF80BB2068806906
:10513000C043800614D420688169C943490701D45B
:10514000218DC9B91349C661206842680A4042608E
:10515000656484F8416084F8425084F8405016E059
:10516000FDF718FEA0EB0800B84208D83FB1206850
:105170008069C0434007D3D40020BDE8F081606C53
:1051800084F8405040F02000606484F841600120C1
:10519000F3E7000000E800FE70B516460D46044631
:1051A0000DE0324629462046FFF72AFF08B10120CC
:1051B00070BDFDF7EFFD801BA84207D835B1206810
:1051C0008069C0438006ECD4002070BD626C002072
:1051D00084F84000202142F02002626484F84110EB
:1051E00084F84200E3E770B516460D4604460FE02A
:1051F000324629462046FFF703FF08B1012070BD63
:10520000681C05D0FDF7C6FD801BA84207D835B144
:1052100020688069C0438007EAD4002070BD626CBA
:10522000002084F84000202142F02002626484F8CB
:10523000411084F84200E1E770B50A4D01220821CF
:1052400004462846FDF79AFD601EFDF76DFC00221E
:1052500028460821FDF792FDBDE8704040F2F310AA
:10526000FDF762BC001002587FB50025009501953E
:1052700002950395FEF722F801248DF800401B20CB
:105280008DF808008DF80B504FF010468DF80A404D
:1052900068468DF80150019603948DF80950FDF78A
:1052A000DFFF16208DF808008DF80F4005218DF8DE
:1052B0000B1068468DF80E408DF800408DF80D50AB
:1052C0008DF80A408DF8014001968DF80C508DF84C
:1052D0000950FDF7C5FF12218DF808108DF80F4019
:1052E00003228DF80B20B0088DF80E4002238DF8B4
:1052F00000408DF80D408DF80A40019068468DF809
:1053000001308DF809508DF80C50FDF7A9FF0420ED
:10531000FDF7E2FF7FBD00000D4820220B4B00216E
:1053200010B50360C0E90112C16001614161816192
:10533000016241628162C1620163FBF72FFE0028B6
:1053400003D0BDE81040FBF7D2BD10BD00000248FD
:10535000A4010024094808B5016841F00101016079
:1053600000680022114600F0010000900B20FDF7BC
:10537000E1FFBDE808400B20FDF7CEBFD84402583E
:1053800030B587B014216846FBF7A2F826480168BB
:1053900041F010010160016801F010010591016800
:1053A00041F080010160016801F080010591016810
:1053B00041F001010160016801F0010105910168FE
:1053C00041F004010160016801F0040105910168E8
:1053D00041F008010160016801F0080105910168D0
:1053E00041F00201016000680022104D082100F028
:1053F000020005902846FDF7C1FC00240820012189
:105400008DE81300694628460394FDF79FFB0221AF
:105410004FF480708DE813000548694603940494A6
:10542000FDF794FB07B030BDE0440258001002586D
:10543000000002581348002110B5114C0123124AF4
:105440000460C0E90121C0E9033141618161C161AA
:105450000162FDF7FBFC08B1FBF749FD094800219B
:10546000FDF79EFC08B1FBF742FD06480021FDF761
:10547000C3FC002803D0BDE81040FBF738BD10BDC9
:10548000005400406C0200248A5E80400E480021D7
:1054900070B502220B4DC0E9032101238261C0E9EE
:1054A0000731416209248162C1620163C0E900548D
:1054B000FEF70EFB002803D0BDE87040FBF717BDD8
:1054C00070BD000000000840B8020024FEE77047ED
:1054D0000148FEF7BBB80000B802002408B56A46D0
:1054E00001460348FBF7E2F99DF8000008BD000003
:1054F00084A3002413B501AA01460248FBF7F1F981
:1055000000201CBD84A300243EB500F06BF80028E9
:1055100044D1234800F090F800283FD104208DF8B2
:1055200008000C2002A900F071F8002836D11D48AF
:1055300000F082F8002831D11B4800F07DF80028E7
:105540002CD10024694611208DF8004000F02EF87F
:10555000002823D19DF80000694600F080008DF8F6
:105560000000112000F052F8002817D16B208DF8B0
:10557000044001A900F01AF800280FD19DF804009A
:1055800001A900F03F008DF804006B2000F03EF808
:10559000002803D16420FDF7C7FA00203EBD0000BB
:1055A000C577000897770008AB77000833B50C4C37
:1055B00081B00D46012301AAA068009021792068DE
:1055C000491CFDF731FDA068012300902A4621798E
:1055D0002068491CFDF796FC002800D001203EBD44
:1055E00084A30024642008B5FDF79EFA8020694654
:1055F0008DF80000122000F009F808B1012008BD64
:105600006420FDF791FA002008BD00001CB50223BC
:1056100001AA8DF80400074809788DF80510816803
:10562000009101790068FDF7FFFC002800D00120FF
:105630001CBD000084A3002410B5044605E0611CD5
:10564000FFF7E4FF002807D1A41C2078FF2802D030
:105650006178FF29F3D1002010BD00002DE9F04151
:10566000044600690D462027236801284FF40046B0
:1056700004F5717203EB4511D3F840C0D1F8080B63
:1056800009D0DFF89CE0F4453AD1020433D500BFDD
:10569000C1F8086B40E0234B5FEA007E04D59C45CF
:1056A0003AD90004F4D437E05FEA806E02D5C1F83D
:1056B000087B31E010F0280F2ED19C4501D9000461
:1056C000E6D4D1F8103BC5EBC50004EB8000C3F372
:1056D0001203D0F80412A1EB0303C0F81432D0F87F
:1056E00008321944C0F8081295B9D4F8100278B9F4
:1056F000206801210AE080060AD5C1F8087B07E08E
:1057000035B9D4F8100218B90021184601F018FB79
:105710002046E9B2FDF789FE0020BDE8F0810000D7
:105720000A31544F0A30544F2DE9F84F0E460568A0
:105730008146C1EBC60100EB8104D4E914203C345E
:10574000904202D90120BDE8F88FA168101A814269
:1057500000D20846C01C05EB461887081BE000BFB6
:10576000A268A0EB010A524500D2924699F81010A7
:105770000AF1030000911FFA8AF3E16887082846BE
:10578000F2B201F065FDE16801EB0A00E060A16999
:1057900001EB0A00A061D8F8180980B2B84205D31D
:1057A000D4E90501814201D20028D9D1D4E905010B
:1057B000884208D8D5F83418012006F00F0290402E
:1057C0008143C5F834180020BDE770472DE9F04744
:1057D000454D044689464FF0000A2868C0438007BB
:1057E0000AD0414E283E306820F080603060FDF7DE
:1057F000D1FA0746B04608E00120BDE8F08700BFB7
:10580000FDF7C8FAC01B022867D8D8F800000001CD
:10581000F6D4206829684FF4FE0721F47C313E025B
:1058200041EA00302860207AA389B4F804C040021D
:105830002D4D2D495B1E227CACF1010C1035091D4C
:10584000A0F5007080B2521ECCF3080C07EA0343A7
:1058500040EA0C00184306EA026210432860086818
:10586000626920F0C000104308600A68A06922F055
:10587000200202430A60281D0A6822F010020A6012
:1058800002684FF6F873E4699A4342EAC402026080
:105890000868B9F1000F40F010020A6011D00868E2
:1058A000B9F1010F11D040F400100860D8F80000E1
:1058B000444640F08060C8F80000FDF76BFA0546EA
:1058C0000DE0086840F40020EFE740F48010ECE7BA
:1058D000FDF760FA401B022801D903208DE72068FC
:1058E0000001F5D5504688E7284402582DE9F047D5
:1058F000454D044689464FF0000A2868C04380079A
:105900000AD0414E283E306820F080503060FDF7CC
:1059100041FA0746B04608E00120BDE8F08700BF25
:10592000FDF738FAC01B022867D8D8F800008000BD
:10593000F6D4208829684FF4FE0721F07C713E02DE
:1059400041EA00502860207AA389B4F804C04002DC
:105950002D4D2D495B1E227CACF1010C1835091D23
:10596000A0F5007080B2521ECCF3080C07EA034386
:1059700040EA0C00184306EA0262104328600868F7
:10598000626920F44060104308600A68A06922F44C
:10599000007202430A60281D0A6822F480720A60BD
:1059A00002684FF6F873E4699A4342EAC40202605F
:1059B0000868B9F1000F40F480720A6011D00868DD
:1059C000B9F1010F11D040F080700860D8F80000E4
:1059D000444640F08050C8F80000FDF7DBF905466A
:1059E0000DE0086840F48000EFE740F40000ECE7C9
:1059F000FDF7D0F9401B022801D903208DE720686C
:105A00008000F5D5504688E7284402587047FDF7D6
:105A1000D1BB0000F0B5CBB04C212FA8FAF758FD50
:105A2000202142A8FAF754FDBC216846FAF750FD40
:105A30000220FEF775F92E492E480A6822F001026D
:105A40000A6009680168002421F4404141F40041E2
:105A50000160016801F440414A9101688904FCD564
:105A600002202121C20301230526CDE92F1239AAE4
:105A70003593602738900A2182E8C10008253E90BE
:105A8000CDE93C01CDE93F542FA84194FFF70EF832
:105A90004FF4FA7618B13046FFF7CEFBFBE742AA87
:105AA0003F20032182E833000121469442A8479415
:105AB00048944994FEF7C4FD18B13046FFF7BCFB8B
:105AC000FBE70D48009041046846CDE92041FEF710
:105AD00059F918B13046FFF7AFFBFBE74FF400224E
:105AE00000205101FEF798FFFEF744F94BB0F0BDDE
:105AF0002C0400581848025808000400214A30B508
:105B0000214914680020204B44F4700414601033C1
:105B10000A681E4D42F001020A6018600A681A4BBA
:105B20002A400A6018331C1D251D174A18602832A8
:105B30002060131D28601C1D251D10602A1D186083
:105B4000131D20601C1D2860251D1060186020603A
:105B500028600A680C4B0E4C22F4802260330A60E5
:105B6000186020686FF30F00B0F1005F03D209499D
:105B70000120C1F808014FF0006002498039086037
:105B800030BD000088ED00E0004402587FEDF6EAE9
:105B90000010005C0080005110B5D0F8B4225268AB
:105BA0009047002010BD13460A46002110B500F0B2
:105BB00087FA002010BD13460A46002110B500F0F8
:105BC00018FB002010BD10B58021044600F0F6FA45
:105BD0002046BDE81040002100F0F0BA10B5C0F832
:105BE0005C210323C0F894321346C0F860210A46B2
:105BF000002100F065FA002010BD0521002310B53A
:105C00001A46C0F89412194600F05AFA002010BD46
:105C100010B5C2610223C0F89432134602620A46EC
:105C2000002100F0E6FA002010BD0421002310B589
:105C30001A46C0F89412194600F0DBFA002010BD95
:105C400004A00A46024910B500F0E1F8004810BD72
:105C500084A1002455564320436F6E666967000097
:105C600012200880004870479001002404A00A46D2
:105C7000024910B500F0CBF8004810BD84A1002403
:105C800055564320496E7465726661636500000075
:105C900004200880004870478C01002404A00A46B4
:105CA000024910B500F0B3F8004810BD84A10024EB
:105CB00053544D6963726F656C656374726F6E697E
:105CC0006373000004A00A46024910B500F09FF873
:105CD000004810BD84A1002453544D333220555345
:105CE0004220566964656F20436C61737300000045
:105CF00004A00A46024910B500F089F8004810BD1A
:105D000084A10024303030303030303030303141F8
:105D100000000000F8B504460D460020ADF8000074
:105D20004888010A082951D2DFE801F05004091718
:105D30005050454ED4F8B012207C0A6819E0207CFF
:105D400002260028D4F8B40205D0C16A6846884704
:105D50000146467047E0816AF8E7C1B2062921D2C0
:105D6000DFE801F0030A1014181CD4F8B0024268EE
:105D700005E06946904725E0D4F8B00282682AB36E
:105D8000207CF6E7D4F8B002C268F8E7D4F8B00295
:105D90000269F4E7D4F8B0024269F0E7D4F8B0023F
:105DA0008269ECE7D4F8B4128B6B7BB1C1B26A465E
:105DB0002046984706E0207C40B9D4F8B402416BF5
:105DC0006846884701460EE0207C20B129462046DF
:105DD000FFF7F9FEF8BDD4F8B402016B68468847B6
:105DE000014607204870BDF8000048B1EA8852B16A
:105DF000824200D902462046ADF80020FFF708FF96
:105E0000E8880028E6D12046FFF70FFFF8BD70B5FF
:105E100000284FF000061ED00546344602E0641C00
:105E20006D1CE4B22B78002BF9D1022505EB44045C
:105E300014801278731C03258A550024B21CCD549B
:105E400006E0551C8B54EAB2531C401C8C54DAB249
:105E50000378002BF5D170BD01004FF0000004D095
:105E6000012901D0022901D002207047012070478A
:105E700010B580B1D0F8B43213B10023C0F8B432F9
:105E800009B1C0F8B0120121027080F89C1200F034
:105E9000C5F8002010BD022010BD10B5D0F8C0021A
:105EA000FDF7F7FABDE81040FFF7D6BF10B5D0F800
:105EB000C002FDF7C8FABDE81040FFF7CDBF70B5CE
:105EC0001646044649B1D4F8B40242691AB194F8AE
:105ED0009C02032850D0022070BDD4F894320025D3
:105EE00004F11400022B03D0042B3AD0C3B33CE0DE
:105EF000D0E90313994207D9C91AC1608AB2314661
:105F00002046FFF758FE12E08068B0FBF3F103FB78
:105F1000110199B9984211D3D4F8981288420DD240
:105F2000002220461146FFF746FEC4F8985200238F
:105F30001A461946204600F0C3F816E0D4F8B40219
:105F4000C16829B194F89C02032801D120468847F2
:105F50008021204600F032F92046FFF74EFE04E093
:105F6000FFE78021204600F029F994F8A0020128DB
:105F700004D184F8A05201E020469047002070BD73
:105F800070B51546044649B1D4F8B40282691AB115
:105F900094F89C02032830D0022070BDD4F89412EB
:105FA00004F5AA70032902D005291ED027E0D0E904
:105FB00003218A420BD9531AC3600846834200D397
:105FC000034629469AB22046FFF7EDFD17E0D4F8C4
:105FD000B402016929B194F89C02032801D120463A
:105FE00088472046FFF721FE09E00020C4F894020C
:105FF0000146204600F0E2F801E0204690470020EC
:1060000070BD0020704710B5012180F89C12D0F8B7
:10601000B422017952689047002010BD70B5017814
:1060200041BB154901230224144D00220926C1F861
:106030000404C0F8C0120846C1E903438C61C1E9F9
:1060400007324A628A62CA620A63C1E90056FDF7F2
:106050003FFD08B1FAF74BFF07488021FDF7B1F982
:10606000054840220021FDF7B0F9034880220121B4
:10607000FDF7ABF9002070BDB80200240000084015
:10608000D0F8C02201F07F000B06C0EBC00002EB8D
:10609000800002D590F83E00704790F8FE017047EE
:1060A000002070470020704710B51C46D0F8C00291
:1060B00013462246FDF71BFABDE81040FFF7CCBEA1
:1060C00010B5D0F8C002FDF742FABDE81040FFF766
:1060D000C3BE70B50022044640231146FFF7E4FF1B
:1060E0004026C4F864610125334600222046802101
:1060F000C4F85851FFF7D8FFD4F8B81200206662F0
:10610000A56184F89C52C4F894026060C4F8A402AB
:1061100029B1D4F8B40200214268204690470020FB
:1061200070BD90F89C12042903D190F89D1280F85C
:106130009C120020704710B590F89C12032904D1DE
:10614000D0F8B412C96901B18847002010BD0174AC
:106150000020704710B5D0F8C002FDF78DFDBDE8F6
:106160001040FFF779BE70B5044600F52A70054669
:1061700000F048F8B4F8AE32012194F8A80210F00B
:106180001F02C4E9A5130AD0012A0DD0022A10D09B
:1061900000F08001204600F011F8002070BD294673
:1061A000204600F0A0F8F8E72946204600F0CCF998
:1061B000F3E72946204600F01FF9EEE710B5D0F8C6
:1061C000C002FDF7E6F9BDE81040FFF745BE10B587
:1061D000D0F8C002FDF76BFDBDE81040FFF73CBEF4
:1061E00090F89C22042180F89D2280F89C120020C7
:1061F000704710B5D0F8C002FDF705FABDE81040B1
:10620000FFF72ABE0A7802704A784270CB788A7803
:1062100002EB032242804B790A7902EB032282804F
:106220008A79C97902EB0121C180704702464FF09B
:10623000000011B1C2F8B41270470220704710B5C7
:10624000D0F8B42202241AB11268904700B9002491
:10625000204610BD70B5204D044688780E46C1B268
:106260000129297031D894F89C0202280BD0032808
:106270000FD031462046FFF7A6FC29782046BDE81E
:106280007040FFF789BCD9B16160032084F89C029B
:1062900009E071B16068884212D0C1B22046FFF7B0
:1062A0007BFC297861602046FFF7C9FF02280CD0EB
:1062B00006E00220616084F89C022046FFF76CFC37
:1062C0002046BDE87040FFF7B0BC31462046BDE82F
:1062D0007040FFF778BC00001800002410B5FFF7ED
:1062E00076FF002010BD2DE9F0410A784FF000083C
:1062F00012F0600308D0202B01D0402B6FD1D0F8D2
:10630000B422926890476CE04B7800220125022667
:106310000A2B64D2DFE803F03F5B63556308056333
:106320002B28FFF7F7FC5CE004468888D0B9C888C2
:10633000C0B94888802815D294F89C2200F07F07C5
:10634000032A0FD03946204684F89E72FFF702FFD9
:106350002046FFF76AFC17B184F89C6241E084F89C
:106360009C523EE020463AE0FFF774FF39E0CB88CC
:10637000012B34D190F89C32012B04D0022B02D097
:10638000032B2CD104E000F108018260012215E00A
:106390000122011D12E090F89C32012B03D0022B48
:1063A00001D0032B1BD1CB88022B18D1D0F8A4121B
:1063B000C26001B1C660022200F10C01FFF728FCA7
:1063C0000FE0498801290CD1C0F8A45211E090F8DF
:1063D0009C32012B08D0022B06D0032B04D0FFF7F0
:1063E000F2FB4046BDE8F08149880129F9D1C0F8A7
:1063F000A422FFF71AFCF4E70A462DE9F04104460F
:1064000010780979002710F060030AD0202B01D002
:10641000402B50D1D4F8B4021146836820469847E7
:106420008FE0C0F34110012806D05078D0B3012886
:106430002AD003283FD107E0D4F8B402114683687C
:106440002046BDE8F041184794F89C02022802D08B
:10645000032872D10AE071B380296ED02046FFF77D
:10646000ADFE80212046FFF7A9FE6AE0508838B9CA
:1064700031B1802904D0D08810B92046FFF79EFEA4
:106480002046FFF7D2FB5CE094F89C020228E2D0A1
:10649000032852D1508898BB4806F1D02046FFF718
:1064A000FCFCEDE7FFE794F89C020026022803D0ED
:1064B000032842D112E040E009B180293DD108060D
:1064C00001F07F0000EB800004EB800101D5143166
:1064D00001E001F5AA7102220E602AE0080601F02F
:1064E0000F0000EB800004EB80000AD5806920B328
:1064F00001F07F0000EB800004EB800514350BE019
:106500001FE0D0F85801C0B101F07F0000EB80001F
:1065100004EB800505F5AA7541B1802906D0204617
:10652000FFF7AEFD10B10120286000E02E600222CE
:1065300029462046FFF76CFB03E011462046FFF793
:1065400042FB3846BDE8F08170B5054608780C4638
:1065500010F0600003D0202801D0402816D195F813
:106560009C02012803D0022801D003280ED12079F3
:1065700002280BD8D5F8B402826828469047E188F3
:10658000014306D12846FFF750FB02E02846FFF7FB
:106590001AFB002070BD00002DE9F0410746ADF563
:1065A000027D0026D7E9AE45207902280CD14FF0B4
:1065B0000308CDB1A96880A8884728B120618099D7
:1065C000C4E9051684F8048037A0217B007801F027
:1065D000010161F30F208DF800008DF801100220F9
:1065E0002179032931D037E04FF41641C4E9046121
:1065F000A661E7E7D4F810C0BCF1000F02D01CF888
:10660000033019E0DB0701D0802315E0A368B3FB5A
:10661000F1FC01FB1C3CBCF1050FB3FBF1FC01FBE1
:106620001C3301D9C3F10A034FF0C8084FF0050C21
:1066300003FB08F3B3FBFCF31354A369401C5B1C7E
:10664000A361B0F5007F03D306E0A3690A216A467F
:10665000D4F814C06345CDD32179022901D0032990
:106660001CD183B26A4681213846FFF7C2FD2079EA
:10667000032813D1D4E9050181420FD3A06800F1AA
:106680000100A0602DB1E96819B1206908B18847FF
:1066900026610221E0682171401CE0600DF5027D59
:1066A0000020BDE8F08100000200000000207047DB
:1066B00010B581210446FFF7F9FBD4F8B80220B1E8
:1066C000F9F7ADFE0020C4F8B802002010BD00208C
:1066D00070470000A7210180004870475C0000243B
:1066E0001229054910B505D004A000BFFFF78FFBA4
:1066F000014810BD03A0F9E7C00600245553525FBE
:106700005354520057654163742053747564696F24
:106710002043616D6572610010B50122044681213C
:106720004FF40073FFF7C0FC1C20F9F749FEC4F8D2
:10673000B80248B10021016001718160C16001614E
:1067400041618161084610BD022010BD09B1C0F849
:10675000BC1200207047000038B5D0F8B84221794B
:10676000012909D105A16A46022309680091812106
:10677000FFF73FFD02202071002038BD020000001D
:1067800070B5054624480024D5F8B83203600E7869
:10679000D5F8BC2216F060061BD0202E0CD148780C
:1067A00082280ED004DC01280FD0812804D108E013
:1067B000832806D0872804D02846FFF704FA02244D
:1067C00027E0284600F056FD23E0284600F066FD4D
:1067D0001FE04E78062E1CD00A2E02D00B2E18D1A8
:1067E00005E0012219462846FFF712FA11E08D78DC
:1067F00000211D600068012D05D001714AB150686B
:1068000038B1804705E001230371C1600AB1106807
:10681000F6E7204670BD00005800002470B54D78A2
:1068200001230A78012D1C4C02F00F0503FA05F331
:10683000D0F81C5817D000EB421245EA0343C0F8C9
:106840001C38D2F8000B00040BD40B89C978D2F89D
:10685000000BC3F30A03184344EA81410843C2F81A
:10686000000B002070BD9EB23543C0F81C5800EBF1
:106870004213D3F800090004F3D40D89C978D3F882
:106880000009C5F30A058904284341EA82510843F7
:106890002043C3F80009E4E700800010D0F8001995
:1068A0006FF30A01C0F80019D0F8041841F48071A0
:1068B000C0F804180020704770B5044606990A9E77
:1068C000049D01290D9816D0E06840F04000E0607A
:1068D000204600F02DF8A16B26B321F48031A1638E
:1068E000012D07D1A16841F00601A160A16841F026
:1068F0002001A16070BDA26B01280C4922F48030F8
:10690000A063E06800EA0100E060E06820F4401065
:10691000E06003D1E06840F48010E060204600F0C1
:1069200007F8DDE741F48031D9E70000BFFFBDFF84
:106930000C49012202E0521C8A420BD80369002B49
:10694000F9DA0369012243F00103036104E0521CF8
:106950008A4201D9032070470369DB07F7D1002081
:1069600070470000400D03000A4900220A4810B594
:10697000FFF77EFA09490848FFF758FC084906481E
:10698000FFF7E4FE0448FFF7A9FCBDE81040FDF75F
:10699000F1B9000070010024C00800241C0000248C
:1069A0004801002470B50A7801234C78012C00EBD3
:1069B00042122CD0D2F8004B002C0BDAD2F8004B4C
:1069C00044F00064C2F8004BD2F8004B44F080441D
:1069D000C2F8004B0C78D0F83C5804F00F0403FACE
:1069E00004F425EA0444C0F83C480978D0F81C486F
:1069F00001F00F018B401C4924EA0343C0F81C3806
:106A0000D2F8000B0840C2F8000B002070BDD2F88D
:106A10000049002C0BDAD2F8004944F00064C2F8B7
:106A20000049D2F8004944F08044C2F800490D788A
:106A3000D0F83C4805F00F050C4E03FA05F5ADB251
:106A4000AC43C0F83C48D0F81C48097801F00F016D
:106A50008B4099B28C43C0F81C48D2F800093040F2
:106A6000C2F80009D1E700000078F3EF007833ECBA
:106A700010B5D0F8041821F00201C0F80418032062
:106A8000FCF752F8002010BD10B5D0F8041841F002
:106A90000201C0F804180320FCF746F8002010BDDE
:106AA0002DE9F04F0E4604460021DDF824B00D46D6
:106AB000109F0846DDF82C2004EB800CCCF8041164
:106AC000401C0F28F8D32046AFB1806B40F4001C67
:106AD000C4F838C088460846C4F8000ED4F8000848
:106AE000012A2146C4F800081BD00846D1F8001836
:106AF00041F003011BE0D0F8040840F0020CC4F898
:106B000004C8A06B20F4001CC4F838C0206840F012
:106B1000400CC4F800C0206840F0800CC4F800C0ED
:106B2000D8E70846D1F800180BB141F00101C0F8D0
:106B30000018102100F092FA00B10125204600F063
:106B40007DFA00B1012540464FF000694FF67F33D2
:106B50004FF0904AC4F81088C4F81488C4F81C8810
:106B6000002114E004EB4112D2F800C9BCF1000F7F
:106B700006DA11B1C2F800A904E0C4F8009901E0F6
:106B8000C2F80009C2F81009C2F80839491C8E423F
:106B9000E8D8002115E000BF04EB4112D2F800CB89
:106BA000BCF1000F06DA11B1C2F800AB04E0C4F882
:106BB000009B01E0C2F8000BC2F8100BC2F8083BC2
:106BC000491C8E42E8D8D4F81038BBF1000F6FF0A2
:106BD000804223F48073C4F81038A061626103D14D
:106BE000A06940F01000A061A069094A0C9940EA30
:106BF0000200A06119B1A06940F00800A061012F56
:106C000003D1A06903490843A0612846BDE8F08F7D
:106C100000383C8004000040816821F0010181605F
:106C20000020704770B50B784E78444C0D78012EDB
:106C300000EB431320D0D3F8100B6FF31200C3F80E
:106C4000100BD3F8100B2040C3F8100B486908B1A3
:106C500088684861D3F8100B012A40F40020C3F87B
:106C6000100BD3F8100B8A68C2F3120240EA02003C
:106C7000C3F8100B56D059E04E69002ED3F81069B6
:106C800033D06FF31206C3F81069D3F810692640A9
:106C9000C3F810694E698C68A64200D94C61D3F8DC
:106CA000104944F40024C3F81049D3F810494E6940
:106CB000C6F3120654EA0604C3F81049012A22D08A
:106CC00000EB4512D2F8003943F00443C2F8003912
:106CD0004A6932B30B78D0F83418012203F00F035D
:106CE0009A401143C0F8341826E02640C3F81069D2
:106CF000D3F8104944F40024C3F81049D3F81049DC
:106D00006FF31204D8E7096919B100EB4512C2F814
:106D1000141900EB4510D0F8001941F00441C0F8F7
:106D2000001909E0C86808B1C3F8140BD3F8000BC8
:106D300040F00440C3F8000B002070BDFFFF07E0E7
:106D400010B5144C036CA34203D9D0F8003B002BC0
:106D50001EDB0023C0F8103B0129D0F8101B41F4C2
:106D60000021C0F8101BD0F8101B41F01801C0F82A
:106D7000101BD0F8101B41F0C041C0F8101B07D108
:106D8000C0F8142BD0F8001B41F08021C0F8001B84
:106D9000002010BD0A30544F0B784A78012A00EBCE
:106DA00043100BD0D0F8002B22F40012C0F8002BB7
:106DB000C978032914D0022912D017E0D0F800298D
:106DC00022F40012C0F80029C978032901D0022951
:106DD0000CD1D0F8001941F08051C0F8001905E03D
:106DE000D0F8001B41F08051C0F8001B0020704714
:106DF0000A784B78D1B2012B00EB421012D0D0F8B8
:106E0000002B002A06DB29B1D0F8001B21F08041BD
:106E1000C0F8001BD0F8001B41F40011C0F8001BA3
:106E200000207047D0F80029002A06DB29B1D0F8ED
:106E3000001921F08041C0F80019D0F8001941F480
:106E40000011C0F80019EBE7F8B50B786FF0604659
:106E50004F78764DDCB2012F00EB431326D0D3F8E8
:106E6000104B6FF31204C3F8104BD3F8104B2C40A7
:106E7000C3F8104B4C698D68002C74D0D3F8107B8C
:106E80002C44641EB4FBF5F4A4B206EAC4452F43B7
:106E9000C3F8107BD3F8105B8E686643C6F3120408
:106EA0002543C3F8105B012A72D0A6E04F6927B3CF
:106EB000D3F810796FF31207C3F81079D3F810796B
:106EC0002F40C3F810794F698D68D3F810C92F444B
:106ED0007F1EB7FBF5F506EAC54545EA0C05C3F884
:106EE0001059D3F810594E69C6F312063543C3F84A
:106EF0001059CD78012D10D01BE0D3F810692E4029
:106F0000C3F81069D3F8105945F40025C3F8105997
:106F1000D3F810596FF3120509E0D3F8105925F092
:106F2000C045C3F81059D3F8105945F00055C3F8BF
:106F30001059012A18D000EB4413D3F8004944F04B
:106F40000444C3F80049CC78012C2FD04A6962B3BD
:106F50000B78D0F83418012203F00F039A40114344
:106F6000C0F834185FE036E00A691AB100EB441348
:106F7000C3F81429C97801290FD1D0F80818C90518
:106F800000EB4411D1F8002903D442F0005202E092
:106F90002FE042F08052C1F8002900EB4410D0F8F5
:106FA000001941F00441C0F800193CE0D0F808484D
:106FB000E405D3F8004902D444F0005401E044F061
:106FC0008054C3F8004900928B8A0A78C9689BB242
:106FD00000F03EF927E0D3F8104BC5F312052C431F
:106FE000C3F8104BD3F8104B44F40024C3F8104BF3
:106FF00059E7CA680AB1C3F8142BC97801290CD122
:10700000D0F80808C005D3F8000B02D440F00050B7
:1070100001E040F08050C3F8000BD3F8000B40F0C3
:107020000440C3F8000B0020F8BD0000FFFF07E09C
:10703000816841F00101816000207047064A1021FB
:1070400001610021491C914201D903207047036965
:10705000DB06F7D400207047400D03002023074AC9
:1070600043EA811303610021491C914201D90320A5
:10707000704703699B06F7D400207047400D03005A
:10708000D0F8080810F0060004D0022803D0062823
:1070900001D00F20704702207047406900F00100C6
:1070A0007047D0F81818D0F81C08084080B2704714
:1070B000D0F81818D0F81C080840000C704710B51C
:1070C000D0F8102801F00F0300EB4114D0F8341869
:1070D000D4F80809D94001F0010142EAC111084081
:1070E00010BD00EB4111D1F8081BD0F8140808407E
:1070F00070474169806908407047D21C00F5805094
:107100009308002210B502E00468521C10C19A4294
:10711000FAD3084610BD10B5C268012922F0C0425A
:10712000C26002D029B1012010BDC16841F00051F8
:1071300002E0C16841F08041C1603220FBF7F4FCFD
:10714000002010BDD0F800284FF4FE6303EA0113BD
:1071500022F4FE62C0F80028D0F800181943C0F8E5
:107160000018002070470000022A3ED1264A274B13
:107170000A449A4201D20F2138E0254A254B0A449D
:107180009A4201D20E2131E0234A244B0A449A420A
:1071900001D20D212AE0224A224B0A449A4201D20E
:1071A0000C2123E0204B214A0B44934201D20B21B6
:1071B0001CE01F4B1F4A0B44934201D20A2115E0E9
:1071C0001D4B1E4A0B4493420FD31D4B1D4A0B44CB
:1071D000934201D2082109E01B4B1C4A19449142F9
:1071E00001D2072102E0062100E00921C2684FF424
:1071F000705322F47052C26003EA8123C1681943BC
:10720000C160002070470000405327FF00350C008C
:10721000401E1BFF40420F0000DC0BFF804F12009E
:10722000808CF9FE20D6130060B6E5FE60E3160000
:1072300000D3CEFE40771B00C05BB3FEC09121009F
:1072400000CA91FE20753800E05459FEE09C4100D0
:1072500010B5029C64B900EB0230DB1C00229B08D5
:1072600000F5805002E010C90460521C9A42FAD323
:10727000002010BD4A88B2F5807F07D0B2F5007FAC
:1072800008D1CA88044900BFFEF7C2BCCA880249B7
:107290002231F9E77047000003010024CA88002A60
:1072A0000DD04988B1F5807F06D0B1F5007F06D1B9
:1072B000034900BFFEF792BC01492231FAE770474B
:1072C00003010024FEE7090700284FEA116104DBEF
:1072D00000F1E02080F80014704700F00F0000F18A
:1072E000E02080F8141D70472DE9F0410121064689
:1072F000FF20FEF7FFF81220FEF7F0F800F002087A
:107300000021FF20FEF7F6F84420FEF7E7F80546D7
:10731000244830F82640B0F8601000EB8600A14207
:10732000478801D3204E00E0204E0021FF20FEF7C9
:10733000E1F801210520FEF7DDF85A20C4F38701AA
:10734000FEF7D8F85B20C7F38701FEF7D3F80420D7
:1073500000EA1721C4F3812211435C20FEF7CAF82A
:107360000121FF20FEF7C6F8304600F091F8012118
:10737000FF20FEF7BFF81220FEF7B0F840EA080140
:107380001220FEF7B7F80021FF20FEF7B3F84420E3
:107390002946FEF7AFF8BDE8F04100210520FEF7D1
:1073A000A9B80000D67400080B77000851770008D0
:1073B000FDF75AFFF9F7B2F9FBF704FFFEF72AFBD6
:1073C000FDF7DEFFFDF7C6FFFDF7A6FFFEF732F87B
:1073D000FEF75CF808480921F9F7FEF9FFF7C4FA4F
:1073E00006480749D0F8BC0208600520FDF724FFD5
:1073F000F9F726FAF9E700006C020024C00800241F
:107400000000002470B501210546FF20FEF772F848
:1074100080211220FEF76EF86420FBF785FB1948E7
:1074200000F036F81E20FBF77FFB174C03200021ED
:1074300025746074FF20FEF75DF801210520FEF73A
:1074400059F8124800F024F8207CFFF74DFF012185
:10745000FF20FEF74FF80420FEF740F840F08001CF
:107460000420FEF747F80121FF20FEF743F804202F
:10747000FEF734F840F050010420FEF73BF80020FE
:1074800070BD00009775000884A30024857500086E
:1074900070B50024054606E005EB44020448521C82
:1074A000F9F71FFA641C15F814100029F4D170BD07
:1074B00084A300244FF04070E1EE100A70470006EC
:1074C000101600061016000000000102030401025D
:1074D0000304060708090000000058004800B00037
:1074E00090006001200158003C00B000780060016D
:1074F000F00028001E0050003C00A0007800400171
:10750000F0008002E0013C00280078005000F0000C
:10751000A000E00140014000200040004000800049
:107520004000800080008000A0008000A000D00209
:10753000E001F002E001200358020004000300050E
:1075400000044006B0040005D0028007380400059E
:10755000C003200A9807030609120A0B0F1718190F
:107560001A1B00000000000000FF00E004DA08D74A
:1075700003E177E0000000FF00E004DA18D703E140
:1075800077E0000000FF00E004DA00D70333A0E555
:107590001FE167E0000000FF011280FF002CFF2EBA
:1075A000DFFF013C321101090204D813E514482C15
:1075B0000C33783A333BFB3E0043111610399235B9
:1075C000DA221A37C3230034C0361A068807C00DE2
:1075D000870E414C0048005B0042034A81219924F8
:1075E00040253826825C00630046220C3C617062B4
:1075F000807C05208028306C006D806E00700271E8
:107600009473C13D345A5712401711184319001A88
:107610004B320937C04FCA50A85A236D003D38FF7E
:1076200000E57FF9C04124E01476FF33A0422043F7
:10763000184C0087D5883FD703D910D382C808C912
:10764000807C007D007C037D487D487C087D207D1A
:10765000107D0E9000910E911A9131915A9169917D
:1076600075917E9188918F919691A391AF91C491DC
:10767000D791E891209200930693E39305930593A5
:10768000009304930093009300930093009300935E
:10769000009600970897199702970C9724973097B0
:1076A00028972697029798978097009700C3EDA494
:1076B00000A800C511C651BF80C710B666B8A5B7EF
:1076C00064B97CB3AFB497B5FFB0C5B194B20FC481
:1076D0005CC064C14B8C00863D500051C85296532B
:1076E00000540055005AC85B965C00D302C3ED7F7E
:1076F00000DA08E51FE167E000DD7F0500FF00E03C
:10770000045A505B3C5C00E0000000FF01124003A3
:107710000F32091711184319001A4B3D3835DA2278
:107720001A37C334C006880D870E414203FF000597
:1077300001E004C064C14B8C005300540051C85296
:107740009655005700863D5080D3800500E000002C
:1077500000FF011200030F32361711187519011AB4
:10776000973D343588220A374034A006020DB70E03
:10777000014283FF000501E004C0C8C1968C00539C
:107780000054005190522C55885700863D5080D3AC
:10779000840500E00000003E1A722273F2171618EA
:1077A0000432A419021A7A030AFFFF12008C0004A3
:1077B0000040C014184F80508051005222535E5434
:1077C000803DC0FFFF3A0412001713180132B619AA
:1077D000021A7A030A0C003E0015027A207B107C04
:1077E0001E7D357E5A7F69807681808288838F8472
:1077F0009685A386AF87C488D789E813E00158022D
:1078000068000010000D401418A505AB072476256C
:107810006326A59F78A068A103A6D8A7DFA8F0A932
:1078200090AA9413E5300031000E610F4B16021E32
:1078300030210222912907330B350B371D3871395E
:107840002A3C784D404E20690074108D4F8E008F79
:107850000092139000910096009A00B084B10CB28F
:107860000EB382B80A430A44F045344658472848C4
:107870003A59885A885B445C675D495E0E640465CA
:10788000206605940495086C0A6D556E116F9F6A09
:10789000400140024013C77901C8F0790FC8007950
:1078A00010C87E790AC880790BC801790CC80F7995
:1078B0000DC8207909C8807902C8C07903C8407909
:1078C00005C8307926FFFF00E87800080000002492
:1078D000A4010000D4020008E8790008A4010024F3
:1078E00054AC00003003000841320182103C90D0BB
:1078F0000304311319671408B1661B088108411A83
:10790000CF0C1399651B08AD085A5914811AD51468
:10791000815AE10C140902A71008020111803208F3
:107920000B14020E0334120904130E0115130D2457
:107930000113012714808D5B10090101112402013C
:10794000010262141A02381B240312111D011509C9
:10795000049B130E0217160E2401014D1A811D19E6
:107960001711280A1B2404010159555932B72280E6
:1079700012AA2D389B7110C611171E24050102A0F2
:1079800022784BA04104229614C9FD6C2A01051FE0
:1079900006240D010104561B0101561E170705811F
:1079A00001A1213A011EB11935E1091F22138D08E9
:1079B0001B087504139D071B089904011813615CCB
:1079C0001B0891041A9D041AC5041AF1041A4104F3
:1079D0001A6D041E0403090412922808EF020140E4
:0879E000DCFE239C1B02039F47
:040000050800029954
:00000001FF
