:0200000490006A
:10000000F00C0024AD0200904B330090152B0090B3
:1000100049330090BB03009051490090000000005C
:1000200000000000000000000000000009440090F3
:1000300045040090000000004D3300900B440090F8
:10004000C7020090C7020090C7020090C70200904C
:10005000C7020090C7020090C7020090C70200903C
:10006000C7020090C7020090C7020090C70200902C
:10007000C7020090C7020090C7020090C70200901C
:10008000C7020090C7020090C7020090C70200900C
:10009000C7020090C7020090C7020090C7020090FC
:1000A000C7020090C7020090C7020090C7020090EC
:1000B000C7020090C7020090C7020090C7020090DC
:1000C000C7020090C7020090C7020090C7020090CC
:1000D000C7020090C7020090C7020090C7020090BC
:1000E000C7020090C702009000000000C702009005
:1000F000C7020090C7020090C7020090C70200909C
:10010000C7020090C7020090C7020090C70200908B
:10011000C7020090C7020090C7020090C70200907B
:10012000C7020090C7020090C7020090C70200906B
:10013000C7020090C7020090C7020090C70200905B
:1001400000000000000000000000000000000000AF
:10015000C7020090C7020090C7020090C70200903B
:10016000C7020090C7020090C7020090C70200902B
:10017000C7020090C7020090C7020090C70200901B
:10018000C7020090C7020090C7020090C70200900B
:10019000C7020090C7020090C7020090C7020090FB
:1001A000C7020090C7020090C7020090C7020090EB
:1001B000C7020090C7020090C7020090C7020090DB
:1001C000C7020090C7020090C7020090C7020090CB
:1001D000C7020090C7020090C7020090C7020090BB
:1001E000C7020090C7020090C7020090C7020090AB
:1001F000C7020090C7020090C7020090C70200909B
:10020000C7020090C7020090C7020090C70200908A
:10021000C7020090C7020090C7020090C70200907A
:10022000C7020090C7020090C702009000000000C3
:10023000C7020090C702009000000000C7020090B3
:10024000C7020090C7020090C7020090C70200904A
:10025000C7020090C7020090C7020090C70200903A
:10026000C7020090C7020090C7020090C70200902A
:10027000C7020090C7020090C70200900000000073
:10028000C7020090C7020090C70200900000000063
:1002900000000000C7020090DFF80CD000F05CF80E
:1002A0000048004705500090F00C002406488047A5
:1002B00006480047FEE7FEE7FEE7FEE7FEE7FEE74B
:1002C000FEE7FEE7FEE7FEE7C544009099020090D6
:1002D000D2B201E000F8012B491EFBD27047002288
:1002E000F6E710B513460A4604461946FFF7F0FF35
:1002F000204610BD2DE9F05F0546002092469B4642
:1003000088460646814640241BE02846414647462B
:10031000224600F042F853465A46C01A914110D383
:1003200011461846224600F029F82D1A67EB0108FD
:100330004F4622460120002100F020F817EB00096B
:100340004E41201EA4F10104DFDC484631462A4616
:100350004346BDE8F09F0000064C074D06E0E0680C
:1003600040F0010394E8070098471034AC42F6D3FC
:10037000FFF796FF3404019054040190202A04DB17
:10038000203A00FA02F1002070479140C2F12003A8
:1003900020FA03F3194390407047202A04DB203AE7
:1003A00021FA02F00021704721FA02F3D040C2F195
:1003B00020029140084319467047FEE71F4B00207A
:1003C000F0B51968890311D4BFF34F8FBFF36F8F56
:1003D0001B490860BFF34F8FBFF36F8F196841F45B
:1003E00000311960BFF34F8FBFF36F8F1968C903D6
:1003F00023D4124970310860BFF34F8F081F43F6B2
:10040000FF7400680E4D1035C0F34E31C0F3C902C1
:1004100004EA4116104600BF46EA80772F60401E6E
:10042000FAD2491EF4D2BFF34F8F186840F48030DF
:100430001860BFF34F8FBFF36F8FF0BD14ED00E076
:1004400050EF00E070474FF4FA70014602F0BABD79
:1004500070B5044600F03EF90546601C02D0044821
:100460000078044400F036F9401BA042FAD370BD76
:10047000940000242DE9FC4F01257E4C00234FF011
:10048000030A4FF0B04E4FF00F0BEBE005FA03F606
:1004900037403A0077D04F68012F05D0022F03D0A4
:1004A000112F01D0122F1AD187684FEA4308D1F8D3
:1004B0000CC00AFA08F927EA09070CFA08FC4CEA0A
:1004C000070CC0F808C0476891F804C0B743CCF3E4
:1004D000001C0CFA03FC4CEA070CC0F804C0C66808
:1004E0004FEA430CD1F80880E1460AFA0CF7BE4304
:1004F000019708FA09F848EA0608C0F80C804E6827
:10050000022E01D0122E12D1DE084FEA437C00EBFE
:10051000860600960F69366A4FEADC6C0BFA0CF817
:1005200007FA0CF726EA08063743009E37620E7971
:100530000768DDF804C006F0030606FA09F627EAA4
:100540000C073E4306604E68F6001CD54A4E3768DD
:1005500047F00207376036689F0706F002060096EC
:1005600023F0030606F1B046B1463F0FD6F8086403
:10057000DFF808810BFA07FC404526EA0C0603D198
:100580004FF0000C41E06CE0DFF8F4C0604502D1B0
:100590004FF0010C39E0DFF8ECC0604502D14FF0BC
:1005A000020C32E0DFF8E0C0604502D14FF0030CEE
:1005B0002BE0DFF8D8C0604502D14FF0040C24E0F6
:1005C000DFF8CCC0604502D14FF0050C1DE0DFF82C
:1005D000C4C0604502D14FF0060C16E0DFF8B8C089
:1005E000604502D14FF0070C0FE0DFF8B0C0604566
:1005F00002D14FF0080C08E0DFF8A4C0604502D13A
:100600004FF0090C01E04FF00A0C0CFA07FC4CEA21
:10061000060CC9F808C426684F6826EA0206FF03DC
:1006200000D51643266066684F6826EA0206BF03B7
:1006300000D516436660D1F804C07646DEF8007037
:100640005FEACC2C27EA020700D517433760D1F8C0
:1006500004C077685FEA8C2C27EA020700D51743AD
:1006600077605B1C0A681746DA407FF40FAFBDE87D
:10067000FC8F000080000058F4440258000002582B
:100680000004025800080258000C025800100258DA
:100690000014025800180258001C0258002002588A
:1006A000002402580069084000D0012070470AB1B8
:1006B000816170470904FBE702480068C0F30B0042
:1006C000704700000010005C01480068000C704793
:1006D0000010005C0148806870470000940000240E
:1006E00002488168027811448160704794000024B8
:1006F000032010B500F0C6F800F0A0FE0F4A104924
:1007000014681368C4F3032203F00F038A5CC95C06
:1007100002F01F0201F01F01D0400A4A20FA01F145
:10072000116009490860002000F010F808B10120AC
:1007300010BD00F079F8002010BD000018440258E8
:1007400023040190A4000024A000002470B50D4DE6
:1007500004462878A0B14FF47A71B1FBF0F00A4951
:100760000968B1FBF0F001F0C6FF48B9102C07D2C0
:1007700000222146501E00F065F800206C6070BD1C
:10078000012070BD94000024A0000024F0B5154C99
:100790004378211D0A1D23600378F3B143680B6081
:1007A000057BC67A817A437B2D07847B45EA066503
:1007B000C77B90F809C0067A90F800E045EAC1408E
:1007C00040EA834040EA444040EA074040EA0C20C7
:1007D00040EA460040EA0E0001E000200860106098
:1007E000F0BD000098ED00E0BFF35F8F04480021EA
:1007F0000368034A23F4803303607032116070474A
:1008000024ED00E0074A40F0010006497032106014
:10081000086840F480300860BFF34F8FBFF36F8FDC
:100820007047000024ED00E0054808B5016841F07C
:1008300002010160006800F00200009008BD0000A5
:10084000F44402580E4BF0B41B680D46C3F3022368
:10085000C3F10706042E00D90426191D072901D269
:10086000002300E0DB1E012404FA06F19C40491E2F
:100870002940641E994014402143F0BC04F07EB826
:100880000CED00E0064900F0070210B54FF6FF043A
:100890000868044B204040EA02201843086010BD5D
:1008A0000CED00E00000FA05134970B50A68D24368
:1008B000520705D5096801F00701814213D118E0FC
:1008C0000A6822F0070202430A60FFF703FF0A4D9D
:1008D0004FF47A760446083D07E000BFFFF7FAFEC2
:1008E000001BB04201D9012070BD2868C0438004BC
:1008F000F4D4002070BD00000C4802580248016882
:1009000041F4807101607047004802582DE9FC5F96
:10091000044650F8241B002500902E460801FE4F87
:10092000DFF8F8831DD5606E50B1B0F5801F0CD094
:10093000B0F5001F0ED0B0F5401F1DD001250FE00F
:10094000386840F40030386016E00221201D02F0C3
:10095000FFFC03E00098022102F08AFD05000BD0A5
:100960002E462088C00523D5606D05281ED2DFE8FD
:1009700000F00C11161B1B00626ED8F8001021F459
:1009800040111143C8F80010EBE7386840F400301C
:10099000386009E00021201D02F0DAFC03E0009835
:1009A000002102F065FD05466DB100E001252E46EF
:1009B0002088800528D5A06D80281ED00CDC90B141
:1009C00040280ED114E0626DD8F8001021F0070124
:1009D0001143C8F80010EBE7C02813D0B0F5807FB2
:1009E00010D001250FE0386840F40030386009E08D
:1009F0000021201D02F0ACFC03E00098002102F071
:100A000037FD054695B12E462088DFF81093400546
:100A100009F108092CD5D4F8A400B0F5800F20D036
:100A20000DDCA0B1B0F5001F0FD115E0A26DD8F814
:100A3000001021F4E0711143C8F80010E4E7B0F5AC
:100A4000C00F13D0B0F5000F10D001250FE03868AB
:100A500040F40030386009E00021201D02F078FCED
:100A600003E00098002102F003FD054675B12E4613
:100A7000208800052DD5D4F8A800B0F1007F21D042
:100A80000EDCA8B1B0F1807F10D116E0D4F8A4201C
:100A9000D9F8001021F460011143C9F80010E7E70C
:100AA000B0F1407F13D0B0F1806F10D001250FE07E
:100AB000386840F40030386009E00021201D02F061
:100AC00047FC03E00098002102F0D2FC05466DB11E
:100AD0002E46206880011FD5A06CD8B110280FD0F9
:100AE000202812D0302815D0012514E0D4F8A820F1
:100AF000D9F8001021F0E0611143C9F80010E8E7CF
:100B0000386840F40030386004E00221201D02F013
:100B10001FFC05466DB12E462088C0042BD5E06D24
:100B2000B0F5005F20D00DDCA0B1B0F5805F0FD133
:100B300015E07A48A26C001F016821F030011143D2
:100B40000160E9E7B0F5405F13D0B0F5804F10D0F9
:100B500001250FE0386840F40030386009E00021DA
:100B6000201D02F0F5FB03E00098002102F080FC5C
:100B7000054685B12E462088800429D5206EB0F523
:100B8000403F23D010DC08B3B0F5803F14D0B0F55F
:100B9000003F0FD115E0E26DD8F8001021F4E041DC
:100BA0001143C8F80010E6E7B0F5802F0ED0B0F57D
:100BB000A02F0BD001250AE00121201D02F0C8FB67
:100BC00003E00098012102F053FC05468DB12E464A
:100BD000208840042AD5D4F8AC00B0F1405F23D07F
:100BE00010DC08B3B0F1805F14D0B0F1005F0FD11A
:100BF00015E0226ED8F8001021F4E0211143C8F866
:100C00000010E5E7B0F1804F0ED0B0F1A04F0BD04F
:100C100001250AE00121201D02F09AFB03E0009863
:100C2000012102F025FC05466DB12E462088000406
:100C30001FD5E06ED8B1B0F1805F0ED0B0F1005F8B
:100C400010D0012514E0D4F8AC20D9F8001021F020
:100C5000E0411143C9F80010E8E7386840F400307B
:100C6000386004E00121201D02F072FB05466DB1E1
:100C70002E462068C0011ED5606CD0B101280ED070
:100C8000022811D0032814D0012513E0E26ED8F811
:100C9000001021F040511143C8F80010E9E738680E
:100CA00040F40030386004E00221201D02F050FBC7
:100CB000054685B12E462068DFF85CB04002ABF1F6
:100CC0001C0B57D51648016841F480710160FFF78D
:100CD00001FD82460EE01148626C001F016821F0A0
:100CE000030111430160E6E7FFF7F4FCA0EB0A0003
:100CF00064283DD80A480068C005F5D57DBBDFF8FB
:100D00001CA0B4F8B0200AF1200ADAF8001002F4AE
:100D1000407001F4407105E02C44025850440258E0
:100D200000480258814211D0DAF80010DAF80020A9
:100D300021F4407142F48032CAF80020DAF8002031
:100D400022F48032CAF80020CAF80010D4F8B000AB
:100D5000B0F5807F21D1FFF7BDFC019019E008E0DC
:100D6000FFF7B8FC0199411A41F28830814210D94D
:100D700003252E462078DFF844A4C0073DD0A06F9D
:100D8000182838D026DC80B3082829D0102825D18F
:100D90002CE0DAF800008007E2D5D4F8B010C1F3F7
:100DA0000120032858460DD0016821F47C510160D0
:100DB000B4F8B020DAF80010C2F30B021143CAF8FD
:100DC0000010D7E7FE4A036802EA111223F47C51AF
:100DD0001143ECE720280ED028280CD001250BE089
:100DE0000121201D02F0B4FA04E004E00098012182
:100DF00002F03EFB05465DB12E46207880071ED5E9
:100E0000606F062819D2DFE800F0160C11161616CE
:100E1000A26FDAF8001021F038011143CAF800106F
:100E2000EBE70121201D02F093FA03E00098012175
:100E300002F01EFB054675B100E001252E46207824
:100E400040071FD5D4F89000062819D2DFE800F03B
:100E5000160C11161616626FDAF8001021F0070151
:100E60001143CAF80010EAE70121201D02F070FAD0
:100E700003E00098012102F0FBFA05469DB100E075
:100E800001252E46207880062BD5D4F88C00B0F1B1
:100E9000405F24D011DC10B3B0F1805F15D0B0F109
:100EA000005F10D116E0D4F89020D9F8001021F09E
:100EB00007011143C9F80010E4E7B0F1804F0ED0EC
:100EC000B0F1A04F0BD001250AE00021201D02F057
:100ED0003FFA03E00098022102F0CAFA05468DB1FC
:100EE0002E46207840062BD5D4F89800B0F5406FF8
:100EF00024D011DC10B3B0F5806F15D0B0F5006FC1
:100F000010D116E0D4F88C20DAF8001021F0E0417E
:100F10001143CAF80010E4E7B0F5805F0ED0B0F5D9
:100F2000A05F0BD001250AE00021201D02F010FA7D
:100F300003E00098022102F09BFA05468DB12E468F
:100F4000207800062BD5D4F89C00B0F5C04F24D0F3
:100F500011DC10B3B0F5005F15D0B0F5804F10D1A3
:100F600016E0D4F89820D9F8001021F4E05111438C
:100F7000C9F80010E4E7B0F5004F0ED0B0F5204FEF
:100F80000BD001250AE00021201D02F0E1F903E069
:100F90000098022102F06CFA05464DB12E462078E9
:100FA00000071ED5D4F88000B0F5805F0AD00FE0AE
:100FB000D4F89C20D9F8001021F460411143C9F8FD
:100FC0000010ECE70098022102F052FA00B101266D
:100FD000D4F88020DAF8001021F440511143CAF807
:100FE00000102078C00613D5D4F89400B0F5807FA7
:100FF00005D10098022102F03BFA00B10126D4F895
:101000009420D9F8001021F440711143C9F8001060
:101010002068000316D5D4F8A00038B1B0F5803FA1
:1010200009D0B0F5003F0BD001250AE00021201DBA
:1010300002F08EF903E00098022102F019FA054649
:1010400085B12E462068400322D5D4F88400B0F53F
:10105000801F11D0B0F5001F13D0B0F5401F15D080
:10106000012514E0D4F8A020D9F8001021F4403173
:101070001143C9F80010E5E7386840F400303860E3
:1010800004E00098012102F0F3F9054655B12E461F
:101090002068C0031CD5E06C70B1B0F5803F10D063
:1010A000012514E0D4F88420DAF8001021F440116E
:1010B0001143CAF80010EBE7386840F4003038609C
:1010C00004E00221201D02F043F90546CDB12E4671
:1010D0002068800005D50098022102F0C9F900B10E
:1010E0000126206880031BD5E06FB8B1B0F5807F82
:1010F00010D0B0F5007F11D0B0F5407F0ED00125A3
:101100000DE02E48E26C0838016821F4803111436B
:101110000160DDE7386840F400303860F5B32E46F2
:101120002068C00207D5226FD8F8001021F00041D6
:101130001143C8F800102068C00008D5D4F8B420C6
:10114000DBF8001021F480411143CBF80010206837
:10115000800207D5A26ED8F8001021F080711143EB
:10116000C8F80010206840000CD5DBF8001021F40E
:101170000041CBF80010DBF80010D4F8B820114380
:10118000CBF800102068002807DA0C48226D0838D8
:10119000016821F040511143016000E014E0206833
:1011A000000208D5D4F88820DAF8001021F44001B4
:1011B0001143CAF8001086B1012003E054440258DC
:1011C000CFFFFF00BDE8FC9FE26FDAF8001021F4CA
:1011D00040711143CAF80010A2E70020EDE70000BB
:1011E0002DE9F05F04000F467ED0DFF83882D8F892
:1011F000000000F00F00B8420CD2D8F8001021F027
:101200000F013943C8F80010D8F8000000F00F00B3
:10121000B84269D12078844D40070AD520692968F1
:1012200001F07001884204D9296821F0700101435E
:10123000296020787C4E361D00070AD56069316828
:1012400001F07001884204D9316821F07001014336
:1012500031602078C0060AD5A069316801F4E061E8
:10126000884204D9316821F4E0610143316020787B
:10127000DFF8B4B180060BF1080B0CD5E1695846D4
:10128000DBF8002002F07002914204D9026822F0DB
:1012900070020A430260207880070AD5E068296856
:1012A00001F00F01884204D9296821F00F010143A0
:1012B00029602078C0073ED05B49A26828681839A9
:1012C00020F47060104328606068022818D003285A
:1012D00019D00968012819D0490700294ADADFF82E
:1012E00048A1AAF1080A00E044E0DAF8002022F060
:1012F00007020243CAF80020FFF7ECF9814612E02A
:1013000009688903E9E709688901E6E7C905E4E7AF
:10131000FFF7E0F9A0EB090141F28830814202D9E0
:101320000320BDE8F09F6168DAF8000000F03800A3
:10133000B0EBC10FECD1207880070AD5E0682968AE
:1013400001F00F01884204D2296821F00F01014306
:101350002960D8F80010404601F00F01B9420BD9BE
:10136000016821F00F0139430160006800F00F00AF
:10137000B84201D00120D4E7207840070AD520697F
:10138000296801F07001884204D2296821F07001B7
:1013900001432960207800070AD56069316801F0AF
:1013A0007001884204D2316821F07001014331603C
:1013B0002078C0060AD5A069316801F4E06188424E
:1013C00004D2316821F4E061014331602078800665
:1013D0000CD5E1695846DBF8002002F0700291421A
:1013E00004D2026822F070020A43026000F026F87C
:1013F0000E492A682B68C2F3032203F00F038A5CAC
:10140000C95C02F01F0201F01F01D040084A20FA17
:1014100001F111600749086007480068BDE8F05F06
:10142000FFF794B900200052184402582304019099
:10143000A4000024A000002498000024454970B5B1
:1014400045480968434B103B11F0380208D00111A0
:10145000082A03D0102A0BD0182A0BD0084670BDDA
:1014600019688906FBD51968C1F3C101C84070BD70
:101470003A4870BD3749374D18310C1D24350A687C
:10148000096826682D6802F0030406F00102C1F322
:101490000511C5F3CC0515FB02F200EE102AB8EEDB
:1014A000400AE9B32F4ADFED2E0AB7EE001A6CB1FD
:1014B000DFED2D1A012C01D0022C43D002EE101AC0
:1014C0001068F8EE422A81EEA22A1EE01C68A406EB
:1014D00011D51B6801EE901A1168C3F3C103F8EE31
:1014E000612AD84001EE900AC1F30800F8EE611AB3
:1014F00081EEA22A0BE001EE901ADFED1C2A00BF5C
:10150000F8EE611A106882EEA12AC0F3080001EE1D
:10151000900AF8EE611A40EE201A31EE810A00E0DE
:1015200015E022EE000A1068C0F34620401C00EED1
:10153000900AF8EE600A80EE201ABCEEC10A10EEA6
:10154000100A70BD01EE901ADFED092AD8E70020DD
:1015500070BD0000104402580090D00340787D0117
:1015600000000039304402580024744A0024744CAE
:1015700020BCBE4B2DE9F05F04007CD0FF4F2078EB
:10158000FE4D1837DFF8F493103DC00748D0D9F866
:101590000000396800F03800102815D0182803D151
:1015A00001F0030002280FD06068B0F5803F12D030
:1015B00010B1B0F5A02F18D0286820F48030286032
:1015C000286820F4802009E02868800328D5606816
:1015D0000028D2D024E0286840F480302860606879
:1015E00088B1FFF777F8064609E0286840F48020C4
:1015F0002860F0E7FFF76EF8801B64287ED8286823
:101600008003F7D50CE0FFF765F8064605E000BF5C
:10161000FFF760F8801B6428F0D828688003F7D4AF
:10162000207841F20308D54E0C3E800753D5D9F8F7
:101630000000396810F038000ED0182801D1880752
:101640000AD0E068A8B3296821F019010143296094
:10165000FFF740F882461BE02868400702D5E068A3
:1016600000288AD0FFF730F840451BD82069402871
:1016700012D0316800E0CCE021F47C3141EA003046
:10168000306028E0FFF726F8A0EB0A000228B5D862
:1016900028684007F6D5E5E7306820F47C3040F450
:1016A0000030EDE7207C316821F0FE4141EA006026
:1016B000E6E7FFE7286820F001002860FFF70AF856
:1016C000824605E0FFF706F8A0EB0A00022895D84D
:1016D00028684007F6D42078C0065FD5D9F8000006
:1016E000DFF898B2396800F03800ABF1040B082835
:1016F00012D0182805D101F0030000E0EAE001282B
:101700000AD0E0690028286838D040F080002860BE
:10171000FEF7E0FF824623E02868C00523D5E06994
:10172000802876D11FE0206A202821D0316821F05E
:10173000F84141EA8060306030E000BF94F820104A
:10174000DBF8002022F07C5242EA0161CBF8001065
:1017500024E000BFFEF7BEFFA0EB0A00022896D8E7
:101760002868C005F6D5FEF7AFFF4045E6D8DAE7B2
:10177000306820F0F84040F08040DCE720F0800046
:101780002860FEF7A7FF064605E000BFFEF7A2FFB0
:10179000801B02289BD82868C005F7D42078000752
:1017A00029D576486169643000298046016811D0E6
:1017B00041F001010160FEF78DFF064605E000BF24
:1017C000FEF788FF801B0228C9D8D8F800008007E0
:1017D000F6D510E021F001010160FEF77BFF06461F
:1017E00005E000BFFEF776FF801B022872D8D8F80C
:1017F00000008007F6D42078800623D5A069002851
:10180000286810D040F480502860FEF763FF064639
:1018100005E02CE1FEF75EFF801B02285AD82868FD
:101820008004F7D50EE020F480502860FEF752FFC8
:10183000064604E0FEF74EFF801B02284AD82868BF
:101840008004F7D4207840074FD5DFF83481D8F8EA
:10185000001041F48071C8F80010FEF73BFF064607
:1018600005E000BFFEF736FF801B642832D8D8F8A9
:101870000000C005F6D5414EA068603601280AD0A8
:1018800008B1052813D0306820F0010030603068BE
:1018900020F0040002E0306840F001003060A068F1
:1018A00041F2883A90B1FEF715FF80460AE03068B1
:1018B00040F004003060EEE7FEF70CFFA0EB0801FB
:1018C000514507D830688007F6D50EE0FEF702FFD5
:1018D000804607E084E000BFFEF7FCFEA0EB0801B5
:1018E00051457DD830688007F6D4606AF0B3DFF8E0
:1018F0008C80D9F8001008F12008C1F3C201032937
:101900006FD00228286820F08070286003D0FEF78E
:10191000E1FE044680E0FEF7DDFE064605E000BF7E
:10192000FEF7D8FE801B022873D828688001F7D400
:10193000E26A40F2F331386854F8283F884340EABD
:10194000021018433860217B4FF4FE0C22894FF0BF
:10195000FE47208A4902267D521E401EA1F50071D5
:1019600089B20CEA0040C2F3080200E081E01143B2
:10197000761E0143014807EA066203E0104402585C
:10198000004802581C3011433B4AC8F80010016857
:1019900021F00101016011684FF6F876236AB14326
:1019A00041EAC30111600168A26921F00C011143F1
:1019B00001600168E26921F00201114301600168E0
:1019C00041F480310160016841F400310160016837
:1019D00041F480210160016841F00101016001E0F2
:1019E00017E01DE0286840F080702860FEF772FE66
:1019F000044604E0FEF76EFE001B022809D82868A2
:101A00008001F7D535E000BFFEF764FE001B022819
:101A100002D90320BDE8F09F28688001F4D428E0B3
:101A200039680128D8F8000021D0A26A01F0030328
:101A300093421CD1E26AC1F305118A4217D1216B8E
:101A4000C0F30802491E8A4211D1616BC0F34622DD
:101A5000491E91420BD1A16BC0F30642491E91422F
:101A600005D1E16BC0F30660491E814201D001201F
:101A7000D0E70020CEE70000344402580068503020
:101A800050F8210070470068503040F8212070471E
:101A900010B50B4601680F48002A496801EA0001A9
:101AA00001F03F044FEA1140D870C1F304225A708C
:101AB0009C70C1F3423119700AD101F069FDD870F0
:101AC000587801F065FD5870987801F061FD9870C4
:101AD000002010BD3FFFFF0010B50B460168134CFE
:101AE000002A896A596001680969C1F30E01996089
:101AF0000068016801EA040101F07F04C1F30540B8
:101B00001870C1F306225A709C704FEA9151D97037
:101B10000AD101F03DFD1870587801F039FD587078
:101B2000987801F035FD9870002010BD7F7F7F0010
:101B300070B504004FF0010041D094F8210028B99D
:101B4000002084F82000204600F03CF8022184F8B0
:101B50002110CA2022685321506220684162204629
:101B600001F02CFD18BB2068154A81681140816086
:101B7000D4E90013A569226988682A4318431043F1
:101B8000886022682189E06840EA014010612046AF
:101B900001F036FD58B92168CA6C22F00302CA640C
:101BA00022686369E169D56C19432943D1642268CD
:101BB000FF215162002802D1012184F8211070BD5B
:101BC000BFFF8FFF10B5B0B00446BC216846FEF7DA
:101BD00086FB0A49206888420ED1000200908113DA
:101BE00068462C91FEF792FE08B1FEF72CFC0448E3
:101BF000016841F40041016030B010BD0040005860
:101C00007044025870B5044690F820000B46012835
:101C10001BD0012684F82060022084F82100587827
:101C2000AAB1DA78000299781B7841EA024540EAC5
:101C3000433005432268CA2153205162216848621B
:101C4000204601F0BBFCC8B11FE0022070BDC106F8
:101C500003D500F0EF000A305870D87801F0A1FCED
:101C60000204587801F09DFC42EA0022987801F0C5
:101C700098FC1978024342EA4135DBE721680848BD
:101C800005404D60204601F0BBFC2268FF215162F7
:101C900008B984F82160002184F8201070BD00008C
:101CA0003FFFFF002DE9F041044690F820009046E8
:101CB0000D46012812D0012784F82070022184F8F3
:101CC0002110CA20226853215062206841622046B8
:101CD00001F074FC4FF0000618B12AE00220BDE8C4
:101CE000F0812068B8F1000F80684FEA406025D08D
:101CF000002800DBEE7068782A78A978EB784FEA44
:101D0000002C41EA02404CEA8351084322681849FA
:101D1000084010602068816821F48021816021687A
:101D2000D5E903028B68104318438860204601F010
:101D300067FC2268FF215162A0B115E0002800DB9A
:101D4000EE70287801F02DFC0204687801F029FC7F
:101D500042EA0022A87801F024FCE978024342EA32
:101D60008150D3E784F8217084F82060B7E7000041
:101D70007F7F7F0070B504460068C16821F0A00134
:101D8000C160FEF7A7FC4FF47A76054607E000BF76
:101D9000FEF7A0FC401BB04201D9032070BD2068B3
:101DA000C0688006F4D5002070BD00002DE9F04722
:101DB000040029D04E4D4FF0000920684D4B4E4A8B
:101DC000A842C4F8289006D0984204D0904202D08D
:101DD000E1680F2918D8E1684FF0010AE76B083174
:101DE000C9080AEB57167143A84205D0984203D0A0
:101DF000904201D0082907D8A84203D0984201D0C8
:101E0000904204D1102902D90120BDE8F08794F84E
:101E1000810020B9204684F8809000F06FF80220FD
:101E200084F881002068016821F001010160A06947
:101E3000B0F1806F11D16068B0F5800F01D018B19A
:101E40000BE0A06B20B108E0A06BB0F1805F04D183
:101E50002068016841F480510160A56AE069236847
:101E6000E16B2843E268084310439860D4E90D020F
:101E7000D4E90571636A25691843D4F820C00A4380
:101E8000266810432843A56D3843D4E90182D4E97C
:101E9000123140EA0C0040EA08000843104318439E
:101EA0002843F060606868B92068816821F4C051F7
:101EB00041F4006181602068816821F4C06141F4CF
:101EC000806181602068016D21F001010165606819
:101ED000400206D52068626DC16821F000411143BF
:101EE000C160C4F8849084F881A000208DE70000D0
:101EF0000030014000380040003C004010B5B6B052
:101F0000044614212FA8FEF7EAF9BC216846FEF723
:101F1000E6F918492068884229D14014009000242D
:101F200068461894FEF7F2FC08B1FEF78CFA1248E6
:101F3000016841F400510160006800F400503490E1
:101F40000D481038016841F0100101600068052259
:101F50004FF4A041319400F0100034900220CDE9FC
:101F60002F10CDE9320205482FA9FEF783FA36B0CB
:101F700010BD000000340140F04402580010025827
:101F80002DE9F84F0F46416804461D4600201646CD
:101F9000B1F5800F4FF0040B009001D1A06888B11B
:101FA00094F88000012818D04FF0010984F880903F
:101FB000FEF790FB94F881108246002001290ED094
:101FC000022125E084F881B02046009313463A466A
:101FD000114600F0FFF9BDE8F88F0220FBE7B7B12A
:101FE000AEB1A26880466766A4F8686084F881B0E4
:101FF000C4F88400A4F86A60E065A4F86000A4F85E
:102000006200B2F5C02F2067606705D009E00121AA
:1020100084F880000846DEE72068016821F400614A
:102020000160206841686FF30F013143416020680F
:10203000016841F0010101606068B0F5800F04D1D2
:102040002068016841F400710160E0680F282ED912
:1020500048F20806B4F86A00002858D020684169A0
:1020600031420BD0006B616E0860606E001D6066CF
:10207000B4F86A00401EA4F86A00EBE7FEF72AFBFA
:10208000A0EB0A00A84202D3681CE3D001E0002DB7
:10209000E0D1204601F0DEFAD4F8842084F8808074
:1020A00042F48071C4F8841084F8819078E00728A5
:1020B00029D867E02068416911F4604F18D0416960
:1020C000090409D5006B616E0860606E001D6066D2
:1020D000B4F86A00801E08E0008E616E0880606EB1
:1020E000801C6066B4F86A00401EA4F86A000AE02A
:1020F000FEF7F0FAA0EB0A00A84202D3681C02D057
:10210000C7E7002DC5D0B4F86A000028D2D13DE061
:102110002068416911F4604F29D04169090409D54B
:10212000006B616E0860606E001D6066B4F86A0046
:10213000001F19E0416901F4C041B1F5005F09D900
:10214000008E616E0880606E801C6066B4F86A0064
:10215000801E09E090F83000616E0870606E401CCF
:102160006066B4F86A00401EA4F86A000AE0FEF750
:10217000B1FAA0EB0A00A84202D3681C02D088E79B
:10218000002D86D0B4F86A000028C1D1204601F0A5
:1021900061FA84F88190D4F8841084F8808009B1C1
:1021A000012018E7009816E72DE9F84F8A4690F8C5
:1021B00080101D461746012904464FF0000B0DD034
:1021C0004FF0010884F88080FEF784FA814694F885
:1021D00081000026012804D002201EE00220BDE874
:1021E000F88FBAF1000F17D0B7B1A1680320C4F877
:1021F0005CA0A4F8607084F88100C4F88460A4F83E
:1022000062706666A4F86860A4F86A60B1F5C02FD1
:102210006667266704D008E0012084F88060DEE766
:102220002068016841F400610160206841686FF333
:102230000F01394341602068016841F001010160EC
:102240006068B0F5800F04D12068016841F4007126
:102250000160E0680F281AD82CE0206841698907DE
:102260000BD5E16D09680162E06D001DE065B4F811
:102270006200401EA4F8620009E0FEF72BFAA0EB12
:102280000900A84202D3681C01D005E025B1B4F8CA
:1022900062000028E1D181E0204601F0DBF9D4F8AA
:1022A000841084F8806041F48071C4F8841084F84C
:1022B00081808BE007282BD86CE020684169890772
:1022C0001BD5B4F8621001290BD9E16B49B1E16D5E
:1022D00009680162E06D001DE065B4F86200801ECF
:1022E00008E0E16D09880184E06D801CE065B4F8C8
:1022F0006200401EA4F862000AE0FEF7EBF9A0EBD2
:102300000900A84202D3681C02D0C5E7002DC3D043
:10231000B4F862000028D0D140E020684169890704
:102320002DD5B4F8621003290CD9E16B402909D9E5
:10233000E16D09680162E06D001DE065B4F86200BE
:10234000001F19E0B4F8621001290BD9E16B49B103
:10235000E16D09880184E06D801CE065B4F86200DD
:10236000801E09E0E16D097880F82010E06D401CC6
:10237000E065B4F86200401EA4F862000AE0FEF7CF
:10238000A9F9A0EB0900A84202D3681C02D083E798
:10239000002D81D0B4F862000028BED100224B4647
:1023A00008212046009501F0B3F928B1D4F8840043
:1023B00040F02000C4F88400204601F04BF984F876
:1023C0008180D4F8840084F8806008B1012006E799
:1023D000584604E72DE9FF4F83B090F8801004467B
:1023E0001D4600209346109F0129019014D04FF004
:1023F000010A84F880A0FEF76DF9804694F8810008
:102400006368002101282E464FF480020CD09342CD
:1024100008D1A36833B903E0022007B0BDE8F08F0C
:10242000042801D0022037E0049898B3BBF1000FD4
:1024300031D07DB394F88100042802D0052084F8BF
:10244000810089460846C4F88410C4F864B0A4F832
:102450006A50A4F868500499E165A4F86250A4F8A1
:10246000605020676067206841686FF30F0129435F
:1024700041602068016841F001010160606890429C
:1024800004D12068016841F400710160E0680F2800
:1024900035D846E0FFE7012084F88010BDE72068CA
:1024A000416989070DD565B1E16D09680162E06D8B
:1024B000001DE065B4F86200401EA4F86200B4F8A4
:1024C000625048F208022068416911420DD066B19D
:1024D000006B616E0860606E001D6066B4F86A0093
:1024E000401EA4F86A00B4F86A60FEF7F3F8A0EBA7
:1024F0000800B84202D3781C01D004E01FB155EAAD
:102500000600CCD1DBE0204601F0A4F8D4F884200A
:1025100084F8809042F48071C4F8841084F881A01B
:10252000E5E007284AD8C7E02068416989071BD53C
:10253000D5B1012D0BD9E16B49B1E16D096801629B
:10254000E06D001DE065B4F86200801E08E0E16DFA
:1025500009880184E06D801CE065B4F86200401ECB
:10256000A4F86200B4F862502068416911F4604F29
:102570001AD0CEB14169090409D5006B616E0860BB
:10258000606E001D6066B4F86A00801E08E0008E70
:10259000616E0880606E801C6066B4F86A00401E40
:1025A000A4F86A00B4F86A60FEF794F8A0EB08009B
:1025B000B84202D3781C01D004E01FB155EA0600EE
:1025C000B2D17CE0204601F045F8D4F8842084F8AC
:1025D000809042F48070C4F8840084F881A086E082
:1025E0002068416989072BD555B3032D0CD9E16BC0
:1025F00040290BD9E16D09680162E06D001DE065BD
:10260000B4F86200001F17E0012D0BD9E16B49B14E
:10261000E16D09880184E06D801CE065B4F862001A
:10262000801E09E0E16D097880F82010E06D401C03
:10263000E065B4F86200401EA4F86200B4F862508D
:102640002068416911F4604F2BD056B341690904E9
:1026500009D5006B616E0860606E001D6066B4F89D
:102660006A00001F19E0416901F4C041B1F5005F43
:1026700009D9008E616E0880606E801C6066B4F8B7
:102680006A00801E09E090F83000616E0870606E8C
:10269000401C6066B4F86A00401EA4F86A00B4F8F2
:1026A0006A60FEF717F8A0EB0800B84202D3781C66
:1026B00002D028E7002FFCD055EA060090D1002276
:1026C000434608212046009701F022F828B1D4F8AB
:1026D000840040F02000C4F88400204600F0BAFFD7
:1026E00084F881A0D4F8841084F8809009B1012086
:1026F00093E6019891E6401EB0F1807F10B501D3BA
:10270000012010BD4FF0E02460610F21601702F03E
:1027100035F90020A0610721216110BD2DE9F043AA
:1027200090F83C20012A42D0012280F83C2051F848
:102730000C4BDFF880804FF0000991E8680051E908
:10274000022723F44073B1F80CC03B43CF6923F454
:1027500080631343026823F40063234323F480530C
:1027600043EA050323F4005343EA060323F48043BA
:1027700043EA07030C3923F47023424543EA0C4330
:1027800002D00D4CA2420CD18D8C23F47006D1E9FD
:10279000073446EA055121F08071194321F0007396
:1027A0002343536480F83C900020BDE8F08302206E
:1027B000FBE700000000014000040140F0B590F884
:1027C0003C20012A38D01D4E012480F83C400222D2
:1027D00080F83D2002681A4D5368B242D2F808C012
:1027E00001D0AA4203D14F6823F470033B430F6822
:1027F00023F070031F4357600268B24210D0B2F159
:10280000804F0DD00F4B9A420AD00F4B9A4207D0FF
:102810000E4B9A4204D0AA4202D00D4B9A4204D1E8
:1028200089682CF0800319439160002180F83D40B5
:1028300080F83C100846F0BD0220F0BD00000140C9
:10284000000401400004004000080040000C00406B
:102850000018004010B504464FF0020249B10429A7
:102860000ED0082913D094F84700012816D0012073
:1028700010BD94F844000128F9D184F844200FE0F9
:1028800094F845000128F2D184F8452008E094F836
:1028900046000128EBD184F8462001E084F8472067
:1028A0000422206801F0BEFE20681449426C42F404
:1028B000004242642068884211D0B0F1804F0ED0AF
:1028C0000F4988420BD00F49884208D00E498842F0
:1028D00005D00E49884202D00D49884207D181684F
:1028E0000C4A1140062906D0B1F5803F03D001689B
:1028F00041F001010160002010BD00000000014016
:102900000004004000080040000C004000040140AA
:10291000001800400700010010B586B004461421DD
:102920006846FDF7DCFC0E492068884216D10D4848
:10293000016841F01001016000680123022200F0EB
:102940001000059000204FF4806100916946CDE9A8
:102950000120CDE903030448FDF78CFD06B010BD4E
:1029600000000140E04402580010025870B50446CF
:1029700090F83C000D4601280BD0012084F83C0063
:102980000C2A45D007DC5AB1042A1BD0082A78D17A
:102990002CE0022070BD102A4ED0142A71D15DE0C7
:1029A000206801F04DFE2068816941F008018161D5
:1029B0002068816921F00401816120682A698169A8
:1029C000114311E0206801F08FFE2068816941F415
:1029D000006181612068816921F4806181612068E2
:1029E0002969826942EA012181614AE0206801F097
:1029F000C7FE2068C16941F00801C1612068C16952
:102A000021F00401C16120682A69C169114311E004
:102A1000206801F0FBFE2068C16941F40061C161DA
:102A20002068C16921F48061C16120682969C26997
:102A300042EA0121C16124E0206801F01DFF206805
:102A4000416D41F0080141652068416D21F00401AC
:102A5000416520682A69416D114311E0206801F049
:102A600041FF2068416D41F4006141652068416D7E
:102A700021F48061416520682969426D42EA0121A3
:102A80004165002084F83C0070BD10B5040003D0FF
:102A900094F83D0010B107E0012010BD002084F83B
:102AA0003C00204600F022F8022084F83D00206817
:102AB000211D01F055FD012084F8480084F83E00F6
:102AC00084F83F0084F8400084F8410084F8420014
:102AD00084F8430084F8440084F8450084F84600F4
:102AE00084F8470084F83D00002010BD08B5006858
:102AF0000649884208D10648016841F00101016099
:102B0000006800F00100009008BD000000000140D6
:102B1000F0440258FEE7000001480068806B7047EF
:102B2000A40600242DE9F0410D4601462DED028B4F
:102B3000FFF7F2FF8842044631D0002D2FD001EE7E
:102B4000904A01EE101A00EE905AF8EE611AB8EEB3
:102B5000411AB8EE602A9FED140A71EEC10A30EEF8
:102B6000420A80EE808AFDF7B5FD104F064601202F
:102B7000FDF76EFCFDF7AEFD801B3A6800EE904A53
:102B800000EE100AF8EE600AB8EE400A40EE080ABD
:102B9000BCEEE00A10EE101A9163A842E7D3BDEC38
:102BA000028BBDE8F081000000000000A4060024B4
:102BB0002DE9FF4F85B01D460C2B90460C468946EB
:102BC000059804906348DDF848B0068819D00827B6
:102BD00015FB07F0400002F07FFA03A982465E4829
:102BE00000F0C2FF5C4802A900F0C6FFA8F1200176
:102BF0004FF00000C9B20791BBF1000F014602D0AF
:102C000097E00627E4E7DFF84CE149E00C2D0ED011
:102C1000079B524A02EB0312002321F0010B525C86
:102C2000009313060AD573BAAEF800300CE0079A89
:102C300002EB42034A4A02EB8302EDE7BEF802C010
:102C40009CFA9CFCAEF800C007FB00F3401CBEF8E9
:102C500000C080B20AEB4303A84223F80BC000D3A4
:102C60000020029B5206641CA4B2120E9C4202D3A6
:102C7000AEF8006047E0A4EB0903AB4208D1059A27
:102C80004C46039B521C92B205929A42F0D205E048
:102C9000009B5B1CDBB20093082BC2D3491CC9B25A
:102CA000A942B3D347E00C2D33D0079B2B4A02EB4C
:102CB00003124FF0000B21F0010E525C130608D5F1
:102CC000244B07FB00FC1B880AEB4C0C5BBA2CF86E
:102CD0000E30401C80B2A84200D30020029B520656
:102CE000641CA4B2120E9C420BD2A4EB0903AB42AB
:102CF00016D1059A4C46039B521C92B205929A42F9
:102D000015D314480680504602F08EF809B0BDE88D
:102D1000F08F079A02EB4203114A02EB8302C8E7E5
:102D20000BF1010303F0FF0BBBF1080FC6D3491CE5
:102D3000C9B2A942B7D30C2D09D008200499CDE916
:102D40000005054853464A4600F076FED9E70620BE
:102D5000F4E7000000000024B0000024F0550090CB
:102D60007C5100902DE9F84F0D46044658194FF05C
:102D7000000A111987B21FFA81F8DDE90AB604F0DA
:102D8000FF0912E0444503D305EB0B004C4685B226
:102D9000BD420FD25B4629462046CDF800A0FFF782
:102DA00007FF04EB5B0084B2761C3278A2F12000AE
:102DB0005E28E7D9BDE8F88F2DE9F04F6D4C87B05C
:102DC0004FF0000A012156460220C4F808A02173E2
:102DD00060736949694801F071F9DFF8A481052140
:102DE000664822464546D8F8003098476249AA68A6
:102DF000091F62489047DFF88CB1DBF8000086635A
:102E00000022AD6A1146604B5C48A847FDF762FCA2
:102E1000DFF878914FF40056054654E00A20FDF79C
:102E200017FBFDF757FC401BB0F57A7F0CD8FDF778
:102E300051FC411BDBF8003064204FF47A724143AF
:102E4000B1FBF2F098633EE0FDF744FC411B40F615
:102E5000B830814230D8FDF73DFC401B0A21A0F577
:102E60007A70B0FBF1F24AA102A801F073FD02A949
:102E700010201023CDE90001208882B2A0F11E01AC
:102E800088B20121FFF76EFFFDF724FC2368401B89
:102E9000A0F57A704FF6FF774FF4FA62584303219A
:102EA000B0FBF2F3CDE9001762680021D8F8387062
:102EB000D21E3248B84706E0FDF70CFC411B40F635
:102EC000B83081420AD831464F464846FDF7EAFB02
:102ED0000128A3D102E00A20FDF7BAFA31463846AC
:102EE000FDF7E0FB0128F6D000204FF49671FFF7C4
:102EF00019FE61680022CDE9001AD8F83850114651
:102F000023681E48A84724A102A801F023FD02ADB2
:102F1000102604213346CDE90065208882B2084698
:102F2000FFF720FFFDF7C8FB1FA1024602A801F032
:102F300011FDCDE9006520881023162182B20420FE
:102F4000FFF710FF0C481CA10838426802A801F0E6
:102F500001FDCDE9006520881023282182B20420DC
:102F6000FFF700FFC8216420FFF7DCFD07B0BDE8D4
:102F7000F08F0000E805002408000024B0000024C1
:102F800028000024A4060024E05B009000080258FA
:102F9000253033640000000057654163742053748A
:102FA0007564696F0000000053544D333248377820
:102FB00078203078255800004C43442049443A306A
:102FC0007825580070B50A4E01220C4605460821A6
:102FD0003046FDF76CFB681EFDF73AFA00223046DA
:102FE0000821FDF764FB601EBDE87040FDF730BAB4
:102FF000001002587FB500250095019502950395B4
:10300000FDF7F2FB01248DF800401B208DF808002D
:103010008DF80B504FF010468DF80A4068468DF839
:103020000150019603948DF80950FDF7AFFB16206F
:103030008DF808008DF80F4005218DF80B106846BB
:103040008DF80E408DF800408DF80D508DF80A4037
:103050008DF8014001968DF80C508DF80950FDF760
:1030600095FB0420FDF7CEFB7FBD0000F0B587B0D7
:1030700014216846FDF733F92648016841F0100134
:103080000160016801F010010591016841F004013F
:103090000160016801F004010591016841F08001BF
:1030A0000160016801F080010591016841F00101B2
:1030B000016000680022184F082100F0010005900F
:1030C0003846FDF7F4FA4FF42056384601223146CF
:1030D000FDF7EDFA00246946012508200090CDE9AE
:1030E000015438460394FDF7C5F9022168030090A6
:1030F0000A48CDE901416946FDF7BCF9032069465C
:10310000CDE90065CDE902403846FDF7B3F907B0D7
:10311000F0BD0000E04402580010025800080258B8
:1031200030B587B014216846FDF7D9F83F48002430
:103130003D497F220594FF23E0E8021480E81C004B
:1031400004614461C4603948FEF7F2FC08B1FDF740
:103150007AF936480121FEF791FC43F2F2229042BF
:103160002AD032480121FEF78EFC12208DF8000093
:103170008DF8014001222D4869468DF802400394E4
:103180000494FEF78FFD08B1FDF75DF901208DF87D
:10319000140006218DF815108DF8160020228DF8E8
:1031A000172005A902462148FEF72CFD002801D072
:1031B000FDF749F907B030BD1D4C1E4D20680002D7
:1031C0000CD5012228460821FDF771FA0920FDF7E8
:1031D0003FF9002228460821FDF769FA20684002DD
:1031E0001CD5012228460821FDF761FA0920FDF7C8
:1031F0002FF9002228460821FDF759FA6320FDF730
:1032000027F9012228460821FDF751FA0920FDF788
:103210001FF9002228460821FDF749FA206840F4EA
:1032200080302060C6E7000000400058F805002408
:10323000D0440258001002582DE9F04115484FF4CF
:1032400080060021124D34010722C0E90321E3006A
:10325000C0E90514C0E9073141625A0081624FF4A8
:10326000C027C162C0E90D21C1630164416481646A
:10327000C16401654165816580E8E000FEF796FD67
:10328000002803D0BDE8F041FDF7DDB8BDE8F081CE
:10329000003401401C06002410B596B000241C2107
:1032A0000BA8129413941494FDF719F82C21684676
:1032B000FDF715F823480B22214940F2E73380E857
:1032C0001600C0E9033444618461FFF7DEFB08B1F6
:1032D000FDF7B9F81B4812A9129413941494FFF740
:1032E0006DFA08B1FDF7AFF860200821CDE90B04B5
:1032F00014480422CDE90D410BA90F9410941194A8
:10330000FFF734FB08B1FDF79EF84FF4005000942E
:10331000019401030294CDE9044003940694CDE99D
:1033200007410848694609940A94FFF7F7F908B17C
:10333000FDF789F80348FFF7EFFA16B010BD00005B
:1033400000000140A4060024FEE77047704700001B
:103350002DE9F047454D044689464FF0000A28689C
:10336000C04380070AD0414E283E306820F080607C
:103370003060FDF7AFF90746B04608E00120BDE830
:10338000F08700BFFDF7A6F9C01B022867D8D8F860
:1033900000000001F6D4206829684FF4FE0721F4EC
:1033A0007C313E0241EA00302860207AA389B4F8DB
:1033B00004C040022D4D2D495B1E227CACF1010C56
:1033C0001035091DA0F5007080B2521ECCF3080C18
:1033D00007EA034340EA0C00184306EA026210437E
:1033E00028600868626920F0C000104308600A681D
:1033F000A06922F0200202430A60281D0A6822F018
:1034000010020A6002684FF6F873E4699A4342EAD0
:10341000C40202600868B9F1000F40F010020A60AF
:1034200011D00868B9F1010F11D040F40010086004
:10343000D8F80000444640F08060C8F80000FDF76E
:1034400049F905460DE0086840F40020EFE740F434
:103450008010ECE7FDF73EF9401B022801D903205C
:103460008DE720680001F5D5504688E728440258CA
:103470002DE9F047454D044689464FF0000A28687B
:10348000C04380070AD0414E283E306820F080506B
:103490003060FDF71FF90746B04608E00120BDE89F
:1034A000F08700BFFDF716F9C01B022867D8D8F8CF
:1034B00000008000F6D4208829684FF4FE0721F030
:1034C0007C713E0241EA00502860207AA389B4F85A
:1034D00004C040022D4D2D495B1E227CACF1010C35
:1034E0001835091DA0F5007080B2521ECCF3080CEF
:1034F00007EA034340EA0C00184306EA026210435D
:1035000028600868626920F44060104308600A6817
:10351000A06922F4007202430A60281D0A6822F49E
:1035200080720A6002684FF6F873E4699A4342EACF
:10353000C40202600868B9F1000F40F480720A60AA
:1035400011D00868B9F1010F11D040F08070086007
:10355000D8F80000444640F08050C8F80000FDF75D
:10356000B9F805460DE0086840F48000EFE740F444
:103570000000ECE7FDF7AEF8401B022801D903205C
:103580008DE720688000F5D5504688E7284402582A
:10359000020900F00F0102EB820001EB4000C0B213
:1035A00070470146002002E00A39401CC9B20A29CE
:1035B000FAD2000741EA1060704700002DE9F0419F
:1035C000044600680025C168490615D4691EC1601B
:1035D000FDF780F8032706464FF47A7808E000BF2D
:1035E000FDF778F8801B404502D9032584F8217047
:1035F0002068C0684006F3D52846BDE8F081000089
:103600002DE9F041124C032706460025E06820F022
:103610004000E060A068800607D43046FEF7AAFBB1
:1036200090B1032586F821700EE0A06820F02000FC
:10363000A0603046FEF79EFB10B1032586F821708E
:10364000A06840F02000A0602846BDE8F08100009E
:103650000040005810B5026840F26F335169946918
:1036600044F0080494610268946944F01004946181
:103670000268146824F001041460026814699C4311
:1036800014610268936823F44043936090F88120AA
:10369000042A0CD08A060AD5D0F8842042F0800291
:1036A000C0F884200268936943F02003936190F886
:1036B0008120032A0CD04A060AD5D0F8842042F093
:1036C0000402C0F884200268936943F040039361C8
:1036D0008A050AD5D0F8842042F00102C0F884207F
:1036E0000268936943F400739361C9050AD5D0F861
:1036F000841041F00801C0F8841001688A6942F41E
:1037000080728A610021A0F86210A0F86A1010BDD2
:103710002DE9F041984616460D460746069C09E0FD
:10372000FCF7D8FFA0EB0800A04202D3601C01D038
:103730000BE054B13868406935EA000007D000203A
:10374000B042EDD00020BDE8F0810320FBE701206E
:10375000F6E7002070470000F8B504466A460020EE
:1037600003468DF8000004F120001321054601F006
:10377000FEFC0A210646204600F006FA00236A46AF
:103780002821284601F0F3FC064420460A2100F0D7
:10379000FBF900236A463621284601F0E8FC014681
:1037A0000B488C190B49027B806801EBC000007943
:1037B0000AB940F00800694601228DF80000284649
:1037C00001F0CEFC001901D04FF0FF30F8BD000031
:1037D000E805002474000024F8B504466A46002079
:1037E00003468DF8000004F120001321054601F086
:1037F000BEFC0A210646204600F0C6F900236A46B0
:103800002921284601F0B3FC064420460A2100F095
:10381000BBF900236A463621284601F0A8FC014680
:103820000B488C190B49027B806801EBC0000079C2
:103830000AB940F00800694601228DF800002846C8
:1038400001F08EFC001901D04FF0FF30F8BD0000F0
:10385000E8050024740000242DE9FF4F93F803804D
:1038600093469C7883B0DF7A4FF0000993F80CC040
:1038700004EB0824997ACA4693F80D80DE7C01EBAC
:1038800007211F7D4FEA0C4C9A7C0CEB086893F8DB
:1038900015C08844DD7D3F0402EB06221E7E987D24
:1038A00007EB0C6C5F7E6244360400EB05201D794B
:1038B00006EB07665F7930442D0405EB0767324D50
:1038C0003C4403EB080613466D680090A5EB0B051E
:1038D000291AA4EB080B88460A46DDE9030100F02B
:1038E00089FC4FF0FF35E8BB274C284F207B002890
:1038F000A06817F8300001D140F008008DF80400EE
:103900000398012336212030009001AA01F02FFCFA
:1039100040BBDDE90301424600F006FC10BB7078B5
:1039200002228DF8080002A930788DF8090000986D
:1039300001F016FC08B1A94604E0B61C0AF1020A1F
:10394000DA45ECD3207B0028A06807EBC0000079A3
:1039500001D140F008008DF80400012300983621C1
:1039600001AA00E00BE001F002FC40B9606800220F
:10397000009011462368039800F03CFC00B1A94672
:1039800007B04846BDE8F08FE80500247400002425
:103990002DE9F0411D46144B00248046069F48192E
:1039A0004FF0FF361B68984219D8404600F0BCFB28
:1039B000A8B90E490020C7F30722FBB206E000BFFA
:1039C00001EB400701F81020401C7B70A842F7D3A0
:1039D00006496A0008F1200001F0C2FB00B134463C
:1039E0002046BDE8F0810000E805002468030024BB
:1039F0002DE9F05F8A460F491E468346DDF8289080
:103A000090190025174649684FF0FF38884208D8BA
:103A1000002409E03A194B465146584600F0C6FCCE
:103A200008B1454602E0641CB442F3D32846BDE821
:103A3000F09F0000E80500242DE9FF5F1D481C46AB
:103A400091468B46DDE90E674FF0FF3A4FF00008D4
:103A500003688A199A4204D8416809EB0700884232
:103A600001D9D04622E000251EE000BF009809EBF6
:103A70000502594600F058FBA0B90F49002008E0A4
:103A8000227801F8102001EB40026378401CA41C4E
:103A90005370B042F4D3009872000749203001F00F
:103AA0005FFB00B1D0466D1CBD42DFD304B0404681
:103AB000BDE8F09FE8050024E80000242DE9F84F58
:103AC000002699468A468346DDE90A78144635463B
:103AD0000DE04B46224651465846CDF80080FFF790
:103AE00057FF10B14FF0FF3603E0641C6D1CBD4260
:103AF000EFD33046BDE8F88F4FF0FF30704700003D
:103B0000024880680860002070470000E805002433
:103B1000FEB51C46054600F007FB064605F12000F1
:103B20002E21054602AA01F00DFB0644284601227B
:103B300002A901F00EFB064469460122284601F065
:103B400008FB06442846012201A901F002FB9DF86A
:103B5000042080199DF8001001EB0221216001D0A2
:103B60004FF0FF30FEBD00000248006808600020F2
:103B700070470000E8050024024840680860002003
:103B800070470000E805002470B50546C0690E4680
:103B900080470446E8698047001BB042FAD3002002
:103BA00070BD2DE9F74F5FEA000982B07DD04FF07C
:103BB000000B6A4601215C4609F120005B468DF846
:103BC00000B0019001F0D3FA78214846FFF7DCFFFE
:103BD0000198002301216A468DF8004001F0C7FAE0
:103BE000782105464846FFF7CFFF019801231121B0
:103BF0006A468DF8004001F0BAFA00236A46B12106
:103C00000544019801F0B3FA461901980125694667
:103C10002A468DF8005001F0A3FA871901982C2646
:103C2000694601228DF8006001F09AFA00EB07085E
:103C30004FF02D0A01980122574669468DF800A0E1
:103C400001F08EFA01236A46B2218DF800508044BB
:103C5000019801F08CFA01226946804401988DF8A0
:103C6000006001F07DFA01226946804401988DF8D8
:103C7000007001F075FA01236A46B3218DF80050F7
:103C80008044019801F073FA01226946804401984A
:103C90008DF8006001F064FA0122694680440198C1
:103CA0008DF8007001F05CFA00E0CCE10122694679
:103CB000804401988DF8005001F052FA01226946C3
:103CC00000EB080501988DF8006001F049FA4619EB
:103CD0000198012269468DF8007001F041FA07252C
:103CE0006A4601238DF80050B4210644019801F082
:103CF0003EFAA2216A468719019801238DF8001027
:103D0000C02101F034FA0226694601228DF80060D4
:103D10000744019801F024FA84218DF80010012253
:103D200069460744019801F01BFAC5216A46012340
:103D30008DF80010C1210744019801F018FA0A21FA
:103D40006A4601238DF80010C2210744019801F052
:103D50000EFA01226946074401988DF8004001F0EF
:103D6000FFF98A246A4601238DF80040C3210744E5
:103D7000019801F0FCF92A218DF800100122694612
:103D80000744019801F0ECF901236A46C4218DF83B
:103D900000400744019801F0EAF9EE218DF8001087
:103DA000C41901980122694601F0DAF90E216A4628
:103DB00001238DF80010C5210444019801F0D7F9C2
:103DC000049904444FF000036A46097B00297ED021
:103DD0002021019801F0CBF901233A2104440198F4
:103DE00003AA01F0C4F90123B046E0216A46044465
:103DF00001988DF8006001F0BAF91C218DF80010CF
:103E0000012269460444019801F0AAF90122694699
:103E1000044401988DF8005001F0A2F912218DF8A8
:103E20000010012269460444019801F099F93721F4
:103E30008DF80010012269460444019801F090F9C0
:103E400032218DF80010012269460444019801F0E6
:103E500087F92926694601228DF8006004440198FB
:103E600001F07EF901226946044401988DF800A012
:103E700001F076F901226946044401988DF800604A
:103E800001F06EF925218DF80010012269460444E5
:103E9000019801F065F92B218DF800100122694687
:103EA0000444019801F05CF939218DF800100719DC
:103EB00001980122694601F053F901225C4607444A
:103EC000019869468DF800B001F04AF900E0BFE0C2
:103ED00001218DF80010074401980A46694601F057
:103EE0003FF901224FF0030B0744019869468DF812
:103EF00000B001F035F90744694610208DF8000044
:103F00000198012201F02CF901236A46E1218DF884
:103F100000B00744019801F02AF9074469461D20C2
:103F20008DF800000198012201F01AF9012269467A
:103F3000074401988DF8005001F012F906218DF820
:103F40000010012269460744019801F009F92E2565
:103F5000694601228DF800500744019801F000F9EC
:103F6000074469462C208DF800000198012201F0D9
:103F7000F7F801226946074401988DF8006001F0C6
:103F8000EFF8C6190198012269468DF800A001F0EA
:103F9000E7F801226946064401988DF8005001F0C7
:103FA000DFF801226946064401988DF8005001F0BF
:103FB000D7F837218DF8001085190198012269463C
:103FC00001F0CEF83F218DF800100122694605442A
:103FD000019801F0C5F801226946054401988DF861
:103FE000004001F0BDF801226946054401988DF8B2
:103FF000004001F0B5F801226946054401988DF8AA
:10400000008001F0ADF810218DF800100122694602
:104010000544019801F0A4F801236A4613218DF8A4
:1040200000400544019801F0A2F8441901980123C9
:104030006A46292101F09BF804440499484600F09F
:1040400065F9001901D04FF0FF3005B0BDE8F08FE1
:104050002121BEE6F8B520300E46DA216A46074631
:1040600001F070F84FF0FF3408B12046F8BD6D46FE
:104070003846DB216A1C01F065F80028F5D1AA1C3E
:104080003846DC2101F05EF80028EED1BDF80110C1
:104090009DF8002049BA62F31F413160F8BD30B489
:1040A0000C4603692046114630BC184730B40C4614
:1040B00083692046114630BC184700004FF0FF329C
:1040C00010B5E0B10B6803604C68002B44600C89AC
:1040D0000481CC68C4600C6904614C6944618C69DA
:1040E0008461C969C16107494162074901620749A1
:1040F00081620749C0E90B1001D09847024610467B
:1041000010BD00009F400090F543009015410090C5
:10411000AD40009030B40C4643692046114630BC97
:1041200018474FF0FF307047F8B51446304A0D4637
:10413000114693680A7B497B012B0FD8012902D0D5
:10414000022906D018E00AB1183515E0641C1A35AA
:1041500012E0012A10D1641CAD1C0DE0012902D02F
:10416000022905D008E00AB1183405E01A3402E04B
:10417000012A01D1A41C6D1C6A462030002306468A
:104180002A2100F0F4FF07466946280A8DF800004E
:104190000122304600F0E4FF074469460122304620
:1041A0008DF8005000F0DCFFC5196A460023304648
:1041B0002B2100F0DCFF210A8DF800100544694630
:1041C0000122304600F0CCFF05446946012230460A
:1041D0008DF8004000F0C4FF44196A4600233046C1
:1041E0002C2100F0C4FF001901D04FF0FF30F8BDC2
:1041F000E80500242DE9F8431546434A0C461E46BF
:104200001146DDF8209093680A7B497B012B0ED87C
:10421000012902D0022905D019E00AB1183416E0AC
:104220001A3402E0012A12D1A41C6D1C0FE00129EE
:1042300002D0022907D00AE004F101040AB11835BE
:1042400005E01A3503E0012A01D1641CAD1C6A4661
:104250002030002380462A2100F089FF0746694666
:10426000200A8DF800000122404600F079FF074443
:104270006946012240468DF8004000F071FF344449
:104280006946641EC619200A8DF8000001224046C6
:1042900000F066FF06446946012240468DF8004062
:1042A00000F05EFF84196A46002340462B2100F08F
:1042B0005EFF290A8DF80010044469460122404639
:1042C00000F04EFF06196946012240468DF8005065
:1042D00000F046FF05EB09046946641E8519200AB3
:1042E0008DF800000122404600F03AFF054469467F
:1042F000012240468DF8004000F032FF401901D005
:104300004FF0FF30BDE8F883E80500242DE9FC41BB
:10431000244C50234A7B05468F68A02080263FB15D
:10432000012F05D0012A0FD08AB1022A0FD010E048
:10433000012A03D02AB1022A03D00AE0C4E90030DE
:1043400007E0C4E9006004E0C4E9000301E0C4E957
:10435000000688680022A060087B2073487B114615
:1043600060736068009028462368FFF743FF217B55
:1043700006460D480029A16800EBC100007901D173
:1043800040F008008DF804000123362101AA05F150
:10439000200000F0ECFE801901D04FF0FF30BDE8A6
:1043A000FC810000E805002474000024F8B50646EE
:1043B0000F481F0A4FF6FF7404EA03234FF0FF353E
:1043C0003B43ADF80030036800248B420DD94068B0
:1043D00090420AD93046FFF7A7FE30B9022269465B
:1043E00006F1200000F0BCFE00B12C462046F8BDCE
:1043F000E8050024F0B4C66814460D462146284658
:10440000B446F0BC1A4660477047FCF769B9000033
:10441000F0B59DB04C216846FBF761FF202113A841
:10442000FBF75DFF0220FCF73FFA234800242349F5
:10443000026842F44042026002680A6842F00102E7
:104440000A60096801F001011B9101688904FCD52B
:10445000FCF754FAFCF738F9194905220B680220D9
:104460000825C603012723F018030B60099060217B
:104470008DE8C400CDE90A02CDE90C10CDE9105455
:104480000E900F9068461294FDF774F808B1FBF790
:10449000DAFF13AA3F20032182E833000121179499
:1044A00013A8189419941A94FCF79AFE002801D0C6
:1044B000FBF7C9FF1DB0F0BD184802582C04005886
:1044C00070440258214A30B5214914680020204B1D
:1044D00044F47004146010330A681E4D42F0010267
:1044E0000A6018600A681A4B2A400A6018331C1DBB
:1044F000251D174A186028322060131D28601C1DD6
:10450000251D10602A1D1860131D20601C1D2860C9
:10451000251D10601860206028600A680C4B0E4C46
:1045200022F4802260330A60186020686FF30F0065
:10453000B0F1005F03D209490120C1F808014FF032
:10454000006002498039086030BD000088ED00E05D
:10455000004402587FEDF6EA0010005C0080005134
:104560002DE9F047274B4FF0804A274D02689842CB
:10457000264E274F274C09D0504507D0A84205D0DA
:10458000B04203D0B84201D0A04205D1D1F804C056
:1045900022F070024CEA0202DFF87CC0DFF87C8077
:1045A0009842DFF87C900FD050450DD0A8420BD038
:1045B000B04209D0B84207D0A04205D0604503D030
:1045C000404501D0484503D1CD6822F440722A43CA
:1045D0004D6922F080022A43026098428A68C262D2
:1045E0000A68826207D0A04205D0604503D04045EA
:1045F00001D0484501D10969016301214161BDE84C
:10460000F087000000000140000400400008004066
:10461000000C004000040140004001400044014003
:104620000048014010B5046A042301F01F018B40CB
:104630009C4304628A40016A1143016210BD00007C
:104640002DE9F04F026ADFF88880DFF8889022F0C9
:104650000102DFF884A0DFF884B0214F0262DFF8A6
:1046600084C0066A4268836926F002060D68B84273
:104670008C6803EA0C0323F0030344EA060445EACA
:10468000030507D0404505D0484503D0504501D02B
:10469000584505D1CB6824F00804234323F00404D3
:1046A000B84207D0404505D0484503D0504501D019
:1046B000584505D122F44076D1E9053233431A43F7
:1046C00042608561496841630462BDE8F08F000083
:1046D0000004014000400140004401400048014006
:1046E000000001408FFFFEFFF0B5026A1E4E1F4C16
:1046F00022F01002DFF878E00262056A43688269FE
:1047000025F02005D1F808C0A0420F6802EA060291
:1047100022F4407245EA0C1542EA072201D07045A6
:1047200006D1CE6825F0800545EA061525F040053E
:10473000A0420AD0704508D00E4CA04205D00E4CC5
:10474000A04202D00D4CA04207D1D1E9054623F486
:10475000406343EA840343EA860343608261496815
:1047600081630562F0BD0000FF8FFFFE0000014085
:104770000004014000400140004401400048014065
:10478000F0B5026A1C4D1D4E22F48072A8420262EE
:10479000026A4368C76922F40072D1F808C00C6845
:1047A00027F0730742EA0C2244EA070401D0B04222
:1047B00006D1CF6822F4006242EA072222F4806226
:1047C000A8420AD0B04208D00D4DA84205D00D4DE8
:1047D000A84202D00C4DA84207D1D1E9055623F4D6
:1047E000405343EA051343EA06134360C461496832
:1047F000C1630262F0BD00000000014000040140FE
:1048000000400140004401400048014070B5026A88
:10481000144B22F4805202629842036A4268C469CF
:1048200023F400538E680D6824F4E64443EA06330B
:1048300044EA05240BD00C4DA84208D00B4DA842E9
:1048400005D00B4DA84202D00A4DA84204D14D69B3
:1048500022F4804242EA85124260C46149680164E0
:10486000036270BD000001400004014000400140AF
:104870000044014000480140F0B5026A22F4803251
:104880000262134F056A4268446D25F400350E89B3
:10489000B8420B6824F0700445EA064543EA040375
:1048A0000BD00C4CA04208D00B4CA04205D00B4CB6
:1048B000A04202D00A4CA04204D14C6922F48032BA
:1048C00042EA042242604365496881650562F0BDA1
:1048D000000001400004014000400140004401404C
:1048E00000480140F0B5026A22F480120262134FC0
:1048F000046A4268436D24F400140E89B8420D68BE
:1049000023F4E04344EA065443EA05230BD00C4D5C
:10491000A84208D00B4DA84205D00B4DA84202D0AA
:104920000A4DA84204D14D6922F4003242EA8522A0
:10493000426043654968C1650462F0BD0000014002
:104940000004014000400140004401400048014093
:10495000FEE700000FB4084B10B504A902AA0398A3
:1049600000F02CF8044602A9002000F058FA204676
:1049700010BC5DF814FB00001F4E009009070028D2
:104980004FEA116104DB00F1E02080F80014704769
:1049900000F00F0000F1E02080F8141D704702E0E5
:1049A00008C8121F08C1002AFAD1704770470020BA
:1049B00001E001C1121F002AFBD170472DE9FF4F12
:1049C0008DB00F460546002606E025280BD0DDE910
:1049D0000F1290476D1C761C28780028F5D111B075
:1049E0003046BDE8F08F0024A246A1460122EC49E2
:1049F00000E0044315F8013F203B02FA03F00842AF
:104A0000F7D128782A2810D06FF02F022878A0F14B
:104A10003001092914D80AEB8A0102EB410144F064
:104A2000020400EB010A6D1CF0E701CF5FEA000A07
:104A300003D544F40054CAF1000A44F002046D1C8A
:104A400028782E2817D115F8010F44F004042A28DD
:104A50000ED06FF02F022878A0F1300109290AD872
:104A600009EB890102EB410100EB01096D1CF2E742
:104A700057F8049B6D1C28786C280FD006DC4C2856
:104A800017D068280DD06A2814D104E0742810D0FB
:104A90007A280FD10DE044F400140AE044F48014A5
:104AA00001E044F440146978814202D104F5801495
:104AB0006D1C6D1C2A786E2A1FD00CDC632A31D045
:104AC00004DC002A8BD0582A11D1A3E0642A68D0D4
:104AD000692A0CD165E0732A2ED004DC6F2A73D0CA
:104AE000702A04D19BE0752A6FD0782A6ED01046C8
:104AF000DDE90F129047761C50E1C4F30250022802
:104B000006D0032809D0042801CF09D0066045E16A
:104B100001CFF117C0E9006140E101CF06803DE11E
:104B200006703BE117F8040B8DF8000000208DF8AB
:104B30000100EB46012003E057F804BB4FF0FF30C3
:104B400061074FF0000102D40DE008F10101884631
:104B500049450FDA8045F8DB1BF808100029F4D12D
:104B600008E008F1010188468142FADB1BF80810D1
:104B70000029F6D1DDE90F23AAEB08008146214682
:104B800000F036F9304400EB080604E0DDE90F12CE
:104B90001BF8010B9047B8F10108F7D221464846AF
:104BA000F7E00A21C4F302534FF0000B0891022BE7
:104BB00004D001CFC117032B09D00AE0FF1D27F055
:104BC0000707F7E8020108E032E01FE020E000B24A
:104BD000C117042B01D140B2C117031E71F10003AC
:104BE00007DA4FF0000CD0EB0C006CEB01012D2329
:104BF00002E0230504D52B238DF82430012303E0A4
:104C0000E30701D02023F7E7984658E00A2110E097
:104C100010210EE010204FF0000B08900CE0102146
:104C20004FF0000B44F004044FF00809089103E032
:104C300008214FF0000B0891C4F30253022B04D05B
:104C400001CF0021032B06D006E0FF1D27F0070748
:104C5000F7E8020103E080B2042B00D1C0B24FF0AC
:104C6000000823072BD5702A07D0DDF820C08CF070
:104C7000100C5CEA0B0C05D00EE040238DF82430BC
:104C8000012308E050EA010306D030238DF82430D8
:104C90008DF8252002239846DDF820C08CF0080C02
:104CA0005CEA0B0C0BD150EA010301D1630706D576
:104CB00030238DF824304FF00108A9F10109582A5A
:104CC00004D038A20B9208AA0A920BE03AA2F9E7A4
:104CD0005B46089AFBF70EFB0B9B9B5C0A9A521EE5
:104CE0000A92137050EA0102F2D10A98ADEB00006B
:104CF00000F1200B600702D524F4803401E04FF06E
:104D00000109D94502DDA9EB0B0000E0002000EB12
:104D10000B0141440890AAEB010AE00306D4DDE947
:104D20000F232146504600F063F806444FF0000977
:104D300008E009A911F80900DDE90F12904709F10F
:104D40000109761CC145F4DBE0030CD5DDE90F2336
:104D50002146504600F04CF8064404E0DDE90F120D
:104D600030209047761C0899481E08900029F5DCF1
:104D700008E00A980A990078491C0A91DDE90F12A7
:104D80009047761CBBF10001ABF1010BF1DC214631
:104D90005046DDE90F2300F019F806446D1C1BE6B0
:104DA0000928010030313233343536373839616201
:104DB00063646566000000003031323334353637C5
:104DC0003839414243444546000000002DE9F04196
:104DD000044600251E461746880404D405E03946DB
:104DE0002020B0476D1C641EF9D52846BDE8F0812F
:104DF0002DE9F041044600251E469046C80301D522
:104E0000302700E02027880404D505E041463846D5
:104E1000B0476D1C641EF9D52846BDE8F0810A68CC
:104E2000531C0B601070704710B5002821D0114B37
:104E30000022001F196803E0814203D80A4649682E
:104E40000029F9D152B11368841A9C4204D1006838
:104E500018441060104602E0506000E0186039B15C
:104E600002680B1A934203D10B681A440260496826
:104E7000416010BDA8000024FBF72CBC10B503480E
:104E800000240421FDF7E6FC204610BDA406002402
:104E90002DE9F341174D4FF4006400228846214666
:104EA0002846FBF704FCA600284600223146FBF703
:104EB000FEFB1148642301226946FDF775F90122C2
:104EC000074631462846FBF7F2FB0B4801224FF418
:104ED000FA734146FDF754F8C619214601222846C7
:104EE000FBF7E5FB002E03DD4FF0FF30BDE8FC8152
:104EF0000020FBE7001002581C0600242DE9F041B9
:104F00000F4E4FF4006500220C46074629463046F6
:104F1000FBF7CDFBA2B20B484FF4FA733946FDF70D
:104F20002FF80122044629463046FBF7C0FB002C2F
:104F300003DD4FF0FF30BDE8F0810020FBE700000B
:104F4000001002581C0600242DE9F0410E4E4FF4CB
:104F5000006500220C46074629463046FBF7A7FBB2
:104F6000A2B20A4864233946FDF71EF9012204461D
:104F700029463046FBF79BFB002C03DD4FF0FF304A
:104F8000BDE8F0810020FBE7001002581C06002459
:104F90002DE9F743194E4FF4006815468946002263
:104FA00041463046FBF783FB4FF400573046002262
:104FB0003946FBF77CFB1248642301226946FDF762
:104FC000F3F80122044639463046FBF770FB3DB149
:104FD000AAB20B484FF4FA734946FDF7E5F80444CA
:104FE000414601223046FBF762FB002C03DD4FF007
:104FF000FF30BDE8FE830020FBE7000000100258F0
:105000001C0600248EB027494FF010400860FDF7C1
:10501000F1FFFBF7D3F9FBF76BFBFFF7F9F9FEF7AD
:1050200025F8FEF77DF8FEF707F9FEF735F9FDF7ED
:10503000C3FE102502AC4FF4FA761B4800220CAFD9
:1050400007A9FCF749FD184800223946FCF720FD66
:105050009DF81E009DF81D309DF81C20C00701D052
:1050600012A100E015A102A8FFF774FC1023A022F2
:105070003A210420CDE90054FDF774FEFBF72AFB2A
:1050800012A1024602A8FFF765FC1023A0224A21C4
:105090000420CDE90054FDF765FE03203146FDF7FD
:1050A00091FFCAE708ED00E0F805002454696D653A
:1050B0003A20253032643A253032640054696D65F7
:1050C0003A20253032642025303264005469636B05
:1050D0003A202564206D7300F0B50B30154D20F09B
:1050E00007010024144A0FE003688B420BD38B4264
:1050F00005D95E1A43184768C3E9006700E04368B2
:10510000136002C004E0021D10680028ECD12046A4
:10511000002802D1286808B10020F0BD064A0748DF
:105120001060074A121A22F00702C0E90024012089
:105130002860D7E7AC000024A8000024F40600246F
:10514000F008002430B444680369A44630BC184613
:10515000604730B4D0E90343A44630BC18466047EA
:1051600030B484680369A44630BC1846604730B444
:10517000046905682046AC4630BC6047000000006A
:105180000000000000000000000000003F400000A0
:10519000000000000000300040003000400000002F
:1051A00009000BC03D000BC03D00090018C02440A1
:1051B0007FE0224031800000180024C01B000D80D9
:1051C0003240018003801C4027401C800740004083
:1051D000100060000000000000000000000000005F
:1051E00000001F80204040200000402020401F8001
:1051F00000000000090006001F80060009000000F2
:10520000040004003F80040004000000001000605F
:10521000000000000000000004000400040004007E
:10522000040000000000004000000000000000003A
:10523000002001C006003800400000001F80204010
:10524000204020401F800000000010403FC0004070
:105250000000000018C021402240244018400000F7
:1052600010802040244024401B80000002000D00DC
:1052700011003FC0014000003C80244024402440F5
:10528000238000001F80244024403440038000001D
:105290003000200027C03800200000001B80244080
:1052A000244024401B8000001C0022C022402240D9
:1052B0001F80000000000000084000000000000007
:1052C0000000000004600000000000000000040076
:1052D0000A0011002080404009000900090009006F
:1052E0000900000000004040208011000A00040076
:1052F0001800200023402400180000001F802040D8
:10530000274029401F400000004007C039000F001F
:1053100001C0004020403FC0244024401B800000CA
:105320001F802040204020403080000020403FC0AF
:10533000204020401F80000020403FC024402E40DD
:1053400030C0000020403FC024402E00300000004C
:105350000F001080204022403380020020403FC0D8
:10536000040004003FC02040204020403FC02040B7
:10537000204000000060202020203FC020002000AE
:1053800020403FC024400B0030C0204020403FC0A0
:1053900020400040004000C03FC03C0003C03C0033
:1053A0003FC0000020403FC00C4023003FC0200011
:1053B0001F802040204020401F80000020403FC030
:1053C00024402400180000001F802140214020E0DC
:1053D0001FA0000020403FC02440260019C000400C
:1053E00018C024402440224031800000300020407A
:1053F0003FC020403000000020003F8000400040BF
:105400003F80200020003E0001C00700380020003F
:10541000380007C03C0007C038000000204039C0F9
:10542000060039C0204000002000384007C0384046
:1054300020000000304021C02640384020C000003D
:10544000000000007FE040204020000000007000CD
:105450000C000380004000000000402040207FE05E
:1054600000000000000020004000200000000000BC
:1054700000100010001000100010001000000000CC
:1054800040000000000000000000028005400540D0
:1054900003C0004020003FC00440044003800000DF
:1054A0000000038004400440064000000000038028
:1054B000044024403FC000400000038005400540F8
:1054C00003400000000004401FC02440244020008E
:1054D000000002E0055005500650042020403FC067
:1054E0000440040003C000400000044027C0004006
:1054F0000000000000100010041027E00000000071
:1055000020403FC00140070004C00440204020402C
:105510003FC000400040000007C0040007C0040076
:1055200003C00000044007C00440040003C0004062
:10553000000003800440044003800000041007F0D2
:105540000450044003800000000003800440045025
:1055500007F00010044007C00240040004000000EF
:10556000000006400540054004C0000000000400A3
:105570001F800440004000000400078000400440F9
:1055800007C000400400070004C0018006000400BA
:10559000060001C0070001C006000000044006C06C
:1055A000010006C0044000000410071004E0018060
:1055B000060004000000044005C00640044000004E
:1055C0000000000004007BE040200000000000001C
:1055D0000000FFF000000000000040207BE004001D
:1055E000000000004000800040002000200040003B
:1055F00000000000000000000000000000000000AB
:105600000000000000001FCC000C000000000000A3
:10561000000008003000600008003000600000005A
:10562000022003FC1E20022003FC1E20022000009A
:1056300000000E1811043FFF10840C7800000000D9
:105640000F0010840F3800C007781884007800001D
:1056500000780F8410C411240E9800E40084000820
:10566000080068007000000000000000000000005A
:1056700000000000000007E01818200440020000AD
:10568000000040022004181807E00000000000009D
:105690000240024001800FF0018002400240000001
:1056A0000080008000800FF80080008000800000F3
:1056B0000001000D000E00000000000000000000CE
:1056C000000000800080008000800080008000805A
:1056D0000000000C000C00000000000000000000B2
:1056E000000000060018006001800600180020007D
:1056F000000007F0080810041004080807F0000074
:105700000000080408041FFC00040004000000005E
:1057100000000E0C10141024104411840E0C000014
:1057200000000C1810041104110412880C70000001
:10573000000000E00320042408241FFC00240000D3
:1057400000001F98108411041104108810700000CC
:10575000000007F008881104110418880070000088
:1057600000001C00100010FC13001C0010000000C2
:1057700000000E3811441084108411440E380000CB
:1057800000000700088C10441044088807F000004F
:10579000000000000000030C030C000000000000EB
:1057A00000000000000101060000000000000000F1
:1057B00000000080014002200410080810040000CE
:1057C00002200220022002200220022002200000EB
:1057D00000001004080804100220014000800000AE
:1057E00000000E001200100C106C10800F00000062
:1057F00003E00C1813E4142417C4082807D0000091
:105800000004003C03C41C40074000E4001C0004EA
:1058100010041FFC1104110411040E880070000014
:1058200003E00C1810041004100410081C100000F1
:1058300010041FFC100410041004080807F00000F6
:1058400010041FFC1104110417C4100408180000F0
:1058500010041FFC1104110017C010000800000004
:1058600003E00C181004100410441C7800400000E1
:1058700010041FFC10840080008010841FFC1004A2
:105880000000100410041FFC1004100400000000AD
:1058900000030001100110011FFE100010000000A5
:1058A00010041FFC110403801464181C1004000071
:1058B00010041FFC1004000400040004000C00008D
:1058C00010041FFC1F0000FC1F001FFC1004000040
:1058D00010041FFC0C04030000E010181FFC100053
:1058E00007F00808100410041004080807F000006E
:1058F00010041FFC10841080108010800F00000026
:1059000007F0081810241024101C080A07F20000E1
:1059100010041FFC1104110011C011300E0C000402
:1059200000000E1C11041084108410441C38000068
:105930001800100010041FFC1004100018000000D4
:1059400010001FF810040004000410041FF81000D9
:1059500010001E0011E0001C007013801C001000DD
:105960001FC0103C00E01F0000E0103C1FC0000002
:105970001004180C163401C001C01634180C1004A1
:1059800010001C00130400FC13041C001000000095
:105990000804101C1064108413041C041018000068
:1059A0000000000000007FFE4002400240020000B4
:1059B000000030000C0003800060001C00030000A9
:1059C00000004002400240027FFE00000000000094
:1059D00000000000200040004000400020000000C7
:1059E00000010001000100010001000100010001AF
:1059F0000000400040002000000000000000000007
:105A000000000098012401440144014400FC00040A
:105A100010001FFC008801040104008800700000D1
:105A200000000070008801040104010400880000E7
:105A30000000007000880104010411081FFC00042C
:105A4000000000F8014401440144014400C8000082
:105A50000000010401040FFC1104110411001800DE
:105A6000000000D601290129012901C90106000011
:105A700010041FFC008401000100010400FC00046C
:105A800000000104190419FC0004000400000000D7
:105A90000000000300010101190119FE00000000CF
:105AA00010041FFC0024004001B4010C010400009C
:105AB0000000100410041FFC00040004000000009B
:105AC000010401FC0104010001FC0104010000FCCF
:105AD000010401FC008401000100010400FC000439
:105AE000000000F8010401040104010400F80000B2
:105AF000010101FF0085010401040088007000001D
:105B000000000070008801040104010501FF00018C
:105B10000104010401FC0084010401000180000073
:105B2000000000CC0124012401240124019800007C
:105B300000000100010007F801040104000000005A
:105B4000010001F8000400040004010801FC000445
:105B5000010001800170000C001001600180010053
:105B600001F0010C003001C00030010C01F0010017
:105B700000000104018C00740170018C010400001C
:105B8000010101810171000E001801600180010016
:105B900000000184010C013401440184010C000067
:105BA000000000000000000001003EFC4002400236
:105BB0000000000000000000FFFF000000000000E7
:105BC0000000400240023EFC010000000000000016
:105BD00000006000800080004000400020002000A5
:105BE000424D42A8000000000000420000002800D2
:105BF000000080000000A800000001001000030069
:105C0000000000A80000120B0000120B00000000B2
:105C100000000000000000F80000E00700001F0086
:105C20000000000000000000000000000000000074
:105C30000000000000000000000000000000000064
:105C40000000000000000000000000000000000054
:105C50000000000000000000000000000000000044
:1083D0000000000000000000242196B55DEFFFFFC3
:1083E000FFFFFBDEB2940000000000000000000070
:1083F000000000000000000000000000000000007D
:10840000000000000000000000000000000000006C
:10841000000000000000000000000000000000005C
:10842000000000000000000000000000000000004C
:10843000000000000000000000000000000000003C
:10844000000000000000000000000000000000002C
:10845000000000000000000000000000000000001C
:10846000000000000000000000000000000000000C
:1084700000000000000000000000000000000000FC
:1084800000000000000000000000000000000000EC
:1084900000000000000000000000000000000000DC
:1084A00000000000000000000000000000000000CC
:1084B00000000000000000000000000000000000BC
:1084C00000000000000000000000000000000000AC
:1084D000000000000000AA52BEF7FFFFBEF796B5ED
:1084E00014A5F7BDBEF75DEFAA5200000000000022
:1084F000000000000000000000000000000000007C
:10850000000000000000000000000000000000006B
:10851000000000000000000000000000000000005B
:10852000000000000000000000000000000000004B
:10853000000000000000000000000000000000003B
:10854000000000000000000000000000000000002B
:108550000000000024212C632C632C630000000029
:10856000000000000000000000000000000000000B
:1085700000000000000000000000000000000000FB
:1085800000000000000000000000000000000000EB
:1085900000000000E7392C632C63AA5200000000A1
:1085A00000000000000000000000000000000000CB
:1085B000000000000000000000000000E7392C630C
:1085C0002C632C632C632C63E7390000000000004F
:1085D000000000002421BEF7FFFFBEF7AA520000F2
:1085E00000000000E739FBDEBEF7AA5200000000E1
:1085F00000000000000000000000000000002C63EC
:108600002C632C632C63AA520000000000000000C1
:10861000000000000000000000000000000000005A
:10862000000000000000000000000000000000004A
:10863000000000000000000000000000000000003A
:10864000000000000000000000000000FFFFFFFF2E
:10865000FFFFFFFFFFFFFFFFFFFFFFFFBAD6000096
:1086600000000000000000005DEFFFFFFFFFFFFFC4
:10867000FFFFFFFFFFFFF7BD00000000000000004C
:1086800000000000000000000000CF7BFFFFFFFFA4
:10869000FFFFFFFFFFFFFFFFFFFFFFFF14A500002D
:1086A000000000000000000000000000000059CEA3
:1086B000FFFFFFFFFFFFFFFFFFFFFFFFFFFFFFFFCA
:1086C000FFFFFFFFFFFFFFFFFFFFBAD624210000DF
:1086D0000000000014A5FFFFFFFF2C630000000056
:1086E0000000000000002421FBDEFBDE0000000093
:1086F000000000003084FFFFFFFFFFFFFFFFFFFFD0
:10870000FFFFFFFFFFFFFFFFBEF7F7BD2C63000079
:108710000000000000000000000000000000000059
:108720000000000000000000000000000000000049
:108730000000000000000000000000000000000039
:108740000000000000000000000000002C633084E6
:108750005DEFFFFFFFFFF7BD00000000E7390000FD
:108760000000000000000000AA523084BEF7FFFFA6
:10877000FFFFB2942C63AA5200000000000000002A
:108780000000000000000000000024212C6314A55C
:10879000BEF7FFFFFFFF308400000000E739000054
:1087A0000000000000000000000000000000E739A9
:1087B0003084FBDEFFFFFFFF5DEF5DEFFFFFFFFF9C
:1087C0005DEF59CEB2942C63B294FFFFF7BD000069
:1087D000000000005DEFFFFF5DEF00000000000003
:1087E0000000000000000000AA5296B50000000042
:1087F0000000000000000000AA52FFFFFFFFFBDEA8
:108800002C632C632C63B294FBDEFFFFFFFF59CE79
:108810002421000000000000000000000000000013
:108820000000000000000000000000000000000048
:108830000000000000000000000000000000000038
:108840000000000000000000000000000000000028
:10885000AA52FFFFFFFF5DEF0000000000000000D4
:108860000000000000000000000000003084FFFF56
:10887000FFFF96B5000000000000000000000000AF
:1088800000000000000000000000000000000000E8
:10889000B294FFFFFFFFF7BD0000000000000000E2
:1088A00000000000000000000000000000000000C8
:1088B000000024215DEFFFFFBEF72421000000002F
:1088C00000000000000000002421FFFFFFFF000067
:1088D00000002421FFFFFFFFF7BD000000000000A3
:1088E0000000000000000000000000000000000088
:1088F0000000000000000000000059CEFFFFFFFF55
:10890000E73900000000000000002C63BEF7FFFF05
:10891000FBDE242100000000000000000000000039
:108920000000000000000000000000000000000047
:108930000000000000000000000000000000000037
:108940000000000000000000000000000000000027
:108950000000FBDEFFFFFFFF2421000000000000FD
:108960000000000000000000000000002421FFFFC4
:10897000FFFFFBDE00000000000000000000000020
:1089800000000000000000000000000000000000E7
:108990002421FFFFFFFFFBDE0000000000000000BD
:1089A00000000000000000000000000000000000C7
:1089B00000000000B294FFFFFFFF308400000000C1
:1089C00000000000000000002C63FFFFBEF7000065
:1089D00000002C63FFFFFFFF14A500000000000053
:1089E0000000000000000000000000000000000087
:1089F0000000242114A5AA5200003084FFFFFFFFCD
:108A0000B29400000000000000000000AA52BEF76F
:108A1000FFFFFBDE0000000000000000000000007F
:108A20000000000000000000000000000000000046
:108A30000000000000000000000000000000000036
:108A40000000000000000000000000000000000026
:108A50000000B294FFFFFFFF308400000000000020
:108A6000000000000000000000000000000059CEDF
:108A7000FFFFFFFF242100000000000000000000B5
:108A800000000000000000000000000000000000E6
:108A90000000BAD6FFFFFFFF242100000000000005
:108AA00000000000000000000000000000000000C6
:108AB00000000000E739FFFFFFFF59CE0000000073
:108AC000000000000000000000003084AA520000F6
:108AD00000002C63FFFFFFFF14A500000000000052
:108AE0000000000000000000000000000000000086
:108AF0000000BAD6FFFFBAD600002421FFFFFFFF17
:108B0000FBDE0000000000000000000000002C63FD
:108B1000FFFFFFFF14A500000000000000000000A0
:108B20000000000000000000000000000000000045
:108B30000000000000000000000000000000000035
:108B40000000000000000000000000000000000025
:108B50000000AA52FFFFFFFFF7BD00000000000069
:108B60000000000000000000000000000000B294BF
:108B7000FFFFFFFF30840000000000000000000045
:108B800000000000000000000000000000000000E5
:108B90000000B294FFFFFFFF3084000000000000DF
:108BA00000000000000000000000000000000000C5
:108BB0000000000000005DEFFFFFFFFF000000006D
:108BC00000000000000000000000000000000000A5
:108BD0000000AA52FFFFFFFF14A5000000000000E4
:108BE0000000000000000000000000000000000085
:108BF000CF7BFFFFBEF7308400000000BAD6FFFF36
:108C0000FFFF242100000000000000000000000021
:108C1000F7BDFFFFBEF724210000000000000000A8
:108C20000000000000000000000000000000000044
:108C30000000000000000000000000000000000034
:108C40000000000000000000000000000000000024
:108C500000000000BEF7FFFF5DEF00000000000015
:108C6000000000000000FBDEFFFFAA520000AA5235
:108C7000FFFFFFFFF7BD000000000000AA52242103
:108C800000000000000000000000000000000000E4
:108C90000000AA52FFFFFFFFF7BD00000000000028
:108CA00000000000000000000000000000000000C4
:108CB000000000000000F7BDFFFFFFFFCF7B0000BA
:108CC00000000000000000000000000000000000A4
:108CD00000000000FFFFFFFFBAD600000000000008
:108CE0000000000000000000000000000000000084
:108CF00014A5FFFF2C6300000000000014A5FFFF77
:108D0000FFFFCF7B0000000000000000000000001B
:108D1000CF7BFFFFFFFF3084000000000000000059
:108D20000000000000000000000000000000000043
:108D30000000000000000000000000000000000033
:108D40000000000000003084BAD6CF7B0000000095
:108D500000000000F7BDFFFFFFFFE7390000000043
:108D600000000000AA52FFFFFFFFAA52000000000F
:108D70005DEFFFFFFBDE000000000000BAD614A587
:108D800000000000000096B559CEE7390000000051
:108D900000000000BEF7FFFF5DEF000000000000D4
:108DA00000000000000000000000000000000000C3
:108DB0000000000000003084FFFFFFFF96B50000B8
:108DC00000000000000000000000000000000000A3
:108DD00000000000BAD6FFFFBEF700000000000050
:108DE0000000000000000000000000000000000083
:108DF00059CEFBDE00000000000000002C63FFFFE6
:108E0000FFFF14A5000000000000000000000000AB
:108E10000000FFFFFFFFF7BD0000000000000000A2
:108E20000000000000000000000000000000000042
:108E30000000000000000000000000000000000032
:108E40000000000000005DEFFFFF14A5000000001F
:108E5000000000003084FFFFFFFF308400000000AE
:108E6000000000002C63FFFFF7BD000000000000C1
:108E7000F7BDFFFFFFFFBAD6BAD6BAD6FFFFF7BDE0
:108E800000000000E739FFFFFFFF2C630000000037
:108E900000000000F7BDFFFFFFFFE7390000000002
:108EA00000000000000000000000000000000000C2
:108EB000000000000000E739FFFFFFFFFBDE0000BD
:108EC00000000000000000000000000000000000A2
:108ED00000000000B294FFFFFFFFAA520000000054
:108EE0000000000000000000000000000000000082
:108EF00014A5FBDE00000000000000000000FFFFE2
:108F0000FFFFBAD6000000000000000000000000D3
:108F10000000FFFFFFFFBAD60000000000000000C5
:108F20000000000000000000000000000000000041
:108F30000000000000000000000000000000000031
:108F4000000000000000FFFFFFFFAA520000000029
:108F500000000000E739FFFFFFFFF7BD0000000041
:108F6000000000002C63FFFF3084000000000000C0
:108F70003084FFFFFFFF59CE14A514A559CE5DEF35
:108F8000000000002C63FFFFFBDE0000000000007B
:108F9000000000003084FFFFFFFF3084000000006D
:108FA00000000000000000000000000000000000C1
:108FB0000000000000000000FBDEFFFFFFFFE739BC
:108FC00000000000000000000000000000000000A1
:108FD000000000002421FFFFFFFFF7BD000000009C
:108FE0000000000000000000000000000000000081
:108FF0003084FFFFE7390000000000000000BAD60F
:10900000FFFFFFFF00000000000000000000000064
:109010000000FFFFFFFFBAD60000000000000000C4
:109020000000000000000000000000000000000040
:109030000000000000000000000000000000000030
:10904000000000000000FFFFF7BD0000000000006E
:109050000000000000005DEFFFFF5DEF000000007A
:1090600000000000AA52FFFFB294000000000000C0
:10907000E739FFFFFFFF96B500000000AA52FFFF8F
:10908000000000002C63FFFF30840000000000009F
:1090900000000000E739FFFFFFFFF7BD0000000000
:1090A00000000000000000000000000000000000C0
:1090B0000000000000000000B294FFFFFFFFB29428
:1090C00000000000000000000000000000000000A0
:1090D000000000000000F7BDFFFFBEF724210000E4
:1090E000000000000000000000000000AA5296B539
:1090F0002421BEF714A5000000000000000014A504
:10910000FFFFFFFF2C6300000000000000000000D4
:109110000000FFFFFFFFBAD60000000000000000C3
:10912000000000000000000000000000000000003F
:10913000000000000000000000000000000000002F
:10914000000000000000BEF759CE00000000000043
:10915000000000000000F7BDFFFFFFFFE73900003F
:109160000000000000005DEFBAD600000000000023
:1091700000005DEFFFFFFBDE0000000000000000CC
:1091800000000000AA52FFFFB2940000000000009F
:109190000000000000005DEFFFFF5DEF0000000039
:1091A00000000000000000000000000000000000BF
:1091B0000000000000000000E739FFFFFFFFFBDEBA
:1091C000000000000000000000000000000000009F
:1091D0000000000000002421BEF7FFFF96B500004C
:1091E0000000000000000000000000002C63BAD660
:1091F000000014A5BEF7AA520000000000002C6376
:10920000FFFFFFFFB294000000000000000000001C
:10921000CF7BFFFFFFFF96B50000000000000000BD
:10922000000000000000000000000000000000003E
:10923000000000000000000000000000000000002E
:10924000000000000000F7BDFFFFE739000000004C
:109250000000000000003084FFFFFFFFB294000018
:10926000000000000000CF7BFFFF30840000000002
:109270000000F7BDFFFFFFFFE7390000000000001E
:109280000000E739E7395DEFFBDE00000000000079
:10929000000000000000F7BDFFFFFFFFE7390000FE
:1092A00000000000000000000000000000000000BE
:1092B00000000000000000000000F7BDFFFFFFFFFE
:1092C000E73900000000000000000000000000007E
:1092D0000000000000000000CF7BFFFFFFFF2C63B9
:1092E0000000000000000000000000002C63FFFFF1
:1092F00000000000FBDEFBDE242100000000000077
:10930000FFFFFFFF59CE000000000000000000003A
:10931000BAD6FFFFFFFFE7390000000000000000A1
:10932000000000000000000000000000000000003D
:10933000000000000000000000000000000000002D
:10934000000000000000E739BEF7FBDE242100002A
:10935000000000000000E739FFFFFFFF59CE0000CA
:10936000000000000000000096B5BEF73084000049
:1093700000003084FFFFFFFF308400000000000089
:10938000000014A5BAD6CF7BFFFFF7BD0000000098
:109390000000000000003084FFFFFFFFB2940000D7
:1093A00000000000000000000000000000000000BD
:1093B00000000000000000000000E739BEF7FFFFDA
:1093C00059CE000000000000E739E7390000000036
:1093D0000000000000000000000014A5FFFFBEF721
:1093E000AA5200000000000000000000CF7BFFFF39
:1093F000E73900002421FBDE5DEFAA520000308433
:10940000FFFFFFFFBEF70000000000000000B29465
:10941000FFFFFFFF96B50000000000000000000005
:10942000000000000000000000000000000000003C
:10943000000000000000000000000000000000002C
:109440000000000000000000CF7BFFFFBEF796B5D4
:109450002C63E739000000005DEFFFFFBEF700005E
:109460000000000000000000000096B5FFFFBAD623
:10947000CF7BAA52FFFFFFFF59CE00000000000083
:10948000000096B5BEF7000096B5FFFF5DEFB29401
:109490002C6324210000E739FFFFFFFF59CE0000B5
:1094A00000000000000000000000000000000000BC
:1094B000000000000000000000000000CF7BFFFF64
:1094C000FFFF308400003084BEF7BEF700000000CC
:1094D0000000000000000000000000003084FFFFDA
:1094E000BEF7B2940000000000000000BAD6FFFFF3
:1094F000CF7B00000000242159CEFFFFF7BDB294BE
:1095000014A5F7BDFBDE2C6300002421F7BDFFFF8F
:10951000FFFFF7BD00000000000000000000000099
:10952000000000000000000000000000000000003B
:10953000000000000000000000000000000000002B
:1095400000000000000000000000AA52FBDEFFFF48
:10955000FFFFFFFFFFFFFFFFFFFFFFFFFFFFFFFF1B
:10956000FFFFFFFFFFFF59CE2C6300002C63F7BD08
:10957000BEF7FFFFFFFFFFFFFFFFFFFFFFFFFFFF44
:10958000FFFFFFFFFFFFAA520000CF7BBEF7FFFFE8
:10959000FFFFFFFFFFFFFFFFFFFFFFFFFFFFFFFFDB
:1095A000FFFFFFFFBEF7F7BDE73900000000000036
:1095B00000000000000000000000000000002C631C
:1095C0005DEFFFFF5DEFFFFFFFFFBAD60000000079
:1095D0000000000000000000000000000000AA528F
:1095E000BAD6FFFF5DEFF7BD96B55DEFFFFFBAD6C8
:1095F0002C6300000000000000002C63BAD6FFFFBF
:109600005DEFF7BD14A514A5BAD6FFFFFFFFBEF7A7
:10961000B294000000000000000000000000000004
:10962000000000000000000000000000000000003A
:10963000000000000000000000000000000000002A
:109640000000000000000000000000000000CF7BD0
:10965000F7BDBAD6BEF7FFFFBEF7BAD6BAD659CE17
:1096600014A514A514A5FBDEFFFF2C630000000069
:10967000000024212C632C632C632C632C632C634B
:109680002C632C6396B5AA5200000000242130847C
:1096900059CEBAD6FFFFFFFF5DEFBAD6BAD6F7BDF7
:1096A00014A514A514A5BEF7BEF7242100000000E0
:1096B00000000000000000000000000000000000AA
:1096C00024213084F7BD59CEB2942421000000003B
:1096D000000000000000000000000000000000008A
:1096E0000000AA5214A5BAD659CE14A5E739000035
:1096F0000000000000000000000000000000E7394A
:10970000308414A559CEBAD6F7BD14A5CF7B00007E
:109710000000000000000000000000000000000049
:109720000000000000000000000000000000000039
:109730000000000000000000000000000000000029
:109740000000000000000000000000000000000019
:109750000000000000000000000000000000000009
:10976000000000000000CF7BFFFF14A500000000F8
:1097700000000000000000000000000000000000E9
:1097800000000000000000000000000000000000D9
:1097900000000000000000000000000000000000C9
:1097A00000000000000096B5FFFF2C6300000000E1
:1097B00000000000000000000000000000000000A9
:1097C0000000000000000000000000000000000099
:1097D0000000000000000000000000000000000089
:1097E0000000000000000000000000000000000079
:1097F0000000000000000000000000000000000069
:109800000000000000000000000000000000000058
:109810000000000000000000000000000000000048
:109820000000000000000000000000000000000038
:109830000000000000000000000000000000000028
:109840000000000000000000000000000000000018
:109850000000000000000000000000000000000008
:10986000000000000000AA52BEF7CF7B00000000FD
:1098700000000000000000000000000000000000E8
:1098800000000000000000000000000000000000D8
:1098900000000000000000000000000000000000C8
:1098A0000000000000003084BEF7E739000000002F
:1098B00000000000000000000000000000000000A8
:1098C0000000000000000000000000000000000098
:1098D0000000000000000000000000000000000088
:1098E0000000000000000000000000000000000078
:10A7500000000000E7392C632C632C6324210000E7
:10A7600000000000000000000000000000000000E9
:10A7700000000000000000000000000000000000D9
:10A7800000000000000000000000000000000000C9
:10A7900000000000000000000000000000000000B9
:10A7A00000000000000000000000000000000000A9
:10A7B0000000000000000000000000000000000099
:10A7C0000000000000000000000000000000000089
:10A7D0000000000000000000000000000000000079
:10A7E0000000000000000000000000000000000069
:10A7F0000000000000000000000000000000000059
:10A800000000000000000000000000000000000048
:10A810000000000000000000000000000000000038
:10A820000000000000000000000000000000000028
:10A830000000000000000000000000000000000018
:10A840000000000000000000000000000000E739E8
:10A85000F7BDBEF7BEF7BAD6BAD6BEF7FFFF5DEFBB
:10A86000F7BDAA5200000000000000000000000038
:10A87000000000003084FBDEFFFFFFFFBEF7F7BDE6
:10A880002C6300000000000000000000E739F7BD65
:10A890005DEFFFFFFFFFBEF759CE3084242100009B
:10A8A000AA52BAD6BAD6BAD6BAD6BAD6BAD6BAD6BC
:10A8B000000000000000000000000000242114A59A
:10A8C000FBDEFFFFFFFF5DEF14A52421000096B51E
:10A8D000BAD6BAD6BAD6BAD6BAD6BAD63084000064
:10A8E00000003084BAD6BAD6BAD6BAD6BAD6BAD654
:10A8F00096B500000000000000000000000000000D
:10A90000CF7B59CE5DEFFFFFFFFFFBDEF7BDAA5205
:10A910000000000000000000000000000000000037
:10A920000000000000000000000000000000000027
:10A930000000000000000000000000000000000017
:10A9400000000000000000000000242196B5FFFF79
:10A95000F7BDAA520000000000002421FFFFFFFF06
:10A96000FFFFFFFF59CE242100000000000000007F
:10A970000000F7BDFFFFFFFFFFFFFFFFFFFFFFFF2F
:10A98000FFFF96B5000000000000CF7BFFFFFFFF38
:10A99000FFFFFFFFFFFFFFFFFFFFFFFFBEF714A555
:10A9A0002C63FFFFFFFFFFFFFFFFFFFFFFFFFFFF26
:10A9B000000000000000000000003084BEF7FFFF30
:10A9C000FFFFFFFFFBDE14A5FBDE5DEFAA52BAD648
:10A9D000FFFFFFFFFFFFFFFFFFFFFFFF14A50000CA
:10A9E000000014A5FFFFFFFFFFFFFFFFFFFFFFFFBA
:10A9F000BAD600000000000000000000E739BAD617
:10AA0000FFFFFFFFFFFF14A50000E739B2945DEFE1
:10AA100059CE2421000000000000000000000000CA
:10AA20000000000000000000000000000000000026
:10AA30000000000000000000000000000000000016
:10AA400000000000000000002421FBDEFBDEAA5213
:10AA5000000000000000000000002C63FFFFFFFF6B
:10AA6000FFFFFFFFFFFFFBDE000000000000000013
:10AA70003084FFFFFFFFFFFFFFFFFFFFFFFFB294E8
:10AA8000E739FBDEB29400002421BEF7FFFFFFFF91
:10AA9000FFFFFFFFFFFFBEF72421000030845DEFC2
:10AAA000BEF7FFFFFFFFFFFFFFFFFFFFFFFFFFFFFF
:10AAB00000000000000000003084FFFFFFFFFFFFE8
:10AAC000FFFFFFFF2C6300000000B294BEF75DEFB4
:10AAD000FFFFFFFFFFFFFFFFFFFFFFFF14A50000C9
:10AAE000000014A5FFFFFFFFFFFFFFFFFFFFFFFFB9
:10AAF000BAD60000000000000000AA52BEF7FFFF17
:10AB0000FFFFFFFFFFFF14A5000000000000000092
:10AB100014A5FBDE2421000000000000000000005E
:10AB20000000000000000000000000000000000025
:10AB30000000000000000000000000000000000015
:10AB40000000000000000000E73959CE2421000079
:10AB50000000000000000000E739BEF7FFFFFFFF24
:10AB6000FFFFFFFFFFFFFFFF14A500000000000034
:10AB7000BAD6FFFFFFFFFFFFFFFFFFFFFFFF2C63C2
:10AB80000000E7395DEF2421CF7BFFFFFFFFFFFFD0
:10AB9000FFFFFFFFFFFFBAD600000000000000002B
:10ABA00096B5FFFFFFFFFFFFFFFFFFFFFFFFFFFF68
:10ABB0000000000000002C63FFFFFFFFFFFFFFFF0E
:10ABC000FFFFFFFF2C630000000000003084FFFF48
:10ABD000FFFFFFFFFFFFFFFFFFFFFFFF14A50000C8
:10ABE000000014A5FFFFFFFFFFFFFFFFFFFFFFFFB8
:10ABF000BAD60000000000002421BEF7FFFFFFFFCF
:10AC0000FFFFFFFFFFFF14A5000000000000000091
:10AC10000000B294BAD6000000000000000000005E
:10AC20000000000000000000000000000000000024
:10AC30000000000000000000000000000000000014
:10AC40000000000000000000000000000000000004
:10AC50000000000000002421FBDEFFFFFFFFFFFFDC
:10AC6000FFFFFFFFFFFFFFFF5DEF000000000000A0
:10AC7000FFFFFFFFFFFFFFFFFFFFFFFFFFFF2C6353
:10AC800000000000F7BD2C6314A5FFFFFFFFFFFFCE
:10AC9000FFFFFFFFFFFFBAD600000000000000002A
:10ACA0002C63FFFFFFFFFFFFFFFFFFFFFFFFFFFF23
:10ACB0000000000000005DEFFFFFFFFFFFFFFFFF50
:10ACC000FFFFFFFF2C630000000000000000BAD669
:10ACD000FFFFFFFFFFFFFFFFFFFFFFFF14A50000C7
:10ACE000000014A5FFFFFFFFFFFFFFFFFFFFFFFFB7
:10ACF000BAD6000000000000F7BDFFFFFFFFFFFF16
:10AD0000FFFFFFFFFFFF14A5000000000000000090
:10AD100000000000BAD630840000000000000000EF
:10AD20000000000000000000000000000000000023
:10AD30000000000000000000000000000000000013
:10AD40000000000000000000000000000000000003
:10AD5000000000002421FBDEFFFFFFFFFFFFFFFFDD
:10AD6000FFFFFFFFFFFFFFFFFFFF000000000000ED
:10AD7000FFFFFFFFFFFFFFFFFFFFFFFFFFFF2C6352
:10AD8000000000000000000014A5FFFFFFFFFFFF10
:10AD9000FFFFFFFFFFFFBAD6000000000000000029
:10ADA0002C63FFFFFFFFFFFFFFFFFFFFFFFFFFFF22
:10ADB00000000000CF7BFFFFFFFFFFFFFFFFFFFF53
:10ADC000FFFFFFFF2C630000000000000000BAD668
:10ADD000FFFFFFFFFFFFFFFFFFFFFFFF14A50000C6
:10ADE000000014A5FFFFFFFFFFFFFFFFFFFFFFFFB6
:10ADF000BAD6000000002421FFFFFFFFFFFFFFFF86
:10AE0000FFFFFFFFFFFF14A500000000000000008F
:10AE1000000000002C63BAD6000000000000000013
:10AE20000000000000000000000000000000000022
:10AE30000000000000000000000000000000000012
:10AE40000000000000000000000000000000000002
:10AE500000002421FBDEFFFFFFFFFFFFFFFFFFFFDE
:10AE6000FFFFFFFFFFFFFFFFBEF700000000000035
:10AE7000FFFFFFFFFFFFFFFFFFFFFFFFFFFF2C6351
:10AE8000000000000000000014A5FFFFFFFFFFFF0F
:10AE9000FFFFFFFFFFFFBAD6000000000000000028
:10AEA0002C63FFFFFFFFFFFFFFFFFFFFFFFFFFFF21
:10AEB0000000000096B5FFFFFFFFFFFFFFFFFFFF51
:10AEC000FFFFFFFF2C630000000000000000BAD667
:10AED000FFFFFFFFFFFFFFFFFFFFFFFF14A50000C5
:10AEE000000014A5FFFFFFFFFFFFFFFFFFFFFFFFB5
:10AEF000BAD600000000CF7BFFFFFFFFFFFFFFFF80
:10AF0000FFFFFFFFFFFF14A500000000000000008E
:10AF1000000000000000BEF7242100000000000037
:10AF20000000000000000000000000000000000021
:10AF30000000000000000000000000000000000011
:10AF40000000000000000000000000000000000001
:10AF50002421FBDEFFFFFFFFFFFFFFFFFFFFFFFFDF
:10AF6000FFFFFFFFFFFFFFFFF7BD00000000000035
:10AF7000FFFFFFFFFFFFFFFFFFFFFFFFFFFF2C6350
:10AF8000000000000000000014A5FFFFFFFFFFFF0E
:10AF9000FFFFFFFFFFFFBAD6000000000000000027
:10AFA0002C63FFFFFFFFFFFFFFFFFFFFFFFFFFFF20
:10AFB00000000000BAD6FFFFFFFFFFFFFFFFFFFF0B
:10AFC000FFFFFFFF2C630000000000000000BAD666
:10AFD000FFFFFFFFFFFFFFFFFFFFFFFF14A50000C4
:10AFE000000014A5FFFFFFFFFFFFFFFFFFFFFFFFB4
:10AFF000BAD60000000014A5FFFFFFFFFFFFFFFF10
:10B00000FFFFFFFFFFFF14A500000000000000008D
:10B01000000000000000BAD62C6300000000000011
:10B020000000000000000000000000000000000020
:10B030000000000000000000000000000000000010
:10B040000000000000000000000000000000000000
:10B05000F7BDFFFFFFFFFFFFFFFFFFFFFFFFFFFF4A
:10B06000FFFFFFFFFFFFFFFFE739000000000000C8
:10B07000FFFFFFFFFFFFFFFFFFFFFFFFFFFF2C634F
:10B08000000000000000000014A5FFFFFFFFFFFF0D
:10B09000FFFFFFFFFFFFBAD6000000000000000026
:10B0A0002C63FFFFFFFFFFFFFFFFFFFFFFFFFFFF1F
:10B0B00000000000BAD6FFFFFFFFFFFFFFFFFFFF0A
:10B0C000FFFFFFFF2C630000000000000000BAD665
:10B0D000FFFFFFFFFFFFFFFFFFFFFFFF14A50000C3
:10B0E000000014A5FFFFFFFFFFFFFFFFFFFFFFFFB3
:10B0F000BAD60000000014A5FFFFFFFFFFFFFFFF0F
:10B10000FFFFFFFFFFFF14A500000000000000008C
:10B11000000000000000BAD62C6300000000000010
:10B12000000000000000000000000000000000001F
:10B13000000000000000000000000000000000000F
:10B14000000000000000000000000000000096B5B4
:10B15000FFFFFFFFFFFFFFFFFFFFFFFFFFFFFFFFFF
:10B16000FFFFFFFFFFFF14A500000000000000002C
:10B17000FFFFFFFFFFFFFFFFFFFFFFFFFFFF2C634E
:10B18000000000000000000014A5FFFFFFFFFFFF0C
:10B19000FFFFFFFFFFFFBAD6000000000000000025
:10B1A0002C63FFFFFFFFFFFFFFFFFFFFFFFFFFFF1E
:10B1B00000000000BAD6FFFFFFFFFFFFFFFFFFFF09
:10B1C000FFFFFFFF2C630000000000000000BAD664
:10B1D000FFFFFFFFFFFFFFFFFFFFFFFF14A50000C2
:10B1E000000014A5FFFFFFFFFFFFFFFFFFFFFFFFB2
:10B1F000BAD600000000B294FFFFFFFFFFFFFFFF81
:10B20000FFFFFFFFFFFF14A500000000000000008B
:10B210000000000000005DEFE739000000000000C2
:10B22000000000000000000000000000000000001E
:10B23000000000000000000000000000000000000E
:10B24000000000000000000000000000CF7BFFFFB6
:10B25000FFFFFFFFFFFFFFFFFFFFFFFFFFFFFFFFFE
:10B26000FFFFFFFF59CE00000000000000000000BB
:10B27000FFFFFFFFFFFFFFFFFFFFFFFFFFFF2C634D
:10B28000000000000000000014A5FFFFFFFFFFFF0B
:10B29000FFFFFFFFFFFFBAD6000000000000000024
:10B2A0002C63FFFFFFFFFFFFFFFFFFFFFFFFFFFF1D
:10B2B0000000000014A5FFFFFFFFFFFFFFFFFFFFDF
:10B2C000FFFFFFFF2C630000000000000000BAD663
:10B2D000FFFFFFFFFFFFFFFFFFFFFFFF14A50000C1
:10B2E000000014A5FFFFFFFFFFFFFFFFFFFFFFFFB1
:10B2F000BAD600000000AA52FFFFFFFFFFFFFFFFCA
:10B30000FFFFFFFFFFFF14A500000000000000008A
:10B3100000000000E739BEF7000000000000000058
:10B32000000000000000000000000000000000001D
:10B33000000000000000000000000000000000000D
:10B34000000000000000000000002421BEF7FFFF05
:10B35000FFFFFFFFFFFFFFFFFFFFFFFFFFFFFFFFFD
:10B36000FFFFFBDE242100000000000000000000C1
:10B37000FFFFFFFFFFFFFFFFFFFFFFFFFFFF2C634C
:10B38000000000000000000014A5FFFFFFFFFFFF0A
:10B39000FFFFFFFFFFFFBAD6000000000000000023
:10B3A0002C63FFFFFFFFFFFFFFFFFFFFFFFFFFFF1C
:10B3B00000000000AA52FFFFFFFFFFFFFFFFFFFF9B
:10B3C000FFFFFFFF2C630000000000000000BAD662
:10B3D000FFFFFFFFFFFFFFFFFFFFFFFF14A50000C0
:10B3E000000014A5FFFFFFFFFFFFFFFFFFFFFFFFB0
:10B3F000BAD60000000000005DEFFFFFFFFFFFFF77
:10B40000FFFFFFFFFFFF14A5000000000000000089
:10B410000000000014A596B5000000000000000028
:10B42000000000000000000000000000000000001C
:10B43000000000000000000000000000000000000C
:10B440000000000000000000000014A5FFFFFFFF47
:10B45000FFFFFFFFFFFFFFFFFFFFFFFFFFFFFFFFFC
:10B460005DEF24210000000000000000000000004B
:10B47000FFFFFFFFFFFFFFFFFFFFFFFFFFFF2C634B
:10B48000000000000000000014A5FFFFFFFFFFFF09
:10B49000FFFFFFFFFFFFBAD6000000000000000022
:10B4A0002C63FFFFFFFFFFFFFFFFFFFFFFFFFFFF1B
:10B4B00000000000000059CEFFFFFFFFFFFFFFFF6D
:10B4C000FFFFFFFF2C630000000000000000BAD661
:10B4D000FFFFFFFFFFFFFFFFFFFFFFFF14A50000BF
:10B4E000000014A5FFFFFFFFFFFFFFFFFFFFFFFFAF
:10B4F000BAD6000000000000CF7BFFFFFFFFFFFF78
:10B50000FFFFFFFFFFFF14A5000000000000000088
:10B510000000AA525DEF242100000000000000009E
:10B52000000000000000000000000000000000001B
:10B53000000000000000000000000000000000000B
:10B54000000000000000000000005DEFFFFFFFFFB3
:10B55000FFFFFFFFFFFFFFFFFFFFFFFFFFFFBEF744
:10B56000AA520000000000000000000000000000DF
:10B57000FFFFFFFFFFFFFFFFFFFFFFFFFFFF2C634A
:10B58000000000000000000014A5FFFFFFFFFFFF08
:10B59000FFFFFFFFFFFFBAD6000000000000000021
:10B5A0002C63FFFFFFFFFFFFFFFFFFFFFFFFFFFF1A
:10B5B00000000000000024215DEFFFFFFFFFFFFF00
:10B5C000FFFFFFFF2C6300000000000024215DEF5F
:10B5D000FFFFFFFFFFFFFFFFFFFFFFFF14A50000BE
:10B5E000000014A5FFFFFFFFFFFFFFFFFFFFFFFFAE
:10B5F000BAD60000000000000000F7BDFFFFFFFF0B
:10B60000FFFFFFFFFFFF14A5000000000000000087
:10B61000AA52BEF7308400000000000000000000C5
:10B62000000000000000000000000000000000001A
:10B63000000000000000000000000000000000000A
:10B6400000000000000000000000FFFFFFFFFFFF00
:10B65000FFFFFFFFFFFFFFFFFFFFFFFFBEF7AA5245
:10B6600000000000000000000000000000000000DA
:10B67000FFFFFFFFFFFFFFFFFFFFFFFFFFFF2C6349
:10B68000000000000000000014A5FFFFFFFFFFFF07
:10B69000FFFFFFFFFFFFBAD6000000000000000020
:10B6A0002C63FFFFFFFFFFFFFFFFFFFFFFFFFFFF19
:10B6B0000000000000000000AA52FBDEFFFFFFFFB9
:10B6C000FFFFFFFF2C63000000002C63FBDE5DEF3B
:10B6D000FFFFFFFFFFFFFFFFFFFFFFFF14A50000BD
:10B6E000000014A5FFFFFFFFFFFFFFFFFFFFFFFFAD
:10B6F000BAD60000000000000000000096B5FFFF71
:10B70000FFFFFFFFFFFF14A5000000000000B29440
:10B710005DEF308400000000000000000000000029
:10B720000000000000000000000000000000000019
:10B730000000000000000000000000000000000009
:10B7400000000000000000000000FFFFFFFFFFFFFF
:10B75000FFFFFFFFFFFFFFFFFFFFFFFFAA520000F9
:10B7600000000000000000000000E739BAD6BAD699
:10B77000FFFFFFFFFFFFFFFFFFFFFFFFFFFFFBDEFE
:10B78000BAD6BAD63084000014A5FFFFFFFFFFFF32
:10B79000FFFFFFFFFFFFBAD600000000000000001F
:10B7A0002C63FFFFFFFFFFFFFFFFFFFFFFFFFFFF18
:10B7B00000000000000000000000242114A5BEF7D6
:10B7C000FFFFFFFFFBDE14A5FBDEBAD6E739BAD6D2
:10B7D000FFFFFFFFFFFFFFFFFFFFFFFF14A50000BC
:10B7E000000014A5FFFFFFFFFFFFFFFFFFFFFFFFAC
:10B7F000BAD60000000000000000000000002C632A
:10B80000BAD6FFFFFFFFBAD614A5F7BDBEF7F7BD46
:10B81000E739000000000000000000000000000008
:10B820000000000000000000000000000000000018
:10B830000000000000000000000000000000000008
:10B840000000000000000000000059CEFFFFFFFFD5
:10B85000FFFFFFFFFFFFFFFFFFFF3084000000003E
:10B860000000000000000000000024212C632C6375
:10B87000FFFFFFFFFFFFFFFFFFFFFFFFFFFF2C6347
:10B880002C632C63E7390000E7392C632C632C63AD
:10B890002C632C632C63AA520000000000000000FF
:10B8A00024212C632C632C632C632C632C632C636A
:10B8B0000000000000000000000000000000000088
:10B8C0002C6314A514A53084E73900000000BAD613
:10B8D000FFFFFFFFFFFFFFFFFFFFFFFF14A50000BB
:10B8E0000000E7392C632C632C632C632C632C63DE
:10B8F000AA5200000000000000000000000000004C
:10B900000000E739308414A514A5CF7B2421000062
:10B910000000000000000000000000000000000027
:10B920000000000000000000000000000000000017
:10B930000000000000000000000000000000000007
:10B9400000000000000000000000AA52FFFFFFFFFF
:10B95000FFFFFFFFFFFFFFFF14A500000000000036
:10B9600000000000AA52AA520000000000000000DF
:10B97000FFFFFFFFFFFFFFFFFFFFFFFFFFFF242190
:10B9800000000000000000000000000000000000B7
:10B9900000000000000000000000000000000000A7
:10B9A0000000000000000000000000000000000097
:10B9B0000000000000000000000000000000000087
:10B9C0000000000000000000000000000000BAD6E7
:10B9D000FFFFFFFFFFFFFFFFFFFFFFFF14A50000BA
:10B9E000000000002421308414A514A53084E73918
:10B9F0000000000000000000000000000000000047
:10BA00000000000000000000000000000000000036
:10BA10000000000000000000000000000000000026
:10BA20000000000000000000000000000000000016
:10BA30000000000000000000000000000000000006
:10BA40000000000000000000000000003084FFFF44
:10BA5000FFFFFFFFFFFFFFFF2421000000000000A9
:10BA60000000B294FFFF2C63000000000000000003
:10BA7000E73914A55DEFFFFFFFFFFFFFFFFF2C631A
:10BA800000000000000000000000000000000000B6
:10BA900000000000000000000000000000000000A6
:10BAA0000000000000000000000000000000000096
:10BAB0000000000000000000000000000000000086
:10BAC0000000000000000000000000000000BAD6E6
:10BAD000FFFFFFFFFFFFFFFFFFFFFFFF14A50000B9
:10BAE0000000E739BEF7FFFFFFFFFFFFFFFFBEF7D4
:10BAF000CF7B0000000000000000000000000000FC
:10BB00000000000000000000000000000000000035
:10BB10000000000000000000000000000000000025
:10BB20000000000000000000000000000000000015
:10BB30000000000000000000000000000000000005
:10BB40000000000000000000000000000000AA52F9
:10BB5000BAD6FFFFFFFFFFFF14A52C632C6396B539
:10BB60005DEFBAD6AA5200000000000000000000FD
:10BB700000000000000030845DEFFFFFFFFF2C633A
:10BB800000000000000000000000000000000000B5
:10BB900000000000000000000000000000000000A5
:10BBA0000000000000000000000000000000000095
:10BBB0000000000000000000000000000000000085
:10BBC0000000000000000000000000000000BAD6E5
:10BBD000FFFFFFFFFFFFFFFFFFFFFFFF14A50000B8
:10BBE000000014A5FFFFFFFFFFFFFFFFFFFFFFFFA8
:10BBF000BAD60000000000000000000000000000B5
:10BC00000000000000000000000000000000000034
:10BC10000000000000000000000000000000000024
:10BC20000000000000000000000000000000000014
:10BC30000000000000000000000000000000000004
:10BC400000000000000000000000000000000000F4
:10BC50000000E739B294F7BDBAD6BAD659CE14A5CA
:10BC6000AA520000000000000000000000000000D8
:10BC70000000000000000000000030845DEF2C6335
:10BC800000000000000000000000000000000000B4
:10BC900000000000000000000000000000000000A4
:10BCA0000000000000000000000000000000000094
:10BCB0000000000000000000000000000000000084
:10BCC0000000000000000000000000000000AA5278
:10BCD0002C632C632C632C632C632C63E7390000EA
:10BCE00000002C63FFFFFFFFFFFFFFFFFFFFFFFFD1
:10BCF00014A500000000000000000000000000008B
:10BD00000000000000000000000000000000000033
:10BD10000000000000000000000000000000000023
:10BD20000000000000000000000000000000000013
:10BD30000000000000000000000000000000000003
:10BD400000000000000000000000000000000000F3
:10BD500000000000000000000000000000000000E3
:10BD600000000000000000000000000000000000D3
:10BD70000000000000000000000000002421242139
:10BD800000000000000000000000000000000000B3
:10BD900000000000000000000000000000000000A3
:10BDA0000000000000000000000000000000000093
:10BDB0000000000000000000000000000000000083
:10BDC0000000000000000000000000000000000073
:10BDD0000000000000000000000000000000000063
:10BDE000000000002C63F7BDBAD6BAD659CE308415
:10BDF0000000000000000000000000000000000043
:10BE00000000000000000000000000000000000032
:10BE10000000000000000000000000000000000022
:10BE20000000000000000000000000000000000012
:10C8400024210000000000000000000000000000A3
:10C850000000000000000000000024210000000093
:10C8600000000000000000000000000000000000C8
:10C8700000000000000000000000000000000000B8
:10C8800000000000000000000000000000000000A8
:10C890000000000000000000000000000000000098
:10C8A0000000000000000000000000000000000088
:10C8B0000000000000000000000000000000000078
:10C8C0000000000000000000000000000000000068
:10C8D0000000000000000000000000000000000058
:10C8E0000000000000000000000000000000000048
:10C8F0000000000000000000000000000000000038
:10C900000000000000000000000000000000000027
:10C910000000000000000000000000000000000017
:10C920000000000000000000000000000000000007
:10C9300000000000000000000000000000000000F7
:10C94000F7BD000000000000000000000000000033
:10C950000000000000000000242159CE000000006B
:10C9600000000000000000000000000000000000C7
:10C9700000000000000000000000000000000000B7
:10C9800000000000000000000000000000000000A7
:10C99000AA5200000000000000000000000000009B
:10C9A0000000000000000000000000000000000087
:10C9B0000000000000000000000000000000000077
:10C9C0000000000000000000000000000000000067
:10C9D0000000000000000000000000000000000057
:10C9E0000000000000000000000000000000000047
:10C9F0000000000000000000000000000000000037
:10CA00000000000000000000000000000000000026
:10CA10000000000000000000000000000000000016
:10CA20000000000000000000000000000000000006
:10CA30000000000000000000000000000000CF7BAC
:10CA4000FFFF2C6300000000000000000000000059
:10CA5000000000000000000014A5FFFFE7390000FF
:10CA600000000000000000000000000000000000C6
:10CA7000000000000000E73996B5FBDEFFFFFFFF76
:10CA8000BEF759CE308424210000000000000000D1
:10CA90005DEFCF7B00000000000000000000000000
:10CAA00000000000000000000000E739BAD6BAD646
:10CAB000BAD6BAD6BAD6BAD6BAD6BAD6BAD6BAD6F6
:10CAC00024210000000000000000308459CE5DEFFA
:10CAD000FFFFFFFF5DEFF7BD2C63000000000000CB
:10CAE0000000000000000000242114A55DEFFFFFFE
:10CAF000FFFF5DEF96B5E739000000000000000081
:10CB00000000000000000000000000000000000025
:10CB10000000000000000000000000000000000015
:10CB20000000000000000000000000000000000005
:10CB3000000000000000000000000000000059CECE
:10CB4000FFFF5DEF0000000000000000000000009B
:10CB5000000000000000E739FFFFFFFFF7BD000005
:10CB600000000000000000000000000000000000C5
:10CB70000000000014A5FFFFFFFFBEF7AA5200004F
:10CB80002421CF7BBAD6BEF7B2940000000000008B
:10CB900030845DEF24210000000000000000000050
:10CBA00000000000000000000000F7BDFFFFFFFFD5
:10CBB000FFFFFFFFFFFFFFFFFFFFFFFFFFFF14A5CA
:10CBC000000000000000AA52FBDEFFFFFFFFFFFF96
:10CBD00059CE00002421CF7BBAD6BAD6E73900005F
:10CBE0000000000000002421FBDEFFFFFFFFFFFF2D
:10CBF000FFFFFFFFFFFFBEF73084000000000000D2
:10CC00000000000000000000000000000000000024
:10CC10000000000000000000000000000000000014
:10CC20000000000000000000000000000000000004
:10CC3000000000000000000000000000E739FFFFD6
:10CC4000FFFFFFFF30840000000000000000000034
:10CC5000000000000000F7BDFFFFFFFFFFFF2421E1
:10CC600000000000000000000000000000000000C4
:10CC70000000F7BDFFFFFFFFFFFFBAD60000000076
:10CC80000000000000002C63BEF759CE24210000F4
:10CC90000000BAD6F7BD2C632C632C632C632C6385
:10CCA0002C632C632C632C633084FFFFFFFFFFFF9A
:10CCB000FFFFFFFFFFFFFFFFFFFFFFFFBEF7242186
:10CCC00000000000AA52BEF7FFFFFFFFFFFFFFFFBB
:10CCD00014A50000000000000000CF7B5DEFAA5209
:10CCE000000000000000F7BDFFFFFFFFFFFFFFFF98
:10CCF000FFFFFFFFAA522C63BEF7AA5200000000FC
:10CD00000000000000000000000000000000000023
:10CD10000000000000000000000000000000000013
:10CD20000000000000000000000000000000000003
:10CD300000000000000000000000000014A5FFFF3C
:10CD4000FFFFFFFFBEF724210000000000000000ED
:10CD500000000000E739FFFFFFFFFFFFFFFF14A502
:10CD600000000000000000000000000000000000C3
:10CD700014A5FFFFFFFFFFFFFFFFBAD60000000072
:10CD800000000000000000002421FBDEBAD60000F5
:10CD900000002C63FFFFFBDEBAD6BAD6BAD6BAD6ED
:10CDA000BAD6BAD6BAD6BAD6BEF7FFFFFFFFFFFF94
:10CDB000FFFFFFFFFFFFFFFFFFFFFFFFB294000039
:10CDC00000002421BEF7FFFFFFFFFFFFFFFFFFFF73
:10CDD00014A500000000000000000000AA525DEF52
:10CDE000AA5200000000FFFFFFFFFFFFFFFFFFFF51
:10CDF000FFFFFFFF00000000CF7BBAD6000000005D
:10CE00000000000000000000000000000000000022
:10CE10000000000000000000000000000000000012
:10CE20000000000000000000000000000000000002
:10CE30000000000000000000000000005DEFFFFFA8
:10CE4000FFFFFFFFFFFF14A500000000000000002F
:10CE500000000000F7BDFFFFFFFFFFFFFFFFBEF771
:10CE60000000000000000000000000000000E739A2
:10CE7000FFFFFFFFFFFFFFFFFFFFBAD6000000002C
:10CE800000000000000000000000AA52BEF7AA52F5
:10CE900000000000F7BDF7BD00000000000000002A
:10CEA000000000000000AA52FFFFFFFFFFFFFFFF8E
:10CEB000FFFFFFFFFFFFFFFFFFFF5DEF0000000030
:10CEC0000000F7BDFFFFFFFFFFFFFFFFFFFFFFFFBA
:10CED00014A5000000000000000000000000B29453
:10CEE00059CE00002C63FFFFFFFFFFFFFFFFFFFF96
:10CEF000FFFFFFFF0000000000005DEF00000000EA
:10CF00000000000000000000000000000000000021
:10CF10000000000000000000000000000000000011
:10CF20000000000000000000000000000000000001
:10CF300000000000000000000000CF7BFFFFFFFFAB
:10CF4000FFFFFFFFFFFFBEF72421000000000000ED
:10CF500000002C63FFFFFFFFFFFFFFFFFFFFFFFF4E
:10CF6000308400000000000000000000000014A554
:10CF7000FFFFFFFFFFFFFFFFFFFFBAD6000000002B
:10CF8000000000000000000000000000E739000081
:10CF9000000000002421BEF7AA520000000000009B
:10CFA000000000000000BAD6FFFFFFFFFFFFFFFFF9
:10CFB000FFFFFFFFFFFFFFFFFFFFCF7B0000000031
:10CFC0002421FFFFFFFFFFFFFFFFFFFFFFFFFFFF2A
:10CFD00014A5000000000000000000000000000098
:10CFE000E73900002C63FFFFFFFFFFFFFFFFFFFF9C
:10CFF000FFFFFFFF00000000000000000000000035
:10D000000000000000000000000000000000000020
:10D010000000000000000000000000000000000010
:10D020000000000000000000000000000000000000
:10D0300000000000000000000000BAD6FFFFFFFF64
:10D04000FFFFFFFFFFFFFFFFF7BD00000000000034
:10D050000000BAD6FFFFFFFFFFFFFFFFFFFFFFFF4C
:10D060005DEF000000000000000000000000FBDE9B
:10D07000FFFFFFFFFFFFFFFFFFFFBAD6000000002A
:10D0800000000000000000000000000000000000A0
:10D09000000000000000B294BAD6000000000000BA
:10D0A000000000002C63FFFFFFFFFFFFFFFFFFFFFB
:10D0B000FFFFFFFFFFFFFFFFBAD6000000000000E8
:10D0C000CF7BFFFFFFFFFFFFFFFFFFFFFFFFFFFF24
:10D0D00014A5000000000000000000000000000097
:10D0E000000000002C63FFFFFFFFFFFFFFFFFFFFBB
:10D0F000FFFFFFFF00000000000000000000000034
:10D10000000000000000000000000000000000001F
:10D11000000000000000000000000000000000000F
:10D1200000000000000000000000000000000000FF
:10D130000000000000000000E739FFFFFFFFFFFFD5
:10D14000FFFFFFFFFFFFFFFFFFFFE73900000000C9
:10D150002C63FFFFFFFFFFFFFFFFFFFFFFFFFFFF4E
:10D16000FFFF2C6300000000000000000000FFFF34
:10D17000FFFFFFFFFFFFFFFFFFFFFBDE2C632C63C2
:10D180002C632C632C632C632C632C632C63AA52BA
:10D1900000000000000000005DEFCF7B00000000F9
:10D1A00000000000BAD6FFFFFFFFFFFFFFFFFFFFF9
:10D1B000FFFFFFFFFFFFFFFF2C63000000000000E8
:10D1C00014A5FFFFFFFFFFFFFFFFFFFFFFFFFFFFB4
:10D1D00014A5000000000000000000000000000096
:10D1E000000000002C63FFFFFFFFFFFFFFFFFFFFBA
:10D1F000FFFFFFFF00000000000000000000000033
:10D20000000000000000000000000000000000001E
:10D21000000000000000000000000000000000000E
:10D2200000000000000000000000000000000000FE
:10D23000000000000000000096B5FFFFFFFFFFFFA9
:10D24000FFFFFFFFFFFFFFFFFFFFBAD60000000058
:10D250005DEFFFFFFFFFFFFFFFFFFFFFFFFFFFFF90
:10D26000FFFFBAD600000000000000000000FFFF32
:10D27000FFFFFFFFFFFFFFFFFFFFBEF7BAD6BAD6E3
:10D28000BAD6FBDEFFFFFFFFFFFFFFFFFFFFBAD6AF
:10D2900000000000000000002C635DEF242100006E
:10D2A00000003084FFFFFFFFFFFFFFFFFFFFFFFFD6
:10D2B000FFFFFFFFFFFFF7BD0000000000000000C0
:10D2C00014A5FFFFFFFFFFFFFFFFFFFFFFFFFFFFB3
:10D2D00014A5000000000000000000000000000095
:10D2E000000000002C63FFFFFFFFFFFFFFFFFFFFB9
:10D2F000FFFFFFFF00000000000000000000000032
:10D30000000000000000000000000000000000001D
:10D31000000000000000000000000000000000000D
:10D3200000000000000000000000000000000000FD
:10D330000000000000000000BEF7FFFFFFFFFFFF3E
:10D34000FFFFFFFFFFFFFFFFFFFFFFFF2C63B29414
:10D35000FFFFFFFFFFFFFFFFFFFFFFFFFFFFFFFFDD
:10D36000FFFFBEF7AA5200000000000000005DEFC2
:10D37000FFFFFFFFFFFFFFFFFFFFBAD60000000027
:10D3800000002C63FFFFFFFFFFFFFFFFFFFFF7BD64
:10D390000000000000000000000059CE14A50000AD
:10D3A00000005DEFFFFFFFFFFFFFFFFFFFFFFFFF3D
:10D3B000FFFFFFFFBEF7E73900000000000000009C
:10D3C000B294FFFFFFFFFFFFFFFFFFFFFFFFFFFF25
:10D3D00014A5000000000000000000000000000094
:10D3E000000000002C63FFFFFFFFFFFFFFFFFFFFB8
:10D3F000FFFFFFFF00000000000000000000000031
:10D40000000000000000000000000000000000001C
:10D41000000000000000000000000000000000000C
:10D4200000000000000000000000000000000000FC
:10D430000000000000003084FFFFFFFFFFFFFFFF40
:10D44000FFFFFFFFFFFFFFFFF7BD14A55DEFBEF776
:10D45000FFFFFFFFFFFFFFFFFFFFFFFFFFFFFFFFDC
:10D46000F7BDF7BDF7BD0000000000000000F7BDEC
:10D47000FFFFFFFFFFFFFFFFFFFFBAD60000000026
:10D4800000002C63FFFFFFFFFFFFFFFFFFFFB294D1
:10D4900000000000000000000000E7395DEFE73900
:10D4A0003084FFFFFFFFFFFFFFFFFFFFFFFFFFFFD6
:10D4B000FFFFFFFF14A500000000000000000000B7
:10D4C000AA52FFFFFFFFFFFFFFFFFFFFFFFFFFFF6E
:10D4D00014A5000000000000000000000000000093
:10D4E000000000002C63FFFFFFFFFFFFFFFFFFFFB7
:10D4F000FFFFFFFF00000000000000000000000030
:10D50000000000000000000000000000000000001B
:10D51000000000000000000000000000000000000B
:10D5200000000000000000000000000000000000FB
:10D53000000000000000BAD6FFFFFFFFFFFFFFFF63
:10D54000FFFFFFFFFFFFFFFFAA522421BEF7FFFFEF
:10D55000FFFFFFFFFFFFFFFFFFFFFFFFFFFFBEF724
:10D560002421E739FFFFE7390000000000002C63A9
:10D57000FFFFFFFFFFFFFFFFFFFFBAD60000000025
:10D5800000002C63FFFFFFFFFFFFFFFFFFFFE739F6
:10D5900000000000000000000000000014A559CEAB
:10D5A0005DEFFFFFFFFFFFFFFFFFFFFFFFFFFFFF3D
:10D5B000FFFFBEF724210000000000000000000073
:10D5C00000005DEFFFFFFFFFFFFFFFFFFFFFFFFF1B
:10D5D00014A5000000000000000000000000000092
:10D5E000000000002C63FFFFFFFFFFFFFFFFFFFFB6
:10D5F000FFFFFFFF0000000000000000000000002F
:10D60000000000000000000000000000000000001A
:10D61000000000000000000000000000000000000A
:10D6200000000000000000000000000000000000FA
:10D6300000000000E739FFFFFFFFFFFFFFFFFFFFD4
:10D64000FFFFFFFFFFFFBAD6000000003084FFFF9E
:10D65000FFFFFFFFFFFFFFFFFFFFFFFFFFFF14A51F
:10D660000000000059CE14A50000000000000000DA
:10D67000BAD6FFFFFFFFFFFFFFFFBAD60000000092
:10D6800000002C63FFFFFFFFFFFFFFFF96B50000C8
:10D6900000000000000000000000000024215DEFF9
:10D6A000FFFFFFFFFFFFFFFFFFFFFFFFFFFFFFFF8A
:10D6B000FFFF3084000000000000000000000000B8
:10D6C0000000CF7BFFFFFFFFFFFFFFFFFFFFFFFF1C
:10D6D00014A5000000000000000000002421F7BD98
:10D6E000000000002C63FFFFFFFFFFFFFFFFFFFFB5
:10D6F000FFFFFFFF0000000000000000000000002E
:10D700000000000000000000000000000000000019
:10D710000000000000000000000000000000000009
:10D7200000000000000000000000000000000000F9
:10D730000000000096B5FFFFFFFFFFFFFFFFFFFFA8
:10D74000FFFFFFFFFFFF30840000000000005DEFDF
:10D75000FFFFFFFFFFFFFFFFFFFFFFFF5DEF242144
:10D76000000000002C63BEF7242100000000000030
:10D77000E739BEF7FFFFFFFFFFFFBAD6000000004A
:10D7800000002C63FFFFFFFFFFFFFBDE24210000F2
:10D790000000000000000000000000000000CF7B3F
:10D7A000FFFFFFFFFFFFFFFFFFFFFFFFFFFFFFFF89
:10D7B0005DEF00000000000000000000000000001D
:10D7C00000000000F7BDFFFFFFFFFFFFFFFFFFFFAF
:10D7D00014A500000000000000000000F7BDBAD64C
:10D7E000000000002C63FFFFFFFFFFFFFFFFFFFFB4
:10D7F000FFFFFFFF0000000000000000000000002D
:10D800000000000000000000000000000000000018
:10D810000000000000000000000000000000000008
:10D8200000000000000000000000000000000000F8
:10D8300000002421BEF7FFFFFFFFFFFFFFFFFFFFF8
:10D84000FFFFFFFFBEF700000000000000002C6398
:10D85000FFFFFFFFFFFFFFFFFFFFFFFF3084000020
:10D860000000000000005DEF3084000000000000B8
:10D870000000AA525DEFFFFFFFFF5DEF0000000018
:10D880000000CF7BFFFFFFFFFBDE24210000000034
:10D890000000000000000000000000000000000088
:10D8A000BAD6FFFFFFFFFFFFFFFFFFFFFFFFFFFFF6
:10D8B0002C630000000000000000000000000000D9
:10D8C00000000000000096B5FFFFFFFFFFFFFFFF15
:10D8D00096B50000000000002C63BAD6FBDE2421C0
:10D8E000000000002C63FFFFFFFFFFFFFFFFFFFFB3
:10D8F000FFFFFFFF0000000000000000000000002C
:10D900000000000000000000000000000000000017
:10D910000000000000000000000000000000000007
:10D9200000000000000000000000000000000000F7
:10D9300000003084FFFFFFFFFFFFFFFFFFFFFFFF3F
:10D94000FFFFFFFF14A50000000000000000000022
:10D95000BAD6FFFFFFFFFFFFFFFF5DEF00000000F3
:10D96000000000000000B2945DEF00000000000025
:10D9700000000000242114A5BEF7FFFFBAD614A5AD
:10D9800096B5BEF75DEF14A5000000000000000092
:10D990000000000000000000000000000000000087
:10D9A000E739FFFFFFFFFFFFFFFFFFFFFFFFBAD6D3
:10D9B0000000000000000000000000000000000067
:10D9C00000000000000000002C63BAD6FFFFFFFF3C
:10D9D000BEF796B514A5FBDE5DEF14A500000000B0
:10D9E000CF7BBAD6FBDEFFFFFFFFFFFFFFFFFFFF8E
:10D9F000FFFFFFFFBAD6BAD6BAD6AA52000000007F
:10DA00000000000000000000000000000000000016
:10DA10000000000000000000000000000000000006
:10DA200000000000000000000000000000000000F6
:10DA300000005DEFFFFFFFFFFFFFFFFFFFFFFFFFA6
:10DA4000FFFFFFFFE73900000000000000000000BA
:10DA50002C63FFFFFFFFFFFFFFFF2C6300000000B0
:10DA60000000000000002421BEF730840000000008
:10DA7000000000000000000000002C6314A514A5A5
:10DA800014A52C630000000000000000000000004E
:10DA90000000000000000000000000000000000086
:10DAA000000014A5FFFFFFFFFFFFFFFFFFFFAA52CB
:10DAB0000000000000000000000000000000000066
:10DAC000000000000000000000000000E739308482
:10DAD00014A514A5B2942C630000000000000000FF
:10DAE000E7392C63B294FFFFFFFFFFFFFFFFFFFF4B
:10DAF000FFFFFBDE2C632C632C632421000000005D
:10DB00000000000000000000000000000000000015
:10DB10000000000000000000000000000000000005
:10DB200000000000000000000000000000000000F5
:10DB30002C63FFFFFFFFFFFFFFFFFFFFFFFFFFFF64
:10DB4000FFFF59CE000000000000000000000000B0
:10DB50000000F7BDFFFFFFFFBAD600000000000085
:10DB60000000000000000000F7BDBAD60000000071
:10DB700000000000000000000000000000000000A5
:10DB80000000000000000000000000000000000095
:10DB90000000000000000000000000000000000085
:10DBA00000002421BEF7FFFFFFFFFFFFF7BD0000CD
:10DBB0000000000000000000000000000000000065
:10DBC0000000000000000000000000000000000055
:10DBD0000000000000000000000000000000000045
:10DBE000000000002C63FFFFFFFFFFFFFFFFFFFFB0
:10DBF000FFFFFBDE0000000000000000000000004E
:10DC00000000000000000000000000000000000014
:10DC10000000000000000000000000000000000004
:10DC200000000000000000000000000000000000F4
:10DC300059CEFFFFFFFFFFFFFFFFFFFFFFFFFFFFCB
:10DC4000FFFF308400000000000000000000000022
:10DC50000000E739FFFFFFFF2C6300000000000019
:10DC60000000000000000000AA52FFFF2C6300002B
:10DC700000000000000000000000000000000000A4
:10DC80000000000000000000000000000000000094
:10DC90000000000000000000000000000000000084
:10DCA000000000003084FFFFFFFFBEF724210000CA
:10DCB0000000000000000000000000000000000064
:10DCC0000000000000000000000000000000000054
:10DCD0000000000000000000000000000000000044
:10DCE000000000000000AA52F7BDBEF7FFFFFFFFD3
:10DCF000FFFFFFFF00000000000000000000000028
:10DD00000000000000000000000000000000000013
:10DD10000000000000000000000000000000000003
:10DD20000000000000000000000000000000E739D3
:10DD3000FFFFFFFFFFFFFFFFFFFFFFFFFFFFFFFFF3
:10DD4000BEF700000000000000000000000000001E
:10DD50000000000096B5BAD60000000000000000E8
:10DD600000000000000000000000FBDEF7BD000026
:10DD700000000000000000000000000000000000A3
:10DD80000000000000000000000000000000000093
:10DD90000000000000000000000000000000000083
:10DDA000000000000000BAD6FFFF14A5000000002C
:10DDB0000000000000000000000000000000000063
:10DDC0000000000000000000000000000000000053
:10DDD0000000000000000000000000000000000043
:10DDE00000000000000000000000242114A5BEF780
:10DDF000FFFFFFFF00000000000000000000000027
:10DE00000000000000000000000000000000000012
:10DE10000000000000000000000000000000000002
:10DE20000000000000000000000000000000E739D2
:10DE30002C632C632C632C632C632C632C632C636A
:10DE4000AA520000000000000000000000000000D6
:10DE50000000000024212C630000000000000000EE
:10DE600000000000000000000000E739E739000072
:10DE700000000000000000000000000000000000A2
:10DE80000000000000000000000000000000000092
:10DE90000000000000000000000000000000000082
:10DEA0000000000000002C635DEF24210000000052
:10DEB0000000000000000000000000000000000062
:10DEC0000000000000000000000000000000000052
:10DED0000000000000000000000000000000000042
:10DEE00000000000000000000000000000002421ED
:10DEF00014A5BEF7000000000000000000000000B4
:10DF00000000000000000000000000000000000011
:10DF10000000000000000000000000000000000001
:10DF200000000000000000000000000000000000F1
:10DF300000000000000000000000000000000000E1
:10DF400000000000000000000000000000000000D1
:10DF500000000000000000000000000000000000C1
:10DF600000000000000000000000000000000000B1
:10DF700000000000000000000000000000000000A1
:10DF80000000000000000000000000000000000091
:10DF90000000000000000000000000000000000081
:10DFA0000000000000000000E73900000000000051
:10DFB0000000000000000000000000000000000061
:10DFC0000000000000000000000000000000000051
:10DFD0000000000000000000000000000000000041
:10DFE0000000000000000000000000000000000031
:10DFF0000000E73900000000000000000000000001
:10E000000000000000000000000000000000000010
:10E010000000000000000000000000000000000000
:10E0200000000000000000000000000000000000F0
:10E0300000000000000000000000000000000000E0
:10F8200000000000000000F800F800F800F800F800
:10F8300000F800F800F800F800F800F800F800F808
:10F8400000F800F800F800F800F8000000000000E0
:10F850000000E007E007E007E007E007E007E00757
:10F86000E007E007E007E007E007E007E007E00760
:10F87000E007E007E00700000000000000001F00B4
:10F880001F001F001F001F001F001F001F001F0080
:10F890001F001F001F001F001F001F001F001F0070
:10F8A0001F00000000000000000000000000000039
:10F8B0000000000000000000000000000000000048
:10F8C0000000000000000000000000000000000038
:10F8D0000000000000000000000000000000000028
:10F8E0000000000000000000000000000000000018
:10F8F0000000000000000000000000000000000008
:10F9000000000000000000000000000000000000F7
:10F9100000000000000000000000000000000000E7
:10F9200000000000000000F800F800F800F800F8FF
:10F9300000F800F800F800F800F800F800F800F807
:10F9400000F800F800F800F800F8000000000000DF
:10F950000000E007E007E007E007E007E007E00756
:10F96000E007E007E007E007E007E007E007E0075F
:10F97000E007E007E00700000000000000001F00B3
:10F980001F001F001F001F001F001F001F001F007F
:10F990001F001F001F001F001F001F001F001F006F
:10F9A0001F00000000000000000000000000000038
:10F9B0000000000000000000000000000000000047
:10F9C0000000000000000000000000000000000037
:10F9D0000000000000000000000000000000000027
:10F9E0000000000000000000000000000000000017
:10F9F0000000000000000000000000000000000007
:10FA000000000000000000000000000000000000F6
:10FA100000000000000000000000000000000000E6
:10FA200000000000000000F800F800F800F800F8FE
:10FA300000F800F800F800F800F800F800F800F806
:10FA400000F800F800F800F800F8000000000000DE
:10FA50000000E007E007E007E007E007E007E00755
:10FA6000E007E007E007E007E007E007E007E0075E
:10FA7000E007E007E00700000000000000001F00B2
:10FA80001F001F001F001F001F001F001F001F007E
:10FA90001F001F001F001F001F001F001F001F006E
:10FAA0001F00000000000000000000000000000037
:10FAB0000000000000000000000000000000000046
:10FAC0000000000000000000000000000000000036
:10FAD0000000000000000000000000000000000026
:10FAE0000000000000000000000000000000000016
:10FAF0000000000000000000000000000000000006
:10FB000000000000000000000000000000000000F5
:10FB100000000000000000000000000000000000E5
:10FB200000000000000000F800F800F800F800F8FD
:10FB300000F800F800F800F800F800F800F800F805
:10FB400000F800F800F800F800F8000000000000DD
:10FB50000000E007E007E007E007E007E007E00754
:10FB6000E007E007E007E007E007E007E007E0075D
:10FB7000E007E007E00700000000000000001F00B1
:10FB80001F001F001F001F001F001F001F001F007D
:10FB90001F001F001F001F001F001F001F001F006D
:10FBA0001F00000000000000000000000000000036
:10FBB0000000000000000000000000000000000045
:10FBC0000000000000000000000000000000000035
:10FBD0000000000000000000000000000000000025
:10FBE0000000000000000000000000000000000015
:10FBF0000000000000000000000000000000000005
:10FC000000000000000000000000000000000000F4
:10FC100000000000000000000000000000000000E4
:10FC200000000000000000F800F800F800F800F8FC
:10FC300000F800F800F800F800F800F800F800F804
:10FC400000F800F800F800F800F8000000000000DC
:10FC50000000E007E007E007E007E007E007E00753
:10FC6000E007E007E007E007E007E007E007E0075C
:10FC7000E007E007E00700000000000000001F00B0
:10FC80001F001F001F001F001F001F001F001F007C
:10FC90001F001F001F001F001F001F001F001F006C
:10FCA0001F00000000000000000000000000000035
:10FCB0000000000000000000000000000000000044
:10FCC0000000000000000000000000000000000034
:10FCD0000000000000000000000000000000000024
:10FCE0000000000000000000000000000000000014
:10FCF0000000000000000000000000000000000004
:10FD000000000000000000000000000000000000F3
:10FD100000000000000000000000000000000000E3
:10FD200000000000000000F800F800F800F800F8FB
:10FD300000F800F800F800F800F800F800F800F803
:10FD400000F800F800F800F800F8000000000000DB
:10FD50000000E007E007E007E007E007E007E00752
:10FD6000E007E007E007E007E007E007E007E0075B
:10FD7000E007E007E00700000000000000001F00AF
:10FD80001F001F001F001F001F001F001F001F007B
:10FD90001F001F001F001F001F001F001F001F006B
:10FDA0001F00000000000000000000000000000034
:10FDB0000000000000000000000000000000000043
:10FDC0000000000000000000000000000000000033
:10FDD0000000000000000000000000000000000023
:10FDE0000000000000000000000000000000000013
:10FDF0000000000000000000000000000000000003
:10FE000000000000000000000000000000000000F2
:10FE100000000000000000000000000000000000E2
:10FE200000000000000000F800F800F800F800F8FA
:10FE300000F800F800F800F800F800F800F800F802
:10FE400000F800F800F800F800F8000000000000DA
:10FE50000000E007E007E007E007E007E007E00751
:10FE6000E007E007E007E007E007E007E007E0075A
:10FE7000E007E007E00700000000000000001F00AE
:10FE80001F001F001F001F001F001F001F001F007A
:10FE90001F001F001F001F001F001F001F001F006A
:10FEA0001F00000000000000000000000000000033
:10FEB0000000000000000000000000000000000042
:10FEC0000000000000000000000000000000000032
:10FED0000000000000000000000000000000000022
:10FEE0000000000000000000000000000000000012
:02000004900169
:1004200000000000000000010203040102030406B2
:10043000070809005404019000000024B0000000E7
:100440009E49009004050190B0000024400C00007B
:10045000AE490090FFFF0000000000007D4E0090BC
:100460000000000000000000914F0090914E0090AD
:10047000494F0090FD4E0090794E0090A33B0090B4
:100480005337009055400090D9370090593700906D
:1004900023410090F93A00900D430090013B0090F9
:1004A0002941009059380090393A009091390090D4
:1004B000F1390090BD3A0090113B0090AD4300909F
:1004C000693B0090793B009040000000C0000000B4
:1004D000800000000000000020000000600000001C
:1004E000E0000000A000000001000000100000007B
:1004F000000000000090D0030090D0030000000036
:0405000000000000F7
:0400000590000299CC
:00000001FF
