:020000040800F2
:10000000B00D002451030008BF490008CD4100088D
:10001000BD490008F90C0008095F00080000000055
:10002000000000000000000000000000B9590008B6
:10003000850D000800000000C1490008BB590008F8
:100040006B0300086B0300086B0300086B030008D8
:100050006B0300086B0300086B0300086B030008C8
:100060006B0300086B0300086B0300086B030008B8
:100070006B0300086B0300086B0300086B030008A8
:100080006B0300086B0300086B0300086B03000898
:100090006B0300086B0300086B0300086B03000888
:1000A0006B0300086B0300086B0300086B03000878
:1000B0006B0300086B0300086B0300086B03000868
:1000C0006B0300086B0300086B0300086B03000858
:1000D0006B0300086B0300086B0300086B03000848
:1000E0006B0300086B030008000000006B030008AE
:1000F0006B0300086B0300086B0300086B03000828
:100100006B0300086B0300086B0300086B03000817
:100110006B0300086B0300086B0300086B03000807
:100120006B0300086B0300086B0300086B030008F7
:100130006B0300086B0300086B0300086B030008E7
:1001400000000000000000000000000000000000AF
:100150006B0300086B0300086B0300086B030008C7
:100160006B0300086B0300086B0300086B030008B7
:100170006B0300086B0300086B0300086B030008A7
:100180006B0300086B0300086B0300086B03000897
:100190006B0300086B0300086B0300086B03000887
:1001A0006B0300086B0300086B0300086B03000877
:1001B0006B0300086B0300086B0300086B03000867
:1001C0006B0300086B0300086B0300086B03000857
:1001D0006B0300086B0300086B0300086B03000847
:1001E0006B0300086B0300086B0300086B03000837
:1001F0006B0300086B0300086B0300086B03000827
:100200006B0300086B0300086B0300086B03000816
:100210006B0300086B0300086B0300086B03000806
:100220006B0300086B0300086B030008000000006C
:100230006B0300086B030008000000006B0300085C
:100240006B0300086B0300086B0300086B030008D6
:100250006B0300086B0300086B0300086B030008C6
:100260006B0300086B0300086B0300086B030008B6
:100270006B0300086B0300086B030008000000001C
:100280006B0300086B0300086B030008000000000C
:10029000000000006B03000800F002F800F048F8CE
:1002A0000AA090E8000C82448344AAF10107DA45D1
:1002B00001D100F03DF8AFF2090EBAE80F0013F0DB
:1002C000010F18BFFB1A43F00103184768CE000066
:1002D00088CE0000103A24BF78C878C1FAD85207F7
:1002E00024BF30C830C144BF04680C6070470000B0
:1002F0000023002400250026103A28BF78C1FBD82F
:10030000520728BF30C148BF0B607047642900F016
:10031000D180782900F00A81002070471FB505F0D0
:1003200089FF9DE8030000F00FFA1FBD10B510BD56
:1003300000F0DEFA1146FFF7F1FF05F0B9FE00F01C
:10034000FCFA03B4FFF7F2FF03BC00F02DFB000042
:100350000948804709480047FEE7FEE7FEE7FEE759
:10036000FEE7FEE7FEE7FEE7FEE7FEE70448054995
:10037000054A064B704700007D5A000899020008A4
:10038000B0070024B00D0024B0090024B0090024F7
:1003900070B5064600F0BCF9056806F10B0020F0C8
:1003A0000704B4429CBF002070BD2B466A68BAB1F6
:1003B0001068A04210D304F1080188423CBF506885
:1003C000586007D35168101941601168091B01601A
:1003D00058601460101D70BD13465268002AE7D1A2
:1003E0002146284600F09CF90028DED170BD70B58A
:1003F0000446051F00F08CF90068002C14BF446807
:1004000070BD002C18BFAC423CBF20466468F8D3D6
:1004100001680A18AA4218BF456003D12A68054638
:100420001144016028684119A1421CBF6C6070BD75
:100430006168696021680844286070BD0FB41CB50C
:10044000074B06AA7B4469460090059800F011FA14
:100450000020694600F020FA1CBC5DF814FB000087
:100460005104000070B5044685690068C10601D5D5
:10047000302600E02026C00707D070BDD4E9012156
:1004800030469047206A401C20626D1EF6D570BD34
:1004900070B5044685690078C00707D170BDD4E9FE
:1004A000012120209047206A401C20626D1EF6D555
:1004B00070BD00002DE9F041064600241068752942
:1004C000314616A510D0AFF30080002802DA404272
:1004D00013A507E031688A0701D512A502E0490794
:1004E00004D511A5012401E0AFF3008000210A2208
:1004F00006F1240709E0B0FBF2FCB0FBF2F302FBCB
:100500001C00303078541846491C0028F3D123468B
:100510002A463046BDE8F04100F04CB9000000002A
:100520002D0000002B0000002000000070B50446E4
:100530000D4621461068AFF300802188090502D5D9
:100540000F4A7A4402E00E4A7A440E32002104F146
:10055000240305E000F00F060009965D5E54491C77
:100560000028F7D120780023000704D5702D02D091
:1005700009B1022311322046BDE8704000F01AB9DB
:10058000B5CB00002DE9F05F894604464FF0000A24
:10059000DFF824B1FB44C0F820A02046E16888477A
:1005A00000287DD0252806D0D4E901219047206A73
:1005B000401C2062F1E700255F462046E16888473D
:1005C0002028064607DB312E05D2B81910F8200C7A
:1005D00008B10543F1E7A80701D525F00405C4F8E3
:1005E0001CA00027C4F818A02A2E09D0304605F018
:1005F0009DFC38B304EB8708303EC8F8186019E05A
:1006000059F8041B204604EB87029161E168884792
:10061000012F064618D1E069002820DA25F02005D0
:100620001DE0D8F8180000EB800006EB40003038E1
:10063000C8F818002046E1688847064605F076FCB1
:100640000028EED1012F0AD02E2E08D12046E168D5
:1006500088477F1C0646022F45F02005C4DBA069B1
:10066000002803DA404245F00105A061E80701D007
:1006700025F01005A6B1A6F14100192802D82036B0
:1006800045F400654A463146204625604D46FFF751
:100690003DFE60B1012807D0ED1D25F0070000E008
:1006A00007E000F1080978E705F1040975E730462D
:1006B0007AE7206ABDE8F09F8BCB00004FF0000284
:1006C00000B5134694469646203922BFA0E80C5048
:1006D000A0E80C50B1F12001BFF4F7AF090728BF23
:1006E000A0E80C5048BF0CC05DF804EB890028BF9F
:1006F00040F8042B08BF704748BF20F8022B11F0C8
:10070000804F18BF00F8012B704770477047704743
:10071000004870475807002470477047704770477B
:1007200038B504460A4600206946AFF30080002829
:1007300008BF38BD02460099204600F0B7F80120F6
:1007400038BD012000F0CCB8F8B5AFF30080054605
:1007500000200C46102000BF0646A819A0420DD963
:10076000324669460020AFF30080070008BF00F062
:10077000B7F80098A04218BF0546C419FFF7C8FF94
:1007800005600746F01D20F007004619284600F0D6
:100790000AF8B44208BFF8BDA21B31463868BDE86C
:1007A000F84000F083B800210160C0E901107047F3
:1007B000102070472DE9F0470D46994692460446B1
:1007C00000F124080168880604D5E06921F01001D1
:1007D000216000E00120A84201DD471B00E0002766
:1007E000A1697A1902EB0900081AA0612078C006F5
:1007F00002D42046FFF736FE002608E0D4E90121A6
:100800001AF806009047206A401C761C20624E456C
:10081000F4DB2078C0060AD52046FFF723FE06E069
:10082000D4E9012130209047206A401C2062381E04
:10083000A7F10107F4DC07E0D4E9012118F805006D
:100840009047206A401C2062281EA5F10105F3DCB8
:100850002046FFF71DFE2078000602D50220BDE8E5
:10086000F0870120FBE7000001694A1C026108785B
:10087000704700B58FB0CDE90131002105910549E0
:100880007944CDE9031011466846FFF77BFE0FB0AF
:1008900000BD0000E5FFFFFF0A6802F8010B0A60D7
:1008A0007047000000487047500700240346406826
:1008B0008C46002818BF88423CBF03464068F8D3E6
:1008C00018681844884207D00CF1030020F0070094
:1008D000001D411A521A0146081D0A60FFF787BD24
:1008E00010B500F039F8BDE8104000F02FB870479F
:1008F0007546FFF7D7FFAE4605006946534620F020
:100900000700854618B020B5FFF730FDBDE8204050
:100910004FF000064FF000074FF000084FF0000BBB
:1009200021F00701AC46ACE8C009ACE8C009ACE86E
:10093000C009ACE8C0098D46704710B50446AFF356
:1009400000802046BDE81040FFF7FBBC002801D026
:1009500000F02AB87047000010B5012805D000212A
:1009600003A000F027F8012010BD09A1F8E700005E
:1009700053494752544D454D3A204F7574206F6688
:100980002068656170206D656D6F727900000000F0
:100990003A2048656170206D656D6F727920636FD4
:1009A000727275707465640001491820ABBEFEE771
:1009B0002600020070B505460C460A2000E06D1CBA
:1009C00000F011F835B128780028F8D102E0641C55
:1009D00000F009F814B120780028F8D1BDE8704083
:1009E0000A20AFF3008008B569468DF800000320A7
:1009F000ABBE08BD70B53A4905460068884202D0D2
:100A0000384A904202D1D1F8080302E03648D0F8C3
:100A1000080310F4403F11D002F0AEF904466868B4
:100A2000B0F5803F06D0B0F5003F03D0B0F5403FB1
:100A300026D101E0000C17E0A40821E04FF40020CB
:100A400001F0CCFA044668688103890B18D181143F
:100A50000C2915D2DFE801F0140606060606060B7F
:100A60000D0F1113800C4000B4FBF0F408E02409D2
:100A700006E0640904E0A40902E0E40900E0240AB5
:100A800000F08AFF41F20301884208D817488442E7
:100A90002868816813D821F48071816070BD144981
:100AA0006008884204D82868816821F44071F4E71E
:100AB0001049884206D82868816821F4407141F4C1
:100AC0008071EAE70C4988422868816804D821F4DB
:100AD000407141F40071E0E741F44071DDE700004E
:100AE000002002400021024000600258002D310128
:100AF000105E5F0020BCBE0040787D012DE9F04112
:100B00000027044600680D4603F0BEFD0646206837
:100B100003F0B6FD30435DD020682F4EC1688901D7
:100B200005D5617D012902D1217D01290BD0022D3E
:100B30001DD0206803F0A8FDB8B120688168C1F31A
:100B4000400169B111E02549012502E08F4232D20E
:100B50007F1C0268D2435206F8D440210160E8E7C6
:100B60008168314041F010018160012D11D0206871
:100B700003F086FD48B120688168C1F3400121B9C6
:100B80008168314041F020018160022D08D0032DA1
:100B900004D0042500F006FF064617E00C25F9E70F
:100BA0000825F7E700F0FEFE801B05280ED9206817
:100BB000806828420AD0606D40F010006065A06D2A
:100BC00040F00100A0650120BDE8F0812068806848
:100BD0002842E7D10020F7E7C0FFFF7F00DC0C00D0
:100BE00070B50446006881688268C1F3400112F064
:100BF000010F28D039BB816801F00D01012914D102
:100C00008168124A1140891C8160216803200860B4
:100C100000F0C8FE054612E000F0C4FE401B0228AA
:100C20000DD920688068C00709D0606D40F01000C1
:100C30006065A06D40F00100A065012070BD2068D6
:100C40008068C007E8D1002070BD0000C0FFFF7FB2
:100C500070B504460068816811F0010F40D18168C9
:100C6000204A11422DD18168D5432940491C816019
:100C700000F098FE1C49064620681C4B884201D0B3
:100C8000984201D11A4A00E01A4A9268984202F04A
:100C90001F0200D0014681421DD0E2B120E08168F0
:100CA00011F0010F03D181682940491C816000F0D7
:100CB00079FE801B02280ED920680068C043C00757
:100CC00009D0606D40F010006065A06D40F001003B
:100CD000A065012070BD20680168C943C907DED145
:100CE000002070BD3F000080002002400021024033
:100CF0000023024000630258FEE700001F4B002063
:100D0000F0B51968890311D4BFF34F8FBFF36F8F0C
:100D10001B490860BFF34F8FBFF36F8F196841F411
:100D200000311960BFF34F8FBFF36F8F1968C9038C
:100D300023D4124970310860BFF34F8F081F43F668
:100D4000FF7400680E4D1035C0F34E31C0F3C90278
:100D500004EA4116104600BF46EA80772F60401E25
:100D6000FAD2491EF4D2BFF34F8F186840F4803096
:100D70001860BFF34F8FBFF36F8FF0BD14ED00E02D
:100D800050EF00E070474FF4FA74204603F060FC27
:100D9000FBE70000F8B50027044615460E4600970D
:100DA00090F8500001280BD0012084F85000204614
:100DB000FFF716FF0100606D04D040F010002DE039
:100DC0000220F8BD20F4885040F0020060652068E1
:100DD00006F4803205F08043134D1A4383682B409C
:100DE0001A4342F000428260104A20680EE0009BE5
:100DF0005B1C0093934209D3606D84F8507020F01F
:100E0000020040F0100060650120F8BD8368DB0F30
:100E1000EDD1606D20F0020040F0010060650846F1
:100E200084F85070F8BD0000C0FFFE3F00F8C325F5
:100E30002DE9F84F4FF0000B0446E54E0D46CDF876
:100E400000B05F4690F85000DFF888A3012808D072
:100E50004FF0010984F85090206803F015FC18B198
:100E600069E10220BDE8F88F21682868CA69030398
:100E700028D090FAA0F0B0FA80F000BF00F01F0375
:100E800009FA03F00243CA61D5E900124FF00C0CD5
:100E900020681F23C1F384610CEA921C02F01F0238
:100EA000604493409140026B9A430A430263206876
:100EB00003F0EAFB8046206803F0E2FB58EA0000FA
:100EC00003D07FE0C0F38460D8E72068AA6829686F
:100ED00003F0E6FBC0490968B9EB117F06D1216830
:100EE0006869C968C1F38201490008E02068C168E7
:100EF000C906C1686869F5D501F010014908884044
:100F0000296904292ED022682B6802EB810103F0A5
:100F1000F8420B6E024303F0004010430866697EFE
:100F200022682869012917D05FF0000102EB8000D8
:100F3000026E22F000420A430266287E21682A6976
:100F400001280CD000200B6902F01F02904023F40E
:100F5000F04202430A6135E04FF00041E6E74FF40A
:100F60000060F0E720682978026E02F0F842B2EBE8
:100F7000816F03D1016E21F000410166206829785C
:100F8000426E02F0F842B2EB816F03D1416E21F064
:100F90000041416620682978826E02F0F842B2EB87
:100FA000816F03D1816E21F000418166206829782C
:100FB000C26E02F0F842B2EB816F03D1C16E21F034
:100FC0000041C1662068816811F0010F76D150F8A8
:100FD000C02F95F80CC0814B29680CF0180C23FA2F
:100FE0000CF3C1F313080B4022EA08021A43026013
:100FF0007B48E968814277D1286801031BD090FAC9
:10100000A0F1B1FA81F1491C01F01F0109294FEA51
:10101000003131D8002911D090FAA0F1B1FA81F154
:1010200001F1010101F01F0109FA01F209D100BF2C
:10103000C0F3846109E0C0F38461E4E7C0F3846134
:10104000EEE790FAA0F1B1FA81F101F1010101F0AE
:101050001F0142EA816102D1C0F3846003E090FA8B
:10106000A0F0B0FA80F000F1010000F01F0000EBEA
:10107000400041EA005133E000290ED090FAA0F17F
:10108000B1FA81F101F1010101F01F0109FA01F248
:1010900006D100BFC0F3846106E0C0F38461F1E7CC
:1010A00090FAA0F1B1FA81F101F1010101F01F0103
:1010B00042EA816103D1C0F3846004E040E090FA29
:1010C000A0F0B0FA80F0474A00F1010000F01F00E4
:1010D00000EB400002EB005041EA000141F00071DA
:1010E000AA68206803F0DCFAD5F800C0BCF1000F54
:1010F00026DA3D4B20683D49DFF8F490984201D054
:10110000B04201D10A4600E04A469268984202F095
:10111000E07201D0B04209D19D68D6F8088005F090
:10112000010508F0010845EA080503E0DAF808506F
:1011300005F0010545B1606D012740F020006065B4
:10114000384684F850B08DE62A4DAC451CD11502C6
:101150001AD45045F4D1984202D0B04200D049464A
:101160008B6842F4000023F0E07202438A60234956
:1011700021480968B1FBF0F04000801C00E0401EEF
:1011800000900028FBD1DBE71D4DAC450CD1D5010B
:101190000AD45045D4D1984202D0B04200D049463A
:1011A0008B6842F080700EE0164DAC45C8D15502F8
:1011B000C6D45045C4D1984202D0B04200D049466E
:1011C0008B6842F4800023F0E07202438A60B7E744
:1011D00000210240006002580010005CFFFF0F0079
:1011E0000000FF47000020FE0020024000230240D4
:1011F00000630258000084CB400D0300240000244B
:10120000000052C70000B8CF0068006C70470000B3
:10121000F8B54FF0000604003546009602D0606D28
:1012200010B107E00120F8BD204600F005F9A665E1
:1012300084F8506020688168C1F3407119B18168F9
:10124000704A1140816020688168C1F3007181B9E2
:1012500081686D4A114041F0805181606C496B4852
:101260000968B1FBF0F0401C00E0401E009000282F
:10127000FBD120688168C1F3007141B9616D01251E
:1012800041F010016165A16D41F00101A16503F01C
:10129000FBF9616DC90600D420B1606D012540F0F5
:1012A000100093E0606D20F4807040F002006065F3
:1012B0002068816811F0010F1FD1564A564B9042A9
:1012C00001D0984207D191689E6801F0010106F0B3
:1012D0000106314303E05149896801F0010161B918
:1012E000904201D0984201D14D4800E04D488268BB
:1012F000616822F47C120A43826000F04DFB41F2E7
:101300000301884202D9A06810280CD0617D227F99
:10131000A368206B490341EA024118430843217F37
:1013200001290CD010E0607D227F216B400340EA50
:10133000024241F01000104340F00C00EFE7218C16
:10134000394A02EB41410843616A29B1A26A01F4BA
:101350007871014342EA01002168344BCA681A409F
:101360000243CA60206803F08FF90646206803F044
:1013700087F930431DD1216844F20303267DE26AD8
:10138000C86842EA863298431043C86094F838002F
:1013900001281ED02068016921F001010161206847
:1013A000626B016921F07041114301612046FFF732
:1013B00021FBE068012820681CD0016B21F00F019F
:1013C0000163606D20F0020040F001006065284676
:1013D000F8BD2068A28F164FD4E9101C154E07EBFC
:1013E0000247A36C026941EA0C013B4332401943B6
:1013F0001143D3E7A269016B521E21F00F01114383
:10140000DEE70000C0FFFF5FC0FFFF7F400D03006D
:101410002400002400200240002102400060025805
:1014200000230240006302580000FEFF03C0F0FFEB
:101430000100FFFF1EF800FCF0B5B1B00446BC216E
:101440006846FFF73BF91949206888422CD10220F1
:101450000C903C2381040091CDE90A300DAB0A22A7
:101460000992440205020026C703289783E8710009
:10147000684600F0E9FE08B1FFF785FC0C480168FA
:1014800041F080710160016801F080712F91016865
:1014900041F004010160006800F004002F904FF05B
:1014A0008060014602F068FC31B0F0BD0060025877
:1014B000E04402582DE9F047434D04460068884651
:1014C0004249434BA842DFF80C9101D0484501D175
:1014D0000A4600E01A46926802F01F062269082AAE
:1014E00014D0AEB1052E13D0092E11D0A84202D0CF
:1014F000484500D01946886800F4404058B1606DF6
:1015000040F0200060650120BDE8F087082703E077
:10151000C068C007F2E7042700F044FA824618E0EA
:10152000B8F1FF3F15D000F03DFAA0EB0A014145AC
:1015300002D8B8F1000F0CD120680068384208D1F9
:10154000606D002184F8501040F0040060650320B5
:10155000DAE7206800683842E2D0606D40F400703D
:101560006065206803F094F880B1607D70B92068F0
:10157000006800070AD5606D20F480706065606DBA
:10158000C00403D4606D40F00100606520684845E8
:1015900001D12A4600E00246824210D07EB1052EDB
:1015A0000DD0092E0BD0484500D00546E968082F1C
:1015B00007D0490401D40C2101600020A4E7C168D0
:1015C000F5E70821F8E70000002002400023024070
:1015D00000630258002102402DE9F0413B4D0446D2
:1015E00000683B4FA84201D0B84201D1394900E020
:1015F0003949896801F01F0603F046F818B1022145
:101600000846BDE8F08194F8500001280CD0012074
:1016100084F850002046FFF71BFB01004FF000024A
:1016200004D084F85020EBE70220EAE7636D40F62F
:10163000016C206823EA0C03B84243F480736365AD
:1016400001D12B4600E00346834200D01EB9636DF2
:1016500023F480136365636DDB0404D5A36D23F06D
:101660000603A36500E0A2651C23036084F85020F4
:101670002068B84201D12A4600E00246824215D0D5
:10168000A6B1052E12D0092E10D0626DB84242F4D8
:101690008012626500D00546E8688001B0D5606DB3
:1016A00020F4005040F480506065A9E7C2689201C0
:1016B00005D5626D22F4005242F480526265826860
:1016C000064B1A40121D82609AE70000002002407B
:1016D000002102400023024000630258C0FFFF7F48
:1016E00010B5044690F85000012808D0012084F875
:1016F000500003212046FFF701FA10B10BE0022051
:1017000010BD2046FFF76CFA28B9616D21F48851AD
:1017100041F001016165002184F8501010BD000006
:1017200070B5044600F03EF90546601C02D004483E
:101730000078044400F036F9401BA042FAD370BD93
:10174000180000242DE9FC4F01257E4C00234FF0AA
:10175000030A4FF0B04E4FF00F0BEBE005FA03F623
:1017600037403A0077D04F68012F05D0022F03D0C1
:10177000112F01D0122F1AD187684FEA4308D1F8F0
:101780000CC00AFA08F927EA09070CFA08FC4CEA27
:10179000070CC0F808C0476891F804C0B743CCF301
:1017A000001C0CFA03FC4CEA070CC0F804C0C66825
:1017B0004FEA430CD1F80880E1460AFA0CF7BE4321
:1017C000019708FA09F848EA0608C0F80C804E6844
:1017D000022E01D0122E12D1DE084FEA437C00EB1C
:1017E000860600960F69366A4FEADC6C0BFA0CF835
:1017F00007FA0CF726EA08063743009E37620E798F
:101800000768DDF804C006F0030606FA09F627EAC1
:101810000C073E4306604E68F6001CD54A4E3768FA
:1018200047F00207376036689F0706F00206009609
:1018300023F0030606F1B046B1463F0FD6F8086420
:10184000DFF808810BFA07FC404526EA0C0603D1B5
:101850004FF0000C41E06CE0DFF8F4C0604502D1CD
:101860004FF0010C39E0DFF8ECC0604502D14FF0D9
:10187000020C32E0DFF8E0C0604502D14FF0030C0B
:101880002BE0DFF8D8C0604502D14FF0040C24E013
:10189000DFF8CCC0604502D14FF0050C1DE0DFF849
:1018A000C4C0604502D14FF0060C16E0DFF8B8C0A6
:1018B000604502D14FF0070C0FE0DFF8B0C0604583
:1018C00002D14FF0080C08E0DFF8A4C0604502D157
:1018D0004FF0090C01E04FF00A0C0CFA07FC4CEA3F
:1018E000060CC9F808C426684F6826EA0206FF03FA
:1018F00000D51643266066684F6826EA0206BF03D5
:1019000000D516436660D1F804C07646DEF8007054
:101910005FEACC2C27EA020700D517433760D1F8DD
:1019200004C077685FEA8C2C27EA020700D51743CA
:1019300077605B1C0A681746DA407FF40FAFBDE89A
:10194000FC8F000080000058F44402580000025848
:101950000004025800080258000C025800100258F7
:101960000014025800180258001C025800200258A7
:10197000002402580069084000D0012070470AB1D5
:10198000816170470904FBE702480068C0F30B005F
:10199000704700000010005C01480068000C7047B0
:1019A0000010005C014880687047000018000024A7
:1019B0000248816802781144816070471800002451
:1019C000032010B500F0D4F801F0F8F90F4A1049DF
:1019D00014681368C4F3032203F00F038A5CC95C24
:1019E00002F01F0201F01F01D0400A4A20FA01F163
:1019F000116009490860002000F010F808B10120CA
:101A000010BD00F079F8002010BD00001844025805
:101A10003E620008280000242400002470B50D4D0B
:101A200004462878A0B14FF47A71B1FBF0F00A496E
:101A30000968B1FBF0F002F0B9F948B9102C07D2EF
:101A400000222146501E00F073F800206C6070BD2B
:101A5000012070BD1800002424000024F0B5154CAE
:101A60004378211D0A1D23600378F3B143680B609E
:101A7000057BC67A817A437B2D07847B45EA066520
:101A8000C77B90F809C0067A90F800E045EAC140AB
:101A900040EA834040EA444040EA074040EA0C20E4
:101AA00040EA460040EA0E0001E0002008601060B5
:101AB000F0BD000098ED00E0BFF35F8F0448002107
:101AC0000368034A23F48033036070321160704767
:101AD00024ED00E0074A40F0010006497032106032
:101AE000086840F480300860BFF34F8FBFF36F8FFA
:101AF0007047000024ED00E00C4808B5016841F093
:101B000002010160016801F002010091016841F4E5
:101B100000410160006800F40040009002F034F9D8
:101B2000BDE80840022002F037B90000F444025832
:101B30000E4BF0B41B680D46C3F30223C3F1070636
:101B4000042E00D90426191D072901D2002300E024
:101B5000DB1E012404FA06F19C40491E2940641E44
:101B6000994014402143F0BC04F0CFB90CED00E0E3
:101B7000064900F0070210B54FF6FF040868044B51
:101B8000204040EA02201843086010BD0CED00E040
:101B90000000FA05134970B50A68D243520705D50B
:101BA000096801F00701814213D118E00A6822F0A8
:101BB000070202430A60FFF7F5FE0A4D4FF47A76FA
:101BC0000446083D07E000BFFFF7ECFE001BB042F3
:101BD00001D9012070BD2868C0438004F4D40020DE
:101BE00070BD00000C48025810B501F0C5F8054959
:101BF0000968054AC1F30211515C01F01F01C84098
:101C000010BD0000204402583E6200084A4930B529
:101C1000494C0B1D0A680C3409681D68246802F0E1
:101C2000030305F00102C1F30511C4F3CC0400293C
:101C300014FB02F200EE102AF8EE400A76D0414A78
:101C40009FED3E1ADFED3E1AB7EE000A23B1012BDD
:101C50005AD0022B18D15CE0374C283C23689B06F5
:101C600012D5394B246801EE901A1168C4F3C104EF
:101C7000F8EE612AE34001EE903AC1F30801F8EE74
:101C8000611A81EEA22A07E002EE101A1168F8EE3E
:101C9000422A81EEA22A45E001EE901A1168F8EE80
:101CA000611A40EE811A71EE800A62EE200AC1F3D9
:101CB000462101EE101AB8EE411A31EE001AC0EEBC
:101CC000811ABCEEE11A80ED001A1168C1F30641D9
:101CD00001EE101AB8EE411A31EE001AC0EE811A68
:101CE000BCEEE11A80ED011A1168C1F3066101EE44
:101CF000101AB8EE411A31EE000A80EE801ABCEEDE
:101D0000C10A80ED020A30BD01EE901ADFED0F2A04
:101D100003E001EE901ADFED0E2A1168F8EE611A69
:101D200082EEA12AC1F30801B6E7FFE700210160B6
:101D30004160816030BD0000284402580000003935
:101D40000024744C304402580090D0030024744A9C
:101D500020BCBE4B494930B5484C0B1D0A681434B1
:101D600009681D68246802F00303C5F30012C1F37B
:101D70000531C4F3CC04002914FB02F200EE102A52
:101D8000F8EE400A75D03F4A9FED3D1AB7EE000AC3
:101D90006BB1DFED3D1A012B01D0022B64D002EEB6
:101DA000101A1168F8EE422A81EEA22A21E0334C83
:101DB000283C23689B0612D5344B246801EE901A08
:101DC0001168C4F3C104F8EE612AE34001EE903AD1
:101DD000C1F30801F8EE611A81EEA22A0BE001EED0
:101DE000901ADFED2B2A00BFF8EE611A116882EE1F
:101DF000A12AC1F3080101EE901A1168F8EE611AE8
:101E000040EE811A71EE800A62EE200AC1F346218B
:101E100001EE101AB8EE411A31EE001AC0EE811A26
:101E2000BCEEE11A80ED001A1168C1F3064101EE23
:101E3000101AB8EE411A31EE001AC0EE811ABCEE4B
:101E4000E11A80ED011A1168C1F3066101EE101A62
:101E5000B8EE411A31EE000A80EE801ABCEEC10ADB
:101E600080ED020A30BD04E001EE901ADFED092A90
:101E7000BAE70021016041608160F3E7284402581D
:101E800000000039384402580024744A0090D003FE
:101E90000024744C20BCBE4B494930B5484C0B1D46
:101EA0000A681C3409681D68246802F00303C5F33E
:101EB0000022C1F30551C4F3CC04002914FB02F243
:101EC00000EE102AF8EE400A75D03F4A9FED3D1A09
:101ED000B7EE000A6BB1DFED3D1A012B01D0022BEA
:101EE00064D002EE101A1168F8EE422A81EEA22A9E
:101EF00021E0334C283C23689B0612D5344B2468E0
:101F000001EE901A1168C4F3C104F8EE612AE340AF
:101F100001EE903AC1F30801F8EE611A81EEA22AAF
:101F20000BE001EE901ADFED2B2A00BFF8EE611AEC
:101F3000116882EEA12AC1F3080101EE901A11681E
:101F4000F8EE611A40EE811A71EE800A62EE200A04
:101F5000C1F3462101EE101AB8EE411A31EE001A13
:101F6000C0EE811ABCEEE11A80ED001A1168C1F3CF
:101F7000064101EE101AB8EE411A31EE001AC0EE19
:101F8000811ABCEEE11A80ED011A1168C1F30661F5
:101F900001EE101AB8EE411A31EE000A80EE801AF6
:101FA000BCEEC10A80ED020A30BD04E001EE901AD9
:101FB000DFED092ABAE70021016041608160F3E7A3
:101FC0002844025800000039404402580024744A52
:101FD0000090D0030024744C20BCBE4B2DE9F04F80
:101FE000944A4FF48079DFF848824845924B89B093
:101FF000924EA8F1040592494FF080574FEA2214FF
:102000004FF0005C2ED1D8F8000000F00700052842
:1020100024D2DFE800F09BB58425AA0003A8FFF7CF
:10202000F5FD049809B0BDE8F08F6846FFF792FE11
:102030000098F7E706A8FFF72FFF0698F2E7086871
:10204000C0F3C10022FA00F0ECE70A68D2057CD5A3
:10205000B8427AD12046E5E71846E3E70020E1E7F9
:102060003046DFE7B0F5007F1AD0DFF8D891B0F541
:10207000806F26D0B0F5006F37D04FF4805A5045AE
:102080004FF4804B4FD1D8F8000000F4E040B0F599
:10209000005F44D03DDC002858D05045DED16FE0D1
:1020A000D8F8000000F4E070802838D004DC002864
:1020B0004CD04028D2D163E0C028D1D04845CDD102
:1020C00053E0D9F8000000F46000B0F5800F26D08E
:1020D00004DCD8B3B0F5001FC0D151E0B0F5C00F9B
:1020E000BED0B0F5000FB9D13FE0D9F8000000F044
:1020F000E060B0F1007F12D004DC38B3B0F1807F33
:10210000ACD13DE0B0F1407FAAD0B0F1806FA5D155
:102110002BE0B0F5405FA3D058459FD125E008687B
:1021200080009BD586E7B0F5002F4FF4803612D0A3
:10213000B04237D1286810F4803075D0B0428DD1CC
:10214000086800018AD5684601E025E06CE0FFF7E9
:1021500001FE029866E7D9F8000010F440300FD075
:10216000B04211D0B0F5003F98D128680D6800F05A
:1021700040506D077FF569AF00287FF466AF5EE7DA
:1021800008680001CDD550E708688000C9D506A8C9
:10219000FFF782FE089845E709688903C1D56045C5
:1021A00088D159E758452BD1D9F8000000F0E0401C
:1021B000B0F1405F1CD00CDC90B1B8422CD060452F
:1021C0008AD108688000ACD506A8FFF765FE07989D
:1021D00028E7B0F1804F0FD0B0F1A04F90D11FE0B1
:1021E000FFF702FD1EE76846FFF7B4FD019819E707
:1021F0000868400795D522E70868C00591D529E70A
:10220000B0F5004F89D1D8F8000010F0405007D049
:10221000B84209D0604592D108680001E3D41DE7B7
:1022200008688003FBD517E708688001F7D5F5E655
:10223000504402580090D00340787D010080BB00DC
:1022400000440258584402582DE9FC5F044650F8F7
:10225000241B002500902E460801FE4FDFF8F8836E
:102260001DD5606E50B1B0F5801F0CD0B0F5001FC9
:102270000ED0B0F5401F1DD001250FE0386840F4A6
:102280000030386016E00221201D02F09BFB03E0C5
:102290000098022102F026FC05000BD02E46208873
:1022A000C00523D5606D05281ED2DFE800F00C11B3
:1022B000161B1B00626ED8F8001021F44011114368
:1022C000C8F80010EBE7386840F40030386009E0E7
:1022D0000021201D02F076FB03E00098002102F0AF
:1022E00001FC05466DB100E001252E4620888005E1
:1022F00028D5A06D80281ED00CDC90B140280ED1CE
:1023000014E0626DD8F8001021F007011143C8F8FD
:102310000010EBE7C02813D0B0F5807F10D0012566
:102320000FE0386840F40030386009E00021201DDB
:1023300002F048FB03E00098002102F0D3FB0546C1
:1023400095B12E462088DFF81093400509F1080961
:102350002CD5D4F8A400B0F5800F20D00DDCA0B1AE
:10236000B0F5001F0FD115E0A26DD8F8001021F4D0
:10237000E0711143C8F80010E4E7B0F5C00F13D0C6
:10238000B0F5000F10D001250FE0386840F40030A0
:10239000386009E00021201D02F014FB03E00098E2
:1023A000002102F09FFB054675B12E4620880005EE
:1023B0002DD5D4F8A800B0F1007F21D00EDCA8B153
:1023C000B0F1807F10D116E0D4F8A420D9F8001025
:1023D00021F460011143C9F80010E7E7B0F1407F34
:1023E00013D0B0F1806F10D001250FE0386840F4B1
:1023F0000030386009E00021201D02F0E3FA03E01C
:102400000098002102F06EFB05466DB12E46206853
:1024100080011FD5A06CD8B110280FD0202812D071
:10242000302815D0012514E0D4F8A820D9F80010E0
:1024300021F0E0611143C9F80010E8E7386840F482
:102440000030386004E00221201D02F0BBFA05468E
:102450006DB12E462088C0042BD5E06DB0F5005F2D
:1024600020D00DDCA0B1B0F5805F0FD115E07A4827
:10247000A26C001F016821F0300111430160E9E7FF
:10248000B0F5405F13D0B0F5804F10D001250FE0BC
:10249000386840F40030386009E00021201D02F067
:1024A00091FA03E00098002102F01CFB054685B17B
:1024B0002E462088800429D5206EB0F5403F23D0D9
:1024C00010DC08B3B0F5803F14D0B0F5003F0FD159
:1024D00015E0E26DD8F8001021F4E0411143C8F88E
:1024E0000010E6E7B0F5802F0ED0B0F5A02F0BD08E
:1024F00001250AE00121201D02F064FA03E00098A2
:10250000012102F0EFFA05468DB12E4620884004E5
:102510002AD5D4F8AC00B0F1405F23D010DC08B36A
:10252000B0F1805F14D0B0F1005F0FD115E0226EE2
:10253000D8F8001021F4E0211143C8F80010E5E7B5
:10254000B0F1804F0ED0B0F1A04F0BD001250AE0C2
:102550000121201D02F036FA03E00098012102F06B
:10256000C1FA05466DB12E46208800041FD5E06EE5
:10257000D8B1B0F1805F0ED0B0F1005F10D001256E
:1025800014E0D4F8AC20D9F8001021F0E041114358
:10259000C9F80010E8E7386840F40030386004E01B
:1025A0000121201D02F00EFA05466DB12E4620686D
:1025B000C0011ED5606CD0B101280ED0022811D008
:1025C000032814D0012513E0E26ED8F8001021F0A2
:1025D00040511143C8F80010E9E7386840F4003072
:1025E000386004E00221201D02F0ECF9054685B1B7
:1025F0002E462068DFF85CB04002ABF11C0B57D5CB
:102600001648016841F480710160FFF7CBF98246FA
:102610000EE01148626C001F016821F003011143B4
:102620000160E6E7FFF7BEF9A0EB0A0064283DD899
:102630000A480068C005F5D57DBBDFF81CA0B4F8DA
:10264000B0200AF1200ADAF8001002F4407001F418
:10265000407105E02C44025850440258004802588A
:10266000814211D0DAF80010DAF8002021F440712C
:1026700042F48032CAF80020DAF8002022F48032D6
:10268000CAF80020CAF80010D4F8B000B0F5807F76
:1026900021D1FFF787F9019019E008E0FFF782F9EF
:1026A0000199411A41F28830814210D903252E4602
:1026B0002078DFF844A4C0073DD0A06F182838D098
:1026C00026DC80B3082829D0102825D12CE0DAF8A0
:1026D00000008007E2D5D4F8B010C1F30120032830
:1026E00058460DD0016821F47C510160B4F8B02047
:1026F000DAF80010C2F30B021143CAF80010D7E752
:10270000FE4A036802EA111223F47C511143ECE7FC
:1027100020280ED028280CD001250BE00121201DF7
:1027200002F050F904E004E00098012102F0DAF927
:1027300005465DB12E46207880071ED5606F0628BD
:1027400019D2DFE800F0160C11161616A26FDAF88F
:10275000001021F038011143CAF80010EBE7012105
:10276000201D02F02FF903E00098012102F0BAF9D0
:10277000054675B100E001252E46207840071FD59B
:10278000D4F89000062819D2DFE800F0160C1116D4
:102790001616626FDAF8001021F007011143CAF82B
:1027A0000010EAE70121201D02F00CF903E0009877
:1027B000012102F097F905469DB100E001252E4662
:1027C000207880062BD5D4F88C00B0F1405F24D05F
:1027D00011DC10B3B0F1805F15D0B0F1005F10D103
:1027E00016E0D4F89020D9F8001021F00701114329
:1027F000C9F80010E4E7B0F1804F0ED0B0F1A04F5F
:102800000BD001250AE00021201D02F0DBF803E0D7
:102810000098022102F066F905468DB12E46207817
:1028200040062BD5D4F89800B0F5406F24D011DCC9
:1028300010B3B0F5806F15D0B0F5006F10D116E071
:10284000D4F88C20DAF8001021F0E0411143CAF8E6
:102850000010E4E7B0F5805F0ED0B0F5A05F0BD0BC
:1028600001250AE00021201D02F0ACF803E00098E9
:10287000022102F037F905468DB12E462078000678
:102880002BD5D4F89C00B0F5C04F24D011DC10B388
:10289000B0F5005F15D0B0F5804F10D116E0D4F838
:1028A0009820D9F8001021F4E0511143C9F8001024
:1028B000E4E7B0F5004F0ED0B0F5204F0BD0012566
:1028C0000AE00021201D02F07DF803E000980221BB
:1028D00002F008F905464DB12E46207800071ED5B6
:1028E000D4F88000B0F5805F0AD00FE0D4F89C20C7
:1028F000D9F8001021F460411143C9F80010ECE749
:102900000098022102F0EEF800B10126D4F88020F0
:10291000DAF8001021F440511143CAF80010207871
:10292000C00613D5D4F89400B0F5807F05D1009887
:10293000022102F0D7F800B10126D4F89420D9F88A
:10294000001021F440711143C9F800102068000301
:1029500016D5D4F8A00038B1B0F5803F09D0B0F555
:10296000003F0BD001250AE00021201D02F02AF8CB
:1029700003E00098022102F0B5F8054685B12E4625
:102980002068400322D5D4F88400B0F5801F11D010
:10299000B0F5001F13D0B0F5401F15D0012514E08D
:1029A000D4F8A020D9F8001021F440311143C9F81F
:1029B0000010E5E7386840F40030386004E0009823
:1029C000012102F08FF8054655B12E462068C0035C
:1029D0001CD5E06C70B1B0F5803F10D0012514E03B
:1029E000D4F88420DAF8001021F440111143CAF819
:1029F0000010EBE7386840F40030386004E0022152
:102A0000201D01F0DFFF0546CDB12E462068800075
:102A100005D50098022102F065F800B10126206872
:102A200080031BD5E06FB8B1B0F5807F10D0B0F552
:102A3000007F11D0B0F5407F0ED001250DE02E486B
:102A4000E26C0838016821F4803111430160DDE750
:102A5000386840F400303860F5B32E462068C00274
:102A600007D5226FD8F8001021F000411143C8F8B3
:102A700000102068C00008D5D4F8B420DBF800109E
:102A800021F480411143CBF800102068800207D563
:102A9000A26ED8F8001021F080711143C8F8001020
:102AA000206840000CD5DBF8001021F40041CBF881
:102AB0000010DBF80010D4F8B8201143CBF8001058
:102AC0002068002807DA0C48226D0838016821F0D8
:102AD00040511143016000E014E02068000208D575
:102AE000D4F88820DAF8001021F440011143CAF824
:102AF000001086B1012003E054440258CFFFFF00CC
:102B0000BDE8FC9FE26FDAF8001021F44071114338
:102B1000CAF80010A2E70020EDE700002DE9F05F01
:102B200004000F467ED0DFF83882D8F8000000F0AD
:102B30000F00B8420CD2D8F8001021F00F01394331
:102B4000C8F80010D8F8000000F00F00B84269D1B2
:102B50002078844D40070AD52069296801F070016A
:102B6000884204D9296821F0700101432960207846
:102B70007C4E361D00070AD56069316801F070018E
:102B8000884204D9316821F0700101433160207816
:102B9000C0060AD5A069316801F4E061884204D911
:102BA000316821F4E061014331602078DFF8B4B18D
:102BB00080060BF1080B0CD5E1695846DBF80020C4
:102BC00002F07002914204D9026822F070020A43B6
:102BD0000260207880070AD5E068296801F00F01BB
:102BE000884204D9296821F00F0101432960207827
:102BF000C0073ED05B49A2682868183920F470608D
:102C0000104328606068022818D0032819D009688A
:102C1000012819D0490700294ADADFF848A1AAF1AA
:102C2000080A00E044E0DAF8002022F0070202433C
:102C3000CAF80020FEF7B6FE814612E00968890353
:102C4000E9E709688901E6E7C905E4E7FEF7AAFEB6
:102C5000A0EB090141F28830814202D90320BDE88E
:102C6000F09F6168DAF8000000F03800B0EBC10FA7
:102C7000ECD1207880070AD5E068296801F00F01BF
:102C8000884204D2296821F00F0101432960D8F855
:102C90000010404601F00F01B9420BD9016821F044
:102CA0000F0139430160006800F00F00B84201D005
:102CB0000120D4E7207840070AD52069296801F06F
:102CC0007001884204D2296821F070010143296013
:102CD000207800070AD56069316801F070018842E8
:102CE00004D2316821F07001014331602078C006C0
:102CF0000AD5A069316801F4E061884204D23168E4
:102D000021F4E06101433160207880060CD5E1694F
:102D10005846DBF8002002F07002914204D20268AB
:102D200022F070020A43026000F048F80E492A6857
:102D30002B68C2F3032203F00F038A5CC95C02F024
:102D40001F0201F01F01D040084A20FA01F1116072
:102D50000749086007480068BDE8F05FFEF75EBEFF
:102D600000200052184402583E6200082800002447
:102D7000240000241C00002430B500F01FF80B4A8A
:102D80000B490C4B15681468C5F3032204F00F04BB
:102D90008A5C095D02F01F0201F01F01D040064A63
:102DA00020FA01F119601060084630BD184402583D
:102DB0003E6200082800002424000024454970B524
:102DC00045480968434B103B11F0380208D0011107
:102DD000082A03D0102A0BD0182A0BD0084670BD41
:102DE00019688906FBD51968C1F3C101C84070BDD7
:102DF0003A4870BD3749374D18310C1D24350A68E3
:102E0000096826682D6802F0030406F00102C1F388
:102E10000511C5F3CC0515FB02F200EE102AB8EE41
:102E2000400AE9B32F4ADFED2E0AB7EE001A6CB163
:102E3000DFED2D1A012C01D0022C43D002EE101A26
:102E40001068F8EE422A81EEA22A1EE01C68A40651
:102E500011D51B6801EE901A1168C3F3C103F8EE97
:102E6000612AD84001EE900AC1F30800F8EE611A19
:102E700081EEA22A0BE001EE901ADFED1C2A00BFC2
:102E8000F8EE611A106882EEA12AC0F3080001EE84
:102E9000900AF8EE611A40EE201A31EE810A00E045
:102EA00015E022EE000A1068C0F34620401C00EE38
:102EB000900AF8EE600A80EE201ABCEEC10A10EE0D
:102EC000100A70BD01EE901ADFED092AD8E7002044
:102ED00070BD0000104402580090D00340787D017E
:102EE00000000039304402580024744A0024744C15
:102EF00020BCBE4B2DE9F05F04007CD0FF4F207852
:102F0000FE4D1837DFF8F493103DC00748D0D9F8CC
:102F10000000396800F03800102815D0182803D1B7
:102F200001F0030002280FD06068B0F5803F12D096
:102F300010B1B0F5A02F18D0286820F48030286098
:102F4000286820F4802009E02868800328D560687C
:102F50000028D2D024E0286840F4803028606068DF
:102F600088B1FEF71FFD064609E0286840F480207E
:102F70002860F0E7FEF716FD801B64287ED82868DD
:102F80008003F7D50CE0FEF70DFD064605E000BF17
:102F9000FEF708FD801B6428F0D828688003F7D46A
:102FA000207841F20308D54E0C3E800753D5D9F85E
:102FB0000000396810F038000ED0182801D18807B9
:102FC0000AD0E068A8B3296821F0190101432960FB
:102FD000FEF7E8FC82461BE02868400702D5E0685F
:102FE00000288AD0FEF7D8FC40451BD8206940282D
:102FF00012D0316800E0CCE021F47C3141EA0030AD
:10300000306028E0FEF7CEFCA0EB0A000228B5D81D
:1030100028684007F6D5E5E7306820F47C3040F4B6
:103020000030EDE7207C316821F0FE4141EA00608C
:10303000E6E7FFE7286820F001002860FEF7B2FC11
:10304000824605E0FEF7AEFCA0EB0A00022895D808
:1030500028684007F6D42078C0065FD5D9F800006C
:10306000DFF898B2396800F03800ABF1040B08289B
:1030700012D0182805D101F0030000E0EAE0012891
:103080000AD0E0690028286838D040F08000286025
:10309000FEF788FC824623E02868C00523D5E06956
:1030A000802876D11FE0206A202821D0316821F0C5
:1030B000F84141EA8060306030E000BF94F82010B1
:1030C000DBF8002022F07C5242EA0161CBF80010CC
:1030D00024E000BFFEF766FCA0EB0A00022896D8A9
:1030E0002868C005F6D5FEF757FC4045E6D8DAE774
:1030F000306820F0F84040F08040DCE720F08000AD
:103100002860FEF74FFC064605E000BFFEF74AFCCC
:10311000801B02289BD82868C005F7D420780007B8
:1031200029D576486169643000298046016811D04C
:1031300041F001010160FEF735FC064605E000BFE5
:10314000FEF730FC801B0228C9D8D8F800008007A1
:10315000F6D510E021F001010160FEF723FC0646E0
:1031600005E000BFFEF71EFC801B022872D8D8F8CD
:1031700000008007F6D42078800623D5A0690028B7
:10318000286810D040F480502860FEF70BFC0646FB
:1031900005E02CE1FEF706FC801B02285AD82868BF
:1031A0008004F7D50EE020F480502860FEF7FAFB8B
:1031B000064604E0FEF7F6FB801B02284AD8286882
:1031C0008004F7D4207840074FD5DFF83481D8F851
:1031D000001041F48071C8F80010FEF7E3FB0646CA
:1031E00005E000BFFEF7DEFB801B642832D8D8F86C
:1031F0000000C005F6D5414EA068603601280AD00F
:1032000008B1052813D0306820F001003060306824
:1032100020F0040002E0306840F001003060A06857
:1032200041F2883A90B1FEF7BDFB80460AE0306873
:1032300040F004003060EEE7FEF7B4FBA0EB0801BD
:10324000514507D830688007F6D50EE0FEF7AAFB97
:10325000804607E084E000BFFEF7A4FBA0EB080176
:1032600051457DD830688007F6D4606AF0B3DFF846
:103270008C80D9F8001008F12008C1F3C20103299D
:103280006FD00228286820F08070286003D0FEF7F5
:1032900089FB044680E0FEF785FB064605E000BF9B
:1032A000FEF780FB801B022873D828688001F7D4C2
:1032B000E26A40F2F331386854F8283F884340EA24
:1032C000021018433860217B4FF4FE0C22894FF026
:1032D000FE47208A4902267D521E401EA1F500713C
:1032E00089B20CEA0040C2F3080200E081E0114319
:1032F000761E0143014807EA066203E010440258C3
:10330000004802581C3011433B4AC8F800100168BD
:1033100021F00101016011684FF6F876236AB1438C
:1033200041EAC30111600168A26921F00C01114357
:1033300001600168E26921F0020111430160016846
:1033400041F480310160016841F40031016001689D
:1033500041F480210160016841F00101016001E058
:1033600017E01DE0286840F080702860FEF71AFB27
:10337000044604E0FEF716FB001B022809D8286863
:103380008001F7D535E000BFFEF70CFB001B0228DB
:1033900002D90320BDE8F09F28688001F4D428E01A
:1033A00039680128D8F8000021D0A26A01F003038F
:1033B00093421CD1E26AC1F305118A4217D1216BF5
:1033C000C0F30802491E8A4211D1616BC0F3462244
:1033D000491E91420BD1A16BC0F30642491E914296
:1033E00005D1E16BC0F30660491E814201D0012086
:1033F000D0E70020CEE70000344402582DE9F04722
:10340000040029D04E4D4FF0000920684D4B4E4A24
:10341000A842C4F8289006D0984204D0904202D026
:10342000E1680F2918D8E1684FF0010AE76B08310D
:10343000C9080AEB57167143A84205D0984203D039
:10344000904201D0082907D8A84203D0984201D061
:10345000904204D1102902D90120BDE8F08794F8E8
:10346000810020B9204684F8809000F06FF8022097
:1034700084F881002068016821F001010160A069E1
:10348000B0F1806F11D16068B0F5800F01D018B134
:103490000BE0A06B20B108E0A06BB0F1805F04D11D
:1034A0002068016841F480510160A56AE0692368E1
:1034B000E16B2843E268084310439860D4E90D02A9
:1034C000D4E90571636A25691843D4F820C00A431A
:1034D000266810432843A56D3843D4E90182D4E916
:1034E000123140EA0C0040EA080008431043184338
:1034F0002843F060606868B92068816821F4C05191
:1035000041F4006181602068816821F4C06141F468
:10351000806181602068016D21F0010101656068B2
:10352000400206D52068626DC16821F00041114358
:10353000C160C4F8849084F881A000208DE7000069
:103540000030014000380040003C004010B5B6B0EB
:10355000044614212FA8FDF7B1F8BC216846FDF7F9
:10356000ADF81949206888422BD1401400900024FE
:1035700068461894FEF768FE08B1FDF704FC13488E
:10358000016841F400510160006800F4005034907B
:103590000E481038016841F01001016000680DF11B
:1035A000BC0C022100F0100034904FF4A040052321
:1035B0008CE8130001220648CDE932232FA9FEF73B
:1035C000C1F836B010BD000000340140F04402588C
:1035D000001002582DE9FF5F044616460F461D46AF
:1035E00000214FF0040BD4E900020091303002902A
:1035F000B2F5800F01D1A06888B194F8800001284D
:1036000019D04FF0010984F88090FEF7CBF994F8B7
:1036100081108246002001290FD0022126E084F883
:1036200081B03A46114620460093334600F014FA22
:1036300004B0BDE8F09F0220FAE7B7B1AEB1A268CE
:1036400080466766A4F8686084F881B0C4F8840096
:10365000A4F86A60E065A4F86000A4F86200B2F51E
:10366000C02F2067606705D009E0012184F8800041
:103670000846DDE72068016821F4006101602068E8
:1036800041686FF30F01314341602068016841F0E8
:10369000010101606068B0F5800F04D12068016805
:1036A00041F400710160E0680F282ED948F2080645
:1036B000B4F86A00002859D02068416931420BD023
:1036C000006B616E0860606E001D6066B4F86A0091
:1036D000401EA4F86A00EBE7FEF764F9A0EB0A00CD
:1036E000A84202D3681CE3D001E0002DE0D12046BF
:1036F00001F088FAD4F8842084F8808042F4807144
:10370000C4F8841084F8819079E007282AD868E00A
:103710002068416911F4604F19D04169090409D545
:10372000006B616E0860606E001D6066B4F86A0030
:10373000801E09E002980088616E0880606E801C1F
:103740006066B4F86A00401EA4F86A000AE0FEF75A
:1037500029F9A0EB0A00A84202D3681C02D0C6E7F0
:10376000002DC4D0B4F86A000028D1D13DE0206813
:10377000416911F4604F2AD04169090409D5006BF1
:10378000616E0860606E001D6066B4F86A00001F1C
:103790001AE0416901F4C041B1F5005F0AD902980D
:1037A0000088616E0880606E801C6066B4F86A00F4
:1037B000801E09E090F83000616E0870606E401C59
:1037C0006066B4F86A00401EA4F86A0009E0FEF7DB
:1037D000E9F8A0EB0A00A84202D3681C01D010E06F
:1037E0007DB1B4F86A000028C1D1204601F00AFA80
:1037F00084F88190D4F8841084F8808079B1012015
:1038000016E7204601F0FEF9D4F8842084F8808081
:1038100042F48070C4F8840084F88190EFE7009847
:1038200006E72DE9FC5F0446006817468A4600213A
:103830001D4694F8802000F1200B0191012A0DD043
:103840004FF0010884F88080FEF7ACF8814694F8C8
:1038500081000026012804D002201EE00220BDE8DD
:10386000FC9FBAF1000F17D0B7B1A1680320C4F8CC
:103870005CA0A4F8607084F88100C4F88460A4F8A7
:1038800062706666A4F86860A4F86A60B1F5C02F3B
:103890006667266704D008E0012084F88060DEE7D0
:1038A0002068016841F400610160206841686FF39D
:1038B0000F01394341602068016841F00101016056
:1038C0006068B0F5800F04D12068016841F4007190
:1038D0000160E0680F281AD82CE020684169890748
:1038E0000BD5E16D09680162E06D001DE065B4F87B
:1038F0006200401EA4F8620009E0FEF753F8A0EB56
:103900000900A84202D3681C01D005E025B1B4F833
:1039100062000028E1D183E0204601F073F9D4F879
:10392000841084F8806041F48071C4F8841084F8B5
:1039300081808DE007282CD86EE0206841698907D6
:103940001CD5B4F8621001290BD9E16B49B1E16DC6
:1039500009680162E06D001DE065B4F86200801E38
:1039600009E0E06D0188ABF80010E06D801CE065B7
:10397000B4F86200401EA4F862000AE0FEF712F8F4
:10398000A0EB0900A84202D3681C02D0C4E7002DB6
:10399000C2D0B4F862000028CFD141E0206841696C
:1039A00089072ED5B4F8621003290CD9E16B4029A0
:1039B00009D9E16D09680162E06D001DE065B4F8A8
:1039C0006200001F1AE0B4F8621001290CD9E16B03
:1039D00051B1E06D0188ABF80010E06D801CE0652E
:1039E000B4F86200801E09E0E16D097880F82010CB
:1039F000E06D401CE065B4F86200401EA4F862006F
:103A00000AE0FDF7CFFFA0EB0900A84202D3681C33
:103A100002D081E7002DB9D0B4F862000028BDD1F2
:103A200000224B4608212046009501F049F928B1B3
:103A3000D4F8840040F02000C4F88400204601F04F
:103A4000E1F884F88180D4F8840084F8806008B1BB
:103A5000012004E7019802E72DE9FF4F83B090F8B9
:103A600080100446006801294FF00001109F1D4698
:103A7000019100F1200100F1300093460291009085
:103A800014D04FF0010A84F880A0FDF78BFF804628
:103A900094F881006368002101282E464FF48002CB
:103AA0000CD0934208D1A36833B903E0022007B0D9
:103AB000BDE8F08F042801D0022037E0049898B3C5
:103AC000BBF1000F31D07DB394F88100042802D0FF
:103AD000052084F8810089460846C4F88410C4F89B
:103AE00064B0A4F86A50A4F868500499E165A4F899
:103AF0006250A4F8605020676067206841686FF3E7
:103B00000F01294341602068016841F00101016013
:103B10006068904204D12068016841F4007101603E
:103B2000E0680F2835D846E0FFE7012084F88010D0
:103B3000BDE72068416989070DD565B1E16D096868
:103B40000162E06D001DE065B4F86200401EA4F85B
:103B50006200B4F8625048F20802206841691142DC
:103B60000DD066B1006B616E0860606E001D60660E
:103B7000B4F86A00401EA4F86A00B4F86A60FDF761
:103B800011FFA0EB0800B84202D3781C01D004E07A
:103B90001FB155EA0600CCD1D2E0204601F032F840
:103BA000D4F8842084F8809042F48071C4F88410A2
:103BB00084F881A0DCE007284DD8BEE02068416988
:103BC00089071CD5DDB1012D0BD9E16B49B1E16D40
:103BD00009680162E06D001DE065B4F86200801EB6
:103BE00009E0E06D018802980180E06D801CE065CD
:103BF000B4F86200401EA4F86200B4F86250206875
:103C0000416911F4604F1BD0D6B14169090409D54F
:103C1000006B616E0860606E001D6066B4F86A003B
:103C2000801E09E000980088616E0880606E801C2C
:103C30006066B4F86A00401EA4F86A00B4F86A60CE
:103C4000FDF7B0FEA0EB0800B84202D3781C02D00A
:103C5000A3E7002FA1D055EA0600AFD170E020689D
:103C6000416989072CD55DB3032D0CD9E16B40293F
:103C70000BD9E16D09680162E06D001DE065B4F8E3
:103C80006200001F18E0012D0CD9E16B51B1E06D0D
:103C9000018802980180E06D801CE065B4F8620044
:103CA000801E09E0E16D097880F82010E06D401C6D
:103CB000E065B4F86200401EA4F86200B4F86250F7
:103CC0002068416911F4604F2CD05EB3416909044A
:103CD00009D5006B616E0860606E001D6066B4F807
:103CE0006A00001F1AE0416901F4C041B1F5005FAC
:103CF0000AD900980088616E0880606E801C60663A
:103D0000B4F86A00801E09E090F83000616E087017
:103D1000606E401C6066B4F86A00401EA4F86A0039
:103D2000B4F86A60FDF73EFEA0EB0800B84202D38B
:103D3000781C02D031E7002F8AD055EA06008ED1D8
:103D40000022434608212046009700F0B9FF28B121
:103D5000D4F8840040F02000C4F88400204600F02D
:103D600051FF84F881A0D4F8841084F8809009B1C0
:103D700001209CE601989AE6024A136883430B43AC
:103D800013607047040400580248016821F00101E3
:103D900001607047003C005803490A6822F00202A3
:103DA00002430A6070470000003C0058401EB0F11A
:103DB000807F10B501D3012010BD4FF0E024606179
:103DC0000F21601702F0A1F80020A06107212161F6
:103DD00010BD00002DE9F04390F83C20012A42D0AC
:103DE000012280F83C2051F80C4BDFF880804FF026
:103DF000000991E8680051E9022723F44073B1F803
:103E00000CC03B43CF6923F480631343026823F45F
:103E10000063234323F4805343EA050323F4005350
:103E200043EA060323F4804343EA07030C3923F4EF
:103E30007023424543EA0C4302D00D4CA2420CD100
:103E40008D8C23F47006D1E9073446EA055121F040
:103E50008071194321F000732343536480F83C9030
:103E60000020BDE8F0830220FBE7000000000140D5
:103E700000040140F0B590F83C20012A38D01D4ED6
:103E8000012480F83C40022280F83D2002681A4D4F
:103E90005368B242D2F808C001D0AA4203D14F6899
:103EA00023F470033B430F6823F070031F435760F4
:103EB0000268B24210D0B2F1804F0DD00F4B9A423F
:103EC0000AD00F4B9A4207D00E4B9A4204D0AA4216
:103ED00002D00D4B9A4204D189682CF0800319431B
:103EE0009160002180F83D4080F83C100846F0BD0C
:103EF0000220F0BD00000140000401400004004029
:103F000000080040000C00400018004010B50446B6
:103F10004FF0020249B104290ED0082913D094F8B9
:103F20004700012816D0012010BD94F84400012854
:103F3000F9D184F844200FE094F845000128F2D12B
:103F400084F8452008E094F846000128EBD184F875
:103F5000462001E084F847200422206801F03EFE5C
:103F600020681449426C42F400424264206888424E
:103F700011D0B0F1804F0ED00F4988420BD00F49BD
:103F8000884208D00E49884205D00E49884202D0A6
:103F90000D49884207D181680C4A1140062906D094
:103FA000B1F5803F03D0016841F0010101600020BC
:103FB00010BD000000000140000400400008004067
:103FC000000C004000040140001800400700010000
:103FD00010B586B0044614216846FCF76FFB0E4905
:103FE0002068884216D10D48016841F01001016037
:103FF00000680123022200F01000059000204FF419
:10400000806100916946CDE90120CDE903030448B0
:10401000FDF798FB06B010BD00000140E0440258D7
:104020000010025870B5044690F83C000D46012877
:104030000BD0012084F83C000C2A45D007DC5AB193
:10404000042A1BD0082A78D12CE0022070BD102A47
:104050004ED0142A71D15DE0206801F0CDFD2068BA
:10406000816941F0080181612068816921F00401C2
:10407000816120682A698169114311E0206801F09B
:104080000FFE2068816941F40061816120688169C7
:1040900021F48061816120682969826942EA0121F5
:1040A00081614AE0206801F047FE2068C16941F063
:1040B0000801C1612068C16921F00401C161206863
:1040C0002A69C169114311E0206801F07BFE206874
:1040D000C16941F40061C1612068C16921F4806156
:1040E000C16120682969C26942EA0121C16124E0F5
:1040F000206801F09DFE2068416D41F00801416596
:104100002068416D21F00401416520682A69416DF4
:10411000114311E0206801F0C1FE2068416D41F4B7
:10412000006141652068416D21F48061416520682E
:104130002969426D42EA01214165002084F83C0072
:1041400070BD10B5040003D094F83D0010B107E035
:10415000012010BD002084F83C00204600F022F829
:10416000022084F83D002068211D01F0D5FC0120CB
:1041700084F8480084F83E0084F83F0084F840004A
:1041800084F8410084F8420084F8430084F8440035
:1041900084F8450084F8460084F8470084F83D0020
:1041A000002010BD08B500680649884208D10648BD
:1041B000016841F001010160006800F00100009019
:1041C00008BD000000000140F0440258FEE7000076
:1041D00001480068806B7047BC0100242DE9F04164
:1041E0000D4601462DED028BFFF7F2FF8842044693
:1041F00031D0002D2FD001EE904A01EE101A00EEC2
:10420000905AF8EE611AB8EE411AB8EE602A9FEDA6
:10421000140A71EEC10A30EE420A80EE808AFDF780
:10422000C1FB104F06460120FDF77AFAFDF7BAFBF5
:10423000801B3A6800EE904A00EE100AF8EE600A21
:10424000B8EE400A40EE080ABCEEE00A10EE101A82
:104250009163A842E7D3BDEC028BBDE8F08100007A
:1042600000000000BC0100242DE9FF4F85B01D4671
:104270000C2B90460C468946059804906348DDF85F
:1042800048B0068819D0082715FB07F04000FCF756
:104290007FF803A982465E4800F03EFF5C4802A911
:1042A00000F042FFA8F120014FF00000C9B20791D1
:1042B000BBF1000F014602D097E00627E4E7DFF8E4
:1042C0004CE149E00C2D0ED0079B524A02EB031241
:1042D000002321F0010B525C009313060AD573BA38
:1042E000AEF800300CE0079A02EB42034A4A02EBB8
:1042F0008302EDE7BEF802C09CFA9CFCAEF800C059
:1043000007FB00F3401CBEF800C080B20AEB430379
:10431000A84223F80BC000D30020029B5206641C65
:10432000A4B2120E9C4202D3AEF8006047E0A4EBA8
:104330000903AB4208D1059A4C46039B521C92B22A
:1043400005929A42F0D205E0009B5B1CDBB2009321
:10435000082BC2D3491CC9B2A942B3D347E00C2DE4
:1043600033D0079B2B4A02EB03124FF0000B21F0D6
:10437000010E525C130608D5244B07FB00FC1B887A
:104380000AEB4C0C5BBA2CF80E30401C80B2A842F1
:1043900000D30020029B5206641CA4B2120E9C4261
:1043A0000BD2A4EB0903AB4216D1059A4C46039BF2
:1043B000521C92B205929A4215D314480680504678
:1043C000FCF715F809B0BDE8F08F079A02EB42033D
:1043D000114A02EB8302C8E70BF1010303F0FF0B64
:1043E000BBF1080FC6D3491CC9B2A942B7D30C2DE3
:1043F00009D008200499CDE90005054853464A46EE
:1044000000F0F2FDD9E70620F4E700009800002450
:1044100018070024C26600084E6200082DE9F84F14
:104420000D46044658194FF0000A111987B21FFAB9
:1044300081F8DDE90AB604F0FF0912E0444503D330
:1044400005EB0B004C4685B2BD420FD25B462946B8
:104450002046CDF800A0FFF707FF04EB5B0084B215
:10446000761C3278A2F120005E28E7D9BDE8F88FEB
:104470002DE9F04F654C032087B04FF0000A012171
:104480005646A06084F80CA061736149614801F050
:10449000EDF8DFF8848105215E4822464546D8F8CC
:1044A000003098475A49AA68091F5A489047DFF8D0
:1044B0006CB1DBF8000086630022AD6A1146584BF0
:1044C0005448A847FDF76EFADFF858914FF40056AC
:1044D000054654E00A20FDF723F9FDF763FA401B77
:1044E000B0F57A7F0CD8FDF75DFA401B64214FF4DC
:1044F0007A724843DBF80010B0FBF2F088633EE0CC
:10450000FDF750FA401B40F6B831884230D8FDF72D
:1045100049FA401B0A21A0F57A70B0FBF1F242A1E2
:1045200002A8FBF78BFF02A910201023CDE90001A0
:10453000208882B2A0F11E0188B20121FFF76EFF30
:10454000FDF730FA2368401BA0F57A704FF6FF772D
:104550004FF4FA6258430321B0FBF2F3CDE90017A0
:1045600062680021D8F83870D21E2A48B84706E0A1
:10457000FDF718FA411B40F6B83081420AD831469F
:104580004F464846FDF7F6F90128A3D102E00A207C
:10459000FDF7C6F831463846FDF7ECF90128F6D0AC
:1045A00000204FF49671FFF719FE61680022CDE9F3
:1045B000001AD8F83850114623681648A8471CA19D
:1045C00002A8FBF73BFF02AD102604213346CDE9DC
:1045D0000065208882B20846FFF720FFFDF7D4F976
:1045E00017A1024602A8FBF729FFCDE90065208844
:1045F0001023162182B20420FFF710FFC821642087
:10460000FFF7ECFD07B0BDE8F08F000008070024BD
:10461000A0000024180700242C000024BC01002462
:10462000B26C000800080258253033640000000016
:1046300057654163742053747564696F000000000E
:1046400053544D333248377878203078255800005D
:1046500070B50A4D0122082104462846FDF78FF95E
:10466000601EFDF75DF8002228460821FDF787F956
:10467000BDE8704040F2F310FDF752B80010025848
:104680008068C0F3C00070478068C0F38000704746
:10469000C06810F4406F01D00020704701207047BF
:1046A00010B5042404EAD1540723C1F30451204473
:1046B0008B408A40416999431143416110BD7FB5E8
:1046C00000250095019502950395FDF7F5F9012464
:1046D0008DF800401B208DF808008DF80B504FF02E
:1046E00010468DF80A4068468DF8015001960394F3
:1046F0008DF80950FDF7B2F916208DF808008DF8F5
:104700000F4005218DF80B1068468DF80E408DF88E
:1047100000408DF80D508DF80A408DF8014001964B
:104720008DF80C508DF80950FDF798F90420FDF72D
:10473000D1F97FBD70B588B01C216846FBF7BEFF7C
:1047400029480024274901250426E0E8021480E8CE
:1047500070000473447306610575C0E90654046271
:1047600044628462C46280F830401F48FCF750FD08
:1047700008B1FCF708FB062040F2FF71CDE90050BC
:10478000CDE9020118486946CDE904648DF8194065
:10479000FCF74EFB08B1FCF7F6FA0C211348CDE903
:1047A000000111486946FCF743FB08B1FCF7EBFA3E
:1047B00012210F48CDE900010B486946FCF738FB90
:1047C00008B1FCF7E0FA18210A48CDE900010648D3
:1047D0006946FCF72DFB002801D0FCF7D4FA08B09D
:1047E00070BD000000600258D00000240000B8CF67
:1047F000000084CB000052C7F0B587B01421684692
:10480000FBF75CFF2648016841F010010160016878
:1048100001F010010591016841F004010160016897
:1048200001F004010591016841F080010160016817
:1048300001F080010591016841F00101016000680B
:104840000022184F082100F0010005903846FDF7BE
:1048500096F84FF42056384601223146FDF78FF87E
:1048600000246946012508200090CDE9015438460E
:104870000394FCF767FF0221680300900A48CDE922
:1048800001416946FCF75EFF03206946CDE90065FA
:10489000CDE902403846FCF755FF07B0F0BD0000F7
:1048A000E044025800100258000802582DE9F04177
:1048B00015484FF480060021124D34010722C0E94B
:1048C0000321E300C0E90514C0E9073141625A0041
:1048D00081624FF4C027C162C0E90D21C163016448
:1048E00041648164C16401654165816580E8E000DF
:1048F000FEF784FD002803D0BDE8F041FCF743BA81
:10490000BDE8F081003401403401002410B596B0B8
:1049100000241C210BA8129413941494FBF7CEFED0
:104920002C216846FBF7CAFE23480B22214940F29E
:10493000E73380E81600C0E9033444618461FFF77F
:1049400000FC08B1FCF71FFA1B4812A9129413943B
:104950001494FFF78FFA08B1FCF715FA60200821CC
:10496000CDE90B0414480422CDE90D410BA90F94A5
:1049700010941194FFF756FB08B1FCF704FA4FF4BA
:1049800000500094019401030294CDE90440039483
:104990000694CDE907410848694609940A94FFF74F
:1049A00019FA08B1FCF7EFF90348FFF711FB16B04D
:1049B00010BD000000000140BC010024FEE770476C
:1049C000704700002DE9F047454D044689464FF0F9
:1049D000000A2868C04380070AD0414E283E30684C
:1049E00020F080603060FCF7DDFF0746B04608E04D
:1049F0000120BDE8F08700BFFCF7D4FFC01B0228F0
:104A000067D8D8F800000001F6D4206829684FF470
:104A1000FE0721F47C313E0241EA00302860207A12
:104A2000A389B4F804C040022D4D2D495B1E227CA1
:104A3000ACF1010C1035091DA0F5007080B2521EBA
:104A4000CCF3080C07EA034340EA0C00184306EADB
:104A50000262104328600868626920F0C0001043B9
:104A600008600A68A06922F0200202430A60281D3B
:104A70000A6822F010020A6002684FF6F873E469CF
:104A80009A4342EAC40202600868B9F1000F40F09C
:104A900010020A6011D00868B9F1010F11D040F47A
:104AA00000100860D8F80000444640F08060C8F864
:104AB0000000FCF777FF05460DE0086840F4002091
:104AC000EFE740F48010ECE7FCF76CFF401B022896
:104AD00001D903208DE720680001F5D5504688E70D
:104AE000284402582DE9F047454D044689464FF0C9
:104AF000000A2868C04380070AD0414E283E30682B
:104B000020F080503060FCF74DFF0746B04608E0CB
:104B10000120BDE8F08700BFFCF744FFC01B02285E
:104B200067D8D8F800008000F6D4208829684FF4B0
:104B3000FE0721F07C713E0241EA00502860207A95
:104B4000A389B4F804C040022D4D2D495B1E227C80
:104B5000ACF1010C1835091DA0F5007080B2521E91
:104B6000CCF3080C07EA034340EA0C00184306EABA
:104B70000262104328600868626920F440601043B4
:104B800008600A68A06922F4007202430A60281DC6
:104B90000A6822F480720A6002684FF6F873E469CA
:104BA0009A4342EAC40202600868B9F1000F40F477
:104BB00080720A6011D00868B9F1010F11D040F07D
:104BC00080700860D8F80000444640F08050C8F873
:104BD0000000FCF7E7FE05460DE0086840F48000A1
:104BE000EFE740F40000ECE7FCF7DCFE401B022896
:104BF00001D903208DE720688000F5D5504688E76D
:104C00002844025810B5026840F26F335169946924
:104C100044F0080494610268946944F010049461BB
:104C20000268146824F001041460026814699C434B
:104C300014610268936823F44043936090F88120E4
:104C4000042A0CD08A060AD5D0F8842042F08002CB
:104C5000C0F884200268936943F02003936190F8C0
:104C60008120032A0CD04A060AD5D0F8842042F0CD
:104C70000402C0F884200268936943F04003936102
:104C80008A050AD5D0F8842042F00102C0F88420B9
:104C90000268936943F400739361C9050AD5D0F89B
:104CA000841041F00801C0F8841001688A6942F458
:104CB00080728A610021A0F86210A0F86A1010BD0D
:104CC0002DE9F041984616460D460746069C09E038
:104CD000FCF768FEA0EB0800A04202D3601C01D0E4
:104CE0000BE054B13868406935EA000007D0002075
:104CF000B042EDD00020BDE8F0810320FBE70120A9
:104D0000F6E7002070470000F8B504466A46002028
:104D100003468DF8000004F120001321054601F040
:104D200082FA0A210646204600F006FA00236A4667
:104D30002821284601F077FA064420460A2100F08F
:104D4000FBF900236A463621284601F06CFA014639
:104D50000B488C190B49027B806801EBC00000797D
:104D60000AB940F00800694601228DF80000284683
:104D700001F052FA001901D04FF0FF30F8BD0000E9
:104D80000807002478000024F8B504466A4600208D
:104D900003468DF8000004F120001321054601F0C0
:104DA00042FA0A210646204600F0C6F900236A4668
:104DB0002921284601F037FA064420460A2100F04E
:104DC000BBF900236A463621284601F02CFA014639
:104DD0000B488C190B49027B806801EBC0000079FD
:104DE0000AB940F00800694601228DF80000284603
:104DF00001F012FA001901D04FF0FF30F8BD0000A9
:104E000008070024780000242DE9FF4F93F8038061
:104E100093469C7883B0DF7A4FF0000993F80CC07A
:104E200004EB0824997ACA4693F80D80DE7C01EBE6
:104E300007211F7D4FEA0C4C9A7C0CEB086893F815
:104E400015C08844DD7D3F0402EB06221E7E987D5E
:104E500007EB0C6C5F7E6244360400EB05201D7985
:104E600006EB07665F7930442D0405EB0767324D8A
:104E70003C4403EB080613466D680090A5EB0B0558
:104E8000291AA4EB080B88460A46DDE9030100F065
:104E900089FC4FF0FF35E8BB274C284F207B0028CA
:104EA000A06817F8300001D140F008008DF8040028
:104EB0000398012336212030009001AA01F0B3F9B4
:104EC00040BBDDE90301424600F006FC10BB7078F0
:104ED00002228DF8080002A930788DF809000098A8
:104EE00001F09AF908B1A94604E0B61C0AF1020AD9
:104EF000DA45ECD3207B0028A06807EBC0000079DE
:104F000001D140F008008DF80400012300983621FB
:104F100001AA00E00BE001F086F940B960680022C8
:104F2000009011462368039800F03CFC00B1A946AC
:104F300007B04846BDE8F08F080700247800002439
:104F40002DE9F0411D46144B00248046069F481968
:104F50004FF0FF361B68984219D8404600F0BCFB62
:104F6000A8B90E490020C7F30722FBB206E000BF34
:104F700001EB400701F81020401C7B70A842F7D3DA
:104F800006496A0008F1200001F046F900B13446F4
:104F90002046BDE8F08100000807002488040024B2
:104FA0002DE9F05F8A460F491E468346DDF82890BA
:104FB00090190025174649684FF0FF38884208D8F5
:104FC000002409E03A194B465146584600F0C6FC09
:104FD00008B1454602E0641CB442F3D32846BDE85C
:104FE000F09F0000080700242DE9FF5F1D481C46C4
:104FF00091468B46DDE90E674FF0FF3A4FF000080F
:1050000003688A199A4204D8416809EB070088426C
:1050100001D9D04622E000251EE000BF009809EB30
:105020000502594600F058FBA0B90F49002008E0DE
:10503000227801F8102001EB40026378401CA41C88
:105040005370B042F4D3009872000749203001F049
:10505000E3F800B1D0466D1CBD42DFD304B040463A
:10506000BDE8F09F08070024080200242DE9F84F4E
:10507000002699468A468346DDE90A781446354675
:105080000DE04B46224651465846CDF80080FFF7CA
:1050900057FF10B14FF0FF3603E0641C6D1CBD429A
:1050A000EFD33046BDE8F88F4FF0FF307047000077
:1050B000024880680860002070470000080700244C
:1050C000FEB51C46054600F007FB064605F120002C
:1050D0002E21054602AA01F091F806442846012235
:1050E00002A901F092F8064469460122284601F01F
:1050F0008CF806442846012201A901F086F89DF8A3
:10510000042080199DF8001001EB0221216001D0DC
:105110004FF0FF30FEBD000002480068086000202C
:10512000704700000807002402484068086000201B
:10513000704700000807002470B50546C0690E4698
:1051400080470446E8698047001BB042FAD300203C
:1051500070BD2DE9F74F5FEA000982B07DD04FF0B6
:10516000000B6A4601215C4609F120005B468DF880
:1051700000B0019001F057F878214846FFF7DCFFB6
:105180000198002301216A468DF8004001F04BF898
:10519000782105464846FFF7CFFF019801231121EA
:1051A0006A468DF8004001F03EF800236A46B121BE
:1051B0000544019801F037F8461901980125694620
:1051C0002A468DF8005001F027F8871901982C26FF
:1051D000694601228DF8006001F01EF800EB070817
:1051E0004FF02D0A01980122574669468DF800A01C
:1051F00001F012F801236A46B2218DF80050804474
:10520000019801F010F801226946804401988DF858
:10521000006001F001F801226946804401988DF890
:10522000007000F0F9FF01236A46B3218DF80050A9
:105230008044019800F0F7FF0122694680440198FC
:105240008DF8006000F0E8FF012269468044019873
:105250008DF8007000F0E0FF00E0CCE1012269462B
:10526000804401988DF8005000F0D6FF0122694675
:1052700000EB080501988DF8006000F0CDFF46199D
:105280000198012269468DF8007000F0C5FF0725DE
:105290006A4601238DF80050B4210644019800F0BD
:1052A000C2FFA2216A468719019801238DF80010D8
:1052B000C02100F0B8FF0226694601228DF8006087
:1052C0000744019800F0A8FF84218DF80010012206
:1052D00069460744019800F09FFFC5216A460123F3
:1052E0008DF80010C1210744019800F09CFF0A21AD
:1052F0006A4601238DF80010C2210744019800F08E
:1053000092FF01226946074401988DF8004000F0A1
:1053100083FF8A246A4601238DF80040C321074495
:10532000019800F080FF2A218DF8001001226946C3
:105330000744019800F070FF01236A46C4218DF8EC
:1053400000400744019800F06EFFEE218DF8001038
:10535000C41901980122694600F05EFF0E216A46D9
:1053600001238DF80010C5210444019800F05BFF73
:10537000049904444FF000036A46097B00297ED05B
:105380002021019800F04FFF01233A2104440198A5
:1053900003AA00F048FF0123B046E0216A46044416
:1053A00001988DF8006000F03EFF1C218DF8001080
:1053B000012269460444019800F02EFF012269464B
:1053C000044401988DF8005000F026FF12218DF85A
:1053D0000010012269460444019800F01DFF3721A6
:1053E0008DF80010012269460444019800F014FF72
:1053F00032218DF80010012269460444019800F022
:105400000BFF2926694601228DF8006004440198AB
:1054100000F002FF01226946044401988DF800A0C3
:1054200000F0FAFE01226946044401988DF80060FC
:1054300000F0F2FE25218DF8001001226946044497
:10544000019800F0E9FE2B218DF800100122694639
:105450000444019800F0E0FE39218DF8001007198E
:1054600001980122694600F0D7FE01225C460744FC
:10547000019869468DF800B000F0CEFE00E0BFE074
:1054800001218DF80010074401980A46694600F092
:10549000C3FE01224FF0030B0744019869468DF8C3
:1054A00000B000F0B9FE0744694610208DF80000F6
:1054B0000198012200F0B0FE01236A46E1218DF837
:1054C00000B00744019800F0AEFE074469461D2075
:1054D0008DF800000198012200F09EFE012269462D
:1054E000074401988DF8005000F096FE06218DF8D3
:1054F0000010012269460744019800F08DFE2E2518
:10550000694601228DF800500744019800F084FE9E
:10551000074469462C208DF800000198012200F014
:105520007BFE01226946074401988DF8006000F077
:1055300073FEC6190198012269468DF800A000F09B
:105540006BFE01226946064401988DF8005000F078
:1055500063FE01226946064401988DF8005000F070
:105560005BFE37218DF800108519019801226946EC
:1055700000F052FE3F218DF80010012269460544DB
:10558000019800F049FE01226946054401988DF812
:10559000004000F041FE01226946054401988DF863
:1055A000004000F039FE01226946054401988DF85B
:1055B000008000F031FE10218DF8001001226946B4
:1055C0000544019800F028FE01236A4613218DF856
:1055D00000400544019800F026FE4419019801237B
:1055E0006A46292100F01FFE04440499484600F051
:1055F00065F9001901D04FF0FF3005B0BDE8F08F1C
:105600002121BEE6F8B520300E46DA216A4607466B
:1056100000F0F4FD4FF0FF3408B12046F8BD6D46B0
:105620003846DB216A1C00F0E9FD0028F5D1AA1CF0
:105630003846DC2100F0E2FD0028EED1BDF8011073
:105640009DF8002049BA62F31F413160F8BD30B4C3
:105650000C4603692046114630BC184730B40C464E
:1056600083692046114630BC184700004FF0FF32D6
:1056700010B5E0B10B6803604C68002B44600C89E6
:105680000481CC68C4600C6904614C6944618C6914
:105690008461C969C16107494162074901620749DB
:1056A00081620749C0E90B1001D0984702461046B5
:1056B00010BD00004F560008A5590008C556000847
:1056C0005D56000830B40C4643692046114630BC94
:1056D00018474FF0FF307047F8B51446304A0D4672
:1056E000114693680A7B497B012B0FD8012902D010
:1056F000022906D018E00AB1183515E0641C1A35E5
:1057000012E0012A10D1641CAD1C0DE0012902D069
:10571000022905D008E00AB1183405E01A3402E085
:10572000012A01D1A41C6D1C6A46203000230646C4
:105730002A2100F078FD07466946280A8DF8000006
:105740000122304600F068FD0744694601223046D8
:105750008DF8005000F060FDC5196A460023304600
:105760002B2100F060FD210A8DF8001005446946E8
:105770000122304600F050FD0544694601223046C2
:105780008DF8004000F048FD44196A460023304679
:105790002C2100F048FD001901D04FF0FF30F8BD7A
:1057A000080700242DE9F8431546434A0C461E46D7
:1057B0001146DDF8209093680A7B497B012B0ED8B7
:1057C000012902D0022905D019E00AB1183416E0E7
:1057D0001A3402E0012A12D1A41C6D1C0FE0012929
:1057E00002D0022907D00AE004F101040AB11835F9
:1057F00005E01A3503E0012A01D1641CAD1C6A469C
:105800002030002380462A2100F00DFD074669461E
:10581000200A8DF800000122404600F0FDFC0744FC
:105820006946012240468DF8004000F0F5FC344402
:105830006946641EC619200A8DF800000122404600
:1058400000F0EAFC06446946012240468DF800401B
:1058500000F0E2FC84196A46002340462B2100F048
:10586000E2FC290A8DF800100444694601224046F2
:1058700000F0D2FC06196946012240468DF800501E
:1058800000F0CAFC05EB09046946641E8519200A6C
:105890008DF800000122404600F0BEFC0544694638
:1058A000012240468DF8004000F0B6FC401901D0BE
:1058B0004FF0FF30BDE8F883080700242DE9FC41D4
:1058C000244C50234A7B05468F68A02080263FB198
:1058D000012F05D0012A0FD08AB1022A0FD010E083
:1058E000012A03D02AB1022A03D00AE0C4E9003019
:1058F00007E0C4E9006004E0C4E9000301E0C4E992
:10590000000688680022A060087B2073487B11464F
:1059100060736068009028462368FFF743FF217B8F
:1059200006460D480029A16800EBC100007901D1AD
:1059300040F008008DF804000123362101AA05F18A
:10594000200000F070FC801901D04FF0FF30BDE85E
:10595000FC8100000807002478000024F8B5064602
:105960000F481F0A4FF6FF7404EA03234FF0FF3578
:105970003B43ADF80030036800248B420DD94068EA
:1059800090420AD93046FFF7A7FE30B90222694695
:1059900006F1200000F040FC00B12C462046F8BD86
:1059A00008070024F0B4C66814460D462146284670
:1059B000B446F0BC1A4660477047FBF7F9BF0000D9
:1059C000F0B59DB04C216846FAF778FE202113A867
:1059D000FAF774FE0220FCF7DDF82548002425497B
:1059E000026842F44042026002680A6842F0010222
:1059F0000A60096801F001011B9101688904FCD566
:105A00001D4902200A6808250123C603052722F044
:105A10000302921C0A6060210990CDE90A07CDE9D2
:105A20000C100F90CDE91054CDE900360E90684669
:105A30001294FDF75FFA4FF4FA7618B13046FEF78C
:105A400007FEFBE713AA3F20032182E83300012170
:105A5000179413A8189419941A94FDF75FF8002866
:105A600003D03046FEF7F4FDFBE71DB0F0BD0000AB
:105A7000184802582C04005828440258214A30B5CE
:105A8000214914680020204B44F470041460103342
:105A90000A681E4D42F001020A6018600A681A4B3B
:105AA0002A400A6018331C1D251D174A1860283229
:105AB0002060131D28601C1D251D10602A1D186004
:105AC000131D20601C1D2860251D106018602060BB
:105AD00028600A680C4B0E4C22F4802260330A6066
:105AE000186020686FF30F00B0F1005F03D209491E
:105AF0000120C1F808014FF00060024980390860B8
:105B000030BD000088ED00E0004402587FEDF6EA69
:105B10000010005C008000512DE9F047274B4FF04A
:105B2000804A274D02689842264E274F274C09D0BD
:105B3000504507D0A84205D0B04203D0B84201D0AA
:105B4000A04205D1D1F804C022F070024CEA020252
:105B5000DFF87CC0DFF87C809842DFF87C900FD0C3
:105B600050450DD0A8420BD0B04209D0B84207D062
:105B7000A04205D0604503D0404501D0484503D13F
:105B8000CD6822F440722A434D6922F080022A43F4
:105B9000026098428A68C2620A68826207D0A042A4
:105BA00005D0604503D0404501D0484501D1096981
:105BB000016301214161BDE8F08700000000014060
:105BC0000004004000080040000C004000040140B8
:105BD00000400140004401400048014010B5046A03
:105BE000042301F01F018B409C4304628A40016A38
:105BF0001143016210BD00002DE9F04F026ADFF889
:105C00008880DFF8889022F00102DFF884A0DFF8B6
:105C100084B0214F0262DFF884C0066A426883695B
:105C200026F002060D68B8428C6803EA0C0323F0E4
:105C3000030344EA060445EA030507D0404505D0BE
:105C4000484503D0504501D0584505D1CB6824F0D4
:105C50000804234323F00404B84207D0404505D08C
:105C6000484503D0504501D0584505D122F440762F
:105C7000D1E9053233431A43426085614968416383
:105C80000462BDE8F08F00000004014000400140C4
:105C90000044014000480140000001408FFFFEFF2A
:105CA000F0B5026A1E4E1F4C22F01002DFF878E0B9
:105CB0000262056A4368826925F02005D1F808C0B0
:105CC000A0420F6802EA060222F4407245EA0C156F
:105CD00042EA072201D0704506D1CE6825F0800542
:105CE00045EA061525F04005A0420AD0704508D0C7
:105CF0000E4CA04205D00E4CA04202D00D4CA0424A
:105D000007D1D1E9054623F4406343EA840343EA1B
:105D1000860343608261496881630562F0BD0000CB
:105D2000FF8FFFFE000001400004014000400140E1
:105D30000044014000480140F0B5026A1C4D1D4E70
:105D400022F48072A8420262026A4368C76922F4A0
:105D50000072D1F808C00C6827F0730742EA0C22E1
:105D600044EA070401D0B04206D1CF6822F40062B1
:105D700042EA072222F48062A8420AD0B04208D048
:105D80000D4DA84205D00D4DA84202D00C4DA842A1
:105D900007D1D1E9055623F4405343EA051343EAFA
:105DA00006134360C4614968C1630262F0BD00002C
:105DB0000000014000040140004001400044014057
:105DC0000048014070B5026A144B22F4805202620E
:105DD0009842036A4268C46923F400538E680D68D0
:105DE00024F4E64443EA063344EA05240BD00C4D80
:105DF000A84208D00B4DA84205D00B4DA84202D0B6
:105E00000A4DA84204D14D6922F4804242EA85122B
:105E10004260C46149680164036270BD00000140D2
:105E2000000401400040014000440140004801409E
:105E3000F0B5026A22F480320262134F056A4268AA
:105E4000446D25F400350E89B8420B6824F07004C7
:105E500045EA064543EA04030BD00C4CA04208D0A7
:105E60000B4CA04205D00B4CA04202D00A4CA042E1
:105E700004D14C6922F4803242EA04224260436534
:105E8000496881650562F0BD0000014000040140E1
:105E9000004001400044014000480140F0B5026A62
:105EA00022F480120262134F046A4268436D24F4A4
:105EB00000140E89B8420D6823F4E04344EA065406
:105EC00043EA05230BD00C4DA84208D00B4DA84245
:105ED00005D00B4DA84202D00A4DA84204D14D690D
:105EE00022F4003242EA8522426043654968C16576
:105EF0000462F0BD00000140000401400040014088
:105F00000044014000480140FEE7090700284FEA2D
:105F1000116104DB00F1E02080F80014704700F00C
:105F20000F0000F1E02080F8141D704730380A2877
:105F300001D20120704700207047FBF733BD0000FD
:105F400010B5034800240421FDF7E0FF204610BDF2
:105F5000BC0100242DE9F341164E4FF400650022E8
:105F6000884629463046FBF70AFDAC003046002241
:105F70002146FBF704FD1048642301226946FDF722
:105F800050FC0122074621463046FBF7F8FC0A4840
:105F900001224FF4FA734146FDF71CFBC419294650
:105FA00001223046FBF7EBFC604294FBF0F0BDE8C9
:105FB000FC81000000100258340100242DE9F0415A
:105FC0000D4E4FF4006500220C4607462946304628
:105FD000FBF7D5FCA2B209484FF4FA733946FDF736
:105FE000F9FA0122044629463046FBF7C8FC604214
:105FF00094FBF0F0BDE8F081001002583401002459
:106000002DE9F0410D4E4FF4006500220C46074685
:1060100029463046FBF7B3FCA2B20948642339464F
:10602000FDF7FFFB0122044629463046FBF7A7FC9B
:10603000604294FBF0F0BDE8F081000000100258CF
:10604000340100242DE9F743174E4FF4006815463C
:106050008946002241463046FBF791FC4FF4005739
:10606000304600223946FBF78AFC1048642301229F
:106070006946FDF7D6FB0122044639463046FBF758
:106080007EFC3DB1AAB209484FF4FA734946FDF7C8
:10609000C8FB0444414601223046FBF770FC6042D5
:1060A00094FBF0F0BDE8FE83001002583401002498
:1060B00088B0FEF704FBFAF721FEFBF781FCFFF73F
:1060C0007FFCFEF799FBFEF735FBFEF7EFFBFEF7D3
:1060D0001DFCFEF7CDF93848002140F2FF72FAF7B7
:1060E00059FE364D4FF4FA7618B13046FEF7B0FA45
:1060F000FBE7334F00244FF6FF782F48FBF76CFA8D
:1061000018B13046FEF7A4FAFBE72B486421FBF7F1
:10611000D1F918B13046FEF79BFAFBE72648FBF7AA
:1061200073F840F6E44127F8140037F814204A4386
:10613000B2FBF8F045F82400641C042CDDD31E48A3
:10614000FBF7CEFA1E4C2A68103C22606B681E21B9
:10615000E360A868A0F51B7000EBD07001EB600055
:10616000A060E86817A18000606002A8FAF766F9ED
:10617000DFF8688002AF4FF00C091023CDE90097DB
:10618000B8F800002E2182B20020FEF747F9D4E9CA
:10619000013213A102A8FAF751F9CDE90097B8F836
:1061A000000010233E2182B20020FEF737F90320C1
:1061B000FEF74EFA9DE70000D0000024C000002446
:1061C00010000024205043323A202534646D5620BC
:1061D000567265663A202534646D5600080700241F
:1061E00074656D703A202533642027432076626100
:1061F000743A202534646D560000000030B44468C1
:106200000369A44630BC1846604730B4D0E9034364
:10621000A44630BC1846604730B484680369A4467D
:1062200030BC1846604730B4046905682046AC4667
:1062300030BC60474FF04070E1EE100A704700003C
:10624000000001020304010203040607080900001C
:1062500000000000000000000000000000003F40BF
:10626000000000000000000030004000300040004E
:10627000000009000BC03D000BC03D00090018C024
:1062800024407FE0224031800000180024C01B0021
:106290000D803240018003801C4027401C80074055
:1062A000004010006000000000000000000000003E
:1062B000000000001F8020404020000040202040BF
:1062C0001F8000000000090006001F800600090072
:1062D0000000040004003F800400040000000010DF
:1062E0000060000000000000000004000400040042
:1062F0000400040000000000004000000000000056
:106300000000002001C006003800400000001F808F
:106310002040204020401F800000000010403FC06F
:1063200000400000000018C02140224024401840D6
:10633000000010802040244024401B800000020008
:106340000D0011003FC0014000003C80244024406B
:106350002440238000001F802440244034400380D8
:1063600000003000200027C03800200000001B8003
:106370002440244024401B8000001C0022C02240F6
:1063800022401F80000000000000084000000000C4
:106390000000000000000460000000000000000099
:1063A00004000A0011002080404009000900090093
:1063B00009000900000000004040208011000A0090
:1063C00004001800200023402400180000001F8053
:1063D0002040274029401F400000004007C03900EE
:1063E0000F0001C0004020403FC0244024401B80DB
:1063F00000001F80204020402040308000002040CE
:106400003FC0204020401F80000020403FC024406B
:106410002E4030C0000020403FC024402E003000FD
:1064200000000F00108020402240338002002040F6
:106430003FC0040004003FC02040204020403FC037
:106440002040204000000060202020203FC020008D
:10645000200020403FC024400B0030C0204020409E
:106460003FC020400040004000C03FC03C0003C08F
:106470003C003FC0000020403FC00C4023003FC014
:1064800020001F802040204020401F80000020402E
:106490003FC024402400180000001F8021402140FC
:1064A00020E01FA0000020403FC02440260019C06B
:1064B000004018C0244024402240318000003000B9
:1064C00020403FC020403000000020003F800040BE
:1064D00000403F80200020003E0001C0070038003F
:1064E0002000380007C03C0007C0380000002040F2
:1064F00039C0060039C0204000002000384007C0E5
:10650000384020000000304021C02640384020C0E4
:106510000000000000007FE040204020000000005C
:1065200070000C000380004000000000402040206C
:106530007FE000000000000020004000200000007C
:1065400000000010001000100010001000100000EB
:106550000000400000000000000000000280054034
:10656000054003C0004020003FC0044004400380B9
:1065700000000000038004400440064000000000CA
:106580000380044024403FC00040000003800540D9
:10659000054003400000000004401FC02440244088
:1065A0002000000002E00550055006500420204065
:1065B0003FC00440040003C000400000044027C066
:1065C00000400000000000100010041027E0000050
:1065D000000020403FC00140070004C004402040AC
:1065E00020403FC000400040000007C0040007C03A
:1065F000040003C00000044007C00440040003C0BE
:1066000000400000038004400440038000000410A8
:1066100007F00450044003800000000003800440A1
:10662000045007F00010044007C0024004000400BA
:106630000000000006400540054004C000000000C6
:1066400004001F8004400040000004000780004058
:10665000044007C000400400070004C00180060099
:106660000400060001C0070001C00600000004404D
:1066700006C0010006C0044000000410071004E03A
:106680000180060004000000044005C006400440EC
:1066900000000000000004007BE04020000000003B
:1066A00000000000FFF000000000000040207BE040
:1066B0000400000000004000800040002000200096
:1066C000400000000000000000000000000000008A
:1066D00000000000000000001FCC000C00000000C3
:1066E000000000000800300060000800300060007A
:1066F0000000022003FC1E20022003FC1E200220BA
:10670000000000000E1811043FFF10840C780000F8
:1067100000000F0010840F3800C00778188400783C
:10672000000000780F8410C411240E9800E4008447
:106730000008080068007000000000000000000071
:10674000000000000000000007E0181820044002CC
:106750000000000040022004181807E000000000BC
:1067600000000240024001800FF001800240024020
:1067700000000080008000800FF800800080008012
:1067800000000001000D000E0000000000000000ED
:1067900000000000008000800080008000800080F9
:1067A00000800000000C000C000000000000000051
:1067B00000000000000600180060018006001800BC
:1067C0002000000007F0080810041004080807F073
:1067D00000000000080408041FFC0004000400007E
:1067E000000000000E0C10141024104411840E0C34
:1067F000000000000C1810041104110412880C7021
:106800000000000000E00320042408241FFC0024F2
:10681000000000001F9810841104110410881070EB
:106820000000000007F008881104110418880070A7
:10683000000000001C00100010FC13001C001000E1
:10684000000000000E3811441084108411440E38EA
:10685000000000000700088C10441044088807F06E
:106860000000000000000000030C030C000000000A
:106870000000000000000001010600000000000010
:1068800000000000008001400220041008081004ED
:10689000000002200220022002200220022002200A
:1068A00000000000100408080410022001400080CD
:1068B000000000000E001200100C106C10800F0081
:1068C000000003E00C1813E4142417C4082807D0B0
:1068D00000000004003C03C41C40074000E4001C0E
:1068E000000410041FFC1104110411040E88007030
:1068F000000003E00C1810041004100410081C1011
:10690000000010041FFC100410041004080807F015
:10691000000010041FFC1104110417C4100408180F
:10692000000010041FFC1104110017C01000080023
:10693000000003E00C181004100410441C78004000
:10694000000010041FFC10840080008010841FFCD5
:1069500010040000100410041FFC100410040000B8
:10696000000000030001100110011FFE10001000C4
:10697000000010041FFC110403801464181C100490
:10698000000010041FFC1004000400040004000CAC
:10699000000010041FFC1F0000FC1F001FFC10045F
:1069A000000010041FFC0C04030000E010181FFC82
:1069B000100007F00808100410041004080807F07D
:1069C000000010041FFC10841080108010800F0045
:1069D000000007F0081810241024101C080A07F201
:1069E000000010041FFC1104110011C011300E0C26
:1069F000000400000E1C11041084108410441C3884
:106A000000001800100010041FFC100410001800F3
:106A1000000010001FF810040004000410041FF808
:106A2000100010001E0011E0001C007013801C00FC
:106A300010001FC0103C00E01F0000E0103C1FC011
:106A400000001004180C163401C001C01634180CD4
:106A5000100410001C00130400FC13041C001000A0
:106A600000000804101C1064108413041C04101887
:106A700000000000000000007FFE400240024002D3
:106A80000000000030000C0003800060001C0003C8
:106A9000000000004002400240027FFE00000000B3
:106AA00000000000000020004000400040002000E6
:106AB00000000001000100010001000100010001CF
:106AC0000001000040004000200000000000000025
:106AD000000000000098012401440144014400FC2E
:106AE000000410001FFC00880104010400880070ED
:106AF0000000000000700088010401040104008807
:106B000000000000007000880104010411081FFC4F
:106B10000004000000F8014401440144014400C89D
:106B200000000000010401040FFC11041104110015
:106B30001800000000D601290129012901C9010618
:106B4000000010041FFC008401000100010400FC8F
:106B5000000400000104190419FC000400040000F2
:106B600000000000000300010101190119FE0000EE
:106B7000000010041FFC0024004001B4010C0104BB
:106B800000000000100410041FFC000400040000BA
:106B90000000010401FC0104010001FC01040100EA
:106BA00000FC010401FC008401000100010400FC60
:106BB0000004000000F8010401040104010400F8CD
:106BC0000000010101FF008501040104008800703C
:106BD000000000000070008801040104010501FFAD
:106BE00000010104010401FC008401040100018092
:106BF0000000000000CC012401240124012401989C
:106C0000000000000100010007F801040104000079
:106C10000000010001F8000400040004010801FC68
:106C20000004010001800170000C0010016001806F
:106C3000010001F0010C003001C00030010C01F036
:106C4000010000000104018C00740170018C01043A
:106C50000000010101810171000E00180160018036
:106C6000010000000184010C013401440184010C85
:106C70000000000000000000000001003EFC400297
:106C800040020000000000000000FFFF00000000C4
:106C900000000000400240023EFC01000000000035
:106CA00000000000600080008000400040002000E4
:106CB0002000424D48640000000000004600000033
:106CC00038000000A000000050000000010010008B
:106CD0000300000002640000120B0000120B000011
:106CE000000000000000000000F80000E0070000C5
:106CF0001F00000000000000000000000000000075
:106D00000000000000000000000000000000000083
:106D10000000000000000000000000000000000073
:106D20000000000000000000000000000000000063
:106D30000000000000000000000000000000000053
:107C60000000000008422D6B2D6B2D6B24210000BD
:107C70000000000000000000000000000000000004
:107C800000000000000000000000000000000000F4
:107C900000000000000000000000000000000000E4
:107CA00000000000000000000000000000000000D4
:107CB00000000000000000000000000000000000C4
:107CC00000000000000000000000000000000000B4
:107CD00000000000000000000000000000000000A4
:107CE0000000000000000000000000000000000094
:107CF0000000000000000000000000000000000084
:107D00000000000000000000000000000000000073
:107D10000000000000000000000000000000000063
:107D20000000000000000000000000000000000053
:107D30000000000000000000000000000000000043
:107D40000000000000000000000000000000000033
:107D50000000000000000000000000000000000023
:107D60000000000000000000000000000000000013
:107D70000000000000000000000000000000000003
:107D800000000000000000000000000000000000F3
:107D90000000000000000000000000000000084299
:107DA000D7BDBEF7BEF79AD69AD6BEF7FFFF5CE7FF
:107DB000D7BDAA5200000000000000000000000033
:107DC000000000003084FBDEFFFFFFFFBEF7D7BDE1
:107DD0002D6B000000000000000000000842D7BD2D
:107DE0005CE7FFFFFFFFBEF738C6308424210000A8
:107DF000AA529AD69AD69AD69AD69AD69AD69AD677
:107E0000000000000000000000000000242114A574
:107E1000FBDEFFFFFFFF5CE714A52421000075AD2A
:107E20009AD69AD69AD69AD69AD69AD630840000FE
:107E3000000030849AD69AD69AD69AD69AD69AD6EE
:107E400075AD000000000000000000000000000010
:107E5000CF7B38C65CE7FFFFFFFFFBDED7BDAA5232
:107E60000000000000000000000000000000000012
:107E70000000000000000000000000000000000002
:107E800000000000000000000000000000000000F2
:107E900000000000000000000000000000000000E2
:107EA00000000000000000000000000000000000D2
:107EB00000000000000000000000000000000000C2
:107EC00000000000000000000000000000000000B2
:107ED00000000000000000000000242175ADFFFF3D
:107EE000D7BDAA520000000000002421FFFFFFFFC1
:107EF000FFFFFFFF38C62421000000000000000043
:107F00000000D7BDFFFFFFFFFFFFFFFFFFFFFFFFE9
:107F1000FFFF75AD000000000000CF7BFFFFFFFFFB
:107F2000FFFFFFFFFFFFFFFFFFFFFFFFBEF714A5EF
:107F30002D6BFFFFFFFFFFFFFFFFFFFFFFFFFFFFB7
:107F4000000000000000000000003084BEF7FFFFCA
:107F5000FFFFFFFFFBDE14A5FBDE5CE7AA529AD60B
:107F6000FFFFFFFFFFFFFFFFFFFFFFFF14A5000064
:107F7000000014A5FFFFFFFFFFFFFFFFFFFFFFFF54
:107F80009AD60000000000000000000008429AD6C7
:107F9000FFFFFFFFFFFF14A500000842B2945CE75B
:107FA00038C624210000000000000000000000008E
:107FB00000000000000000000000000000000000C1
:107FC00000000000000000000000000000000000B1
:107FD00000000000000000000000000000000000A1
:107FE0000000000000000000000000000000000091
:107FF0000000000000000000000000000000000081
:108000000000000000000000000000000000000070
:1080100000000000000000002421FBDEFBDEAA526D
:10802000000000000000000000002D6BFFFFFFFFBC
:10803000FFFFFFFFFFFFFBDE00000000000000006D
:108040003084FFFFFFFFFFFFFFFFFFFFFFFFB29442
:108050000842FBDEB29400002421BEF7FFFFFFFFC1
:10806000FFFFFFFFFFFFBEF72421000030845CE725
:10807000BEF7FFFFFFFFFFFFFFFFFFFFFFFFFFFF59
:1080800000000000000000003084FFFFFFFFFFFF42
:10809000FFFFFFFF2D6B00000000B294BEF75CE70E
:1080A000FFFFFFFFFFFFFFFFFFFFFFFF14A5000023
:1080B000000014A5FFFFFFFFFFFFFFFFFFFFFFFF13
:1080C0009AD60000000000000000AA52BEF7FFFF91
:1080D000FFFFFFFFFFFF14A50000000000000000ED
:1080E00014A5FBDE242100000000000000000000B9
:1080F0000000000000000000000000000000000080
:10810000000000000000000000000000000000006F
:10811000000000000000000000000000000000005F
:10812000000000000000000000000000000000004F
:10813000000000000000000000000000000000003F
:10814000000000000000000000000000000000002F
:108150000000000000000000084238C62421000092
:1081600000000000000000000842BEF7FFFFFFFF14
:10817000FFFFFFFFFFFFFFFF14A50000000000004E
:108180009AD6FFFFFFFFFFFFFFFFFFFFFFFF2D6BF3
:10819000000008425CE72421CF7BFFFFFFFFFFFFC9
:1081A000FFFFFFFFFFFF9AD6000000000000000065
:1081B00075ADFFFFFFFFFFFFFFFFFFFFFFFFFFFFAB
:1081C0000000000000002D6BFFFFFFFFFFFFFFFF1F
:1081D000FFFFFFFF2D6B0000000000003084FFFF59
:1081E000FFFFFFFFFFFFFFFFFFFFFFFF14A50000E2
:1081F000000014A5FFFFFFFFFFFFFFFFFFFFFFFFD2
:108200009AD60000000000002421BEF7FFFFFFFF08
:10821000FFFFFFFFFFFF14A50000000000000000AB
:108220000000B2949AD60000000000000000000098
:10823000000000000000000000000000000000003E
:10824000000000000000000000000000000000002E
:10825000000000000000000000000000000000001E
:10826000000000000000000000000000000000000E
:1082700000000000000000000000000000000000FE
:1082800000000000000000000000000000000000EE
:1082900000000000000000000000000000000000DE
:1082A0000000000000002421FBDEFFFFFFFFFFFFB6
:1082B000FFFFFFFFFFFFFFFF5CE700000000000083
:1082C000FFFFFFFFFFFFFFFFFFFFFFFFFFFF2D6B24
:1082D00000000000D7BD2D6B14A5FFFFFFFFFFFFBF
:1082E000FFFFFFFFFFFF9AD6000000000000000024
:1082F0002D6BFFFFFFFFFFFFFFFFFFFFFFFFFFFFF4
:108300000000000000005CE7FFFFFFFFFFFFFFFF32
:10831000FFFFFFFF2D6B00000000000000009AD659
:10832000FFFFFFFFFFFFFFFFFFFFFFFF14A50000A0
:10833000000014A5FFFFFFFFFFFFFFFFFFFFFFFF90
:108340009AD6000000000000D7BDFFFFFFFFFFFF2F
:10835000FFFFFFFFFFFF14A500000000000000006A
:10836000000000009AD630840000000000000000E9
:1083700000000000000000000000000000000000FD
:1083800000000000000000000000000000000000ED
:1083900000000000000000000000000000000000DD
:1083A00000000000000000000000000000000000CD
:1083B00000000000000000000000000000000000BD
:1083C00000000000000000000000000000000000AD
:1083D000000000000000000000000000000000009D
:1083E000000000002421FBDEFFFFFFFFFFFFFFFF77
:1083F000FFFFFFFFFFFFFFFFFFFF00000000000087
:10840000FFFFFFFFFFFFFFFFFFFFFFFFFFFF2D6BE2
:10841000000000000000000014A5FFFFFFFFFFFFA9
:10842000FFFFFFFFFFFF9AD60000000000000000E2
:108430002D6BFFFFFFFFFFFFFFFFFFFFFFFFFFFFB2
:1084400000000000CF7BFFFFFFFFFFFFFFFFFFFFEC
:10845000FFFFFFFF2D6B00000000000000009AD618
:10846000FFFFFFFFFFFFFFFFFFFFFFFF14A500005F
:10847000000014A5FFFFFFFFFFFFFFFFFFFFFFFF4F
:108480009AD6000000002421FFFFFFFFFFFFFFFF3F
:10849000FFFFFFFFFFFF14A5000000000000000029
:1084A000000000002D6B9AD60000000000000000C4
:1084B00000000000000000000000000000000000BC
:1084C00000000000000000000000000000000000AC
:1084D000000000000000000000000000000000009C
:1084E000000000000000000000000000000000008C
:1084F000000000000000000000000000000000007C
:10850000000000000000000000000000000000006B
:10851000000000000000000000000000000000005B
:1085200000002421FBDEFFFFFFFFFFFFFFFFFFFF37
:10853000FFFFFFFFFFFFFFFFBEF70000000000008E
:10854000FFFFFFFFFFFFFFFFFFFFFFFFFFFF2D6BA1
:10855000000000000000000014A5FFFFFFFFFFFF68
:10856000FFFFFFFFFFFF9AD60000000000000000A1
:108570002D6BFFFFFFFFFFFFFFFFFFFFFFFFFFFF71
:108580000000000075ADFFFFFFFFFFFFFFFFFFFFD3
:10859000FFFFFFFF2D6B00000000000000009AD6D7
:1085A000FFFFFFFFFFFFFFFFFFFFFFFF14A500001E
:1085B000000014A5FFFFFFFFFFFFFFFFFFFFFFFF0E
:1085C0009AD600000000CF7BFFFFFFFFFFFFFFFFF9
:1085D000FFFFFFFFFFFF14A50000000000000000E8
:1085E000000000000000BEF7242100000000000091
:1085F000000000000000000000000000000000007B
:10860000000000000000000000000000000000006A
:10861000000000000000000000000000000000005A
:10862000000000000000000000000000000000004A
:10863000000000000000000000000000000000003A
:10864000000000000000000000000000000000002A
:10865000000000000000000000000000000000001A
:108660002421FBDEFFFFFFFFFFFFFFFFFFFFFFFFF8
:10867000FFFFFFFFFFFFFFFFD7BD0000000000006E
:10868000FFFFFFFFFFFFFFFFFFFFFFFFFFFF2D6B60
:10869000000000000000000014A5FFFFFFFFFFFF27
:1086A000FFFFFFFFFFFF9AD6000000000000000060
:1086B0002D6BFFFFFFFFFFFFFFFFFFFFFFFFFFFF30
:1086C000000000009AD6FFFFFFFFFFFFFFFFFFFF44
:1086D000FFFFFFFF2D6B00000000000000009AD696
:1086E000FFFFFFFFFFFFFFFFFFFFFFFF14A50000DD
:1086F000000014A5FFFFFFFFFFFFFFFFFFFFFFFFCD
:108700009AD60000000014A5FFFFFFFFFFFFFFFF48
:10871000FFFFFFFFFFFF14A50000000000000000A6
:108720000000000000009AD62D6B00000000000041
:108730000000000000000000000000000000000039
:108740000000000000000000000000000000000029
:108750000000000000000000000000000000000019
:108760000000000000000000000000000000000009
:1087700000000000000000000000000000000000F9
:1087800000000000000000000000000000000000E9
:1087900000000000000000000000000000000000D9
:1087A000D7BDFFFFFFFFFFFFFFFFFFFFFFFFFFFF43
:1087B000FFFFFFFFFFFFFFFF084200000000000077
:1087C000FFFFFFFFFFFFFFFFFFFFFFFFFFFF2D6B1F
:1087D000000000000000000014A5FFFFFFFFFFFFE6
:1087E000FFFFFFFFFFFF9AD600000000000000001F
:1087F0002D6BFFFFFFFFFFFFFFFFFFFFFFFFFFFFEF
:10880000000000009AD6FFFFFFFFFFFFFFFFFFFF02
:10881000FFFFFFFF2D6B00000000000000009AD654
:10882000FFFFFFFFFFFFFFFFFFFFFFFF14A500009B
:10883000000014A5FFFFFFFFFFFFFFFFFFFFFFFF8B
:108840009AD60000000014A5FFFFFFFFFFFFFFFF07
:10885000FFFFFFFFFFFF14A5000000000000000065
:108860000000000000009AD62D6B00000000000000
:1088700000000000000000000000000000000000F8
:1088800000000000000000000000000000000000E8
:1088900000000000000000000000000000000000D8
:1088A00000000000000000000000000000000000C8
:1088B00000000000000000000000000000000000B8
:1088C00000000000000000000000000000000000A8
:1088D000000000000000000000000000000075AD76
:1088E000FFFFFFFFFFFFFFFFFFFFFFFFFFFFFFFF98
:1088F000FFFFFFFFFFFF14A50000000000000000C5
:10890000FFFFFFFFFFFFFFFFFFFFFFFFFFFF2D6BDD
:10891000000000000000000014A5FFFFFFFFFFFFA4
:10892000FFFFFFFFFFFF9AD60000000000000000DD
:108930002D6BFFFFFFFFFFFFFFFFFFFFFFFFFFFFAD
:10894000000000009AD6FFFFFFFFFFFFFFFFFFFFC1
:10895000FFFFFFFF2D6B00000000000000009AD613
:10896000FFFFFFFFFFFFFFFFFFFFFFFF14A500005A
:10897000000014A5FFFFFFFFFFFFFFFFFFFFFFFF4A
:108980009AD600000000B294FFFFFFFFFFFFFFFF39
:10899000FFFFFFFFFFFF14A5000000000000000024
:1089A0000000000000005CE708420000000000003A
:1089B00000000000000000000000000000000000B7
:1089C00000000000000000000000000000000000A7
:1089D0000000000000000000000000000000000097
:1089E0000000000000000000000000000000000087
:1089F0000000000000000000000000000000000077
:108A00000000000000000000000000000000000066
:108A1000000000000000000000000000CF7BFFFF0E
:108A2000FFFFFFFFFFFFFFFFFFFFFFFFFFFFFFFF56
:108A3000FFFFFFFF38C6000000000000000000003C
:108A4000FFFFFFFFFFFFFFFFFFFFFFFFFFFF2D6B9C
:108A5000000000000000000014A5FFFFFFFFFFFF63
:108A6000FFFFFFFFFFFF9AD600000000000000009C
:108A70002D6BFFFFFFFFFFFFFFFFFFFFFFFFFFFF6C
:108A80000000000014A5FFFFFFFFFFFFFFFFFFFF37
:108A9000FFFFFFFF2D6B00000000000000009AD6D2
:108AA000FFFFFFFFFFFFFFFFFFFFFFFF14A5000019
:108AB000000014A5FFFFFFFFFFFFFFFFFFFFFFFF09
:108AC0009AD600000000AA52FFFFFFFFFFFFFFFF42
:108AD000FFFFFFFFFFFF14A50000000000000000E3
:108AE000000000000842BEF7000000000000000087
:108AF0000000000000000000000000000000000076
:108B00000000000000000000000000000000000065
:108B10000000000000000000000000000000000055
:108B20000000000000000000000000000000000045
:108B30000000000000000000000000000000000035
:108B40000000000000000000000000000000000025
:108B5000000000000000000000002421BEF7FFFF1D
:108B6000FFFFFFFFFFFFFFFFFFFFFFFFFFFFFFFF15
:108B7000FFFFFBDE242100000000000000000000D9
:108B8000FFFFFFFFFFFFFFFFFFFFFFFFFFFF2D6B5B
:108B9000000000000000000014A5FFFFFFFFFFFF22
:108BA000FFFFFFFFFFFF9AD600000000000000005B
:108BB0002D6BFFFFFFFFFFFFFFFFFFFFFFFFFFFF2B
:108BC00000000000AA52FFFFFFFFFFFFFFFFFFFFB3
:108BD000FFFFFFFF2D6B00000000000000009AD691
:108BE000FFFFFFFFFFFFFFFFFFFFFFFF14A50000D8
:108BF000000014A5FFFFFFFFFFFFFFFFFFFFFFFFC8
:108C00009AD60000000000005CE7FFFFFFFFFFFFB7
:108C1000FFFFFFFFFFFF14A50000000000000000A1
:108C20000000000014A575AD000000000000000069
:108C30000000000000000000000000000000000034
:108C40000000000000000000000000000000000024
:108C50000000000000000000000000000000000014
:108C60000000000000000000000000000000000004
:108C700000000000000000000000000000000000F4
:108C800000000000000000000000000000000000E4
:108C90000000000000000000000014A5FFFFFFFF1F
:108CA000FFFFFFFFFFFFFFFFFFFFFFFFFFFFFFFFD4
:108CB0005CE724210000000000000000000000002C
:108CC000FFFFFFFFFFFFFFFFFFFFFFFFFFFF2D6B1A
:108CD000000000000000000014A5FFFFFFFFFFFFE1
:108CE000FFFFFFFFFFFF9AD600000000000000001A
:108CF0002D6BFFFFFFFFFFFFFFFFFFFFFFFFFFFFEA
:108D000000000000000038C6FFFFFFFFFFFFFFFF6D
:108D1000FFFFFFFF2D6B00000000000000009AD64F
:108D2000FFFFFFFFFFFFFFFFFFFFFFFF14A5000096
:108D3000000014A5FFFFFFFFFFFFFFFFFFFFFFFF86
:108D40009AD6000000000000CF7BFFFFFFFFFFFF6F
:108D5000FFFFFFFFFFFF14A5000000000000000060
:108D60000000AA525CE7242100000000000000007F
:108D700000000000000000000000000000000000F3
:108D800000000000000000000000000000000000E3
:108D900000000000000000000000000000000000D3
:108DA00000000000000000000000000000000000C3
:108DB00000000000000000000000000000000000B3
:108DC00000000000000000000000000000000000A3
:108DD000000000000000000000005CE7FFFFFFFF54
:108DE000FFFFFFFFFFFFFFFFFFFFFFFFFFFFBEF7DC
:108DF000AA52000000000000000000000000000077
:108E0000FFFFFFFFFFFFFFFFFFFFFFFFFFFF2D6BD8
:108E1000000000000000000014A5FFFFFFFFFFFF9F
:108E2000FFFFFFFFFFFF9AD60000000000000000D8
:108E30002D6BFFFFFFFFFFFFFFFFFFFFFFFFFFFFA8
:108E400000000000000024215CE7FFFFFFFFFFFFA0
:108E5000FFFFFFFF2D6B00000000000024215CE7F6
:108E6000FFFFFFFFFFFFFFFFFFFFFFFF14A5000055
:108E7000000014A5FFFFFFFFFFFFFFFFFFFFFFFF45
:108E80009AD60000000000000000D7BDFFFFFFFFE2
:108E9000FFFFFFFFFFFF14A500000000000000001F
:108EA000AA52BEF73084000000000000000000005D
:108EB00000000000000000000000000000000000B2
:108EC00000000000000000000000000000000000A2
:108ED0000000000000000000000000000000000092
:108EE0000000000000000000000000000000000082
:108EF0000000000000000000000000000000000072
:108F00000000000000000000000000000000000061
:108F100000000000000000000000FFFFFFFFFFFF57
:108F2000FFFFFFFFFFFFFFFFFFFFFFFFBEF7AA529C
:108F30000000000000000000000000000000000031
:108F4000FFFFFFFFFFFFFFFFFFFFFFFFFFFF2D6B97
:108F5000000000000000000014A5FFFFFFFFFFFF5E
:108F6000FFFFFFFFFFFF9AD6000000000000000097
:108F70002D6BFFFFFFFFFFFFFFFFFFFFFFFFFFFF67
:108F80000000000000000000AA52FBDEFFFFFFFF10
:108F9000FFFFFFFF2D6B000000002D6BFBDE5CE789
:108FA000FFFFFFFFFFFFFFFFFFFFFFFF14A5000014
:108FB000000014A5FFFFFFFFFFFFFFFFFFFFFFFF04
:108FC0009AD60000000000000000000075ADFFFF11
:108FD000FFFFFFFFFFFF14A5000000000000B29498
:108FE0005CE730840000000000000000000000008A
:108FF0000000000000000000000000000000000071
:109000000000000000000000000000000000000060
:109010000000000000000000000000000000000050
:109020000000000000000000000000000000000040
:109030000000000000000000000000000000000030
:109040000000000000000000000000000000000020
:1090500000000000000000000000FFFFFFFFFFFF16
:10906000FFFFFFFFFFFFFFFFFFFFFFFFAA52000010
:109070000000000000000000000008429AD69AD6C6
:10908000FFFFFFFFFFFFFFFFFFFFFFFFFFFFFBDE15
:109090009AD69AD63084000014A5FFFFFFFFFFFF89
:1090A000FFFFFFFFFFFF9AD6000000000000000056
:1090B0002D6BFFFFFFFFFFFFFFFFFFFFFFFFFFFF26
:1090C00000000000000000000000242114A5BEF7ED
:1090D000FFFFFFFFFBDE14A5FBDE9AD608429AD6FF
:1090E000FFFFFFFFFFFFFFFFFFFFFFFF14A50000D3
:1090F000000014A5FFFFFFFFFFFFFFFFFFFFFFFFC3
:109100009AD60000000000000000000000002D6B57
:109110009AD6FFFFFFFF9AD614A5D7BDBEF7D7BDDD
:1091200008420000000000000000000000000000F5
:10913000000000000000000000000000000000002F
:10914000000000000000000000000000000000001F
:10915000000000000000000000000000000000000F
:1091600000000000000000000000000000000000FF
:1091700000000000000000000000000000000000EF
:1091800000000000000000000000000000000000DF
:109190000000000000000000000038C6FFFFFFFFD5
:1091A000FFFFFFFFFFFFFFFFFFFF30840000000015
:1091B0000000000000000000000024212D6B2D6B3A
:1091C000FFFFFFFFFFFFFFFFFFFFFFFFFFFF2D6B15
:1091D0002D6B2D6B0842000008422D6B2D6B2D6B03
:1091E0002D6B2D6B2D6BAA520000000000000000BB
:1091F00024212D6B2D6B2D6B2D6B2D6B2D6B2D6B02
:10920000000000000000000000000000000000005E
:109210002D6B14A514A530840842000000009AD6D6
:10922000FFFFFFFFFFFFFFFFFFFFFFFF14A5000091
:10923000000008422D6B2D6B2D6B2D6B2D6B2D6B54
:10924000AA52000000000000000000000000000022
:1092500000000842308414A514A5CF7B242100000F
:1092600000000000000000000000000000000000FE
:1092700000000000000000000000000000000000EE
:1092800000000000000000000000000000000000DE
:1092900000000000000000000000000000000000CE
:1092A00000000000000000000000000000000000BE
:1092B00000000000000000000000000000000000AE
:1092C000000000000000000000000000000000009E
:1092D00000000000000000000000AA52FFFFFFFF96
:1092E000FFFFFFFFFFFFFFFF14A5000000000000CD
:1092F00000000000AA52AA52000000000000000076
:10930000FFFFFFFFFFFFFFFFFFFFFFFFFFFF242126
:10931000000000000000000000000000000000004D
:10932000000000000000000000000000000000003D
:10933000000000000000000000000000000000002D
:10934000000000000000000000000000000000001D
:1093500000000000000000000000000000009AD69D
:10936000FFFFFFFFFFFFFFFFFFFFFFFF14A5000050
:10937000000000002421308414A514A53084084284
:1093800000000000000000000000000000000000DD
:1093900000000000000000000000000000000000CD
:1093A00000000000000000000000000000000000BD
:1093B00000000000000000000000000000000000AD
:1093C000000000000000000000000000000000009D
:1093D000000000000000000000000000000000008D
:1093E000000000000000000000000000000000007D
:1093F000000000000000000000000000000000006D
:10940000000000000000000000000000000000005C
:109410000000000000000000000000003084FFFF9A
:10942000FFFFFFFFFFFFFFFF2421000000000000FF
:109430000000B294FFFF2D6B000000000000000050
:10944000084214A55CE7FFFFFFFFFFFFFFFF2D6B46
:10945000000000000000000000000000000000000C
:1094600000000000000000000000000000000000FC
:1094700000000000000000000000000000000000EC
:1094800000000000000000000000000000000000DC
:1094900000000000000000000000000000009AD65C
:1094A000FFFFFFFFFFFFFFFFFFFFFFFF14A500000F
:1094B00000000842BEF7FFFFFFFFFFFFFFFFBEF700
:1094C000CF7B000000000000000000000000000052
:1094D000000000000000000000000000000000008C
:1094E000000000000000000000000000000000007C
:1094F000000000000000000000000000000000006C
:10950000000000000000000000000000000000005B
:10951000000000000000000000000000000000004B
:10952000000000000000000000000000000000003B
:10953000000000000000000000000000000000002B
:10954000000000000000000000000000000000001B
:109550000000000000000000000000000000AA520F
:109560009AD6FFFFFFFFFFFF14A52D6B2D6B75AD86
:109570005CE79AD6AA52000000000000000000003C
:1095800000000000000030845CE7FFFFFFFF2D6B50
:1095900000000000000000000000000000000000CB
:1095A00000000000000000000000000000000000BB
:1095B00000000000000000000000000000000000AB
:1095C000000000000000000000000000000000009B
:1095D00000000000000000000000000000009AD61B
:1095E000FFFFFFFFFFFFFFFFFFFFFFFF14A50000CE
:1095F000000014A5FFFFFFFFFFFFFFFFFFFFFFFFBE
:109600009AD60000000000000000000000000000EA
:10961000000000000000000000000000000000004A
:10962000000000000000000000000000000000003A
:10963000000000000000000000000000000000002A
:10964000000000000000000000000000000000001A
:10965000000000000000000000000000000000000A
:1096600000000000000000000000000000000000FA
:1096700000000000000000000000000000000000EA
:1096800000000000000000000000000000000000DA
:1096900000000000000000000000000000000000CA
:1096A00000000842B294D7BD9AD69AD638C614A5FF
:1096B000AA520000000000000000000000000000AE
:1096C0000000000000000000000030845CE72D6B0B
:1096D000000000000000000000000000000000008A
:1096E000000000000000000000000000000000007A
:1096F000000000000000000000000000000000006A
:109700000000000000000000000000000000000059
:109710000000000000000000000000000000AA524D
:109720002D6B2D6B2D6B2D6B2D6B2D6B084200005F
:1097300000002D6BFFFFFFFFFFFFFFFFFFFFFFFF9D
:1097400014A5000000000000000000000000000060
:109750000000000000000000000000000000000009
:1097600000000000000000000000000000000000F9
:1097700000000000000000000000000000000000E9
:1097800000000000000000000000000000000000D9
:1097900000000000000000000000000000000000C9
:1097A00000000000000000000000000000000000B9
:1097B00000000000000000000000000000000000A9
:1097C0000000000000000000000000000000000099
:1097D0000000000000000000000000000000000089
:1097E0000000000000000000000000000000000079
:1097F0000000000000000000000000000000000069
:1098000000000000000000000000000024212421CE
:109810000000000000000000000000000000000048
:109820000000000000000000000000000000000038
:109830000000000000000000000000000000000028
:109840000000000000000000000000000000000018
:109850000000000000000000000000000000000008
:1098600000000000000000000000000000000000F8
:10987000000000002D6BD7BD9AD69AD638C630842A
:1098800000000000000000000000000000000000D8
:1098900000000000000000000000000000000000C8
:1098A00000000000000000000000000000000000B8
:1098B00000000000000000000000000000000000A8
:109DD000000024210000000000000000000000003E
:109DE000000000000000000000000000242100002E
:109DF0000000000000000000000000000000000063
:109E00000000000000000000000000000000000052
:109E10000000000000000000000000000000000042
:109E20000000000000000000000000000000000032
:109E30000000000000000000000000000000000022
:109E40000000000000000000000000000000000012
:109E50000000000000000000000000000000000002
:109E600000000000000000000000000000000000F2
:109E700000000000000000000000000000000000E2
:109E800000000000000000000000000000000000D2
:109E900000000000000000000000000000000000C2
:109EA00000000000000000000000000000000000B2
:109EB00000000000000000000000000000000000A2
:109EC0000000000000000000000000000000000092
:109ED0000000000000000000000000000000000082
:109EE0000000000000000000000000000000000072
:109EF0000000000000000000000000000000000062
:109F00000000000000000000000000000000000051
:109F10000000D7BD000000000000000000000000AD
:109F200000000000000000000000242138C60000EE
:109F30000000000000000000000000000000000021
:109F40000000000000000000000000000000000011
:109F50000000000000000000000000000000000001
:109F60000000AA52000000000000000000000000F5
:109F700000000000000000000000000000000000E1
:109F800000000000000000000000000000000000D1
:109F900000000000000000000000000000000000C1
:109FA00000000000000000000000000000000000B1
:109FB00000000000000000000000000000000000A1
:109FC0000000000000000000000000000000000091
:109FD0000000000000000000000000000000000081
:109FE0000000000000000000000000000000000071
:109FF0000000000000000000000000000000000061
:10A000000000000000000000000000000000000050
:10A010000000000000000000000000000000000040
:10A020000000000000000000000000000000000030
:10A030000000000000000000000000000000000020
:10A040000000000000000000000000000000000010
:10A05000CF7BFFFF2D6B0000000000000000000020
:10A060000000000000000000000014A5FFFF0842EF
:10A0700000000000000000000000000000000000E0
:10A080000000000000000000084275ADFBDEFFFF8D
:10A09000FFFFBEF738C63084242100000000000016
:10A0A00000005CE7CF7B0000000000000000000023
:10A0B00000000000000000000000000008429AD6E6
:10A0C0009AD69AD69AD69AD69AD69AD69AD69AD610
:10A0D0009AD624210000000000000000308438C619
:10A0E0005CE7FFFFFFFF5CE7D7BD2D6B00000000C2
:10A0F00000000000000000000000242114A55CE71F
:10A10000FFFFFFFF5CE775AD0842000000000000A4
:10A11000000000000000000000000000000000003F
:10A12000000000000000000000000000000000002F
:10A13000000000000000000000000000000000001F
:10A14000000000000000000000000000000000000F
:10A1500000000000000000000000000000000000FF
:10A1600000000000000000000000000000000000EF
:10A1700000000000000000000000000000000000DF
:10A1800000000000000000000000000000000000CF
:10A1900038C6FFFF5CE70000000000000000000080
:10A1A00000000000000000000842FFFFFFFFD7BDD5
:10A1B000000000000000000000000000000000009F
:10A1C00000000000000014A5FFFFFFFFBEF7AA5229
:10A1D00000002421CF7B9AD6BEF7B2940000000085
:10A1E000000030845CE72421000000000000000033
:10A1F000000000000000000000000000D7BDFFFFCD
:10A20000FFFFFFFFFFFFFFFFFFFFFFFFFFFFFFFF5E
:10A2100014A5000000000000AA52FBDEFFFFFFFFB4
:10A22000FFFF38C600002421CF7B9AD69AD6084279
:10A2300000000000000000002421FBDEFFFFFFFF04
:10A24000FFFFFFFFFFFFFFFFBEF7308400000000AD
:10A2500000000000000000000000000000000000FE
:10A2600000000000000000000000000000000000EE
:10A2700000000000000000000000000000000000DE
:10A2800000000000000000000000000000000000CE
:10A2900000000000000000000000000000000000BE
:10A2A00000000000000000000000000000000000AE
:10A2B000000000000000000000000000000000009E
:10A2C0000000000000000000000000000000084244
:10A2D000FFFFFFFFFFFF30840000000000000000D0
:10A2E0000000000000000000D7BDFFFFFFFFFFFFE0
:10A2F0002421000000000000000000000000000019
:10A3000000000000D7BDFFFFFFFFFFFF9AD600004F
:10A3100000000000000000002D6BBEF738C62421AD
:10A32000000000009AD6D7BD2D6B2D6B2D6B2D6BC9
:10A330002D6B2D6B2D6B2D6B2D6B3084FFFFFFFF75
:10A34000FFFFFFFFFFFFFFFFFFFFFFFFFFFFBEF766
:10A35000242100000000AA52BEF7FFFFFFFFFFFF0D
:10A36000FFFF14A50000000000000000CF7B5CE7A9
:10A37000AA52000000000000D7BDFFFFFFFFFFFF53
:10A38000FFFFFFFFFFFFAA522D6BBEF7AA5200008E
:10A3900000000000000000000000000000000000BD
:10A3A00000000000000000000000000000000000AD
:10A3B000000000000000000000000000000000009D
:10A3C000000000000000000000000000000000008D
:10A3D000000000000000000000000000000000007D
:10A3E000000000000000000000000000000000006D
:10A3F000000000000000000000000000000000005D
:10A40000000000000000000000000000000014A593
:10A41000FFFFFFFFFFFFBEF7242100000000000048
:10A420000000000000000842FFFFFFFFFFFFFFFFEA
:10A4300014A5000000000000000000000000000063
:10A44000000014A5FFFFFFFFFFFFFFFF9AD60000EB
:10A45000000000000000000000002421FBDE9AD66E
:10A46000000000002D6BFFFFFBDE9AD69AD69AD62D
:10A470009AD69AD69AD69AD69AD6BEF7FFFFFFFFFB
:10A48000FFFFFFFFFFFFFFFFFFFFFFFFFFFFB29494
:10A49000000000002421BEF7FFFFFFFFFFFFFFFFCA
:10A4A000FFFF14A500000000000000000000AA52F9
:10A4B0005CE7AA5200000000FFFFFFFFFFFFFFFF65
:10A4C000FFFFFFFFFFFF00000000CF7B9AD60000D8
:10A4D000000000000000000000000000000000007C
:10A4E000000000000000000000000000000000006C
:10A4F000000000000000000000000000000000005C
:10A50000000000000000000000000000000000004B
:10A51000000000000000000000000000000000003B
:10A52000000000000000000000000000000000002B
:10A53000000000000000000000000000000000001B
:10A5400000000000000000000000000000005CE7C8
:10A55000FFFFFFFFFFFFFFFF14A50000000000004A
:10A56000000000000000D7BDFFFFFFFFFFFFFFFF5F
:10A57000BEF7000000000000000000000000000026
:10A580000842FFFFFFFFFFFFFFFFFFFF9AD600001B
:10A59000000000000000000000000000AA52BEF70A
:10A5A000AA5200000000D7BDD7BD00000000000087
:10A5B0000000000000000000AA52FFFFFFFFFFFFA5
:10A5C000FFFFFFFFFFFFFFFFFFFFFFFF5CE7000054
:10A5D00000000000D7BDFFFFFFFFFFFFFFFFFFFFF1
:10A5E000FFFF14A5000000000000000000000000B4
:10A5F000B29438C600002D6BFFFFFFFFFFFFFFFF87
:10A60000FFFFFFFFFFFF0000000000005CE700000D
:10A61000000000000000000000000000000000003A
:10A62000000000000000000000000000000000002A
:10A63000000000000000000000000000000000001A
:10A64000000000000000000000000000000000000A
:10A6500000000000000000000000000000000000FA
:10A6600000000000000000000000000000000000EA
:10A6700000000000000000000000000000000000DA
:10A68000000000000000000000000000CF7BFFFF82
:10A69000FFFFFFFFFFFFFFFFBEF7242100000000C8
:10A6A000000000002D6BFFFFFFFFFFFFFFFFFFFF1C
:10A6B000FFFF3084000000000000000000000000E8
:10A6C00014A5FFFFFFFFFFFFFFFFFFFF9AD600006B
:10A6D0000000000000000000000000000000084230
:10A6E0000000000000002421BEF7AA520000000074
:10A6F00000000000000000009AD6FFFFFFFFFFFFF0
:10A70000FFFFFFFFFFFFFFFFFFFFFFFFCF7B00000B
:10A7100000002421FFFFFFFFFFFFFFFFFFFFFFFF00
:10A72000FFFF14A500000000000000000000000072
:10A730000000084200002D6BFFFFFFFFFFFFFFFF3F
:10A74000FFFFFFFFFFFF000000000000000000000F
:10A7500000000000000000000000000000000000F9
:10A7600000000000000000000000000000000000E9
:10A7700000000000000000000000000000000000D9
:10A7800000000000000000000000000000000000C9
:10A7900000000000000000000000000000000000B9
:10A7A00000000000000000000000000000000000A9
:10A7B0000000000000000000000000000000000099
:10A7C0000000000000000000000000009AD6FFFF1B
:10A7D000FFFFFFFFFFFFFFFFFFFFD7BD00000000EF
:10A7E000000000009AD6FFFFFFFFFFFFFFFFFFFF03
:10A7F000FFFF5CE700000000000000000000000018
:10A80000FBDEFFFFFFFFFFFFFFFFFFFF9AD6000009
:10A810000000000000000000000000000000000038
:10A820000000000000000000B2949AD60000000072
:10A830000000000000002D6BFFFFFFFFFFFFFFFF88
:10A84000FFFFFFFFFFFFFFFFFFFF9AD600000000A2
:10A850000000CF7BFFFFFFFFFFFFFFFFFFFFFFFFBA
:10A86000FFFF14A500000000000000000000000031
:10A870000000000000002D6BFFFFFFFFFFFFFFFF48
:10A88000FFFFFFFFFFFF00000000000000000000CE
:10A8900000000000000000000000000000000000B8
:10A8A00000000000000000000000000000000000A8
:10A8B0000000000000000000000000000000000098
:10A8C0000000000000000000000000000000000088
:10A8D0000000000000000000000000000000000078
:10A8E0000000000000000000000000000000000068
:10A8F0000000000000000000000000000000000058
:10A90000000000000000000000000842FFFFFFFF01
:10A91000FFFFFFFFFFFFFFFFFFFFFFFF08420000F9
:10A9200000002D6BFFFFFFFFFFFFFFFFFFFFFFFF9B
:10A93000FFFFFFFF2D6B0000000000000000000083
:10A94000FFFFFFFFFFFFFFFFFFFFFFFFFBDE2D6BA2
:10A950002D6B2D6B2D6B2D6B2D6B2D6B2D6B2D6B37
:10A96000AA5200000000000000005CE7CF7B00005E
:10A970000000000000009AD6FFFFFFFFFFFFFFFF6F
:10A98000FFFFFFFFFFFFFFFFFFFF2D6B0000000039
:10A99000000014A5FFFFFFFFFFFFFFFFFFFFFFFF0A
:10A9A000FFFF14A5000000000000000000000000F0
:10A9B0000000000000002D6BFFFFFFFFFFFFFFFF07
:10A9C000FFFFFFFFFFFF000000000000000000008D
:10A9D0000000000000000000000000000000000077
:10A9E0000000000000000000000000000000000067
:10A9F0000000000000000000000000000000000057
:10AA00000000000000000000000000000000000046
:10AA10000000000000000000000000000000000036
:10AA20000000000000000000000000000000000026
:10AA30000000000000000000000000000000000016
:10AA40000000000000000000000075ADFFFFFFFFE8
:10AA5000FFFFFFFFFFFFFFFFFFFFFFFF9AD6000092
:10AA600000005CE7FFFFFFFFFFFFFFFFFFFFFFFFAF
:10AA7000FFFFFFFF9AD6000000000000000000006A
:10AA8000FFFFFFFFFFFFFFFFFFFFFFFFBEF79AD6AD
:10AA90009AD69AD6FBDEFFFFFFFFFFFFFFFFFFFF07
:10AAA0009AD600000000000000002D6B5CE7242116
:10AAB000000000003084FFFFFFFFFFFFFFFFFFFFEC
:10AAC000FFFFFFFFFFFFFFFFD7BD000000000000FA
:10AAD000000014A5FFFFFFFFFFFFFFFFFFFFFFFFC9
:10AAE000FFFF14A5000000000000000000000000AF
:10AAF0000000000000002D6BFFFFFFFFFFFFFFFFC6
:10AB0000FFFFFFFFFFFF000000000000000000004B
:10AB10000000000000000000000000000000000035
:10AB20000000000000000000000000000000000025
:10AB30000000000000000000000000000000000015
:10AB40000000000000000000000000000000000005
:10AB500000000000000000000000000000000000F5
:10AB600000000000000000000000000000000000E5
:10AB700000000000000000000000000000000000D5
:10AB800000000000000000000000BEF7FFFFFFFF14
:10AB9000FFFFFFFFFFFFFFFFFFFFFFFFFFFF2D6B2B
:10ABA000B294FFFFFFFFFFFFFFFFFFFFFFFFFFFF6D
:10ABB000FFFFFFFFBEF7AA520000000000000000E8
:10ABC0005CE7FFFFFFFFFFFFFFFFFFFF9AD60000DC
:10ABD000000000002D6BFFFFFFFFFFFFFFFFFFFFE7
:10ABE000D7BD0000000000000000000038C614A51A
:10ABF000000000005CE7FFFFFFFFFFFFFFFFFFFF1C
:10AC0000FFFFFFFFFFFFBEF708420000000000004B
:10AC10000000B294FFFFFFFFFFFFFFFFFFFFFFFFFA
:10AC2000FFFF14A50000000000000000000000006D
:10AC30000000000000002D6BFFFFFFFFFFFFFFFF84
:10AC4000FFFFFFFFFFFF000000000000000000000A
:10AC500000000000000000000000000000000000F4
:10AC600000000000000000000000000000000000E4
:10AC700000000000000000000000000000000000D4
:10AC800000000000000000000000000000000000C4
:10AC900000000000000000000000000000000000B4
:10ACA00000000000000000000000000000000000A4
:10ACB0000000000000000000000000000000000094
:10ACC00000000000000000003084FFFFFFFFFFFFD6
:10ACD000FFFFFFFFFFFFFFFFFFFFD7BD14A55CE7EE
:10ACE000BEF7FFFFFFFFFFFFFFFFFFFFFFFFFFFFBD
:10ACF000FFFFD7BDD7BDD7BD00000000000000009A
:10AD0000D7BDFFFFFFFFFFFFFFFFFFFF9AD6000049
:10AD1000000000002D6BFFFFFFFFFFFFFFFFFFFFA5
:10AD2000B2940000000000000000000008425CE750
:10AD300008423084FFFFFFFFFFFFFFFFFFFFFFFF21
:10AD4000FFFFFFFFFFFF14A5000000000000000050
:10AD50000000AA52FFFFFFFFFFFFFFFFFFFFFFFF03
:10AD6000FFFF14A50000000000000000000000002C
:10AD70000000000000002D6BFFFFFFFFFFFFFFFF43
:10AD8000FFFFFFFFFFFF00000000000000000000C9
:10AD900000000000000000000000000000000000B3
:10ADA00000000000000000000000000000000000A3
:10ADB0000000000000000000000000000000000093
:10ADC0000000000000000000000000000000000083
:10ADD0000000000000000000000000000000000073
:10ADE0000000000000000000000000000000000063
:10ADF0000000000000000000000000000000000053
:10AE000000000000000000009AD6FFFFFFFFFFFFD8
:10AE1000FFFFFFFFFFFFFFFFFFFFAA522421BEF746
:10AE2000FFFFFFFFFFFFFFFFFFFFFFFFFFFFFFFF32
:10AE3000BEF724210842FFFF084200000000000086
:10AE40002D6BFFFFFFFFFFFFFFFFFFFF9AD6000004
:10AE5000000000002D6BFFFFFFFFFFFFFFFFFFFF64
:10AE6000084200000000000000000000000014A5DF
:10AE700038C65CE7FFFFFFFFFFFFFFFFFFFFFFFF9D
:10AE8000FFFFFFFFBEF724210000000000000000CC
:10AE9000000000005CE7FFFFFFFFFFFFFFFFFFFF79
:10AEA000FFFF14A5000000000000000000000000EB
:10AEB0000000000000002D6BFFFFFFFFFFFFFFFF02
:10AEC000FFFFFFFFFFFF0000000000000000000088
:10AED0000000000000000000000000000000000072
:10AEE0000000000000000000000000000000000062
:10AEF0000000000000000000000000000000000052
:10AF00000000000000000000000000000000000041
:10AF10000000000000000000000000000000000031
:10AF20000000000000000000000000000000000021
:10AF30000000000000000000000000000000000011
:10AF40000000000000000842FFFFFFFFFFFFFFFFBF
:10AF5000FFFFFFFFFFFFFFFF9AD6000000003084D5
:10AF6000FFFFFFFFFFFFFFFFFFFFFFFFFFFFFFFFF1
:10AF700014A50000000038C614A500000000000061
:10AF800000009AD6FFFFFFFFFFFFFFFF9AD60000E9
:10AF9000000000002D6BFFFFFFFFFFFFFFFF75ADFF
:10AFA000000000000000000000000000000024215C
:10AFB0005CE7FFFFFFFFFFFFFFFFFFFFFFFFFFFF5C
:10AFC000FFFFFFFF308400000000000000000000D1
:10AFD00000000000CF7BFFFFFFFFFFFFFFFFFFFF31
:10AFE000FFFF14A500000000000000000000242165
:10AFF000D7BD000000002D6BFFFFFFFFFFFFFFFF2D
:10B00000FFFFFFFFFFFF0000000000000000000046
:10B010000000000000000000000000000000000030
:10B020000000000000000000000000000000000020
:10B030000000000000000000000000000000000010
:10B040000000000000000000000000000000000000
:10B0500000000000000000000000000000000000F0
:10B0600000000000000000000000000000000000E0
:10B0700000000000000000000000000000000000D0
:10B0800000000000000075ADFFFFFFFFFFFFFFFFA6
:10B09000FFFFFFFFFFFFFFFF308400000000000004
:10B0A0005CE7FFFFFFFFFFFFFFFFFFFFFFFF5CE726
:10B0B0002421000000002D6BBEF7242100000000B9
:10B0C00000000842BEF7FFFFFFFFFFFF9AD6000017
:10B0D000000000002D6BFFFFFFFFFFFFFBDE2421C0
:10B0E0000000000000000000000000000000000060
:10B0F000CF7BFFFFFFFFFFFFFFFFFFFFFFFFFFFF14
:10B10000FFFF5CE7000000000000000000000000FE
:10B11000000000000000D7BDFFFFFFFFFFFFFFFFA3
:10B12000FFFF14A500000000000000000000D7BDD4
:10B130009AD6000000002D6BFFFFFFFFFFFFFFFF0F
:10B14000FFFFFFFFFFFF0000000000000000000005
:10B1500000000000000000000000000000000000EF
:10B1600000000000000000000000000000000000DF
:10B1700000000000000000000000000000000000CF
:10B1800000000000000000000000000000000000BF
:10B1900000000000000000000000000000000000AF
:10B1A000000000000000000000000000000000009F
:10B1B000000000000000000000000000000000008F
:10B1C000000000002421BEF7FFFFFFFFFFFFFFFF8D
:10B1D000FFFFFFFFFFFFBEF70000000000000000C0
:10B1E0002D6BFFFFFFFFFFFFFFFFFFFFFFFF30841F
:10B1F00000000000000000005CE730840000000058
:10B2000000000000AA525CE7FFFFFFFF5CE70000C0
:10B2100000000000CF7BFFFFFFFFFBDE24210000CA
:10B22000000000000000000000000000000000001E
:10B2300000009AD6FFFFFFFFFFFFFFFFFFFFFFFFAA
:10B24000FFFF2D6B00000000000000000000000068
:10B25000000000000000000075ADFFFFFFFFFFFFD2
:10B26000FFFF75AD0000000000002D6B9AD6FBDEDD
:10B270002421000000002D6BFFFFFFFFFFFFFFFFF9
:10B28000FFFFFFFFFFFF00000000000000000000C4
:10B2900000000000000000000000000000000000AE
:10B2A000000000000000000000000000000000009E
:10B2B000000000000000000000000000000000008E
:10B2C000000000000000000000000000000000007E
:10B2D000000000000000000000000000000000006E
:10B2E000000000000000000000000000000000005E
:10B2F000000000000000000000000000000000004E
:10B30000000000003084FFFFFFFFFFFFFFFFFFFF93
:10B31000FFFFFFFFFFFF14A500000000000000007A
:10B3200000009AD6FFFFFFFFFFFFFFFF5CE7000072
:10B330000000000000000000B2945CE70000000084
:10B34000000000000000242114A5BEF7FFFF9AD6DC
:10B3500014A575ADBEF75CE714A500000000000061
:10B3600000000000000000000000000000000000DD
:10B3700000000842FFFFFFFFFFFFFFFFFFFFFFFF8F
:10B380009AD600000000000000000000000000004D
:10B39000000000000000000000002D6B9AD6FFFFA7
:10B3A000FFFFBEF775AD14A5FBDE5CE714A500003A
:10B3B0000000CF7B9AD6FBDEFFFFFFFFFFFFFFFF02
:10B3C000FFFFFFFFFFFF9AD69AD69AD6AA52000037
:10B3D000000000000000000000000000000000006D
:10B3E000000000000000000000000000000000005D
:10B3F000000000000000000000000000000000004D
:10B40000000000000000000000000000000000003C
:10B41000000000000000000000000000000000002C
:10B42000000000000000000000000000000000001C
:10B43000000000000000000000000000000000000C
:10B44000000000005CE7FFFFFFFFFFFFFFFFFFFFC3
:10B45000FFFFFFFFFFFF08420000000000000000A8
:10B4600000002D6BFFFFFFFFFFFFFFFF2D6B0000B4
:10B4700000000000000000002421BEF7308400001E
:10B480000000000000000000000000002D6B14A56B
:10B4900014A514A52D6B00000000000000000000A2
:10B4A000000000000000000000000000000000009C
:10B4B0000000000014A5FFFFFFFFFFFFFFFFFFFFDD
:10B4C000AA52000000000000000000000000000080
:10B4D0000000000000000000000000000000084222
:10B4E000308414A514A5B2942D6B00000000000058
:10B4F000000008422D6BB294FFFFFFFFFFFFFFFF2C
:10B50000FFFFFFFFFBDE2D6B2D6B2D6B2421000059
:10B51000000000000000000000000000000000002B
:10B52000000000000000000000000000000000001B
:10B53000000000000000000000000000000000000B
:10B5400000000000000000000000000000000000FB
:10B5500000000000000000000000000000000000EB
:10B5600000000000000000000000000000000000DB
:10B5700000000000000000000000000000000000CB
:10B5800000002D6BFFFFFFFFFFFFFFFFFFFFFFFF2F
:10B59000FFFFFFFF38C600000000000000000000B1
:10B5A00000000000D7BDFFFFFFFF9AD6000000009B
:10B5B00000000000000000000000D7BD9AD6000087
:10B5C000000000000000000000000000000000007B
:10B5D000000000000000000000000000000000006B
:10B5E000000000000000000000000000000000005B
:10B5F000000000002421BEF7FFFFFFFFFFFFD7BDC3
:10B60000000000000000000000000000000000003A
:10B61000000000000000000000000000000000002A
:10B62000000000000000000000000000000000001A
:10B630000000000000002D6BFFFFFFFFFFFFFFFF7A
:10B64000FFFFFFFFFBDE0000000000000000000025
:10B6500000000000000000000000000000000000EA
:10B6600000000000000000000000000000000000DA
:10B6700000000000000000000000000000000000CA
:10B6800000000000000000000000000000000000BA
:10B6900000000000000000000000000000000000AA
:10B6A000000000000000000000000000000000009A
:10B6B000000000000000000000000000000000008A
:10B6C000000038C6FFFFFFFFFFFFFFFFFFFFFFFF88
:10B6D000FFFFFFFF308400000000000000000000BA
:10B6E000000000000842FFFFFFFF2D6B000000007C
:10B6F00000000000000000000000AA52FFFF2D6BB8
:10B700000000000000000000000000000000000039
:10B710000000000000000000000000000000000029
:10B720000000000000000000000000000000000019
:10B730000000000000003084FFFFFFFFBEF724215F
:10B7400000000000000000000000000000000000F9
:10B7500000000000000000000000000000000000E9
:10B7600000000000000000000000000000000000D9
:10B770000000000000000000AA52D7BDBEF7FFFF86
:10B78000FFFFFFFFFFFF00000000000000000000BF
:10B7900000000000000000000000000000000000A9
:10B7A0000000000000000000000000000000000099
:10B7B0000000000000000000000000000000000089
:10B7C0000000000000000000000000000000000079
:10B7D0000000000000000000000000000000000069
:10B7E0000000000000000000000000000000000059
:10B7F0000000000000000000000000000000000049
:10B800000842FFFFFFFFFFFFFFFFFFFFFFFFFFFFFC
:10B81000FFFFBEF700000000000000000000000075
:10B8200000000000000075AD9AD600000000000086
:10B83000000000000000000000000000FBDED7BD9B
:10B8400000000000000000000000000000000000F8
:10B8500000000000000000000000000000000000E8
:10B8600000000000000000000000000000000000D8
:10B8700000000000000000009AD6FFFF14A50000A1
:10B8800000000000000000000000000000000000B8
:10B8900000000000000000000000000000000000A8
:10B8A0000000000000000000000000000000000098
:10B8B000000000000000000000000000242114A58A
:10B8C000BEF7FFFFFFFF00000000000000000000C7
:10B8D0000000000000000000000000000000000068
:10B8E0000000000000000000000000000000000058
:10B8F0000000000000000000000000000000000048
:10B900000000000000000000000000000000000037
:10B910000000000000000000000000000000000027
:10B920000000000000000000000000000000000017
:10B930000000000000000000000000000000000007
:10B9400008422D6B2D6B2D6B2D6B2D6B2D6B2D6B85
:10B950002D6BAA5200000000000000000000000053
:10B9600000000000000024212D6B000000000000FA
:10B970000000000000000000000000000842084233
:10B9800000000000000000000000000000000000B7
:10B9900000000000000000000000000000000000A7
:10B9A0000000000000000000000000000000000097
:10B9B00000000000000000002D6B5CE72421000067
:10B9C0000000000000000000000000000000000077
:10B9D0000000000000000000000000000000000067
:10B9E0000000000000000000000000000000000057
:10B9F0000000000000000000000000000000000047
:10BA0000242114A5BEF70000000000000000000083
:10BA10000000000000000000000000000000000026
:10BA20000000000000000000000000000000000016
:10BA30000000000000000000000000000000000006
:10BA400000000000000000000000000000000000F6
:10BA500000000000000000000000000000000000E6
:10BA600000000000000000000000000000000000D6
:10BA700000000000000000000000000000000000C6
:10BA800000000000000000000000000000000000B6
:10BA900000000000000000000000000000000000A6
:10BAA0000000000000000000000000000000000096
:10BAB0000000000000000000000000000000000086
:10BAC0000000000000000000000000000000000076
:10BAD0000000000000000000000000000000000066
:10BAE0000000000000000000000000000000000056
:10BAF00000000000000000000000084200000000FC
:10BB00000000000000000000000000000000000035
:10BB10000000000000000000000000000000000025
:10BB20000000000000000000000000000000000015
:10BB30000000000000000000000000000000000005
:10BB400000000000084200000000000000000000AB
:10BB500000000000000000000000000000000000E5
:10BB600000000000000000000000000000000000D5
:10BB700000000000000000000000000000000000C5
:10BB800000000000000000000000000000000000B5
:10C83000000000000000000000F800F800F800F818
:10C8400000F800F800F800F800F800F800F800F828
:10C8500000F800F800F800F800F800F80000000008
:10C8600000000000E007E007E007E007E007E0075E
:10C87000E007E007E007E007E007E007E007E00780
:10C88000E007E007E007E00700000000000000000C
:10C890001F001F001F001F001F001F001F001F00A0
:10C8A0001F001F001F001F001F001F001F001F0090
:10C8B0001F001F000000000000000000000000003A
:10C8C0000000000000000000000000000000000068
:10C8D0000000000000000000000000000000000058
:10C8E0000000000000000000000000000000000048
:10C8F0000000000000000000000000000000000038
:10C900000000000000000000000000000000000027
:10C910000000000000000000000000000000000017
:10C920000000000000000000000000000000000007
:10C9300000000000000000000000000000000000F7
:10C9400000000000000000000000000000000000E7
:10C9500000000000000000000000000000000000D7
:10C9600000000000000000000000000000000000C7
:10C97000000000000000000000F800F800F800F8D7
:10C9800000F800F800F800F800F800F800F800F8E7
:10C9900000F800F800F800F800F800F800000000C7
:10C9A00000000000E007E007E007E007E007E0071D
:10C9B000E007E007E007E007E007E007E007E0073F
:10C9C000E007E007E007E0070000000000000000CB
:10C9D0001F001F001F001F001F001F001F001F005F
:10C9E0001F001F001F001F001F001F001F001F004F
:10C9F0001F001F00000000000000000000000000F9
:10CA00000000000000000000000000000000000026
:10CA10000000000000000000000000000000000016
:10CA20000000000000000000000000000000000006
:10CA300000000000000000000000000000000000F6
:10CA400000000000000000000000000000000000E6
:10CA500000000000000000000000000000000000D6
:10CA600000000000000000000000000000000000C6
:10CA700000000000000000000000000000000000B6
:10CA800000000000000000000000000000000000A6
:10CA90000000000000000000000000000000000096
:10CAA0000000000000000000000000000000000086
:10CAB000000000000000000000F800F800F800F896
:10CAC00000F800F800F800F800F800F800F800F8A6
:10CAD00000F800F800F800F800F800F80000000086
:10CAE00000000000E007E007E007E007E007E007DC
:10CAF000E007E007E007E007E007E007E007E007FE
:10CB0000E007E007E007E007000000000000000089
:10CB10001F001F001F001F001F001F001F001F001D
:10CB20001F001F001F001F001F001F001F001F000D
:10CB30001F001F00000000000000000000000000B7
:10CB400000000000000000000000000000000000E5
:10CB500000000000000000000000000000000000D5
:10CB600000000000000000000000000000000000C5
:10CB700000000000000000000000000000000000B5
:10CB800000000000000000000000000000000000A5
:10CB90000000000000000000000000000000000095
:10CBA0000000000000000000000000000000000085
:10CBB0000000000000000000000000000000000075
:10CBC0000000000000000000000000000000000065
:10CBD0000000000000000000000000000000000055
:10CBE0000000000000000000000000000000000045
:10CBF000000000000000000000F800F800F800F855
:10CC000000F800F800F800F800F800F800F800F864
:10CC100000F800F800F800F800F800F80000000044
:10CC200000000000E007E007E007E007E007E0079A
:10CC3000E007E007E007E007E007E007E007E007BC
:10CC4000E007E007E007E007000000000000000048
:10CC50001F001F001F001F001F001F001F001F00DC
:10CC60001F001F001F001F001F001F001F001F00CC
:10CC70001F001F0000000000000000000000000076
:10CC800000000000000000000000000000000000A4
:10CC90000000000000000000000000000000000094
:10CCA0000000000000000000000000000000000084
:10CCB0000000000000000000000000000000000074
:10CCC0000000000000000000000000000000000064
:10CCD0000000000000000000000000000000000054
:10CCE0000000000000000000000000000000000044
:10CCF0000000000000000000000000000000000034
:10CD00000000000000000000000000000000000023
:10CD10000000000000000000000000000000000013
:10CD20000000000000000000000000000000000003
:10CD3000000000000000000000F800F800F800F813
:10CD400000F800F800F800F800F800F800F800F823
:10CD500000F800F800F800F800F800F80000000003
:10CD600000000000E007E007E007E007E007E00759
:10CD7000E007E007E007E007E007E007E007E0077B
:10CD8000E007E007E007E007000000000000000007
:10CD90001F001F001F001F001F001F001F001F009B
:10CDA0001F001F001F001F001F001F001F001F008B
:10CDB0001F001F0000000000000000000000000035
:10CDC0000000000000000000000000000000000063
:10CDD0000000000000000000000000000000000053
:10CDE0000000000000000000000000000000000043
:10CDF0000000000000000000000000000000000033
:10CE00000000000000000000000000000000000022
:10CE10000000000000000000000000000000000012
:10CE20000000000000000000000000000000000002
:10CE300000000000000000000000000000000000F2
:10CE400000000000000000000000000000000000E2
:10CE500000000000000000000000000000000000D2
:10CE600000000000000000000000000000000000C2
:10CE7000000000000000000000F800F800F800F8D2
:10CE800000F800F800F800F800F800F800F800F8E2
:10CE900000F800F800F800F800F800F800000000C2
:10CEA00000000000E007E007E007E007E007E00718
:10CEB000E007E007E007E007E007E007E007E0073A
:10CEC000E007E007E007E0070000000000000000C6
:10CED0001F001F001F001F001F001F001F001F005A
:10CEE0001F001F001F001F001F001F001F001F004A
:10CEF0001F001F00000000000000000000000000F4
:10CF00000000000000000000000000000000000021
:10CF10000000000000000000000000000000000011
:10CF20000000000000000000000000000000000001
:10CF300000000000000000000000000000000000F1
:10CF400000000000000000000000000000000000E1
:10CF500000000000000000000000000000000000D1
:10CF600000000000000000000000000000000000C1
:10CF700000000000000000000000000000000000B1
:10CF800000000000000000000000000000000000A1
:10CF90000000000000000000000000000000000091
:10CFA0000000000000000000000000000000000081
:10CFB000000000000000000000F800F800F800F891
:10CFC00000F800F800F800F800F800F800F800F8A1
:10CFD00000F800F800F800F800F800F80000000081
:10CFE00000000000E007E007E007E007E007E007D7
:10CFF000E007E007E007E007E007E007E007E007F9
:10D00000E007E007E007E007000000000000000084
:10D010001F001F001F001F001F001F001F001F0018
:10D020001F001F001F001F001F001F001F001F0008
:10D030001F001F00000000000000000000000000B2
:10D0400000000000000000000000000000000000E0
:10D0500000000000000000000000000000000000D0
:10D0600000000000000000000000000000000000C0
:10D0700000000000000000000000000000000000B0
:10D0800000000000000000000000000000000000A0
:10D090000000000000000000000000000000000090
:10D0A0000000000000000000000000000000000080
:10D0B0000000000000000000000000000000000070
:10D0C0000000000000000000000000000000000060
:10D0D0000000000000000000000000000000000050
:10D0E0000000000000000000000000000000000040
:10D0F0000000000000000000000000303132333436
:10D10000353637383941424344454640305800307F
:10D11000313233343536373839616263646566409D
:10D120003078000400000800000000000000020049
:10D130000100001054D1000800000024C0000000CD
:10D14000D402000814D20008C0000024F00C000033
:10D15000F0020008000000000000000000000000D5
:10D1600000000000000000000000000001000000BE
:10D1700010000000000000000090D0030090D003D9
:10D1800053510008034D000805560008894D00085A
:10D19000094D0008D3560008A9500008BD580008E2
:10D1A000B1500008D9560008094E0008E94F0008A0
:10D1B000414F0008A14F00086D500008C150000801
:10D1C0005D5900081951000829510008400000006D
:10D1D000C0000000800000000000000020000000EF
:10D1E00060000000E0000000A0000000FFFF000061
:10D1F00000000000415F0008000000000000000087
:10D2000045600008555F000801600008BD5F000828
:04D210003B5F000878
:040000050800029954
:00000001FF
