:020000040800F2
:1000000068AE0024AD020008A9770008D369000893
:10001000A5770008BB030008F1910008000000006C
:100020000000000000000000000000000B8C000831
:100030005D0E000800000000717900080D8C0008BA
:10004000C7020008C7020008C7020008C70200086C
:10005000C7020008C7020008C7020008C70200085C
:10006000C7020008C7020008C7020008F507000819
:10007000C7020008C7020008C7020008C70200083C
:10008000C7020008C7020008C7020008C70200082C
:10009000C7020008C7020008C7020008C70200081C
:1000A000C7020008C7020008C7020008C70200080C
:1000B000C7020008C7020008C7020008C7020008FC
:1000C000C7020008C7020008C7020008C7020008EC
:1000D000C7020008C7020008C7020008C7020008DC
:1000E000C7020008C702000800000000C70200089D
:1000F000C7020008C7020008C7020008C7020008BC
:10010000C7020008C7020008C7020008C7020008AB
:10011000C7020008C7020008C7020008C70200089B
:10012000C7020008C7020008C7020008C70200088B
:10013000C7020008C7020008C7020008C70200087B
:1001400000000000000000000000000000000000AF
:10015000C7020008C7020008C7020008C70200085B
:10016000C7020008C7020008C7020008C70200084B
:10017000C7020008C7020008E507000800000000E9
:10018000C7020008C7020008C7020008C70200082B
:10019000C7020008C7020008C7020008C70200081B
:1001A000C7020008C7020008C7020008C70200080B
:1001B000C7020008C7020008C7020008C7020008FB
:1001C000C7020008C7020008C7020008C7020008EB
:1001D000C7020008C7020008C7020008C7020008DB
:1001E000C7020008C7020008C7020008C7020008CB
:1001F000C7020008C7020008C7020008C7020008BB
:10020000C7020008C7020008C7020008C7020008AA
:10021000C7020008998D0008C7020008C70200083D
:10022000C7020008C7020008C7020008000000005B
:10023000C7020008C702000800000000C70200084B
:10024000C7020008C7020008C7020008C70200086A
:10025000C7020008C7020008C7020008C70200085A
:10026000C7020008C7020008C7020008C70200084A
:10027000C7020008C7020008C7020008000000000B
:10028000C7020008C7020008C702000800000000FB
:1002900000000000C7020008DFF80CD000F05CF896
:1002A00000480047159A000868AE002406488047B9
:1002B00006480047FEE7FEE7FEE7FEE7FEE7FEE74B
:1002C000FEE7FEE7FEE7FEE7F18C00089902000872
:1002D000D2B201E000F8012B491EFBD27047002288
:1002E000F6E710B513460A4604461946FFF7F0FF35
:1002F000204610BD2DE9F05F0546002092469B4642
:1003000088460646814640241BE02846414647462B
:10031000224600F042F853465A46C01A914110D383
:1003200011461846224600F029F82D1A67EB0108FD
:100330004F4622460120002100F020F817EB00096B
:100340004E41201EA4F10104DFDC484631462A4616
:100350004346BDE8F09F0000064C074D06E0E0680C
:1003600040F0010394E8070098471034AC42F6D3FC
:10037000FFF796FF88740108A8740108202A04DB9F
:10038000203A00FA02F1002070479140C2F12003A8
:1003900020FA03F3194390407047202A04DB203AE7
:1003A00021FA02F00021704721FA02F3D040C2F195
:1003B0002002914008431946704700BFFEE7000045
:1003C00010B500BF4848006800F4003000B139E0C3
:1003D00000BF00BF00BFBFF34F8F00BF00BF00BF13
:1003E00000BF00BF00BFBFF36F8F00BF00BF00BFE3
:1003F00000203E49086000BF00BF00BFBFF34F8F21
:1004000000BF00BF00BF00BF00BF00BFBFF36F8FC2
:1004100000BF00BF00BF3448006840F400303249DC
:10042000086000BF00BF00BFBFF34F8F00BF00BF19
:1004300000BF00BF00BF00BFBFF36F8F00BF00BF92
:1004400000BF00BF00BF284B1B6803F4803303B11B
:1004500048E00023244C7034236000BF00BF00BF7D
:10046000BFF34F8F00BF00BF00BF231F1868C0F34A
:100470004E3100BFC0F3C90200BF43F6E07303EA88
:1004800041134FF0404404EA82742343174C103464
:10049000236000BF00BF131EA2F10102EDD10B1EAD
:1004A000A1F10101E6D100BF00BF00BFBFF34F8F34
:1004B00000BF00BF00BF0C4B1B6843F480330A4CE5
:1004C000236000BF00BF00BFBFF34F8F00BF00BF5E
:1004D00000BF00BF00BF00BFBFF36F8F00BF00BFF2
:1004E00000BF00BF10BD000014ED00E050EF00E0C1
:1004F00070B504460D462E48046042202C49087110
:1005000064208860084600F0B3F82948808947F6DF
:10051000A271884208D12648C08947F27361884297
:1005200002D107F05BF941E06020214908710846DB
:1005300000F09EF81E48808947F6A27188420AD1D1
:100540001B48C08942F24161401A022803DC284658
:1005500009F066FB2AE0422015490871084600F0C0
:1005600087F81348808947F6A27188420AD110485B
:10057000C089A0F5EE402138022803DC284609F0A6
:100580008DFF13E078200A490871084600F070F8E2
:100590000748C08945F24061884203D1284609F0E6
:1005A0006DFB03E0002002490871C88170BD0000A6
:1005B0000CA3002437B582B004461546A06800900D
:1005C0002279511C012303AA206803F011F8A068C6
:1005D00000902279511C01232A46206802F056FF20
:1005E00010B9002005B030BD0120FBE7FEB5044680
:1005F0000D4616460121A068CDE9006102902279DE
:10060000511C02232A46206803F0A2F808B90020F2
:10061000FEBD0120FCE77CB504460D4616468DF86C
:10062000045030788DF80500A068009021790223ED
:1006300001AA206802F0DCFF08B900207CBD01207F
:10064000FCE737B584B004460D46012106AAA06830
:10065000CDE9002102902279511C02232A4620680C
:1006600003F046F910B9002007B030BD0120FBE7C8
:1006700038B5044601208DF800002079782822D072
:100680006A46FF212046FFF7C6FF6A461C21204626
:10069000FFF790FF0DF101021D212046FFF78AFFB1
:1006A0009DF801009DF8001040EA0120A0816A46F3
:1006B0000A212046FFF77EFF0DF101020B212046A3
:1006C000FFF778FF0EE06A4643F20A010A48FFF797
:1006D0008DFF0DF1010243F20B010748FFF786FF82
:1006E0000020A0819DF801009DF8001040EA012043
:1006F000E081002038BD00000CA3002470B5054641
:10070000AC6BA06C406D022806D0012084F8350047
:10071000E06C40F04000E064204600F0A6FB70BDB5
:1007200070B50646B46BA06B68B3A06C0068006837
:1007300000F40025A06B00F0010078B975B1A06C41
:100740000068C568E26B082303FB02510022A06C1D
:1007500000F0CAFDA06B401EA0632FE0A06C0068F3
:10076000006800F4002048BBA06C00680569E26BDB
:10077000082303FB02510122A06C00F0B5FDA06B21
:10078000401EA0631AE0A06C0068006800F400201E
:1007900020B1D4E911010968C8600FE0A06C0068BD
:1007A000006800F4002048B9656CE06B042101FB8F
:1007B0000050A16C09680861206CA063A06B216CDB
:1007C00088420ED12068C06840F001002168C860EE
:1007D0002068006800F00200022802D1012084F89D
:1007E000350070BD10B5024800F066FB10BD00007A
:1007F000D8A0002410B5024801F046FA10BD000050
:1008000028A100240146374A0868904249D0354A59
:1008100018320868904244D0324A30320868904218
:100820003FD0304A4832086890423AD02D4A603270
:100830000868904235D02B4A78320868904230D010
:10084000284A9032086890422BD0264AA83208687D
:10085000904226D0244A0868904222D0224A183278
:10086000086890421DD0204A30320868904218D063
:100870001D4A48320868904213D01B4A603208680B
:1008800090420ED0184A78320868904209D0164A31
:1008900090320868904204D0134AA8320868904207
:1008A00001D1012000E00020B0B10A78103A1823ED
:1008B000B2FBF3F000F007020C4B9A5CCA65032808
:1008C00005D90A686FF30902121D8A6503E00A68F8
:1008D0006FF309028A6503E0086820F0FF0088656D
:1008E000886D70471000024010040240E4A8000820
:1008F00010B502682B4C0368A34222D0294C143453
:100900000368A3421DD0274C28340368A34218D0A3
:10091000244C3C340368A34213D0224C5034036867
:10092000A3420ED01F4C64340368A34209D01D4C6F
:1009300078340368A34204D01A4C8C340368A34271
:1009400001D1012300E000238BB10378083B14247C
:10095000B3FBF4F1144B03EB81030366124B8033BA
:10096000436601F01F040123A340836618E0037867
:10097000103B1824B3FBF4F10C4B9A4204D80B4BF8
:10098000A83B9A4200D30831094B03EB810303666D
:10099000074B8033436601F01F040123A3408366A5
:1009A00010BD00000854025800580258B804024014
:1009B000000802400179A9B3082940D8204B0268F9
:1009C0009A4222D01E4B143302689A421DD01C4B0F
:1009D000283302689A4218D0194B3C3302689A4275
:1009E00013D0174B503302689A420ED0144B643325
:1009F00002689A4209D0124B783302689A4204D0B6
:100A00000F4B8C3302689A4201D1012200E0002290
:100A10004AB14A1E0B4B03EB8202C266094A4032BE
:100A2000026708E00BE04A1E074B03EB8202C26636
:100A3000054A403202674A1E0123934043677047CC
:100A4000085402580059025800090240014600208B
:100A50008A69D2B98A6A32B1012A0DD0022A03D03A
:100A6000032A10D10EE000BFCA6A02F08072B2F110
:100A7000807F00D1012007E0CA6AB2F1C07F00D1B7
:100A8000012001E000E000BF36E08A69B2F5005FB6
:100A90001BD18A6A32B1012A07D0022A03D0032A65
:100AA00011D10AE000BF01200EE0CA6A02F0807294
:100AB000B2F1807F00D1012006E0CA6AB2F1C07FA6
:100AC00000D1012000E000BF16E08A6A32B1012A9D
:100AD00005D0022A04D0032A0CD103E000BF00BFD6
:100AE000012008E0CA6A02F08072B2F1807F00D172
:100AF000012000E000BF00BF7047000030B5384D56
:100B00000468AC4249D0364D18350468AC4244D034
:100B1000334D30350468AC423FD0314D4835046820
:100B2000AC423AD02E4D60350468AC4235D02C4DE5
:100B300078350468AC4230D0294D90350468AC4219
:100B40002BD0274DA8350468AC4226D0254D04682B
:100B5000AC4222D0234D18350468AC421DD0214D43
:100B600030350468AC4218D01E4D48350468AC429C
:100B700013D01C4D60350468AC420ED0194D783549
:100B80000468AC4209D0174D90350468AC4204D0DB
:100B9000144DA8350468AC4201D1012400E00024C2
:100BA00074B1046863608468402C04D10468A26056
:100BB0000468E16012E00468A1600468E2600DE08E
:100BC000046863608468402C04D10468A2600468EF
:100BD000E16003E00468A1600468E26030BD0000E9
:100BE0001000024010040240F0B5856D846D984FEE
:100BF0000668BE4270D0964F18370668BE426BD06A
:100C0000934F30370668BE4266D0914F483706682A
:100C1000BE4261D08E4F60370668BE425CD08C4FBA
:100C200078370668BE4257D0894F90370668BE4273
:100C300052D0874FA8370668BE424DD0854F066810
:100C4000BE4249D0834F18370668BE4244D0814F18
:100C500030370668BE423FD07E4F48370668BE42F6
:100C60003AD07C4F60370668BE4235D0794F78372E
:100C70000668BE4230D0774F90370668BE422BD010
:100C8000744FA8370668BE4226D0734F0668BE422E
:100C900022D0714F14370668BE421DD06E4F2837E0
:100CA0000668BE4218D06C4F3C370668BE4213D06F
:100CB000694F50370668BE420ED0674F64370668EA
:100CC000BE4209D0644F78370668BE4204D0624FF6
:100CD0008C370668BE4201D1012600E000263EB1F5
:100CE000D0E919767E60C66E16B1D0E91C767E60BA
:100CF000574F0668BE4249D0554F18370668BE4266
:100D000044D0534F30370668BE423FD0504F48372B
:100D10000668BE423AD04E4F60370668BE4235D0B4
:100D20004B4F78370668BE4230D0494F903706683F
:100D3000BE422BD0464FA8370668BE4226D0454F4C
:100D40000668BE4222D0434F18370668BE421DD007
:100D5000404F30370668BE4218D03E4F48370668CD
:100D6000BE4213D03B4F60370668BE420ED0394FAB
:100D700078370668BE4209D0364F90370668BE42C3
:100D800004D0344FA8370668BE4201D1012600E0E6
:100D90000026DEB190F85C6006F01F073F26BE40DB
:100DA000AE600668366826F4802607683E600668EE
:100DB00073608668402E04D10668B2600668F160F0
:100DC00044E00668B1600668F2603FE0224F0668C2
:100DD000BE4222D0204F14370668BE421DD01E4F9F
:100DE00028370668BE4218D01B4F3C370668BE4203
:100DF00013D0194F50370668BE420ED0164F6437D5
:100E00000668BE4209D0144F78370668BE4204D047
:100E1000114F8C370668BE4201D1012600E0002642
:100E2000A6B190F85C6006F01F070126BE40666020
:100E3000066873608668402E04D10668B260066852
:100E4000F16003E00668B1600668F260F0BD000082
:100E5000100002401004024008540258704703E09A
:100E6000FA21052006F086FAFAE7704710B5044625
:100E700002F03AFA0C490968401AB0F57A7F0AD3B1
:100E800002F032FA0849086008480068084908601A
:100E900000200649086005480068401C03490860B6
:100EA00001200449086010BD0C0000240800002443
:100EB000040000240000002470B504462068056981
:100EC00005F0040004280ED121684861E06C40F070
:100ED0000200E064042084F835002348A16C086512
:100EE000A06C00F005FD05F0020002280ED121687B
:100EF0004861E06C40F00100E064042084F83500B3
:100F00001948A16C0865A06C00F0F2FC05F0100017
:100F1000102804D121684861204600F077F805F0D8
:100F20000800082804D121684861204600F0DAF959
:100F300005F00100B8B12068006800F00200022846
:100F400005D12068C06820F01E002168C8602068B4
:100F5000C06820F001002168C86001202168486154
:100F60002046FFF783FF70BDFD06000810B504465C
:100F70000CB9012010BD94F8350010B9204600F0DE
:100F800047F8022084F83500A06908B100216162A9
:100F9000206800681C490840216808606169606831
:100FA0000843E168084321690843A1680843A1692F
:100FB0000843216A0843616A0843A16A0843E16A59
:100FC0000843216B084321680968084321680860C9
:100FD000606810280BD1217F607F41EA0021A07F4B
:100FE00041EA0041E07F41EA0060216888612068B1
:100FF000C06840F01E002168C8600020E064012045
:1010000084F835000020B5E707F0E0FF70470000E6
:1010100010B586B00446142101A8FFF760F96049B5
:10102000206888427ED100BF5E48006840F0010021
:101030005C4908600846006800F00100009000BFAD
:1010400000BF00BF081D006840F01000091D0860C7
:101050000846006800F01000009000BF00BF00BF0D
:101060000846006840F0010008600846006800F08B
:101070000100009000BF00BF00BF0846006840F0BC
:10108000040008600846006800F00400009000BFFB
:1010900000BF00BF0846006840F00800086008462E
:1010A000006800F00800009000BF00BF00BF0846C5
:1010B000006840F0020008600846006800F0020086
:1010C000009000BF00BF732001900220029000201A
:1010D000039004900D20059001A9334801F0E4FF2E
:1010E00050200190022002900020039004900D20D7
:1010F000059001A92D4801F0D7FFC02001900220E2
:1011000002900020039004900D20059001A928482A
:1011100001F0CAFF082001900220029000200390F5
:10112000049000E039E00D20059001A9214801F06C
:10113000BBFF8020019002200290002003900490C9
:101140000D20059001A91C4801F0AEFF1B481C4969
:1011500008604B204860002119488160C1604FF44D
:101160008061016189004161890081618911C161EA
:1011700000210162416201F003FB08B1FFF76FFE3D
:1011800000BF0F48A064846300BF002211464E20B8
:1011900002F0BAFD4E2002F0A3FD06B010BD000023
:1011A00000000248DC4402580010025800000258B7
:1011B00000080258000C02580004025810000240B7
:1011C00028A100242DE9F84304460F4615461E4683
:1011D00000BF94F83400012802D10220BDE8F88352
:1011E000012084F8340000BF022084F83500206814
:1011F000006840F48040216808602068006820F0A2
:10120000020021680860206800683843216808608F
:101210003248A16CC8633248A16CC8640020A16C3C
:101220000865A0632064E0636064B6F5803F15D272
:10123000226802F1280133462A46A06C01F030FDF5
:1012400000283DD04020E064012084F8350000BF34
:10125000002084F8340000BF0120BFE71F48A16CC4
:1012600048640120A063E663656405E0E06B400824
:10127000E063A06B4000A063E06BB0F5803FF5D267
:10128000A06B801EA063A06B2064E06B042101FBB7
:101290000058E06B0090226802F1280143462A467C
:1012A000A06C00F089F858B14020E064012084F877
:1012B000350000BF002084F8340000BF01208DE716
:1012C0002068006840F001002168086000BF00202D
:1012D00084F8340000BF00BF80E700002107000849
:1012E000FD0600087047000010B50346304C186832
:1012F000A04249D02E4C18341868A04244D02C4C3F
:1013000030341868A0423FD0294C48341868A042B5
:101310003AD0274C60341868A04235D0244C783439
:101320001868A04230D0224C90341868A0422BD0CC
:101330001F4CA8341868A04226D01E4C1868A04242
:1013400022D01C4C18341868A0421DD0194C3034DF
:101350001868A04218D0174C48341868A04213D01F
:10136000144C60341868A0420ED0124C78341868BF
:10137000A04209D00F4C90341868A04204D00D4C04
:10138000A8341868A04201D1012000E0002030B14B
:1013900012B91868C16008E01868016105E012B967
:1013A0001868C16001E018680161002010BD0000EC
:1013B00010000240100402402DE9F04704460F4699
:1013C00090461E46DDF820904FF0000AA068802865
:1013D00004D1400060650120BDE8F08700BF94F8AB
:1013E0003400012801D10220F6E7012084F83400FE
:1013F00000BF94F8350001287ED1022084F8350022
:1014000000206065F9492068884249D0F7491831C1
:101410002068884244D0F5493031206888423FD066
:10142000F2494831206888423AD0F049603120685A
:10143000884235D0ED4978312068884230D0EB4978
:101440009031206888422BD0E849A8312068884232
:1014500026D0E7492068884222D0E5491831206823
:1014600088421DD0E24930312068884218D0E049D6
:1014700048312068884213D0DD49603120688842B5
:101480000ED0DB4978312068884209D0D8499031A4
:101490002068884204D0D649A8312068884201D10A
:1014A000012000E0002090B12068006840F4802016
:1014B0002168086020680661A06D00F1080594F8B5
:1014C0005C0000F01F013F208840286011E0206888
:1014D000006848F22001084321680860206806611E
:1014E000A06D051D94F85C0000F01F0101208840EC
:1014F00028604B46424600E0EFE139462046FFF7C0
:10150000FDFABA492068884270D0B849183120687D
:1015100088426BD0B54930312068884266D0B349E3
:1015200048312068884261D0B049603120688842E3
:101530005CD0AE4978312068884257D0AB499031B1
:101540002068884252D0A949A831206888424DD0ED
:10155000A7492068884249D0A549183120688842A7
:1015600044D0A3493031206888423FD0A049483157
:10157000206888423AD09E4960312068884235D040
:101580009B4978312068884230D099499031206851
:1015900088422BD09649A8312068884226D09549A8
:1015A0002068884222D093491431206888421DD097
:1015B000904928312068884218D08E493C312068F3
:1015C000884213D08B495031206888420ED0894917
:1015D00064312068884209D0864978312068884281
:1015E00004D084498C312068884201D1012000E078
:1015F000002038B1D4E919104860E06E10B1D4E988
:101600001C10486079492068884249D077491831D0
:101610002068884244D075493031206888423FD0E4
:1016200072494831206888423AD070496031206858
:10163000884235D06D4978312068884230D06B4976
:101640009031206888422BD06849A83120688842B0
:1016500026D067492068884222D065491831206821
:1016600088421DD0624930312068884218D06049D4
:1016700048312068884213D05D4960312068884233
:101680000ED05B4978312068884209D058499031A2
:101690002068884204D05649A8312068884201D188
:1016A000012000E00020C0B12068006820F01E008A
:1016B00040F01600216808602068406940F0800012
:1016C00021684861206C08B9A06CC0B1206800682E
:1016D00040F008002168086011E02068006820F0F0
:1016E0000E0040F00A0021680860206C08B9A06C68
:1016F00028B12068006840F00400216808603B4978
:101700002068884270D039491831206888426BD0EF
:10171000364930312068884266D0344948312068E3
:10172000884261D031496031206888425CD02F49BD
:1017300078312068884257D02C49903120688842FF
:1017400052D02A49A831206888424DD028492068C3
:10175000884249D0264918312068884244D024491B
:101760003031206888423FD0214948312068884282
:101770003AD01F4960312068884235D01C49783101
:101780002068884230D01A499031206888422BD096
:101790001749A8312068884226D016492068884217
:1017A00022D014491431206888421DD011492831B3
:1017B0002068884218D00F493C312068884213D0F5
:1017C0000C495031206888420ED00A4964312068A3
:1017D000884209D0074978312068884204D00549F9
:1017E0008C312068884207D1012006E010000240B9
:1017F0001004024008540258002090B1206E006886
:1018000000F4803028B1206E006840F48070216EB2
:101810000860E06E28B1E06E006840F48070E16E10
:10182000086031492068884249D02F491831206822
:10183000884244D02C493031206888423FD02A4920
:101840004831206888423AD0274960312068884270
:1018500035D0254978312068884230D022499031EE
:10186000206888422BD02049A8312068884226D0A1
:101870001E492068884222D01C49183120688842BD
:101880001DD01A4930312068884218D01749483194
:101890002068884213D015496031206888420ED0F4
:1018A000124978312068884209D010499031206867
:1018B000884204D00D49A8312068884206D12068AA
:1018C000006840F00100216808600BE020680068B3
:1018D00040F001002168086004E04FF4006060659A
:1018E0004FF0010A504677E5100002401004024014
:1018F00070B504460CB9012070BD94F8350002287B
:1019000003D0802060650120F6E7DC49206888422A
:1019100049D0DA4918312068884244D0D74930315B
:10192000206888423FD0D5494831206888423AD063
:10193000D24960312068884235D0D049783120685A
:10194000884230D0CD499031206888422BD0CB4995
:10195000A8312068884226D0C9492068884222D010
:10196000C7491831206888421DD0C54930312068E8
:10197000884218D0C24948312068884213D0C049F3
:101980006031206888420ED0BD4978312068884295
:1019900009D0BB4990312068884204D0B849A831A9
:1019A0002068884201D1012000E00020F0B304202B
:1019B00084F83500B149206888424BD0AF491831CE
:1019C0002068884246D0AD4930312068884241D0F5
:1019D000AA494831206888423CD0A8496031206833
:1019E000884237D0A54978312068884232D0A3494F
:1019F0009031206888422DD0A049A83120688842C3
:101A000028D09F492068884224D09D4918312068F9
:101A100088421FD09A493031206888421AD09849AC
:101A200048312068884215D0954900E020E06031B7
:101A3000206888420ED0924978312068884209D0C7
:101A40008F4990312068884204D08D49A8312068A0
:101A5000884206D12068006820F0010021680860F3
:101A600009E12068006820F001002168086002E1B7
:101A70002068006820F00E00216808607F49206817
:101A8000884249D07D4918312068884244D07B493A
:101A90003031206888423FD07849483120688842F8
:101AA0003AD0764960312068884235D07349783120
:101AB0002068884230D071499031206888422BD00C
:101AC0006E49A8312068884226D06D492068884236
:101AD00022D06B491831206888421DD068493031C6
:101AE0002068884218D0664948312068884213D05F
:101AF00063496031206888420ED06149783120689E
:101B0000884209D05E4990312068884204D05C49FF
:101B1000A8312068884206D12068006820F00100C2
:101B20002168086005E02068006820F00100216855
:101B3000086052492068884270D0504918312068A6
:101B400088426BD04D4930312068884266D04B497D
:101B500048312068884261D0484960312068884215
:101B60005CD0464978312068884257D0434990314B
:101B70002068884252D04149A831206888424DD01F
:101B80003F492068884249D03D4918312068884241
:101B900044D03B493031206888423FD038494831F1
:101BA000206888423AD0364960312068884235D072
:101BB000334978312068884230D0314990312068EB
:101BC00088422BD02E49A8312068884226D02D4942
:101BD0002068884222D02B491431206888421DD0C9
:101BE000284928312068884218D026493C3120688D
:101BF000884213D023495031206888420ED02149B1
:101C000064312068884209D01E49783120688842B2
:101C100004D01C498C312068884201D1012000E0A9
:101C20000020D8B1206E006820F48070216E08601A
:101C3000A56D94F85C0000F01F01012088406860E9
:101C4000D4E919104860E06E40B1E06E006820F4FD
:101C50008070E16E0860D4E91C10486000BF00206D
:101C600084F8340000BF012084F83500206D10B1E5
:101C70002046216D884700203EE60000100002400B
:101C800010040240085402582DE9F84F0446002081
:101C90000090FE4800684FF41651B0FBF1FAA66DB3
:101CA000D4F858803768D8F80090F94920688842FD
:101CB00049D0F74918312068884244D0F44930317E
:101CC000206888423FD0F2494831206888423AD0A3
:101CD000EF4960312068884235D0ED49783120687D
:101CE000884230D0EA499031206888422BD0E849B8
:101CF000A8312068884226D0E6492068884222D050
:101D0000E4491831206888421DD0E249303120680A
:101D1000884218D0DF4948312068884213D0DD4915
:101D20006031206888420ED0DA49783120688842D4
:101D300009D0D84990312068884204D0D549A831CB
:101D40002068884201D1012000E0002000287DD0D9
:101D500094F85C0000F01F010820884038400028FB
:101D600068D0CB492068884249D0C94918312068D9
:101D7000884244D0C6493031206888423FD0C449A7
:101D80004831206888423AD0C14960312068884291
:101D900035D0BF4978312068884230D0BC49903175
:101DA000206888422BD0BA49A8312068884226D0C2
:101DB000B8492068884222D0B64918312068884244
:101DC0001DD0B44930312068884218D0B14948311B
:101DD0002068884213D0AF496031206888420ED015
:101DE000AC4978312068884209D0AA4990312068EE
:101DF000884204D0A749A8312068884204D12068CD
:101E0000006800F0040003E02068006800F00800AB
:101E100080B12068006820F004002168086094F810
:101E20005C0000F01F0108208840B060606D40F049
:101E30000100606594F85C0000F01F0101208840FB
:101E40003840E8B392492068884200E0B8E24BD0BD
:101E50008F4918312068884246D08D49303120683A
:101E6000884241D08A494831206888423CD088491C
:101E700060312068884237D08549783120688842AF
:101E800032D083499031206888422DD08049A831D2
:101E90002068884228D07F492068884224D07D4924
:101EA0001831206888421FD07A4930312068884232
:101EB0001AD0784948312068884215D0754900E029
:101EC00026E06031206888420ED07249783120685F
:101ED000884209D06F4990312068884204D06D490A
:101EE000A8312068884204D12068406900F0800051
:101EF00002E020680068002050B194F85C0000F017
:101F00001F0101208840B060606D40F002006065F4
:101F100094F85C0000F01F01042088403840E8B3CA
:101F20005B49206888424BD0594918312068884263
:101F300046D0574930312068884241D05449483111
:101F4000206888423CD0524960312068884237D0AE
:101F50004F4978312068884232D04D49903120680D
:101F600088422DD04A49A8312068884228D0494962
:101F70002068884224D047491831206888421FD001
:101F800044493031206888421AD04249483120689B
:101F9000884215D03F496031206800E024E0884243
:101FA0000ED03C4978312068884209D039499031B7
:101FB0002068884204D03749A8312068884204D17B
:101FC0002068006800F0020002E02068006800203D
:101FD00050B194F85C0000F01F0104208840B0600C
:101FE000606D40F00400606594F85C0000F01F0133
:101FF000102088403840E8B325492068884251D0F5
:1020000023491831206888424CD02149303120685A
:10201000884247D01E4948312068884242D01C4936
:102020006031206888423DD0194978312068884263
:1020300038D0174990312068884233D01449A831EC
:10204000206888422ED01349206888422AD011493E
:1020500018312068884225D00E49303120688842E6
:1020600020D00C494831206888421BD00949603192
:10207000206800E04DE0884214D00649783120689D
:1020800088420FD003499031206805E01C000024ED
:102090001000024010040240884203D0FE4920682C
:1020A000884204D12068006800F0080003E020683E
:1020B000006800F0040060B394F85C0000F01F01B9
:1020C00010208840B0602068006800F4802080B153
:1020D0002068006800F4002028B9206CC8B12046B0
:1020E000216C884715E0A06C98B12046A16C884708
:1020F0000FE02068006800F4807028B9206800684C
:1021000020F0080021680860206C10B12046216C86
:10211000884794F85C0000F01F0120208840384078
:1021200000287DD0DD492068884249D0DB4918313C
:102130002068884244D0D9493031206888423FD055
:10214000D6494831206888423AD0D4496031206865
:10215000884235D0D14978312068884230D0CF4983
:102160009031206888422BD0CC49A8312068884221
:1021700026D0C949A8392068884221D0C64990395B
:10218000206888421CD0C44978392068884217D01A
:10219000C14960392068884212D0BF494839206857
:1021A00088420DD0BC4930392068884208D0BA49ED
:1021B00018392068884203D0B7492068884204D182
:1021C0002068006800F0100003E02068006800F05C
:1021D000020028B394F85C0000F01F012020884022
:1021E000B06094F8350004282DD12068006820F0F4
:1021F0001600216808602068406920F0800021688E
:102200004861206C08B9A06C28B12068006820F0F3
:1022100008002168086094F85C0000F01F0100E0ED
:102220003FE03F208840B06000BF002084F83400C9
:1022300000BF012084F83500206D10B12046216DCB
:102240008847BDE8F88F2068006800F4802080B1DE
:102250002068006800F4002028B9606C08B32046AC
:10226000616C88471DE0E06BD8B12046E16B884780
:1022700017E02068006800F4807068B92068006882
:1022800020F010002168086000BF002084F83400AE
:1022900000BF012084F83500E06B10B12046E16BEF
:1022A0008847606D00287DD0606D00F00100E8B3C4
:1022B000042084F835007949206888424BD077495A
:1022C00018312068884246D07449303120688842ED
:1022D00041D072494831206888423CD06F49603112
:1022E0002068884237D06D4978312068884232D0E2
:1022F0006A499031206888422DD06849A831206809
:10230000884228D06449A8392068884223D062498D
:102310009039206888421ED05F4978392068884209
:1023200019D05D4960392068884200E041E012D050
:1023300059494839206888420DD0574930392068BA
:10234000884208D0544918392068884203D052493D
:102350002068884206D12068006820F001002168CA
:10236000086005E02068006820F00100216808602E
:1023700000BF0098401C0090504500D905E020683F
:10238000006800F001000028F3D100BF00BF00206A
:1023900084F8340000BF2068006800F0010028B114
:1023A000032000E00BE084F8350002E0012084F80F
:1023B0003500E06C002802D02046E16C8847D9E166
:1023C00037492068884222D0354914312068884234
:1023D0001DD0334928312068884218D030493C311B
:1023E0002068884213D02E495031206888420ED090
:1023F0002B4964312068884209D029497831206806
:10240000884204D026498C312068884201D10120BD
:1024100000E000200028D2D02068056894F85C0015
:1024200000F01F010420884000EA0900D0B305F045
:102430000400B8B394F85C0000F01F010420884049
:10244000C8F8040005F4004080B105F4803030B9CC
:10245000A06C0028B3D02046A16C88478AE1206C8C
:102460000028ACD02046216C884783E105F020008D
:10247000F0BB0A492068884252D0084918312068C8
:1024800088424DD0054930312068884248D0034900
:1024900048312068884206E0B8040240100002403B
:1024A000085402584FE03BD0B3492068884237D0E7
:1024B000B14918312068884232D0AF4930312068A4
:1024C00088422DD0AC4948312068884228D0AB4999
:1024D0002068884224D0A9491831206888421FD03A
:1024E000A6493031206888421AD0A449483100E01A
:1024F00023E02068884213D0A049603120688842D8
:102500000ED09E4978312068884209D09B4990318D
:102510002068884204D09949A8312068884206D1B1
:102520002068006820F008002168086005E0206845
:10253000006820F0040021680860206C10B3204679
:10254000216C884716E194F85C0000F01F0102201E
:10255000884000EA0900E8B305F00200D0B394F81F
:102560005C0000F01F0102208840C8F8040005F458
:10257000004070B105F4803028B9606C10B120467D
:10258000616C8847F6E0E06BF0B32046E16B88476A
:10259000F0E005F02000C0BB774960392068884230
:1025A0004DD0754948392068884248D07249303941
:1025B0002068884243D070491839206888423ED04C
:1025C0006D49206888423AD06B49183120688842AA
:1025D00035D000E04EE068493031206888422ED086
:1025E000654948312068884229D06449206888427A
:1025F00025D0624918312068884220D05F493031A7
:10260000206888421BD001E06EE02DE05B49483134
:102610002068884213D059496031206888420ED022
:10262000564978312068884209D054499031206851
:10263000884204D05149A8312068884206D12068D8
:10264000006820F014002168086005E02068006838
:1026500020F00A002168086000BF002084F83400E0
:1026600000BF012084F83500E06BE8B32046E16B41
:1026700088477FE094F85C0000F01F010820884044
:1026800000EA090080B305F0080068B33A496039F0
:10269000206888424AD0384948392068884245D065
:1026A000354930392068884240D03349183920688C
:1026B00088423BD030492068884237D02E491831B3
:1026C0002068884232D02C493031206888422DD091
:1026D000294948312068884228D028492068884202
:1026E00024D02649183100E044E0206888421DD0FB
:1026F000224930312068884218D02049483120686A
:10270000884213D01D496031206888420ED01B4991
:1027100078312068884209D0184990312068884271
:1027200004D01649A8312068884206D12068006884
:1027300020F01C002168086005E02068006820F097
:102740000E002168086094F85C0000F01F01012071
:102750008840C8F804000120606500BF002084F8AC
:10276000340000BF012084F83500E06C10B1204631
:10277000E16C884700BF64E570000240100402402D
:102780002DE9F041044600F0AFFD804614B9012068
:10279000BDE8F081FE492068884249D0FC491831E3
:1027A0002068884244D0FA493031206888423FD0BE
:1027B000F7494831206888423AD0F54960312068AD
:1027C000884235D0F24978312068884230D0F049CB
:1027D0009031206888422BD0ED49A831206888428A
:1027E00026D0EC492068884222D0EA491831206876
:1027F00088421DD0E74930312068884218D0E54929
:1028000048312068884213D0E2496031206888420C
:102810000ED0E04978312068884209D0DD499031F6
:102820002068884204D0DB49A8312068884201D161
:10283000012000E00020002873D0606A00B100BFD2
:1028400000BF002084F8340000BF022084F8350067
:10285000CF492068884249D0CD4918312068884244
:1028600044D0CB493031206888423FD0C8494831F4
:10287000206888423AD0C64960312068884235D005
:10288000C34978312068884230D0C14990312068EE
:1028900088422BD0BE49A8312068884226D0BD4945
:1028A0002068884222D0BB491831206888421DD058
:1028B000B84930312068884218D0B649483120687C
:1028C000884213D0B3496031206888420ED0B149A4
:1028D00078312068884209D0AE499031206888421A
:1028E00004D0AC49A8312068884206D1206800682D
:1028F00020F001002168086005E02068006820F0F1
:102900000100216808600DE000F0EEFCA0EB08007B
:10291000052807D920206065032084F835000120B0
:1029200036E76AE02068006800F001000028EBD17B
:102930002068056898480540D4E9020108432169E8
:10294000084361690843A1690843E1690843216AB2
:1029500008430543606A042803D1D4E90B01084306
:1029600005438E4800686FF30F00B0F1005F1DD380
:102970006068292802D360682E2811D960683F2832
:1029800002D3606842280BD96068472802D3606888
:10299000482805D960684F2804D36068522801D8B8
:1029A000012000E0002008B145F480152068056092
:1029B0002068456925F00705606A0543606A0428B8
:1029C0000DD1A06A0543E06A48B12046FEF73EF803
:1029D00028B140206065012084F83500D8E62068E1
:1029E00045612046FDF70EFF064694F85C0000F0B6
:1029F0001F013F208840B0609EE0694920688842FE
:102A000022D067491431206888421DD0644928319A
:102A10002068884218D062493C312068884213D02F
:102A20005F495031206888420ED05D49643120688A
:102A3000884209D05A4978312068884204D05849E0
:102A40008C312068884201D1012000E00020E0B3F1
:102A500053492068884222D0514914312068884265
:102A60001DD04F4928312068884218D04C493C314C
:102A70002068884213D04A495031206888420ED0DD
:102A8000474964312068884209D045497831206837
:102A9000884204D042498C312068884201D101200B
:102AA00000E0002000B100BF00BF002084F8340027
:102AB00000BF022084F835002068056839480540C9
:102AC000A068402802D1102106E02EE0A0688028EE
:102AD00001D1C10100E00021E06841EAD001206994
:102AE00041EAD001606941EAD001A06941EAD00120
:102AF000E06941EAD001206A41EA101005432068EC
:102B0000056027492068401A1421B0FBF1F08000CD
:102B1000E0652046FDF776FE074694F85C0000F07D
:102B20001F0101208840786006E040206065032096
:102B300084F8350001202BE61549206888427FD0B3
:102B400013491831206888427AD011493031206801
:102B5000884275D00E4948312068884270D00C49AF
:102B60006031206888426BD00949783120688842FA
:102B700066D0074990312068884261D00449A83165
:102B8000206888425CD003492068884258D00BE016
:102B900010000240100402403F8010FE0010005C54
:102BA000085402580F00FEFF3B4918312068884244
:102BB00046D0394930312068884241D036494831C1
:102BC000206888423CD0344960312068884237D040
:102BD000314978312068884232D02F4990312068BD
:102BE00088422DD02C49A8312068884228D02B4912
:102BF0002068884224D029491431206888421FD097
:102C000026492831206888421AD024493C3120685E
:102C1000884215D0214950312068884210D01F4980
:102C20006431206888420BD01C4978312068884282
:102C300006D01A498C312068884200E000E001D1BA
:102C4000012000E0002000B32046FDF751FEA068FF
:102C5000802801D1002060602079216E0860D4E9CD
:102C600019104860606860B16068082809D820467B
:102C7000FDF7A0FE0020E16E0860D4E91C1048605A
:102C800003E00020E06620676067002060650120A7
:102C900084F8350000207BE51004024008540258F7
:102CA0002DE9F04104460D4616461F464FF0000838
:102CB00014B90120BDE8F08100BF94F83400012868
:102CC00001D10220F6E7012084F8340000BF94F817
:102CD000350001287ED1022084F83500002060658F
:102CE000E4492068884249D0E24918312068884286
:102CF00044D0E0493031206888423FD0DD49483136
:102D0000206888423AD0DB4960312068884235D05B
:102D1000D84978312068884230D0D649903120682F
:102D200088422BD0D349A8312068884226D0D24986
:102D30002068884222D0D0491831206888421DD0AE
:102D4000CD4930312068884218D0CB4948312068BD
:102D5000884213D0C8496031206888420ED0C649E5
:102D600078312068884209D0C34990312068884270
:102D700004D0C149A8312068884206D12068006883
:102D800020F001002168086005E02068006820F05C
:102D90000100216808603B46324629462046FDF77F
:102DA00023FFB449206888424BD0B24918312068CB
:102DB000884246D0AF4930312068884241D0AD4981
:102DC0004831206888423CD0AA4960312068884256
:102DD00037D000E042E1A74978312068884230D0FE
:102DE000A4499031206888422BD0A249A83120689C
:102DF000884226D0A0492068884222D09E491831B6
:102E0000206888421DD09C4930312068884218D003
:102E1000994948312068884213D097496031206829
:102E200088420ED0944978312068884209D092496E
:102E300090312068884204D08F49A83120688842A8
:102E400001D1012000E0002080B12068006820F05E
:102E50001E0040F0160021680860206CB0B12068A8
:102E6000006840F00800216808600FE020680068F2
:102E700020F00E0040F00A0021680860206C28B1A4
:102E80002068006840F004002168086079492068E3
:102E9000884270D077491831206888426BD07549D4
:102EA00030312068884266D07249483120688842B3
:102EB00061D070496031206888425CD06D497831BA
:102EC0002068884257D06B4990312068884252D0A0
:102ED0006849A831206888424DD0674920688842F7
:102EE00049D0654918312068884244D06249303160
:102EF000206888423FD060494831206888423AD0F3
:102F00005D4960312068884235D05B49783120685E
:102F1000884230D058499031206888422BD0564999
:102F2000A8312068884226D054492068884222D09F
:102F300052491431206888421DD0504928312068F8
:102F4000884218D04D493C312068884213D04B4903
:102F50005031206888420ED0484964312068884248
:102F600009D0464978312068884204D043498C31E1
:102F70002068884201D1012000E0002090B1206E3D
:102F8000006800F4803028B1206E006840F4807042
:102F9000216E0860E06E28B1E06E006840F4807039
:102FA000E16E086033492068884249D031491831C0
:102FB0002068884244D02F493031206888423FD071
:102FC0002C494831206888423AD02A49603120682B
:102FD000884235D0274978312068884230D0254949
:102FE0009031206888422BD02249A831206888423D
:102FF00026D021492068884222D01F4918312068F4
:1030000088421DD01C4930312068884218D01A49A6
:1030100048312068884213D01749603120688842BF
:103020000ED0154978312068884209D01249903174
:103030002068884204D01049A8312068884206D10F
:103040002068006840F001002168086010E02068F6
:10305000006840F001002168086009E000BF00201E
:1030600084F8340000BF4FF4006060654FF0010841
:1030700040461FE610000240100402400854025867
:1030800070B5044600F030F906462546681C10B1BC
:1030900004480078054400BF00F026F9801BA842D0
:1030A000FAD370BD18000024F8B502460023734D12
:1030B000DEE001279F400E6806EA0704002C71D06D
:1030C0004E68012E08D04E68022E05D04E68112E93
:1030D00002D04E68122E13D190685F000326BE40C6
:1030E000B0435F00CE68BE40304390605068012618
:1030F0009E40B0430E79C6F300169E4030435060A8
:10310000D0685F000326BE40B0435F008E68BE40BB
:103110003043D0604E68022E02D04E68122E13D17A
:10312000DF0802F1200656F827005E07F70E0F268B
:10313000BE40B0435F07FF0E0E69BE403043DF085C
:1031400002F1200646F8270010685F000326BE4003
:10315000B0430E7906F003065F00BE4030431060B6
:103160004E6806F08056B6F1805F1BD100BF444E1A
:10317000366846F00206424F3E603E46366806F02C
:103180000206009600BF00BF3E4E9F0856F827007B
:103190009E07370F0F26BE40B0433B4EB24202D1CE
:1031A00000262EE063E0394EB24201D1012628E02C
:1031B000374EB24201D1022623E0364EB24201D14F
:1031C00003261EE0344EB24201D1042619E0334EEC
:1031D000B24201D1052614E0314EB24201D1062699
:1031E0000FE0304EB24201D107260AE02E4EB24225
:1031F00001D1082605E02D4EB24201D1092600E09A
:103200000A269F073F0FBE4030431E4E9F0846F8D8
:1032100027002868A0434E6806F48036B6F5803F44
:1032200000D1204328606868A0434E6806F4003649
:10323000B6F5003F00D1204368604FF0B0463068DB
:10324000A0434E6806F48016B6F5801F00D12043D7
:103250004FF0B04630607068A0434E6806F4001628
:10326000B6F5001F00D120434FF0B04670605B1CE4
:103270000E68DE40002E7FF41CAFF8BD80000058C1
:10328000F444025808040058000002580004025890
:1032900000080258000C025800100258001402588E
:1032A00000180258001C025800200258002402583E
:1032B000024613690B400BB1012000E0002070476B
:1032C0000AB1816101E00B04836170470248006824
:1032D000C0F30B00704700000010005C014800685C
:1032E000000C70470010005C014800687047000047
:1032F00010000024024692F8410020282DD100BF82
:1033000092F84000012801D102207047012082F884
:10331000400000BF242082F841001068006820F0BF
:103320000100136818601068006820F4805013686A
:103330001860106800680843136818601068006817
:1033400040F0010013681860202082F8410000BF9F
:10335000002082F8400000BFD7E70220D5E710B573
:1033600002460B4692F8410020282AD100BF92F86D
:103370004000012801D1022010BD012082F8400048
:1033800000BF242082F841001068006820F001008E
:10339000146820601068016821F4706141EA03211B
:1033A000106801601068006840F001001468206037
:1033B000202082F8410000BF002082F8400000BFBA
:1033C000DAE70220D8E7000010B504460CB9012066
:1033D00010BD94F8410028B9002084F84000204630
:1033E00000F052FB242084F841002068006820F09F
:1033F000010021680860606820F070602168086141
:103400002068806820F4004021688860E068012816
:1034100005D1A06840F400402168886004E0A068FD
:1034200040F4044021688860E068022802D18002EC
:103430002168486020684068134908432168486053
:103440002068C06820F400402168C860D4E9040105
:103450000843A16940EA01202168C860D4E9070156
:103460000843216808602068006840F00100216876
:10347000086000206064202084F841000020206360
:1034800084F8420000BFA3E7008000022DE9F84362
:103490000446894616461F46DDF8208094F8410010
:1034A000202873D100BF94F84000012802D10220E7
:1034B000BDE8F883012084F8400000BFFFF714FF47
:1034C000054619230122D1032046009503F07AFB1B
:1034D00008B10120ECE7222084F84100102084F894
:1034E000420000206064666267856063608DFF282B
:1034F0000CD9FF2020853C48009094F828204FF0FC
:1035000080734946204603F043FB0BE0608D208525
:103510003548009094F828204FF000734946204623
:1035200003F036FB3FE02A464146204603F07AFB93
:1035300008B10120BCE72068406A616A0870606ACF
:10354000401C6062208D401E2085608D401E60857D
:10355000608D40B3208D30BB434600228021204641
:10356000009503F02FFB08B10120A1E7608DFF2833
:103570000DD9FF2020850020009094F828204FF0DE
:1035800080734946204603F003FB0CE02AE0608D7F
:1035900020850020009094F828204FF000734946C1
:1035A000204603F0F5FA608D0028BCD12A4641463A
:1035B000204603F087FB08B1012079E7202021682D
:1035C000C861206840680949084021684860202097
:1035D00084F84100002084F8420000BF84F84000D5
:1035E00000BF65E7022063E70024008000E800FEDA
:1035F0002DE9F8430446894616461F46DDF820802B
:1036000094F84100202871D100BF94F840000128AF
:1036100002D10220BDE8F883012084F8400000BFF9
:10362000FFF762FE054619230122D10320460095CB
:1036300003F0C8FA08B10120ECE7212084F841002A
:10364000102084F842000020606466626785606331
:10365000608DFF280BD9FF2020853B48009094F80F
:103660002820C3024946204603F092FA0AE0608D02
:1036700020853548009094F82820030349462046C9
:1036800003F086FA3FE02A464146204603F045FB18
:1036900008B10120BEE7606A007821688862606A2C
:1036A000401C6062608D401E6085208D401E20851C
:1036B000608D40B3208D30BB4346002280212046E0
:1036C000009503F07FFA08B10120A3E7608DFF2881
:1036D0000DD9FF2020850020009094F828204FF07D
:1036E00080734946204603F053FA0CE02AE0608DCF
:1036F00020850020009094F828204FF00073494660
:10370000204603F045FA608D0028BCD12A46414688
:10371000204603F0D7FA08B101207BE7202021687A
:10372000C861206840680949084021684860202035
:1037300084F84100002084F8420000BF84F8400073
:1037400000BF67E7022065E70020008000E800FE78
:103750002DE9FC5F0446894692469B46DDE90C78DC
:103760000E9E94F8410020287ED117B1B8F1000FC9
:1037700005D14FF4007060640120BDE8FC9F00BFDC
:1037800094F84000012801D10220F6E7012084F8D6
:10379000400000BFFFF7A8FD054619230122D10311
:1037A0002046009503F00EFA08B10120E5E722203B
:1037B00084F84100402084F8420000206064676281
:1037C000A4F82A8060635B46524649462046CDE90C
:1037D000006503F061F930B100BF002084F84000BB
:1037E00000BF0120C9E7608DFF280CD9FF2020858C
:1037F0003D48009094F828204FF0807349462046B9
:1038000003F0C6F90BE0608D20853748009094F8EE
:1038100028204FF000734946204603F0B9F900BF55
:103820003346002204212046009503F0CBF908B16D
:103830000120A2E72068406A616A0870606A401C43
:103840006062208D401E2085608D401E6085608DE9
:1038500048B3208D38BB3346002280212046009596
:1038600003F0B0F918B100E03CE0012085E7608D7D
:10387000FF280CD9FF2020850020009094F82820F4
:103880004FF080734946204603F082F90BE0608DCB
:1038900020850020009094F828204FF000734946BE
:1038A000204603F075F9608D0028B9D12A463146CB
:1038B000204603F007FA08B101205EE720202168C6
:1038C000C861206840680949084021684860202094
:1038D00084F84100002084F8420000BF84F84000D2
:1038E00000BF4AE7022048E70024008000E800FE0D
:1038F0002DE9FC5F0446894692469B46DDE90C783B
:103900000E9E94F8410020287DD117B1B8F1000F28
:1039100005D14FF4007060640120BDE8FC9F00BF3A
:1039200094F84000012801D10220F6E7012084F834
:10393000400000BFFFF7D8FC054619230122D10340
:103940002046009503F03EF908B10120E5E721206B
:1039500084F84100402084F84200002060646762DF
:10396000A4F82A8060635B46524649462046CDE96A
:10397000006503F0CFF830B100BF002084F84000AC
:1039800000BF0120C9E7608DFF280CD9FF202085EA
:103990000020009094F828204FF08073494620467C
:1039A00003F0F6F80BE0608D20850020009094F87D
:1039B00028204FF000734946204603F0E9F800BF85
:1039C0002A463146204603F0A8F908B10120A4E7B1
:1039D000606A007821688862606A401C6062608D5D
:1039E000401E6085208D401E2085608D40B3208D57
:1039F00030BB3346002280212046009503F0E2F8D8
:103A000010B1012089E73AE0608DFF280CD9FF2032
:103A100020850020009094F828204FF080734946BC
:103A2000204603F0B5F80BE0608D20850020009063
:103A300094F828204FF000734946204603F0A8F878
:103A4000608D0028BCD12A463146204603F03AF961
:103A500008B1012061E720202168C8612068406822
:103A60000849084021684860202084F8410000206F
:103A700084F8420000BF84F8400000BF4DE70220F8
:103A80004BE7000000E800FE10B5B6B00446142174
:103A900031A8FCF724FCBC2102A8FCF720FC1E493D
:103AA0002068884236D1082002900020229002A887
:103AB00000F0ACF908B1FDF7D2F900BF1748006873
:103AC00040F00200154908600846006800F0020056
:103AD000019000BF00BF4FF440703190122032902F
:103AE00001203390002034900420359031A90C48F7
:103AF000FFF7DAFA00BF09480830006840F4001008
:103B00000649083108600846006800F4001001907A
:103B100000BF00BF36B010BD00540040E044025862
:103B20000004025803480068034909780844014921
:103B300008607047100000241800002410B503200E
:103B400000F020F901F0A4F810490968C1F303213D
:103B50000F4A515C01F01F0120FA01F40B48006884
:103B600000F00F001146085C00F01F0024FA00F07E
:103B70000849086008480460002000F00FF808B108
:103B8000012010BD00F09AF80020FAE7184402580E
:103B9000ECA80008200000241C00002470B5044696
:103BA0001148007808B9012070BD0F4800784FF423
:103BB0007A71B1FBF0F00D490968B1FBF0F52846C8
:103BC00002F094FB08B10120EEE7102C07D200228E
:103BD0002146501E00F098F80548046001E00120DD
:103BE000E2E70020E0E70000180000241C000024A9
:103BF000140000244178154A11600178F9B1121DB2
:103C000041681160017B0907C27A41EA0261827A48
:103C100041EAC241427B41EA8241827B41EA424120
:103C2000C27B41EA0241427A41EA0221027A41EA38
:103C3000420102781143054A0832116005E0002173
:103C4000024A121D1160121D1160704798ED00E0CC
:103C500000BF00BF00BFBFF35F8F00BF00BF00BF4A
:103C60000548006820F480300349086000200249BC
:103C7000703108607047000024ED00E040F0010161
:103C80000D4A11600C497039096841F480310A4AC3
:103C9000703A116000BF00BF00BFBFF34F8F00BF7D
:103CA00000BF00BF00BF00BF00BFBFF36F8F00BFEA
:103CB00000BF00BF7047000094ED00E008B500BFF2
:103CC0000648006840F002000449086008460068A1
:103CD00000F00200009000BF00BF08BDF44402588D
:103CE0000146084600280DDB00BF00BF00F01F039F
:103CF00001229A4043099B0003F1E023C3F800210D
:103D000000BF00BF00BF70472DE9F05F80460D4641
:103D1000164605F083FA074639462A46334601F02F
:103D20000700C0F1070ABAF1040F02D94FF0040AE4
:103D300001E0C0F1070AD14600F1040ABAF1070F09
:103D400002D24FF0000A01E0A0F1030AD4464FF07E
:103D5000010A0AFA09FAAAF1010A0AEA020A0AFAA7
:103D60000CFA4FF0010B0BFA0CFBABF1010B0BEA59
:103D7000030B4AEA0B042146404605F057FABDE81A
:103D8000F09F000000BF00F00702064B19684FF6D5
:103D9000FF031940044B0B4343EA0221014B196016
:103DA00000BF70470CED00E00000FA0570B5044656
:103DB00015480068C0F3800048B91348006800F057
:103DC0000700A04201D0012070BD0020FCE70E4892
:103DD000006820F0070020430B490860FFF784FAD1
:103DE000054607E0FFF780FA401BB0F57A7F01D95E
:103DF0000120E9E7044808380068C0F34030002893
:103E0000F0D00020E0E700000C4802582DE9F04116
:103E100004460025A846206800F00060B0F1006F5D
:103E200030D1606E48B1B0F5801F0DD0B0F5001FE5
:103E300010D0B0F5401F15D113E0F948006840F4E8
:103E40000030F74908600FE00221201D03F092FDC9
:103E5000054609E0022104F1240003F03DFE054679
:103E600002E001E0012500BF00BF55B9EC48243055
:103E7000006820F44010616E0843E949243108606D
:103E800000E0A846208800F48070B0F5807F2DD136
:103E9000606D05281AD2DFE800F0030A1017180039
:103EA000DF48006840F40030DD49086010E0002180
:103EB000201D03F05FFD05460AE0002104F1240007
:103EC00003F00AFE054603E002E001E0012500BF21
:103ED00000BF55B9D2482430006820F00700616D5A
:103EE0000843CF492431086000E0A846208800F448
:103EF0000070B0F5007F33D1A06D802817D003DCAF
:103F000040B140281CD10CE0C02817D0B0F5807F0C
:103F100016D114E0C248006840F40030C04908607F
:103F200010E00021201D03F025FD05460AE00021D8
:103F300004F1240003F0D0FD054603E002E001E0B7
:103F4000012500BF00BF55B9B5482430006820F4F2
:103F5000E070A16D0843B2492431086000E0A84632
:103F6000208800F48060B0F5806F38D1D4F8A400C8
:103F7000B0F5800F19D004DC50B1B0F5001F1DD191
:103F80000DE0B0F5C00F17D0B0F5000F16D114E05A
:103F9000A348006840F40030A149086010E0002107
:103FA000201D03F0E7FC05460AE0002104F124008F
:103FB00003F092FD054603E002E001E0012500BFA9
:103FC00000BF5DB996482C30006820F46000D4F83A
:103FD000A410084392492C31086000E0A8462088CC
:103FE00000F40060B0F5006F38D1D4F8A800B0F14B
:103FF000007F19D004DC50B1B0F1807F1DD10DE0FD
:10400000B0F1407F17D0B0F1806F16D114E0844832
:10401000006840F400308249086010E00021201D53
:1040200003F0A8FC05460AE0002104F1240003F097
:1040300053FD054603E002E001E0012500BF00BF9B
:104040005DB977482C30006820F0E060D4F8A81003
:10405000084373492C31086000E0A846206800F04E
:104060000070B0F1007F27D1A06CA0B1102804D05F
:10407000202809D030280FD10CE06948006840F4AE
:1040800000306749086009E00221201D03F072FC3E
:10409000054603E002E001E0012500BF00BF55B97D
:1040A0005F482030006820F03000A16C08435C4974
:1040B0002031086000E0A846208800F48050B0F568
:1040C000805F36D1E06DB0F5005F19D004DC50B1EF
:1040D000B0F5805F1DD10DE0B0F5405F17D0B0F5B1
:1040E000804F16D114E04E48006840F400304C492F
:1040F000086010E00021201D03F03CFC05460AE0AA
:10410000002104F1240003F0E7FC054603E002E08F
:1041100001E0012500BF00BF55B9414824300068C7
:1041200020F4E040E16D08433D492431086000E09F
:10413000A846208800F40050B0F5005F34D1206E0E
:10414000B0F5403F1DD007DC68B1B0F5803F0BD023
:10415000B0F5003F18D10DE0B0F5802F12D0B0F5CA
:10416000A02F11D10FE011E00121201D03F002FC6E
:1041700005460BE0012104F1240003F0ADFC0546E7
:1041800004E003E002E001E0012500BF00BF55B9F3
:1041900023482430006820F4E020216E08432049A1
:1041A0002431086000E0A846208800F48040B0F583
:1041B000804F38D1D4F8AC00B0F1405F1DD007DC9F
:1041C00068B1B0F1805F0BD0B0F1005F18D10DE0A5
:1041D000B0F1804F12D0B0F1A04F11D10FE011E03B
:1041E0000121201D03F0C6FB05460BE0012104F16F
:1041F000240003F071FC054604E003E002E001E066
:10420000012500BF00BF6DB905482C30006820F0C3
:10421000E040D4F8AC10084301492C31086002E0BA
:104220002C440258A846208800F40040B0F5004F06
:1042300026D1E06E98B1B0F1805F03D0B0F1005F9D
:104240000ED106E0F948006840F40030F7490860F4
:1042500008E00121201D03F08DFB054602E001E08E
:10426000012500BF00BF55B9F0482430006820F098
:104270004050E16E0843ED492431086000E0A84653
:10428000206800F08070B0F1807F27D1606CA0B111
:10429000012804D0022809D003280FD10CE0E348FC
:1042A000006840F40030E149086009E00221201D67
:1042B00003F060FB054603E002E001E0012500BFDA
:1042C00000BF55B9D9482030006820F00300616C68
:1042D0000843D6492031086000E0A846206800F471
:1042E0008000B0F5800F7DD1D148006840F4807027
:1042F000CF490860FEF7F8FF064606E0FEF7F4FF38
:10430000801B642801D9032505E0C948006800F432
:1043100080700028F2D000BF85BBC44844300068DC
:1043200000F44070B4F8B01001F44071884213D02A
:10433000BE484430006820F44077BC4844300068F0
:1043400040F48030B949443108600846006820F4E0
:104350008030086008460760D4F8B000B0F5807F70
:1043600015D1FEF7C1FF064609E0FEF7BDFF801B31
:1043700041F28831884202D9032507E038E0AB4892
:1043800044300068C0F340000028EED000BF55BBA9
:1043900000BFB4F8B00000F44070B0F5407F0ED11B
:1043A000A2481C38006820F47C51A24AD4F8B0001E
:1043B000104041EA10109D491C39086007E09B48F5
:1043C0001C38006820F47C5098491C3908609748D4
:1043D00044300068B4F8B010C1F30B0108439349AE
:1043E000443101E005E001E0086002E0A84600E099
:1043F000A846207800F0010068B3A06F182819D0F3
:1044000005DC48B1082808D0102816D10BE0202878
:1044100011D0282811D10FE011E00121201D03F057
:10442000A9FA05460BE0012104F1240003F054FB36
:10443000054604E003E002E001E0012500BF00BF03
:1044400055B97A482830006820F03800A16F084339
:1044500076492831086000E0A846207800F0020084
:10446000022828D1606F062815D2DFE800F0030487
:104470000A11121311E00121201D03F07BFA0546F9
:104480000BE0012104F1240003F026FB054604E0C3
:1044900003E002E001E0012500BF00BF55B9634819
:1044A0002830006820F00700616F08435F49283119
:1044B000086000E0A846207800F0040004282AD113
:1044C000D4F89000062815D2DFE800F003040A11A2
:1044D000121311E00121201D03F04CFA05460BE0F8
:1044E000012104F1240003F0F7FA054604E003E09B
:1044F00002E001E0012500BF00BF5DB94B482C3050
:10450000006820F00700D4F89010084347492C3188
:10451000086000E0A846207800F02000202836D16E
:10452000D4F88C00B0F1405F1DD007DC68B1B0F169
:10453000805F0BD0B0F1005F18D10DE0B0F1804F7B
:1045400012D0B0F1A04F11D10FE011E00021201DD9
:1045500003F010FA05460BE0022104F1240003F0F9
:10456000BBFA054604E003E002E001E0012500BFDC
:1045700000BF5DB92D482830006820F0E040D4F835
:104580008C10084329492831086000E0A8462078AB
:1045900000F04000402836D1D4F89800B0F5406FC4
:1045A0001DD007DC68B1B0F5806F0BD0B0F5006F9F
:1045B00018D10DE0B0F5805F12D0B0F5A05F11D139
:1045C0000FE011E00021201D03F0D4F905460BE0B7
:1045D000022104F1240003F07FFA054604E003E021
:1045E00002E001E0012500BF00BF5DB90F482C309B
:1045F000006820F4E050D4F8981008430B492C319F
:10460000086000E0A846207800F0800080283AD1B9
:10461000D4F89C00B0F5C04F23D00DDC98B1B0F5B4
:10462000005F11D0B0F5804F1ED113E02C4402582A
:1046300000480258FFFCFF0FB0F5004F12D0B0F554
:10464000204F11D10FE011E00021201D03F092F95D
:1046500005460BE0022104F1240003F03DFA054673
:1046600004E003E002E001E0012500BF00BF4DB916
:10467000BE48006820F46040D4F89C100843BB4951
:10468000086000E0A846207800F00800082817D14C
:10469000D4F88000B0F5805F07D1022104F1240036
:1046A00003F01AFA08B14FF00108B048001F006883
:1046B00020F44050D4F880100843AC49091F08602A
:1046C000207800F01000102815D1D4F89400B0F52F
:1046D000807F07D1022104F1240003F0FDF908B125
:1046E0004FF00108A148006820F44070D4F89410FD
:1046F00008439E490860206800F40020B0F5002FB0
:1047000026D1D4F8A00030B1B0F5803F09D0B0F583
:10471000003F0ED10CE00021201D03F02BF90546CF
:1047200009E0022104F1240003F0D6F9054602E075
:1047300001E0012500BF00BF4DB98C48006820F49E
:104740004030D4F8A01008438849086000E0A8462B
:10475000206800F48020B0F5802F2DD1D4F884009B
:10476000B0F5801F06D0B0F5001F0CD0B0F5401F8B
:1047700011D10FE07D482C38006840F400307B49AF
:104780002C39086009E0012104F1240003F0A4F9A8
:10479000054602E001E0012500BF00BF5DB9734896
:1047A000001F006820F44010D4F8841008436F49BB
:1047B000091F086000E0A846206800F48030B0F5CA
:1047C000803F24D1E06C18B1B0F5803F0FD108E0F4
:1047D00066482C38006840F4003064492C39086081
:1047E00007E00221201D03F0C5F8054601E0012580
:1047F00000BF00BF55B95D480C38006820F4803018
:10480000E16C084359490C39086000E0A84620686B
:1048100000F00050B0F1005F07D1022104F1240044
:1048200003F05AF908B14FF00108206800F4003095
:10483000B0F5003F27D1E06FA0B1B0F5807F06D082
:10484000B0F5007F0CD0B0F5407F0CD109E04748AF
:104850002C38006840F4003044492C39086004E0EA
:1048600003E002E001E0012500BF00BF55B93F4869
:10487000001F006820F44070E16F08433B49091FA6
:10488000086000E0A846206800F48010B0F5801FA2
:1048900009D136480838006820F00040216F0843ED
:1048A000324908390860206800F08050B0F1805F1C
:1048B0000AD12E484838006820F48040D4F8B4105B
:1048C00008432A4948390860206800F40010B0F510
:1048D000001F09D125480838006820F08070A16EBB
:1048E0000843224908390860206800F08040B0F190
:1048F000804F11D100BF1D484838006820F40040A7
:104900001A494839086008460068D4F8B8100843C6
:1049100016494839086000BF206800F00040B0F137
:10492000004F09D111480C38006820F04050216D2B
:1049300008430E490C390860206800F40000B0F507
:10494000000F0AD10948001F006820F44000D4F885
:10495000881008430549091F0860B8F1000F02D10B
:104960000020BDE8F0810120FBE700005844025818
:104970002DE9F04104460D4614B90120BDE8F0814F
:10498000BD48006800F00F00A8420ED2BA48006887
:1049900020F00F002843B84908600846006800F07E
:1049A0000F00A84201D00120E8E7207800F00400C1
:1049B00004280ED1B1492069096801F070018842CC
:1049C00007D9AE48006820F0700021690843AB4960
:1049D0000860207800F00800082811D1A749091DB7
:1049E0006069096801F07001884209D9A348001D77
:1049F000006820F0700061690843A049091D086043
:104A0000207800F01000102811D19C49091DA069E0
:104A1000096801F4E061884209D99848001D0068DE
:104A200020F4E060A16908439449091D08602078DA
:104A300000F02000202811D190490831E069096870
:104A400001F07001884209D98C480830006820F0D4
:104A50007000E1690843894908310860207800F056
:104A6000020002280ED18549E068096801F00F01B3
:104A7000884207D98148006820F00F00E1680843A8
:104A80007E490860207800F00100002850D07B4863
:104A9000006820F47060A168084378490860606885
:104AA000022807D1754818380068C0F34040F8B9AB
:104AB000012063E76068032807D170481838006850
:104AC000C0F34060A0B9012058E76068012807D111
:104AD0006A4818380068C0F3002048B901204DE743
:104AE000664818380068C0F3800008B9012045E71F
:104AF00062480838006820F00700616808435F4991
:104B000008390860FEF7F0FB064608E0FEF7ECFB0C
:104B1000801B41F28831884201D903202EE7574893
:104B20000838006800F038006168B0EBC10FEDD1C3
:104B3000207800F0020002280ED15049E068096890
:104B400001F00F01884207D24C48006820F00F00A6
:104B5000E1680843494908604748006800F00F00D1
:104B6000A8420ED94448006820F00F00284342496B
:104B700008600846006800F00F00A84201D001203C
:104B8000FCE6207800F0040004280ED13B4920699F
:104B9000096801F07001884207D23848006820F0A7
:104BA00070002169084335490860207800F008004A
:104BB000082811D13149091D6069096801F07001A7
:104BC000884209D22D48001D006820F070006169FC
:104BD00008432A49091D0860207800F010001028B9
:104BE00011D12649091DA069096801F4E0618842D4
:104BF00009D22248001D006820F4E060A169084342
:104C00001E49091D0860207800F02000202811D1DD
:104C10001A490831E069096801F07001884209D237
:104C200016480830006820F07000E1690843134915
:104C30000831086000F02CF810490968C1F303211D
:104C40000F4A515C01F01F0120FA01F70B48006880
:104C500000F00F001146085C00F01F0027FA00F07A
:104C6000084908600848076008480068FEF796FF92
:104C70008046404682E60000002000521844025858
:104C8000ECA80008200000241C00002414000024CC
:104C9000F0B5824E366806F0380636B1082E15D0CB
:104CA000102E15D0182E7DD114E07C4E103E3668A3
:104CB000C6F3401646B1794E103E3668C6F3C107BA
:104CC000774E26FA07F000E07548E5E07548E3E026
:104CD0007548E1E0714E1836366806F003046F4EF1
:104CE00018363668C6F305116C4E1C36366806F069
:104CF00001056A4E24363668C6F3CC0616FB05F667
:104D000001EE106AB8EE410A002971D024B1012CDD
:104D100050D0022C6DD16DE0604E103E3668C6F367
:104D200040163EB35D4E103E3668C6F3C1075C4E7A
:104D300026FA07F301EE103AF8EE411A01EE101AC6
:104D4000B8EE411A81EE812A9FED581AC0EE011A81
:104D5000524E20363668C6F3080601EE106AB8EEE9
:104D6000411A31EE811AF7EE001A31EE211A62EE85
:104D7000010A1EE001EE101AB8EE411ADFED4C1ADE
:104D800081EE812A9FED491AC0EE011A434E20366A
:104D90003668C6F3080601EE106AB8EE411A31EE25
:104DA000811A00E076E0F7EE001A31EE211A62EE89
:104DB000010A5BE001EE101AB8EE411A9FED3D2AA0
:104DC000C2EE011A9FED391A80EE012A334E2036C9
:104DD0003668C6F3080601EE106AB8EE411A32EEE4
:104DE000011AB7EE002A31EE021A61EE810A3DE0A7
:104DF0004EE01DE001EE101AB8EE411ADFED2E1A5A
:104E000081EE812A9FED291AC0EE011A234E203629
:104E10003668C6F3080601EE106AB8EE411A31EEA4
:104E2000811AF7EE001A31EE211A62EE010A1DE036
:104E300001EE101AB8EE411A9FED1E2AC2EE011AB9
:104E40009FED1A1A80EE012A144E20363668C6F3FA
:104E5000080601EE106AB8EE411A32EE011AB7EEFA
:104E6000002A31EE021A61EE810A00BF00BF0B4E2C
:104E700020363668C6F34626721C01EE102AB8EEBC
:104E8000411AC0EE811ABCEEE11A11EE100A00E0E0
:104E9000002001E0034800BF00BFF0BD10440258ED
:104EA0000090D00300093D0040787D0100000046DD
:104EB0000024744C0024744A20BCBE4B70B586B0EC
:104EC00006460C4615463EBB00BF2848006840F029
:104ED0000100264908600846006800F001000090C3
:104EE00000BF00BF4FF480700190022002900320A9
:104EF000049000200390059001A91D48FEF7D4F806
:104F00001A48D038006820F0FE7044EA05010843D2
:104F10001649D039086026E000BF1448006840F008
:104F20000400124908600846006800F00400009080
:104F300000BF00BF4FF400700190022002900320D8
:104F4000049000200390059001A90A48FEF7ACF8F0
:104F50000648D038006820F07E4044EAC511084376
:104F60000249D039086006B070BD0000E044025824
:104F700000000258000802582DE9F047044614B911
:104F80000120BDE8F087207800F00100002870D0F3
:104F9000FE48006800F03808FC481830D0F800904F
:104FA000B8F1100F06D0B8F1180F0FD109F00300B7
:104FB00002280BD1F54810380068C0F340400028A3
:104FC0006AD06068002867D10120DAE700BF606816
:104FD000B0F5803F08D1ED481038006840F48030CB
:104FE000EA49103908602EE0606868B9E74810386F
:104FF000006820F48030E5491039086008460068F0
:1050000020F4802008601EE06068B0F5A02F0DD16C
:10501000DE481038006840F48020DC491039086010
:105020000846006840F4803008600CE0D74810382B
:10503000006820F48030D5491039086008460068BF
:1050400020F48020086000BF606898B1FEF74CF93A
:10505000054606E0FEF748F9401B642801D9032005
:105060008FE7CA4810380068C0F340400028F1D0EC
:1050700012E012E0FEF738F9054606E0FEF734F9D3
:10508000401B642801D903207BE7C0481038006822
:10509000C0F340400028F1D100BF207800F00200AA
:1050A00002287BD1B948006800F03808B7481830AA
:1050B000D0F80090B8F1000F05D0B8F1180F3AD130
:1050C00009F00300B0BBB14810380068C0F380009D
:1050D00018B1E06808B9012053E700BFFEF7FEF8F9
:1050E00041F20301884219D8206940280AD1A74813
:1050F0000C38006820F47C3040F40030A3490C39AF
:10510000086016E0A1480C38006820F47C30216962
:1051100040EA01309D490C3908600AE09B480C3890
:10512000006820F0FE40217C40EA016097490C397C
:10513000086067E0FFE7E06888B3944810380068CB
:1051400020F01900E1680843904910390860FEF723
:10515000CBF8054606E0FEF7C7F8401B022801D948
:1051600003200EE7894810380068C0F3800000284B
:10517000F1D000BFFEF7B2F841F2030188421BD81C
:10518000206940280CD181480C38006820F47C301C
:1051900040F400307D490C39086018E033E017E036
:1051A0007A480C38006820F47C30216940EA0130EC
:1051B00076490C3908600AE074480C38006820F021
:1051C000FE40217C40EA016070490C39086019E01A
:1051D0006E481038006820F001006C4910390860F2
:1051E000FEF782F8054606E0FEF77EF8401B02282F
:1051F00001D90320C5E6654810380068C0F3800077
:105200000028F1D100BF207800F0100010287CD1D8
:105210005E48006800F038085C481830D0F800900C
:10522000B8F1080F06D0B8F1180F3DD109F003000E
:10523000012839D1554810380068C0F3002020B14A
:10524000E069802801D001209BE600BFFEF746F808
:1052500041F2030188421AD8206A20280AD14B481B
:105260000C38006820F0F84040F0804047490C3985
:10527000086018E045480C38006820F0F84094F8C1
:10528000201040EA816041490C3908600BE03F483A
:10529000001F006820F07C5094F8201040EA016064
:1052A0003A49091F086066E0E06978B3374810386A
:1052B000006840F08000354910390860FEF714F8A6
:1052C000054606E0FEF710F8401B022801D903202E
:1052D00057E62E4810380068C0F300200028F1D0AF
:1052E00000BFFDF7FBFF41F2030188421CD8206A92
:1052F00020280CD125480C38006820F0F84040F0F8
:10530000804022490C3908601AE035E019E01F4856
:105310000C38006820F0F84094F8201040EA8160D2
:105320001A490C3908600BE01848001F006820F08B
:105330007C5094F8201040EA01601449091F08606D
:1053400019E012481038006820F080000F49103929
:105350000860FDF7C9FF054606E0FDF7C5FF401BE5
:10536000022801D903200CE6084810380068C0F371
:1053700000200028F1D100BF207800F008000828A4
:1053800034D16069D8B10148643001E0104402585A
:10539000006840F00100EF490860FDF7A5FF0546F1
:1053A00006E0FDF7A1FF401B022801D90320E8E534
:1053B000E8480068C0F340000028F2D016E0E54855
:1053C000006820F00100E3490860FDF78DFF054605
:1053D00006E0FDF789FF401B022801D90320D0E534
:1053E000DC480068C0F340000028F2D1207800F0CB
:1053F0002000202836D1A069D0B1D6487438006882
:1054000040F48050D34974390860FDF76DFF0546BC
:1054100006E0FDF769FF401B022801D90320B0E533
:10542000CC4874380068C0F340300028F1D019E04F
:10543000C8487438006820F48050C6497439086040
:10544000FDF752FF054606E0FDF74EFF401B022820
:1054500001D9032095E5BF4874380068C0F3403097
:105460000028F1D1207800F0040004287DD1BA484A
:10547000006840F48070B8490860FDF735FF0546C4
:1054800006E0FDF731FF401B642801D9032078E5D1
:10549000B148006800F480700028F2D000BFA06816
:1054A000012808D1AB48001F006840F00100A9495D
:1054B000091F08602DE0A06868B9A648001F0068B1
:1054C00020F00100A349091F08600846006820F089
:1054D000040008601DE0A06805280DD19D48001F4C
:1054E000006840F004009B49091F086008460068F6
:1054F00040F0010008600CE09648001F006820F0B2
:1055000001009449091F08600846006820F0040063
:10551000086000BFA068A0B1FDF7E6FE054608E000
:10552000FDF7E2FE401B41F28831884201D9032099
:1055300027E58848001F0068C0F340000028EFD02E
:1055400013E0FDF7D1FE054608E0FDF7CDFE401B58
:1055500041F28831884201D9032012E57D48001FBD
:105560000068C0F340000028EFD1606A00287DD0B9
:1055700078486438006800F03800182877D0606AEE
:10558000022875D173487438006820F08070714922
:1055900074390860FDF7A8FE054606E0FDF7A4FE95
:1055A000401B022801D90320EBE46A4874380068E4
:1055B000C0F340600028F1D100BFD4E90A1041EAED
:1055C000001064494C39096840F2F33291430843B2
:1055D00060494C390860208E401EC0F30800616BA2
:1055E000491E4FF47E4202EA41210843218F491EA1
:1055F000D20102EA014108433C21095D491E120221
:1056000002EA0161084353494439086000BF081F9A
:10561000006820F00100091F08604E48403800680B
:105620004FF6F8718843A16C40EAC10049494039FE
:10563000086048484838006820F00C00216C084396
:105640004449483908600846006820F00200616C4F
:1056500008434049483908600846006840F48030F3
:1056600008600846006840F4003002E06FE041E066
:1056700025E008600846006840F48020086008467D
:10568000006840F00100086032487438006840F05B
:105690008070304974390860FDF726FE054606E043
:1056A000FDF722FE401B022801D9032069E42948A6
:1056B00074380068C0F340600028F1D047E0254806
:1056C0007438006820F08070224974390860FDF752
:1056D0000BFE054606E0FDF707FE401B022801D938
:1056E00003204EE41B4874380068C0F34060002873
:1056F000F1D12CE017484C38076816484438066842
:10570000606A012821D007F00301A06A81421CD100
:10571000C7F30511E06A884217D1C6F30801206B70
:10572000401E814211D1606B401EC6F34621884263
:105730000BD1A06B401EC6F30641884205D1E06B39
:10574000401EC6F30661884201D0012019E4002002
:1057500017E40000744402580048025870B504462B
:1057600000260CB9012070BD606A00B900BF00219D
:10577000A1625649206888420CD055492068884269
:1057800008D054492068884204D0E0680F2801D925
:105790000120E8E7204602F0BCFA05464B492068A4
:1057A000884209D04A492068884205D04949206882
:1057B000884201D0082D0DD844492068884207D07E
:1057C00043492068884203D042492068884203D177
:1057D000102D01D90120C6E794F8810028B90020D6
:1057E00084F88000204600F077F8022084F88100D9
:1057F0002068006820F0010021680860A069B0F10D
:10580000806F11D16068B0F5800F01D1A06B28B115
:10581000606848B9A06BB0F1805F05D1206800686E
:1058200040F4805021680860A16AE0690843304371
:10583000E16B0843E168084321688860616A606B36
:105840000843A16B0843A1690843216908436169C2
:105850000843216A084361680843E16C0843A16872
:105860000843A16C0843A16D08432168C8606068C3
:1058700078B92068806820F4C05040F40060216846
:1058800088602068806820F4C06040F480602168EF
:1058900088602068006D20F001002168086560685C
:1058A00000F48000B0F5800F07D12068C06820F0B8
:1058B0000040616D08432168C8600020C4F884007E
:1058C000012084F8810000204DE7000000300140F5
:1058D00000380040003C004010B5B6B0044614212A
:1058E00031A8FAF7FCFCBC2102A8FAF7F8FC1E4923
:1058F0002068884236D14014029000201A9002A8F5
:10590000FEF784FA08B1FBF7AAFA00BF174800684F
:1059100040F40050154908600846006800F4005043
:10592000019000BF00BF00BF10481038006840F071
:1059300010000E49103908600846006800F0100099
:10594000019000BF00BF4FF4A04031900220329080
:1059500000203390022034900520359031A904486E
:10596000FDF7A2FB36B010BD00340140F0440258F0
:10597000001002582DE9F84F0446884616461D4689
:105980004FF0000A206800F130096068B0F5800F20
:105990000DD1A06858B9042084F8810033464246EE
:1059A00041462046009500F0A1FABDE8F88F00BFFF
:1059B00094F88000012801D10220F6E7012084F844
:1059C000800000BFFDF790FC074694F88100012895
:1059D00008D04FF0020A00BF002084F8800000BF0A
:1059E0005046E2E7B8F1000F00D046B94FF0010A87
:1059F00000BF002084F8800000BF5046D5E7042097
:105A00005C3484F825000020A062C4F80880A681D8
:105A1000E6812060A080E0806061A0615C3CA068BD
:105A2000B0F5C02F05D12068006820F4006021681F
:105A30000860206840686FF30F00304321684860B9
:105A40002068006840F00100216808606068B0F5D7
:105A5000800F05D12068006840F40070216808605C
:105A6000E0680F2832D92CE02068406948F208012C
:105A7000084060B12068006B616E0860606E001DB8
:105A80006066B4F86A00401EA4F86A0019E0FDF7E9
:105A90002BFCC01BA84201D3681C00B98DB920465D
:105AA00002F0CCF800BF002084F8800000BFD4F8DA
:105AB000840040F48070C4F88400012084F88100E0
:105AC00073E7B4F86A000028CED19FE0E0680728A9
:105AD00043D93DE02068406900F46040F0B120689F
:105AE000406900F4004060B12068006B616E08609E
:105AF000606E001D6066B4F86A00801EA4F86A003B
:105B000026E0B9F80000616E0880606E801C606657
:105B1000B4F86A00401EA4F86A0019E0FDF7E4FB3F
:105B2000C01BA84201D3681C00B98DB9204602F001
:105B300085F800BF002084F8800000BFD4F88400FE
:105B400040F48070C4F88400012084F881002CE7C0
:105B5000B4F86A000028BDD158E053E020684069DD
:105B600000F4604098B32068406900F4004060B1E0
:105B70002068006B616E0860606E001D6066B4F89E
:105B80006A00001FA4F86A003CE02068406900F445
:105B9000C040B0F5005F0CD9B9F80000616E088014
:105BA000606E801C6066B4F86A00801EA4F86A000B
:105BB00028E0206890F83000616E0870606E401C2C
:105BC0006066B4F86A00401EA4F86A001AE0FFE7B5
:105BD000FDF78AFBC01BA84201D3681C00B98DB930
:105BE000204602F02BF800BF002084F8800000BFA0
:105BF000D4F8840040F48070C4F88400012084F854
:105C00008100D2E6B4F86A000028A7D1204602F04D
:105C100015F800BF002084F8800000BF012084F840
:105C20008100D4F8840008B10120BEE65046BCE6ED
:105C30002DE9F84F0446884617461D46206800F1B6
:105C400020094FF0000A00BF94F88000012802D11B
:105C50000220BDE8F88F012084F8800000BFFDF726
:105C600043FB064694F88100012808D04FF0020A51
:105C700000BF002084F8800000BF5046E9E7B8F17B
:105C8000000F00D047B94FF0010A00BF002084F890
:105C9000800000BF5046DCE703205C3484F8250018
:105CA0000020A062C4F80080A780E780A060A081E7
:105CB000E081A06160615C3CA068B0F5C02F05D1B7
:105CC0002068006840F4006021680860206840682F
:105CD0006FF30F003843216848602068006840F087
:105CE0000100216808606068B0F5800F05D1206868
:105CF000006840F4007021680860E0680F2832D91D
:105D00002CE02068406900F0020002280CD1E06D10
:105D1000006821680862E06D001DE065B4F862006B
:105D2000401EA4F8620019E0FDF7DEFA801BA842CD
:105D300001D3681C00B98DB9204601F07FFF00BF78
:105D4000002084F8800000BFD4F8840040F4807004
:105D5000C4F88400012084F881007AE7B4F8620076
:105D60000028CED1A2E0E068072845D93FE02068AE
:105D7000406900F0020002281FD1B4F86200012837
:105D80000ED9E06B60B1E06D006821680862E06DDB
:105D9000001DE065B4F86200801EA4F8620026E0F1
:105DA000E06D0088A9F80000E06D801CE065B4F8A3
:105DB0006200401EA4F8620019E0FDF795FA801B0E
:105DC000A84201D3681C00B98DB9204601F036FF06
:105DD00000BF002084F8800000BFD4F8840040F4A5
:105DE0008070C4F88400012084F8810031E7B4F8A1
:105DF00062000028BBD159E054E02068406900F0FF
:105E00000200022834D1B4F8620003280FD9E06BF5
:105E100040280CD9E06D006821680862E06D001D23
:105E2000E065B4F86200001FA4F862003AE0B4F83C
:105E3000620001280ED9E06B60B1E06D0088A9F81E
:105E40000000E06D801CE065B4F86200801EA4F8DC
:105E5000620027E0E06D0078216881F82000E06DA5
:105E6000401CE065B4F86200401EA4F8620019E02E
:105E7000FDF73AFA801BA84201D3681C00B98DB91E
:105E8000204601F0DBFE00BF002084F8800000BF48
:105E9000D4F8840040F48070C4F88400012084F8B1
:105EA0008100D6E6B4F862000028A6D1334600226D
:105EB00008212046009501F039FF28B1D4F884006C
:105EC00040F02000C4F88400204601F0B7FE00BF77
:105ED000002084F8800000BF012084F88100D4F8FD
:105EE000840008B10120B4E65046B2E62DE9FF4F28
:105EF00085B004468A461F46129E00200490206802
:105F00002030039020683030029000BF94F8800069
:105F1000012803D1022009B0BDE8F08F012084F8E8
:105F2000800000BFFDF7E0F981463D46A84694F8A1
:105F300081B060680190BBF1010F11D00198B0F5FC
:105F4000800F04D1A06810B9BBF1040F08D0022063
:105F5000049000BF002084F8800000BF0498DAE7B6
:105F6000BAF1000F02D0079800B147B901200490A0
:105F700000BF002084F8800000BF0498CBE794F8AD
:105F80008100042802D0052084F881000020C4F894
:105F9000840007986066A4F86A70A4F86870C4F872
:105FA0005CA0A4F86270A4F86070002020676067AD
:105FB000206840686FF30F0038432168486020680C
:105FC000006840F00100216808606068B0F5800F4B
:105FD00005D12068006840F4007021680860E0681E
:105FE0000F284DD946E02068406900F002000228E1
:105FF0000ED16DB1E06D006821680862E06D001D92
:10600000E065B4F86200401EA4F86200B4F8625083
:106010002068406948F20801084080B1B8F1000FDB
:106020000DD02068006B616E0860606E001D6066B8
:10603000B4F86A00401EA4F86A00B4F86A80FDF75C
:1060400053F9A0EB0900B04201D3701C00B98EB91E
:10605000204601F0F3FD00BF002084F8800000BF5F
:10606000D4F8840040F48070C4F88400012084F8DF
:10607000810050E7002DB6D1B8F1000FB3D115E182
:10608000E068072873D96BE02068406900F00200DF
:10609000022820D1FDB1012D10D9E06B70B1E06D67
:1060A000006821680862E06D001DE065B4F86200D8
:1060B000801EA4F86200B4F862500CE054F85C0F43
:1060C0000188039801802068801C2060E088401EC1
:1060D000E080E5885C3C2068406900F4604020B3C3
:1060E000B8F1000F21D02068406900F4004070B181
:1060F0002068006B616E0860606E001D6066B4F819
:106100006A00801EA4F86A00B4F86A800DE0029864
:10611000008854F8641F08802068801C2060E08894
:10612000401EE080B4F80680643CFDF7DDF8A0EB8B
:106130000900B04201D3701C00B98EB9204601F0AD
:106140007DFD00BF002084F8800000BFD4F88400EB
:1061500040F48070C4F88400012084F88100DAE6FD
:10616000002D91D1B8F1000F8ED19FE0FFE797E0AD
:106170002068406900F00200022835D125B3032DC4
:1061800011D9E06B40280ED9E06D006821680862E3
:10619000E06D001DE065B4F86200001FA4F8620025
:1061A000B4F8625020E0012D0FD9E06B68B154F8CB
:1061B0005C0F0188039801802068801C2060E088C3
:1061C000801EE080E5885C3C0EE0E06D0078216890
:1061D00081F82000E06D401CE065B4F86200401ECC
:1061E000A4F86200B4F862502068406900F460408E
:1061F00058B3B8F1000F38D02068406900F400406F
:1062000070B12068006B616E0860606E001D606692
:10621000B4F86A00001FA4F86A00B4F86A8024E0A9
:106220002068406900F4C040B0F5005F0ED90298C4
:10623000008854F8641F08802068801C2060E08873
:10624000801EE080B4F80680643C0EE0206890F880
:106250003000616E0870606E401C6066B4F86A00C1
:10626000401EA4F86A00B4F86A80FDF73DF8A0EB80
:106270000900B04201D3701C00B98EB9204601F06C
:10628000DDFC00BF002084F8800000BFD4F884004B
:1062900040F48070C4F88400012084F881003AE65C
:1062A000002D7FF465AFB8F1000FFAD14B46002204
:1062B00008212046009601F039FD28B1D4F8840069
:1062C00040F02000C4F88400204601F0B7FC00BF75
:1062D000002084F8800000BF012084F88100D4F8F9
:1062E000840008B1012016E6049814E670B504464F
:1062F0002546681EB0F1807F01D301200FE0681EA3
:106300004FF0E02148610F214FF0FF3002F08EFF87
:1063100000204FF0E021886107200861002070BD57
:10632000704770477047000010B50346002200BF59
:1063300093F83C00012801D1022010BD012083F810
:106340003C0000BF22F0FF00CC6840EA040222F4C7
:1063500040708C6840EA040222F480604C6840EA95
:10636000040222F400600C6840EA040222F4805027
:106370000C6940EA040222F400504C6940EA04022D
:1063800022F480408C6A40EA040222F470200C8BD4
:1063900040EA04420F4C1868A04203D00E4C186823
:1063A000A0420ED122F470008C8C40EA045222F0FC
:1063B0008070CC6940EA040222F000700C6A40EA66
:1063C00004021868426400BF002083F83C0000BF4C
:1063D00000BFB2E7000001400004014030B50246B2
:1063E0000B4600BF92F83C00012801D1022030BDCD
:1063F000012082F83C0000BF022082F83D001068B6
:106400004168106884681F4D1068A84203D01E4D73
:106410001068A84203D121F470015868014321F0AB
:1064200070011868014310684160164D1068A84259
:1064300017D01068B0F1804F13D0144D1068A842E7
:106440000FD0134D1068A8420BD0124D1068A8420F
:1064500007D00D4D1068A84203D00F4D1068A84218
:1064600005D124F0800498680443106884600120FA
:1064700082F83D0000BF002082F83C0000BF00BF52
:10648000B5E70000000001400004014000040040A6
:1064900000080040000C00400018004070B50446A1
:1064A0000D4615B994F844000BE0042D02D14520A7
:1064B000005D06E0082D02D14620005D01E0472086
:1064C000005D012801D0012070BD1DB9022084F8B3
:1064D00044000EE0042D03D102214520015508E0BF
:1064E000082D03D102214620015502E00221472058
:1064F000015504222946206802F0BCFC2068406C4B
:1065000040F40040216848641A492068884217D046
:106510002068B0F1804F13D01749206888420FD00F
:106520001649206888420BD015492068884207D058
:1065300014492068884203D013492068884210D14A
:1065400020688068114900EA0106062E0FD0B6F5D2
:10655000803F0CD02068006840F00100216808608E
:1065600005E02068006840F0010021680860002014
:10657000AAE70000000001400004004000080040BD
:10658000000C00400004014000180040070001001A
:10659000704710B5044620680069C0F34000D8B1C8
:1065A0002068C068C0F34000B0B16FF002002168FD
:1065B0000861012020772068806900F0030018B18D
:1065C0002046FFF7E5FF05E0204600F0EFF8204603
:1065D00000F0F0F90020207720680069C0F3800007
:1065E000D8B12068C068C0F38000B0B16FF004007B
:1065F00021680861022020772068806900F44070DB
:1066000018B12046FFF7C4FF05E0204600F0CEF8A1
:10661000204600F0CFF90020207720680069C0F301
:10662000C000D8B12068C068C0F3C000B0B16FF03E
:10663000080021680861042020772068C06900F004
:10664000030018B12046FFF7A3FF05E0204600F045
:10665000ADF8204600F0AEF90020207720680069F0
:10666000C0F30010D8B12068C068C0F30010B0B10A
:106670006FF0100021680861082020772068C06949
:1066800000F4407018B12046FFF782FF05E0204675
:1066900000F08CF8204600F08DF90020207720686B
:1066A000006900F0010058B12068C06800F00100E6
:1066B00030B16FF0010021680861204600F07CF9DC
:1066C00020680069C0F3C01058B12068C068C0F3EA
:1066D000C01030B16FF08000216808612046FFF7DC
:1066E00020FE20680069C0F3002058B12068C0680F
:1066F000C0F3C01030B16FF480702168086120468B
:10670000FFF70EFE20680069C0F3801058B12068C2
:10671000C068C0F3801030B16FF04000216808619C
:10672000204600F055F920680069C0F3401058B1C8
:106730002068C068C0F3401030B16FF020002168BD
:1067400008612046FFF7EEFD10BD000010B586B0D1
:106750000446142101A8F9F7C2FD114920688842B6
:106760001BD100BF0F48006840F010000D490860C1
:106770000846006800F01000009000BF00BF4FF412
:10678000806001900220029000200390049001207C
:10679000059001A90448FCF787FC06B010BD000075
:1067A00000000140E044025800100258704770B5E4
:1067B00004460D46164600BF94F83C00012801D15E
:1067C000022070BD012084F83C0000BF0C2E51D087
:1067D00005DC4EB1042E1ED0082E7AD133E0102EE7
:1067E00060D0142EF9D175E02946206802F054FBE0
:1067F0002068806940F0080021688861206880690D
:1068000020F00400216888612068806929690843B4
:106810002168886177E02946206802F093FB2068B0
:10682000806940F40060216888612068806920F4F4
:1068300080602168886120688069296940EA0120B8
:10684000216888615FE02946206802F0D5FB206856
:10685000C06940F008002168C8612068C06920F064
:1068600004002168C8612068C0692969084321685B
:10687000C86148E02946206802F016FC2068C0691B
:1068800040F400602168C8612068C06920F480601D
:106890002168C8612068C069296940EA012021682F
:1068A000C86130E02946206802F036FC2068406D5F
:1068B00040F00800216848652068406D20F0040021
:1068C000216848652068406D29690843216848654A
:1068D00019E017E02946206802F054FC2068406D5A
:1068E00040F40060216848652068406D20F48060B5
:1068F000216848652068406D296940EA01202168C7
:10690000486500E000BF00BF00BF002084F83C00E5
:1069100000BF00BF55E710B504460CB9012010BDFB
:1069200094F83D0028B9002084F83C00204600F08F
:1069300029F8022084F83D00211D206802F034FA75
:10694000012084F8480000BF84F83E0001213F2068
:106950000155402001554120015542200155432059
:10696000015500BF00BF012084F8440045200155B7
:10697000462001554720015500BF012084F83D0005
:106980000020CCE708B5094A016891420DD100BF4B
:106990000749096841F00101054A1160114609687B
:1069A00001F00101009100BF00BF08BD00000140DF
:1069B000F04402587047000010B5044603492068AF
:1069C000884201D100F0A2FB10BD0000004401404C
:1069D000704700BFFEE701688969C1F3400111B14A
:1069E0000021026891620168896901F0010129B9F9
:1069F0000168896941F001010268916170470000F6
:106A000070B504460D46164620688069C0F3001034
:106A100000283DD017E0681CA8B1FCF765FC801B7E
:106A2000A84200D87DB9606C40F02000606420204E
:106A300084F84100002084F8420000BF84F8400040
:106A400000BF012070BD20688069C0F3401000289D
:106A5000E1D010202168C86120202168C86120464B
:106A6000FFF7B9FF206840680A490840216848607C
:106A7000606C40F004006064202084F84100002035
:106A800084F8420000BF84F8400000BF0120D9E72D
:106A90000020D7E700E800FE2DE9F84304468946C8
:106AA00015461E46DDE908781948F2B2002349462A
:106AB0000090204600F06CF842463946204600F02F
:106AC0002CF910B10120BDE8F883012E03D1E8B202
:106AD000216888620EE0C5F307202168886242467B
:106AE0003946204600F019F908B10120EBE7E8B279
:106AF000216888623B46002240212046CDF8008074
:106B000000F060F808B10120DDE70020DBE70000BD
:106B1000002000802DE9F8430446894615461E46AC
:106B2000DDE908781948F2B2C302494600902046D0
:106B300000F02EF842463946204600F0EEF810B13B
:106B40000120BDE8F883012E03D1E8B221688862F4
:106B50000EE0C5F307202168886242463946204688
:106B600000F0DBF808B10120EBE7E8B221688862A9
:106B70003B46002280212046CDF8008000F022F81C
:106B800008B10120DDE70020DBE7000000200080E5
:106B9000F0B5059C05686D684FF4806606EA5456AA
:106BA00066F0FC2646F4C046B543C1F309064FF42F
:106BB0007F0707EA02473E431E43264335430668E4
:106BC0007560F0BD2DE9F04104460E4617461D469E
:106BD000DDF8188019E0681CB8B1FCF785FBA0EB64
:106BE0000800A84200D885B9606C40F020006064BD
:106BF000202084F84100002084F8420000BF84F87F
:106C0000400000BF0120BDE8F0812068806930406D
:106C1000B04201D1012000E00020B842DBD00020CA
:106C2000F1E7000070B504460D46164640E03246D6
:106C300029462046FFF7E4FE08B1012070BD206818
:106C40008069C0F34010F8B120688069C0F380000B
:106C500018B1208D08B10020F0E720202168C8611C
:106C60002068406816490840216848600020606438
:106C7000202084F84100002084F8420000BF84F8FE
:106C8000400000BF0120D9E7FCF72EFB801BA84283
:106C900000D86DB9606C40F020006064202084F85A
:106CA000410000BF002084F8400000BF0120C5E77C
:106CB00020688069C0F380000028B8D00020BDE7BC
:106CC00000E800FE70B504460D4616461DE032464B
:106CD00029462046FFF794FE08B1012070BDFCF75D
:106CE00003FB801BA84200D87DB9606C40F02000F7
:106CF0006064202084F84100002084F8420000BF36
:106D000084F8400000BF0120E8E720688069C0F3F4
:106D100040100028DBD00020E0E770B504460D46A7
:106D200016461FE0324629462046FFF769FE08B1A5
:106D3000012070BD681CA8B1FCF7D6FA801BA842E0
:106D400000D87DB9606C40F020006064202084F899
:106D50004100002084F8420000BF84F8400000BFDA
:106D60000120E6E720688069C0F340000028D9D000
:106D70000020DEE70448007810B10448006870473E
:106D800003480068806BFAE7580000245400002490
:106D900074A200242DE9F0412DED048B07460C462A
:106DA000FFF7E8FF05460026BD4203D1BDEC048B8A
:106DB000BDE8F081B44200D1F8E700EE105AB8EE19
:106DC000400AF0EE408A00EE107AB8EE400A38EE43
:106DD000C00AF0EE408A00EE106AB8EE400AB0EE4B
:106DE000408A00EE104AB8EE400A38EE400AB0EE93
:106DF000408A88EE889AFCF777FA80461EE00120E8
:106E0000FCF73EF9FCF770FAA0EB0806304600EEFE
:106E1000100AB8EE400AB0EE408A00EE105AB8EE02
:106E2000400AF0EE409A48EE099ABCEEE90A10EEEC
:106E3000100A00F007F8A64200D300E0DFE700BF29
:106E400000BFB3E7044908600449097811B904494F
:106E5000096888637047000054000024580000242B
:106E600074A200242DE9F04F8BB082460F46934662
:106E70001D460697CDF814A08548B0F800800A9505
:106E80000C2D01D1062100E0082109910A98484300
:106E90000A900A99480002F08DFE064603A97D4833
:106EA00001F0CAF904A97B4801F0CEF9ABF120004A
:106EB00000F0FF0B4FF000091498002871D1002456
:106EC0006BE00C2D07D10BEB4B00734901EB8000FD
:106ED000005D089004E0714800EB0B10005D089025
:106EE0000020079053E0089800F0800038B14FEA86
:106EF0000860000C40EA28206549088008E06848DE
:106F0000007800026649098840EA2120604908802B
:106F10005F490A88204604EBD0714B10099901FBA8
:106F200009F106EB410121F8132009F101001FFAD4
:106F300080F9A94501DB4FF0000908984006000ED2
:106F40000890781C87B20498874208D35048A0F86C
:106F50000080304602F078FC0BB0BDE8F08F069858
:106F6000381AA8420FD1069F0AF101001FFA80FAD1
:106F70000398824506D34648A0F80080304602F0C8
:106F800063FCE9E706E00798401CC0B20790079849
:106F90000828A8DB00BF601CC4B2AC4291DB62E0F1
:106FA000FFE700245DE00C2D07D10BEB4B003A49C5
:106FB00001EB8000005D089004E0384800EB0B1006
:106FC000005D08900020079045E0089800F08000E0
:106FD00088B12F49097809022D4A128841EA2222F4
:106FE000204604EBD0714B10099901FB09F106EB27
:106FF000410121F8132009F101001FFA80F9A94588
:1070000001DB4FF0000908984006000E0890781C3C
:1070100087B20498874206D31D48A0F80080304606
:1070200002F012FC98E70698381AA8420FD1069F82
:107030000AF101001FFA80FA0398824506D314482A
:10704000A0F80080304602F0FFFB85E706E00798D5
:10705000401CC0B2079007980828B6DB00BF601C30
:10706000C4B2AC429FDB0C2D01D1062000E0082009
:107070003346CDE900050748DDE9051201F02AF89D
:107080000348A0F80080304602F0DEFB00BF63E753
:107090005A00002420A30024E0C1000854C60008C0
:1070A0005C0000242DE9F84F04460D4690469946B1
:1070B000DDE90A6704F0FF0A08EB04001FFA80F814
:1070C00009EB05001FFA80F916E0444502DB54463F
:1070D000A81985B24D4500DB14E0002000903A78F5
:1070E000334629462046FFF7BDFE304606EBD071F9
:1070F00004EB61018CB27F1C38787E2802DC387882
:107100002028E2DA00BFBDE8F88F000010B5104873
:107110000068B0F57A7F03D900200D49086004E0CB
:107120000B4800680A300A490860094800680949A4
:107130000968884205D3012291020748FCF7C0F88C
:1071400005E000224FF480610348FCF7B9F810BD58
:1071500060000024540000240010025870B588B06C
:1071600000207049886001200873022048736E492E
:107170006E4801F039FB6E486A4A052103686B4886
:1071800098476B486B498268684890470020FFF732
:1071900059FE6748684B00221146856A6348A84734
:1071A000FCF7A2F804465BE00A20FBF769FFFCF756
:1071B0009BF8001BB0F57A7F0CD8FCF795F8001B04
:1071C000642148434FF47A71B0FBF1F52846FFF78C
:1071D00039FE45E0FCF788F8001B40F6B8318842DC
:1071E00036D8FCF781F8001BA0F57A700A21B0FBB5
:1071F000F1F52A4651A103A801F0FCFF03A81021D4
:10720000CDE90010474909888AB2464909881E39E4
:1072100088B210230121FFF745FFFCF765F8001B3A
:10722000A0F57A703F49096848434FF4FA61B0FB12
:10723000F1F54FF6FF700321CDE9001039484068A1
:10724000C21E3B482B460021866B3848B04707E0FA
:10725000FCF74AF8001B40F6B831884200D906E036
:107260004FF400513748FCF723F801289CD100BFA8
:1072700002E00A20FBF704FF4FF400513148FCF70D
:1072800017F80128F5D04FF496710020FFF782FD22
:10729000002124484068CDE90001224803682448C1
:1072A0000A46856B2148A84727A103A801F0A2FF41
:1072B00003A81021CDE900101A48008882B20B46BD
:1072C00004210846FFF7EEFEFCF700F805462A46C3
:1072D00021A103A801F08EFF03A81021CDE9001021
:1072E0001048008882B20B4616210420FFF7DAFE10
:1072F00010481DA1026803A801F07CFF03A810211B
:10730000CDE900100748008882B20B4628210420EE
:10731000FFF7C8FE4FF496714800FFF73BFD08B039
:1073200070BD000058A300243000002420A30024D6
:10733000640000245000002444CC0008253033644D
:107340000000000000080258576541637420537420
:107350007564696F0000000053544D33324837782C
:1073600078203078255800004C43442049443A3076
:107370007825580070B504460D46012208210748BB
:10738000FBF79EFF601EFBF77BFE002208210348EF
:10739000FBF796FF681EFBF773FE70BD00100258E6
:1073A0001FB500200090019002900390FCF750FC64
:1073B00001208DF8000000208DF801004FF01040F2
:1073C00001901B208DF8080000208DF80B008DF82F
:1073D0000F008DF80E008DF80D0001208DF80C00C7
:1073E0008DF80A0000208DF809006846FCF702FCC1
:1073F00001208DF800008DF801004FF01040019041
:1074000016208DF8080005208DF80B0001208DF85E
:107410000F008DF80E0000208DF80D008DF80C0087
:1074200001208DF80A0000208DF809006846FCF75D
:10743000E1FB01208DF800004FF010500190122068
:107440008DF8080003208DF80B0001208DF80F0047
:107450008DF80E008DF80D0002208DF8010001203E
:107460008DF80A0000208DF809008DF80C006846A0
:10747000FCF7C0FB0420FCF701FC1FBD10B50C4855
:107480000C4908600020486020210A4881600021E2
:10749000C160016141618161016241628162C162D9
:1074A0000163F9F763FD08B1F9F7D9FC10BD0000DD
:1074B00000000248D8A0002408B500BF0A480068B0
:1074C00040F00100084908600846006800F001002B
:1074D000009000BF00BF002211460B20FCF714FCF7
:1074E0000B20FCF7FDFB08BDD844025800B587B05F
:1074F000142102A8F8F7F3FE00BF4648006840F0E8
:107500001000444908600846006800F0100001902F
:1075100000BF00BF00BF0846006840F004000860DC
:107520000846006800F00400019000BF00BF00BFE3
:107530000846006840F0800008600846006800F0D7
:107540008000019000BF00BF00BF0846006840F007
:10755000010008600846006800F00100019000BFCB
:1075600000BF00BF0846006840F0080008600846F9
:10757000006800F00800019000BF00BF00BF08468F
:10758000006840F0020008600846006800F0020051
:10759000019000BF00BF002208211F48FBF790FEAA
:1075A00001224FF420511C48FBF78AFE082002906C
:1075B0000120039000200490059002A91648FBF7D3
:1075C00073FD4FF4005002900020039002200490BD
:1075D00002A91248FBF768FD4FF4205002900120E9
:1075E0000390002004900320059002A90A48FBF7AD
:1075F0005BFD4FF480700290022003900020049005
:10760000022005900020069002A90548FBF74CFDDA
:1076100007B000BDE04402580010025800080258AC
:107620000000025810B5124812490860124848601C
:107630000021104881600121C16000210161416188
:107640008161C1610162FBF7BFFE08B1F9F707FC78
:1076500000210848FBF74EFE08B1F9F700FC0021B5
:107660000448FBF77CFE08B1F9F7F9FB10BD0000F8
:1076700000540040A0A100248A5E804010B5164846
:10768000164908604FF4800048604FF4C021134849
:1076900081600721C1600021016141614FF080617B
:1076A0008161C900C1610021016241628162C162E0
:1076B0004FF08041416300218163C16301644164F3
:1076C0008164C164016541658165FEF747F808B1D1
:1076D000F9F7C5FB10BD000000340140ECA1002407
:1076E00000B595B000201290139014901C210BA8A7
:1076F000F8F7F5FD2C216846F8F7F1FD27482849F1
:1077000008600B20486000212548816040F2E73185
:10771000C1600021016141618161FFF7FCF808B19E
:10772000F9F79DFB002012901390149012A91C48A9
:10773000FEF754FE08B1F9F792FB60200B90002091
:107740000C900D9008200E9000200F90109011903A
:1077500004220BA91248FFF72AF808B1F9F77FFBBA
:107760000020009001900290039004904FF400508C
:1077700005900020069007904FF0007008900020C0
:1077800009900A9069460648FEF7CEFD08B1F9F760
:1077900066FB0348FEF7DAFF15B000BD00000140AC
:1077A00074A2002400BFFEE77047000038B504460D
:1077B0006A4621460248F8F7FDFE9DF8000038BDF4
:1077C0000CA3002413B5044601AA21460248F8F789
:1077D00022FF00201CBD00000CA30024FEB500F019
:1077E00085F806460EB13046FEBD012501242A4823
:1077F00000F0A8F804460CB12046F5E704200290FA
:1078000002A90C2000F084F804460CB12046EBE7F6
:10781000224800F097F804460CB12046E4E72048DF
:1078200000F090F804460CB12046DDE700200190FE
:1078300001A9112000F036F805460DB12846D3E71E
:107840009DF8040000F08000401C019001A9112067
:1078500000F05EF804460CB12046C5E70020009019
:1078600069466B2000F01EF805460DB12846BBE7BF
:107870009DF8000000F03F0040F040000090694695
:107880006B2000F045F804460CB12046ACE76420BC
:10789000FBF7F6FB0020A7E71FAE0008CDAD000800
:1078A000FBAD000813B582B00C460F4880680E4A45
:1078B00000901279511C0C4A0123106802AAFBF7B0
:1078C00097FE09488068084A00901279511C064AC0
:1078D000012310682246FBF7D9FD10B9002004B03F
:1078E00010BD0120FBE700000CA3002408B56420B4
:1078F000FBF7C6FB802000906946122000F008F8D4
:1079000008B1012008BD6420FBF7BAFB0020F9E7AD
:107910007CB504460D468DF8044028788DF80500A6
:1079200007488068064A009011790223106801AA6E
:10793000FBF75EFE08B900207CBD0120FCE70000DB
:107940000CA3002470B505462C4609E02078611C84
:10795000FFF7DEFF06460EB1304670BDA41C00BF27
:107960002078FF2802D06078FF28EFD10020F4E7CC
:10797000704700002DE9F04104460E4600275548A7
:10798000006800F00300032802D10120BDE8F08167
:1079900050482838006820F080604E492839086037
:1079A000FBF7A2FC054606E0FBF79EFC401B022805
:1079B00001D90320EAE7474828380068C0F3C060CF
:1079C0000028F1D100BF4348006820F47C302168D2
:1079D00040EA01303F490860A088401EC0F308001B
:1079E000A168491E4FF47E4202EA41210843A18961
:1079F000491ED20102EA01410843217C491E1202BC
:107A000002EA0161084333491031086000BF314880
:107A1000001D006820F0C000616908432D49091D60
:107A200008600846006820F02000A1690843294941
:107A3000091D08600846006820F01000086025480D
:107A4000143000684FF6F8718843E16940EAC100DC
:107A50002049143108601F48001D006840F01000E4
:107A60001C49091D08602EB90846006840F4002032
:107A7000086012E0012E08D11648001D006840F48D
:107A800080101449091D086007E01248001D0068B5
:107A900040F400100F49091D08600E48283800689E
:107AA00040F080600B4928390860FBF71DFC054653
:107AB00006E0FBF719FC401B022801D9032065E70B
:107AC000044828380068C0F3C0600028F1D0384668
:107AD0005CE70000284402582DE9F04104460E46B8
:107AE00000275548006800F00300032802D1012058
:107AF000BDE8F08150482838006820F080504E4999
:107B000028390860FBF7F0FB054606E0FBF7ECFBC5
:107B1000401B022801D90320EAE7474828380068BB
:107B2000C0F340700028F1D100BF4348006820F046
:107B30007C70218840EA01503F490860A088401EBF
:107B4000C0F30800A168491E4FF47E4202EA4121B9
:107B50000843A189491ED20102EA01410843217C60
:107B6000491E120202EA01610843334918310860D4
:107B700000BF3148001D006820F44060616908437F
:107B80002D49091D08600846006820F40070A169AD
:107B900008432949091D08600846006820F48070E0
:107BA000086025481C3000684FF6F8718843E16989
:107BB00040EAC10020491C3108601F48001D0068D0
:107BC00040F480701C49091D08602EB90846006801
:107BD00040F48000086012E0012E08D11648001D14
:107BE000006840F400001449091D086007E01248CD
:107BF000001D006840F080700F49091D08600E48A4
:107C00002838006840F080500B4928390860FBF79D
:107C10006BFB054606E0FBF767FB401B022801D91A
:107C2000032065E7044828380068C0F34070002846
:107C3000F1D038465CE700002844025802685169D8
:107C40000268926942F0080203689A6102689269C8
:107C500042F0100203689A610268126822F0010281
:107C600003681A600268126940F26F339A4303682E
:107C70001A610268926822F4404203689A6090F8A0
:107C80008120042A0ED001F020025AB1D0F88420BD
:107C900042F08002C0F884200268926942F020021B
:107CA00003689A6190F88120032A0ED001F0400207
:107CB0005AB1D0F8842042F00402C0F8842002684F
:107CC000926942F0400203689A6101F400725AB16D
:107CD000D0F8842042F00102C0F884200268926942
:107CE00042F4007203689A6101F480725AB1D0F8CC
:107CF000842042F00802C0F884200268926942F4AD
:107D0000807203689A610022A0F86220A0F86A20BD
:107D1000704710B501460124C86B04EB5013C868C6
:107D2000421CD01DC20802FB03F010BD2DE9F0413A
:107D300006460C4617469846069D0BE0FBF7D4FA1C
:107D4000A0EB0800A84201D3681C00B915B90320B4
:107D5000BDE8F081306840692040A04201D1012097
:107D600000E00020B842E9D00020F1E70146002001
:107D70007047000038B504460020009000236A4692
:107D8000132104F1200002F08AFD05460A21204655
:107D900000F062FA00236A46282104F1200002F074
:107DA0007EFD05440A21204600F056FA00236A466B
:107DB000362104F1200002F072FD05440F48007BDB
:107DC00040B90E4880680E4901EBC000007940F0D0
:107DD000080005E009488068094901EBC000007906
:107DE00000900122694604F1200002F04EFD054496
:107DF0000DB14FF0FF35284638BD000058A30024D0
:107E0000B000002438B504460020009000236A46E4
:107E1000132104F1200002F042FD05460A2120460C
:107E200000F01AFA00236A46292104F1200002F02A
:107E300036FD05440A21204600F00EFA00236A466A
:107E4000362104F1200002F02AFD05440F48007B92
:107E500040B90E4880680E4901EBC000007940F03F
:107E6000080005E009488068094901EBC000007975
:107E700000900122694604F1200002F006FD05444D
:107E80000DB14FF0FF35284638BD000058A300243F
:107E9000B00000242DE9FF4F87B0054617461C4669
:107EA000002006908346A07AE17A00EB0120217B36
:107EB00000EB0140617B00EB0168A07CE17C00EB02
:107EC0000120217D00EB0140617D00EB0160059008
:107ED000A07DE17D00EB0120217E00EB0140617E71
:107EE00000EB016AA078E17800EB0120217900EB3A
:107EF0000140617900EB0169A9EB080904EB080670
:107F000041484068C01BA0EB0A000490CDF800A0D7
:107F10002846DDE90423089900F022FD18B14FF04E
:107F2000FF3006906BE03848007B38B936488068EF
:107F3000364911F8300040F0080004E0324880680B
:107F4000324911F830000290012302AA362105F1CE
:107F5000200002F0A4FC18B14FF0FF3006904EE074
:107F60002846049A089900F07FFC18B14FF0FF30C2
:107F7000069044E000BF70788DF80C0030788DF8E2
:107F80000D00022203A905F1200002F07EFC18B1C9
:107F90004FF0FF30069004E00BF1020BB61CCB450E
:107FA000E9D300BF1848007B40B9174880681749DB
:107FB00001EBC000007940F0080005E0124880683D
:107FC000124901EBC00000790290012302AA362178
:107FD00005F1200002F063FC18B14FF0FF3006906D
:107FE0000DE00948406800900748002211460368E8
:107FF000284600F0B5FC10B14FF0FF30069006980F
:108000000BB0BDE8F08F000058A30024B00000249E
:108010002DE9F04706460F4691461D46DDF82080C3
:108020004FF0000A781915490968884202D94FF0C3
:10803000FF3A1FE04A463946304600F015FC10B1C1
:108040004FF0FF3A16E0002409E0C8F307200C4A7D
:1080500002F814006000401C02F80080641CAC426E
:10806000F3D36A00064906F1200002F00EFC08B1C5
:108070004FF0FF3A5046BDE8F087000058A30024B7
:10808000E8A500242DE9F0470746884615461E4618
:10809000DDF820904FF0000AA8190D494968884280
:1080A00002D94FF0FF3A0FE000240AE02A194B46AC
:1080B0004146384600F064FD10B14FF0FF3A02E04F
:1080C000641CB442F2D300BF5046BDE8F087000004
:1080D00058A300242DE9FF4F81B081468A461646F9
:1080E000DDE90E7B00200090DDF810800AEB070030
:1080F0001D490968884205D806EB0B001A494968F2
:10810000884203D94FF0FF30009029E0002525E098
:1081100072195146484600F0A7FB18B14FF0FF30E6
:1081200000901AE000240CE098F800000F4A02F8D2
:10813000140098F801106000401C115408F1020866
:10814000641CBC42F0D37A00084909F1200002F017
:108150009CFB10B14FF0FF3000906D1C5D45D7D3F4
:10816000009805B0BDE8F08F58A3002468A3002450
:108170002DE9FC5F0746884614469946DDE90CABBD
:1081800000200190264600250EE04B46324641462F
:108190003846CDF800B0FFF73BFF18B14FF0FF3085
:1081A000019003E0761C6D1C5545EED300BF01988D
:1081B000BDE8FC9F02464FF0FF3070470246024880
:1081C000806808600020704758A300242DE9FE4312
:1081D00005460F4690461E4642463946284600F060
:1081E00043FB04466A462E2105F1200002F039FBCC
:1081F00004440122694605F1200002F03CFB0444DE
:10820000012202A905F1200002F035FB04440122FD
:1082100001A905F1200002F02EFB04449DF808009E
:108220009DF8041000EB012030600CB14FF0FF34DA
:108230002046BDE8FE830000024602480068086050
:108240000020704758A30024024602484068086096
:108250000020704758A3002470B504460D46E0691D
:108260008047064600BFE0698047801BA842FAD3DA
:10827000002070BD77B581B00446164614B94FF0A2
:10828000FF3562E20020009000236A46012104F1DC
:10829000200002F004FB054678212046FFF7DCFFB2
:1082A0000020009000236A46012104F1200002F022
:1082B000F6FA054678212046FFF7CEFF0020009011
:1082C00001236A46112104F1200002F0E8FA054476
:1082D00000236A46B12104F1200002F0E0FA0544CF
:1082E000012000900122694604F1200002F0CDFA3D
:1082F00005442C2000900122694604F1200002F080
:10830000C4FA05442D2000900122694604F12000A2
:1083100002F0BBFA05440120009001236A46B22115
:1083200004F1200002F0BBFA05442C200090012249
:10833000694604F1200002F0A8FA05442D200090BF
:108340000122694604F1200002F09FFA0544012051
:10835000009001236A46B32104F1200002F09FFA45
:1083600005442C2000900122694604F1200002F00F
:108370008CFA05442D2000900122694604F120006A
:1083800002F083FA0544012000900122694604F1BD
:10839000200002F07AFA05442C2000900122694660
:1083A00004F1200002F071FA05442D200090012212
:1083B000694604F1200002F068FA054407200090A5
:1083C00001236A46B42104F1200002F068FA054452
:1083D000A220009001236A46C02104F1200002F08F
:1083E0005EFA0544022000900122694604F1200053
:1083F00002F04BFA0544842000900122694604F102
:10840000200002F042FA0544C520009001236A468C
:10841000C12104F1200002F042FA05440A20009034
:1084200001236A46C22104F1200002F038FA054413
:10843000002000900122694604F1200002F025FA94
:1084400005448A20009001236A46C32104F12000DC
:1084500002F025FA05442A2000900122694604F121
:10846000200002F012FA05448A20009001236A4697
:10847000C42104F1200002F012FA0544EE2000901D
:108480000122694604F1200002F0FFF905440E20A4
:10849000009001236A46C52104F1200002F0FFF993
:1084A0000544307B40B900236A46212104F12000B5
:1084B00002F0F5F9054407E000236A46202104F1A3
:1084C000200002F0ECF90544012302AA3A2104F14C
:1084D000200002F0E4F905440220009001236A46DE
:1084E000E02104F1200002F0DAF905441C2000909C
:1084F0000122694604F1200002F0C7F90544072073
:1085000000900122694604F1200002F0BEF9054402
:10851000122000900122694604F1200002F0B5F912
:108520000544372000900122694604F1200002F042
:10853000ACF90544322000900122694604F1200084
:1085400002F0A3F90544292000900122694604F1B4
:10855000200002F09AF905442D200090012269467E
:1085600004F1200002F091F9054429200090012235
:10857000694604F1200002F088F9054425200090A6
:108580000122694604F1200002F07FF905442B2006
:1085900000900122694604F1200002F076F90544BA
:1085A000392000900122694604F1200002F06DF9A3
:1085B0000544002000900122694604F1200002F0E9
:1085C00064F90544012000900122694604F120006D
:1085D00002F05BF90544032000900122694604F192
:1085E000200002F052F90544102000900122694653
:1085F00004F1200002F049F9054403200090012312
:108600006A46E12104F1200002F049F905441D20E9
:1086100000900122694604F1200002F036F9054479
:10862000072000900122694604F1200002F02DF994
:108630000544062000900122694604F1200002F062
:1086400024F905442E2000900122694604F12000FF
:1086500002F01BF905442C2000900122694604F128
:10866000200002F012F905442920009001226946F9
:1086700004F1200002F009F905442D2000900122A8
:10868000694604F1200002F000F905442E20009014
:108690000122694604F1200002F0F7F805442E207B
:1086A00000900122694604F1200002F0EEF8054432
:1086B000372000900122694604F1200002F0E5F81D
:1086C00005443F2000900122694604F1200002F099
:1086D000DCF80544002000900122694604F12000E6
:1086E00002F0D3F80544002000900122694604F10D
:1086F000200002F0CAF805440220009001226946D9
:1087000004F1200002F0C1F805441020009001227D
:10871000694604F1200002F0B8F8054400200090FA
:1087200001236A46132104F1200002F0B8F8054441
:1087300001236A46292104F1200002F0B0F8054423
:108740003146204600F0B6F905440DB14FF0FF3533
:10875000284604B070BDF8B505460E466A46DA21D3
:1087600005F1200002F07DF810B14FF0FF3421E058
:108770000DF10102DB2105F1200002F072F810B1C9
:108780004FF0FF3416E00DF10202DC2105F120006C
:1087900002F067F810B14FF0FF340BE09DF80200D3
:1087A0009DF8011040EA01209DF8001040EA0140C8
:1087B000306000242046F8BD2DE9F04104460D4606
:1087C00016462746314628463A699047BDE8F0816B
:1087D0002DE9F04104460D46164627463146284607
:1087E000BA699047BDE8F08170B504460D4614B9EA
:1087F0004FF0FF301FE029682160696861602989B6
:108800002181E968E1602969216169696161A9697A
:10881000A161E969E161084A626208492162084A86
:10882000A262084AE2622463216811B12168884784
:1088300001E04FF0FF3070BDB9870008ED8B0008F4
:1088400049880008D18700082DE9F04104460D460B
:1088500016462746314628467A699047BDE8F0819A
:1088600002464FF0FF307047F8B507460C461546F4
:108870003A488068012816D83848407B012807D13B
:108880003648007B10B91A346D1C23E0183421E0FF
:108890003248407B02281DD13048007B012819D185
:1088A000A41C6D1C16E02D48407B012808D12B48E4
:1088B000007B10B9641C1A350CE000BF183509E0C4
:1088C0002648407B022805D12448007B012801D19D
:1088D000641CAD1C00236A462A2107F1200001F028
:1088E000DEFF0646C4F3072000900122694607F127
:1088F000200001F0CAFF0644E0B200900122694660
:1089000007F1200001F0C1FF064400236A462B2135
:1089100007F1200001F0C3FF0644C5F307200090D3
:108920000122694607F1200001F0AFFF0644E8B2DA
:1089300000900122694607F1200001F0A6FF0644DD
:1089400000236A462C2107F1200001F0A8FF06440D
:108950000EB14FF0FF363046F8BD000058A300249A
:108960002DE9F84305460E4614469846DDF820905A
:108970004F488068012816D84D48407B012807D110
:108980004B48007B10B91A36641C23E0183621E0EE
:108990004748407B02281DD14548007B012819D15A
:1089A000B61C641C16E04248407B012808D14048B0
:1089B000007B10B9761C1A340CE0761C183409E0E0
:1089C0003B48407B022805D13948007B012801D172
:1089D000761CA41C00236A462A2105F1200001F020
:1089E0005EFF0746C6F3072000900122694605F1A5
:1089F000200001F04AFF0744F0B2009001226946CE
:108A000005F1200001F041FF074406EB0800401E7D
:108A1000C0F3072000900122694605F1200001F013
:108A200034FF074406EB0800401EC0B2009001224C
:108A3000694605F1200001F028FF074400236A463B
:108A40002B2105F1200001F02AFF0744C4F3072081
:108A500000900122694605F1200001F016FF07444D
:108A6000E0B200900122694605F1200001F00DFFFF
:108A7000074404EB0900401EC0F3072000900122C8
:108A8000694605F1200001F000FF074404EB0900EE
:108A9000401EC0B200900122694605F1200001F09D
:108AA000F4FE07440FB14FF0FF373846BDE8F883B6
:108AB00058A300247CB506460C46A06810B1A068F7
:108AC000012813D1607B012805D150202A49086074
:108AD000A02048601DE0607B10B1607B022818D1A7
:108AE000802025490860A020486012E0607B0128B2
:108AF00005D1A020204908605020486009E0607B33
:108B000010B1607B022804D1A0201B49086080209E
:108B100048601949A0688860207B0873607B4873AF
:108B20000846406800900846002211460368304617
:108B3000FFF716FF05461048007B40B90E488068D5
:108B40000E4901EBC000007940F0080005E00A483A
:108B500080680A4901EBC00000790190012301AA55
:108B6000362106F1200001F09AFE05440DB14FF0C8
:108B7000FF3528467CBD000058A30024B000002427
:108B80002DE9F84305460E4617461C464FF00008EF
:108B90004FF6FF7000EA04200090BDF80000C4F317
:108BA0000F210843009010480068B04203D90E48D6
:108BB0004068B84202D84FF0FF3811E03A463146DB
:108BC0002846FFF751FE10B14FF0FF3808E00222AF
:108BD000694605F1200001F058FE08B14FF0FF385A
:108BE0004046BDE8F883000058A300242DE9F04179
:108BF00004460D4616461F46A0463A4631462846CC
:108C0000D8F80C309847BDE8F081704710B5FAF7F6
:108C100089FF10BD00B59DB04C210AA8F7F75FFB96
:108C2000202102A8F7F75BFB0220FBF7BFF800BF8B
:108C3000002001902C48006840F440402A49086018
:108C40000846006800F4404001902848006840F061
:108C50000100264908600846006800F00100019004
:108C600000BF00BF00BF2048006800F40050B0F50E
:108C7000005FF8D121200A904FF480300B90012042
:108C8000109002201390022114910521159160216A
:108C90001691022117911891199108211A9100211A
:108CA0001B911C910AA8FCF767F908B1F8F7D7F8EF
:108CB0003F2002900320039000200490082005909C
:108CC00000200690079008900990012102A8FBF768
:108CD0004FFE08B1F8F7C3F84FF4801211010020DD
:108CE000FCF7ECF81DB000BD184802582C040058E1
:108CF0002448006840F47000224908602248006857
:108D000040F001002049086000201F491031086030
:108D10001D4800681D4908401B49086000201A4989
:108D200018310860091D0860091D086016492831BE
:108D30000860091D0860091D0860091D0860091DFB
:108D40000860091D0860091D0860091D08600E48BB
:108D5000006820F480200C49086000200A49603136
:108D600008600B4800686FF30F00B0F1005F02D29B
:108D70000120084908604FF000600249803908600E
:108D80007047000088ED00E0004402587FEDF6EAED
:108D90000010005C0881005110B50248FDF7F9FB96
:108DA00010BD0000C0A2002410B50268294B9842F3
:108DB0000ED0B0F1804F0BD0274B984208D0274BF4
:108DC000984205D0264B984202D0264B984203D1B8
:108DD00022F070024B681A431E4B984217D0B0F134
:108DE000804F14D01C4B984211D01C4B98420ED08F
:108DF0001B4B98420BD01B4B984208D01A4B984201
:108E000005D01A4B984202D0194B984203D122F454
:108E10004072CB681A4322F080034C6943EA040293
:108E200002608B68C3620B6883620A4B98420BD066
:108E30000C4B984208D00C4B984205D00B4B9842F3
:108E400002D00B4B984201D10B69036301234361AC
:108E500010BD000000000140000400400008004078
:108E6000000C00400004014000400140004401406B
:108E70000048014030B501F01F05042404FA05F351
:108E8000046A9C430462046A01F01F0502FA05F5B6
:108E90002C43046230BD000030B5056A25F00105A1
:108EA0000562026A43688469204D2C4024F0030463
:108EB0000D682C4322F002028D682A431C4DA84203
:108EC00000D10FE01B4DA84200D10BE01A4DA84283
:108ED00000D107E0194DA84200D103E0184DA84287
:108EE00006D100BF22F00802CD682A4322F0040216
:108EF0000F4DA8420BD00F4DA84208D00E4DA842EE
:108F000005D00E4DA84202D00D4DA84207D123F442
:108F1000807323F400734D692B438D692B434360A9
:108F200084614D684563026230BD00008FFFFEFF23
:108F300000000140000401400040014000440140A5
:108F40000048014030B5056A25F010050562026A47
:108F500043688469224D2C4024F440740D6844EA2F
:108F6000052422F020028D6842EA05121D4DA84218
:108F700000D10FE01C4DA84200D10BE01B4DA842D0
:108F800000D100BF1A4DA84200D100BF194DA84220
:108F900007D106E022F08002CD6842EA051222F0F5
:108FA0004002104DA8420BD00F4DA84208D00F4DE3
:108FB000A84205D00E4DA84202D00E4DA84209D1BC
:108FC00023F4806323F400634D6943EA85038D69CC
:108FD00043EA8503436084614D688563026230BD66
:108FE000FF8FFFFE000001400004014000400140EF
:108FF000004401400048014030B5056A25F4807501
:109000000562026A4368C46924F0700424F0030412
:109010000D682C4322F400728D6842EA05221D4D32
:10902000A84200D10FE01C4DA84200D10BE01B4D1F
:10903000A84200D100BF1A4DA84200D100BF194D6F
:10904000A84207D106E022F40062CD6842EA052278
:1090500022F480620F4DA8420BD00F4DA84208D0D9
:109060000E4DA84205D00E4DA84202D00D4DA8428B
:1090700009D123F4805323F400534D6943EA0513C7
:109080008D6943EA05134360C4614D68C56302629C
:1090900030BD0000000001400004014000400140DC
:1090A000004401400048014030B5056A25F4805570
:1090B0000562036A4468C26922F4E04222F4407205
:1090C0000D6842EA052223F400538D6843EA053314
:1090D0000C4DA8420BD00C4DA84208D00B4DA84215
:1090E00005D00B4DA84202D00A4DA84204D124F469
:1090F00080444D6944EA85144460C2614D6805644A
:10910000036230BD00000140000401400040014006
:10911000004401400048014030B5056A25F480351F
:109120000562046A4268436D23F070030D682B43A7
:1091300024F400340D8944EA05440D4DA8420BD0B7
:109140000C4DA84208D00C4DA84205D00B4DA842AA
:1091500002D00B4DA84204D122F480324D6942EA7C
:109160000522426043654D688565046230BD00009C
:109170000000014000040140004001400044014063
:109180000048014030B5056A25F480150562036A80
:109190004468426D22F4E0420D6842EA052223F45D
:1091A00000130D8943EA05530C4DA8420BD00C4D1A
:1091B000A84208D00B4DA84205D00B4DA84202D0C2
:1091C0000A4DA84204D124F400344D6944EA8524B0
:1091D000446042654D68C565036230BD00000140D2
:1091E00000040140004001400044014000480140AB
:1091F00000BFFEE70FB4084B10B504A902AA0398FC
:1092000000F038F8044602A9002000F0CDFA20460C
:1092100010BC5DF814FB0000A99700080248006824
:10922000C0F30220704700000CED00E010B50028EC
:1092300004DB0A07130E054A135406E00A07140E4E
:10924000034A00F00F031B1FD45410BD00E400E0DC
:1092500018ED00E002E008C8121F08C1002AFAD188
:1092600070477047002001E001C1121F002AFBD1A6
:10927000704700002DE9FF4F8DB00F4605460026D0
:1092800006E025280BD0DDE90F1290476D1C761CF7
:1092900028780028F5D111B03046BDE8F08F0024C1
:1092A000A246A1460122EC4900E0044315F8013F23
:1092B000203B02FA03F00842F7D128782A2810D080
:1092C0006FF02F022878A0F13001092914D80AEB99
:1092D0008A0102EB410144F0020400EB010A6D1C1B
:1092E000F0E701CF5FEA000A03D544F40054CAF165
:1092F000000A44F002046D1C28782E2817D115F8B6
:10930000010F44F004042A280ED06FF02F022878B1
:10931000A0F1300109290AD809EB890102EB4101CA
:1093200000EB01096D1CF2E757F8049B6D1C2878CF
:109330006C280FD006DC4C2817D068280DD06A287E
:1093400014D104E0742810D07A280FD10DE044F431
:1093500000140AE044F4801401E044F440146978F5
:10936000814202D104F580146D1C6D1C2A786E2A8E
:109370001FD00CDC632A31D004DC002A8BD0582AA1
:1093800011D1A3E0642A68D0692A0CD165E0732A60
:109390002ED004DC6F2A73D0702A04D19BE0752A8A
:1093A0006FD0782A6ED01046DDE90F129047761CF8
:1093B00050E1C4F30250022806D0032809D0042843
:1093C00001CF09D0066045E101CFF117C0E9006186
:1093D00040E101CF06803DE106703BE117F8040B48
:1093E0008DF8000000208DF80100EB46012003E01D
:1093F00057F804BB4FF0FF3061074FF0000102D473
:109400000DE008F10101884649450FDA8045F8DB97
:109410001BF808100029F4D108E008F10101884682
:109420008142FADB1BF808100029F6D1DDE90F2391
:10943000AAEB08008146214600F036F9304400EBE3
:10944000080604E0DDE90F121BF8010B9047B8F1A4
:109450000108F7D221464846F7E00A21C4F3025337
:109460004FF0000B0891022B04D001CFC117032B42
:1094700009D00AE0FF1D27F00707F7E8020108E01E
:1094800032E01FE020E000B2C117042B01D140B24E
:10949000C117031E71F1000307DA4FF0000CD0EB87
:1094A0000C006CEB01012D2302E0230504D52B23D6
:1094B0008DF82430012303E0E30701D02023F7E7F0
:1094C000984658E00A2110E010210EE010204FF0DD
:1094D000000B08900CE010214FF0000B44F0040446
:1094E0004FF00809089103E008214FF0000B0891A4
:1094F000C4F30253022B04D001CF0021032B06D06A
:1095000006E0FF1D27F00707F7E8020103E080B23D
:10951000042B00D1C0B24FF0000823072BD5702ACE
:1095200007D0DDF820C08CF0100C5CEA0B0C05D0E5
:109530000EE040238DF82430012308E050EA0103B7
:1095400006D030238DF824308DF82520022398464C
:10955000DDF820C08CF0080C5CEA0B0C0BD150EA53
:10956000010301D1630706D530238DF824304FF075
:109570000108A9F10109582A04D038A20B9208AABF
:109580000A920BE03AA2F9E75B46089AF6F7B2FEB8
:109590000B9B9B5C0A9A521E0A92137050EA0102BE
:1095A000F2D10A98ADEB000000F1200B600702D564
:1095B00024F4803401E04FF00109D94502DDA9EB24
:1095C0000B0000E0002000EB0B0141440890AAEBE7
:1095D000010AE00306D4DDE90F232146504600F0DE
:1095E00063F806444FF0000908E009A911F80900E2
:1095F000DDE90F12904709F10109761CC145F4DB42
:10960000E0030CD5DDE90F232146504600F04CF86D
:10961000064404E0DDE90F1230209047761C0899DB
:10962000481E08900029F5DC08E00A980A9900789D
:10963000491C0A91DDE90F129047761CBBF100012D
:10964000ABF1010BF1DC21465046DDE90F2300F0C0
:1096500019F806446D1C1BE609280100303132332D
:10966000343536373839616263646566000000005E
:109670003031323334353637383941424344454648
:10968000000000002DE9F041044600251E46174663
:10969000880404D405E039462020B0476D1C641EC0
:1096A000F9D52846BDE8F0812DE9F04104460025B2
:1096B0001E469046C80301D5302700E020278804C5
:1096C00004D505E041463846B0476D1C641EF9D507
:1096D0002846BDE8F08100002DE9F047044601214D
:1096E000FF20FEF76FF81220FEF760F800F0020985
:1096F0000021FF20FEF766F84420FEF757F8824667
:10970000264830F8245000EB8400B0F8028023484B
:10971000B0F86000A84201DB214E00E0214E00219C
:10972000FF20FEF74FF801210520FEF74BF8C5F3A7
:1097300087015A20FEF746F8C8F387015B20FEF741
:1097400041F8042000EA2820C5F3812240EA020102
:109750005C20FEF737F80121FF20FEF733F8304692
:1097600001F0ACF80121FF20FEF72CF81220FEF7E3
:109770001DF840EA090739461220FEF723F80021B8
:10978000FF20FEF71FF851464420FEF71BF800218A
:109790000520FEF717F8BDE8F0870000FCA80008D8
:1097A0001FAD000865AD00080A68531C0B601070FF
:1097B0007047000030B501461B4802881B48407CBA
:1097C000042807D01948407C052803D01748407C5E
:1097D00002280FD1B1F5A06F1BDC082505EB410372
:1097E000114D2C88A34201DD1D4600E02546284688
:1097F00082B20EE0B1F5207F0BDD082505EB4104B8
:10980000094D2888844201DD254600E005462B46A7
:109810009AB202F1FC0340F29E54A34201DD1D46C0
:1098200000E02546284630BD240000240CA3002477
:1098300010B5014601F11802F8239A4201DD1446E1
:1098400000E01C46204610BD10B5002821D0114B69
:109850000022001F196803E0814203D80A464968C4
:109860000029F9D152B11368841A9C4204D10068CE
:1098700018441060104602E0506000E0186039B1F2
:1098800002680B1A934203D10B681A4402604968BC
:10989000416010BDD000002410B5F9F725FD10BDC2
:1098A00010B5002404210248FCF7F8FD204610BD45
:1098B00074A2002473B50D4600224FF400611548D0
:1098C000F9F7FEFC00224FF400511248F9F7F8FCBA
:1098D0006423012269461048FCF7AAF904460122D4
:1098E00051030C48F9F7ECFC4FF4FA7301222946B6
:1098F0000948FCF73FF804440122D1020548F9F772
:10990000DFFC002C02DD4FF0FF3000E000200446B9
:1099100020467CBD00100258ECA1002470B504461E
:109920000D4600224FF400610C48F9F7C9FCAAB2B9
:109930004FF4FA7321460A48FCF71CF80646012248
:10994000D1020648F9F7BCFC002E02DD4FF0FF30D3
:1099500000E000200646304670BD000000100258AE
:10996000ECA1002470B504460D4600224FF40061BE
:109970000B48F9F7A5FCAAB2642321460948FCF775
:1099800057F906460122D1020548F9F799FC002E45
:1099900002DD4FF0FF3000E000200646304670BD8B
:1099A00000100258ECA10024F7B50E461446002220
:1099B0004FF400611548F9F783FC00224FF4005181
:1099C0001248F9F77DFC6423012269461048FCF730
:1099D0002FF90546012251030C48F9F771FC3CB1FF
:1099E000A2B24FF4FA7331460948FCF721F9054455
:1099F0000122D1020548F9F763FC002D02DD4FF08A
:109A0000FF3000E0002005462846FEBD0010025849
:109A1000ECA1002488B0FDF7C3FCF6F7D1FCFAF7FF
:109A20008DF8FFF7F7F8FDF761FDFDF745FDFDF750
:109A300025FDFDF7F7FDFDF721FEFDF751FEFDF7D2
:109A40008DFB41A103A8FFF7D5FB03A81021CDE9A9
:109A500000104248008882B20B463A210020FDF7F0
:109A600021FB15213E48F6F743FD00201021CDE9EA
:109A700000103A4803683B483A220021846B3A4878
:109A8000A0472BE03948C28939A103A8FFF7B2FBF0
:109A900003A80C21CDE900103048008882B21023C1
:109AA0003A210020FDF7FEFA4FF4FA710520FDF788
:109AB00061FC34A103A8FFF79DFB03A80C21CDE9AD
:109AC00000102648008882B210233A210020FDF7BA
:109AD000E9FA4FF4FA710520FDF74CFC4FF4005100
:109AE0002D48F9F7E5FB0028CCD04FF420532B4A42
:109AF00000212B48F7F766FB25E02A48006810B3E1
:109B00000020284908601548406814490968234B1B
:109B10000022CDE9001011461348FEF7DBFA224877
:109B200022A1026803A8FFF765FB03A80C211023FC
:109B30003C22CDE9001005210846FDF7B3FA0121CA
:109B40000846FDF717FCD8E743616D657261204E4A
:109B50006F7420466F756E640000000058A30024E7
:109B6000A0A100246400002420A300240CA300244E
:109B700043616D6572612069643A307825782020F0
:109B8000200000004C6F6E675072657373204B317C
:109B900020746F2052756E0000080258D80000240F
:109BA000D8A00024000000240400002425644650AE
:109BB00053000000F0B50B30154D20F007010024D4
:109BC000144A0FE003688B420BD38B4205D95E1A0F
:109BD00043184768C3E9006700E04368136002C0A8
:109BE00004E0021D10680028ECD12046002802D1B4
:109BF000286808B10020F0BD064A07481060074AEF
:109C0000121A22F00702C0E9002401202860D7E7D9
:109C1000D4000024D00000246CA8002468AA0024EA
:109C200010B5044600F0A0FD074804740120064961
:109C30004874487C00F0C8FD002000F0AFFD002013
:109C400000F0FAFD002010BD0CA3002470B50446FE
:109C50000D462A4621460248F6F7C8FCC0B270BD40
:109C60000CA3002470B504460D462A46214602483E
:109C7000F6F7E7FC002070BD0CA3002410B50446E5
:109C800000F016F809480474012008494874487C1B
:109C900000F0E6FA0549087C00F03EF8002000F0EC
:109CA000C0FA002000F0C4FB012010BD0CA300246A
:109CB00070B5112143F20310FFF7D4FF054682214E
:109CC00043F20800FFF7CEFF05430520F9F7D8F966
:109CD000002413E004EB44020E4B1A44527804EBC8
:109CE00044030C4EF35C42EA032004EB4402334687
:109CF0001A449178FFF7B6FF0543641C04EB440057
:109D00000449085C0028E5D14FF49670F9F7B8F9DA
:109D1000284670BDC9AF00082DE9F04F2DED028B2C
:109D200093B080460024FE4830F8285000EB8800AD
:109D30004688FC4A527C022A14D1EA1705EB52727B
:109D4000D210A5EBC20232B9F21706EB5272D21052
:109D5000A6EBC20232B14FF0FF3013B0BDEC028B64
:109D6000BDE8F08FEF48407C042807D0ED48407CE8
:109D7000052803D0EB48407C02280ED1B8F1010F32
:109D800008D0B8F1040F05D0B8F10C0F02D0B8F12B
:109D90000D0F02D14FF0FF30DFE7B8F1070F02D10E
:109DA0004FF0FF30D9E7B5F5226F02DCB6F5F36F5F
:109DB00002DD4FF0FF30D0E7DB4B19882A46914295
:109DC00001DD0B4600E013461846D74A1080D74BFA
:109DD00019883246914201DD0B4600E013461846D1
:109DE000D24A1080D0490988C1F5226000EBD071B9
:109DF0004FEA610B11460988C1F5F36000EBD071A1
:109E000049101191DFF828E3BEF90030DC466345C4
:109E100001DA9E4600E0E64672461046CBF10001AC
:109E2000884201DD024600E00A460492049800B22E
:109E3000BF490880DFF8FCE2BEF90030DDF844C01D
:109E4000634501DA9E4600E0E646704601461198F9
:109E50004242914201DD084600E010460490049819
:109E600000B2B44908800027AF4A118801EBD172D3
:109E70005210AA4206DBAD4A108800EBD072521095
:109E8000B24201DA012700E00227A748008810301B
:109E90001FFA80F9A548008808301FFA80FAC9F532
:109EA00022634FEAE37C03EB9C7C4FEAAC0EDFF8C5
:109EB00080C2BCF900C0CDF804C00CEBDC7C0EEB1A
:109EC0006C0C4FEA4C0CCDF80CC0C9F52263029320
:109ED000DDE902C3634501DA039B00E0029B1A46F9
:109EE00010466FF00701884201DD024600E00A4695
:109EF00004920498103080B2109010984844401E8C
:109F000080B20F90CAF5F3634FEAE37C03EB9C7CCD
:109F10004FEAAC0EDFF81CC2BCF900C0CDF804C09B
:109F20000CEBDC7CAEEB6C0C4FEA4C0CCDF80CC0AF
:109F3000CAF5F3630293DDE902C3634501DA039BCB
:109F400000E0029B1A4610466FF00301884201DDD3
:109F5000024600E00A4604920498801D80B20E90EA
:109F60000E985044401E80B20D906F48008890FBC0
:109F7000F7F001EE900AB8EEE12A01EE905AF8EE01
:109F8000611AC2EE212AF0EE620A6848008890FB4E
:109F9000F7F001EE900AB8EEE12A01EE906AF8EED1
:109FA000611AC2EE212AB0EE621A00BF80FEC18A99
:109FB000B0EE480AB0EE408A00EE105AB8EE400A01
:109FC00020EE080ABCEEC00A10EE100A81B20C9115
:109FD00000EE106AB8EE400A20EE080ABCEEC00A95
:109FE00010EE100A81B20B9199FBF7F20C99501AFE
:109FF00000EBD071C1F34F010A919AFBF7F20B9974
:10A00000501A00EBD071C1F34F01099199FBF7F0A1
:10A01000494908802846FFF7CDFB80B208909AFB9B
:10A02000F7F080B20490FFF703FC80B207900120A4
:10A03000C0EB4700012101EB001080B20690012027
:10A04000C0EB470001EB001080B2059010980112A0
:10A050004FF46050FFF706FE04431098C1B243F678
:10A060000100FFF7FFFD04430E98011243F60200C2
:10A07000FFF7F8FD04430E98C1B243F60300FFF763
:10A08000F1FD04430F98011243F60400FFF7EAFDC7
:10A0900004430F98C1B243F60500FFF7E3FD044304
:10A0A0000D98011243F60600FFF7DCFD04430D98FE
:10A0B000C1B243F60700FFF7D5FD0443291243F66A
:10A0C0000800FFF7CFFD0443E9B243F60900FFF7AC
:10A0D000C9FD0443311243F60A00FFF7C3FD0443F0
:10A0E000F1B243F60B00FFF7BDFD044308980112DF
:10A0F00043F60C00FFF7B6FD04430898C1B243F6DF
:10A100000D00FFF7AFFD04430798011243F60E0060
:10A11000FFF7A8FD04430798C1B243F60F000DE016
:10A12000FCA800080CA300242A0000242C00002412
:10A13000260000242800002424000024FFF792FDBC
:10A1400004430A98011243F61000FFF78BFD044305
:10A150000A98C1B243F61100FFF784FD0443099841
:10A16000011243F61200FFF77DFD04430998C1B2C6
:10A1700043F61300FFF776FD04430698C1B243F699
:10A180001400FFF76FFD04430598C1B243F61500B4
:10A19000FFF768FD044312A943F62000FFF756FDC0
:10A1A00004439DF8480000F0FE00012F01DD01226C
:10A1B00000E0002240EA020143F62000FFF752FDD2
:10A1C000044312A943F62100FFF740FD04439DF824
:10A1D000480000F0FE00012F01DD012200E0002216
:10A1E00040EA020143F62100FFF73CFD0443291237
:10A1F00044F20260FFF736FD0443E9B244F2036023
:10A20000FFF730FD0443311244F20460FFF72AFDEA
:10A210000443F1B244F20560FFF724FD04432046F5
:10A220009BE538B50546694643F62100FFF70EFD6C
:10A2300004464DB19DF8000040F0060143F62100B0
:10A24000FFF710FD044308E09DF8000000F0F9015D
:10A2500043F62100FFF706FD0443204638BD000009
:10A26000F8B505460024022D1AD16E4A127C6E4BB9
:10A2700033F82210CA1701EB5272D210A1EBC202BE
:10A280005AB9684A127C03EB82025088C21700EB6D
:10A290005272D210A0EBC20212B14FF0FF30F8BDE3
:10A2A000042D03D0052D01D0022D12D15D48007C74
:10A2B00001280BD05B48007C042807D05948007C5B
:10A2C0000C2803D05748007C0D2802D14FF0FF30F6
:10A2D000E5E7062D45D2DFE805F04410371D032AD7
:10A2E00010214FF48640FFF7BDFC0443002145F2E6
:10A2F0001F00FFF7B7FC044336E061214FF48640AE
:10A30000FFF7B0FC0443012145F21F00FFF7AAFC50
:10A31000044329E030214FF48640FFF7A3FC0443B7
:10A32000002145F21F00FFF79DFC04431CE00021C3
:10A330004FF48640FFF796FC0443012145F21F00CD
:10A34000FFF790FC04430FE030214FF48640FFF705
:10A3500089FC0443002145F21F00FFF783FC0443FE
:10A3600002E04FF0FF309AE700BF694643F6210054
:10A37000FFF76CFC04439DF8000000F0DF00022DA5
:10A3800001D1202200E0002240EA020143F6210030
:10A39000FFF768FC0443694643F20200FFF756FCEE
:10A3A00004439DF8000000F0E300022D01D10022DB
:10A3B00000E01C2240EA020143F20200FFF752FCD7
:10A3C0000443694643F20600FFF740FC04439DF84E
:10A3D000000000F0D700022D01D1282200E0002269
:10A3E00040EA020143F20600FFF73CFC04430F4839
:10A3F0000088A0B10B49097C0B4A32F82100FFF715
:10A40000D9F986B2311243F60C00FFF72BFC044356
:10A41000F1B243F60D00FFF725FC044300BF2046D0
:10A420003DE700000CA30024FCA800082400002441
:10A4300038B50546694643F62000FFF707FC044699
:10A440004DB99DF8000040F0060143F62000FFF7EB
:10A4500009FC044308E09DF8000000F0F90143F610
:10A460002000FFF7FFFB0443204638BD70B50446CB
:10A470000D462A4621460248F6F79CF8C0B270BD48
:10A480000CA3002413B5044601AA21460248F6F79E
:10A49000C2F800201CBD00000CA3002410B5044627
:10A4A00000F016F809480474012008494874487CF3
:10A4B00000F0FFF80549087C00F02EF8012000F0BC
:10A4C000E3F8012000F034F9012010BD0CA30024B2
:10A4D00070B580211220FFF7D5FF05460220F8F75E
:10A4E000CFFD00240AE00B4A02EB44025178094AEE
:10A4F00012F81400FFF7C6FF0543641C054810F866
:10A5000014000028EFD14FF49670F8F7B9FD2846F3
:10A5100070BD000039AF00082DE9FC4781460025D9
:10A52000584830F8296000EB89004788B6F5207F4D
:10A5300002DCB7F5F07F03DD4FF0FF30BDE8FC87AC
:10A54000C6F387012920FFF79DFF0543C7F34701A5
:10A550002C20FFF797FF054307F00102304662F316
:10A560009F0001462A20FFF78DFF054301A90C201B
:10A57000FFF77CFF05439DF804004FEAD01801A9BE
:10A580003220FFF773FF05439DF8040000F0BF0081
:10A59000B8F1000F01D0402200E0002240EA0201A1
:10A5A0003220FFF76FFF0543B6F5A07F2EDCF02FBA
:10A5B0002CDC69461220FFF759FF04469DF8000085
:10A5C00000F0BF0040F0400000909DF80010122005
:10A5D000FFF758FF04433F211720FFF753FF0443C1
:10A5E00050211820FFF74EFF0443C8F10301192042
:10A5F000FFF748FF044378211A20FFF743FF044385
:10A60000FF21AC20FFF73EFF044339E069461220EA
:10A61000FFF72CFF04469DF8000000F0BF000090FB
:10A620009DF800101220FFF72DFF0443232117206F
:10A63000FFF728FF0443A0211820FFF723FF04435E
:10A64000C8F107011920FFF71DFF0443F0211A206C
:10A65000FFF718FF0443F321AC20FFF713FF044377
:10A660000021A020FFF70EFF04434021A120FFF7A7
:10A6700009FF04434021A220FFF704FF044300BF69
:10A6800028465BE7FCA8000838B5044669460C205C
:10A69000FFF7ECFE05469DF8000000F0BF0004F057
:10A6A000010240EA82110C20FFF7ECFE0543284628
:10A6B00038BD38B5054669461220FFF7D7FE044677
:10A6C000012D06D0032D10D0042D0FD0052D24D13F
:10A6D00017E09DF8000000F0FC00801C00900021B5
:10A6E0006720FFF7CFFE04431AE000BF9DF800008B
:10A6F00000F0FC00009000216720FFF7C3FE044338
:10A700000EE09DF8000000F0FC00401C00900221CB
:10A710006720FFF7B7FE044302E04FF0FF3038BD7B
:10A7200000BF9DF800101220FFF7ACFE2043F6E7B3
:10A7300038B5054669460C20FFF798FE044605F03B
:10A7400001029DF8000062F3DF1001460C20FFF7C4
:10A7500099FE04430349087CFFF7DEFE04432046CC
:10A7600038BD00000CA3002410B56420F8F788FC65
:10A770000121FF20FDF726F880211220FDF722F8A5
:10A780000520F8F77DFC044800F098F81E20F8F743
:10A7900077FC002010BD0000ABAB000870B505468B
:10A7A0000121FF20FDF70EF80420FCF7FFFF04460F
:10A7B00015B944F0800401E024F08004214604200F
:10A7C000FDF700F870BD000010B504460021FF2021
:10A7D000FCF7F8FF01210520FCF7F4FF012C04D061
:10A7E000022C06D0032C0CD107E00F4800F066F8CD
:10A7F00012E00E4800F062F80EE00D4800F05EF83E
:10A800000AE00021FF20FCF7DDFF00210520FCF716
:10A81000D9FF4FF0FF3010BD00BF0649087CFEF79E
:10A820005BFF0020F7E700008FA900089DA9000842
:10A83000ABA900080CA3002470B505460121FF2038
:10A84000FCF7C0FF0420FCF7B1FF044615B944F043
:10A85000500401E024F0500421460420FCF7B2FF2C
:10A8600070BD70B504460D461646324629466368EB
:10A870002069984770BD70B504460D4616463246AD
:10A880002946D4E90330984770BD70B504460D469B
:10A89000164632462946A3682069984770BD2DE9BF
:10A8A000F04104460D4616461F463B4632462946B1
:10A8B000D4F800C02069E047BDE8F08170B50446D7
:10A8C000002508E004EB4500421C14F8151004486C
:10A8D000F5F7A1FE6D1C14F815000028F2D170BD2B
:10A8E0000CA300240006101600061016000000003D
:10A8F0000102030401020304060708090000000026
:10A9000058004800B00090006001200158003C0051
:10A91000B00078006001F00028001E0050003C00EC
:10A92000A00078004001F0008002E0013C00280017
:10A9300078005000F000A000E0014001400020003D
:10A940004000400080004000800080008000A000A7
:10A950008000A000D002E001F002E00120035802D4
:10A9600000040003000500044006B0040005D00206
:10A97000800738040005C003200A9807030609125F
:10A980000A0B0F1718191A1B00000000000000FF27
:10A9900000E004DA08D703E177E0000000FF00E000
:10A9A00004DA18D703E177E0000000FF00E004DAE2
:10A9B00000D70333A0E51FE167E00000007C7D7C49
:10A9C0007D7D000409000000040910000004092036
:10A9D00000000409300000040940007C7D7C7D7D7E
:10A9E0007D7D00040720183406000407201C2A0679
:10A9F0000004072020200600040720241606000477
:10AA00000720280C067C7D7C7D7D00020328280021
:10AA10000203383800020348480002035858000275
:10AA200003686800808018A0401840C01880801813
:10AA300040A64080801850505880800080805E4141
:10AA4000545E415452416665414F423F71FF002CB4
:10AA5000FF2EDFFF013C321180090104F813E514D9
:10AA6000482C0C33783A333BFB3E00431116103927
:10AA7000023588220A3740230034A00602068807E0
:10AA8000C00DB70E014C004A81219924402538267B
:10AA9000825C00630046220C3A5D555E7D5F7D60FE
:10AAA00055617062807C05208028306C006D806E5E
:10AAB000007002719473C13D3412045A574E004F16
:10AAC000BB509CFF00E57FF9C04124E01476FF33C2
:10AAD000A0422043184C0087D0883FD703D910D319
:10AAE00082C808C9807C007D007C037D487D487C4D
:10AAF000087D207D107D0E9000910E911A9131916C
:10AB00005A91699175917E9188918F919691A391B7
:10AB1000AF91C491D791E891209200930693E3936B
:10AB20000393039300930293009300930093009385
:10AB300000930093009600970897199702970C9737
:10AB40002497309728972697029798978097009791
:10AB500000A400A800C511C651BF80C710B666B8D2
:10AB6000A5B764B97CB3AFB497B5FFB0C5B194B223
:10AB70000FC45CA600A720A7D8A71BA731A700A7D2
:10AB800018A720A7D8A719A731A700A718A720A7FB
:10AB9000D8A719A731A700A7187F00E51FE177DD27
:10ABA0007FC20EFF010F4B038F0000FF011280FFD9
:10ABB000002CFF2EDFFF013C321100090204D813E4
:10ABC000E514482C0C33783A333BFB3E0043111616
:10ABD00010399235DA221A37C3230034C0361A06E8
:10ABE0008807C00D870E414C0048005B0042034AB5
:10ABF0008121992440253826825C00630046220C7E
:10AC00003C617062807C05208028306C006D806E15
:10AC1000007002719473C13D345A571240171118D5
:10AC20004319001A4B320937C04FCA50A85A236D36
:10AC3000003D38FF00E57FF9C04124E01476FF3382
:10AC4000A0422043184C0087D5883FD703D910D3A2
:10AC500082C808C9807C007D007C037D487D487CDB
:10AC6000087D207D107D0E9000910E911A913191FA
:10AC70005A91699175917E9188918F919691A39146
:10AC8000AF91C491D791E891209200930693E393FA
:10AC9000059305930093049300930093009300930E
:10ACA00000930093009600970897199702970C97C6
:10ACB0002497309728972697029798978097009720
:10ACC00000C3EDA400A800C511C651BF80C710B6CF
:10ACD00066B8A5B764B97CB3AFB497B5FFB0C5B1DA
:10ACE00094B20FC45CC064C14B8C00863D500051CF
:10ACF000C852965300540055005AC85B965C00D366
:10AD000002C3ED7F00DA08E51FE167E000DD7F05A3
:10AD100000FF00E0045A505B3C5C00E0000000FFD4
:10AD2000011240030F32091711184319001A4B3D45
:10AD30003835DA221A37C334C006880D870E4142EF
:10AD400003FF000501E004C064C14B8C00530054B4
:10AD50000051C8529655005700863D5080D380055B
:10AD600000E0000000FF011200030F323617111837
:10AD70007519011A973D343588220A374034A006E8
:10AD8000020DB70E014283FF000501E004C0C8C1F7
:10AD9000968C00530054005190522C5588570086D1
:10ADA0003D5080D3840500E0000000171118613287
:10ADB0008019031A7B0300FFFF3E19721173F1170C
:10ADC000161804322419021A7A030AFFFF3E1A7277
:10ADD0002273F21716180432A419021A7A030AFF12
:10ADE000FF12008C00040040C014184F80508051A6
:10ADF000005222535E54803DC0FFFF12048C0004B9
:10AE00000040D0146A4FB350B35100523D53A75481
:10AE1000E43D40FFFF12013D08413D76E1FFFF3A6E
:10AE20000412001713180132B619021A7A030A0C19
:10AE3000003E0015027A207B107C1E7D357E5A7FF5
:10AE400069807681808288838F849685A386AF8788
:10AE5000C488D789E813E0000010000D401418A53D
:10AE600005AB072495253326E39F78A068A103A6A8
:10AE7000D8A7D8A8F0A990AA9413E5300031000E05
:10AE8000610F4B16021E30210222912907330B3528
:10AE90000B371D3871392A3C784D404E20690074BB
:10AEA000108D4F8E008F009000910096009A00B098
:10AEB00084B10CB20EB382B80A430A44F04534465A
:10AEC000584728483A59885A885B445C675D495E10
:10AED0000E6C0A6D556E116F9F6A4001400240135F
:10AEE000E74F80508051005222535E5480589E3468
:10AEF000113B12A48296009730982099309A849B37
:10AF0000299C039D4C9E3F78047901C8F0790FC8B5
:10AF1000007910C87E790AC880790BC801790CC8FD
:10AF20000F790DC8207909C8807902C8C07903C893
:10AF3000407905C8307926FFFF3D03172218A41970
:10AF4000071AF0320029A02CF02A001181427F4D0F
:10AF50000963E064FF652F66006748150213F00D72
:10AF6000400FC51411227F23032440253026A12B36
:10AF7000006BAA13FF900591019203930094B09582
:10AF80009D96139716987B99919A1E9B089C209EDC
:10AF900081A6067E0C7F16802A814E8261836F8493
:10AFA0007B8586868E879788A489AF8AC58BD78C48
:10AFB000E88D203300227F23034A1049104B144CA4
:10AFC0001746010EF51204000047402140506E4024
:10AFD000518F3008423103033017FF3018FF302CF7
:10AFE0000231080136302E3632E23633233621E084
:10AFF0003704A037035A371578371701370B6037F6
:10B00000051A39050239061039010A37311236009E
:10B0100008360133302D60362052371B20471C5034
:10B020003A18003A19F836351C3634403622013CBD
:10B0300004283C05983C06003C07083C08003C09F5
:10B040001C3C0A9C3C0B403820473821013800004A
:10B0500038010038020038030438040A38053F3844
:10B06000060738079B380805380900380A03380BEB
:10B07000C038100038111038120038130638143157
:10B0800038153130341A30351130366430371330DA
:10B090003800303900380C07380D68380E03380F87
:10B0A000D83C01B43C00043A08003A09933A0E0631
:10B0B0003A0A003A0B7B3A0D083A00383A02053A50
:10B0C00003C43A14053A15C4361800361229370855
:10B0D00064370952370C034001024004023000007B
:10B0E00030021C3004FF3006C3300E58302E0043AF
:10B0F0000030501F00471304440704460B35460C2C
:10B10000223824025001A3340601340006340180A1
:10B110003402043403003404063405005180FF5126
:10B1200081F2518200518314518425518524518626
:10B1300016518716518816518962518A62518BF0D7
:10B14000518CB2518D50518E30518F3051905051A1
:10B1500091F85192045193705194F05195F0519699
:10B1600003519701519804519912519A04519B002F
:10B17000519C06519D82519E3853811E53825B53D0
:10B18000831453840653858253868853877C53885F
:10B190006053891C538A01538B9853000853013024
:10B1A00053023F53031053040853053053061853FA
:10B1B0000728530908530A30530B04530C065480D4
:10B1C0000154810654821254832454844A5485586D
:10B1D00054866554877254887D548988548A925461
:10B1E0008BA3548CB2548DC8548EDD548FF0549080
:10B1F00015558006558340558420558910558A0081
:10B20000558BF85000A758002058011958021758BC
:10B21000031658041858052158060F58070A5808ED
:10B2200007580907580A0A580B0C580C0A580D03FE
:10B23000580E01580F0158100358110958120A5896
:10B2400013035814015815015816035817085818B5
:10B250001058190A581A06581B06581C08581D0E73
:10B26000581E22581F1858201358211258221658B9
:10B27000231E58246458252A58262C58272A582833
:10B280004658292A582A26582B24582C26582D2A25
:10B29000582E28582F4258304058314258320858BA
:10B2A000332858342658352458362658372A5838E3
:10B2B0004458394A583A2C583B2A583C46583DCEB7
:10B2C000568822568922568A42568B24568C4256DC
:10B2D0008D24568E22568F225025003A0F303A1078
:10B2E000283A1B303A1E283A11613A1F1040051ABD
:10B2F0003406003503003008023A02073A03AE3A3A
:10B3000008013A09273A0A003A0BF63A0E063A0DB6
:10B31000083A14073A15AE44010D47230300000014
:10B3200000000000000000000040000030C00100EC
:10B33000E0E00100C0E10000C061001880F1FF3FC3
:10B3400000700018003E001804DA01181CEE011805
:10B35000386F601878F7FF1870318618B019061822
:10B360008009061880058619C0FEFF1BC000061A5A
:10B37000C0306618E070E6197C30E6187030E618C8
:10B380006030E61870F8FF1C7030E01C7000001C84
:10B390007000F01F7000800F000000070000000028
:10B3A000000000000000000000008000000EC0014E
:10B3B00000FEFF03000EC001000EC001000EC00120
:10B3C00000FEFF01000EC001000EC001000EC00112
:10B3D00000FEFF01000EC00100064000000000005A
:10B3E00030700C18F0FFFC3F70700C1870700C1867
:10B3F00070700C1870700C18F07FFC1F70700C18B7
:10B4000070700C1870700C1870700C1870700C182C
:10B41000F07FFC1F70700C1810000400000000008A
:10B42000000000000000000000003000000070007C
:10B43000001C7000FC1F7000008C7100208C7700D5
:10B44000E08C7304F08E731E708EF31F708EFB0CF5
:10B45000708E7F0C70FE730C3086730C3086730C0C
:10B460003096730CF8BF730C38F8730C00B8730C7B
:10B4700000B8F30F00BE7306E09B73307E98733004
:10B480001C981330089C0330009C0330008C037818
:10B49000E00FFF7F800700000003000000000000B5
:10B4A000800080008000FC1F40004000FF7F2000E3
:10B4B0001000F00F00080004600280010002000488
:10B4C000000104020800E83F010202020202080231
:10B4D000C83F04020702040204020402F47F0000D1
:10B4E0000000F80F08080808F80F08080808F80F07
:10B4F0002002222224222812280A2002FF7F000094
:10B500000000FC1F0000000000000000FF7F800022
:10B51000800088088810842082408140A00040007C
:10B52000400080008000FF7F200020002000E00F0E
:10B530002008200820081008100808080405020246
:10B540008000FE3F02202000FF7F10047802C0032D
:10B550003C1C8000FF7FA00290048C188360800058
:10B56000FFFFFFFFFFFFFFFFFFFFFFFFFFFFFFFFEB
:10B57000FFFFFFFFFFFFFFFFFFFFFFFFBEF77DEFB6
:10B58000BAD6B6B5F39CB294B39CB29434A5F7BDC9
:10B59000FBDE7DEFFFFFFFFFFFFFFFFFFFFFFFFF72
:10B5A000FFFFFFFFFFFFFFFFFFFFFFFFFFFFFFFFAB
:10B5B000FFFFFFFFFFFFFFFFFFFFFFFFFFFFFFFF9B
:10B5C000FFFFFFFFFFFFFFFFBEF7FBDEF39CCB5A41
:10B5D000C7390421821042104210410883184529BE
:10B5E000C7390C6375AD3CE7BEF7FFFFFFFFFFFFF8
:10B5F000FFFFFFFFFFFFFFFFFFFFFFFFFFFFFFFF5B
:10B60000FFFFFFFFFFFFFFFFFFFFFFFFFFFFFFFF4A
:10B61000FFFFFFFFFFFF3CE7B2940842C318821010
:10B620000421452986318631863186314529042118
:10B6300082104108C3180842F39C3CE7FFFFFFFF5C
:10B64000FFFFFFFFFFFFFFFFFFFFFFFFFFFFFFFF0A
:10B65000FFFFFFFFFFFFFFFFFFFFFFFFFFFFFFFFFA
:10B66000FFFFFFFFFBDE0C63C318C3184529C73972
:10B67000084208420842084208420842C739C7390E
:10B6800086318631042141088210CB5ABAD6FFFF99
:10B69000FFFFFFFFFFFFFFFFFFFFFFFFFFFFFFFFBA
:10B6A000FFFFFFFFFFFFFFFFFFFFFFFFFFFFFFFFAA
:10B6B000FFFFFBDECB5A82104529C73908420842FA
:10B6C000094A494A494A494A494A494A0842C739FE
:10B6D000C739C7398631452983180000C84138C6A3
:10B6E000FFFFFFFFFFFFFFFFFFFFFFFFFFFFFFFF6A
:10B6F000FFFFFFFFFFFFFFFFFFFFFFFFFFFFFFFF5A
:10B700007DEF8E7382104529C7390842094A8A5253
:10B710003084CF7B8A52494A4A52494ACB5ACF7B1E
:10B720000C630842C73986314529C3180000494ACD
:10B73000BAD6FFFFFFFFFFFFFFFFFFFFFFFFFFFF87
:10B74000FFFFFFFFFFFFFFFFFFFFFFFFFFFFFFFF09
:10B75000F39CC3180421C7390842494A494A7294E4
:10B760007DEF7DEFB2944A52494A8A5275ADBEF7D9
:10B77000BAD64D6BC739C73986314529C318410838
:10B78000CF7B7CE7FFFFFFFFFFFFFFFFFFFFFFFF18
:10B79000FFFFFFFFFFFFFFFFFFFFFFFFFFFFBAD627
:10B7A00008428210C7390842494A494A8E73FBDE73
:10B7B000FFFFBEF7BAD68E73084230843CE77DEFB8
:10B7C000FFFFB6B5494AC7398631452904214108EA
:10B7D0004529B6B5FFFFFFFFFFFFFFFFFFFFFFFF9C
:10B7E000FFFFFFFFFFFFFFFFFFFFFFFFBEF7718CB3
:10B7F000410845290842494A494A4A52B294BEF78B
:10B80000BEF7B294CF7BCF7B494AB6B5F39C0C63AD
:10B8100038C6BAD60C638739C73986314529C3186B
:10B82000410830847DEFFFFFFFFFFFFFFFFFFFFFB9
:10B83000FFFFFFFFFFFFFFFFFFFFFFFF3CE7CB5ACC
:10B840004108C7390842494A4A528A52F39CFFFFCD
:10B850007DEFC739C3180C63CB5AB6B5B294CB5A37
:10B8600075ADFAD64D6B8739C73986314529042124
:10B8700041088A5279CEFFFFFFFFFFFFFFFFFFFF66
:10B88000FFFFFFFFFFFFFFFFFFFFFFFF38C686310F
:10B890000421C841494A494A4A52494AB18CBEF733
:10B8A000BEF7B294CF7BCF7B494A74A57DEF7CE78E
:10B8B000BEF779CE0C63C739C739863145290421D3
:10B8C0008210452975ADBEF7FFFFFFFFFFFFFFFFA9
:10B8D000FFFFFFFFFFFFFFFFFFFFFFFF34A5821009
:10B8E00086310842494A494A8A52494A4D6BBAD67A
:10B8F000FFFFFFFF79CE0D63C739CF7B7DEFFFFFE1
:10B90000FFFF75AD08428631C73986314529452983
:10B91000C318C318B2947DEFFFFFFFFFFFFFFFFFC7
:10B92000FFFFFFFFFFFFFFFFFFFFBEF7B28C4108E5
:10B93000C7390842494A494A8A528A524A4AD07B00
:10B940007AC67BBE906BC9398831C939B384BBC60E
:10B95000F8B5CC5A8631C739C739863145294529CA
:10B96000C420410830843CE7FFFFFFFFFFFFFFFFDB
:10B97000FFFFFFFFFFFFFFFFFFFF3CE78A4AC31007
:10B98000C7390842494A494A4A4A4A42093A084A92
:10B99000096B497BC67A05834683C57AC672097BE3
:10B9A000485A873188218829863186314529452999
:10B9B000042141084A4ABAD6FFFFFFFFFFFFFFFFFD
:10B9C000FFFFFFFFFFFFFFFFFFFFF7C582500541AD
:10B9D000C7290842494A4A42494A097B889BC6B35B
:10B9E00021D4A0DCE1E461ED61ED21EDA0E420DCF7
:10B9F00080CB43ABC482065A4721462945290429F6
:10BA0000041982108218F39C7DEFFFFFFFFFFFFFF8
:10BA1000FFFFFFFFFFFFFFFF7DEF4D9300A082B808
:10BA2000C7310932494A867A43C36BEDF4F6EBFD20
:10BA300020FD20FD60FDA0FDA0FD60FD60FD20FD5E
:10BA4000E0FCA0FC60F4C1DB839AC54945290419D8
:10BA5000C42082380050CB6ABAD6FFFFFFFFFFFF39
:10BA6000FFFFFFFFFFFFFFFFFBEE04A100C000F0A0
:10BA7000C3A0C8414942059B20FCA4FC69FDE8FD28
:10BA800063FD20FD60FD60FD60FD20FD20FDE0FC0C
:10BA9000E0FCA0FC60FC20FC41D3C5494519C4383A
:10BAA000826841880070495A79CEFFFFFFFFFFFF8F
:10BAB000FFFFFFFFFFFFFFFFFBF682C000D086C144
:10BAC00046F141C8457989528862866AC67AC4BB04
:10BAD000E1FC60FD60FDA0FDA0FD60FD60FDE0FCFF
:10BAE00060E403938472446AC5414529C35841A860
:10BAF000409800B000600C6B79CEFFFFFFFFFFFFA6
:10BB0000FFFFFFFFFFFF7DEFCE83828800F8C4D8E0
:10BB10000CF38AFA82E882B04569C7510842083AB4
:10BB2000865A839BA2BC22CD21CDA1C422B4C47A63
:10BB3000063A862945290531C450419000C000A825
:10BB400000A000A800304A4ABAD6FFFFFFFFFFFF5F
:10BB5000FFFFFFFF7DEF8E73C318053982A800F841
:10BB6000C3F84DFB4DFBC7F9C3F082D8C3B00481C5
:10BB700045614651864986494641454145414541D1
:10BB800005490461829041B000D000C800A800A817
:10BB900000B8415882108210B294BEF7FFFFFFFF39
:10BBA000FFFFBEF7CF7B82100421862986410499CE
:10BBB00040E841F886F9CBFA49FA82F800F800F03B
:10BBC00000E841D841D041C041C041C041C041C856
:10BBD00000D000E000E000D800D000B800A8418804
:10BBE0008248821082100000452979CEFFFFFFFFB6
:10BBF000BEF7F39C8210C31845298631C731307CCB
:10BC0000F3DC86E100F000F841F841F800F800F8B4
:10BC100000F800F800F800F800F800F800F800F864
:10BC200000E800E000E000D800C841A08A9A0C6358
:10BC3000041182108210410800004D6B7DEFFFFF60
:10BC4000FBDE08424210452986318631494A38BE1A
:10BC5000FFFF38D686A900C800E000F000F800F821
:10BC600000F800F800F800F800F800F800F000F024
:10BC700000E800E000D0C3988A8AB2A4BAC6F7B53B
:10BC8000084241088210410800004529F7BDFFFF26
:10BC9000718C410804214529863186310C633CE7CB
:10BCA000FFFF79D646B900E042C882A882B041D8E9
:10BCB00082E882F041E841E841E841F041E841D8BA
:10BCC00004C108924D8B34A5FBC6FBD6BACE3CE727
:10BCD0003084C3184108410800004108CF7B7DEF44
:10BCE000494A000004214529463186313084FFFF4E
:10BCF000FFF7F7DD09DA83F801F042C08298499A2C
:10BD0000F3B4F3CC71BC8EBB8EBB30BC71BCF3BC46
:10BD1000B6BDFBCEBEE77DE73BDFBAD679CEFBDE14
:10BD200075AD86314108410800000000494AFBDE3C
:10BD3000042141080421452945298739B294FFFF90
:10BD4000BEF734DD0CEB09FA00F001D800D88BD235
:10BD50007DE7FFFFFFFFFFFFFFFFFFFFFFFFFFFF8D
:10BD6000FFFFBEFF7DEFFBDEFBDEBAD679CEBAD693
:10BD700078C6C7390000410800000000C73979CEF5
:10BD800000008210C318042105298631B39CFFFFEF
:10BD9000FFF775DDC7E9C7F901F801F000E849E2EE
:10BDA000FBEEFFFFFFFFFFFFFFFFFFFFFFFFFFFFB8
:10BDB000FFFFBEF77DEFFBDEFBDEBAD679CEBAD64B
:10BDC000B9CE08420000000000000000C73938C6A4
:10BDD0000000821082100421042145293084FFFFD5
:10BDE000FFFF38DEC4D000F001F800F800F008D200
:10BDF000FBE6FFFFFFFFFFFFFFFFFFFFFFFFFFFF70
:10BE0000FFFFBEF77DEFFBDEBAD679CE79CEBAD68C
:10BE100079CEC7394108000000000000863138C6DD
:10BE200000000000C318CB5A8631C318CB5A7DEFEF
:10BE3000FFFF7DEFCFBBC3B041D041D082B84DB33F
:10BE40007DE7FFFFFFFFFFFFFFFFFFFFFFFFFFFF9C
:10BE5000BEF7BEF73DEFFBDEBAD679CE79CEFAD685
:10BE6000F7BD04218631042100000000863138C668
:10BE70008631C318CB5A75ADCF7B41088631F7BDEB
:10BE8000FFFFFFFFBEEF74B5309C309C72A4BBD6A1
:10BE9000FFFFFFFFFFFFFFFFFFFFFFFFFFFFFFFFB2
:10BEA000BEF77DEF3CE7FBDEBAD679CE79CE3CE734
:10BEB000718C81080C63CF7B821000008A5238C6D7
:10BEC00075AD718CB6B53CE7FBDEC7390000CF73AA
:10BED000FFFFFFFFFFFFFFFFFFFFFFFFFFFFFFFF72
:10BEE000FFFFFFFFFFFFFFFFFFFFFFFFFFFFBEF7AB
:10BEF0007DEF7DEF3BDFFAD679CE79CEFBDEB9CE92
:10BF0000C739C420718CBAD6718CCB5AB294BAD6C8
:10BF1000FFFF7DEF7DEFFFFFFFFFB6B54629051957
:10BF200075A5FFFFFFFFFFFFFFFFFFFFFFFFFFFF05
:10BF3000FFFFFFFFFFFFFFFFFFFFFFFFFFFFBEF75A
:10BF40007DEF3CE7FBDEBAD679CEBAD6FCDE4E6397
:10BF500042080C63F7BDBEF7FFFFFBDEFBDEBEF75A
:10BF6000FFFFFFFFFFFFFFFFFFFFFFFFF49C042128
:10BF70000521B6A5FFFFFFFFFFFFFFFFFFFFFFFF4C
:10BF8000FFFFFFFFFFFFFFFFFFFFBEF7BEF77DEFE5
:10BF90003CE7FBDEBAD679CEFBDEBBD6D173831885
:10BFA0008639349DBDEFFFFFFFFFFFFFFFFFFFFF5F
:10BFB000FFFFFFFFFFFFFFFFBEFF35D6EBCC43B314
:10BFC00040510519F58CBEEFFFFFFFFFFFFFFFFF9C
:10BFD000FFFFFFFFFFFFBEF7BEF77DEF7DEF3CE702
:10BFE000FBDEBADEBAD63CDF3ABE4F63824940A3DD
:10BFF00023B4CC833ABEFFFFFFFFFFFFFFFFFFFF2D
:10C00000FFFFFFFFFFFFBFF7B5BD829220F4A0FC4A
:10C0100060E4408284418F6B77AD3DE7FFFFFFFF17
:10C02000FEFFBEF7BEF7BEF77DEF7DEF3CE7FBDE20
:10C03000FBDE3DE7BBCE369D0B6B416A60C420FE44
:10C0400060F5008BC76A38C6BEF7FFFFFFFFFFFF32
:10C05000FFFFFFFFFFFF7DEF4B7B80B2A0FCA0FC4A
:10C06000E0FCE0FCC0CBC18A45624D6BB394F7BDE8
:10C070003DDFFFF7FFFFBEF77DEF7DEF7DE73DDFA3
:10C08000BAC675A58D7B847A40B3E0ECE0FDE0FD97
:10C0900060F520E5A0D40A6BFBDEFFFFFFFFFFFF8A
:10C0A000FFFFFFFFFFFF7DEFCC9340EB60FCA0FCA8
:10C0B000E0FC20FD60FD20F5A0D4C0BB429B458B79
:10C0C0006B9CAE9C718CB394339D34A5F2A4F0B4F8
:10C0D000CA9B049B40BB20E420FDA0FDA0FDE0FD29
:10C0E000E0FDE0FD20C4885A38BEFFFFFFFFFFFFE0
:10C0F000FFFFFFFFFFFFFFFF78D646AB40DB20F4DA
:10C1000060FCA0FCE0FC60FDA0FD60FD20F5A0DC73
:10C11000C0B3C05186290D638F7B0D5BC74101827F
:10C1200000C3C0E360FCA0FCE0FCE0FC60F560F54F
:10C1300020E5809B8662308479CEFFFFFFFFFFFF02
:10C14000FFFFFFFFFFFFFFFFFFFF38C62D9C05939A
:10C1500043A382B3C2BBC2BB22B482A34293C37ABD
:10C1600085620B637184B6B579CE79C6B5AD70942E
:10C170004A8B06830493049B439B439B4393048312
:10C1800008738D73B39479CE7DEFFFFFFFFFFFFF40
:10C19000FFFFFFFFFFFFFFFFFFFFFFFF3CDF38BE9A
:10C1A00075B533A533A5F39CF39CF39CF394F39CF2
:10C1B00035A5F8BDFBDEBEF7FFFFFFFFFFFF7EEFFB
:10C1C000BBD6F8BDB6AD75AD34A5339D349D35A550
:10C1D000B7AD79C63CE7BEF7FFFFFFFFFFFFFFFFEC
:10C1E000000000000000000000000000000000004F
:10C1F0003F40000000000000000030004000300020
:10C200004000000009000BC03D000BC03D000900CC
:10C2100018C024407FE0224031800000180024C074
:10C220001B000D803240018003801C4027401C8091
:10C230000740004010006000000000000000000007
:10C240000000000000001F8020404020000040202F
:10C2500020401F8000000000090006001F8006002B
:10C2600009000000040004003F80040004000000F6
:10C270000010006000000000000000000400040046
:10C280000400040004000000000000400000000062
:10C2900000000000002001C006003800400000003F
:10C2A0001F802040204020401F80000000001040E0
:10C2B0003FC000400000000018C021402240244040
:10C2C0001840000010802040244024401B800000C3
:10C2D00002000D0011003FC0014000003C802440DE
:10C2E00024402440238000001F8024402440344008
:10C2F000038000003000200027C03800200000002C
:10C300001B802440244024401B8000001C0022C0CD
:10C31000224022401F800000000000000840000072
:10C3200000000000000000000460000000000000A9
:10C33000000004000A0011002080404009000900AC
:10C3400009000900090000000000404020801100A1
:10C350000A000400180020002340240018000000F8
:10C360001F802040274029401F400000004007C098
:10C3700039000F0001C0004020403FC0244024404D
:10C380001B8000001F8020402040204030800000A3
:10C3900020403FC0204020401F80000020403FC080
:10C3A00024402E4030C0000020403FC024402E00DA
:10C3B000300000000F001080204022403380020037
:10C3C00020403FC0040004003FC0204020402040E7
:10C3D0003FC02040204000000060202020203FC0BF
:10C3E0002000200020403FC024400B0030C02040EF
:10C3F00020403FC020400040004000C03FC03C0003
:10C4000003C03C003FC0000020403FC00C40230060
:10C410003FC020001F802040204020401F8000009F
:10C4200020403FC024402400180000001F8021400D
:10C43000214020E01FA0000020403FC024402600F3
:10C4400019C0004018C02440244022403180000020
:10C45000300020403FC020403000000020003F80DE
:10C46000004000403F80200020003E0001C0070047
:10C4700038002000380007C03C0007C0380000002A
:10C48000204039C0060039C020400000200038405C
:10C4900007C0384020000000304021C0264038400E
:10C4A00020C00000000000007FE04020402000008D
:10C4B000000070000C0003800040000000004020DD
:10C4C00040207FE00000000000002000400020002D
:10C4D00000000000001000100010001000100010FC
:10C4E000000000004000000000000000000002808A
:10C4F0000540054003C0004020003FC00440044008
:10C500000380000000000380044004400640000057
:10C5100000000380044024403FC00040000003802E
:10C520000540054003400000000004401FC02440B7
:10C5300024402000000002E0055005500650042071
:10C5400020403FC00440040003C0004000000440FD
:10C5500027C000400000000000100010041027E079
:10C560000000000020403FC00140070004C004401C
:10C57000204020403FC000400040000007C00400B1
:10C5800007C0040003C00000044007C004400400CA
:10C5900003C000400000038004400440038000000A
:10C5A000041007F0045004400380000000000380E2
:10C5B0000440045007F00010044007C0024004008B
:10C5C00004000000000006400540054004C00000D3
:10C5D000000004001F8004400040000004000780A9
:10C5E0000040044007C000400400070004C0018070
:10C5F00006000400060001C0070001C0060000009C
:10C60000044006C0010006C00440000004100710EA
:10C6100004E00180060004000000044005C006405C
:10C62000044000000000000004007BE04020000007
:10C63000000000000000FFF00000000000004020AB
:10C640007BE004000000000040008000400020006B
:10C65000200040000000000000000000000000007A
:10C66000000000000000000000001FCC000C0000D3
:10C6700000000000000008003000600008003000EA
:10C6800060000000022003FC1E20022003FC1E208C
:10C690000220000000000E1811043FFF10840C78E7
:10C6A000000000000F0010840F3800C007781884C5
:10C6B0000078000000780F8410C411240E9800E464
:10C6C00000840008080068007000000000000000FE
:10C6D0000000000000000000000007E0181820041F
:10C6E00040020000000040022004181807E000008B
:10C6F000000000000240024001800FF00180024073
:10C70000024000000080008000800FF80080008060
:10C71000008000000001000D000E0000000000007D
:10C720000000000000000080008000800080008089
:10C73000008000800000000C000C000000000000E1
:10C7400000000000000000060018006001800600E4
:10C7500018002000000007F0080810041004080862
:10C7600007F000000000080408041FFC0004000497
:10C770000000000000000E0C10141024104411845E
:10C780000E0C000000000C18100411041104128893
:10C790000C700000000000E00320042408241FFCAB
:10C7A0000024000000001F98108411041104108858
:10C7B00010700000000007F00888110411041888A8
:10C7C0000070000000001C00100010FC13001C0092
:10C7D0001000000000000E38114410841084114431
:10C7E0000E38000000000700088C10441044088830
:10C7F00007F00000000000000000030C030C000024
:10C800000000000000000000000101060000000020
:10C810000000000000000080014002200410080811
:10C820001004000002200220022002200220022028
:10C83000022000000000100408080410022001403B
:10C840000080000000000E001200100C106C108020
:10C850000F00000003E00C1813E4142417C4082888
:10C8600007D000000004003C03C41C40074000E463
:10C87000001C000410041FFC1104110411040E8894
:10C880000070000003E00C181004100410041008DD
:10C890001C10000010041FFC1004100410040808F1
:10C8A00007F0000010041FFC1104110417C4100449
:10C8B0000818000010041FFC1104110017C010001C
:10C8C0000800000003E00C181004100410441C7849
:10C8D0000040000010041FFC1084008000801084C1
:10C8E0001FFC10040000100410041FFC10041004AE
:10C8F0000000000000030001100110011FFE1000E5
:10C900001000000010041FFC110403801464181CA4
:10C910001004000010041FFC1004000400040004B4
:10C92000000C000010041FFC1F0000FC1F001FFC77
:10C930001004000010041FFC0C04030000E0101899
:10C940001FFC100007F00808100410041004080869
:10C9500007F0000010041FFC10841080108010806D
:10C960000F00000007F0081810241024101C080AFB
:10C9700007F2000010041FFC1104110011C0113057
:10C980000E0C000400000E1C1104108410841044CE
:10C990001C3800001800100010041FFC10041000C8
:10C9A0001800000010001FF8100400040004100418
:10C9B0001FF8100010001E0011E0001C0070138012
:10C9C0001C0010001FC0103C00E01F0000E0103CE5
:10C9D0001FC000001004180C163401C001C016342A
:10C9E000180C100410001C00130400FC13041C009D
:10C9F000100000000804101C1064108413041C04B0
:10CA0000101800000000000000007FFE40024002FD
:10CA100040020000000030000C0003800060001C99
:10CA20000003000000004002400240027FFE0000C0
:10CA30000000000000000000200040004000400016
:10CA400020000000000100010001000100010001C0
:10CA50000001000100004000400020000000000034
:10CA6000000000000000009801240144014401443A
:10CA700000FC000410001FFC008801040104008871
:10CA8000007000000000007000880104010401042F
:10CA900000880000000000700088010401041108F3
:10CAA0001FFC0004000000F801440144014401445B
:10CAB00000C800000000010401040FFC110411046F
:10CAC00011001800000000D601290129012901C91F
:10CAD0000106000010041FFC008401000100010495
:10CAE00000FC000400000104190419FC0004000407
:10CAF000000000000000000300010101190119FEFF
:10CB00000000000010041FFC0024004001B4010CD0
:10CB1000010400000000100410041FFC00040004C5
:10CB200000000000010401FC0104010001FC0104FB
:10CB3000010000FC010401FC00840100010001046B
:10CB400000FC0004000000F80104010401040104D9
:10CB500000F80000010101FF0085010401040088C4
:10CB6000007000000000007000880104010401054D
:10CB700001FF00010104010401FC00840104010023
:10CB800001800000000000CC0124012401240124C4
:10CB90000198000000000100010007F801040104F1
:10CBA00000000000010001F8000400040004010876
:10CBB00001FC0004010001800170000C0010016004
:10CBC0000180010001F0010C003001C00030010CB7
:10CBD00001F0010000000104018C00740170018C5F
:10CBE00001040000010101810171000E00180160C3
:10CBF0000180010000000184010C01340144018422
:10CC0000010C0000000000000000000001003EFCDC
:10CC1000400240020000000000000000FFFF000092
:10CC2000000000000000400240023EFC0100000045
:10CC30000000000000006000800080004000400014
:10CC400020002000424D42A80000000000004200E9
:10CC500000002800000080000000A8000000010083
:10CC600010000300000000A80000120B0000120BCF
:10CC70000000000000000000000000F80000E007D5
:10CC800000001F0000000000000000000000000085
:10CC90000000000000000000000000000000000094
:10CCA0000000000000000000000000000000000084
:10CCB0000000000000000000000000000000000074
:10CCC0000000000000000000000000000000000064
:10F43000000000000000000000000000242196B53C
:10F440005DEFFFFFFFFFFBDEB29400000000000055
:10F4500000000000000000000000000000000000AC
:10F46000000000000000000000000000000000009C
:10F47000000000000000000000000000000000008C
:10F48000000000000000000000000000000000007C
:10F49000000000000000000000000000000000006C
:10F4A000000000000000000000000000000000005C
:10F4B000000000000000000000000000000000004C
:10F4C000000000000000000000000000000000003C
:10F4D000000000000000000000000000000000002C
:10F4E000000000000000000000000000000000001C
:10F4F000000000000000000000000000000000000C
:10F5000000000000000000000000000000000000FB
:10F5100000000000000000000000000000000000EB
:10F5200000000000000000000000000000000000DB
:10F5300000000000000000000000AA52BEF7FFFF1C
:10F54000BEF796B514A5F7BDBEF75DEFAA52000051
:10F5500000000000000000000000000000000000AB
:10F56000000000000000000000000000000000009B
:10F57000000000000000000000000000000000008B
:10F58000000000000000000000000000000000007B
:10F59000000000000000000000000000000000006B
:10F5A000000000000000000000000000000000005B
:10F5B000000000000000000024212C632C632C6359
:10F5C000000000000000000000000000000000003B
:10F5D000000000000000000000000000000000002B
:10F5E000000000000000000000000000000000001B
:10F5F0000000000000000000E7392C632C63AA52D1
:10F6000000000000000000000000000000000000FA
:10F6100000000000000000000000000000000000EA
:10F62000E7392C632C632C632C632C63E7390000CF
:10F6300000000000000000002421BEF7FFFFBEF71D
:10F64000AA52000000000000E739FBDEBEF7AA5214
:10F6500000000000000000000000000000000000AA
:10F6600000002C632C632C632C63AA520000000062
:10F67000000000000000000000000000000000008A
:10F68000000000000000000000000000000000007A
:10F69000000000000000000000000000000000006A
:10F6A000000000000000000000000000000000005A
:10F6B000FFFFFFFFFFFFFFFFFFFFFFFFFFFFFFFF5A
:10F6C000BAD6000000000000000000005DEFFFFF60
:10F6D000FFFFFFFFFFFFFFFFFFFFF7BD0000000080
:10F6E0000000000000000000000000000000CF7BD0
:10F6F000FFFFFFFFFFFFFFFFFFFFFFFFFFFFFFFF1A
:10F7000014A5000000000000000000000000000040
:10F71000000059CEFFFFFFFFFFFFFFFFFFFFFFFFCE
:10F72000FFFFFFFFFFFFFFFFFFFFFFFFFFFFBAD657
:10F73000242100000000000014A5FFFFFFFF2C6340
:10F74000000000000000000000002421FBDEFBDEC2
:10F7500000000000000000003084FFFFFFFFFFFFFB
:10F76000FFFFFFFFFFFFFFFFFFFFFFFFBEF7F7BD3C
:10F770002C630000000000000000000000000000FA
:10F780000000000000000000000000000000000079
:10F790000000000000000000000000000000000069
:10F7A0000000000000000000000000000000000059
:10F7B0002C6330845DEFFFFFFFFFF7BD000000000A
:10F7C000E73900000000000000000000AA52308469
:10F7D000BEF7FFFFFFFFB2942C63AA5200000000A7
:10F7E00000000000000000000000000000002421D4
:10F7F0002C6314A5BEF7FFFFFFFF3084000000005C
:10F80000E7390000000000000000000000000000D8
:10F810000000E7393084FBDEFFFFFFFF5DEF5DEFA7
:10F82000FFFFFFFF5DEF59CEB2942C63B294FFFF50
:10F83000F7BD0000000000005DEFFFFF5DEF00007E
:10F84000000000000000000000000000AA5296B571
:10F85000000000000000000000000000AA52FFFFAE
:10F86000FFFFFBDE2C632C632C63B294FBDEFFFFF7
:10F87000FFFF59CE2421000000000000000000001E
:10F880000000000000000000000000000000000078
:10F890000000000000000000000000000000000068
:10F8A0000000000000000000000000000000000058
:10F8B00000000000AA52FFFFFFFF5DEF0000000004
:10F8C0000000000000000000000000000000000038
:10F8D0003084FFFFFFFF96B500000000000000002D
:10F8E0000000000000000000000000000000000018
:10F8F00000000000B294FFFFFFFFF7BD0000000012
:10F9000000000000000000000000000000000000F7
:10F9100000000000000024215DEFFFFFBEF724215E
:10F920000000000000000000000000002421FFFF94
:10F93000FFFF000000002421FFFFFFFFF7BD0000D4
:10F9400000000000000000000000000000000000B7
:10F95000000000000000000000000000000059CE80
:10F96000FFFFFFFFE73900000000000000002C63EC
:10F97000BEF7FFFFFBDE24210000000000000000B6
:10F980000000000000000000000000000000000077
:10F990000000000000000000000000000000000067
:10F9A0000000000000000000000000000000000057
:10F9B000000000000000FBDEFFFFFFFF242100002D
:10F9C0000000000000000000000000000000000037
:10F9D0002421FFFFFFFFFBDE00000000000000000D
:10F9E0000000000000000000000000000000000017
:10F9F000000000002421FFFFFFFFFBDE00000000ED
:10FA000000000000000000000000000000000000F6
:10FA10000000000000000000B294FFFFFFFF3084F0
:10FA20000000000000000000000000002C63FFFF49
:10FA3000BEF7000000002C63FFFFFFFF14A50000CD
:10FA400000000000000000000000000000000000B6
:10FA5000000000000000242114A5AA5200003084F8
:10FA6000FFFFFFFFB2940000000000000000000054
:10FA7000AA52BEF7FFFFFBDE0000000000000000FE
:10FA80000000000000000000000000000000000076
:10FA90000000000000000000000000000000000066
:10FAA0000000000000000000000000000000000056
:10FAB000000000000000B294FFFFFFFF3084000050
:10FAC0000000000000000000000000000000000036
:10FAD000000059CEFFFFFFFF2421000000000000BE
:10FAE0000000000000000000000000000000000016
:10FAF000000000000000BAD6FFFFFFFF2421000035
:10FB000000000000000000000000000000000000F5
:10FB10000000000000000000E739FFFFFFFF59CEA2
:10FB20000000000000000000000000000000308421
:10FB3000AA52000000002C63FFFFFFFF14A5000085
:10FB400000000000000000000000000000000000B5
:10FB5000000000000000BAD6FFFFBAD60000242142
:10FB6000FFFFFFFFFBDE00000000000000000000C0
:10FB700000002C63FFFFFFFF14A500000000000041
:10FB80000000000000000000000000000000000075
:10FB90000000000000000000000000000000000065
:10FBA0000000000000000000000000000000000055
:10FBB000000000000000AA52FFFFFFFFF7BD000099
:10FBC0000000000000000000000000000000000035
:10FBD0000000B294FFFFFFFF30840000000000002F
:10FBE0000000000000000000000000000000000015
:10FBF000000000000000B294FFFFFFFF308400000F
:10FC000000000000000000000000000000000000F4
:10FC1000000000000000000000005DEFFFFFFFFF9C
:10FC200000000000000000000000000000000000D4
:10FC3000000000000000AA52FFFFFFFF14A5000013
:10FC400000000000000000000000000000000000B4
:10FC500000000000CF7BFFFFBEF7308400000000F3
:10FC6000BAD6FFFFFFFF24210000000000000000C3
:10FC700000000000F7BDFFFFBEF7242100000000D8
:10FC80000000000000000000000000000000000074
:10FC90000000000000000000000000000000000064
:10FCA0000000000000000000000000000000000054
:10FCB0000000000000000000BEF7FFFF5DEF000045
:10FCC00000000000000000000000FBDEFFFFAA5261
:10FCD0000000AA52FFFFFFFFF7BD00000000000078
:10FCE000AA522421000000000000000000000000D3
:10FCF000000000000000AA52FFFFFFFFF7BD000058
:10FD000000000000000000000000000000000000F3
:10FD100000000000000000000000F7BDFFFFFFFF33
:10FD2000CF7B000000000000000000000000000089
:10FD30000000000000000000FFFFFFFFBAD6000037
:10FD400000000000000000000000000000000000B3
:10FD50000000000014A5FFFF2C630000000000005D
:10FD600014A5FFFFFFFFCF7B000000000000000094
:10FD700000000000CF7BFFFFFFFF30840000000089
:10FD80000000000000000000000000000000000073
:10FD90000000000000000000000000000000000063
:10FDA000000000000000000000003084BAD6CF7BC5
:10FDB0000000000000000000F7BDFFFFFFFFE73973
:10FDC0000000000000000000AA52FFFFFFFFAA523F
:10FDD000000000005DEFFFFFFBDE00000000000000
:10FDE000BAD614A500000000000096B559CEE73938
:10FDF0000000000000000000BEF7FFFF5DEF000004
:10FE000000000000000000000000000000000000F2
:10FE1000000000000000000000003084FFFFFFFF32
:10FE200096B5000000000000000000000000000087
:10FE30000000000000000000BAD6FFFFBEF700007F
:10FE400000000000000000000000000000000000B2
:10FE50000000000059CEFBDE0000000000000000A2
:10FE60002C63FFFFFFFF14A500000000000000004E
:10FE7000000000000000FFFFFFFFF7BD00000000D2
:10FE80000000000000000000000000000000000072
:10FE90000000000000000000000000000000000062
:10FEA000000000000000000000005DEFFFFF14A54F
:10FEB00000000000000000003084FFFFFFFF3084DE
:10FEC00000000000000000002C63FFFFF7BD0000F1
:10FED00000000000F7BDFFFFFFFFBAD6BAD6BAD6C2
:10FEE000FFFFF7BD00000000E739FFFFFFFF2C63B5
:10FEF0000000000000000000F7BDFFFFFFFFE73932
:10FF000000000000000000000000000000000000F1
:10FF100000000000000000000000E739FFFFFFFFC5
:10FF2000FBDE0000000000000000000000000000F8
:10FF30000000000000000000B294FFFFFFFFAA5283
:10FF400000000000000000000000000000000000B1
:10FF50000000000014A5FBDE00000000000000000F
:10FF60000000FFFFFFFFBAD6000000000000000005
:10FF7000000000000000FFFFFFFFBAD600000000F5
:10FF80000000000000000000000000000000000071
:10FF90000000000000000000000000000000000061
:10FFA00000000000000000000000FFFFFFFFAA5259
:10FFB0000000000000000000E739FFFFFFFFF7BD71
:10FFC00000000000000000002C63FFFF30840000F0
:10FFD000000000003084FFFFFFFF59CE14A514A5D8
:10FFE00059CE5DEF000000002C63FFFFFBDE000038
:10FFF00000000000000000003084FFFFFFFF30849D
:020000040801F1
:1000000000000000000000000000000000000000F0
:10001000000000000000000000000000FBDEFFFF09
:10002000FFFFE739000000000000000000000000B2
:1000300000000000000000002421FFFFFFFFF7BDCB
:1000400000000000000000000000000000000000B0
:10005000000000003084FFFFE739000000000000CE
:100060000000BAD6FFFFFFFF000000000000000004
:10007000000000000000FFFFFFFFBAD600000000F4
:100080000000000000000000000000000000000070
:100090000000000000000000000000000000000060
:1000A00000000000000000000000FFFFF7BD00009E
:1000B000000000000000000000005DEFFFFF5DEFAA
:1000C0000000000000000000AA52FFFFB2940000F0
:1000D00000000000E739FFFFFFFF96B500000000B9
:1000E000AA52FFFF000000002C63FFFF30840000D5
:1000F0000000000000000000E739FFFFFFFFF7BD30
:1001000000000000000000000000000000000000EF
:10011000000000000000000000000000B294FFFF9B
:10012000FFFFB2940000000000000000000000008B
:1001300000000000000000000000F7BDFFFFBEF758
:10014000242100000000000000000000000000006A
:10015000AA5296B52421BEF714A5000000000000A5
:10016000000014A5FFFFFFFF2C630000000000004B
:10017000000000000000FFFFFFFFBAD600000000F3
:10018000000000000000000000000000000000006F
:10019000000000000000000000000000000000005F
:1001A00000000000000000000000BEF759CE000073
:1001B00000000000000000000000F7BDFFFFFFFF8F
:1001C000E73900000000000000005DEFBAD6000033
:1001D0000000000000005DEFFFFFFBDE00000000FC
:1001E0000000000000000000AA52FFFFB2940000CF
:1001F000000000000000000000005DEFFFFF5DEF69
:1002000000000000000000000000000000000000EE
:10021000000000000000000000000000E739FFFFC0
:10022000FFFFFBDE000000000000000000000000F7
:10023000000000000000000000002421BEF7FFFFC6
:1002400096B5000000000000000000000000000063
:100250002C63BAD6000014A5BEF7AA520000000015
:1002600000002C63FFFFFFFFB294000000000000BD
:1002700000000000CF7BFFFFFFFF96B500000000ED
:10028000000000000000000000000000000000006E
:10029000000000000000000000000000000000005E
:1002A00000000000000000000000F7BDFFFFE7397C
:1002B000000000000000000000003084FFFFFFFF8E
:1002C000B2940000000000000000CF7BFFFF3084EC
:1002D000000000000000F7BDFFFFFFFFE73900004E
:1002E000000000000000E739E7395DEFFBDE0000A9
:1002F00000000000000000000000F7BDFFFFFFFF4E
:10030000E7390000000000000000000000000000CD
:100310000000000000000000000000000000F7BD29
:10032000FFFFFFFFE73900000000000000000000B1
:10033000000000000000000000000000CF7BFFFF75
:10034000FFFF2C6300000000000000000000000020
:100350002C63FFFF00000000FBDEFBDE2421000019
:1003600000000000FFFFFFFF59CE0000000000006A
:1003700000000000BAD6FFFFFFFFE73900000000D1
:10038000000000000000000000000000000000006D
:10039000000000000000000000000000000000005D
:1003A00000000000000000000000E739BEF7FBDE9F
:1003B00024210000000000000000E739FFFFFFFFDC
:1003C00059CE0000000000000000000096B5BEF706
:1003D0003084000000003084FFFFFFFF3084000005
:1003E00000000000000014A5BAD6CF7BFFFFF7BDC8
:1003F000000000000000000000003084FFFFFFFF4D
:10040000B2940000000000000000000000000000A6
:100410000000000000000000000000000000E739BC
:10042000BEF7FFFF59CE000000000000E739E739B2
:10043000000000000000000000000000000014A503
:10044000FFFFBEF7AA5200000000000000000000FD
:10045000CF7BFFFFE73900002421FBDE5DEFAA52CE
:1004600000003084FFFFFFFFBEF700000000000027
:100470000000B294FFFFFFFF96B5000000000000EF
:10048000000000000000000000000000000000006C
:10049000000000000000000000000000000000005C
:1004A000000000000000000000000000CF7BFFFF04
:1004B000BEF796B52C63E739000000005DEFFFFF43
:1004C000BEF700000000000000000000000096B52C
:1004D000FFFFBAD6CF7BAA52FFFFFFFF59CE000025
:1004E00000000000000096B5BEF7000096B5FFFFC3
:1004F0005DEFB2942C6324210000E739FFFFFFFF7A
:1005000059CE0000000000000000000000000000C4
:1005100000000000000000000000000000000000DB
:10052000CF7BFFFFFFFF308400003084BEF7BEF7B3
:1005300000000000000000000000000000000000BB
:100540003084FFFFBEF7B2940000000000000000FE
:10055000BAD6FFFFCF7B00000000242159CEFFFF59
:10056000F7BDB29414A5F7BDFBDE2C630000242177
:10057000F7BDFFFFFFFFF7BD000000000000000017
:10058000000000000000000000000000000000006B
:10059000000000000000000000000000000000005B
:1005A0000000000000000000000000000000AA524F
:1005B000FBDEFFFFFFFFFFFFFFFFFFFFFFFFFFFF70
:1005C000FFFFFFFFFFFFFFFFFFFF59CE2C6300007F
:1005D0002C63F7BDBEF7FFFFFFFFFFFFFFFFFFFF2D
:1005E000FFFFFFFFFFFFFFFFFFFFAA520000CF7BCF
:1005F000BEF7FFFFFFFFFFFFFFFFFFFFFFFFFFFF54
:10060000FFFFFFFFFFFFFFFFBEF7F7BDE739000069
:1006100000000000000000000000000000000000DA
:1006200000002C635DEFFFFF5DEFFFFFFFFFBAD619
:1006300000000000000000000000000000000000BA
:100640000000AA52BAD6FFFF5DEFF7BD96B55DEF89
:10065000FFFFBAD62C6300000000000000002C63EE
:10066000BAD6FFFF5DEFF7BD14A514A5BAD6FFFFFC
:10067000FFFFBEF7B2940000000000000000000081
:10068000000000000000000000000000000000006A
:10069000000000000000000000000000000000005A
:1006A000000000000000000000000000000000004A
:1006B0000000CF7BF7BDBAD6BEF7FFFFBEF7BAD6B4
:1006C000BAD659CE14A514A514A5FBDEFFFF2C63E2
:1006D00000000000000024212C632C632C632C6399
:1006E0002C632C632C632C6396B5AA520000000087
:1006F0002421308459CEBAD6FFFFFFFF5DEFBAD672
:10070000BAD6F7BD14A514A514A5BEF7BEF72421CB
:1007100000000000000000000000000000000000D9
:100720000000000024213084F7BD59CEB29424216A
:1007300000000000000000000000000000000000B9
:10074000000000000000AA5214A5BAD659CE14A584
:10075000E739000000000000000000000000000079
:100760000000E739308414A559CEBAD6F7BD14A5D8
:10077000CF7B00000000000000000000000000002F
:100780000000000000000000000000000000000069
:100790000000000000000000000000000000000059
:1007A0000000000000000000000000000000000049
:1007B0000000000000000000000000000000000039
:1007C00000000000000000000000CF7BFFFF14A528
:1007D0000000000000000000000000000000000019
:1007E0000000000000000000000000000000000009
:1007F00000000000000000000000000000000000F9
:100800000000000000000000000096B5FFFF2C6310
:1008100000000000000000000000000000000000D8
:1008200000000000000000000000000000000000C8
:1008300000000000000000000000000000000000B8
:1008400000000000000000000000000000000000A8
:100850000000000000000000000000000000000098
:100860000000000000000000000000000000000088
:100870000000000000000000000000000000000078
:100880000000000000000000000000000000000068
:100890000000000000000000000000000000000058
:1008A0000000000000000000000000000000000048
:1008B0000000000000000000000000000000000038
:1008C00000000000000000000000AA52BEF7CF7B2D
:1008D0000000000000000000000000000000000018
:1008E0000000000000000000000000000000000008
:1008F00000000000000000000000000000000000F8
:10090000000000000000000000003084BEF7E7395E
:1009100000000000000000000000000000000000D7
:1009200000000000000000000000000000000000C7
:1009300000000000000000000000000000000000B7
:1009400000000000000000000000000000000000A7
:1017B0000000000000000000E7392C632C632C635C
:1017C00024210000000000000000000000000000D4
:1017D0000000000000000000000000000000000009
:1017E00000000000000000000000000000000000F9
:1017F00000000000000000000000000000000000E9
:1018000000000000000000000000000000000000D8
:1018100000000000000000000000000000000000C8
:1018200000000000000000000000000000000000B8
:1018300000000000000000000000000000000000A8
:101840000000000000000000000000000000000098
:101850000000000000000000000000000000000088
:101860000000000000000000000000000000000078
:101870000000000000000000000000000000000068
:101880000000000000000000000000000000000058
:101890000000000000000000000000000000000048
:1018A0000000000000000000000000000000000038
:1018B0000000E739F7BDBEF7BEF7BAD6BAD6BEF715
:1018C000FFFF5DEFF7BDAA5200000000000000001E
:1018D00000000000000000003084FBDEFFFFFFFF7F
:1018E000BEF7F7BD2C630000000000000000000000
:1018F000E739F7BD5DEFFFFFFFFFBEF759CE30843C
:1019000024210000AA52BAD6BAD6BAD6BAD6BAD6C6
:10191000BAD6BAD6000000000000000000000000A7
:10192000242114A5FBDEFFFFFFFF5DEF14A524219A
:10193000000096B5BAD6BAD6BAD6BAD6BAD6BAD6FC
:101940003084000000003084BAD6BAD6BAD6BAD6EF
:10195000BAD6BAD696B5000000000000000000001C
:1019600000000000CF7B59CE5DEFFFFFFFFFFBDEE5
:10197000F7BDAA52000000000000000000000000B7
:101980000000000000000000000000000000000057
:101990000000000000000000000000000000000047
:1019A00000000000000000000000000000002421F2
:1019B00096B5FFFFF7BDAA520000000000002421E9
:1019C000FFFFFFFFFFFFFFFF59CE242100000000B3
:1019D000000000000000F7BDFFFFFFFFFFFFFFFF5B
:1019E000FFFFFFFFFFFF96B5000000000000CF7B68
:1019F000FFFFFFFFFFFFFFFFFFFFFFFFFFFFFFFFF7
:101A0000BEF714A52C63FFFFFFFFFFFFFFFFFFFFE3
:101A1000FFFFFFFF00000000000000000000308416
:101A2000BEF7FFFFFFFFFFFFFBDE14A5FBDE5DEF50
:101A3000AA52BAD6FFFFFFFFFFFFFFFFFFFFFFFF26
:101A400014A50000000014A5FFFFFFFFFFFFFFFF2C
:101A5000FFFFFFFFBAD600000000000000000000FA
:101A6000E739BAD6FFFFFFFFFFFF14A50000E739F3
:101A7000B2945DEF59CE2421000000000000000068
:101A80000000000000000000000000000000000056
:101A90000000000000000000000000000000000046
:101AA0000000000000000000000000002421FBDE18
:101AB000FBDEAA52000000000000000000002C63C2
:101AC000FFFFFFFFFFFFFFFFFFFFFBDE0000000047
:101AD000000000003084FFFFFFFFFFFFFFFFFFFF5C
:101AE000FFFFB294E739FBDEB29400002421BEF779
:101AF000FFFFFFFFFFFFFFFFFFFFBEF724210000F6
:101B000030845DEFBEF7FFFFFFFFFFFFFFFFFFFF2A
:101B1000FFFFFFFF00000000000000003084FFFF17
:101B2000FFFFFFFFFFFFFFFF2C6300000000B294E8
:101B3000BEF75DEFFFFFFFFFFFFFFFFFFFFFFFFFB0
:101B400014A50000000014A5FFFFFFFFFFFFFFFF2B
:101B5000FFFFFFFFBAD60000000000000000AA52FD
:101B6000BEF7FFFFFFFFFFFFFFFF14A5000000000F
:101B70000000000014A5FBDE24210000000000008E
:101B80000000000000000000000000000000000055
:101B90000000000000000000000000000000000045
:101BA000000000000000000000000000E73959CEEE
:101BB000242100000000000000000000E739BEF70B
:101BC000FFFFFFFFFFFFFFFFFFFFFFFF14A5000068
:101BD00000000000BAD6FFFFFFFFFFFFFFFFFFFF7F
:101BE000FFFF2C630000E7395DEF2421CF7BFFFF6F
:101BF000FFFFFFFFFFFFFFFFFFFFBAD6000000005F
:101C00000000000096B5FFFFFFFFFFFFFFFFFFFF93
:101C1000FFFFFFFF0000000000002C63FFFFFFFF3D
:101C2000FFFFFFFFFFFFFFFF2C630000000000002D
:101C30003084FFFFFFFFFFFFFFFFFFFFFFFFFFFFFE
:101C400014A50000000014A5FFFFFFFFFFFFFFFF2A
:101C5000FFFFFFFFBAD60000000000002421BEF7FE
:101C6000FFFFFFFFFFFFFFFFFFFF14A500000000C5
:101C7000000000000000B294BAD60000000000008E
:101C80000000000000000000000000000000000054
:101C90000000000000000000000000000000000044
:101CA0000000000000000000000000000000000034
:101CB000000000000000000000002421FBDEFFFF08
:101CC000FFFFFFFFFFFFFFFFFFFFFFFF5DEF0000D4
:101CD00000000000FFFFFFFFFFFFFFFFFFFFFFFF10
:101CE000FFFF2C6300000000F7BD2C6314A5FFFF6D
:101CF000FFFFFFFFFFFFFFFFFFFFBAD6000000005E
:101D0000000000002C63FFFFFFFFFFFFFFFFFFFF4E
:101D1000FFFFFFFF0000000000005DEFFFFFFFFF7F
:101D2000FFFFFFFFFFFFFFFF2C630000000000002C
:101D30000000BAD6FFFFFFFFFFFFFFFFFFFFFFFF1F
:101D400014A50000000014A5FFFFFFFFFFFFFFFF29
:101D5000FFFFFFFFBAD6000000000000F7BDFFFF45
:101D6000FFFFFFFFFFFFFFFFFFFF14A500000000C4
:101D70000000000000000000BAD63084000000001F
:101D80000000000000000000000000000000000053
:101D90000000000000000000000000000000000043
:101DA0000000000000000000000000000000000033
:101DB00000000000000000002421FBDEFFFFFFFF09
:101DC000FFFFFFFFFFFFFFFFFFFFFFFFFFFF000021
:101DD00000000000FFFFFFFFFFFFFFFFFFFFFFFF0F
:101DE000FFFF2C63000000000000000014A5FFFFAF
:101DF000FFFFFFFFFFFFFFFFFFFFBAD6000000005D
:101E0000000000002C63FFFFFFFFFFFFFFFFFFFF4D
:101E1000FFFFFFFF00000000CF7BFFFFFFFFFFFF82
:101E2000FFFFFFFFFFFFFFFF2C630000000000002B
:101E30000000BAD6FFFFFFFFFFFFFFFFFFFFFFFF1E
:101E400014A50000000014A5FFFFFFFFFFFFFFFF28
:101E5000FFFFFFFFBAD6000000002421FFFFFFFFB5
:101E6000FFFFFFFFFFFFFFFFFFFF14A500000000C3
:101E700000000000000000002C63BAD60000000043
:101E80000000000000000000000000000000000052
:101E90000000000000000000000000000000000042
:101EA0000000000000000000000000000000000032
:101EB0000000000000002421FBDEFFFFFFFFFFFF0A
:101EC000FFFFFFFFFFFFFFFFFFFFFFFFBEF7000069
:101ED00000000000FFFFFFFFFFFFFFFFFFFFFFFF0E
:101EE000FFFF2C63000000000000000014A5FFFFAE
:101EF000FFFFFFFFFFFFFFFFFFFFBAD6000000005C
:101F0000000000002C63FFFFFFFFFFFFFFFFFFFF4C
:101F1000FFFFFFFF0000000096B5FFFFFFFFFFFF80
:101F2000FFFFFFFFFFFFFFFF2C630000000000002A
:101F30000000BAD6FFFFFFFFFFFFFFFFFFFFFFFF1D
:101F400014A50000000014A5FFFFFFFFFFFFFFFF27
:101F5000FFFFFFFFBAD600000000CF7BFFFFFFFFAF
:101F6000FFFFFFFFFFFFFFFFFFFF14A500000000C2
:101F700000000000000000000000BEF72421000067
:101F80000000000000000000000000000000000051
:101F90000000000000000000000000000000000041
:101FA0000000000000000000000000000000000031
:101FB000000000002421FBDEFFFFFFFFFFFFFFFF0B
:101FC000FFFFFFFFFFFFFFFFFFFFFFFFF7BD000069
:101FD00000000000FFFFFFFFFFFFFFFFFFFFFFFF0D
:101FE000FFFF2C63000000000000000014A5FFFFAD
:101FF000FFFFFFFFFFFFFFFFFFFFBAD6000000005B
:10200000000000002C63FFFFFFFFFFFFFFFFFFFF4B
:10201000FFFFFFFF00000000BAD6FFFFFFFFFFFF3A
:10202000FFFFFFFFFFFFFFFF2C6300000000000029
:102030000000BAD6FFFFFFFFFFFFFFFFFFFFFFFF1C
:1020400014A50000000014A5FFFFFFFFFFFFFFFF26
:10205000FFFFFFFFBAD60000000014A5FFFFFFFF3F
:10206000FFFFFFFFFFFFFFFFFFFF14A500000000C1
:1020700000000000000000000000BAD62C63000041
:102080000000000000000000000000000000000050
:102090000000000000000000000000000000000040
:1020A0000000000000000000000000000000000030
:1020B00000000000F7BDFFFFFFFFFFFFFFFFFFFF76
:1020C000FFFFFFFFFFFFFFFFFFFFFFFFE7390000FC
:1020D00000000000FFFFFFFFFFFFFFFFFFFFFFFF0C
:1020E000FFFF2C63000000000000000014A5FFFFAC
:1020F000FFFFFFFFFFFFFFFFFFFFBAD6000000005A
:10210000000000002C63FFFFFFFFFFFFFFFFFFFF4A
:10211000FFFFFFFF00000000BAD6FFFFFFFFFFFF39
:10212000FFFFFFFFFFFFFFFF2C6300000000000028
:102130000000BAD6FFFFFFFFFFFFFFFFFFFFFFFF1B
:1021400014A50000000014A5FFFFFFFFFFFFFFFF25
:10215000FFFFFFFFBAD60000000014A5FFFFFFFF3E
:10216000FFFFFFFFFFFFFFFFFFFF14A500000000C0
:1021700000000000000000000000BAD62C63000040
:10218000000000000000000000000000000000004F
:10219000000000000000000000000000000000003F
:1021A000000000000000000000000000000000002F
:1021B000000096B5FFFFFFFFFFFFFFFFFFFFFFFFE0
:1021C000FFFFFFFFFFFFFFFFFFFF14A50000000060
:1021D00000000000FFFFFFFFFFFFFFFFFFFFFFFF0B
:1021E000FFFF2C63000000000000000014A5FFFFAB
:1021F000FFFFFFFFFFFFFFFFFFFFBAD60000000059
:10220000000000002C63FFFFFFFFFFFFFFFFFFFF49
:10221000FFFFFFFF00000000BAD6FFFFFFFFFFFF38
:10222000FFFFFFFFFFFFFFFF2C6300000000000027
:102230000000BAD6FFFFFFFFFFFFFFFFFFFFFFFF1A
:1022400014A50000000014A5FFFFFFFFFFFFFFFF24
:10225000FFFFFFFFBAD600000000B294FFFFFFFFB0
:10226000FFFFFFFFFFFFFFFFFFFF14A500000000BF
:10227000000000000000000000005DEFE7390000F2
:10228000000000000000000000000000000000004E
:10229000000000000000000000000000000000003E
:1022A000000000000000000000000000000000002E
:1022B000CF7BFFFFFFFFFFFFFFFFFFFFFFFFFFFFE2
:1022C000FFFFFFFFFFFFFFFF59CE000000000000EF
:1022D00000000000FFFFFFFFFFFFFFFFFFFFFFFF0A
:1022E000FFFF2C63000000000000000014A5FFFFAA
:1022F000FFFFFFFFFFFFFFFFFFFFBAD60000000058
:10230000000000002C63FFFFFFFFFFFFFFFFFFFF48
:10231000FFFFFFFF0000000014A5FFFFFFFFFFFF0E
:10232000FFFFFFFFFFFFFFFF2C6300000000000026
:102330000000BAD6FFFFFFFFFFFFFFFFFFFFFFFF19
:1023400014A50000000014A5FFFFFFFFFFFFFFFF23
:10235000FFFFFFFFBAD600000000AA52FFFFFFFFF9
:10236000FFFFFFFFFFFFFFFFFFFF14A500000000BE
:102370000000000000000000E739BEF70000000088
:10238000000000000000000000000000000000004D
:10239000000000000000000000000000000000003D
:1023A00000000000000000000000000000002421E8
:1023B000BEF7FFFFFFFFFFFFFFFFFFFFFFFFFFFF76
:1023C000FFFFFFFFFFFFFBDE2421000000000000F5
:1023D00000000000FFFFFFFFFFFFFFFFFFFFFFFF09
:1023E000FFFF2C63000000000000000014A5FFFFA9
:1023F000FFFFFFFFFFFFFFFFFFFFBAD60000000057
:10240000000000002C63FFFFFFFFFFFFFFFFFFFF47
:10241000FFFFFFFF00000000AA52FFFFFFFFFFFFCA
:10242000FFFFFFFFFFFFFFFF2C6300000000000025
:102430000000BAD6FFFFFFFFFFFFFFFFFFFFFFFF18
:1024400014A50000000014A5FFFFFFFFFFFFFFFF22
:10245000FFFFFFFFBAD60000000000005DEFFFFFA6
:10246000FFFFFFFFFFFFFFFFFFFF14A500000000BD
:10247000000000000000000014A596B50000000058
:10248000000000000000000000000000000000004C
:10249000000000000000000000000000000000003C
:1024A000000000000000000000000000000014A573
:1024B000FFFFFFFFFFFFFFFFFFFFFFFFFFFFFFFF2C
:1024C000FFFFFFFF5DEF242100000000000000007F
:1024D00000000000FFFFFFFFFFFFFFFFFFFFFFFF08
:1024E000FFFF2C63000000000000000014A5FFFFA8
:1024F000FFFFFFFFFFFFFFFFFFFFBAD60000000056
:10250000000000002C63FFFFFFFFFFFFFFFFFFFF46
:10251000FFFFFFFF00000000000059CEFFFFFFFF9C
:10252000FFFFFFFFFFFFFFFF2C6300000000000024
:102530000000BAD6FFFFFFFFFFFFFFFFFFFFFFFF17
:1025400014A50000000014A5FFFFFFFFFFFFFFFF21
:10255000FFFFFFFFBAD6000000000000CF7BFFFFA7
:10256000FFFFFFFFFFFFFFFFFFFF14A500000000BC
:10257000000000000000AA525DEF242100000000CE
:10258000000000000000000000000000000000004B
:10259000000000000000000000000000000000003B
:1025A00000000000000000000000000000005DEFDF
:1025B000FFFFFFFFFFFFFFFFFFFFFFFFFFFFFFFF2B
:1025C000FFFFBEF7AA52000000000000000000005C
:1025D00000000000FFFFFFFFFFFFFFFFFFFFFFFF07
:1025E000FFFF2C63000000000000000014A5FFFFA7
:1025F000FFFFFFFFFFFFFFFFFFFFBAD60000000055
:10260000000000002C63FFFFFFFFFFFFFFFFFFFF45
:10261000FFFFFFFF00000000000024215DEFFFFF2F
:10262000FFFFFFFFFFFFFFFF2C6300000000000023
:1026300024215DEFFFFFFFFFFFFFFFFFFFFFFFFF15
:1026400014A50000000014A5FFFFFFFFFFFFFFFF20
:10265000FFFFFFFFBAD60000000000000000F7BD3A
:10266000FFFFFFFFFFFFFFFFFFFF14A500000000BB
:1026700000000000AA52BEF73084000000000000F5
:10268000000000000000000000000000000000004A
:10269000000000000000000000000000000000003A
:1026A0000000000000000000000000000000FFFF2C
:1026B000FFFFFFFFFFFFFFFFFFFFFFFFFFFFFFFF2A
:1026C000BEF7AA5200000000000000000000000059
:1026D00000000000FFFFFFFFFFFFFFFFFFFFFFFF06
:1026E000FFFF2C63000000000000000014A5FFFFA6
:1026F000FFFFFFFFFFFFFFFFFFFFBAD60000000054
:10270000000000002C63FFFFFFFFFFFFFFFFFFFF44
:10271000FFFFFFFF0000000000000000AA52FBDEE8
:10272000FFFFFFFFFFFFFFFF2C63000000002C6393
:10273000FBDE5DEFFFFFFFFFFFFFFFFFFFFFFFFF80
:1027400014A50000000014A5FFFFFFFFFFFFFFFF1F
:10275000FFFFFFFFBAD600000000000000000000ED
:1027600096B5FFFFFFFFFFFFFFFF14A5000000006D
:102770000000B2945DEF3084000000000000000013
:102780000000000000000000000000000000000049
:102790000000000000000000000000000000000039
:1027A0000000000000000000000000000000FFFF2B
:1027B000FFFFFFFFFFFFFFFFFFFFFFFFFFFFFFFF29
:1027C000AA52000000000000000000000000E739ED
:1027D000BAD6BAD6FFFFFFFFFFFFFFFFFFFFFFFFE5
:1027E000FFFFFBDEBAD6BAD63084000014A5FFFF87
:1027F000FFFFFFFFFFFFFFFFFFFFBAD60000000053
:10280000000000002C63FFFFFFFFFFFFFFFFFFFF43
:10281000FFFFFFFF00000000000000000000242177
:1028200014A5BEF7FFFFFFFFFBDE14A5FBDEBAD643
:10283000E739BAD6FFFFFFFFFFFFFFFFFFFFFFFFF4
:1028400014A50000000014A5FFFFFFFFFFFFFFFF1E
:10285000FFFFFFFFBAD600000000000000000000EC
:1028600000002C63BAD6FFFFFFFFBAD614A5F7BD50
:10287000BEF7F7BDE73900000000000000000000CF
:102880000000000000000000000000000000000048
:102890000000000000000000000000000000000038
:1028A000000000000000000000000000000059CE01
:1028B000FFFFFFFFFFFFFFFFFFFFFFFFFFFF308472
:1028C00000000000000000000000000000002421C3
:1028D0002C632C63FFFFFFFFFFFFFFFFFFFFFFFFE6
:1028E000FFFF2C632C632C63E7390000E7392C636E
:1028F0002C632C632C632C632C63AA520000000011
:102900000000000024212C632C632C632C632C63B7
:102910002C632C6300000000000000000000000099
:10292000000000002C6314A514A53084E7390000D2
:102930000000BAD6FFFFFFFFFFFFFFFFFFFFFFFF13
:1029400014A500000000E7392C632C632C632C6372
:102950002C632C63AA52000000000000000000005D
:10296000000000000000E739308414A514A5CF7BD7
:102970002421000000000000000000000000000012
:102980000000000000000000000000000000000047
:102990000000000000000000000000000000000037
:1029A0000000000000000000000000000000AA522B
:1029B000FFFFFFFFFFFFFFFFFFFFFFFF14A500006A
:1029C0000000000000000000AA52AA52000000000F
:1029D00000000000FFFFFFFFFFFFFFFFFFFFFFFF03
:1029E000FFFF2421000000000000000000000000A4
:1029F00000000000000000000000000000000000D7
:102A000000000000000000000000000000000000C6
:102A100000000000000000000000000000000000B6
:102A200000000000000000000000000000000000A6
:102A30000000BAD6FFFFFFFFFFFFFFFFFFFFFFFF12
:102A400014A50000000000002421308414A514A562
:102A50003084E739000000000000000000000000A2
:102A60000000000000000000000000000000000066
:102A70000000000000000000000000000000000056
:102A80000000000000000000000000000000000046
:102A90000000000000000000000000000000000036
:102AA0000000000000000000000000000000000026
:102AB0003084FFFFFFFFFFFFFFFFFFFF2421000027
:102AC000000000000000B294FFFF2C630000000033
:102AD00000000000E73914A55DEFFFFFFFFFFFFFD7
:102AE000FFFF2C6300000000000000000000000059
:102AF00000000000000000000000000000000000D6
:102B000000000000000000000000000000000000C5
:102B100000000000000000000000000000000000B5
:102B200000000000000000000000000000000000A5
:102B30000000BAD6FFFFFFFFFFFFFFFFFFFFFFFF11
:102B400014A500000000E739BEF7FFFFFFFFFFFFFD
:102B5000FFFFBEF7CF7B0000000000000000000078
:102B60000000000000000000000000000000000065
:102B70000000000000000000000000000000000055
:102B80000000000000000000000000000000000045
:102B90000000000000000000000000000000000035
:102BA0000000000000000000000000000000000025
:102BB0000000AA52BAD6FFFFFFFFFFFF14A52C6347
:102BC0002C6396B55DEFBAD6AA5200000000000053
:102BD0000000000000000000000030845DEFFFFFF7
:102BE000FFFF2C6300000000000000000000000058
:102BF00000000000000000000000000000000000D5
:102C000000000000000000000000000000000000C4
:102C100000000000000000000000000000000000B4
:102C200000000000000000000000000000000000A4
:102C30000000BAD6FFFFFFFFFFFFFFFFFFFFFFFF10
:102C400014A50000000014A5FFFFFFFFFFFFFFFF1A
:102C5000FFFFFFFFBAD600000000000000000000E8
:102C60000000000000000000000000000000000064
:102C70000000000000000000000000000000000054
:102C80000000000000000000000000000000000044
:102C90000000000000000000000000000000000034
:102CA0000000000000000000000000000000000024
:102CB000000000000000E739B294F7BDBAD6BAD6DA
:102CC00059CE14A5AA520000000000000000000028
:102CD0000000000000000000000000000000308440
:102CE0005DEF2C6300000000000000000000000009
:102CF00000000000000000000000000000000000D4
:102D000000000000000000000000000000000000C3
:102D100000000000000000000000000000000000B3
:102D200000000000000000000000000000000000A3
:102D30000000AA522C632C632C632C632C632C633D
:102D4000E739000000002C63FFFFFFFFFFFFFFFFDC
:102D5000FFFFFFFF14A500000000000000000000BE
:102D60000000000000000000000000000000000063
:102D70000000000000000000000000000000000053
:102D80000000000000000000000000000000000043
:102D90000000000000000000000000000000000033
:102DA0000000000000000000000000000000000023
:102DB0000000000000000000000000000000000013
:102DC0000000000000000000000000000000000003
:102DD00000000000000000000000000000000000F3
:102DE0002421242100000000000000000000000059
:102DF00000000000000000000000000000000000D3
:102E000000000000000000000000000000000000C2
:102E100000000000000000000000000000000000B2
:102E200000000000000000000000000000000000A2
:102E30000000000000000000000000000000000092
:102E400000000000000000002C63F7BDBAD6BAD61F
:102E500059CE308400000000000000000000000097
:102E60000000000000000000000000000000000062
:102E70000000000000000000000000000000000052
:102E80000000000000000000000000000000000042
:102E90000000000000000000000000000000000032
:1038A00000000000242100000000000000000000D3
:1038B00000000000000000000000000000002421C3
:1038C00000000000000000000000000000000000F8
:1038D00000000000000000000000000000000000E8
:1038E00000000000000000000000000000000000D8
:1038F00000000000000000000000000000000000C8
:1039000000000000000000000000000000000000B7
:1039100000000000000000000000000000000000A7
:103920000000000000000000000000000000000097
:103930000000000000000000000000000000000087
:103940000000000000000000000000000000000077
:103950000000000000000000000000000000000067
:103960000000000000000000000000000000000057
:103970000000000000000000000000000000000047
:103980000000000000000000000000000000000037
:103990000000000000000000000000000000000027
:1039A00000000000F7BD0000000000000000000063
:1039B000000000000000000000000000242159CE9B
:1039C00000000000000000000000000000000000F7
:1039D00000000000000000000000000000000000E7
:1039E00000000000000000000000000000000000D7
:1039F00000000000AA5200000000000000000000CB
:103A000000000000000000000000000000000000B6
:103A100000000000000000000000000000000000A6
:103A20000000000000000000000000000000000096
:103A30000000000000000000000000000000000086
:103A40000000000000000000000000000000000076
:103A50000000000000000000000000000000000066
:103A60000000000000000000000000000000000056
:103A70000000000000000000000000000000000046
:103A80000000000000000000000000000000000036
:103A90000000000000000000000000000000000026
:103AA0000000CF7BFFFF2C6300000000000000003F
:103AB00000000000000000000000000014A5FFFF4F
:103AC000E7390000000000000000000000000000D6
:103AD00000000000000000000000E73996B5FBDEA2
:103AE000FFFFFFFFBEF759CE308424210000000005
:103AF000000000005DEFCF7B000000000000000030
:103B00000000000000000000000000000000E73995
:103B1000BAD6BAD6BAD6BAD6BAD6BAD6BAD6BAD625
:103B2000BAD6BAD62421000000000000000030847C
:103B300059CE5DEFFFFFFFFF5DEFF7BD2C63000087
:103B4000000000000000000000000000242114A577
:103B50005DEFFFFFFFFF5DEF96B5E7390000000066
:103B60000000000000000000000000000000000055
:103B70000000000000000000000000000000000045
:103B80000000000000000000000000000000000035
:103B90000000000000000000000000000000000025
:103BA000000059CEFFFF5DEF0000000000000000A4
:103BB00000000000000000000000E739FFFFFFFFE9
:103BC000F7BD000000000000000000000000000041
:103BD000000000000000000014A5FFFFFFFFBEF77B
:103BE000AA5200002421CF7BBAD6BEF7B2940000BF
:103BF0000000000030845DEF242100000000000080
:103C00000000000000000000000000000000F7BD00
:103C1000FFFFFFFFFFFFFFFFFFFFFFFFFFFFFFFFB4
:103C2000FFFF14A5000000000000AA52FBDEFFFF0A
:103C3000FFFFFFFF59CE00002421CF7BBAD6BAD6B2
:103C4000E73900000000000000002421FBDEFFFF38
:103C5000FFFFFFFFFFFFFFFFFFFFBEF73084000005
:103C60000000000000000000000000000000000054
:103C70000000000000000000000000000000000044
:103C80000000000000000000000000000000000034
:103C90000000000000000000000000000000000024
:103CA000E739FFFFFFFFFFFF308400000000000046
:103CB00000000000000000000000F7BDFFFFFFFF54
:103CC000FFFF2421000000000000000000000000B1
:103CD000000000000000F7BDFFFFFFFFFFFFBAD6A6
:103CE000000000000000000000002C63BEF759CE69
:103CF000242100000000BAD6F7BD2C632C632C638E
:103D00002C632C632C632C632C632C633084FFFFA7
:103D1000FFFFFFFFFFFFFFFFFFFFFFFFFFFFFFFFB3
:103D2000BEF7242100000000AA52BEF7FFFFFFFFEC
:103D3000FFFFFFFF14A50000000000000000CF7B84
:103D40005DEFAA52000000000000F7BDFFFFFFFF7B
:103D5000FFFFFFFFFFFFFFFFAA522C63BEF7AA522F
:103D60000000000000000000000000000000000053
:103D70000000000000000000000000000000000043
:103D80000000000000000000000000000000000033
:103D90000000000000000000000000000000000023
:103DA00014A5FFFFFFFFFFFFBEF724210000000066
:103DB0000000000000000000E739FFFFFFFFFFFFE9
:103DC000FFFF14A50000000000000000000000003C
:103DD0000000000014A5FFFFFFFFFFFFFFFFBAD6A2
:103DE0000000000000000000000000002421FBDEB5
:103DF000BAD6000000002C63FFFFFBDEBAD6BAD6AD
:103E0000BAD6BAD6BAD6BAD6BAD6BAD6BEF7FFFF9F
:103E1000FFFFFFFFFFFFFFFFFFFFFFFFFFFFFFFFB2
:103E2000B294000000002421BEF7FFFFFFFFFFFF58
:103E3000FFFFFFFF14A500000000000000000000CD
:103E4000AA525DEFAA5200000000FFFFFFFFFFFF34
:103E5000FFFFFFFFFFFFFFFF00000000CF7BBAD690
:103E60000000000000000000000000000000000052
:103E70000000000000000000000000000000000042
:103E80000000000000000000000000000000000032
:103E90000000000000000000000000000000000022
:103EA0005DEFFFFFFFFFFFFFFFFF14A50000000015
:103EB0000000000000000000F7BDFFFFFFFFFFFF54
:103EC000FFFFBEF70000000000000000000000003F
:103ED0000000E739FFFFFFFFFFFFFFFFFFFFBAD63C
:103EE0000000000000000000000000000000AA52D6
:103EF000BEF7AA5200000000F7BDF7BD00000000A9
:103F000000000000000000000000AA52FFFFFFFFB9
:103F1000FFFFFFFFFFFFFFFFFFFFFFFFFFFF5DEF63
:103F2000000000000000F7BDFFFFFFFFFFFFFFFFE5
:103F3000FFFFFFFF14A500000000000000000000CC
:103F40000000B29459CE00002C63FFFFFFFFFFFF7B
:103F5000FFFFFFFFFFFFFFFF0000000000005DEF1D
:103F60000000000000000000000000000000000051
:103F70000000000000000000000000000000000041
:103F80000000000000000000000000000000000031
:103F90000000000000000000000000000000CF7BD7
:103FA000FFFFFFFFFFFFFFFFFFFFBEF72421000021
:103FB0000000000000002C63FFFFFFFFFFFFFFFF7A
:103FC000FFFFFFFF30840000000000000000000041
:103FD000000014A5FFFFFFFFFFFFFFFFFFFFBAD6A2
:103FE00000000000000000000000000000000000D1
:103FF000E7390000000000002421BEF7AA520000AB
:1040000000000000000000000000BAD6FFFFFFFF24
:10401000FFFFFFFFFFFFFFFFFFFFFFFFFFFFCF7B64
:10402000000000002421FFFFFFFFFFFFFFFFFFFF55
:10403000FFFFFFFF14A500000000000000000000CB
:1040400000000000E73900002C63FFFFFFFFFFFFC7
:10405000FFFFFFFFFFFFFFFF000000000000000068
:104060000000000000000000000000000000000050
:104070000000000000000000000000000000000040
:104080000000000000000000000000000000000030
:104090000000000000000000000000000000BAD690
:1040A000FFFFFFFFFFFFFFFFFFFFFFFFF7BD000068
:1040B000000000000000BAD6FFFFFFFFFFFFFFFF78
:1040C000FFFFFFFF5DEF00000000000000000000A8
:1040D0000000FBDEFFFFFFFFFFFFFFFFFFFFBAD681
:1040E00000000000000000000000000000000000D0
:1040F00000000000000000000000B294BAD60000EA
:1041000000000000000000002C63FFFFFFFFFFFF26
:10411000FFFFFFFFFFFFFFFFFFFFFFFFBAD600001B
:1041200000000000CF7BFFFFFFFFFFFFFFFFFFFF4F
:10413000FFFFFFFF14A500000000000000000000CA
:1041400000000000000000002C63FFFFFFFFFFFFE6
:10415000FFFFFFFFFFFFFFFF000000000000000067
:10416000000000000000000000000000000000004F
:10417000000000000000000000000000000000003F
:10418000000000000000000000000000000000002F
:10419000000000000000000000000000E739FFFF01
:1041A000FFFFFFFFFFFFFFFFFFFFFFFFFFFFE739FD
:1041B000000000002C63FFFFFFFFFFFFFFFFFFFF7A
:1041C000FFFFFFFFFFFF2C63000000000000000066
:1041D0000000FFFFFFFFFFFFFFFFFFFFFFFFFBDE12
:1041E0002C632C632C632C632C632C632C632C6357
:1041F0002C63AA5200000000000000005DEFCF7B9E
:104200000000000000000000BAD6FFFFFFFFFFFF24
:10421000FFFFFFFFFFFFFFFFFFFFFFFF2C6300001B
:104220000000000014A5FFFFFFFFFFFFFFFFFFFFDF
:10423000FFFFFFFF14A500000000000000000000C9
:1042400000000000000000002C63FFFFFFFFFFFFE5
:10425000FFFFFFFFFFFFFFFF000000000000000066
:10426000000000000000000000000000000000004E
:10427000000000000000000000000000000000003E
:10428000000000000000000000000000000000002E
:1042900000000000000000000000000096B5FFFFD5
:1042A000FFFFFFFFFFFFFFFFFFFFFFFFFFFFBAD68C
:1042B000000000005DEFFFFFFFFFFFFFFFFFFFFFBC
:1042C000FFFFFFFFFFFFBAD6000000000000000064
:1042D0000000FFFFFFFFFFFFFFFFFFFFFFFFBEF735
:1042E000BAD6BAD6BAD6FBDEFFFFFFFFFFFFFFFF4D
:1042F000FFFFBAD600000000000000002C635DEF55
:104300002421000000003084FFFFFFFFFFFFFFFFBC
:10431000FFFFFFFFFFFFFFFFFFFFF7BD00000000F3
:104320000000000014A5FFFFFFFFFFFFFFFFFFFFDE
:10433000FFFFFFFF14A500000000000000000000C8
:1043400000000000000000002C63FFFFFFFFFFFFE4
:10435000FFFFFFFFFFFFFFFF000000000000000065
:10436000000000000000000000000000000000004D
:10437000000000000000000000000000000000003D
:10438000000000000000000000000000000000002D
:10439000000000000000000000000000BEF7FFFF6A
:1043A000FFFFFFFFFFFFFFFFFFFFFFFFFFFFFFFF1D
:1043B0002C63B294FFFFFFFFFFFFFFFFFFFFFFFF34
:1043C000FFFFFFFFFFFFBEF7AA5200000000000042
:1043D00000005DEFFFFFFFFFFFFFFFFFFFFFBAD60B
:1043E0000000000000002C63FFFFFFFFFFFFFFFF46
:1043F000FFFFF7BD0000000000000000000059CEE4
:1044000014A5000000005DEFFFFFFFFFFFFFFFFFAF
:10441000FFFFFFFFFFFFFFFFBEF7E73900000000CF
:1044200000000000B294FFFFFFFFFFFFFFFFFFFF50
:10443000FFFFFFFF14A500000000000000000000C7
:1044400000000000000000002C63FFFFFFFFFFFFE3
:10445000FFFFFFFFFFFFFFFF000000000000000064
:10446000000000000000000000000000000000004C
:10447000000000000000000000000000000000003C
:10448000000000000000000000000000000000002C
:10449000000000000000000000003084FFFFFFFF6C
:1044A000FFFFFFFFFFFFFFFFFFFFFFFFF7BD14A5AB
:1044B0005DEFBEF7FFFFFFFFFFFFFFFFFFFFFFFF07
:1044C000FFFFFFFFF7BDF7BDF7BD000000000000D4
:1044D0000000F7BDFFFFFFFFFFFFFFFFFFFFBAD6A2
:1044E0000000000000002C63FFFFFFFFFFFFFFFF45
:1044F000FFFFB29400000000000000000000E73958
:104500005DEFE7393084FFFFFFFFFFFFFFFFFFFF95
:10451000FFFFFFFFFFFFFFFF14A5000000000000EA
:1045200000000000AA52FFFFFFFFFFFFFFFFFFFF99
:10453000FFFFFFFF14A500000000000000000000C6
:1045400000000000000000002C63FFFFFFFFFFFFE2
:10455000FFFFFFFFFFFFFFFF000000000000000063
:10456000000000000000000000000000000000004B
:10457000000000000000000000000000000000003B
:10458000000000000000000000000000000000002B
:1045900000000000000000000000BAD6FFFFFFFF8F
:1045A000FFFFFFFFFFFFFFFFFFFFFFFFAA522421D6
:1045B000BEF7FFFFFFFFFFFFFFFFFFFFFFFFFFFF54
:1045C000FFFFBEF72421E739FFFFE73900000000B5
:1045D00000002C63FFFFFFFFFFFFFFFFFFFFBAD6C6
:1045E0000000000000002C63FFFFFFFFFFFFFFFF44
:1045F000FFFFE7390000000000000000000000009D
:1046000014A559CE5DEFFFFFFFFFFFFFFFFFFFFF88
:10461000FFFFFFFFFFFFBEF72421000000000000A6
:104620000000000000005DEFFFFFFFFFFFFFFFFF46
:10463000FFFFFFFF14A500000000000000000000C5
:1046400000000000000000002C63FFFFFFFFFFFFE1
:10465000FFFFFFFFFFFFFFFF000000000000000062
:10466000000000000000000000000000000000004A
:10467000000000000000000000000000000000003A
:10468000000000000000000000000000000000002A
:104690000000000000000000E739FFFFFFFFFFFF00
:1046A000FFFFFFFFFFFFFFFFFFFFBAD60000000084
:1046B0003084FFFFFFFFFFFFFFFFFFFFFFFFFFFF54
:1046C000FFFF14A50000000059CE14A50000000053
:1046D00000000000BAD6FFFFFFFFFFFFFFFFBAD6C2
:1046E0000000000000002C63FFFFFFFFFFFFFFFF43
:1046F00096B500000000000000000000000000006F
:1047000024215DEFFFFFFFFFFFFFFFFFFFFFFFFF24
:10471000FFFFFFFFFFFF30840000000000000000EB
:10472000000000000000CF7BFFFFFFFFFFFFFFFF47
:10473000FFFFFFFF14A500000000000000000000C4
:104740002421F7BD000000002C63FFFFFFFFFFFFE7
:10475000FFFFFFFFFFFFFFFF000000000000000061
:104760000000000000000000000000000000000049
:104770000000000000000000000000000000000039
:104780000000000000000000000000000000000029
:10479000000000000000000096B5FFFFFFFFFFFFD4
:1047A000FFFFFFFFFFFFFFFFFFFF3084000000005F
:1047B00000005DEFFFFFFFFFFFFFFFFFFFFFFFFFB9
:1047C0005DEF2421000000002C63BEF724210000CF
:1047D00000000000E739BEF7FFFFFFFFFFFFBAD67A
:1047E0000000000000002C63FFFFFFFFFFFFFBDE67
:1047F0002421000000000000000000000000000074
:104800000000CF7BFFFFFFFFFFFFFFFFFFFFFFFF6A
:10481000FFFFFFFF5DEF0000000000000000000050
:104820000000000000000000F7BDFFFFFFFFFFFFDA
:10483000FFFFFFFF14A500000000000000000000C3
:10484000F7BDBAD6000000002C63FFFFFFFFFFFF9B
:10485000FFFFFFFFFFFFFFFF000000000000000060
:104860000000000000000000000000000000000048
:104870000000000000000000000000000000000038
:104880000000000000000000000000000000000028
:104890000000000000002421BEF7FFFFFFFFFFFF24
:1048A000FFFFFFFFFFFFFFFFBEF70000000000005B
:1048B00000002C63FFFFFFFFFFFFFFFFFFFFFFFF75
:1048C000308400000000000000005DEF3084000034
:1048D000000000000000AA525DEFFFFFFFFF5DEF48
:1048E000000000000000CF7BFFFFFFFFFBDE242164
:1048F00000000000000000000000000000000000B8
:1049000000000000BAD6FFFFFFFFFFFFFFFFFFFF21
:10491000FFFFFFFF2C63000000000000000000000C
:104920000000000000000000000096B5FFFFFFFF40
:10493000FFFFFFFF96B50000000000002C63BAD611
:10494000FBDE2421000000002C63FFFFFFFFFFFFC0
:10495000FFFFFFFFFFFFFFFF00000000000000005F
:104960000000000000000000000000000000000047
:104970000000000000000000000000000000000037
:104980000000000000000000000000000000000027
:104990000000000000003084FFFFFFFFFFFFFFFF6B
:1049A000FFFFFFFFFFFFFFFF14A500000000000056
:1049B00000000000BAD6FFFFFFFFFFFFFFFF5DEF23
:1049C00000000000000000000000B2945DEF000055
:1049D0000000000000000000242114A5BEF7FFFF26
:1049E000BAD614A596B5BEF75DEF14A50000000079
:1049F00000000000000000000000000000000000B7
:104A000000000000E739FFFFFFFFFFFFFFFFFFFF90
:104A1000FFFFBAD600000000000000000000000008
:104A20000000000000000000000000002C63BAD667
:104A3000FFFFFFFFBEF796B514A5FBDE5DEF14A5E3
:104A400000000000CF7BBAD6FBDEFFFFFFFFFFFFB9
:104A5000FFFFFFFFFFFFFFFFBAD6BAD6BAD6AA52B2
:104A60000000000000000000000000000000000046
:104A70000000000000000000000000000000000036
:104A80000000000000000000000000000000000026
:104A90000000000000005DEFFFFFFFFFFFFFFFFFD2
:104AA000FFFFFFFFFFFFFFFFE739000000000000EE
:104AB000000000002C63FFFFFFFFFFFFFFFF2C63E0
:104AC000000000000000000000002421BEF7308438
:104AD00000000000000000000000000000002C6347
:104AE00014A514A514A52C6300000000000000000C
:104AF00000000000000000000000000000000000B6
:104B000000000000000014A5FFFFFFFFFFFFFFFFF4
:104B1000FFFFAA520000000000000000000000009B
:104B20000000000000000000000000000000000085
:104B3000E739308414A514A5B2942C63000000005A
:104B400000000000E7392C63B294FFFFFFFFFFFF76
:104B5000FFFFFFFFFFFFFBDE2C632C632C63242190
:104B60000000000000000000000000000000000045
:104B70000000000000000000000000000000000035
:104B80000000000000000000000000000000000025
:104B9000000000002C63FFFFFFFFFFFFFFFFFFFF90
:104BA000FFFFFFFFFFFF59CE0000000000000000E4
:104BB000000000000000F7BDFFFFFFFFBAD60000B5
:104BC000000000000000000000000000F7BDBAD6A1
:104BD00000000000000000000000000000000000D5
:104BE00000000000000000000000000000000000C5
:104BF00000000000000000000000000000000000B5
:104C00000000000000002421BEF7FFFFFFFFFFFFB0
:104C1000F7BD0000000000000000000000000000E0
:104C20000000000000000000000000000000000084
:104C30000000000000000000000000000000000074
:104C400000000000000000002C63FFFFFFFFFFFFDB
:104C5000FFFFFFFFFFFFFBDE000000000000000081
:104C60000000000000000000000000000000000044
:104C70000000000000000000000000000000000034
:104C80000000000000000000000000000000000024
:104C90000000000059CEFFFFFFFFFFFFFFFFFFFFF7
:104CA000FFFFFFFFFFFF3084000000000000000056
:104CB000000000000000E739FFFFFFFF2C63000049
:104CC000000000000000000000000000AA52FFFFEA
:104CD0002C63000000000000000000000000000045
:104CE00000000000000000000000000000000000C4
:104CF00000000000000000000000000000000000B4
:104D000000000000000000003084FFFFFFFFBEF73E
:104D1000242100000000000000000000000000004E
:104D20000000000000000000000000000000000083
:104D30000000000000000000000000000000000073
:104D400000000000000000000000AA52F7BDBEF7FE
:104D5000FFFFFFFFFFFFFFFF00000000000000005B
:104D60000000000000000000000000000000000043
:104D70000000000000000000000000000000000033
:104D80000000000000000000000000000000000023
:104D90000000E739FFFFFFFFFFFFFFFFFFFFFFFFFF
:104DA000FFFFFFFFBEF70000000000000000000052
:104DB000000000000000000096B5BAD60000000018
:104DC0000000000000000000000000000000FBDE0A
:104DD000F7BD00000000000000000000000000001F
:104DE00000000000000000000000000000000000C3
:104DF00000000000000000000000000000000000B3
:104E000000000000000000000000BAD6FFFF14A55B
:104E10000000000000000000000000000000000092
:104E20000000000000000000000000000000000082
:104E30000000000000000000000000000000000072
:104E4000000000000000000000000000000024211D
:104E500014A5BEF7FFFFFFFF0000000000000000E8
:104E60000000000000000000000000000000000042
:104E70000000000000000000000000000000000032
:104E80000000000000000000000000000000000022
:104E90000000E7392C632C632C632C632C632C6398
:104EA0002C632C63AA5200000000000000000000E8
:104EB000000000000000000024212C63000000001E
:104EC0000000000000000000000000000000E739C2
:104ED000E7390000000000000000000000000000B2
:104EE00000000000000000000000000000000000C2
:104EF00000000000000000000000000000000000B2
:104F0000000000000000000000002C635DEF242181
:104F10000000000000000000000000000000000091
:104F20000000000000000000000000000000000081
:104F30000000000000000000000000000000000071
:104F40000000000000000000000000000000000061
:104F50000000242114A5BEF700000000000000009E
:104F60000000000000000000000000000000000041
:104F70000000000000000000000000000000000031
:104F80000000000000000000000000000000000021
:104F90000000000000000000000000000000000011
:104FA0000000000000000000000000000000000001
:104FB00000000000000000000000000000000000F1
:104FC00000000000000000000000000000000000E1
:104FD00000000000000000000000000000000000D1
:104FE00000000000000000000000000000000000C1
:104FF00000000000000000000000000000000000B1
:10500000000000000000000000000000E739000080
:105010000000000000000000000000000000000090
:105020000000000000000000000000000000000080
:105030000000000000000000000000000000000070
:105040000000000000000000000000000000000060
:10505000000000000000E739000000000000000030
:105060000000000000000000000000000000000040
:105070000000000000000000000000000000000030
:105080000000000000000000000000000000000020
:105090000000000000000000000000000000000010
:106880000000000000000000000000F800F800F820
:1068900000F800F800F800F800F800F800F800F838
:1068A00000F800F800F800F800F800F800F8000020
:1068B000000000000000E007E007E007E007E00755
:1068C000E007E007E007E007E007E007E007E00790
:1068D000E007E007E007E007E00700000000000035
:1068E00000001F001F001F001F001F001F001F00CF
:1068F0001F001F001F001F001F001F001F001F00A0
:106900001F001F001F00000000000000000000002A
:106910000000000000000000000000000000000077
:106920000000000000000000000000000000000067
:106930000000000000000000000000000000000057
:106940000000000000000000000000000000000047
:106950000000000000000000000000000000000037
:106960000000000000000000000000000000000027
:106970000000000000000000000000000000000017
:106980000000000000000000000000F800F800F81F
:1069900000F800F800F800F800F800F800F800F837
:1069A00000F800F800F800F800F800F800F800001F
:1069B000000000000000E007E007E007E007E00754
:1069C000E007E007E007E007E007E007E007E0078F
:1069D000E007E007E007E007E00700000000000034
:1069E00000001F001F001F001F001F001F001F00CE
:1069F0001F001F001F001F001F001F001F001F009F
:106A00001F001F001F000000000000000000000029
:106A10000000000000000000000000000000000076
:106A20000000000000000000000000000000000066
:106A30000000000000000000000000000000000056
:106A40000000000000000000000000000000000046
:106A50000000000000000000000000000000000036
:106A60000000000000000000000000000000000026
:106A70000000000000000000000000000000000016
:106A80000000000000000000000000F800F800F81E
:106A900000F800F800F800F800F800F800F800F836
:106AA00000F800F800F800F800F800F800F800001E
:106AB000000000000000E007E007E007E007E00753
:106AC000E007E007E007E007E007E007E007E0078E
:106AD000E007E007E007E007E00700000000000033
:106AE00000001F001F001F001F001F001F001F00CD
:106AF0001F001F001F001F001F001F001F001F009E
:106B00001F001F001F000000000000000000000028
:106B10000000000000000000000000000000000075
:106B20000000000000000000000000000000000065
:106B30000000000000000000000000000000000055
:106B40000000000000000000000000000000000045
:106B50000000000000000000000000000000000035
:106B60000000000000000000000000000000000025
:106B70000000000000000000000000000000000015
:106B80000000000000000000000000F800F800F81D
:106B900000F800F800F800F800F800F800F800F835
:106BA00000F800F800F800F800F800F800F800001D
:106BB000000000000000E007E007E007E007E00752
:106BC000E007E007E007E007E007E007E007E0078D
:106BD000E007E007E007E007E00700000000000032
:106BE00000001F001F001F001F001F001F001F00CC
:106BF0001F001F001F001F001F001F001F001F009D
:106C00001F001F001F000000000000000000000027
:106C10000000000000000000000000000000000074
:106C20000000000000000000000000000000000064
:106C30000000000000000000000000000000000054
:106C40000000000000000000000000000000000044
:106C50000000000000000000000000000000000034
:106C60000000000000000000000000000000000024
:106C70000000000000000000000000000000000014
:106C80000000000000000000000000F800F800F81C
:106C900000F800F800F800F800F800F800F800F834
:106CA00000F800F800F800F800F800F800F800001C
:106CB000000000000000E007E007E007E007E00751
:106CC000E007E007E007E007E007E007E007E0078C
:106CD000E007E007E007E007E00700000000000031
:106CE00000001F001F001F001F001F001F001F00CB
:106CF0001F001F001F001F001F001F001F001F009C
:106D00001F001F001F000000000000000000000026
:106D10000000000000000000000000000000000073
:106D20000000000000000000000000000000000063
:106D30000000000000000000000000000000000053
:106D40000000000000000000000000000000000043
:106D50000000000000000000000000000000000033
:106D60000000000000000000000000000000000023
:106D70000000000000000000000000000000000013
:106D80000000000000000000000000F800F800F81B
:106D900000F800F800F800F800F800F800F800F833
:106DA00000F800F800F800F800F800F800F800001B
:106DB000000000000000E007E007E007E007E00750
:106DC000E007E007E007E007E007E007E007E0078B
:106DD000E007E007E007E007E00700000000000030
:106DE00000001F001F001F001F001F001F001F00CA
:106DF0001F001F001F001F001F001F001F001F009B
:106E00001F001F001F000000000000000000000025
:106E10000000000000000000000000000000000072
:106E20000000000000000000000000000000000062
:106E30000000000000000000000000000000000052
:106E40000000000000000000000000000000000042
:106E50000000000000000000000000000000000032
:106E60000000000000000000000000000000000022
:106E70000000000000000000000000000000000012
:106E80000000000000000000000000F800F800F81A
:106E900000F800F800F800F800F800F800F800F832
:106EA00000F800F800F800F800F800F800F800001A
:106EB000000000000000E007E007E007E007E0074F
:106EC000E007E007E007E007E007E007E007E0078A
:106ED000E007E007E007E007E0070000000000002F
:106EE00000001F001F001F001F001F001F001F00C9
:106EF0001F001F001F001F001F001F001F001F009A
:106F00001F001F001F000000000000000000000024
:106F10000000000000000000000000000000000071
:106F20000000000000000000000000000000000061
:106F30000000000000000000000000000000000051
:106F40000000000000000000000000000000000041
:107480000000000000000000A874010800000024B3
:10749000D80000005492000880750108D80000242C
:1074A00090AD0000649200080000000000000000A1
:1074B00000000000000000000000000010000000BC
:1074C000010000000090D0030090D00300000000F5
:1074D0000000200A98070000A198000800000000A2
:1074E00000000000A9990008B598000865990008F7
:1074F0001D99000899980008000000000000000095
:107500000000FFFF0000000000000000758200087E
:107510006D7D000857870008057E0008757D00080E
:1075200061880008B5810008B58A0008BD8100089F
:1075300069880008957E0008D58000081180000841
:107540008580000871810008CD810008818B0008CA
:10755000398200084982000840000000C000000095
:10756000800000000000000020000000600000001B
:10757000E0000000A000000000000000000000008B
:040000050800029954
:00000001FF
