:020000040800F2
:1000000090040020B1020008672200083521000892
:10001000652200081D030008A52A00080000000052
:10002000000000000000000000000000552900084A
:100030009503000800000000692200085729000805
:10004000CB020008CB020008CB020008CB0200085C
:10005000CB020008CB020008CB020008CB0200084C
:10006000CB020008CB020008CB020008CB0200083C
:10007000CB020008CB020008CB020008CB0200082C
:10008000CB020008CB020008CB020008CB0200081C
:10009000CB020008CB020008CB020008CB0200080C
:1000A000CB020008CB020008CB020008CB020008FC
:1000B000CB020008CB020008CB020008CB020008EC
:1000C000CB020008CB020008CB020008CB020008DC
:1000D000CB020008CB020008CB020008CB020008CC
:1000E000CB020008CB02000800000000CB02000891
:1000F000CB020008CB020008CB020008CB020008AC
:10010000CB020008CB020008CB020008CB0200089B
:10011000CB020008CB020008CB020008CB0200088B
:10012000CB020008CB020008CB020008CB0200087B
:10013000CB020008CB020008CB020008CB0200086B
:1001400000000000000000000000000000000000AF
:10015000CB020008CB020008CB020008CB0200084B
:10016000CB020008CB020008CB020008CB0200083B
:10017000CB020008CB020008CB020008CB0200082B
:10018000CB020008CB020008CB020008CB0200081B
:10019000CB020008CB020008CB020008CB0200080B
:1001A000CB020008CB020008CB020008CB020008FB
:1001B000CB020008CB020008CB020008CB020008EB
:1001C000CB020008CB020008CB020008CB020008DB
:1001D000CB020008CB020008CB020008CB020008CB
:1001E000CB020008CB020008CB020008CB020008BB
:1001F000CB020008CB020008CB020008CB020008AB
:10020000CB020008CB020008CB020008CB0200089A
:10021000CB020008CB020008CB020008CB0200088A
:10022000CB020008CB020008CB020008000000004F
:10023000CB020008CB02000800000000CB0200083F
:10024000CB020008CB020008CB020008CB0200085A
:10025000CB020008CB020008CB020008CB0200084A
:10026000CB020008CB020008CB020008CB0200083A
:10027000CB020008CB020008CB02000800000000FF
:10028000CB020008CB020008CB02000800000000EF
:1002900000000000CB020008DFF810D000F02CF8BE
:1002A00000480047AD2B0008AFF300809004002009
:1002B0000648804706480047FEE7FEE7FEE7FEE700
:1002C000FEE7FEE7FEE7FEE7FEE7FEE7092A000895
:1002D00099020008D2B201E000F8012B491EFBD2BE
:1002E00070470022F6E710B513460A460446194641
:1002F000FFF7F0FF204610BD064C074D06E0E06812
:1003000040F0010394E8070098471034AC42F6D35C
:10031000FFF7C6FF602F0008802F0008FEE70000EF
:1003200070B5BFF34F8FBFF36F8F1848002103687C
:10033000174A23F4003303601160BFF34F8FBFF3FC
:100340006F8F124A70321160BFF34F8F016821F432
:1003500080310160BFF34F8F101F43F6FF730068B9
:100360000B4D2435C0F34E31C0F3C90203EA4114EA
:10037000104600BF44EA80762E60401EFAD2491E25
:10038000F4D2BFF34F8FBFF36F8F70BD14ED00E059
:1003900050EF00E07047704770B5044600F0F4F984
:1003A0000546601C02D004480078044400F0ECF9D3
:1003B000401BA042FAD370BD080000202DE9F04F89
:1003C0004F4D00224FF0010A4FF00F0B92E000BF9B
:1003D0000AFA02F919EA01037ED022F0030606F1B7
:1003E000B0469407D6F808C4270FDFF818810BFA37
:1003F00007FE40450EEA0C0402D14FF0000C40E02D
:10040000DFF804C1604502D14FF0010C39E0DFF89C
:10041000FCC0604502D14FF0020C32E0DFF8F0C0C2
:10042000604502D14FF0030C2BE0DFF8E8C06045D7
:1004300002D14FF0040C24E0DFF8DCC0604502D1AB
:100440004FF0050C1DE0DFF8D4C0604502D14FF03D
:10045000060C16E0DFF8C8C0604502D14FF0070C6B
:100460000FE0DFF8C0C0604502D14FF0080C08E093
:10047000DFF8B4C0604502D14FF0090C01E04FF045
:100480000A0C0CFA07FCA44513D12C689C432C6081
:100490006F684FF0B0449F436F6067689F43676029
:1004A00027689F432760D6F8084424EA0E04C6F85C
:1004B000084407680323D4084FEA42084FEA427C05
:1004C00003FA08F34FEADC6C1F4307600BFA0CF6E3
:1004D00000EB8404276A00E00BE0B7432762C4689E
:1004E0009C43C460446824EA0904446084689C43D3
:1004F0008460521C31FA02F37FF46AAFBDE8F08FDA
:1005000080000058000002580004025800080258F9
:10051000000C02580010025800140258001802582B
:10052000001C025800200258002402582DE9F84F00
:1005300003247D4D00234FF001094FF0B04B4FF0E5
:100540000F0AE9E009FA03F73A4076D00E7906F08F
:100550000306012E01D0022E18D1D0F808C04FEAB0
:10056000430ECE6804FA0EF82CEA080C06FA0EF6D2
:1005700046EA0C068660D0F804C00E792CEA070C17
:10058000C6F300169E4046EA0C0646600E79F64316
:10059000B6070BD0C6684FEA43088F6804FA08FC18
:1005A00026EA0C0607FA08F73743C7600E7906F00B
:1005B0000306022E12D1DE080F694FEA437C00EBDE
:1005C0008606B646366A4FEADC6C0AFA0CF807FA79
:1005D0000CF726EA08063743CEF820700F79066834
:1005E0004FEA430807F0030704FA08FC07FA08F784
:1005F00026EA0C06374307604E6816F4403F1CD0CD
:100600004A4E376847F00207376036689F0706F0A2
:100610000206009623F0030606F1B046B6463F0FE9
:10062000D6F80864DFF808810AFA07FC404526EA94
:100630000C0603D14FF0000C41E06CE0DFF8F4C091
:10064000604502D14FF0010C39E0DFF8ECC06045A5
:1006500002D14FF0020C32E0DFF8E0C0604502D179
:100660004FF0030C2BE0DFF8D8C0604502D14FF00B
:10067000040C24E0DFF8CCC0604502D14FF0050C3B
:100680001DE0DFF8C4C0604502D14FF0060C16E053
:10069000DFF8B8C0604502D14FF0070C0FE0DFF87B
:1006A000B0C0604502D14FF0080C08E0DFF8A4C0EC
:1006B000604502D14FF0090C01E04FF00A0C0CFA32
:1006C00007FC4CEA060CCEF808C44F68DBF8006063
:1006D000FF0226EA020600D516435F46CBF800600B
:1006E000D1F804C0DBF804605FEA8C2C26EA02062D
:1006F00000D516437E606E684F6826EA0206BF0387
:1007000000D516436E602E684F6826EA0206FF0386
:1007100000D516432E605B1C0A6832FA03F67FF49C
:1007200011AFBDE8F88F000080000058F444025873
:10073000000002580004025800080258000C025839
:10074000001002580014025800180258001C0258E9
:1007500000200258002402580069084000D00120FF
:100760007047426921EA02030A4043EA024181617B
:1007700070470AB1816170470904FBE701480068CE
:10078000000C70470010005C014880687047000052
:100790000800002002488168027811448160704797
:1007A00008000020032010B500F078F801F0F6F8FA
:1007B0000F4A104914681368C4F3032203F00F03AF
:1007C0008A5CC95C02F01F0201F01F01D0400A4A96
:1007D00020FA01F1116009490860002000F010F8CA
:1007E00008B1012010BD00F02BF8002010BD000062
:1007F00018440258502F0008180000201400002050
:1008000070B50D4D04462878A0B14FF47A71B1FB54
:10081000F0F00A490968B1FBF0F001F078FC48B942
:10082000102C07D200222146501E00F017F800209D
:100830006C6070BD012070BD080000201400002015
:10084000054808B5016841F002010160006800F048
:100850000200009008BD0000F44402580E4BF0B4B2
:100860001B680D46C3F30223C3F10706042E00D90B
:100870000426191D072901D2002300E0DB1E0124F4
:1008800004FA06F19C40491E2940641E9940144018
:100890002143F0BC02F04AB90CED00E0064900F03B
:1008A000070210B54FF6FF040868044B204040EAE9
:1008B00002201843086010BD0CED00E00000FA05AE
:1008C000134970B50A68D243520705D5096801F08B
:1008D0000701814213D118E00A6822F0070202439F
:1008E0000A60FFF751FF0A4D4FF47A760446083D3F
:1008F00007E000BFFFF748FF001BB04201D901200D
:1009000070BD2868C0438004F4D4002070BD00008E
:100910000C4802580248016841F480710160704738
:10092000004802582DE9F84F1E4615468A460446EF
:10093000FFF72AFF814694F8400001280ED00127D6
:100940004FF0000884F8407094F84100012807D067
:100950005FF0020084F84080BDE8F88F0220FBE7DA
:100960004221C4F8448084F84110002220214B46E3
:100970002046009601F017FE0028EBD12168286878
:1009800088622168686848622168A868C86220682F
:100990002969026822F4400242F480021143016096
:1009A000E9684FF000622046CAF82810514601F06D
:1009B00093FC01224B4608212046009601F0F3FDEE
:1009C0000028C7D122680821D16084F84170C1E7AE
:1009D0002DE9F84F17468B460446FFF7D5FE8246B1
:1009E00094F8400001280ED001264FF0000884F84A
:1009F000406094F84100012807D0022584F8408027
:100A00002846BDE8F88F0220FBE74FF00209C4F842
:100A1000448084F8419000222021534620460097CC
:100A200001F0C1FD0500E9D100225946204601F040
:100A300053FCDBF8240058B901225346022120461A
:100A4000009701F0B0FD0500D8D12168C1F80C90E5
:100A500084F84160D2E710B504000CD0206801682A
:100A600021F001010160204600F0A4F8002060643C
:100A700084F8410010BD012010BD0000F8B5044607
:100A8000FFF782FE05461CB194F8410010B107E063
:100A90000120F8BD204600F0B1F841F28830A06492
:100AA00020686FF0FF02A168036802EB012223F4C3
:100AB000706111430160A06C002220212B46009040
:100AC000204601F070FD0028E3D12268D4E9073503
:100AD0002679E168176845EA0665DFF844C01943DE
:100AE000104B29430025012607EA0C073943116002
:100AF0002268D4E90517B4F810C0D2F804E03943ED
:100B00000EEA030E4EEA0C431943516021680A684D
:100B100042F001020A60656484F84160F8BD00009B
:100B20002FFFFF00FEF8E0FF2DE9F8431646884648
:100B30000446FFF729FE034694F8400001280ED032
:100B4000012084F84000002794F84100012808D0D3
:100B50005FF0020584F840702846BDE8F883022063
:100B6000FBE7A06C8221676484F8411000222021F9
:100B70000090204601F017FD0500EBD12068726857
:100B8000016821F0080111430160706808280AD14A
:100B900022681021306810632068C16020680168F5
:100BA00041F4801101604FF040624146204601F05F
:100BB00093FBCFE710B500680B49884213D10B486F
:100BC000016821F48041016009480421FFF7F6FB28
:100BD00008484421FFF7F2FBBDE8104006484FF4F7
:100BE0006051FFF7EBBB10BD00500052D4440258D7
:100BF0000010025800040258000C02582DE9F04180
:100C0000B6B0044614212FA8FFF76BFBBC21684641
:100C1000FFF767FB3249206888425DD14FF00070D2
:100C2000009000246846129400F020F908B1FFF704
:100C3000B2FB2C48016841F480410160006800F477
:100C40008040349027480C30016841F01001016069
:100C5000016801F010013491016841F00201016066
:100C6000016801F002013491016841F0080101605E
:100C70000068032609274FF0040800F00800CDF8AB
:100C8000BC80329602252FA9CDE933701648CDE9F4
:100C90003054FFF74BFCCDE92F8531AADFF84C80AB
:100CA0002FA9404682E8D000FFF740FC4FF4605087
:100CB00031AACDE92F050E482FA982E8D000FFF711
:100CC00035FC0A2131944020CDE93261CDE92F0570
:100CD0002FA94046FFF72AFC36B0BDE8F08100009E
:100CE00000500052D4440258001002580004025828
:100CF000000C02582DE9F84F15460E460446FFF742
:100D000043FD82462068816994F8403000F1200953
:100D1000012B0DD001274FF0000884F8407094F8A3
:100D20004120012A06D0022084F84080BDE8F88FD7
:100D30000220FBE7C4F84480A6B3222284F84120B5
:100D40000269521CA2630269521C626326634269F3
:100D500022F0406242F080624261206881610EE0D0
:100D60000621204601F01FFCC8B999F80000216B4C
:100D70000870206B401C2063A06B401EA063A06B1A
:100D800053464FF0010200950028E9D14FF00201CF
:100D9000204601F008FC10B922680221D16084F8D5
:100DA0004170C1E7FFE7616C012041F00801616417
:100DB000BAE700002DE9F84F15460E460446FFF746
:100DC000E3FC94F8401082462068012900F12009D4
:100DD0000ED001274FF0000884F8407094F84110BD
:100DE000012907D05FF0020084F84080BDE8F88F49
:100DF0000220FBE7C4F8448086B3122184F8411036
:100E00000169491CE1620169491CA162666241698C
:100E100021F0406141610EE00421204601F0C3FB56
:100E2000C8B9606A017889F80010606A401C606285
:100E3000E06A401EE062E06A53464FF0010200950E
:100E40000028E9D14FF00201204601F0ACFB10B9B7
:100E500022680221D16084F84170C5E7FFE7616C28
:100E6000012041F008016164BEE700002DE9FC5F4C
:100E7000044650F8241B002500902E460801FE4F22
:100E8000DFF8F8831DD5606E50B1B0F5801F0CD02F
:100E9000B0F5001F0ED0B0F5401F1DD001250FE0AA
:100EA000386840F40030386016E00221201D01F05F
:100EB000E3FB03E00098022101F06EFC05000BD07B
:100EC0002E462088C00523D5606D05281ED2DFE898
:100ED00000F00C11161B1B00626ED8F8001021F4F4
:100EE00040111143C8F80010EBE7386840F40030B7
:100EF000386009E00021201D01F0BEFB03E00098EE
:100F0000002101F049FC05466DB100E001252E46A7
:100F10002088800528D5A06D80281ED00CDC90B1DB
:100F200040280ED114E0626DD8F8001021F00701BE
:100F30001143C8F80010EBE7C02813D0B0F5807F4C
:100F400010D001250FE0386840F40030386009E027
:100F50000021201D01F090FB03E00098002101F02A
:100F60001BFC054695B12E462088DFF810934005FE
:100F700009F108092CD5D4F8A400B0F5800F20D0D1
:100F80000DDCA0B1B0F5001F0FD115E0A26DD8F8AF
:100F9000001021F4E0711143C8F80010E4E7B0F547
:100FA000C00F13D0B0F5000F10D001250FE0386846
:100FB00040F40030386009E00021201D01F05CFBA6
:100FC00003E00098002101F0E7FB054675B12E46CD
:100FD000208800052DD5D4F8A800B0F1007F21D0DD
:100FE0000EDCA8B1B0F1807F10D116E0D4F8A420B7
:100FF000D9F8001021F460011143C9F80010E7E7A7
:10100000B0F1407F13D0B0F1806F10D001250FE018
:10101000386840F40030386009E00021201D01F0FC
:101020002BFB03E00098002101F0B6FB05466DB1F3
:101030002E46206880011FD5A06CD8B110280FD093
:10104000202812D0302815D0012514E0D4F8A8208B
:10105000D9F8001021F0E0611143C9F80010E8E769
:10106000386840F40030386004E00221201D01F0AF
:1010700003FB05466DB12E462088C0042BD5E06DDC
:10108000B0F5005F20D00DDCA0B1B0F5805F0FD1CE
:1010900015E07A48A26C001F016821F0300111436D
:1010A0000160E9E7B0F5405F13D0B0F5804F10D094
:1010B00001250FE0386840F40030386009E0002175
:1010C000201D01F0D9FA03E00098002101F064FB33
:1010D000054685B12E462088800429D5206EB0F5BE
:1010E000403F23D010DC08B3B0F5803F14D0B0F5FA
:1010F000003F0FD115E0E26DD8F8001021F4E04177
:101100001143C8F80010E6E7B0F5802F0ED0B0F517
:10111000A02F0BD001250AE00121201D01F0ACFA1F
:1011200003E00098012101F037FB05468DB12E4602
:10113000208840042AD5D4F8AC00B0F1405F23D019
:1011400010DC08B3B0F1805F14D0B0F1005F0FD1B4
:1011500015E0226ED8F8001021F4E0211143C8F800
:101160000010E5E7B0F1804F0ED0B0F1A04F0BD0EA
:1011700001250AE00121201D01F07EFA03E000981C
:10118000012101F009FB05466DB12E4620880004BF
:101190001FD5E06ED8B1B0F1805F0ED0B0F1005F26
:1011A00010D0012514E0D4F8AC20D9F8001021F0BB
:1011B000E0411143C9F80010E8E7386840F4003016
:1011C000386004E00121201D01F056FA05466DB19A
:1011D0002E462068C0011ED5606CD0B101280ED00B
:1011E000022811D0032814D0012513E0E26ED8F8AC
:1011F000001021F040511143C8F80010E9E73868A9
:1012000040F40030386004E00221201D01F034FA7F
:10121000054685B12E462068DFF85CB04002ABF190
:101220001C0B57D51648016841F480710160FFF727
:10123000ABFA82460EE01148626C001F016821F093
:10124000030111430160E6E7FFF79EFAA0EB0A00F5
:1012500064283DD80A480068C005F5D57DBBDFF895
:101260001CA0B4F8B0200AF1200ADAF8001002F449
:10127000407001F4407105E02C440258504402587B
:1012800000480258814211D0DAF80010DAF8002044
:1012900021F4407142F48032CAF80020DAF80020CC
:1012A00022F48032CAF80020CAF80010D4F8B00046
:1012B000B0F5807F21D1FFF767FA019019E008E0CF
:1012C000FFF762FA0199411A41F28830814210D940
:1012D00003252E462078DFF844A4C0073DD0A06F38
:1012E000182838D026DC80B3082829D0102825D12A
:1012F0002CE0DAF800008007E2D5D4F8B010C1F392
:101300000120032858460DD0016821F47C5101606A
:10131000B4F8B020DAF80010C2F30B021143CAF897
:101320000010D7E7FE4A036802EA111223F47C5149
:101330001143ECE720280ED028280CD001250BE023
:101340000121201D01F098F904E004E0009801213A
:1013500001F022FA05465DB12E46207880071ED5A1
:10136000606F062819D2DFE800F0160C1116161669
:10137000A26FDAF8001021F038011143CAF800100A
:10138000EBE70121201D01F077F903E0009801212E
:1013900001F002FA054675B100E001252E462078DD
:1013A00040071FD5D4F89000062819D2DFE800F0D6
:1013B000160C11161616626FDAF8001021F00701EC
:1013C0001143CAF80010EAE70121201D01F054F989
:1013D00003E00098012101F0DFF905469DB100E02E
:1013E00001252E46207880062BD5D4F88C00B0F14C
:1013F000405F24D011DC10B3B0F1805F15D0B0F1A4
:10140000005F10D116E0D4F89020D9F8001021F038
:1014100007011143C9F80010E4E7B0F1804F0ED086
:10142000B0F1A04F0BD001250AE00021201D01F0F2
:1014300023F903E00098022101F0AEF905468DB1D1
:101440002E46207840062BD5D4F89800B0F5406F92
:1014500024D011DC10B3B0F5806F15D0B0F5006F5B
:1014600010D116E0D4F88C20DAF8001021F0E04119
:101470001143CAF80010E4E7B0F5805F0ED0B0F574
:10148000A05F0BD001250AE00021201D01F0F4F837
:1014900003E00098022101F07FF905468DB12E4648
:1014A000207800062BD5D4F89C00B0F5C04F24D08E
:1014B00011DC10B3B0F5005F15D0B0F5804F10D13E
:1014C00016E0D4F89820D9F8001021F4E051114327
:1014D000C9F80010E4E7B0F5004F0ED0B0F5204F8A
:1014E0000BD001250AE00021201D01F0C5F803E022
:1014F0000098022101F050F905464DB12E462078A2
:1015000000071ED5D4F88000B0F5805F0AD00FE048
:10151000D4F89C20D9F8001021F460411143C9F897
:101520000010ECE70098022101F036F900B1012625
:10153000D4F88020DAF8001021F440511143CAF8A1
:1015400000102078C00613D5D4F89400B0F5807F41
:1015500005D10098022101F01FF900B10126D4F84D
:101560009420D9F8001021F440711143C9F80010FB
:101570002068000316D5D4F8A00038B1B0F5803F3C
:1015800009D0B0F5003F0BD001250AE00021201D55
:1015900001F072F803E00098022101F0FDF8054621
:1015A00085B12E462068400322D5D4F88400B0F5DA
:1015B000801F11D0B0F5001F13D0B0F5401F15D01B
:1015C000012514E0D4F8A020D9F8001021F440310E
:1015D0001143C9F80010E5E7386840F4003038607E
:1015E00004E00098012101F0D7F8054655B12E46D8
:1015F0002068C0031CD5E06C70B1B0F5803F10D0FE
:10160000012514E0D4F88420DAF8001021F4401108
:101610001143CAF80010EBE7386840F40030386036
:1016200004E00221201D01F027F80546CDB12E4629
:101630002068800005D50098022101F0ADF800B1C6
:101640000126206880031BD5E06FB8B1B0F5807F1C
:1016500010D0B0F5007F11D0B0F5407F0ED001253D
:101660000DE02E48E26C0838016821F48031114306
:101670000160DDE7386840F400303860F5B32E468D
:101680002068C00207D5226FD8F8001021F0004171
:101690001143C8F800102068C00008D5D4F8B42061
:1016A000DBF8001021F480411143CBF800102068D2
:1016B000800207D5A26ED8F8001021F08071114386
:1016C000C8F80010206840000CD5DBF8001021F4A9
:1016D0000041CBF80010DBF80010D4F8B82011431B
:1016E000CBF800102068002807DA0C48226D083873
:1016F000016821F040511143016000E014E02068CE
:10170000000208D5D4F88820DAF8001021F440014E
:101710001143CAF8001086B1012003E05444025876
:10172000CFFFFF00BDE8FC9FE26FDAF8001021F464
:1017300040711143CAF80010A2E70020EDE7000055
:101740002DE9F05F04000F467ED0DFF83882D8F82C
:10175000000000F00F00B8420CD2D8F8001021F0C1
:101760000F013943C8F80010D8F8000000F00F004E
:10177000B84269D12078844D40070AD5206929688C
:1017800001F07001884204D9296821F070010143F9
:10179000296020787C4E361D00070AD560693168C3
:1017A00001F07001884204D9316821F070010143D1
:1017B00031602078C0060AD5A069316801F4E06183
:1017C000884204D9316821F4E06101433160207816
:1017D000DFF8B4B180060BF1080B0CD5E16958466F
:1017E000DBF8002002F07002914204D9026822F076
:1017F00070020A430260207880070AD5E0682968F1
:1018000001F00F01884204D9296821F00F0101433A
:1018100029602078C0073ED05B49A2682868183943
:1018200020F47060104328606068022818D00328F4
:1018300019D00968012819D0490700294ADADFF8C8
:1018400048A1AAF1080A00E044E0DAF8002022F0FA
:1018500007020243CAF80020FEF796FF814612E015
:1018600009688903E9E709688901E6E7C905E4E74A
:10187000FEF78AFFA0EB090141F28830814202D9CC
:101880000320BDE8F09F6168DAF8000000F038003E
:10189000B0EBC10FECD1207880070AD5E068296849
:1018A00001F00F01884204D2296821F00F010143A1
:1018B0002960D8F80010404601F00F01B9420BD959
:1018C000016821F00F0139430160006800F00F004A
:1018D000B84201D00120D4E7207840070AD520691A
:1018E000296801F07001884204D2296821F0700152
:1018F00001432960207800070AD56069316801F04A
:101900007001884204D2316821F0700101433160D6
:101910002078C0060AD5A069316801F4E0618842E8
:1019200004D2316821F4E0610143316020788006FF
:101930000CD5E1695846DBF8002002F070029142B4
:1019400004D2026822F070020A43026000F026F816
:101950000E492A682B68C2F3032203F00F038A5C46
:10196000C95C02F01F0201F01F01D040084A20FAB2
:1019700001F111600749086007480068BDE8F05FA1
:10198000FEF73EBF0020005218440258502F0008B6
:1019900018000020140000200C000020454970B5FC
:1019A00045480968434B103B11F0380208D001113B
:1019B000082A03D0102A0BD0182A0BD0084670BD75
:1019C00019688906FBD51968C1F3C101C84070BD0B
:1019D0003A4870BD3749374D18310C1D24350A6817
:1019E000096826682D6802F0030406F00102C1F3BD
:1019F0000511C5F3CC0515FB02F200EE102AB8EE76
:101A0000400AE9B32F4ADFED2E0AB7EE001A6CB197
:101A1000DFED2D1A012C01D0022C43D002EE101A5A
:101A20001068F8EE422A81EEA22A1EE01C68A40685
:101A300011D51B6801EE901A1168C3F3C103F8EECB
:101A4000612AD84001EE900AC1F30800F8EE611A4D
:101A500081EEA22A0BE001EE901ADFED1C2A00BFF6
:101A6000F8EE611A106882EEA12AC0F3080001EEB8
:101A7000900AF8EE611A40EE201A31EE810A00E079
:101A800015E022EE000A1068C0F34620401C00EE6C
:101A9000900AF8EE600A80EE201ABCEEC10A10EE41
:101AA000100A70BD01EE901ADFED092AD8E7002078
:101AB00070BD0000104402580090D00340787D01B2
:101AC00000000039304402580024744A0024744C49
:101AD00020BCBE4B2DE9F05F04007DD0FF4F207885
:101AE000FE4D1837DFF8F493103DC00748D0D9F801
:101AF0000000396800F03800102815D0182803D1EC
:101B000001F0030002280FD06068B0F5803F12D0CA
:101B100010B1B0F5A02F18D0286820F480302860CC
:101B2000286820F4802009E02868800328D56068B0
:101B30000028D2D024E0286840F480302860606813
:101B400088B1FEF721FE064609E0286840F48020AF
:101B50002860F0E7FEF718FE801B64286FD828681D
:101B60008003F7D50CE0FEF70FFE064605E000BF48
:101B7000FEF70AFE801B6428F0D828688003F7D49B
:101B8000207841F20308D54E0C3E800769D5D9F87C
:101B90000000396810F038000ED0182801D18807ED
:101BA0000AD0E06890B3296821F019010143296047
:101BB000FEF7EAFD824631E02868400702D5E0687A
:101BC00000288AD0E168286820F0190008432860BE
:101BD000FEF7DAFD824607E0DFE000BFFEF7D4FD46
:101BE000A0EB0A000228B9D828684007F6D500BF44
:101BF000FEF7C4FD40451BD82069402812D031684B
:101C000021F47C3141EA003030602AE018E000BF66
:101C1000FEF7BAFDA0EB0A0002289FD8286840070B
:101C2000F6D5E5E7306820F47C3040F40030EBE78F
:101C3000207C316821F0FE4141EA0060E4E70DE1DB
:101C4000286820F001002860FEF79EFD824605E02E
:101C5000FEF79AFDA0EB0A0002288DD828684007FD
:101C6000F6D42078C0065DD5D9F80000DFF86CB254
:101C7000396800F03800ABF1040B082810D01828A0
:101C800003D101F0030001280AD0E0690028286888
:101C900038D040F080002860FEF776FD824623E0D1
:101CA0002868C00523D5E069802876D11FE0206A26
:101CB000202821D0316821F0F84141EA806030606D
:101CC00030E000BF94F82010DBF8002022F07C52B6
:101CD00042EA0161CBF8001024E000BFFEF754FD9A
:101CE000A0EB0A00022898D82868C005F6D5FEF7B0
:101CF00045FD4045E6D8DAE7306820F0F84040F08E
:101D00008040DCE720F080002860FEF73DFD0646BD
:101D100005E000BFFEF738FD801B02289DD828682B
:101D2000C005F7D42078000729D56C486169643074
:101D300000298046016811D041F001010160FEF7E1
:101D400023FD064605E000BFFEF71EFD801B0228AE
:101D5000C9D8D8F800008007F6D510E021F00101BD
:101D60000160FEF711FD064605E000BFFEF70CFD21
:101D7000801B022872D8D8F800008007F6D420789B
:101D8000800623D5A0690028286810D040F4805030
:101D90002860FEF7F9FC064605E02CE1FEF7F4FCAE
:101DA000801B02285AD828688004F7D50EE020F45A
:101DB00080502860FEF7E8FC064604E0FEF7E4FCED
:101DC000801B02284AD828688004F7D4207840076E
:101DD0004FD5DFF80C81D8F8001041F48071C8F8B5
:101DE0000010FEF7D1FC064605E000BFFEF7CCFC74
:101DF000801B642832D8D8F80000C005F6D5374ECD
:101E0000A068603601280AD008B1052813D03068D0
:101E100020F001003060306820F0040002E03068FB
:101E200040F001003060A06841F2883A90B1FEF7BE
:101E3000ABFC80460AE0306840F004003060EEE71A
:101E4000FEF7A2FCA0EB0801514507D830688007D7
:101E5000F6D50EE0FEF798FC804607E084E000BF70
:101E6000FEF792FCA0EB080151457DD83068800751
:101E7000F6D4606AB0B3DFF86480D9F8001008F1D6
:101E80002008C1F3C20103296FD00228286820F07E
:101E90008070286003D0FEF777FC044680E0FEF7F0
:101EA00073FC064605E000BFFEF76EFC801B0228AF
:101EB00073D828688001F7D4E26A40F2F3313868B9
:101EC00054F8283F884340EA021018433860217BC9
:101ED0004FF4FE0C22894FF0FE4704E010440258F4
:101EE0000048025889E0208A4902521E267DA1F549
:101EF000007189B2401EC2F308021143761E0CEA3B
:101F0000004001433E4807EA066211433C4AC8F8D4
:101F100000100832016821F00101016011684FF6DC
:101F2000F876236AB14341EAC30111600168A269EE
:101F300021F00C01114301600168E26921F0020106
:101F400011430160016841F480310160016841F48E
:101F500000310160016841F480210160016841F0B5
:101F600001010160286801E017E01DE040F0807089
:101F70002860FEF709FC044605E000BFFEF704FCFC
:101F8000001B022809D828688001F7D535E000BF7A
:101F9000FEF7FAFB001B022802D90320BDE8F09FE0
:101FA00028688001F4D428E039680128D8F80000B6
:101FB00021D0A26A01F0030393421CD1E26AC1F36B
:101FC00005118A4217D1216BC0F30802491E8A42CB
:101FD00011D1616BC0F34622491E91420BD1A16B16
:101FE000C0F30642491E914205D1E16BC0F3066081
:101FF000491E814201D00120D0E70020CEE7000039
:102000002C44025870B504004FF0010041D094F800
:10201000210028B9002084F82000204600F03CF878
:10202000022184F82110CA202268532150622068BE
:102030004162204600F040FC18BB2068154A8168C8
:1020400011408160D4E90013A569226988682A4398
:1020500018431043886022682189E06840EA014003
:102060001061204600F04CFC58B92168CA6C22F07F
:102070000302CA6422686369E169D56C1943294384
:10208000D1642268FF215162002802D1012184F825
:10209000211070BDBFFF8FFF10B5B0B00446BC214A
:1020A0006846FEF71EF90A49206888420ED10002F0
:1020B0000090811368462C91FEF7D8FE08B1FEF718
:1020C0006AF90448016841F40041016030B010BD74
:1020D000004000587044025870B504460068C1685A
:1020E00021F0A001C160FEF74FFB4FF47A76054660
:1020F00007E000BFFEF748FB401BB04201D90320B8
:1021000070BD2068C0688006F4D5002070BD401EF8
:10211000B0F1807F10B501D3012010BD4FF0E02455
:1021200060610F21601700F001FD0020A061072110
:10213000216110BDFEE7000030B587B0142168466C
:10214000FEF7CFF82648016841F0100101600168F0
:1021500001F010010591016841F00401016001687E
:1021600001F004010591016841F0800101600168FE
:1021700001F080010591016841F0020101600168F0
:1021800001F002010591016841F008010160016858
:1021900001F008010591016841F00101016000684A
:1021A0000022104D082100F0010005902846FEF79E
:1021B000E0FA0024082001218DE813006946284632
:1021C0000394FEF7B3F902214FF400500090064843
:1021D000CDE901416946FEF7A9F907B030BD00001D
:1021E000E044025800100258000802582DE9F0415E
:1021F0000D4801210B4F20231024162580C04FF4D9
:10220000E066002280E87A00C0E90512C261001F82
:10221000FEF734FC002803D0BDE8F041FEF7BBB860
:10222000BDE8F081005000521C0000200C48002145
:102230000A4A7F2310B5FF2404C080E81A00C16059
:10224000416181610161001FFFF7DCFE002803D0BE
:10225000BDE81040FEF79FB810BD000000400058D8
:1022600068000020FEE7704770470000194B00220D
:1022700030B597B01B78052B0ED000BF4FF44073DC
:102280000E934FF005030B92CDE908320F92109296
:1022900005D14FF0807304E04FF48073F0E74FF006
:1022A000407311934FF001030D9213924FF4800588
:1022B0004FF010041492CDE902231592079504946F
:1022C000CDE9053202AA0B4608A9FEF72BFB17B091
:1022D00030BD0000000000202DE9F0434B6A4FF0B4
:1022E00040652BB1AA4203D004688B6A5B1E236150
:1022F0008B69002B68D00C6AB4B303688C68DC610E
:10230000CC69FCB1D1E90B38D1F824C04E6B8F8A6F
:1023100043EA080346EA0C0633430E6A43EA87435E
:10232000D1E9037C43EA0C0333438E693B430F68D6
:102330002343046833433B4365E000684968816197
:10234000BDE8F083D1E90B364F6A4C6B8D8A33437D
:102350003C430E6923430C6A43EA85438D6933434A
:10236000096823432B4362E0FFE7CC69B4F100091D
:1023700018D0D1E90B484F6A4E6BB1F814C044EA4B
:1023800008043E430F683443CE6844EA8C44344327
:1023900044EA09041C4303683C431443AA425C61B9
:1023A000CBD1CDE7D1E90B464F6A4D6BB1F814C0E4
:1023B00034433D4300682C43096844EA8C441C4381
:1023C0000C4314434461BBE70B6AABB303688C68EE
:1023D000DC61CC69E4B1D1E90B38D1F824C04E6B93
:1023E0008F8A43EA080346EA0C0633430E6A43EA3F
:1023F0008743D1E9037C43EA0C0333438E693B43B3
:102400002343046833431343AA42636195D197E79A
:10241000D1E90B364F6A4C6B8D8A33433C430E69CE
:1024200023430C6A43EA85438969334323430068A5
:102430000B431343436183E7FFE7CC6984B1D1E9E0
:102440000B384F6A4E6BB1F814C043EA08033E43A1
:102450003343CE6843EA8C43334323430468D2E7D3
:102460004C6A002C9DD0D1E90B368F8A4D6B0168E8
:10247000334325432B4343EA8740104348615FE7DA
:102480001E4AF0B5137891B0042B1BD04FF4807224
:102490000692EF2700224FF44064CDE901274FF464
:1024A0000055CDE90352260107AD4FF0407C0629C7
:1024B0004FF0040185E8501007D0EB240094042B62
:1024C00009D009E04FF44072E2E7ED230093059153
:1024D000DC070B9402E006210B9205914FF080512E
:1024E0000F920E92CDE90C210EAA6946FEF71CFB55
:1024F000002800D0012011B0F0BD00000000002035
:10250000F0B58FB00646002141F288344FF4807058
:10251000224666250095CDE90601089130460991CD
:1025200005910B910C910D916946FEF751FAC8B9CE
:1025300099272246694630460097FEF749FA88B93E
:102540004FF4407022466946009506903046FEF7EB
:102550003FFA38B92246694630460097FEF738FA06
:10256000002800D001200FB0F0BDF0B58FB014AC42
:1025700094E8E05000248DE81600CDE90334CDF84E
:1025800024C041F28832CDE90774CDE90AE40C9405
:1025900069460D94CDE90556FEF71AFA002800D0D9
:1025A00001200FB0F0BD2DE9F041984616460F46C8
:1025B0000446069D08E0681C06D0FEF7E5F8A0EB8F
:1025C0000800A8420AD84DB120688068384000D081
:1025D0000120B042EFD10020BDE8F081042084F852
:1025E0004100606C40F0010060640120F4E70000ED
:1025F000F0B5204D074695B02878042815D04FF443
:1026000080700690002441F28836062007940894D2
:1026100032460594694609940B940C940D940090ED
:102620003846FEF7D5F9F0B902E04FF44070E8E71C
:1026300002204FF0050C1022CDF800C04305139383
:102640000E900121CDE90F02CDE91114287804285C
:102650000CD0080633460EAA694609903846FEF7A4
:1026600061F9002800D0012015B0F0BD4FF0407096
:10267000F0E70000000000202DE9F047454D04463A
:1026800089464FF0000A2868C04380070AD0414EAF
:10269000283E306820F080603060FEF775F807460D
:1026A000B04608E00120BDE8F08700BFFEF76CF8F7
:1026B000C01B022867D8D8F800000001F6D42068B3
:1026C00029684FF4FE0721F47C313E0241EA0030D4
:1026D0002860207AA389B4F804C040022D4D2D490A
:1026E0005B1E227CACF1010C1035091DA0F50070B9
:1026F00080B2521ECCF3080C07EA034340EA0C00F8
:10270000184306EA0262104328600868626920F0F4
:10271000C000104308600A68A06922F0200202434A
:102720000A60281D0A6822F010020A6002684FF64B
:10273000F873E4699A4342EAC40202600868B9F196
:10274000000F40F010020A6011D00868B9F1010FC3
:1027500011D040F400100860D8F80000444640F062
:102760008060C8F80000FEF70FF805460DE0086825
:1027700040F40020EFE740F48010ECE7FEF704F8A7
:10278000401B022801D903208DE720680001F5D500
:10279000504688E7284402582DE9F047454D044645
:1027A00089464FF0000A2868C04380070AD0414E8E
:1027B000283E306820F080503060FDF7E5FF074686
:1027C000B04608E00120BDE8F08700BFFDF7DCFF60
:1027D000C01B022867D8D8F800008000F6D42088F3
:1027E00029684FF4FE0721F07C713E0241EA005057
:1027F0002860207AA389B4F804C040022D4D2D49E9
:102800005B1E227CACF1010C1835091DA0F500708F
:1028100080B2521ECCF3080C07EA034340EA0C00D6
:10282000184306EA0262104328600868626920F4CF
:102830004060104308600A68A06922F400720243F5
:102840000A60281D0A6822F480720A6002684FF646
:10285000F873E4699A4342EAC40202600868B9F175
:10286000000F40F480720A6011D00868B9F1010FBE
:1028700011D040F080700860D8F80000444640F065
:102880008050C8F80000FDF77FFF05460DE008689E
:1028900040F48000EFE740F40000ECE7FDF774FF40
:1028A000401B022801D903208DE720688000F5D560
:1028B000504688E7284402582DE9F0410446006854
:1028C0000025C168490617D4691EC160FDF75CFF89
:1028D000032706464FF47A7808E000BFFDF754FF5F
:1028E000801B404502D9032584F821702068C06808
:1028F000400601D4032DF1D12846BDE8F081000047
:102900002DE9F041124C032706460025E06820F02F
:102910004000E060A068800607D43046FFF7DCFB8B
:1029200090B1032586F821700EE0A06820F0200009
:10293000A0603046FFF7D0FB10B1032586F8217068
:10294000A06840F02000A0602846BDE8F0810000AB
:10295000004000587047FDF71DBF0000F0B59DB066
:102960004C216846FDF7BDFC202113A8FDF7B9FCFA
:102970000220FDF7A5FF21490A68214822F0010243
:102980000A600968016821F4404141F40041016096
:102990000168002401F440411B9101688904FCD5C1
:1029A000FDF7B8FFFDF7EAFE164B052101221E6870
:1029B0000220082526F018071F60C6030292602334
:1029C0000990CDE900160AAE86E80B00CDE90D02AC
:1029D000CDE910540F9068461294FFF77BF813AAC4
:1029E0003F20032182E833000221179413A8189492
:1029F00019941A94FEF7A4FE1DB0F0BD2C040058E3
:102A00001848025870440258214A30B521491468C8
:102A10000020204B44F47004146010330A681E4DEB
:102A200042F001020A6018600A681A4B2A400A60E4
:102A300018331C1D251D174A186028322060131DED
:102A400028601C1D251D10602A1D1860131D2060A4
:102A50001C1D2860251D10601860206028600A6811
:102A60000C4B0E4C22F4802260330A601860206800
:102A70006FF30F00B0F1005F03D209490120C1F8E4
:102A800008014FF0006002498039086030BD000045
:102A900088ED00E0004402587FEDF6EA0010005C8B
:102AA00000800051FEE700001A4BF0B51B78054688
:102AB000EB20042B8FB029D004244FF480730090B6
:102AC0004FF40050FF27CDE9054300234FF4406445
:102AD00007944FF0407CCDE9030326010C93CDE928
:102AE0000A230D9341F28834CDE901170A482246A2
:102AF000CDE9086C6946FDF76BFF002804D1064854
:102B000022462946FEF7F6F80FB0F0BD06244FF432
:102B10004073D4E7000000201C000020024810B5DC
:102B2000FFF766FDC0B210BD1C0000200907002899
:102B30004FEA116104DB00F1E02080F800147047D7
:102B400000F00F0000F1E02080F8141D704702E053
:102B500008C8121F08C1002AFAD170477047002028
:102B600001E001C1121F002AFBD1704700F1E041D2
:102B700008B504226846FFF797FF0A49009801400C
:102B8000B1F1105F0CD0B1F1005F09D0C0F3CA41C0
:102B9000B1F5C06F04D00449084000D0012008BD41
:102BA000002008BD0000F82F0000F83F5149002424
:102BB0000868800311D4BFF34F8FBFF36F8F4E4867
:102BC0000460BFF34F8FBFF36F8F086840F400308D
:102BD0000860BFF34F8FBFF36F8F0868C00323D423
:102BE000444870300460BFF34F8F001F43F6FF76F8
:102BF0000068414D1035C0F34E32C0F3C90306EAF8
:102C00004217184647EA807CC5F800C0401EF9D23A
:102C1000521EF4D2BFF34F8F086840F48030086032
:102C2000BFF34F8FBFF36F8FFDF7BCFDFFF796FE2D
:102C3000FFF782FAFFF7FAFA00F0DAF800F06CF822
:102C4000062000F053F9DFF8B4804FF400573946FE
:102C50004046FDF781FD2A4D01284FF0E02630D196
:102C6000322004E008212846FDF77BFD5020FDF7C7
:102C700093FB39464046FDF76FFD0128F2D021480D
:102C8000FDF7E9FE4FF6FF771F483946FDF796FB43
:102C90001E483946FDF792FB39464046FDF78EFB4C
:102CA0001B483946FDF78AFB39462846FDF786FB67
:102CB000FDF736FB346117494868096881F30888D5
:102CC00080474FF010473846FFF750FF38B9FDF7FF
:102CD00027FB34617868396881F3088880474FF4AE
:102CE000FA7428460821FDF73CFD2046FDF754FB09
:102CF000F7E7000014ED00E050EF00E00008025894
:102D0000001002581C000020000002580004025865
:102D1000000C02580098F01F30B5184D352085B0D2
:102D200000F090F80446800706D4FFF7F7FE312044
:102D300044F0020100F0E6F800204FF480710346F1
:102D40000246CDE9011038210390049000902846F6
:102D5000FFF70BFC41F288312846FFF787FA10B1E4
:102D600005B0012030BD06490420087005B00821D7
:102D70000846BDE8304000F08FB800001C0000207D
:102D800000000020184A062030B5C1051478420220
:102D900087B0052C4FF4005316D0C50104900024D1
:102DA0001248CDE9022190212246CDE9004500BF1D
:102DB000FFF7DBFB0D4805A941F28832FDF79AFFCA
:102DC00068B1012007B030BDCDE903104FF4807425
:102DD0000090CDE90142002204489421E8E7BDF8C3
:102DE000140040BAEEE70000000000201C000020A4
:102DF000052010B5FDF7D0FAFFF7F8F90648FFF700
:102E00007FFB0020FDF7C8FAFFF7BCFF03494880AD
:102E1000BDE8104000F004B81C00002000000020B5
:102E2000052010B500F00EF8054C2070352000F09C
:102E300009F86070152000F005F8A070002010BDA2
:102E40000400002010B5124B86B0002201218DF83D
:102E500014201B78052B17D04FF040731C140491DD
:102E6000CDE9022300230146CDE9002409481A4692
:102E7000FFF77BFB074805A941F28832FDF73AFFCF
:102E80009DF8140006B010BD4FF080731C14E6E7E7
:102E9000000000201C00002040084FF0FF3200B569
:102EA00087B0000102EBD101103801F003010843A3
:102EB0008DF81400FFF732FE4FF04072002013141B
:102EC00001210491CDE90202CDE90003C0210346AE
:102ED00002460548FFF749FB034805A941F288323D
:102EE000FDF768FF07B000BD1C0000200146044844
:102EF00010B5FFF7C5FA002800D0012010BD000072
:102F00001C00002013B51049002286B00B78012167
:102F1000052B15D04FF040731C140491CDE902230A
:102F200000230146CDE9002408481A46FFF71DFB9F
:102F3000064807A941F28832FDF73CFF08B010BDF2
:102F40004FF080731C14E8E7000000201C000020F4
:102F5000000000000102030401020304060708093F
:102F6000802F0008000000201C0000004E2B0008ED
:102F70009C2F00081C000020740400005E2B000839
:102F8000050000000000000001000000100000002B
:0C2F9000000000000090D0030090D0036F
:040000050800029954
:00000001FF
