:020000040800F2
:10000000E862002491030008FB4700080D3E000849
:10001000F9470008950900089983000800000000CE
:10002000000000000000000000000000CD67000894
:10003000210A00080000000077490008D96700087D
:10004000AB030008AB030008AB030008AB030008D8
:10005000AB030008AB030008AB030008AB030008C8
:10006000AB030008AB030008AB030008AB030008B8
:10007000AB030008AB030008AB030008AB030008A8
:10008000AB030008AB030008AB030008AB03000898
:10009000AB030008AB030008AB030008AB03000888
:1000A000AB030008AB030008AB030008AB03000878
:1000B000AB030008AB030008AB030008AB03000868
:1000C000AB030008AB030008AB030008AB03000858
:1000D000AB030008AB030008AB030008AB03000848
:1000E000AB030008AB03000800000000AB030008EE
:1000F000AB030008AB030008AB030008AB03000828
:10010000AB030008AB030008AB030008AB03000817
:10011000AB030008AB030008AB030008AB03000807
:10012000AB030008AB030008AB030008AB030008F7
:10013000AB030008AB030008AB030008AB030008E7
:1001400000000000000000000000000000000000AF
:10015000AB030008AB030008AB030008AB030008C7
:10016000AB030008AB030008AB030008AB030008B7
:10017000AB030008AB030008AB030008000000005D
:10018000AB030008AB030008AB030008AB03000897
:10019000AB030008AB030008AB030008AB03000887
:1001A000AB030008AB030008AB030008AB03000877
:1001B000AB030008AB030008AB030008AB03000867
:1001C000AB030008AB030008AB030008AB03000857
:1001D000AB030008FD470008AB030008AB030008B1
:1001E000AB030008AB030008AB030008AB03000837
:1001F000AB030008AB030008AB030008AB03000827
:10020000AB030008AB030008AB030008AB03000816
:10021000AB030008AB030008AB030008AB03000806
:10022000AB030008AB030008AB03000800000000AC
:10023000AB030008AB03000800000000AB0300089C
:10024000AB030008AB030008AB030008AB030008D6
:10025000AB030008AB030008AB030008AB030008C6
:10026000AB030008AB030008AB030008AB030008B6
:10027000AB030008AB030008AB030008000000005C
:10028000AB030008AB030008AB030008000000004C
:1002900000000000AB03000800F002F800F068F86E
:1002A0000AA090E8000C82448344AAF10107DA45D1
:1002B00001D100F05DF8AFF2090EBAE80F0013F0BB
:1002C000010F18BFFB1A43F001031847749D00008B
:1002D000949D00000A444FF0000C10F8013B13F00D
:1002E000070408BF10F8014B1D1108BF10F8015B8F
:1002F000641E05D010F8016B641E01F8016BF9D182
:1003000013F0080F1EBF10F8014BAD1C0C1B09D1D8
:100310006D1E58BF01F801CBFAD505E014F8016B4A
:1003200001F8016B6D1EF9D59142D6D370470000DC
:100330000023002400250026103A28BF78C1FBD8EE
:10034000520728BF30C148BF0B607047642900F0D6
:10035000DD80782900F01681002070471FB509F074
:1003600057F89DE8030000F0B1F91FBD10B510BDAE
:1003700000F08EFA1146FFF7F1FF08F0B7FE00F02B
:10038000ACFA03B4FFF7F2FF03BC00F0DDFA0000A3
:100390000948804709480047FEE7FEE7FEE7FEE719
:1003A000FEE7FEE7FEE7FEE7FEE7FEE70448054955
:1003B000054A064B7047000089680008990200084A
:1003C000E8220024E8620024E8420024E8420024F5
:1003D00070B5064600F05EF9056806F10B0020F0E6
:1003E0000704B4429CBF002070BD2B466A68BAB1B6
:1003F0001068A04210D304F1080188423CBF506845
:10040000586007D35168101941601168091B0160D9
:1004100058601460101D70BD13465268002AE7D161
:100420002146284600F03EF90028DED170BD70B5A7
:100430000446051F00F02EF90068002C14BF446824
:1004400070BD002C18BFAC423CBF20466468F8D396
:1004500001680A18AA4218BF456003D12A680546F8
:100460001144016028684119A1421CBF6C6070BD35
:100470006168696021680844286070BD0FB41CB5CC
:10048000074B06AA7B4469460090059800F0BDF929
:100490000020694600F0CCF91CBC5DF814FB00009C
:1004A000A90300002DE9F0410E4604460020206219
:1004B0002046E168884730B3252805D0D4E90121DA
:1004C0009047206A401CF2E7E168204600278847F1
:1004D000050018D0A5F14100192802D820354FF4A5
:1004E00000673246294620462760FFF72FFF40B1BC
:1004F000012804D0F61D26F007060836D8E7361D79
:10050000D6E72846DAE7206ABDE8F0812DE9F04118
:100510000646002410687529314616A510D0AFF3A1
:100520000080002802DA404213A507E031688A07FC
:1005300001D512A502E0490704D511A5012401E067
:10054000AFF3008000210A2206F1240709E0B0FB86
:10055000F2FCB0FBF2F302FB1C003030785418467A
:10056000491C0028F3D123462A463046BDE8F04115
:1005700000F0EDB8000000002D0000002B0000008E
:100580002000000070B504460D4621461068AFF308
:1005900000802188090502D50F4A7A4402E00E4AFC
:1005A0007A440E32002104F1240305E000F00F0626
:1005B0000009965D5E54491C0028F7D1207800237D
:1005C000000704D5702D02D009B102231132204654
:1005D000BDE8704000F0BBB83899000010B5203A73
:1005E000C0F00B80B1E81850203AA0E81850B1E8EC
:1005F0001850A0E81850BFF4F5AF5FEA027C24BFA2
:10060000B1E81850A0E8185044BF18C918C0BDE898
:1006100010405FEA827C24BF51F8043B40F8043B61
:1006200008BF7047D20728BF31F8023B48BF11F816
:10063000012B28BF20F8023B48BF00F8012B704770
:100640004FF0000200B5134694469646203922BF6B
:10065000A0E80C50A0E80C50B1F12001BFF4F7AFB6
:10066000090728BFA0E80C5048BF0CC05DF804EB98
:10067000890028BF40F8042B08BF704748BF20F806
:10068000022B11F0804F18BF00F8012B7047704704
:1006900070477047004870479022002470477047A9
:1006A0007047704738B504460A4600206946AFF3E4
:1006B0000080002808BF38BD02460099204600F09F
:1006C000C5F8012038BD012000F0DAB8F8B5AFF365
:1006D0000080054600200C46102000BF0646A819E1
:1006E000A0420DD9324669460020AFF300800700D2
:1006F00008BF00F0C5F80098A04218BF0546C4190D
:10070000FFF7C8FF05600746F01D20F007004619F7
:10071000284600F00AF8B44208BFF8BDA21B3146D3
:100720003868BDE8F84000F091B800210160C0E9E8
:10073000011070471020704710B500F083F8006872
:1007400010BD10B5044600F07DF8046010BD2DE921
:10075000F0470D4699469246044600F12408016888
:10076000880604D5E06921F01001216000E0012035
:10077000A84201DD471B00E00027A1697A1902EBBE
:100780000900081AA0612078C00602D42046AFF301
:100790000080002608E0D4E901211AF806009047FD
:1007A000206A401C761C20624E45F4DB2078C0068F
:1007B0000AD52046AFF3008006E0D4E901213020BD
:1007C0009047206A401C2062381EA7F10107F4DC24
:1007D00007E0D4E9012118F805009047206A401C81
:1007E0002062281EA5F10105F3DC2046AFF300804E
:1007F0002078000602D50220BDE8F0870120FBE743
:1008000001694A1C02610878704700B58FB0CDE9D4
:1008100001310021059105497944CDE903101146C4
:100820006846FFF73FFE0FB000BD0000E5FFFFFF89
:100830000A6802F8010B0A60704700000048704720
:10084000882200240048704788220024034640681C
:100850008C46002818BF88423CBF03464068F8D346
:1008600018681844884207D00CF1030020F00700F4
:10087000001D411A521A0146081D0A60FFF7D7BD34
:1008800010B500F039F8BDE8104000F02FB87047FF
:100890007546FFF7D3FFAE4605006946534620F084
:1008A0000700854618B020B5FFF780FDBDE8204061
:1008B0004FF000064FF000074FF000084FF0000B1C
:1008C00021F00701AC46ACE8C009ACE8C009ACE8CF
:1008D000C009ACE8C0098D46704710B50446AFF3B7
:1008E00000802046BDE81040FFF74BBD002801D036
:1008F00000F02AB87047000010B5012805D000218B
:1009000003A000F027F8012010BD09A1F8E70000BE
:1009100053494752544D454D3A204F7574206F66E8
:100920002068656170206D656D6F72790000000050
:100930003A2048656170206D656D6F727920636F34
:10094000727275707465640001491820ABBEFEE7D1
:100950002600020070B505460C460A2000E06D1C1A
:1009600000F011F835B128780028F8D102E0641CB5
:1009700000F009F814B120780028F8D1BDE87040E3
:100980000A20AFF3008008B569468DF80000032007
:10099000ABBE08BDFEE700001F4B0020F0B5196894
:1009A000890311D4BFF34F8FBFF36F8F1B490860CA
:1009B000BFF34F8FBFF36F8F196841F40031196097
:1009C000BFF34F8FBFF36F8F1968C90323D4124948
:1009D00070310860BFF34F8F081F43F6FF74006843
:1009E0000E4D1035C0F34E31C0F3C90204EA411672
:1009F000104600BF46EA80772F60401EFAD2491E9B
:100A0000F4D2BFF34F8F186840F480301860BFF302
:100A10004F8FBFF36F8FF0BD14ED00E050EF00E09B
:100A20007047704770B5044600F03AF90546601CFF
:100A300002D004480078044400F032F9401BA04280
:100A4000FAD370BD700000242DE9FC4F01257E4CC7
:100A500000234FF0030A4FF0B04E4FF00F0BEBE0C6
:100A600005FA03F637403A0077D04F68012F05D0DA
:100A7000022F03D0112F01D0122F1AD187684FEA0D
:100A80004308D1F80CC00AFA08F927EA09070CFA5A
:100A900008FC4CEA070CC0F808C0476891F804C08D
:100AA000B743CCF3001C0CFA03FC4CEA070CC0F86B
:100AB00004C0C6684FEA430CD1F80880E1460AFA40
:100AC0000CF7BE43019708FA09F848EA0608C0F88F
:100AD0000C804E68022E01D0122E12D1DE084FEA91
:100AE000437C00EB860600960F69366A4FEADC6CA1
:100AF0000BFA0CF807FA0CF726EA08063743009EB3
:100B000037620E790768DDF804C006F0030606FABE
:100B100009F627EA0C073E4306604E68F6001CD52E
:100B20004A4E376847F00207376036689F0706F07D
:100B30000206009623F0030606F1B046B1463F0FC9
:100B4000D6F80864DFF808810BFA07FC404526EA6E
:100B50000C0603D14FF0000C41E06CE0DFF8F4C06C
:100B6000604502D14FF0010C39E0DFF8ECC0604580
:100B700002D14FF0020C32E0DFF8E0C0604502D154
:100B80004FF0030C2BE0DFF8D8C0604502D14FF0E6
:100B9000040C24E0DFF8CCC0604502D14FF0050C16
:100BA0001DE0DFF8C4C0604502D14FF0060C16E02E
:100BB000DFF8B8C0604502D14FF0070C0FE0DFF856
:100BC000B0C0604502D14FF0080C08E0DFF8A4C0C7
:100BD000604502D14FF0090C01E04FF00A0C0CFA0D
:100BE00007FC4CEA060CC9F808C426684F6826EAD8
:100BF0000206FF0300D51643266066684F6826EAA2
:100C00000206BF0300D516436660D1F804C07646DD
:100C1000DEF800705FEACC2C27EA020700D5174304
:100C20003760D1F804C077685FEA8C2C27EA0207A6
:100C300000D5174377605B1C0A681746DA407FF4DB
:100C40000FAFBDE8FC8F000080000058F44402584C
:100C5000000002580004025800080258000C025814
:100C6000001002580014025800180258001C0258C4
:100C700000200258002402580AB18161704709041B
:100C8000FBE7000002480068C0F30B00704700005B
:100C90000010005C01480068000C70470010005C08
:100CA000014880687047000070000024074908B5BB
:100CB0000A6842F002020A60096801F0020100912C
:100CC00003490A6802430A6008BD0000F444025860
:100CD000040400580248816802781144816070471A
:100CE00070000024032010B500F0D4F801F0E2FDFC
:100CF0000F4A104914681368C4F3032203F00F036A
:100D00008A5CC95C02F01F0201F01F01D0400A4A50
:100D100020FA01F1116009490860002000F010F884
:100D200008B1012010BD00F079F8002010BD0000CE
:100D30001844025862940008800000247C000024BB
:100D400070B50D4D04462878A0B14FF47A71B1FB0F
:100D5000F0F00A490968B1FBF0F002F047FE48B92B
:100D6000102C07D200222146501E00F073F80020FC
:100D70006C6070BD012070BD700000247C000024F8
:100D8000F0B5154C4378211D0A1D23600378F3B19B
:100D900043680B60057BC67A817A437B2D07847B91
:100DA00045EA0665C77B90F809C0067A90F800E02E
:100DB00045EAC14040EA834040EA444040EA0740F7
:100DC00040EA0C2040EA460040EA0E0001E0002024
:100DD00008601060F0BD000098ED00E0BFF35F8F89
:100DE000044800210368034A23F48033036070320F
:100DF0001160704724ED00E0074A40F00100064909
:100E000070321060086840F480300860BFF34F8F84
:100E1000BFF36F8F7047000024ED00E0054808B570
:100E2000016841F002010160006800F002000090DA
:100E300008BD0000F4440258002809DB410900F015
:100E40001F028900012001F1E0219040C1F800015A
:100E5000704700000E4BF0B41B680D46C3F302232D
:100E6000C3F10706042E00D90426191D072901D253
:100E7000002300E0DB1E012404FA06F19C40491E19
:100E80002940641E994014402143F0BC07F00EBD78
:100E90000CED00E0064900F0070210B54FF6FF0424
:100EA0000868044B204040EA02201843086010BD47
:100EB0000CED00E00000FA0501680123C0F8FC33E6
:100EC000002280F8F4238869044A40F000608861B9
:100ED000486D104348650020704700000300001073
:100EE00070470068416200207047F0B503685D6A92
:100EF00039B19F6A4C1E00204FF4827605EB1745EE
:100F00000BE045EA0240986210E0471C06EB8000C7
:100F100053F800C0F8B205EB1C45A042F5D34FF4DE
:100F2000807000EB810045EA02421A500020F0BDBB
:100F3000D0F8040406F0FBB8C1EBC10200EB82025A
:100F4000D0F80404926C06F068B8C1EBC10200EB63
:100F50008202D0F80404D2F8082206F0B2B8D0F821
:100F6000040406F0E6B801F00F020B0670B5C2EB00
:100F7000C20104464FF001004FF0000504EB81016F
:100F800003D581F83D003C3103E081F8FD5101F5C6
:100F9000FE710A7094F8BC23012A08D084F8BC03BF
:100FA000206806F079FD002084F8BC5370BD022053
:100FB00070BD70B54268044601F00F00904201D93F
:100FC000012070BD01F00F024FF000050B06C2EBCF
:100FD000C2014FF0010204EB810103D581F83D20ED
:100FE0003C3103E081F8FD5101F5FE718D70087010
:100FF00094F8BC03012808D084F8BC23206806F0CC
:1010000049FF002084F8BC5370BD022070BD10B5AC
:10101000044690F8BC0301280AD0012084F8BC03E0
:1010200020680A0606D501F00F0107F095F803E0E5
:10103000022010BD07F080F8002084F8BC0310BD2A
:1010400001F00F01C1EBC10100EB8100D0F81402E7
:1010500070472DE9F04101F00F0604460D064FF0F0
:101060000100C6EBC6014FF0000504EB810103D57A
:1010700081F83D003C3103E081F8FD5101F5FE713E
:101080004F788A60CB700E7007B1CE80022B00D1F2
:101090000D7194F8BC23012A09D084F8BC032068A0
:1010A00006F04CFC284684F8BC53BDE8F0810220D1
:1010B000FBE770B501F00F050C460026C5EBC50136
:1010C00000EB8101C1F80822C1E9843681F8FD6195
:1010D00081F8FC5101F5FE710369012B00D10A6111
:1010E0002207027C006803D006F02CFF002070BDB0
:1010F00006F016FEFAE770B50D464168044605F0A5
:101100000F00884201D9012070BD29064FF000066A
:101110004FF0010207D5C0EBC00104EB810181F85B
:101120003D203C3107E0C5EBC50104EB810181F8AE
:10113000FD6101F5FE718A70087094F8BC03012806
:1011400007D084F8BC23206806F0D0FE280702D020
:1011500007E0022070BD217C04F57172206806F062
:101160006DFE002084F8BC6370BD2DE9F04101F0F4
:101170000F050C460026C5EBC501012700EB8101D8
:101180008A64C1E9143681F83D7001F83C5F036957
:10119000012B00D10A612207027C006804D006F00E
:1011A000D1FE0020BDE8F08106F0BAFDF9E70000AD
:1011B0002DE9FC5F05680446284606F0ECFF002890
:1011C0007ED1206807F013F8002879D0206807F056
:1011D0000EF8800704D52068416901F002014161E1
:1011E000206807F004F8C10604F57170009034D54A
:1011F0002068816921F0100181612F6A07F00F01D9
:10120000C7F34340C1EBC101022804EB810606F598
:10121000FE7602D0062811D01AE047F6F070074299
:1012200016D0C7F30A12F1681746284606F0E3FF06
:10123000F168B0693944F160384408E00099082247
:10124000284606F0D8FFB069C7F30A110844B06118
:101250002068816941F010018161206806F0C7FFB4
:1012600000034FF001094FF0080B5BD52068002602
:1012700006F09CFFDFF8A8A3074651E0F8074DD021
:101280002068F1B206F0ABFF8046C00707D005EB3F
:101290004611C1F8089B3146204603F0B5FA5FEAD3
:1012A000087022D505EB4611C1F808BB2068016C17
:1012B00000EB461001915145D0F8081B07D900E01A
:1012C000ABE1090403D54FF40041C0F8081B2046E8
:1012D00000F09AFA0198504507D92069012804D1F5
:1012E00020680121009A06F0A9FD5FEAC86004D5D4
:1012F00005EB46111020C1F8080B5FEA886004D5A1
:1013000005EB46102021C0F8081B5FEA884005D590
:1013100005EB46114FF40050C1F8080B7F08761C0E
:10132000002FABD1206806F062FF40034FF0000AA7
:101330005CD5206806F033FF0026074654E0F80726
:1013400050D02068F1B206F038FF8046C00723D0A5
:10135000D5F8342806F00F0C05EB461309FA0CF00B
:101360008243C5F83428C3F80899206901280FD1B1
:10137000C6EBC60004EB8000D0E911121144816471
:1013800036B9206D20B920680121009A06F056FD7B
:101390002046F1B2FFF7D0FD5FEA087003D505EBF8
:1013A0004611C1F808B95FEAC86004D505EB4611DB
:1013B0001020C1F808095FEA486004D505EB461122
:1013C0004020C1F808095FEA887004D505EB461192
:1013D0000220C1F808095FEA086003D531462046BB
:1013E00003F078FA7F08761C002FA8D1206806F059
:1013F000FEFE002811DAD5F8040820F00100C5F837
:10140000040894F8F403012839D0204600F0E0F9EC
:101410002068416901F000414161206806F0E7FE63
:1014200000050BD5D5F80808C00702D0204600F00B
:1014300013FA2068416901F400614161206806F0F7
:10144000D6FE00010AD52068416901F000614161C2
:1014500094F8F403D0B1204600F0FEF9206806F0BD
:10146000C6FEC00476D5D5F8040820F00100C5F802
:1014700004082068102106F06FFE002135E00021ED
:10148000204684F8F4A3FFF72BFDC1E784F8F4931A
:101490002068406D0121C0F38300C4F8F8032046A2
:1014A000FFF71EFDDAE700BF05EB41104FF67F3274
:1014B000C0F80829D0F8003923F40013C0F8003927
:1014C000D0F8003943F00063C0F80039C0F8082BA9
:1014D000D0F8002B22F40012C0F8002BD0F8002B1B
:1014E00042F00062C0F8002B491C60688842DBD8DB
:1014F000D5F81C0840F00110C5F81C08206B60B13D
:10150000D5F8840840F00B00C5F88408D5F84408E5
:1015100040F00B00C5F844080CE0D5F8140842F27E
:101520002B010843C5F81408D5F8100840F00B004B
:10153000C5F81008D5F8000820F4FE60C5F80008CA
:10154000217C2068009A06F079FC2068416901F44A
:1015500080514161206806F04AFE800417D520685A
:1015600006F02CFA206806F009FEE06001F080F930
:101570000146207B2368C2B2184606F085FE20464D
:1015800000F010F92068416901F4005141612068C0
:1015900006F02DFE000707D5204600F01DF9206853
:1015A000416901F008014161206806F020FEC00297
:1015B00008D50021204600F035F82068416901F483
:1015C00080114161206806F012FE800208D50021DA
:1015D000204600F02BF82068416901F400114161B8
:1015E000206806F004FE400007D52046FFF7A0FC67
:1015F0002068416901F080414161206806F0F7FDF3
:1016000040070AD520684568680702D52046FFF7DD
:10161000A6FC2168486828434860BDE8FC9F00009C
:101620000A30544FD0F8040405F0E0BDD0F80404AB
:1016300005F0ECBD2DE9F04104008AB005D094F826
:10164000BD030025266820B108E001200AB0BDE8EE
:10165000F081204684F8BC5300F066F8032084F83B
:10166000BD03F06BC00500D42561206806F052FB75
:1016700004F11001684628228846FEF7AFFF94E87F
:101680000F0006F0A9F90227D8BB2068002106F058
:10169000D2FD0020012610E0C0EBC001421C04EB8B
:1016A000810181F83D6081F83F504D648D640D6586
:1016B00081F83C00A1F84200D0B261688142EBD8C9
:1016C000002011E0C0EBC001421C04EB810181F855
:1016D000FD5181F8FF51C1F80452C1F80852C1F818
:1016E000105281F8FC01D0B261688142EAD8282208
:1016F00041466846FEF772FF94E80F0006F04EFA86
:1017000010B184F8BD73A0E7606A84F8385084F89B
:10171000BD63012802D12046FFF7CEFB206806F00A
:101720002FFA002092E7000010B586B0044614217D
:101730006846FEF785FF1849206888422AD100F0E4
:10174000CDF81648016841F00101016000680A23E4
:10175000022200F00100059000204FF4C0510091DA
:101760006946CDE90120CDE903030D48FFF76CF987
:101770000A480838016841F00061016000680022F1
:10178000012100F0006005906520FFF763FB6520F4
:10179000FFF752FB06B010BD00000840E0440258BD
:1017A0000000025870B50446C068012570B10228D7
:1017B00001D0FFF736F9D4F80404294605F092FD6C
:1017C000D4F80404BDE8704005F045BD0025F2E7FB
:1017D000D0F8040405F06CBDD0F8040405F072BD27
:1017E00010B5044690F8BC0301280BD0012084F802
:1017F000381084F8BC03206806F034FD002084F81B
:10180000BC0310BD022010BDD0F8042400F5717196
:10181000104605F073BD10B590F8BC13044600687F
:10182000012906D0A26A012184F8BC13012A02D042
:1018300008E0022010BDA169012903D0816B41F4A9
:1018400080318163206806F071FC206806F08AF917
:10185000002084F8BC0310BD10B50446D0F8040481
:1018600005F08EFD2068D0F8001E41F00101C0F89F
:10187000001E206A002804D00248016841F00601D9
:10188000016010BD10ED00E0134970B50A68D24345
:10189000520705D5096801F00701814213D118E00C
:1018A0000A6822F0070202430A60FFF7F9F90A4DBD
:1018B0004FF47A760446083D07E000BFFFF7F0F9E1
:1018C000001BB04201D9012070BD2868C0438004CC
:1018D000F4D4002070BD00000C4802580248016892
:1018E00041F08071016070470C4802582DE9F84FB3
:1018F0001E4615468A460446FFF7D2F9814694F8FB
:10190000400001280ED001274FF0000884F84070F5
:1019100094F84100012807D05FF0020084F840806D
:10192000BDE8F88F0220FBE74221C4F8448084F828
:101930004110002220214B462046009603F099F9E1
:101940000028EBD1216828688862216868684862AD
:101950002168A868C86220682969026822F44002E8
:1019600042F4800211430160E9684FF000622046B2
:10197000CAF82810514603F055F801224B460821B9
:101980002046009603F075F90028C7D12268082187
:10199000D16084F84170C1E72DE9F84F17468B46B6
:1019A0000446FFF77DF9824694F8400001280ED0E6
:1019B00001264FF0000884F8406094F841000128A7
:1019C00007D0022584F840802846BDE8F88F022021
:1019D000FBE74FF00209C4F8448084F841900022EC
:1019E000202153462046009703F043F90500E9D132
:1019F00000225946204603F015F8DBF8240058B9B8
:101A00000122534602212046009703F032F90500D7
:101A1000D8D12168C1F80C9084F84160D2E7000069
:101A2000F8B50446FFF73CF905461CB194F84100AF
:101A300010B107E00120F8BD204600F047F841F260
:101A40008830A06420686FF0FF02A168036802EB91
:101A5000012223F4706111430160A06C0022202157
:101A60002B460090204603F004F90028E3D12268B9
:101A7000D4E907352679E168176845EA0665DFF895
:101A800044C01943104B29430025012607EA0C07DF
:101A9000394311602268D4E90517B4F810C0D2F8B0
:101AA00004E039430EEA030E4EEA0C431943516039
:101AB00021680A6842F001020A60656484F84160A6
:101AC000F8BD00002FFFFF00FEF8E0FF2DE9F04118
:101AD000B6B0044614212FA8FEF7B2FDBC2168461B
:101AE000FEF7AEFD33492068884260D14FF00070A8
:101AF000009000246846129400F022F908B1FEF725
:101B000090FF2D48016841F480410160006800F4B5
:101B10008040349028480C30016841F01001016089
:101B2000016801F010013491016841F00201016087
:101B3000016801F002013491016841F0080101607F
:101B40000068032609274FF0040800F00800CDF8CC
:101B5000BC80329602252FA9CDE933701748CDE914
:101B60003054FEF771FFCDE92F8531AADFF85080A0
:101B70002FA9404682E8D000FEF766FF4FF4605080
:101B800031AACDE92F050F482FA982E8D000FEF732
:101B90005BFF0A2131944020CDE93261CDE92F0568
:101BA0002FA94046FEF750FF1020FFF77FF836B010
:101BB000BDE8F08100500052D44402580010025891
:101BC00000040258000C02582DE9F84F15460E4645
:101BD0000446FFF765F882462068816994F8403032
:101BE00000F12009012B0DD001274FF0000884F8E7
:101BF000407094F84120012A06D0022084F84080E9
:101C0000BDE8F88F0220FBE7C4F84480A6B3222287
:101C100084F841200269521CA2630269521C62636B
:101C20002663426922F0406242F08062426120688D
:101C300081610EE00621204603F01BF8C8B999F82F
:101C40000000216B0870206B401C2063A06B401EBD
:101C5000A063A06B53464FF0010200950028E9D124
:101C60004FF00201204603F004F810B92268022167
:101C7000D16084F84170C1E7FFE7616C012041F059
:101C800008016164BAE700002DE9F84F15460E46D9
:101C90000446FFF705F894F84010824620680129B1
:101CA00000F120090ED001274FF0000884F84070A1
:101CB00094F84110012907D05FF0020084F84080B9
:101CC000BDE8F88F0220FBE7C4F8448086B31221F8
:101CD00084F841100169491CE1620169491CA16253
:101CE0006662416921F0406141610EE004212046B5
:101CF00002F0BFFFC8B9606A017889F80010606A15
:101D0000401C6062E06A401EE062E06A53464FF0A9
:101D1000010200950028E9D14FF00201204602F0AF
:101D2000A8FF10B922680221D16084F84170C5E78C
:101D3000FFE7616C012041F008016164BEE700002B
:101D40002DE9FC5F044650F8241B002500902E4628
:101D50000801FE4FDFF8F8831DD5606E50B1B0F575
:101D6000801F0CD0B0F5001F0ED0B0F5401F1DD065
:101D700001250FE0386840F40030386016E0022199
:101D8000201D02F0DFFF03E00098022103F06AF853
:101D900005000BD02E462088C00523D5606D052890
:101DA0001ED2DFE800F00C11161B1B00626ED8F883
:101DB000001021F440111143C8F80010EBE7386817
:101DC00040F40030386009E00021201D02F0BAFF25
:101DD00003E00098002103F045F805466DB100E0EE
:101DE00001252E462088800528D5A06D80281ED08C
:101DF0000CDC90B140280ED114E0626DD8F80010D0
:101E000021F007011143C8F80010EBE7C02813D0F8
:101E1000B0F5807F10D001250FE0386840F4003025
:101E2000386009E00021201D02F08CFF03E00098DB
:101E3000002103F017F8054695B12E462088DFF8FB
:101E40001093400509F108092CD5D4F8A400B0F589
:101E5000800F20D00DDCA0B1B0F5001F0FD115E030
:101E6000A26DD8F8001021F4E0711143C8F80010F9
:101E7000E4E7B0F5C00F13D0B0F5000F10D0012586
:101E80000FE0386840F40030386009E00021201D80
:101E900002F058FF03E00098002102F0E3FF05463E
:101EA00075B12E46208800052DD5D4F8A800B0F1D4
:101EB000007F21D00EDCA8B1B0F1807F10D116E0F8
:101EC000D4F8A420D9F8001021F460011143C9F816
:101ED0000010E7E7B0F1407F13D0B0F1806F10D071
:101EE00001250FE0386840F40030386009E0002137
:101EF000201D02F027FF03E00098002102F0B2FF4E
:101F000005466DB12E46206880011FD5A06CD8B162
:101F100010280FD0202812D0302815D0012514E029
:101F2000D4F8A820D9F8001021F0E0611143C9F8D5
:101F30000010E8E7386840F40030386004E002211F
:101F4000201D02F0FFFE05466DB12E462088C0041C
:101F50002BD5E06DB0F5005F20D00DDCA0B1B0F561
:101F6000805F0FD115E07A48A26C001F016821F054
:101F7000300111430160E9E7B0F5405F13D0B0F5DF
:101F8000804F10D001250FE0386840F400303860F1
:101F900009E00021201D02F0D5FE03E00098002199
:101FA00002F060FF054685B12E462088800429D5C1
:101FB000206EB0F5403F23D010DC08B3B0F5803F71
:101FC00014D0B0F5003F0FD115E0E26DD8F8001045
:101FD00021F4E0411143C8F80010E6E7B0F5802F86
:101FE0000ED0B0F5A02F0BD001250AE00121201D55
:101FF00002F0A8FE03E00098012102F033FF05463D
:102000008DB12E46208840042AD5D4F8AC00B0F11A
:10201000405F23D010DC08B3B0F1805F14D0B0F182
:10202000005F0FD115E0226ED8F8001021F4E021F6
:102030001143C8F80010E5E7B0F1804F0ED0B0F1C1
:10204000A04F0BD001250AE00121201D02F07AFEED
:1020500003E00098012102F005FF05466DB12E4610
:10206000208800041FD5E06ED8B1B0F1805F0ED09B
:10207000B0F1005F10D0012514E0D4F8AC20D9F8FD
:10208000001021F0E0411143C9F80010E8E738687A
:1020900040F40030386004E00121201D02F052FEBF
:1020A00005466DB12E462068C0011ED5606CD0B1CA
:1020B00001280ED0022811D0032814D0012513E0E6
:1020C000E26ED8F8001021F040511143C8F800101A
:1020D000E9E7386840F40030386004E00221201D50
:1020E00002F030FE054685B12E462068DFF85CB070
:1020F0004002ABF11C0B57D51648016841F48071C2
:102100000160FEF7CDFD82460EE01148626C001FB3
:10211000016821F0030111430160E6E7FEF7C0FD0D
:10212000A0EB0A0064283DD80A480068C005F5D530
:102130007DBBDFF81CA0B4F8B0200AF1200ADAF861
:10214000001002F4407001F4407105E02C44025884
:102150005044025800480258814211D0DAF8001069
:10216000DAF8002021F4407142F48032CAF80020ED
:10217000DAF8002022F48032CAF80020CAF80010F1
:10218000D4F8B000B0F5807F21D1FEF789FD019031
:1021900019E008E0FEF784FD0199411A41F2883008
:1021A000814210D903252E462078DFF844A4C007C9
:1021B0003DD0A06F182838D026DC80B3082829D05D
:1021C000102825D12CE0DAF800008007E2D5D4F8F9
:1021D000B010C1F30120032858460DD0016821F446
:1021E0007C510160B4F8B020DAF80010C2F30B02A1
:1021F0001143CAF80010D7E7FE4A036802EA111239
:1022000023F47C511143ECE720280ED028280CD071
:1022100001250BE00121201D02F094FD04E004E003
:102220000098012102F01EFE05465DB12E46207881
:1022300080071ED5606F062819D2DFE800F0160C63
:1022400011161616A26FDAF8001021F038011143AA
:10225000CAF80010EBE70121201D02F073FD03E036
:102260000098012102F0FEFD054675B100E0012550
:102270002E46207840071FD5D4F89000062819D2A2
:10228000DFE800F0160C11161616626FDAF800106F
:1022900021F007011143CAF80010EAE70121201DCF
:1022A00002F050FD03E00098012102F0DBFD05463D
:1022B0009DB100E001252E46207880062BD5D4F86C
:1022C0008C00B0F1405F24D011DC10B3B0F1805F1E
:1022D00015D0B0F1005F10D116E0D4F89020D9F8F5
:1022E000001021F007011143C9F80010E4E7B0F134
:1022F000804F0ED0B0F1A04F0BD001250AE0002195
:10230000201D02F01FFD03E00098022102F0AAFD4B
:1023100005468DB12E46207840062BD5D4F898007E
:10232000B0F5406F24D011DC10B3B0F5806F15D03C
:10233000B0F5006F10D116E0D4F88C20DAF8001058
:1023400021F0E0411143CAF80010E4E7B0F5805FE6
:102350000ED0B0F5A05F0BD001250AE00021201DB2
:1023600002F0F0FC03E00098022102F07BFD05463C
:102370008DB12E46207800062BD5D4F89C00B0F500
:10238000C04F24D011DC10B3B0F5005F15D0B0F50C
:10239000804F10D116E0D4F89820D9F8001021F41D
:1023A000E0511143C9F80010E4E7B0F5004F0ED03A
:1023B000B0F5204F0BD001250AE00021201D02F0CE
:1023C000C1FC03E00098022102F04CFD05464DB12E
:1023D0002E46207800071ED5D4F88000B0F5805F27
:1023E0000AD00FE0D4F89C20D9F8001021F4604105
:1023F0001143C9F80010ECE70098022102F032FD09
:1024000000B10126D4F88020DAF8001021F4405100
:102410001143CAF800102078C00613D5D4F89400F0
:10242000B0F5807F05D10098022102F01BFD00B1BC
:102430000126D4F89420D9F8001021F440711143FA
:10244000C9F800102068000316D5D4F8A00038B1F0
:10245000B0F5803F09D0B0F5003F0BD001250AE070
:102460000021201D02F06EFC03E00098022102F022
:10247000F9FC054685B12E462068400322D5D4F8E4
:102480008400B0F5801F11D0B0F5001F13D0B0F557
:10249000401F15D0012514E0D4F8A020D9F8001071
:1024A00021F440311143C9F80010E5E7386840F4E1
:1024B0000030386004E00098012102F0D3FC0546AA
:1024C00055B12E462068C0031CD5E06C70B1B0F544
:1024D000803F10D0012514E0D4F88420DAF80010F1
:1024E00021F440111143CAF80010EBE7386840F4BA
:1024F0000030386004E00221201D02F023FC054674
:10250000CDB12E462068800005D50098022102F04A
:10251000A9FC00B10126206880031BD5E06FB8B18B
:10252000B0F5807F10D0B0F5007F11D0B0F5407FBE
:102530000ED001250DE02E48E26C0838016821F428
:10254000803111430160DDE7386840F400303860C5
:10255000F5B32E462068C00207D5226FD8F80010C8
:1025600021F000411143C8F800102068C00008D5D0
:10257000D4F8B420DBF8001021F480411143CBF8EB
:1025800000102068800207D5A26ED8F8001021F054
:1025900080711143C8F80010206840000CD5DBF8AA
:1025A000001021F40041CBF80010DBF80010D4F843
:1025B000B8201143CBF800102068002807DA0C4837
:1025C000226D0838016821F040511143016000E09C
:1025D00014E02068000208D5D4F88820DAF800104A
:1025E00021F440011143CAF8001086B1012003E034
:1025F00054440258CFFFFF00BDE8FC9FE26FDAF8B9
:10260000001021F440711143CAF80010A2E7002025
:10261000EDE700002DE9F05F04000F467ED0DFF803
:102620003882D8F8000000F00F00B8420CD2D8F879
:10263000001021F00F013943C8F80010D8F800004D
:1026400000F00F00B84269D12078844D40070AD5C8
:102650002069296801F07001884204D9296821F0B5
:1026600070010143296020787C4E361D00070AD591
:102670006069316801F07001884204D9316821F045
:102680007001014331602078C0060AD5A069316825
:1026900001F4E061884204D9316821F4E06101432A
:1026A00031602078DFF8B4B180060BF1080B0CD54F
:1026B000E1695846DBF8002002F07002914204D92B
:1026C000026822F070020A430260207880070AD56F
:1026D000E068296801F00F01884204D9296821F0D7
:1026E0000F01014329602078C0073ED05B49A268F2
:1026F0002868183920F47060104328606068022848
:1027000018D0032819D00968012819D049070029D1
:102710004ADADFF848A1AAF1080A00E044E0DAF852
:10272000002022F007020243CAF80020FEF7B8FAA0
:10273000814612E009688903E9E709688901E6E74B
:10274000C905E4E7FEF7ACFAA0EB090141F28830D5
:10275000814202D90320BDE8F09F6168DAF80000E9
:1027600000F03800B0EBC10FECD1207880070AD51B
:10277000E068296801F00F01884204D2296821F03D
:102780000F0101432960D8F80010404601F00F0105
:10279000B9420BD9016821F00F013943016000688B
:1027A00000F00F00B84201D00120D4E720784007A4
:1027B0000AD52069296801F07001884204D229688D
:1027C00021F0700101432960207800070AD5606973
:1027D000316801F07001884204D2316821F0700143
:1027E000014331602078C0060AD5A069316801F440
:1027F000E061884204D2316821F4E0610143316034
:10280000207880060CD5E1695846DBF8002002F0FC
:102810007002914204D2026822F070020A43026000
:1028200000F048F80E492A682B68C2F3032203F02F
:102830000F038A5CC95C02F01F0201F01F01D04047
:10284000084A20FA01F1116007490860074800684A
:10285000BDE8F05FFEF774BA002000521844025839
:1028600062940008800000247C000024740000248E
:1028700030B500F01FF80B4A0B490C4B1568146873
:10288000C5F3032204F00F048A5C095D02F01F0205
:1028900001F01F01D040064A20FA01F119601060D2
:1028A000084630BD18440258629400088000002495
:1028B0007C000024454970B545480968434B103BEE
:1028C00011F0380208D00111082A03D0102A0BD0C9
:1028D000182A0BD0084670BD19688906FBD51968FF
:1028E000C1F3C101C84070BD3A4870BD3749374D8A
:1028F00018310C1D24350A68096826682D6802F015
:10290000030406F00102C1F30511C5F3CC0515FB64
:1029100002F200EE102AB8EE400AE9B32F4ADFEDCA
:102920002E0AB7EE001A6CB1DFED2D1A012C01D082
:10293000022C43D002EE101A1068F8EE422A81EE03
:10294000A22A1EE01C68A40611D51B6801EE901A8D
:102950001168C3F3C103F8EE612AD84001EE900A72
:10296000C1F30800F8EE611A81EEA22A0BE001EE35
:10297000901ADFED1C2A00BFF8EE611A106882EE93
:10298000A12AC0F3080001EE900AF8EE611A40EEA9
:10299000201A31EE810A00E015E022EE000A1068EC
:1029A000C0F34620401C00EE900AF8EE600A80EE6C
:1029B000201ABCEEC10A10EE100A70BD01EE901A8A
:1029C000DFED092AD8E7002070BD0000104402584E
:1029D0000090D00340787D01000000393044025857
:1029E0000024744A0024744C20BCBE4B2DE9F05FD7
:1029F00004007CD0FF4F2078FE4D1837DFF8F493A9
:102A0000103DC00748D0D9F80000396800F0380000
:102A1000102815D0182803D101F0030002280FD088
:102A20006068B0F5803F12D010B1B0F5A02F18D07B
:102A3000286820F480302860286820F4802009E08D
:102A40002868800328D560680028D2D024E0286850
:102A500040F480302860606888B1FEF721F90646AE
:102A600009E0286840F480202860F0E7FEF718F9B4
:102A7000801B64287ED828688003F7D50CE0FEF719
:102A80000FF9064605E000BFFEF70AF9801B64282F
:102A9000F0D828688003F7D4207841F20308D54E97
:102AA0000C3E800753D5D9F80000396810F0380083
:102AB0000ED0182801D188070AD0E068A8B3296889
:102AC00021F0190101432960FEF7EAF882461BE074
:102AD0002868400702D5E06800288AD0FEF7DAF8B7
:102AE00040451BD82069402812D0316800E0CCE076
:102AF00021F47C3141EA0030306028E0FEF7D0F864
:102B0000A0EB0A000228B5D828684007F6D5E5E70B
:102B1000306820F47C3040F40030EDE7207C3168F0
:102B200021F0FE4141EA0060E6E7FFE7286820F077
:102B300001002860FEF7B4F8824605E0FEF7B0F821
:102B4000A0EB0A00022895D828684007F6D4207820
:102B5000C0065FD5D9F80000DFF898B2396800F0F8
:102B60003800ABF1040B082812D0182805D101F069
:102B7000030000E0EAE001280AD0E06900282868A4
:102B800038D040F080002860FEF78AF8824623E0C3
:102B90002868C00523D5E069802876D11FE0206A27
:102BA000202821D0316821F0F84141EA806030606E
:102BB00030E000BF94F82010DBF8002022F07C52B7
:102BC00042EA0161CBF8001024E000BFFEF768F88C
:102BD000A0EB0A00022896D82868C005F6D5FEF7B3
:102BE00059F84045E6D8DAE7306820F0F84040F080
:102BF0008040DCE720F080002860FEF751F80646B0
:102C000005E000BFFEF74CF8801B02289BD828681F
:102C1000C005F7D42078000729D57648616964306B
:102C200000298046016811D041F001010160FEF7E2
:102C300037F8064605E000BFFEF732F8801B022891
:102C4000C9D8D8F800008007F6D510E021F00101BE
:102C50000160FEF725F8064605E000BFFEF720F804
:102C6000801B022872D8D8F800008007F6D420789C
:102C7000800623D5A0690028286810D040F4805031
:102C80002860FEF70DF8064605E02CE1FEF708F88F
:102C9000801B02285AD828688004F7D50EE020F45B
:102CA00080502860FDF7FCFF064604E0FDF7F8FFC2
:102CB000801B02284AD828688004F7D4207840076F
:102CC0004FD5DFF83481D8F8001041F48071C8F88E
:102CD0000010FDF7E5FF064605E000BFFDF7E0FF49
:102CE000801B642832D8D8F80000C005F6D5414EC4
:102CF000A068603601280AD008B1052813D03068D2
:102D000020F001003060306820F0040002E03068FC
:102D100040F001003060A06841F2883A90B1FDF7C0
:102D2000BFFF80460AE0306840F004003060EEE704
:102D3000FDF7B6FFA0EB0801514507D830688007C2
:102D4000F6D50EE0FDF7ACFF804607E084E000BF5B
:102D5000FDF7A6FFA0EB080151457DD8306880073C
:102D6000F6D4606AF0B3DFF88C80D9F8001008F16F
:102D70002008C1F3C20103296FD00228286820F07F
:102D80008070286003D0FDF78BFF044680E0FDF7DC
:102D900087FF064605E000BFFDF782FF801B022883
:102DA00073D828688001F7D4E26A40F2F3313868BA
:102DB00054F8283F884340EA021018433860217BCA
:102DC0004FF4FE0C22894FF0FE47208A4902267DEF
:102DD000521E401EA1F5007189B20CEA0040C2F3F8
:102DE000080200E081E01143761E0143014807EA32
:102DF000066203E010440258004802581C30114398
:102E00003B4AC8F80010016821F001010160116817
:102E10004FF6F876236AB14341EAC30111600168B5
:102E2000A26921F00C01114301600168E26921F0FF
:102E3000020111430160016841F4803101600168C1
:102E400041F400310160016841F4802101600168B2
:102E500041F00101016001E017E01DE0286840F049
:102E600080702860FDF71CFF044604E0FDF718FFA2
:102E7000001B022809D828688001F7D535E000BF7B
:102E8000FDF70EFF001B022802D90320BDE8F09FCA
:102E900028688001F4D428E039680128D8F80000B7
:102EA00021D0A26A01F0030393421CD1E26AC1F36C
:102EB00005118A4217D1216BC0F30802491E8A42CC
:102EC00011D1616BC0F34622491E91420BD1A16B17
:102ED000C0F30642491E914205D1E16BC0F3066082
:102EE000491E814201D00120D0E70020CEE700003A
:102EF0003444025870B504004FF0010041D094F8FA
:102F0000210028B9002084F82000204600F03CF879
:102F1000022184F82110CA202268532150622068BF
:102F20004162204602F02EF818BB2068154A8168DD
:102F300011408160D4E90013A569226988682A4399
:102F400018431043886022682189E06840EA014004
:102F50001061204602F038F858B92168CA6C22F096
:102F60000302CA6422686369E169D56C1943294385
:102F7000D1642268FF215162002802D1012184F826
:102F8000211070BDBFFF8FFF10B5B0B00446BC214B
:102F90006846FDF755FB0A49206888420ED10002B9
:102FA0000090411368462C91FEF7CAFE08B1FDF768
:102FB00038FD0448016841F40041016030B010BDA3
:102FC000004000587044025870B504460068C1685B
:102FD00021F0A001C160FDF763FE4FF47A7605464B
:102FE00007E000BFFDF75CFE401BB04201D90320A3
:102FF00070BD2068C0688006F4D5002070BD000058
:103000002DE9F047040029D04E4D4FF0000920680B
:103010004D4B4E4AA842C4F8289006D0984204D09E
:10302000904202D0E1680F2918D8E1684FF0010AF8
:10303000E76B0831C9080AEB57167143A84205D05F
:10304000984203D0904201D0082907D8A84203D063
:10305000984201D0904204D1102902D90120BDE844
:10306000F08794F8810020B9204684F8809000F021
:103070006FF8022084F881002068016821F00101C6
:103080000160A069B0F1806F11D16068B0F5800F68
:1030900001D018B10BE0A06B20B108E0A06BB0F13B
:1030A000805F04D12068016841F480510160A56A05
:1030B000E0692368E16B2843E268084310439860A5
:1030C000D4E90D02D4E90571636A25691843D4F87F
:1030D00020C00A43266810432843A56D3843D4E92D
:1030E0000182D4E9123140EA0C0040EA08000843AA
:1030F000104318432843F060606868B9206881680D
:1031000021F4C05141F4006181602068816821F49C
:10311000C06141F4806181602068016D21F001018E
:1031200001656068400206D52068626DC16821F0C3
:1031300000411143C160C4F8849084F881A000204C
:103140008DE700000030014000380040003C0040A6
:103150002DE9F043B5B0064614212FA8FDF770FA0B
:10316000BC216846FDF76CFA314C022731494FF01B
:1031700001093068103C2E4D002688424FF00508AA
:1031800035D18014179600906846FEF7D9FD08B136
:10319000FDF747FC286840F480502860286800F458
:1031A00080503490206840F008002060206800F0D3
:1031B00008003490206840F00200206020682FA9A9
:1031C00031964C4600F00200349080204546CDE90F
:1031D0002F071948CDE93298FDF736FC18203196B3
:1031E000CDE92F0715482FA9CDE932451BE0144939
:1031F00088421AD1286840F400502860286800F4FA
:1032000000503490206840F01000206020684FF497
:10321000A0422FA900F01000CDE93380CDE92F277F
:103220000848CDE93169FDF70FFC35B0BDE8F08302
:10323000F044025800300140000C025800040258CB
:1032400000340140001002582DE9FF5F0446164685
:103250000F461D4600214FF0040BD4E900020091F7
:1032600030300290B2F5800F01D1A06888B194F897
:103270008000012819D04FF0010984F88090FDF7F3
:103280000FFD94F881108246002001290FD0022101
:1032900026E084F881B03A46114620460093334632
:1032A00000F014FA04B0BDE8F09F0220FAE7B7B1CD
:1032B000AEB1A26880466766A4F8686084F881B001
:1032C000C4F88400A4F86A60E065A4F86000A4F87B
:1032D0006200B2F5C02F2067606705D009E00121C8
:1032E00084F880000846DDE72068016821F4006169
:1032F0000160206841686FF30F013143416020682D
:10330000016841F0010101606068B0F5800F04D1EF
:103310002068016841F400710160E0680F282ED92F
:1033200048F20806B4F86A00002859D020684169BC
:1033300031420BD0006B616E0860606E001D6066EC
:10334000B4F86A00401EA4F86A00EBE7FDF7A8FC99
:10335000A0EB0A00A84202D3681CE3D001E0002DD4
:10336000E0D1204602F0CDFAD4F8842084F88080A1
:1033700042F48071C4F8841084F8819079E00728C1
:103380002AD868E02068416911F4604F19D041697A
:10339000090409D5006B616E0860606E001D6066EF
:1033A000B4F86A00801E09E002980088616E088007
:1033B000606E801C6066B4F86A00401EA4F86A0063
:1033C0000AE0FDF76DFCA0EB0A00A84202D3681CDE
:1033D00002D0C6E7002DC4D0B4F86A000028D1D1CD
:1033E0003DE02068416911F4604F2AD04169090429
:1033F00009D5006B616E0860606E001D6066B4F8F0
:103400006A00001F1AE0416901F4C041B1F5005F94
:103410000AD902980088616E0880606E801C606620
:10342000B4F86A00801E09E090F83000616E087000
:10343000606E401C6066B4F86A00401EA4F86A0022
:1034400009E0FDF72DFCA0EB0A00A84202D3681C9E
:1034500001D010E07DB1B4F86A000028C1D1204647
:1034600002F04FFA84F88190D4F8841084F88080B8
:1034700079B1012016E7204602F043FAD4F88420FF
:1034800084F8808042F48070C4F8840084F88190CD
:10349000EFE7009806E72DE9FC5F04460068174651
:1034A0008A4600211D4694F8802000F1200B0191EE
:1034B000012A0DD04FF0010884F88080FDF7F0FB61
:1034C000814694F881000026012804D002201EE0E5
:1034D0000220BDE8FC9FBAF1000F17D0B7B1A16878
:1034E0000320C4F85CA0A4F8607084F88100C4F8DC
:1034F0008460A4F862706666A4F86860A4F86A60E4
:10350000B1F5C02F6667266704D008E0012084F873
:103510008060DEE72068016841F400610160206896
:1035200041686FF30F01394341602068016841F041
:10353000010101606068B0F5800F04D12068016866
:1035400041F400710160E0680F281AD82CE020686F
:10355000416989070BD5E16D09680162E06D001DC5
:10356000E065B4F86200401EA4F8620009E0FDF7CF
:1035700097FBA0EB0900A84202D3681C01D005E02C
:1035800025B1B4F862000028E1D183E0204602F0C2
:10359000B8F9D4F8841084F8806041F48071C4F8DC
:1035A000841084F881808DE007282CD86EE0206894
:1035B000416989071CD5B4F8621001290BD9E16B68
:1035C00049B1E16D09680162E06D001DE065B4F884
:1035D0006200801E09E0E06D0188ABF80010E06D2C
:1035E000801CE065B4F86200401EA4F862000AE0A6
:1035F000FDF756FBA0EB0900A84202D3681C02D0DD
:10360000C4E7002DC2D0B4F862000028CFD141E059
:103610002068416989072ED5B4F8621003290CD9B6
:10362000E16B402909D9E16D09680162E06D001D77
:10363000E065B4F86200001F1AE0B4F862100129D6
:103640000CD9E16B51B1E06D0188ABF80010E06D71
:10365000801CE065B4F86200801E09E0E16D097825
:1036600080F82010E06D401CE065B4F86200401E58
:10367000A4F862000AE0FDF713FBA0EB0900A842E2
:1036800002D3681C02D081E7002DB9D0B4F86200E3
:103690000028BDD100224B4608212046009502F0AB
:1036A0008EF928B1D4F8840040F02000C4F88400DA
:1036B000204602F026F984F88180D4F8840084F84A
:1036C000806008B1012004E7019802E72DE9FF4F6F
:1036D00083B090F880100446006801294FF0000183
:1036E000109F1D46019100F1200100F1300093462A
:1036F0000291009014D04FF0010A84F880A0FDF7E9
:10370000CFFA804694F881006368002101282E4694
:103710004FF480020CD0934208D1A36833B903E080
:10372000022007B0BDE8F08F042801D0022037E066
:10373000049898B3BBF1000F31D07DB394F88100A9
:10374000042802D0052084F8810089460846C4F880
:103750008410C4F864B0A4F86A50A4F868500499BE
:10376000E165A4F86250A4F86050206760672068A3
:1037700041686FF30F01294341602068016841F0FF
:10378000010101606068904204D12068016841F441
:1037900000710160E0680F2835D846E0FFE701209E
:1037A00084F88010BDE72068416989070DD565B1AF
:1037B000E16D09680162E06D001DE065B4F862002A
:1037C000401EA4F86200B4F8625048F20802206873
:1037D000416911420DD066B1006B616E0860606E88
:1037E000001D6066B4F86A00401EA4F86A00B4F8D0
:1037F0006A60FDF755FAA0EB0800B84202D3781CC6
:1038000001D004E01FB155EA0600CCD1D2E0204639
:1038100002F077F8D4F8842084F8809042F4807124
:10382000C4F8841084F881A0DCE007284DD8BEE0FD
:103830002068416989071CD5DDB1012D0BD9E16BE9
:1038400049B1E16D09680162E06D001DE065B4F801
:103850006200801E09E0E06D018802980180E06D41
:10386000801CE065B4F86200401EA4F86200B4F861
:1038700062502068416911F4604F1BD0D6B1416994
:10388000090409D5006B616E0860606E001D6066FA
:10389000B4F86A00801E09E000980088616E088014
:1038A000606E801C6066B4F86A00401EA4F86A006E
:1038B000B4F86A60FDF7F4F9A0EB0800B84202D34F
:1038C000781C02D0A3E7002FA1D055EA0600AFD1A3
:1038D00070E02068416989072CD55DB3032D0CD9B0
:1038E000E16B40290BD9E16D09680162E06D001DB3
:1038F000E065B4F86200001F18E0012D0CD9E16BFF
:1039000051B1E06D018802980180E06D801CE06596
:10391000B4F86200801E09E0E16D097880F820109B
:10392000E06D401CE065B4F86200401EA4F862003F
:10393000B4F862502068416911F4604F2CD05EB336
:103940004169090409D5006B616E0860606E001D55
:103950006066B4F86A00001F1AE0416901F4C041D2
:10396000B1F5005F0AD900980088616E0880606E2A
:10397000801C6066B4F86A00801E09E090F8300090
:10398000616E0870606E401C6066B4F86A00401E8C
:10399000A4F86A00B4F86A60FDF782F9A0EB0800A9
:1039A000B84202D3781C02D031E7002F8AD055EA02
:1039B00006008ED10022434608212046009701F0E0
:1039C000FEFF28B1D4F8840040F02000C4F8840041
:1039D000204601F096FF84F881A0D4F8841084F882
:1039E000809009B101209CE601989AE6401EB0F152
:1039F000807F10B501D3012010BD4FF0E02460613D
:103A00000F21601704F052FF0020A06107212161FF
:103A100010BD00002DE9F04390F83C20012A42D06F
:103A2000012280F83C2051F80C4BDFF880804FF0E9
:103A3000000991E8680051E9022723F44073B1F8C6
:103A40000CC03B43CF6923F480631343026823F423
:103A50000063234323F4805343EA050323F4005314
:103A600043EA060323F4804343EA07030C3923F4B3
:103A70007023424543EA0C4302D00D4CA2420CD1C4
:103A80008D8C23F47006D1E9073446EA055121F004
:103A90008071194321F000732343536480F83C90F4
:103AA0000020BDE8F0830220FBE700000000014099
:103AB00000040140F0B590F83C20012A38D01D4E9A
:103AC000012480F83C40022280F83D2002681A4D13
:103AD0005368B242D2F808C001D0AA4203D14F685D
:103AE00023F470033B430F6823F070031F435760B8
:103AF0000268B24210D0B2F1804F0DD00F4B9A4203
:103B00000AD00F4B9A4207D00E4B9A4204D0AA42D9
:103B100002D00D4B9A4204D189682CF080031943DE
:103B20009160002180F83D4080F83C100846F0BDCF
:103B30000220F0BD000001400004014000040040EC
:103B400000080040000C00400018004010B504467A
:103B50004FF0020249B104290ED0082913D094F87D
:103B60004700012816D0012010BD94F84400012818
:103B7000F9D184F844200FE094F845000128F2D1EF
:103B800084F8452008E094F846000128EBD184F839
:103B9000462001E084F847200422206802F024FF38
:103BA00020681449426C42F4004242642068884212
:103BB00011D0B0F1804F0ED00F4988420BD00F4981
:103BC000884208D00E49884205D00E49884202D06A
:103BD0000D49884207D181680C4A1140062906D058
:103BE000B1F5803F03D0016841F001010160002080
:103BF00010BD00000000014000040040000800402B
:103C0000000C0040000401400018004007000100C3
:103C100010B586B0044614216846FCF711FD0E4924
:103C20002068884216D10D48016841F010010160FA
:103C300000680123022200F01000059000204FF4DC
:103C4000806100916946CDE90120CDE90303044874
:103C5000FCF7FAFE06B010BD00000140E044025837
:103C60000010025870B5044690F83C000D4601283B
:103C70000BD0012084F83C000C2A45D007DC5AB157
:103C8000042A1BD0082A78D12CE0022070BD102A0B
:103C90004ED0142A71D15DE0206802F0B3FE206896
:103CA000816941F0080181612068816921F0040186
:103CB000816120682A698169114311E0206802F05E
:103CC000F5FE2068816941F40061816120688169A5
:103CD00021F48061816120682969826942EA0121B9
:103CE00081614AE0206802F02DFF2068C16941F03F
:103CF0000801C1612068C16921F00401C161206827
:103D00002A69C169114311E0206802F061FF20684F
:103D1000C16941F40061C1612068C16921F4806119
:103D2000C16120682969C26942EA0121C16124E0B8
:103D3000206802F083FF2068416D41F00801416571
:103D40002068416D21F00401416520682A69416DB8
:103D5000114311E0206802F0A7FF2068416D41F493
:103D6000006141652068416D21F4806141652068F2
:103D70002969426D42EA01214165002084F83C0036
:103D800070BD10B5040003D094F83D0010B107E0F9
:103D9000012010BD002084F83C00204600F022F8ED
:103DA000022084F83D002068211D02F0BBFD0120A7
:103DB00084F8480084F83E0084F83F0084F840000E
:103DC00084F8410084F8420084F8430084F84400F9
:103DD00084F8450084F8460084F8470084F83D00E4
:103DE000002010BD08B500680649884208D1064881
:103DF000016841F001010160006800F001000090DD
:103E000008BD000000000140F0440258FEE7000039
:103E1000F0B500230A251C463026372711E000BFE5
:103E2000B5EB107F02D906EB107C01E007EB107CAC
:103E300001F813C001EB430C00015B1C8CF801403E
:103E4000DBB29342ECD3F0BD2DE9FF4F85B01D46A8
:103E50000C2B90460C468946059804906348DDF883
:103E600048B0068819D0082715FB07F04000FCF77A
:103E7000AFFA03A982465E4801F0CCFF5C4802A974
:103E800001F0D0FFA8F120014FF00000C9B2079166
:103E9000BBF1000F014602D097E00627E4E7DFF808
:103EA0004CE149E00C2D0ED0079B524A02EB031265
:103EB000002321F0010B525C009313060AD573BA5C
:103EC000AEF800300CE0079A02EB42034A4A02EBDC
:103ED0008302EDE7BEF802C09CFA9CFCAEF800C07D
:103EE00007FB00F3401CBEF800C080B20AEB43039E
:103EF000A84223F80BC000D30020029B5206641C8A
:103F0000A4B2120E9C4202D3AEF8006047E0A4EBCC
:103F10000903AB4208D1059A4C46039B521C92B24E
:103F200005929A42F0D205E0009B5B1CDBB2009345
:103F3000082BC2D3491CC9B2A942B3D347E00C2D08
:103F400033D0079B2B4A02EB03124FF0000B21F0FA
:103F5000010E525C130608D5244B07FB00FC1B889E
:103F60000AEB4C0C5BBA2CF80E30401C80B2A84215
:103F700000D30020029B5206641CA4B2120E9C4285
:103F80000BD2A4EB0903AB4216D1059A4C46039B16
:103F9000521C92B205929A4215D31448068050469C
:103FA000FCF745FA09B0BDE8F08F079A02EB42032F
:103FB000114A02EB8302C8E70BF1010303F0FF0B88
:103FC000BBF1080FC6D3491CC9B2A942B7D30C2D07
:103FD00009D008200499CDE90005054853464A4612
:103FE00001F080FED9E70620F4E700006C01002410
:103FF000241D0024E6980008729400082DE9F84F6B
:104000000D46044658194FF0000A111987B21FFADD
:1040100081F8DDE90AB604F0FF0912E0444503D354
:1040200005EB0B004C4685B2BD420FD25B462946DC
:104030002046CDF800A0FFF707FF04EB5B0084B239
:10404000761C3278A2F120005E28E7D9BDE8F88F0F
:10405000F0B52D4C032187B000250120A160257308
:1040600060732A492A4802F07FF92A4E0521284820
:104070002246336898472549B268091F244890476B
:10408000254F38688563002260681146CDE9000538
:10409000B56B23681E48A8476420FCF7C3FC1FA12A
:1040A00002A8FCF7EBF902AD102604213346CDE956
:1040B0000065208882B20846FFF7A0FFFCF7E2FD0A
:1040C0001AA1024602A8FCF7D9F9CDE900652088BB
:1040D0001023162182B20420FFF790FF0B4817A18E
:1040E0000838426802A8FCF7C9F9CDE900652088C4
:1040F0001023282182B20420FFF780FF39680A20AC
:10410000886307B0F0BD00005C2200247401002425
:10411000241D002494010024880300245765416372
:10412000742053747564696F0000000053544D335C
:104130003248377878203078255800004C434420A6
:1041400049443A307825580070B50A4D01220821BB
:1041500004462846FCF790FD601EFCF763FC002235
:1041600028460821FCF788FDBDE8704040F2F310B6
:10417000FCF758BC001002587FB50025009501954A
:1041800002950395FCF72AFE01248DF800401B20C0
:104190008DF808008DF80B504FF010468DF80A404E
:1041A00068468DF80150019603948DF80950FCF78C
:1041B000E7FD16208DF808008DF80F4005218DF8D9
:1041C0000B1068468DF80E408DF800408DF80D50AC
:1041D0008DF80A408DF8014001968DF80C508DF84D
:1041E0000950FCF7CDFD12218DF808108DF80F4015
:1041F00003228DF80B20B0088DF80E4002238DF8B5
:1042000000408DF80D408DF80A40019068468DF809
:1042100001308DF809508DF80C50FCF7B1FD0420E9
:10422000FCF7EAFD7FBD70B5D0F8BC420546002C16
:104230001CD004F58051087F38B9886928B1607AAC
:1042400018B90121284603F089F88121284603F096
:1042500085F8607A022809D18121284603F07EF88A
:104260002846BDE87040012103F078B870BD000019
:104270002DE9F041D0F8BC420646002C5BD004F595
:104280008055D5E90501C5E90D010121304602F04F
:1042900066FF1F280AD129492869884206D1697F0B
:1042A000012903D8A87F08B1102808D9697F2023E5
:1042B0000522304601F0FAF9022060720AE041F26C
:1042C0001F002218304600F0F5FE0028207A08DA98
:1042D000052804D03046BDE8F041FFF7A4BF012116
:1042E00024E0022827D0012825D0032823D0E56820
:1042F000DDB104F11002D6F8BC42304604F580511D
:104300008B69AB4200D32B46002C14D0D1F838C0B7
:1043100000260427ACEB05058D6381F83C60812104
:104320002772BDE8F04103F034B800213046BDE803
:10433000F04100F0ADB8BDE8F081000055534243B4
:1043400010B5D0F8BC220446002A16D0507A0228B4
:1043500009D0090611D501280FD02046BDE810402C
:10436000012100F095B88121204602F0F7FF204698
:10437000BDE81040012102F0F1BF10BD10B5D0F82A
:10438000BC220446002A18D0107A022805D003283F
:1043900001D0042811D100210AE041F21D00831C44
:1043A000815C1A44204600F085FE002805DA0121D0
:1043B0002046BDE8104000F06BB810BD10B5D0F835
:1043C000BC220446002A18D0107A88B1012814D1E2
:1043D00041F21D00831C815C1A44204600F06AFEF5
:1043E00000280ADA2046BDE81040012100F050B84C
:1043F0002046BDE81040FFF73BBF10BDD0F8BC021F
:10440000002801D000210172704770B5D0F8BC427D
:104410000546002C1ED004F58352002121726172E2
:10442000517011709170D5F8C00201680020884762
:104430000121284602F08AFE8121284602F086FEEC
:1044400041F2100022182846BDE870401F230121C8
:1044500002F0F8BE70BD70B5D0F8BC420546002C25
:1044600015D000212172012060728121284602F0BE
:10447000C2FD0121284602F0BEFD41F210002218C3
:104480002846BDE870401F23012102F0DBBE70BD4D
:1044900070B5D0F8BC420546002C19D004F5805206
:1044A0000C4B002013630D2382F83C1081212072F5
:1044B00041F230002218284602F06BFF41F2100052
:1044C00022182846BDE870401F23012102F0BABE21
:1044D00070BD0000555342532DE9F04387B01421BD
:1044E0006846FCF7ADF83348016841F010010160FF
:1044F000016801F010010591016841F004010160BB
:10450000016801F004010591016841F0800101603A
:10451000016801F080010591016841F0020101602C
:10452000016801F002010591016841F00801016094
:10453000016801F008010591016841F00101016085
:1045400000680022DFF87080082100F0010005906B
:104550004046FCF791FB4FF4205740460122394674
:10456000FCF78AFBDFF85490012240214846FCF713
:1045700083FB00246946012508200090CDE9015401
:1045800040460394FCF760FA0326009703966946B9
:10459000CDE901544046FCF757FA40206946CDE981
:1045A0000005CDE902464846FCF74EFA07B0BDE8E3
:1045B000F0830000E044025800100258000C02583A
:1045C0000D48012170B50B4B1024E0E8023116258F
:1045D0004E02002280E87200C0E90412826106489F
:1045E000FDF71EFA002803D0BDE87040FCF719BAA9
:1045F00070BD000000500052080200240C48002149
:104600000A4A7F2310B5FF2404C080E81A00C16065
:10461000416181610161001FFEF76CFC002803D03D
:10462000BDE81040FCF7FDB910BD00000040005887
:104630005402002470B5144807224FF48004114D31
:1046400000212301C0E9021201611A01C0E905132A
:10465000C161016241628162C162C0E90D21C16331
:10466000016441648164C164016541658165C0E99B
:104670000054FEF7C5FC002803D0BDE87040FCF7ED
:10468000D0B970BD00300140780200242DE9F0411E
:1046900015484FF480060021124D34010722C0E96D
:1046A0000321A300C0E90514C0E9073141629A0063
:1046B00081624FF4C027C162C0E90D21C16301646A
:1046C00041648164C16401654165816580E8E00001
:1046D000FEF796FC002803D0BDE8F041FCF7A1B935
:1046E000BDE8F081003401400003002410B596B00D
:1046F00000241C210BA8129413941494FBF7A0FF20
:104700002C216846FBF79CFF22487722204963232F
:1047100080E81600C0E9033444618461FFF731FB8F
:1047200008B1FCF77EF91B4812A912941394149453
:10473000FFF7C0F908B1FCF774F960200821CDE952
:104740000B0414480422CDE90D410BA90F941094D9
:104750001194FFF787FA08B1FCF763F94FF40050A2
:104760000094019401030294CDE90440039406945B
:10477000CDE907410748694609940A94FFF74AF9C9
:1047800008B1FCF74EF90348FFF742FA16B010BD26
:10479000000001408803002410B503F099FE04F0E6
:1047A00093FD04F025FD10490022104802F010FC92
:1047B00008B1FCF736F90E490C4802F0E9FE08B1E1
:1047C000FCF72FF90B49094802F05BFE08B1FCF732
:1047D00028F9064802F056FF08B1FCF722F9BDE8B7
:1047E0001040FDF77BB8000000000024D403002433
:1047F0008800002450000024FEE770470148FCF7C1
:10480000D7BC00001C1900242DE9F04104460069C2
:104810000D462027236801284FF4004604F57172E5
:1048200003EB4511D3F840C0D1F8080B09D0DFF8ED
:104830009CE0F4453AD1020433D500BFC1F8086BBF
:1048400040E0234B5FEA007E04D59C453AD9000442
:10485000F4D437E05FEA806E02D5C1F8087B31E01E
:1048600010F0280F2ED19C4501D90004E6D4D1F8D0
:10487000103BC5EBC50004EB8000C3F31203D0F876
:104880000412A1EB0303C0F81432D0F80832194423
:10489000C0F8081295B9D4F8100278B9206801213F
:1048A0000AE080060AD5C1F8087B07E035B9D4F8DC
:1048B000100218B90021184603F0C0FA2046E9B2E8
:1048C000FCF743FB0020BDE8F08100000A31544FA3
:1048D0000A30544F2DE9F84F0E4605688146C1EB6A
:1048E000C60100EB8104D4E914203C34904202D983
:1048F0000120BDE8F88FA168101A814200D2084655
:10490000C01C05EB461887081BE000BFA268A0EB9F
:10491000010A524500D2924699F810100AF103009C
:1049200000911FFA8AF3E16887082846F2B203F083
:104930001FFDE16801EB0A00E060A16901EB0A00DC
:10494000A061D8F8180980B2B84205D3D4E90501AE
:10495000814201D20028D9D1D4E90501884208D882
:10496000D5F83418012006F00F0290408143C5F8B5
:1049700034180020BDE77047F0B5AFB0BC216846E1
:10498000FBF75EFE022505204FF4842200920021F1
:104990006024CDE90A400A2309936E0210912A058A
:1049A0002192CDE90E61CDE90C052F0468461897D8
:1049B000FDF7C6F92FB0F0BD194B002230B597B006
:1049C0001B78052B0ED000BF4FF440730E934FF0B1
:1049D00005030B92CDE908320F92109205D14FF0EA
:1049E000807304E04FF48073F0E74FF0407311934D
:1049F0004FF001030D9213924FF480054FF0100415
:104A00001492CDE90223159207950494CDE905325D
:104A100002AA0B4608A9FCF769FF17B030BD0000D9
:104A2000000200242DE9F0434B6A4FF040652BB1A2
:104A3000AA4203D004688B6A5B1E23618B69002B3A
:104A400068D00C6AB4B303688C68DC61CC69FCB1D3
:104A5000D1E90B38D1F824C04E6B8F8A43EA0803A2
:104A600046EA0C0633430E6A43EA8743D1E9037CE6
:104A700043EA0C0333438E693B430F6823430468C6
:104A800033433B4365E0006849688161BDE8F083DA
:104A9000D1E90B364F6A4C6B8D8A33433C430E6928
:104AA00023430C6A43EA85438D69334309682343F2
:104AB0002B4362E0FFE7CC69B4F1000918D0D1E9DB
:104AC0000B484F6A4E6BB1F814C044EA08043E43E9
:104AD0000F683443CE6844EA8C44344344EA090402
:104AE0001C4303683C431443AA425C61CBD1CDE72D
:104AF000D1E90B464F6A4D6BB1F814C034433D43C6
:104B000000682C43096844EA8C441C430C4314435A
:104B10004461BBE70B6AABB303688C68DC61CC69AA
:104B2000E4B1D1E90B38D1F824C04E6B8F8A43EA47
:104B3000080346EA0C0633430E6A43EA8743D1E989
:104B4000037C43EA0C0333438E693B4323430468ED
:104B500033431343AA42636195D197E7D1E90B36FA
:104B60004F6A4C6B8D8A33433C430E6923430C6A76
:104B700043EA854389693343234300680B43134366
:104B8000436183E7FFE7CC6984B1D1E90B384F6A11
:104B90004E6BB1F814C043EA08033E433343CE687A
:104BA00043EA8C43334323430468D2E74C6A002C26
:104BB0009DD0D1E90B368F8A4D6B01683343254375
:104BC0002B4343EA8740104348615FE7F0B58FB05D
:104BD0000646002141F288344FF480702246662553
:104BE0000095CDE9060108913046099105910B9198
:104BF0000C910D916946FCF7CFFEC8B99927224662
:104C0000694630460097FCF7C7FE88B94FF44070FC
:104C100022466946009506903046FCF7BDFE38B93D
:104C20002246694630460097FCF7B6FE002800D0C1
:104C300001200FB0F0BDF0B58FB014AC94E8E05097
:104C400000248DE81600CDE90334CDF824C041F2EC
:104C50008832CDE90774CDE90AE40C9469460D94D5
:104C6000CDE90556FCF798FE002800D001200FB0D2
:104C7000F0BD2DE9F041984616460F460446069DC4
:104C800008E0681C06D0FCF70BF8A0EB0800A8426F
:104C90000AD84DB120688068384000D00120B04269
:104CA000EFD10020BDE8F081042084F84100606C61
:104CB00040F0010060640120F4E70000F0B5204DF1
:104CC000074695B02878042815D04FF480700690D8
:104CD000002441F288360620079408943246059451
:104CE000694609940B940C940D9400903846FCF797
:104CF00053FEF0B902E04FF44070E8E702204FF0B5
:104D0000050C1022CDF800C0430513930E9001212D
:104D1000CDE90F02CDE91114287804280CD008063B
:104D200033460EAA694609903846FCF7DFFD002895
:104D300000D0012015B0F0BD4FF04070F0E700004A
:104D4000000200242DE9F047454D044689464FF006
:104D5000000A2868C04380070AD0414E283E3068C8
:104D600020F080603060FBF79BFF0746B04608E00C
:104D70000120BDE8F08700BFFBF792FFC01B0228AF
:104D800067D8D8F800000001F6D4206829684FF4ED
:104D9000FE0721F47C313E0241EA00302860207A8F
:104DA000A389B4F804C040022D4D2D495B1E227C1E
:104DB000ACF1010C1035091DA0F5007080B2521E37
:104DC000CCF3080C07EA034340EA0C00184306EA58
:104DD0000262104328600868626920F0C000104336
:104DE00008600A68A06922F0200202430A60281DB8
:104DF0000A6822F010020A6002684FF6F873E4694C
:104E00009A4342EAC40202600868B9F1000F40F018
:104E100010020A6011D00868B9F1010F11D040F4F6
:104E200000100860D8F80000444640F08060C8F8E0
:104E30000000FBF735FF05460DE0086840F4002050
:104E4000EFE740F48010ECE7FBF72AFF401B022855
:104E500001D903208DE720680001F5D5504688E789
:104E6000284402582DE9F047454D044689464FF045
:104E7000000A2868C04380070AD0414E283E3068A7
:104E800020F080503060FBF70BFF0746B04608E08B
:104E90000120BDE8F08700BFFBF702FFC01B02281E
:104EA00067D8D8F800008000F6D4208829684FF42D
:104EB000FE0721F07C713E0241EA00502860207A12
:104EC000A389B4F804C040022D4D2D495B1E227CFD
:104ED000ACF1010C1835091DA0F5007080B2521E0E
:104EE000CCF3080C07EA034340EA0C00184306EA37
:104EF0000262104328600868626920F44060104331
:104F000008600A68A06922F4007202430A60281D42
:104F10000A6822F480720A6002684FF6F873E46946
:104F20009A4342EAC40202600868B9F1000F40F4F3
:104F300080720A6011D00868B9F1010F11D040F0F9
:104F400080700860D8F80000444640F08050C8F8EF
:104F50000000FBF7A5FE05460DE0086840F4800060
:104F6000EFE740F40000ECE7FBF79AFE401B022855
:104F700001D903208DE720688000F5D5504688E7E9
:104F8000284402582DE9F041044600680025C16814
:104F9000490615D4691EC160FBF782FE0327064649
:104FA0004FF47A7808E000BFFBF77AFE801B40459B
:104FB00002D9032584F821702068C0684006F3D523
:104FC0002846BDE8F08100002DE9F041124C03278E
:104FD00006460025E06820F04000E060A0688006FA
:104FE00007D43046FDF7F0FF90B1032586F8217015
:104FF0000EE0A06820F02000A0603046FDF7E4FF3E
:1050000010B1032586F82170A06840F02000A06050
:105010002846BDE8F08100000040005830B5D0F8C7
:10502000BC424FF0FF354CB104F580541A44A36ED6
:105030009A4205D92123052200F038FB284630BDCD
:10504000002030BD70B50446D0F8BC024FF0FF35EB
:1050500080B100F580539E6976B15678F60714D07A
:10506000917861B180290DD0597F242305222046F3
:1050700000F01CFB284670BD597F2023F6E70B4942
:1050800006220FE00A4908220CE0D4F8C04201EBE6
:10509000C1011379E26902EB81010A79521D934241
:1050A00000D81A4600F059FB002070BD2A010024E8
:1050B000300100242DE9F041D0F8BC424FF0FF361A
:1050C000002C6ED0137802270025252B7AD00FDC18
:1050D0001A2B5ED005DC1BB3032B25D0122B17D166
:1050E00026E01B2B28D01E2B45D0232B10D165E0AA
:1050F0005A2B58D006DC282B6CD02A2B72D02F2BA1
:1051000006D177E09E2B61D0A82B67D0AA2B6DD05B
:105110002023052200F0CAFA30466772BDE8F0810C
:10512000BDE8F04100F0EDBABDE8F04100F07FBA13
:10513000BDE8F041FFF786BF04F5805393F862C0E5
:10514000BCF1010F06D192F804C00CF0030CBCF1C5
:10515000020F52D0117901F00300012808D0022873
:1051600003D0C843800703D00DE083F862700AE0E3
:1051700083F8625007E01079002804F5805005D0CC
:10518000012180F862102846E560C7E780F8625088
:10519000F9E7117917222046172900D80A461E4937
:1051A00008E037E00EE0117A1B2220461B2900D8C8
:1051B0000A461A4900F0D1FA2846AFE7BDE8F041A7
:1051C00000F0F5B9BDE8F04100F065B9BDE8F04187
:1051D00000F09BB9BDE8F04100F0B7B8BDE8F04180
:1051E00000F004B9BDE8F04100F0C7BABDE8F041F5
:1051F00000F020BB5278920704D52423052200F04A
:1052000055FA07E004F58052D2E91B23FFF706FFA9
:105210000028B8DA304681E7380100244F01002425
:105220002DE9F047D0F8BC62074689464FF0FF38B9
:1052300006F58054B4F86400256F05FB00F5CEB187
:105240004FF480518D4200D30D46E26EB5FBF0F075
:1052500006F110018A4683B2D7F8C002D0F810C018
:105260004846E047002808DA112349460422384618
:1052700000F01CFA4046BDE8F08781212B465246DB
:10528000384602F086F8B4F86400A36BB5FBF0F77B
:10529000B5FBF0F0D4E91B125B1BA3633944101A71
:1052A000C4E91B1001D1032030720020E3E72DE98F
:1052B000F0478946D0F8BC1206464FF0FF3801F59A
:1052C0008054B4F86400256F05FB00F5C1B14FF4BC
:1052D0008057BD4200D33D46E26EB5FBF0F0103181
:1052E0008A4683B2D6F8C002D0F814C04846E047D8
:1052F000002808DA032349460422304600F0D6F994
:105300004046BDE8F087B4F86400D4E91B3CB5FB27
:10531000F0F2B5FBF0F8A16BA1EB0501A1631A4413
:10532000BCEB0803C4E91B230AD04343BB4200D3B0
:105330003B4652460121304601F084FF0020E0E761
:1053400000213046FFF7A4F8F8E72DE9F047D0F840
:10535000BC521646074689464FF0FF3865B3287A97
:10536000C0BB05F58054207F00062FD594F862005D
:10537000022809D0D7F8C00281684846884748B15A
:105380003A234946022201E03A230222384600F03D
:105390008DF911E0D6F80210707909BA21F0FF02F8
:1053A00049460243E266B6F8070043BA3846236727
:1053B000FFF734FE002802DA4046BDE8F087B4F873
:1053C0006410206FA2694843904204D02023617F7B
:1053D0000522DBE701E0022028724FF480504946A5
:1053E000E8603846BDE8F047FFF71ABF2DE9F047FF
:1053F000D0F8BC521646074689464FF0FF3885B3B1
:10540000287A88BB05F58054207F000634D594F8AF
:105410006200022809D0D7F8C00281684846884750
:1054200048B13A234946022201E03A230222384693
:1054300000F03CF915E0D6F80200717900BA20F0CE
:10544000FF020A43E266D6F80600717A00BA20F03D
:10545000FF0338460B4349462367FFF7DFFD00286B
:1054600003DA4046BDE8F0870CE0B4F86410206F22
:10547000A2694843904203D02023617F0522D6E7EA
:10548000022028724FF480504946E8603846BDE853
:10549000F047FFF7C5BE2DE9F041D0F8BC420F46FA
:1054A00005464FF0FF365CB1D5F8C00241F2640109
:1054B00062184368081D211838469847F0B902E081
:1054C0003046BDE8F08104F5805191F86200022871
:1054D00014D0886E00220823401E050E2574060C89
:1054E0006674070AA774E07422756275B1F86400E7
:1054F000010AA175E0750020E360E2E73A2339462E
:105500000222284600F0D2F8DAE72DE9F041D0F87F
:10551000BC421546884606464FF0FF375CB1D6F8C8
:10552000C00241F2640162184368081D2118404618
:105530009847A0B902E03846BDE8F08104F58051F3
:1055400091F8620002280AD0D5F80A3000226E7B5A
:1055500010461BBA23F0FF033343E3600BE03A230A
:1055600041460222304600F0A1F8E4E7431C204403
:105570000274D8B2E3688342F8D8886E401E030EE6
:105580002375060C6675070AA775E07522766276A4
:10559000B1F86400010AA176E076D5F80A00697BCB
:1055A00000BA20F0FF000843E0600020C4E72DE9C6
:1055B000FC41D0F8BC420F4605464FF0FF3644B1DF
:1055C000D5F8C00201A96A4643683846984738BBF7
:1055D00002E03046BDE8FC8141F26200005D022835
:1055E0001ED0002001462318421C90B20C281974CA
:1055F000F9D30820E074019802222276401E6176D9
:10560000020E2275030C6375010AA175E0750C2268
:10561000BDF80000E260010AA176E0760020D9E73B
:105620003A2339460222284600F040F8D1E770B507
:10563000D0F8BC124FF0FF3431B301F580539D69AF
:1056400025B3002005460E18441CE0B2122835741C
:10565000F9D370240C740C20C87593F8600093F88B
:105660006140A0421AD001EBC00404F58254401CF2
:10567000C0B2267804288E7426790E7764794C7728
:1056800083F8600008D009E0204670BD597F2023D0
:10569000052200F00BF8F7E783F860501220C8608D
:1056A0001079122800D8C860002070BD30B5D0F83D
:1056B000BC12002924D001F58050002490F86150DC
:1056C00001EBC50505F5805585F8402090F861206F
:1056D00001EBC20202F5805282F8443090F861205A
:1056E00001EBC20101F5805181F8454090F861104D
:1056F000491CC9B280F86110042901D180F86140C9
:1057000030BD2DE9F041D0F8BC42884605464FF047
:10571000FF36E4B104F58051886930B1497F202318
:1057200005222846FFF7C2FF11E091F86200052725
:10573000022805D0D5F8C00281684046884748B1A4
:105740003A23414602222846FFF7B0FF277230462F
:10575000BDE8F0810020E060FAE710B508B1C26052
:1057600007E04FF0FF3010BD521E92B284188B5CE0
:105770002374002AF8D1002010BD2DE9F047D0F89D
:10578000BC521746064689464FF0FF38ADB3287A1B
:1057900020B13046BDE8F047FFF789BD05F58054DC
:1057A000A069A0B3207F000631D4D6F8C00281687A
:1057B0004846884728B13A230AE03046FFF776FF8B
:1057C0001BE0D6F8C002C1684846884718B12723B5
:1057D00049460222F1E7D7F80210787909BA21F098
:1057E000FF0249460243E266B7F8070043BA304673
:1057F0002367FFF713FC002802DA4046BDE8F08774
:10580000B4F86410236FA0694B43984203D020235F
:10581000617F0522D1E74FF48050834200D30346D5
:105820000120287205F110020146304601F00AFD00
:105830000020E3E72DE9F047D0F8BC5216460746B2
:105840008A464FF0FF3965B3287A20B13846BDE863
:10585000F047FFF72CBD05F58054A06910B1207FFB
:10586000000606D5617F202305223846FFF71EFF7C
:105870002EE0D7F8C0028168504688474FF00508EF
:1058800008B13A2306E0D7F8C002C16850468847FD
:1058900040B12723514602223846FFF707FF85F81B
:1058A000088015E0D6F80210707909BA21F0FF02DD
:1058B0000243E266D6F80600717A00BA20F0FF03D0
:1058C00038460B4351462367FFF7A8FB002802DA4E
:1058D0004846BDE8F087B4F86410236FA0694B43D5
:1058E0009842BFD14FF48050834200D30346012039
:1058F000287205F110020146384601F0A3FC002091
:10590000E7E710B5026840F26F335169946944F0DB
:10591000080494610268946944F010049461026878
:10592000146824F001041460026814699C43146133
:105930000268936823F44043936090F88120042A1E
:105940000CD08A060AD5D0F8842042F08002C0F834
:1059500084200268936943F02003936190F88120CA
:10596000032A0CD04A060AD5D0F8842042F004025B
:10597000C0F884200268936943F0400393618A056C
:105980000AD5D0F8842042F00102C0F884200268D1
:10599000936943F400739361C9050AD5D0F8841064
:1059A00041F00801C0F8841001688A6942F48072ED
:1059B0008A610021A0F86210A0F86A1010BD2DE9DC
:1059C000F041984616460D460746069C09E0FBF74F
:1059D00067F9A0EB0800A04202D3601C01D00BE0E5
:1059E00054B13868406935EA000007D00020B04261
:1059F000EDD00020BDE8F0810320FBE70120F6E7B1
:105A000000207047F8B504466A46002003468DF82A
:105A1000000004F120001321054603F0E2FB0A21F7
:105A20000646204600F006FA00236A46282128464A
:105A300003F0D7FB064420460A2100F0FBF90023BF
:105A40006A463621284603F0CCFB01460B488C19E8
:105A50000B49027B806801EBC00000790AB940F075
:105A60000800694601228DF80000284603F0B2FBC9
:105A7000001901D04FF0FF30F8BD00005C22002477
:105A8000E0010024F8B504466A46002003468DF87C
:105A9000000004F120001321054603F0A2FB0A21B7
:105AA0000646204600F0C6F900236A46292128460A
:105AB00003F097FB064420460A2100F0BBF90023BF
:105AC0006A463621284603F08CFB01460B488C19A8
:105AD0000B49027B806801EBC00000790AB940F0F5
:105AE0000800694601228DF80000284603F072FB89
:105AF000001901D04FF0FF30F8BD00005C220024F7
:105B0000E00100242DE9FF4F93F8038093469C7831
:105B100083B0DF7A4FF0000993F80CC004EB08243F
:105B2000997ACA4693F80D80DE7C01EB07211F7D30
:105B30004FEA0C4C9A7C0CEB086893F815C088442B
:105B4000DD7D3F0402EB06221E7E987D07EB0C6C88
:105B50005F7E6244360400EB05201D7906EB076684
:105B60005F7930442D0405EB0767324D3C4403EB6D
:105B7000080613466D680090A5EB0B05291AA4EBE7
:105B8000080B88460A46DDE9030100F089FC4FF066
:105B9000FF35E8BB274C284F207B0028A06817F86A
:105BA000300001D140F008008DF804000398012373
:105BB00036212030009001AA03F013FB40BBDDE941
:105BC0000301424600F006FC10BB707802228DF8FB
:105BD000080002A930788DF80900009803F0FAFA5D
:105BE00008B1A94604E0B61C0AF1020ADA45ECD372
:105BF000207B0028A06807EBC000007901D140F0AD
:105C000008008DF8040001230098362101AA00E065
:105C10000BE003F0E6FA40B96068002200901146FC
:105C20002368039800F03CFC00B1A94607B0484641
:105C3000BDE8F08F5C220024E00100242DE9F04152
:105C40001D46144B00248046069F48194FF0FF362E
:105C50001B68984219D8404600F0BCFBA8B90E4911
:105C60000020C7F30722FBB206E000BF01EB4007AC
:105C700001F81020401C7B70A842F7D306496A0047
:105C800008F1200003F0A6FA00B134462046BDE832
:105C9000F08100005C220024DC1F00242DE9F05F6D
:105CA0008A460F491E468346DDF828909019002544
:105CB000174649684FF0FF38884208D8002409E0A9
:105CC0003A194B465146584600F0C6FC08B14546C5
:105CD00002E0641CB442F3D32846BDE8F09F000004
:105CE0005C2200242DE9FF5F1D481C4691468B462F
:105CF000DDE90E674FF0FF3A4FF0000803688A199C
:105D00009A4204D8416809EB0700884201D9D0467D
:105D100022E000251EE000BF009809EB050259466D
:105D200000F058FBA0B90F49002008E0227801F8E4
:105D3000102001EB40026378401CA41C5370B04259
:105D4000F4D3009872000749203003F043FA00B101
:105D5000D0466D1CBD42DFD304B04046BDE8F09F85
:105D60005C2200245C1D00242DE9F84F0026994692
:105D70008A468346DDE90A78144635460DE04B46EF
:105D8000224651465846CDF80080FFF757FF10B124
:105D90004FF0FF3603E0641C6D1CBD42EFD330466C
:105DA000BDE8F88F4FF0FF30704700000248806870
:105DB00008600020704700005C220024FEB51C46ED
:105DC000054600F007FB064605F120002E2105469A
:105DD00002AA03F0F1F906442846012202A903F0C1
:105DE000F2F9064469460122284603F0ECF906441C
:105DF0002846012201A903F0E6F99DF80420801944
:105E00009DF8001001EB0221216001D04FF0FF301E
:105E1000FEBD0000024800680860002070470000D6
:105E20005C2200240248406808600020704700009F
:105E30005C22002470B50546C0690E4680470446C2
:105E4000E8698047001BB042FAD3002070BD2DE9FD
:105E5000F74F5FEA000982B07DD04FF0000B6A4631
:105E600001215C4609F120005B468DF800B00190ED
:105E700003F0B7F978214846FFF7DCFF01980023CB
:105E800001216A468DF8004003F0ABF97821054600
:105E90004846FFF7CFFF0198012311216A468DF88C
:105EA000004003F09EF900236A46B12105440198A1
:105EB00003F097F946190198012569462A468DF89D
:105EC000005003F087F9871901982C2669460122B2
:105ED0008DF8006003F07EF900EB07084FF02D0A03
:105EE00001980122574669468DF800A003F072F927
:105EF00001236A46B2218DF800508044019803F0D6
:105F000070F901226946804401988DF8006003F021
:105F100061F901226946804401988DF8007003F010
:105F200059F901236A46B3218DF800508044019845
:105F300003F057F901226946804401988DF800600A
:105F400003F048F901226946804401988DF80070F9
:105F500003F040F900E0CCE1012269468044019859
:105F60008DF8005003F036F90122694600EB080570
:105F700001988DF8006003F02DF94619019801226F
:105F800069468DF8007003F025F907256A4601235C
:105F90008DF80050B4210644019803F022F9A221A3
:105FA0006A468719019801238DF80010C02103F07B
:105FB00018F90226694601228DF80060074401980D
:105FC00003F008F984218DF8001001226946074486
:105FD000019803F0FFF8C5216A4601238DF80010EF
:105FE000C1210744019803F0FCF80A216A46012305
:105FF0008DF80010C2210744019803F0F2F8012245
:106000006946074401988DF8004003F0E3F88A24BC
:106010006A4601238DF80040C3210744019803F02C
:10602000E0F82A218DF80010012269460744019802
:1060300003F0D0F801236A46C4218DF800400744DC
:10604000019803F0CEF8EE218DF80010C4190198E4
:106050000122694603F0BEF80E216A4601238DF83D
:106060000010C5210444019803F0BBF804990444CE
:106070004FF000036A46097B00297ED02021019859
:1060800003F0AFF801233A210444019803AA03F076
:10609000A8F80123B046E0216A46044401988DF82F
:1060A000006003F09EF81C218DF800100122694663
:1060B0000444019803F08EF80122694604440198D3
:1060C0008DF8005003F086F812218DF8001001229F
:1060D00069460444019803F07DF837218DF80010DB
:1060E000012269460444019803F074F832218DF8C6
:1060F0000010012269460444019803F06BF8292638
:10610000694601228DF800600444019803F062F8AA
:1061100001226946044401988DF800A003F05AF862
:1061200001226946044401988DF8006003F052F89A
:1061300025218DF80010012269460444019803F0DE
:1061400049F82B218DF8001001226946044401987A
:1061500003F040F839218DF8001007190198012249
:10616000694603F037F801225C4607440198694606
:106170008DF800B003F02EF800E0BFE001218DF8AB
:106180000010074401980A46694603F023F80122EB
:106190004FF0030B0744019869468DF800B003F0F7
:1061A00019F80744694610208DF800000198012273
:1061B00003F010F801236A46E1218DF800B007448E
:1061C000019803F00EF8074469461D208DF8000081
:1061D0000198012202F0FEFF01226946074401985E
:1061E0008DF8005002F0F6FF06218DF80010012214
:1061F00069460744019802F0EDFF2E256946012209
:106200008DF800500744019802F0E4FF0744694606
:106210002C208DF800000198012202F0DBFF012202
:106220006946074401988DF8006002F0D3FFC61953
:106230000198012269468DF800A002F0CBFF0122EF
:106240006946064401988DF8005002F0C3FF012210
:106250006946064401988DF8005002F0BBFF3721D3
:106260008DF80010851901980122694602F0B2FFED
:106270003F218DF80010012269460544019802F083
:10628000A9FF01226946054401988DF8004002F0FB
:10629000A1FF01226946054401988DF8004002F0F3
:1062A00099FF01226946054401988DF8008002F0AB
:1062B00091FF10218DF800100122694605440198D4
:1062C00002F088FF01236A4613218DF8004005443F
:1062D000019802F086FF4419019801236A4629219A
:1062E00002F07FFF04440499484600F065F9001964
:1062F00001D04FF0FF3005B0BDE8F08F2121BEE6A0
:10630000F8B520300E46DA216A46074602F054FFFF
:106310004FF0FF3408B12046F8BD6D463846DB210A
:106320006A1C02F049FF0028F5D1AA1C3846DC217E
:1063300002F042FF0028EED1BDF801109DF80020C8
:1063400049BA62F31F413160F8BD30B40C460369AD
:106350002046114630BC184730B40C4683692046AD
:10636000114630BC184700004FF0FF3210B5E0B1C5
:106370000B6803604C68002B44600C890481CC6876
:10638000C4600C6904614C6944618C698461C969A9
:10639000C1610749416207490162074981620749B2
:1063A000C0E90B1001D098470246104610BD00000E
:1063B0004B630008A1660008C16300085963000828
:1063C00030B40C4643692046114630BC18474FF0A4
:1063D000FF307047F8B51446304A0D4611469368B1
:1063E0000A7B497B012B0FD8012902D0022906D054
:1063F00018E00AB1183515E0641C1A3512E0012ABC
:1064000010D1641CAD1C0DE0012902D0022905D079
:1064100008E00AB1183405E01A3402E0012A01D17B
:10642000A41C6D1C6A462030002306462A2102F077
:10643000D8FE07466946280A8DF80000012230463A
:1064400002F0C8FE07446946012230468DF800502C
:1064500002F0C0FEC5196A46002330462B2102F027
:10646000C0FE210A8DF8001005446946012230461D
:1064700002F0B0FE05446946012230468DF8004026
:1064800002F0A8FE44196A46002330462C2102F08F
:10649000A8FE001901D04FF0FF30F8BD5C220024A7
:1064A0002DE9F8431546434A0C461E461146DDF8D1
:1064B000209093680A7B497B012B0ED8012902D0DA
:1064C000022905D019E00AB1183416E01A3402E0A6
:1064D000012A12D1A41C6D1C0FE0012902D002294F
:1064E00007D00AE004F101040AB1183505E01A35B5
:1064F00003E0012A01D1641CAD1C6A462030002350
:1065000080462A2102F06DFE07466946200A8DF872
:1065100000000122404602F05DFE07446946012268
:1065200040468DF8004002F055FE34446946641E32
:10653000C619200A8DF800000122404602F04AFEEA
:1065400006446946012240468DF8004002F042FEB2
:1065500084196A46002340462B2102F042FE290A94
:106560008DF80010044469460122404602F032FED4
:1065700006196946012240468DF8005002F02AFEB5
:1065800005EB09046946641E8519200A8DF8000090
:106590000122404602F01EFE0544694601224046A3
:1065A0008DF8004002F016FE401901D04FF0FF3088
:1065B000BDE8F8835C2200242DE9FC41244C5023E3
:1065C0004A7B05468F68A02080263FB1012F05D069
:1065D000012A0FD08AB1022A0FD010E0012A03D07D
:1065E0002AB1022A03D00AE0C4E9003007E0C4E976
:1065F000006004E0C4E9000301E0C4E90006886823
:106600000022A060087B2073487B1146607360689D
:10661000009028462368FFF743FF217B06460D487C
:106620000029A16800EBC100007901D140F0080009
:106630008DF804000123362101AA05F1200002F0A3
:10664000D0FD801901D04FF0FF30BDE8FC81000083
:106650005C220024E0010024F8B506460F481F0A1A
:106660004FF6FF7404EA03234FF0FF353B43ADF8C8
:106670000030036800248B420DD9406890420AD94B
:106680003046FFF7A7FE30B90222694606F1200026
:1066900002F0A0FD00B12C462046F8BD5C2200248B
:1066A000F0B4C66814460D4621462846B446F0BCF0
:1066B0001A466047034803690B60808A10800020F7
:1066C000704700006C2200240120704700207047B2
:1066D00000207047002070472DE9F0410D46194910
:1066E0001F46144610B1012816D028E0002688461F
:1066F0000FE000BFD8F814100A4601FB04F0014671
:10670000284601F00BFFD8F81400761CB6B2641CC2
:106710000544BE42EED312E0002688460DE000BFDD
:10672000D8F81420284602FB04F102F04BF8D8F800
:106730001400761CB6B2641C0544BE42F0D300209F
:10674000BDE8F0816C2200242DE9F0410D461E4980
:106750001F46144610B101281BD031E000268846A0
:1067600014E000BFD8F81400604301F01DFED8F813
:1067700014100A4601FB04F00146284601F02AFFE6
:10678000D8F81400761CB6B2641C0544BE42E9D3A6
:1067900016E00026884611E0D8F81400604301F0A6
:1067A000ABFFD8F81420284602FB04F102F04CF8A5
:1067B000D8F81400761CB6B2641C0544BE42EBD374
:1067C0000020BDE8F08100006C22002470470178B1
:1067D000407841EA00207047FAF77CBAF0B59DB0E6
:1067E0004C216846F9F72CFF202113A8F9F728FF60
:1067F0000220FBF749F821490A68214822F00102EA
:106800000A600968016821F4404141F400410160D7
:106810000168002401F440411B9101688904FCD502
:10682000184A0220082511680926C70321F003032E
:1068300001219B1C1360CDE900670AAF0591052279
:1068400009906023042687E80D00CDE90D06CDE907
:1068500010540F9068461294FCF7C8F813AA3F2012
:10686000032182E833000221179413A81894199485
:106870001A94FBF7CFFE1DB0F0BD00002C040058A9
:106880001848025828440258214A30B52149146852
:106890000020204B44F47004146010330A681E4D2D
:1068A00042F001020A6018600A681A4B2A400A6026
:1068B00018331C1D251D174A186028322060131D2F
:1068C00028601C1D251D10602A1D1860131D2060E6
:1068D0001C1D2860251D10601860206028600A6853
:1068E0000C4B0E4C22F4802260330A601860206842
:1068F0006FF30F00B0F1005F03D209490120C1F826
:1069000008014FF0006002498039086030BD000086
:1069100088ED00E0004402587FEDF6EA0010005CCC
:10692000008000512DE9F047274B4FF0804A274D5A
:1069300002689842264E274F274C09D0504507D071
:10694000A84205D0B04203D0B84201D0A04205D140
:10695000D1F804C022F070024CEA0202DFF87CC0D9
:10696000DFF87C809842DFF87C900FD050450DD046
:10697000A8420BD0B04209D0B84207D0A04205D0FF
:10698000604503D0404501D0484503D1CD6822F48D
:1069900040722A434D6922F080022A4302609842E5
:1069A0008A68C2620A68826207D0A04205D0604548
:1069B00003D0404501D0484501D109690163012157
:1069C0004161BDE8F0870000000001400004004084
:1069D00000080040000C004000040140004001405D
:1069E000004401400048014010B5046A042301F04E
:1069F0001F018B409C4304628A40016A114301627B
:106A000010BD00002DE9F04F026ADFF88880DFF842
:106A1000889022F00102DFF884A0DFF884B0214FD3
:106A20000262DFF884C0066A4268836926F00206C3
:106A30000D68B8428C6803EA0C0323F0030344EAB0
:106A4000060445EA030507D0404505D0484503D074
:106A5000504501D0584505D1CB6824F008042343A4
:106A600023F00404B84207D0404505D0484503D080
:106A7000504501D0584505D122F44076D1E9053280
:106A800033431A4342608561496841630462BDE84B
:106A9000F08F00000004014000400140004401402C
:106AA00000480140000001408FFFFEFFF0B5026A80
:106AB0001E4E1F4C22F01002DFF878E00262056AD9
:106AC0004368826925F02005D1F808C0A0420F680C
:106AD00002EA060222F4407245EA0C1542EA072255
:106AE00001D0704506D1CE6825F0800545EA06152F
:106AF00025F04005A0420AD0704508D00E4CA042B7
:106B000005D00E4CA04202D00D4CA04207D1D1E9D5
:106B1000054623F4406343EA840343EA8603436063
:106B20008261496881630562F0BD0000FF8FFFFE4E
:106B300000000140000401400040014000440140C9
:106B400000480140F0B5026A1C4D1D4E22F48072CF
:106B5000A8420262026A4368C76922F40072D1F84F
:106B600008C00C6827F0730742EA0C2244EA0704C5
:106B700001D0B04206D1CF6822F4006242EA072277
:106B800022F48062A8420AD0B04208D00D4DA8423B
:106B900005D00D4DA84202D00C4DA84207D1D1E935
:106BA000055623F4405343EA051343EA06134360B2
:106BB000C4614968C1630262F0BD00000000014089
:106BC00000040140004001400044014000480140F1
:106BD00070B5026A144B22F4805202629842036A32
:106BE0004268C46923F400538E680D6824F4E644B7
:106BF00043EA063344EA05240BD00C4DA84208D0E2
:106C00000B4DA84205D00B4DA84202D00A4DA84218
:106C100004D14D6922F4804242EA85124260C46187
:106C200049680164036270BD000001400004014036
:106C3000004001400044014000480140F0B5026AB4
:106C400022F480320262134F056A4268446D25F4D3
:106C500000350E89B8420B6824F0700445EA0645F9
:106C600043EA04030BD00C4CA04208D00B4CA042CA
:106C700005D00B4CA04202D00A4CA04204D14C6972
:106C800022F4803242EA0422426043654968816509
:106C90000562F0BD000001400004014000400140D9
:106CA0000044014000480140F0B5026A22F480121D
:106CB0000262134F046A4268436D24F400140E8983
:106CC000B8420D6823F4E04344EA065443EA05233E
:106CD0000BD00C4DA84208D00B4DA84205D00B4D4F
:106CE000A84202D00A4DA84204D14D6922F40032D4
:106CF00042EA8522426043654968C1650462F0BD8D
:106D000000000140000401400040014000440140F7
:106D10000048014010B5D0F8B8220AB15268904737
:106D2000002010BD13460A46002110B500F08AFA73
:106D3000002010BD13460A46002110B500F029FBC3
:106D4000002010BD10B58021044600F007FB20464E
:106D5000BDE81040002100F001BB10B50521C0F8CE
:106D6000941200231A46194600F06CFA002010BD58
:106D700010B582610223C0F89432C26113460A46FC
:106D8000002100F006FB002010BD10B50421C0F862
:106D9000941200231A46194600F0FBFA002010BD99
:106DA00004A00A46024910B500F0E1F8004810BD01
:106DB000A40600244D534320436F6E6669670000AC
:106DC00012200880004870472000002404A00A46D2
:106DD000024910B500F0CBF8004810BDA40600240D
:106DE0004D534320496E746572666163650000000F
:106DF00004200880004870471C00002404A00A46B4
:106E0000024910B500F0B3F8004810BDA4060024F4
:106E100053544D6963726F656C656374726F6E690C
:106E20006373000004A00A46024910B500F09FF801
:106E3000004810BDA406002453544D3332204D6148
:106E400073732053746F72616765000010B51A2068
:106E500008800B480A490830021F09680068146856
:106E6000081809D007490822FCF7D2FF0549042277
:106E700020461031FCF7CCFF0248801E10BD0000F8
:106E800000E8F11F36000024F8B504460D46002046
:106E9000ADF800004888010A08295FD2DFE801F058
:106EA0005E0409175E5E3C45D4F8B412207C0A6883
:106EB00019E0207C02260028D4F8B80205D0C16A67
:106EC000684688470146467039E0816AF8E7C0B2F3
:106ED000062843D2DFE800F0030A1014181CD4F887
:106EE000B402426805E0694690471CE0D4F8B40259
:106EF000826892B3207CF6E7D4F8B402C268F8E75F
:106F0000D4F8B4020269F4E7D4F8B4024269F0E7B5
:106F1000D4F8B4028269ECE7207CF0B9D4F8B80266
:106F2000416B68468847014609E0207CA8B9D4F83F
:106F3000B802016B68468847014607204870EA8816
:106F40008AB1BDF8000040B1824200D90246204615
:106F5000ADF80020FFF70CFFF8BDFFE729462046FB
:106F6000FFF7F0FEF8E72046FFF70FFFF4E770B5F4
:106F700000284FF000051ED004462E4602E0761C85
:106F8000641CF6B22378002BF9D1022404EB4604EA
:106F9000148012786B1C03264A550024AA1CCE5478
:106FA00006E0551C8B54EAB2531C401C8C54DAB2D8
:106FB0000378002BF5D170BD01004FF0000004D024
:106FC000012901D0022901D0032070470120704718
:106FD00078B10023C0F8B832C0F8C032C0F8CC3263
:106FE00009B1C0F8B4120121027080F89C1200F0BF
:106FF000BBB80320704710B5D0F8C402F9F7D9FF29
:10700000BDE81040FFF7D8BF10B5D0F8C402F9F7BB
:10701000AAFFBDE81040FFF7CFBF70B51646044683
:1070200021B194F89C02032841D048E0D4F894128E
:10703000002504F11400022932D1D0E90232934232
:1070400006D99A1A314682602046FFF773FE0FE098
:107050009A4214D14068904211D3D4F898128842D1
:107060000DD2002220461146FFF764FEC4F8985264
:1070700000231A461946204600F0E4F810E094F880
:107080009C02032805D1D4F8B802C16809B1204692
:1070900088478021204600F061F92046FFF75DFE19
:1070A00094F8A00201280AD184F8A05207E0D4F88D
:1070B000B80242691AB120469047002800D100204A
:1070C00070BD10B51346044621B194F89C02032804
:1070D00023D02AE0D4F8941204F5AA70032924D10D
:1070E000D0E9021291420AD98A1A8260C0688242AB
:1070F00000D3024619462046FFF714FE15E094F827
:107100009C02032805D1D4F8B802016909B12046D0
:1071100088472046FFF739FE07E0D4F8B8028269B5
:107120001AB120469047002800D1002010BD002051
:10713000704710B5D0F8B812012280F89C2219B11E
:1071400003794A68D9B29047002010BD10B5D0F835
:10715000C402F9F75CFFBDE81040FFF72DBFD0F87F
:10716000C402F9F76DBF000070B5017841BB154945
:1071700001260022144C02230925C1F80404C0F89A
:10718000C4120846C1E90336C1E906320A624A62FE
:107190008A62CA620A63C1E90045FAF74BFA08B18C
:1071A000F9F73FFC07488021F9F79BFE054840228C
:1071B0000021F9F79AFE034880220121F9F795FE94
:1071C000002070BD1C19002400000840D0F8C42223
:1071D00001F07F000B06C0EBC00002EB800002D57F
:1071E00090F83E00704790F8FE01704710B5D0F857
:1071F000B82222B190F89C32032B02D004E0032085
:1072000010BD126A02B19047002010BD10B5D0F831
:10721000B82222B190F89C32032B02D004E0032064
:1072200010BD526A02B19047002010BD10B51C4637
:10723000D0F8C40213462246F9F70BFFBDE8104010
:10724000FFF7BABE10B5D0F8C402F9F732FFBDE8B7
:107250001040FFF7B1BE70B5044601250020D4F8F8
:10726000B81284F89C52C4F894026060C4F8A40276
:10727000E1B1D4F8BC0220B14A6812B10021204625
:1072800090470022204640231146FFF7CFFF4026BB
:10729000A4F864510022334680212046C4F860617E
:1072A000FFF7C4FFA5840020266270BD032070BDD7
:1072B00090F89C12042903D190F89D1280F89C123A
:1072C0000020704710B5D0F8B81221B190F89C2278
:1072D000032A02D004E0032010BDC96901B1884728
:1072E000002010BD01740020704710B5D0F8C40212
:1072F000FAF776FABDE81040FFF75EBE70B50446B7
:1073000000F2AA20054600F02EF994F8AA02012303
:10731000B4F8B01210F01F02C4F89432C4F89812F6
:107320000AD0012A0ED0022A12D000F08001204695
:10733000BDE8704000F012B829462046BDE8704014
:1073400000F0A2B929462046BDE8704000F0C7BA57
:1073500029462046BDE8704000F021BA10B5D0F8AB
:10736000C402F9F7C8FEBDE81040FFF725BE10B50E
:10737000D0F8C402FAF74FFABDE81040FFF71CBE80
:1073800090F89C22042180F89D2280F89C12002015
:10739000704710B5D0F8C402F9F7E7FEBDE8104019
:1073A000FFF70ABE10B5FCF7E9FF002010BD10B5CD
:1073B000FDF704F8002010BD70B501210446FFF769
:1073C00023FE002520468121A4F87851FFF71CFEFA
:1073D000D4F8BC02258740B12046FDF70FF8D4F859
:1073E000BC0200F0A6FAC4F8BC52002070BD000038
:1073F0000A210180004870472001002420210180DB
:1074000000487047E00000242021018000487047B8
:10741000C0000024202101800048704700010024A2
:1074200070B5044641F2740000F084FAC0B1217CCA
:107430000125C4F8BC02C1B140232046022201212B
:10744000FFF7F4FE4023A4F8785102222046812160
:10745000FFF7ECFE20462587FCF7D7FF002070BD24
:107460000020C4F8BC02022070BD4FF40076204614
:10747000022233460121FFF7D9FE3346A4F87851A2
:10748000E3E719B1C0F8C01200207047032070472D
:10749000F8B506460C4600200546D6F8BC72ADF895
:1074A000000037B1207810F0600123D0202940D1AE
:1074B00001E00320F8BD6178FE2902D0FF2938D110
:1074C0000EE0618881BBE188012932D1000630D508
:1074D000D6F8C002806980470122394638601FE033
:1074E000618809BBE188F9B9000622D43046FCF76F
:1074F000B2FF23E0607830B1012824D00A2809D0F7
:107500000B2816D111E096F89C02032811D1022213
:10751000694605E096F89C0203280AD10122391D2C
:107520003046FFF725FC09E003E096F89C020328AB
:1075300006D021463046FFF705FC03252846F8BD56
:10754000A0787860FAE796F89C020328F6D1608864
:107550000028F3D121793046FFF7F8FD2179304634
:10756000FCF7EEFEEAE770B5054608788C1C28703B
:10757000487868702046FFF72AF9A41C68802046E6
:10758000FFF725F9A880A01CFFF721F9E88070BD5E
:1075900038B504460020ADF8000049B1C4F8B8126F
:1075A000C96A19B168468847C4F8CC02002038BDC2
:1075B000032038BDD0F8B83202460320002B02D099
:1075C0001B681046184770472DE9F0412C4E0446C1
:1075D000887800250F46C1B20129317006D9394695
:1075E0002046FFF7AFFB0320BDE8F08194F89C0232
:1075F00002280CD003281DD039462046FFF7A2FBF5
:1076000031782046FFF786FB03252846ECE799B33F
:1076100020466160FFF7CEFF050004D039462046C2
:10762000FFF790FBF1E72046FFF7AFFB032084F85C
:107630009C02EAE74FF00208C1B1606888421BD0A3
:10764000C1B22046FFF766FB317820466160FFF744
:10765000B1FF050010D039462046FFF773FB2179B2
:107660002046FFF757FB84F89C82CEE7616084F8E0
:107670009C822046FFF74EFB2046FFF786FBC4E7BF
:1076800084000024FFF773BE2DE9F0410A784FF023
:10769000000512F0600208D0202A01D0402A71D1E2
:1076A000D0F8B8229268904731E04B78002201264A
:1076B0000A2B67D2DFE803F0415E6658660805666C
:1076C0002D29FFF7E1FB5FE004468888D8B9C88818
:1076D000C8B94888802816D294F89C2200F07F0709
:1076E000032A10D03946204684F89E72FFF7FDFD2C
:1076F0002046FFF74AFB1FB1022084F89C0243E0BA
:1077000084F89C6240E020463CE0FFF75DFF0546C0
:107710003AE0CB88012B35D190F89C32012B04D074
:10772000022B02D0032B2DD104E000F1080182606E
:10773000012216E00122011D13E090F89C22012A8B
:1077400003D0022A01D0032A1CD1CA88022A19D1E7
:10775000D0F8A412C66009B10321C160022200F171
:107760000C01FFF705FB0FE0498801290CD1C0F897
:10777000A46211E090F89C32012B08D0022B06D0B5
:10778000032B04D0FFF7DEFA2846BDE8F0814988D4
:107790000129F9D1C0F8A422FFF7F7FAF4E72DE99F
:1077A000F0410446087800260D46097910F0600083
:1077B0000BD0202801D040286DD1D4F8B80229463A
:1077C000826820469047064686E06878A8B301287C
:1077D00022D003287CD194F89C02022802D00328EE
:1077E00076D10BE0002973D0802971D02046FFF7B5
:1077F000B5FD80212046FFF7B1FD6DE0688838B9FE
:1078000031B1802904D0E88810B92046FFF7A6FDE1
:107810002046FFF7BAFA5FE094F89C020228E1D014
:10782000032855D16888A8BB480602D02046FFF738
:10783000E2FB2046FFF7A9FABFE7FFE794F89C02B6
:107840000027022802D0032842D111E009B1802983
:107850003ED1080601F07F0000EB800004EB8001C0
:1078600001D5143101E001F5AA7102220F602BE06D
:10787000080601F00F0000EB800004EB80000BD540
:10788000808C40B101F07F0000EB800004EB8005AC
:1078900014350CE020E01BE0B0F86401C0B101F049
:1078A0007F0000EB800004EB800505F5AA7541B16F
:1078B000802906D02046FFF789FC10B101202860FE
:1078C00000E02F60022229462046FFF751FA03E02C
:1078D00029462046FFF736FA3046BDE8F08170B5FC
:1078E000064608780D464FF0000410F0600003D003
:1078F000202801D0402817D196F89C02012803D0F7
:10790000022801D003280FD1287901280CD8D6F8F5
:10791000B8028268304690470446E888204306D182
:107920003046FFF732FA02E03046FFF70BFA204606
:1079300070BD704700487047A408002470B54D78AA
:1079400001230A78012D1C4C02F00F0503FA05F300
:10795000D0F81C5817D000EB421245EA0343C0F898
:107960001C38D2F8000B00040BD40B89C978D2F86C
:10797000000BC3F30A03184344EA81410843C2F8E9
:10798000000B002070BD9EB23543C0F81C5800EBC0
:107990004213D3F800090004F3D40D89C978D3F851
:1079A0000009C5F30A058904284341EA82510843C6
:1079B0002043C3F80009E4E700800010D0F8001964
:1079C0006FF30A01C0F80019D0F8041841F480716F
:1079D000C0F804180020704770B5044606990A9E46
:1079E000049D01290D981DD0E06840F04000E06042
:1079F000204600F035F8A16B5EB321F48031A1631D
:107A0000012D0ED1E16D144A89B2E165E16D11439A
:107A1000E165A16841F00601A160A16841F0200183
:107A2000A16070BDA26B01280C4922F48030A063D4
:107A3000E06800EA0100E060E06820F44010E060E7
:107A400003D1E06840F48010E060204600F008F8C0
:107A5000D6E741F48031D2E70000EE03BFFFBDFF5F
:107A60000C49012202E0521C8A420BD80369002B08
:107A7000F9DA0369012243F00103036104E0521CB7
:107A80008A4201D9032070470369DB07F7D1002040
:107A900070470000400D030070B50A7801234C7850
:107AA000012C00EB42122CD0D2F8004B002C0BDA48
:107AB000D2F8004B44F00064C2F8004BD2F8004BFF
:107AC00044F08044C2F8004B0C78D0F83C5804F0E5
:107AD0000F0403FA04F425EA0444C0F83C4809788A
:107AE000D0F81C4801F00F018B401C4924EA0343E5
:107AF000C0F81C38D2F8000B0840C2F8000B002078
:107B000070BDD2F80049002C0BDAD2F8004944F0DD
:107B10000064C2F80049D2F8004944F08044C2F839
:107B200000490D78D0F83C4805F00F050C4E03FADB
:107B300005F5ADB2AC43C0F83C48D0F81C48097814
:107B400001F00F018B4099B28C43C0F81C48D2F869
:107B500000093040C2F80009D1E700000078F3EFD7
:107B6000007833ECD0F8001E21F00301C0F8001EAD
:107B7000D0F8041821F00201C0F804180020704762
:107B8000D0F8001E21F00301C0F8001ED0F8041840
:107B900041F00201C0F80418002070472DE9F04FB1
:107BA0000E4604460021DDF824B00D46109F08461D
:107BB000DDF82C2004EB800CCCF80411401C0F28BD
:107BC000F8D32046AFB1806B40F4001CC4F838C035
:107BD00088460846C4F8000ED4F80008012A214659
:107BE000C4F800081BD00846D1F8001841F0030182
:107BF0001BE0D0F8040840F0020CC4F804C8A06BE5
:107C000020F4001CC4F838C0206840F0400CC4F8D0
:107C100000C0206840F0800CC4F800C0D8E70846D7
:107C2000D1F800180BB141F00101C0F80018102183
:107C300000F092FA00B10125204600F07DFA00B173
:107C4000012540464FF000694FF67F334FF0904AD0
:107C5000C4F81088C4F81488C4F81C88002114E003
:107C600004EB4112D2F800C9BCF1000F06DA11B1E1
:107C7000C2F800A904E0C4F8009901E0C2F80009C4
:107C8000C2F81009C2F80839491C8E42E8D8002110
:107C900015E000BF04EB4112D2F800CBBCF1000F9D
:107CA00006DA11B1C2F800AB04E0C4F8009B01E0B1
:107CB000C2F8000BC2F8100BC2F8083B491C8E42F8
:107CC000E8D8D4F81038BBF1000F6FF0804223F4ED
:107CD0008073C4F81038A061626103D1A06940F0DC
:107CE0001000A061A069094A0C9940EA0200A06155
:107CF00019B1A06940F00800A061012F03D1A0696B
:107D000003490843A0612846BDE8F08F00383C8055
:107D100004000040816821F001018160002070476B
:107D200070B50B784E78444C0D78012E00EB431360
:107D300020D0D3F8100B6FF31200C3F8100BD3F858
:107D4000100B2040C3F8100B486908B188684861DF
:107D5000D3F8100B012A40F40020C3F8100BD3F81D
:107D6000100B8A68C2F3120240EA0200C3F8100B3B
:107D700056D059E04E69002ED3F8106933D06FF316
:107D80001206C3F81069D3F810692640C3F81069C9
:107D90004E698C68A64200D94C61D3F8104944F46E
:107DA0000024C3F81049D3F810494E69C6F31206EF
:107DB00054EA0604C3F81049012A22D000EB451208
:107DC000D2F8003943F00443C2F800394A6932B3AB
:107DD0000B78D0F83418012203F00F039A401143B6
:107DE000C0F8341826E02640C3F81069D3F81049CB
:107DF00044F40024C3F81049D3F810496FF3120477
:107E0000D8E7096919B100EB4512C2F8141900EB63
:107E10004510D0F8001941F00441C0F8001909E0FC
:107E2000C86808B1C3F8140BD3F8000B40F0044045
:107E3000C3F8000B002070BDFFFF07E010B5144C25
:107E4000036CA34203D9D0F8003B002B1EDB0023B8
:107E5000C0F8103B0129D0F8101B41F40021C0F8F4
:107E6000101BD0F8101B41F01801C0F8101BD0F8FF
:107E7000101B41F0C041C0F8101B07D1C0F8142BF3
:107E8000D0F8001B41F08021C0F8001B002010BD7D
:107E90000A30544F0B784A78012A00EB43100BD07C
:107EA000D0F8002B22F40012C0F8002BC978032967
:107EB00014D0022912D017E0D0F8002922F40012C1
:107EC000C0F80029C978032901D002290CD1D0F8C3
:107ED000001941F08051C0F8001905E0D0F8001BEE
:107EE00041F08051C0F8001B002070470A784B78A1
:107EF000D1B2012B00EB421012D0D0F8002B002A97
:107F000006DB29B1D0F8001B21F08041C0F8001B2E
:107F1000D0F8001B41F40011C0F8001B002070478E
:107F2000D0F80029002A06DB29B1D0F8001921F089
:107F30008041C0F80019D0F8001941F40011C0F8D0
:107F40000019EBE7F8B50B786FF060464F78764D87
:107F5000DCB2012F00EB431326D0D3F8104B6FF3A4
:107F60001204C3F8104BD3F8104B2C40C3F8104B3D
:107F70004C698D68002C74D0D3F8107B2C44641E9F
:107F8000B4FBF5F4A4B206EAC4452F43C3F8107B52
:107F9000D3F8105B8E686643C6F312042543C3F81A
:107FA000105B012A72D0A6E04F6927B3D3F810798D
:107FB0006FF31207C3F81079D3F810792F40C3F884
:107FC00010794F698D68D3F810C92F447F1EB7FB15
:107FD000F5F506EAC54545EA0C05C3F81059D3F88E
:107FE00010594E69C6F312063543C3F81059CD78BF
:107FF000012D10D01BE0D3F810692E40C3F8106992
:10800000D3F8105945F40025C3F81059D3F8105986
:108010006FF3120509E0D3F8105925F0C045C3F8F5
:108020001059D3F8105945F00055C3F81059012ADA
:1080300018D000EB4413D3F8004944F00444C3F8CB
:108040000049CC78012C2FD04A6962B30B78D0F864
:108050003418012203F00F039A401143C0F834187A
:108060005FE036E00A691AB100EB4413C3F8142943
:10807000C97801290FD1D0F80818C90500EB4411BF
:10808000D1F8002903D442F0005202E02FE042F080
:108090008052C1F8002900EB4410D0F8001941F0DB
:1080A0000441C0F800193CE0D0F80848E405D3F8D2
:1080B000004902D444F0005401E044F08054C3F875
:1080C000004900928B8A0A78C9689BB200F050F987
:1080D00027E0D3F8104BC5F312052C43C3F8104B1F
:1080E000D3F8104B44F40024C3F8104B59E7CA6886
:1080F0000AB1C3F8142BC97801290CD1D0F80808AB
:10810000C005D3F8000B02D440F0005001E040F06D
:108110008050C3F8000BD3F8000B40F00440C3F8C4
:10812000000B0020F8BD0000FFFF07E0816841F070
:108130000101816000207047064A10210161002181
:10814000491C914201D9032070470369DB06F7D42B
:1081500000207047400D03002023074A43EA8113A3
:1081600003610021491C914201D903207047036932
:108170009B06F7D400207047400D0300D0F8080894
:1081800010F0060004D0022803D0062801D00F20EA
:10819000704702207047406900F001007047D0F836
:1081A0001818D0F81C08084080B27047D0F818188A
:1081B000D0F81C080840000C704710B5D0F8102803
:1081C00001F00F0300EB4114D0F83418D4F808097B
:1081D000D94001F0010142EAC111084010BD00EB95
:1081E0004111D1F8081BD0F81408084070474169C4
:1081F0008069084070470346084630B5940802F08D
:108200000301002203F5805303E01D68521C40F86F
:10821000045BA242F9D300290CD01C680023491E3C
:10822000DD00090403F10103090C24FA05F200F84A
:10823000012BF4D130BD10B5C268012922F0C04233
:10824000C26002D029B1012010BDC16841F00051C7
:1082500002E0C16841F08041C1603220F8F7E2FBE2
:10826000002010BDD0F800284FF4FE6303EA01138C
:1082700022F4FE62C0F80028D0F800181943C0F8B4
:108280000018002070470000022A3ED1264A274BE2
:108290000A449A4201D20F2138E0254A254B0A446C
:1082A0009A4201D20E2131E0234A244B0A449A42D9
:1082B00001D20D212AE0224A224B0A449A4201D2DD
:1082C0000C2123E0204B214A0B44934201D20B2185
:1082D0001CE01F4B1F4A0B44934201D20A2115E0B8
:1082E0001D4B1E4A0B4493420FD31D4B1D4A0B449A
:1082F000934201D2082109E01B4B1C4A19449142C8
:1083000001D2072102E0062100E00921C2684FF4F2
:10831000705322F47052C26003EA8123C16819438A
:10832000C160002070470000405327FF00350C005B
:10833000401E1BFF40420F0000DC0BFF804F12006D
:10834000808CF9FE20D6130060B6E5FE60E31600CF
:1083500000D3CEFE40771B00C05BB3FEC09121006E
:1083600000CA91FE20753800E05459FEE09C41009F
:1083700010B5029C74B900EB0232DB1C00209B0894
:1083800002F5805204E000BF51F8044B1460401C19
:108390009842F9D3002010BDFEE710B5052000F08B
:1083A000BDFFC007FAD110BD38B50446F8F778FC18
:1083B000054620208DF80000210C8DF80110220ABE
:1083C0008DF802208DF8034000F064F9114C002272
:1083D00040212046F8F750FC0F4804224FF47A73EE
:1083E0006946FBF758F8012220464021F8F744FC83
:1083F00040F6B83407E000BFF8F752FC401BA0423B
:1084000001D9032038BD00F009F80228F4D000207B
:1084100038BD0000000C0258780200247CB511A081
:10842000114C00224021006800902046F8F724FCFF
:108430004FF47A750D4801222B466946FBF72BF85D
:108440000A48012201A92B46FAF7FEFE0122204626
:108450004021F8F711FC9DF80400C00700D002206D
:108460007CBD000005000000000C025878020024CA
:1084700038B54FF48072044611010801E060C4E988
:108480000512684600F07AF8BDF80000A0F56F40CC
:108490001338052801D3012038BD00EE100AF8EE8C
:1084A000C00AB0EE000A00F013FABCEEC00A63691D
:1084B000BDF8001010EE100AE26800056060B0FB25
:1084C000F3F3B0FBF2F023612160A060002038BD1F
:1084D0000EA038B50E4C00220068402100902046C6
:1084E000F8F7CAFB0B4802224FF47A736946FAF791
:1084F000D2FF012220464021F8F7BEFB0420F8F706
:1085000091FABDE838400448FFF7B2BF6699000011
:10851000000C0258780200246C220024F8B50546AD
:1085200014460320134F8DF800000A0C8DF801202B
:108530000B0A8DF80230002238468DF803104021D6
:10854000F8F79AFB4FF47A760B48042233466946D3
:10855000FAF7A1FFA2B2084833462946FAF774FE9B
:1085600008B10120F8BD012238464021F8F784FB0C
:108570000020F8BD000C0258780200247CB50446A7
:10858000124D11A000224021006801902846F8F702
:1085900073FB4FF47A760E480422334601A9FAF7AA
:1085A0007AFF0B48022233466946FAF74DFE9DF8E2
:1085B000001001229DF8010000EB012020804021E5
:1085C0002846F8F759FB7CBD90000000000C0258CB
:1085D000780200242DE9F84F17460D468346F8F738
:1085E0005FFB0646002001E000F58070A842FBD941
:1085F000441BBC4200D93C46DFF8908005EB070ADB
:108600004FF002094FF47A778DF80090290C8DF81D
:1086100001102A0A8DF802208DF8035000F03AF874
:10862000002240464021F8F727FB194804223B4628
:108630006946FAF730FF30B9A2B215483B465946B1
:10864000FAF729FF10B10120BDE8F88F012240465A
:108650004021F8F711FB06E0F8F722FB801BB84237
:1086600001D90320F0E7FFF7D9FE0228F4D0254412
:1086700005F580705045A34402D9AAEB050401E03A
:108680004FF480745545BFD30020DDE7000C02583D
:1086900078020024F8B515A000680090F8F700FBF8
:1086A000134E0022402105463046F8F7E5FA4FF414
:1086B0007A741048012223466946FAF7ECFE01223B
:1086C00030464021F8F7D8FA0AE000BFF8F7E8FA98
:1086D000401BA04201D90320F8BD0020F8F7A2F901
:1086E000FFF79CFE0228F1D00020F8BD0600000034
:1086F000000C02587802002410B586B0044600F041
:108700009BF8FFF74AFE104800214FF40053007811
:10871000052810D04FF440605FEAA0020491CDE933
:1087200002010A48CDE9001220212246FCF783FA13
:10873000040004D005E04FF480608210EEE7FFF7FC
:108740002CFE06B0204610BD0002002408020024C2
:10875000F0B585B014460E46054600F06DF8174892
:108760004FF040714FF4005302780020052A0FD0DB
:108770008A1304940F14CDE902215FF002013246FE
:10878000CDE900070E48FCF756FA040009D012E0C4
:108790004FF480620494CDE90221971032463221D1
:1087A000EEE7074841F288322946F9F76DFA0400EE
:1087B00001D1FFF7F2FD05B02046F0BD0002002414
:1087C000080200241A4BF0B51B780546EB20042B59
:1087D0008FB029D004244FF4807300904FF40050E0
:1087E000FF27CDE9054300234FF4406407944FF081
:1087F000407CCDE9030326010C93CDE90A230D93B8
:1088000041F28834CDE901170A482246CDE9086CC7
:108810006946F9F7C1F8002804D1064822462946DE
:10882000F9F7D2F90FB0F0BD06244FF44073D4E746
:108830000002002408020024024810B5FCF73EFAAA
:10884000C0B210BD080200242DE9F04107461546CC
:10885000C8B20E46C0F58074A24200D8ACB24FF444
:108860008078224631463846FFF772FFA54208D08D
:108870002D1B45452744264401D94446F1E7ACB2B7
:10888000EFE7BDE8F0814100080218BF04200A0E9E
:1088900018BF40F001004FF07F4232EA010108BFEB
:1088A00040F00200012808BF052070470907002892
:1088B0004FEA116104DB00F1E02080F800147047FA
:1088C00000F00F0000F1E02080F8141D7047000058
:1088D00010B52DED088B9FEDFE1A10EE100A10EE6C
:1088E000901AB0EE418A0022A0F5000C4FF0007300
:1088F000DFEDF89ABCF1FE4F4FF07F4403EB410CE3
:1089000080F0A481BCF1804FC0F01882F24901448C
:108910009FEDF23A9FEDF2AAB1F5005F40F2CA82F4
:1089200000F58021CB0C03F00F0100EE101AC3F309
:1089300007137F3BA0EBC350B8EEC02A01EE900AAC
:108940001A44DFEDE82AB0EE410A02EE220AF0EE08
:10895000403A31EEA30A31EEE32A10EE100A00F598
:1089600000606FF30B0002EE900A73EEE23A73EED2
:10897000A13AC1EE001A22EE210A10EE100A00F50B
:1089800000606FF30B0000EE100A00EE622A00EEAA
:10899000632A62EE212A70EE221A21EEA12ADFED6F
:1089A000D23A02EE233A23EE023A20EE012A22EED8
:1089B000811A03EE211A32EE010A10EE100A00F5B8
:1089C00000606FF30B0000EE100A72EE401A31EEF9
:1089D000812A9FEDC61A60EE011A9FEDC51A20EE9E
:1089E000011A9FEDC40A02EE001A31EE810A10EE60
:1089F000100A00F500606FF30B0000EE100ABE488D
:108A000071EEC01A31EE812A784400EBC10090ED7E
:108A1000003AD0ED011A100101EE100AF8EEC12A59
:108A200032EE211A31EE001A31EE031A31EE221A1B
:108A300011EE100A00F500606FF30B0008EE900ACB
:108A400038EEE21A31EE431A31EE400A30EE610A96
:108A500072EE40AA10EE900A002100F500606FF35C
:108A60000B0009EE100A084630EEC9BA4FF00000BC
:108A700028EE890A00F00C01F0EEC00A10EE900A10
:108A8000B0F18B4F0FDD10EE900AB4EB400F0AD31C
:108A900010EE100A4FF08B42B0EE699A62F31E009E
:108AA00008EE900A13E068EE8B0A39EE0B1A4AEED4
:108AB000810A30EE201A11EE100A00F500606FF303
:108AC0000B0008EE900A30EE680A30EE209A0C2077
:108AD0004FF0000038EE890AB4EEE90AF1EE10FA20
:108AE00038BF9FED86AA3AEE000ABDEEC00A10EE2E
:108AF000100A011100EE101AF8EEC00A00EE100A7A
:108B0000B8EEC00A38EEC00A30EE090ADFED7C1A72
:108B10009FED7C1A00EE211ADFED7B1A7B4900F0F5
:108B20000F0040EE011A21EE800A794401EB80012A
:108B300091ED001A7649794401EB8001D1ED001ADC
:108B4000744901EE801A794401EB8000724990ED7E
:108B5000000A31EE001AB0EEE00A10EE100A884268
:108B600015DA10EE100AB4EB400F10D39FED6B0A2C
:108B700030EE800ADFED6A0A20EE200A68EE010A74
:108B8000BDEC088BBCEEC00A20EE200A10BD10EE32
:108B9000100A6449884233DA10EE100AB4EB400F31
:108BA0002ED3BDEEE00A68EE010A10EE100A00EBCB
:108BB000D0725110C90501F17E5100EE101AA0EBE0
:108BC0006200C00560EE200A00F17E5000EE100A3F
:108BD00060EE808A18EE900AB4EB400F25D018EEB4
:108BE000900A400011D018EE900AFFF74CFE0428BE
:108BF00008BF00F0B9F9B0EE680ABDEC088B10BDF3
:108C0000F4EEE90AF1EE10FA0FD20220F7F799FD1F
:108C100000F0AAF918EE100A10EE101ABDEC088B3D
:108C200061F31E0000EE100A10BD0220F7F789FD67
:108C300000F092F918EE100A10EE101ABDEC088B35
:108C400061F31E0000EE100A10BD00BFBCF1804FA2
:108C500074D300BF00F1FF43B3F1FE4F24D200BF35
:108C6000B0EEC00A10EE100AC1F3C7537F2B0DDB24
:108C7000972BBFF64BAEC3F196034FF0010C0CFAE5
:108C800003F3A3F1010C1CEA010F08D00120F7F750
:108C900058FDBDEC088BBDE8104000F055B90B4203
:108CA00018BF9FED218A31E643001CBF4FF080734F
:108CB000B3EB400F3CD96FF01A02DFED1C1A20EE27
:108CC000210A10EE100A10F0004FC9D11EE635E05F
:108CD0000000803F00000000001080C0ABAAAA3E48
:108CE0000000003F0000803D7EE24C3E00B0384274
:108CF000D49AB8BB3BAA3842F4140000000000BF6D
:108D0000FC596337C9FF753A1872313D921400005F
:108D1000C6140000361400000000FC420000FE42B1
:108D20000000004B00004043000080BF0000004DE9
:108D3000A0F50003B3F1FE4F21D2E7E503EB4103B9
:108D4000B3F1007F11D3F4EE690AF1EE10FA05D108
:108D5000430018BFB4EB400F76D87BE701F0004129
:108D600041F0FC5100EE901A74E7B3F1807F06D217
:108D700010EE903AA3F5000300EE903A6AE720F077
:108D800000426FF0FF4C604C02EB0C03A34210D387
:108D900021F000439C44A4450BD3B0F17E5F18BF83
:108DA0005FEA410C50D0B2F1FF4F98BFB3F1FF4FD3
:108DB00005D9BDEC088BBDE8104000F0C1B8B0F19A
:108DC000FF4F0FD0C1F3C7527F2A09DB972A11DA70
:108DD000C2F19602012303FA02F2531E0B4205D0A0
:108DE000002208E011F0004F55D128E00A4218BFD8
:108DF000012200D1022210F5000F13D028B3B0F1E8
:108E0000004F26D010F1814F4FD04FF0FE42B2EB11
:108E1000400F94BF01200020012202EBE171884243
:108E200039D10CE011F0004F02D0012A38D032E0E5
:108E3000012A02BF9FED350ABDEC088B10BD9FEDE6
:108E4000340ABDEC088B10BD2FE011F0004F0CD19F
:108E500021E0B1F1FF4F1ED011F5000F05D011F048
:108E6000004F15D00AB1012A08D00220F7F769FC9B
:108E7000BDEC088BBDE8104000F056B80220F7F7B3
:108E800060FC00F051F8BDEC088BB1EE400A10BD5B
:108E90000AB1012A04D0B0EE690ABDEC088B10BDFE
:108EA000BDEC088B9FED1B0A10BDBDEC088BB0EE2E
:108EB000410A10BD30EE410A9FED171A9FED182AA6
:108EC00000EE413AB0EE4A1A60EE001A00EE431A84
:108ED00061EEC11A9FED111A20EE011A20EE020A6E
:108EE0009FED102A01EE820A71EE001A11EE900A2F
:108EF00000F500606FF30B0008EE900A31EE681A7F
:108F000071EE00AAA6E50000FFFF3F00000080FF11
:108F10000000807F000000800000803E00B0B8416B
:108F2000D49A38BB3BAAB841DFED030A9FED031A80
:108F300080EE810A704700000000803F00000000C2
:108F400030EE200A70470000DFED020A80EEA00A32
:108F500070470000000000009FED020A20EE000AAA
:108F600070470000000000709FED020A20EE000A2A
:108F70007047000000000010F7F792BE10B50348DC
:108F800000240421FAF7E2FD204610BD88030024E6
:108F90002DE9F341164E4FF400650022884629461C
:108FA0003046F7F769FEAC00304600222146F7F75D
:108FB00063FE1048642301226946FAF76CFA012225
:108FC000074621463046F7F757FE0A4801224FF47C
:108FD000FA734146FAF738F9C41929460122304696
:108FE000F7F74AFE604294FBF0F0BDE8FC81000018
:108FF00000100258000300242DE9F0410D4E4FF4FB
:10900000006500220C46074629463046F7F734FE35
:10901000A2B209484FF4FA733946FAF715F901225A
:10902000044629463046F7F727FE604294FBF0F0ED
:10903000BDE8F08100100258000300242DE9F04142
:109040000D4E4FF4006500220C4607462946304677
:10905000F7F712FEA2B2094864233946FAF71BFA61
:109060000122044629463046F7F706FE604294FB8B
:10907000F0F0BDE8F0810000001002580003002469
:109080002DE9F743174E4FF4006815468946002234
:1090900041463046F7F7F0FD4FF4005730460022C6
:1090A0003946F7F7E9FD1048642301226946FAF7CB
:1090B000F2F90122044639463046F7F7DDFD3DB1AD
:1090C000AAB209484FF4FA734946FAF7E4F904449E
:1090D000414601223046F7F7CFFD604294FBF0F0A5
:1090E000BDE8FE83001002580003002488B0FBF79F
:1090F00043F8F7F751FCF7F7F5FDFDF76FFBFBF7CA
:109100003BFCFBF7E9F9FBF779FAFBF793FAFBF77E
:10911000BDFAFBF7EBFAFBF73FFBFAF799FF184DA7
:109120000C24184F02AE12E0F7F7BAFD16A1024662
:1091300002A8F7F7A3F9CDE90046288810233A21C1
:1091400082B20020FAF75AFF0520FAF7FDFF97F8E0
:109150009C020328E8D100BFF7F7A2FD10A1024648
:1091600002A8F7F78BF9CDE90046288810233A21A9
:1091700082B20020FAF742FF0520FAF7E5FFEBE79D
:109180005C220024D403002455534220556E636FA3
:109190006E6E65637420256420202020000000008E
:1091A00055534220436F6E6E656374202564202002
:1091B000202020200000000030B444680369A44649
:1091C00030BC1846604730B4D0E90343A44630BCF5
:1091D0001846604730B484680369A44630BC18461A
:1091E000604730B4046905682046AC4630BC60472F
:1091F00030B5184D352085B000F090F80446800752
:1092000006D4FFF719FB312044F0020100F0DAF830
:1092100000204FF4807103460246CDE90110382149
:109220000390049000902846FBF705FD41F2883139
:109230002846FBF7C1FB10B105B0012030BD06493F
:109240000420087005B008210846BDE8304000F051
:109250008FB800000802002400020024184A0620EB
:1092600030B5C1051478420287B0052C4FF4005385
:1092700016D0C501049000241248CDE902219021A6
:109280002246CDE9004500BFFBF7D5FC0D4805A9F6
:1092900041F28832F8F798FC68B1012007B030BD80
:1092A000CDE903104FF480740090CDE90142002213
:1092B00004489421E8E7BDF8140040BAEEE7000046
:1092C0000002002408020024052010B5F7F7AAFBCD
:1092D000FBF776F90648FBF779FC0020F7F7A2FBCD
:1092E000FFF7BCFF03494880BDE8104000F004B818
:1092F0000802002400020024052010B500F00EF83A
:10930000054C2070352000F009F86070152000F041
:1093100005F8A070002010BD0402002410B5124B07
:1093200086B0002201218DF814201B78052B17D060
:109330004FF040731C140491CDE902230023014631
:10934000CDE9002409481A46FBF775FC074805A932
:1093500041F28832F8F738FC9DF8140006B010BDD1
:109360004FF080731C14E6E700020024080200247A
:1093700040084FF0FF3200B587B0000102EBD10189
:10938000103801F0030108438DF81400FFF754FA78
:109390004FF040720020131401210491CDE9020224
:1093A000CDE90003C021034602460548FBF743FC14
:1093B000034805A941F28832F8F766FC07B000BD02
:1093C0000802002413B51049002286B00B78012151
:1093D000052B15D04FF040731C140491CDE90223E6
:1093E00000230146CDE9002408481A46FBF723FC78
:1093F000064807A941F28832F8F746FC08B010BDCC
:109400004FF080731C14E8E70002002408020024D7
:109410004FF04070E1EE100A7047008002021F001A
:1094200000005765416374202020535049204D535C
:1094300043202020202020202020302E303100808A
:1094400002021F0000005765416374202020515321
:109450005049204D53432020202020202020302E12
:10946000303100000000010203040102030406077A
:1094700008090000000000000000000000000000DB
:1094800000003F40000000000000000030004000ED
:1094900030004000000009000BC03D000BC03D0043
:1094A000090018C024407FE02240318000001800ED
:1094B00024C01B000D803240018003801C402740E7
:1094C0001C80074000401000600000000000000009
:1094D00000000000000000001F802040402000002D
:1094E000402020401F8000000000090006001F806F
:1094F000060009000000040004003F80040004008E
:1095000000000010006000000000000000000400E7
:1095100004000400040004000000000000400000FB
:10952000000000000000002001C0060038004000DC
:1095300000001F802040204020401F8000000000CD
:1095400010403FC000400000000018C021402240F1
:1095500024401840000010802040244024401B80FC
:10956000000002000D0011003FC0014000003C80DF
:10957000244024402440238000001F8024402440B5
:109580003440038000003000200027C03800200055
:1095900000001B802440244024401B8000001C004D
:1095A00022C0224022401F8000000000000008402E
:1095B0000000000000000000000004600000000047
:1095C0000000000004000A00110020804040090053
:1095D0000900090009000900000000004040208047
:1095E00011000A0004001800200023402400180085
:1095F00000001F802040274029401F4000000040FD
:1096000007C039000F0001C0004020403FC0244087
:1096100024401B8000001F802040204020403080DC
:10962000000020403FC0204020401F80000020401C
:109630003FC024402E4030C0000020403FC02440A6
:109640002E00300000000F001080204022403380A8
:10965000020020403FC0040004003FC020402040E2
:1096600020403FC0204020400000006020202020FB
:109670003FC02000200020403FC024400B0030C0ED
:10968000204020403FC020400040004000C03FC07C
:109690003C0003C03C003FC0000020403FC00C40E5
:1096A00023003FC020001F802040204020401F801A
:1096B000000020403FC024402400180000001F800C
:1096C0002140214020E01FA0000020403FC0244056
:1096D000260019C0004018C0244024402240318098
:1096E0000000300020403FC020403000000020003B
:1096F0003F80004000403F80200020003E0001C02D
:10970000070038002000380007C03C0007C03800C0
:109710000000204039C0060039C020400000200071
:10972000384007C0384020000000304021C02640AB
:10973000384020C00000000000007FE040204020B2
:109740000000000070000C000380004000000000DA
:10975000402040207FE0000000000000200040008A
:109760002000000000000010001000100010001089
:109770000010000000004000000000000000000099
:1097800002800540054003C0004020003FC0044067
:1097900004400380000000000380044004400640B1
:1097A000000000000380044024403FC0004000004F
:1097B00003800540054003400000000004401FC036
:1097C000244024402000000002E0055005500650CF
:1097D000042020403FC00440040003C000400000BB
:1097E000044027C0004000000000001000100410DA
:1097F00027E00000000020403FC00140070004C0F7
:109800000440204020403FC000400040000007C00E
:10981000040007C0040003C00000044007C0044067
:10982000040003C0004000000380044004400380A3
:109830000000041007F00450044003800000000002
:1098400003800440045007F00010044007C00240A9
:10985000040004000000000006400540054004C06C
:109860000000000004001F800440004000000400CD
:1098700007800040044007C000400400070004C007
:10988000018006000400060001C0070001C00600B8
:109890000000044006C0010006C00440000004109F
:1098A000071004E00180060004000000044005C029
:1098B0000640044000000000000004007BE040205F
:1098C0000000000000000000FFF0000000000000A9
:1098D00040207BE0040000000000400080004000C9
:1098E00020002000400000000000000000000000F8
:1098F0000000000000000000000000001FCC000C71
:1099000000000000000000000800300060000800B7
:10991000300060000000022003FC1E20022003FC37
:109920001E200220000000000E1811043FFF1084CA
:109930000C78000000000F0010840F3800C007787A
:1099400018840078000000780F8410C411240E9849
:1099500000E40084000808006800700000000000B7
:1099600000000000000000000000000007E01818E0
:10997000200440020000000040022004181807E004
:109980000000000000000240024001800FF0018052
:109990000240024000000080008000800FF800803C
:1099A0000080008000000001000D000E000000009B
:1099B00000000000000000000080008000800080A7
:1099C0000080008000800000000C000C00000000FF
:1099D0000000000000000000000600180060018088
:1099E000060018002000000007F00808100410040A
:1099F000080807F000000000080408041FFC000429
:109A000000040000000000000E0C1014102410448C
:109A100011840E0C000000000C1810041104110435
:109A200012880C700000000000E0032004240824C9
:109A30001FFC0024000000001F9810841104110472
:109A4000108810700000000007F00888110411044D
:109A500018880070000000001C00100010FC1300AB
:109A60001C001000000000000E3811441084108407
:109A700011440E38000000000700088C1044104408
:109A8000088807F00000000000000000030C030C31
:109A900000000000000000000000000101060000BE
:109AA00000000000000000000080014002200410BF
:109AB00008081004000002200220022002200220D8
:109AC00002200220000000001004080804100220F8
:109AD00001400080000000000E001200100C106C0D
:109AE00010800F00000003E00C1813E4142417C4C6
:109AF000082807D000000004003C03C41C400740B5
:109B000000E4001C000410041FFC110411041104E3
:109B10000E880070000003E00C18100410041004FC
:109B200010081C10000010041FFC10041004100486
:109B3000080807F0000010041FFC1104110417C4EA
:109B400010040818000010041FFC1104110017C0B5
:109B500010000800000003E00C181004100410446A
:109B60001C780040000010041FFC1084008000805E
:109B700010841FFC10040000100410041FFC1004CB
:109B800010040000000000030001100110011FFE7E
:109B900010001000000010041FFC11040380146466
:109BA000181C1004000010041FFC10040004000422
:109BB0000004000C000010041FFC1F0000FC1F002C
:109BC0001FFC1004000010041FFC0C04030000E044
:109BD00010181FFC100007F00808100410041004EF
:109BE000080807F0000010041FFC1084108010808B
:109BF00010800F00000007F0081810241024101C1B
:109C0000080A07F2000010041FFC1104110011C023
:109C100011300E0C000400000E1C1104108410847E
:109C200010441C3800001800100010041FFC100421
:109C300010001800000010001FF8100400040004B9
:109C400010041FF8100010001E0011E0001C00702E
:109C500013801C0010001FC0103C00E01F0000E03B
:109C6000103C1FC000001004180C163401C001C0C5
:109C70001634180C100410001C00130400FC13040C
:109C80001C00100000000804101C10641084130451
:109C90001C04101800000000000000007FFE4002BD
:109CA000400240020000000030000C000380006011
:109CB000001C0003000000004002400240027FFE42
:109CC00000000000000000000000200040004000F4
:109CD000400020000000000100010001000100011F
:109CE00000010001000100004000400020000000D1
:109CF000000000000000000000980124014401441D
:109D0000014400FC000410001FFC00880104010451
:109D10000088007000000000007000880104010449
:109D200001040088000000000070008801040104A4
:109D300011081FFC0004000000F801440144014424
:109D4000014400C800000000010401040FFC1104DC
:109D5000110411001800000000D601290129012971
:109D600001C90106000010041FFC0084010001006D
:109D7000010400FC000400000104190419FC0004A3
:109D800000040000000000000003000101011901AF
:109D900019FE0000000010041FFC0024004001B464
:109DA000010C010400000000100410041FFC00045A
:109DB000000400000000010401FC0104010001FC9A
:109DC0000104010000FC010401FC00840100010009
:109DD000010400FC0004000000F801040104010477
:109DE000010400F80000010101FF008501040104E5
:109DF0000088007000000000007000880104010469
:109E0000010501FF00010104010401FC00840104BB
:109E1000010001800000000000CC01240124012485
:109E200001240198000000000100010007F801046E
:109E3000010400000000010001F800040004000417
:109E4000010801FC0004010001800170000C0010F9
:109E500001600180010001F0010C003001C0003000
:109E6000010C01F0010000000104018C007401707C
:109E7000018C01040000010101810171000E001834
:109E800001600180010000000184010C01340144E3
:109E90000184010C0000000000000000000001002F
:109EA0003EFC400240020000000000000000FFFFF6
:109EB0000000000000000000400240023EFC0100E3
:109EC00000000000000000006000800080004000F2
:109ED00040002000200030313233343536373839F5
:109EE00041424344454640305800303132333435E6
:109EF0003637383961626364656640307800000047
:109F000000000000000000000000B33FB2BE7D3A38
:109F100000002E40DFCF513800007E40BF51FABA1A
:109F200000E0A44019DAC3BA00E0C840C2ED8AB923
:109F30000040EB40CD1F2CBA001006412AFFFABAB0
:109F400000C01541DFCFD13700D024419A97703A35
:109F50000050334189478E3600404141E75B9D38D0
:109F600000B04E41C00A98B900A05B41558F943AA9
:109F700000306841DA92C0BA0040744162B3C63A18
:109F80000000803F00A0853F00908B3F00C0913FC4
:109F90000030983F00F09E3F00F0A53F0050AD3FDD
:109FA0000000B53F0000BD3F0060C53F0020CE3F30
:109FB0000040D73F00C0E03F00C0EA3F0020F53F2F
:109FC000000000007D36AC397D3C3839EBDCF438DC
:109FD000320A7E39124C26399B6AED39A4EE833958
:109FE0007F661E39F6398A392B426539A4821139C8
:109FF0005B991F39C3EECD39DDE7C637A5A22F39EE
:10A000000000803FC3AA853FC2958B3FD3C3913FD9
:10A01000F037983F32F59E3FD7FEA53F3F58AD3F02
:10A02000F304B53FA408BD3F2A67C53F8C24CE3F4B
:10A03000FD44D73FDFCCE03FC7C0EA3F7D25F53F79
:10A0400060A000080000002408020000D4020008FC
:10A0500084A1000808020024E0600000300300082A
:10A0600013C16D1B08F1041AFD0413256E1B084D66
:10A07000041AA10C1ACD04170403090412013202B8
:10A08000164083042A57260201020301031A1A0309
:10A0900013CD661B08B5041AD1041AD5041AD904C5
:10A0A0001349671B08C908131A941A083F11821034
:10A0B0003C90D00304311321741408B9731B089128
:10A0C00008811AA5101AAF04C11A09201AFD141A22
:10A0D00015081AF108140902202008010104C032F1
:10A0E0000904180A020806500507058102B42C0766
:10A0F0000501070914202240292019070B1C090714
:10A10000201B0A0645212A40B8190A1A80021B089A
:10A110002001322203120812622609121B1163FF6A
:10A12000FF8B7D8FD41B8190F419101A3D081AF90A
:10A13000081A7904134F5E1C08015A0412631B08A5
:10A1400085081A05041ACF0C13A55D1408B9651B00
:10A1500008AD081AD51013055B1C08E55C3C190412
:10A160001A9D041A69181ABD041359661B08154470
:10A170001A250419C31132C072803220326032E0D5
:04A1800032A0720592
:040000050800029954
:00000001FF
